{
	"data": {
		"bytecode": {
			"linkReferences": {},
			"object": "608034620002a8576001600160401b03606082018181118382101762000292576040526200002c620002ad565b600490818152602090634d414c4560e01b8282015284526200004d620002ad565b600681526546454d414c4560d01b82820152818501526200006d620002ad565b60068152654f544845525360d01b82820152604085015260009283549460039586865580871062000215575b5084805282852085915b878310620000ea57868087818b8160025555553360018060a01b031960015416176001558060085580600c5580600d558060155560165560405161438d9081620003248239f35b80518051908582116200020257908691620001068554620002cd565b90601f91828111620001c7575b50839183116001146200015c579180600195928695948d9262000150575b5050600019828e1b1c191690841b1785555b01920192019190620000a3565b01519050388062000131565b858b52838b209190601f1984168c5b818110620001ae575091600196939185889796941062000195575b505050831b8301855562000143565b0151600019838f1b60f8161c1916905538808062000186565b8284015185558b9660019095019493840193016200016b565b620001f190878d52858d20600585808801821c830193898910620001f8575b01901c01906200030a565b3862000113565b93508293620001e6565b634e487b7160e01b895260418852602489fd5b8580528684872091820191015b81811062000231575062000099565b806200024060019254620002cd565b806200024f575b500162000222565b601f908181118414620002695750508781555b3862000247565b836200028492848c52898c20920160051c820191016200030a565b878681208183555562000262565b634e487b7160e01b600052604160045260246000fd5b600080fd5b60408051919082016001600160401b038111838210176200029257604052565b90600182811c92168015620002ff575b6020831014620002e957565b634e487b7160e01b600052602260045260246000fd5b91607f1691620002dd565b81811062000316575050565b600081556001016200030a56fe608080604052600436101561001357600080fd5b60003560e01c908162da72281461284d575080630273d66e146127d3578063029c21bd146127b55780630983f185146127975780631812dab4146127795780631bf533a4146122c35780631d50384b146120c557806324d7806c146120905780632526e05d14611d9e5780632d23c73514611a035780632e6997fe1461196b57806335bbe70e146118815780634a3ccc96146117d85780634f2352071461176d57806350e2e8af146116f757806353ac5dc31461167c5780636332abc91461165e5780636394a8fa14611604578063640e79b7146114f257806369d2bca1146113dd57806371c693eb146111c85780637c054c54146111aa5780637fd5f26814610f7d5780638287e42f14610f225780638ab66a9014610ebb5780638d0371ff14610e9d5780639682f9b314610d7c5780639eda74cf14610a6d578063a3ec138d14610a0f578063a96278ae146109b4578063b0a4ec421461097c578063b13c744b14610890578063b867bfcc146107a6578063ba71bef014610737578063c638407114610719578063defb908f146105cc578063e9af3fc0146104fb578063ef53c6ab146102a7578063f38451661461022d578063f7c4c25a1461020f5763fc6f9468146101e157600080fd5b3461020a57600036600319011261020a576001546040516001600160a01b039091168152602090f35b600080fd5b3461020a57600036600319011261020a576020601554604051908152f35b3461020a57602036600319011261020a5760043560105481101561020a5761028861028f6102a3926010600052604051928380927f1b6847dc741a1b0cd08d278845f9d819d87b734759afb55fe2de5cb82a9ae67201612a0e565b0382612b2c565b6040519182916020835260208301906128ff565b0390f35b604036600319011261020a576004356001600160401b0380821161020a573660238301121561020a5781600401356102de81612fc5565b916102ec6040519384612b2c565b8183526020938484016024600594851b8301019136831161020a57602401905b8282106104dc5750505060243590811161020a579161033084933690600401612ba4565b9060018060a01b0390600193849361034c848654163314613277565b8087016000865b610485575b506000965b61036357005b6013548710156103e757600261037888613138565b5001966040519760009881549161038e836129d4565b908183528c8301938d8c8216918260001461046657505060011461042e575b50506103bc818a9b0382612b2c565b51902083518320146103d7576103d1906131b5565b9661035d565b929394959150506000905b6103e9575b005b83518110156103e7576104289061042361040284613138565b508761040e8689613953565b5116600052858a528560406000209101613aac565b6131b5565b856103e2565b60009081528c81209b508c915b808210610451575082010199506103bc816103ad565b8c548285018401529b8b019b9082019061043b565b60ff19168652921515891b84019092019b506103bc91508290506103ad565b84518110156104d7576104d190610423856040518c8188516104a881838b6128dc565b8101601181520301902001886104be848a613953565b5116600052868c52604060002090613aac565b86610353565b610358565b81356001600160a01b038116810361020a57815290860190860161030c565b606036600319011261020a5761050f6128c6565b6001600160401b0360243581811161020a5761052f903690600401612ba4565b9060443590811161020a57610548903690600401612ba4565b6040519161055583612abf565b3383526020830152604082015260018060a01b038092168060005260126020526005906105888383604060002001613d53565b60005b6014548110156103e75781856105a083612f8a565b505416146105b6576105b1906131b5565b61058b565b6103e794506105c59150612f8a565b5001613d53565b3461020a57602036600319011261020a5760043560135481101561020a576007906013600052026040516106268161028881857f66de8ffda797e3de9c05e8fc57b3bf0ec28a930d40b0d285d93c06501cf6a09001612a0e565b6102a37f66de8ffda797e3de9c05e8fc57b3bf0ec28a930d40b0d285d93c06501cf6a094604051936106858561067e817f66de8ffda797e3de9c05e8fc57b3bf0ec28a930d40b0d285d93c06501cf6a0918501612a0e565b0386612b2c565b6040516106b881610288817f66de8ffda797e3de9c05e8fc57b3bf0ec28a930d40b0d285d93c06501cf6a0928601612a0e565b61070d604051926106f6846106ef817f66de8ffda797e3de9c05e8fc57b3bf0ec28a930d40b0d285d93c06501cf6a0938501612a0e565b0385612b2c565b6107066040518096819301612a0e565b0384612b2c565b60405195869586612dd4565b3461020a57600036600319011261020a576020600d54604051908152f35b3461020a57602036600319011261020a576107506128c6565b60006040805161075f81612abf565b6107676140f8565b815260606020820152015260018060a01b031660005260096020526102a3610792604060002061430c565b604051918291602083526020830190612d9f565b3461020a57600036600319011261020a57600f546107c381612fc5565b906107d16040519283612b2c565b8082526020908183019081600f6000527f8d1108e10bcb7c27dddfc02ed9d693a074039d026cf4ea4240b40f7d581ac8026000915b83831061086d5750505050604051918083019381845251809452604083019360408160051b85010192916000955b8287106108415785850386f35b90919293828061085d600193603f198a82030186528851612961565b9601920196019592919092610834565b60068660019261087f859a999a614154565b815201920192019190959495610806565b3461020a57602036600319011261020a5760043560065481101561020a57600660005260041b6108e1817ff652222313e28459528d920b65115c16c04f3efc82aaedc97be59f3f377c0d3f01612e7c565b6102a360405192610918846106ef817ff652222313e28459528d920b65115c16c04f3efc82aaedc97be59f3f377c0d4b8501612a0e565b7ff652222313e28459528d920b65115c16c04f3efc82aaedc97be59f3f377c0d4d6040519161096d83610706817ff652222313e28459528d920b65115c16c04f3efc82aaedc97be59f3f377c0d4c8501612a0e565b015490604051948594856130bf565b3461020a57602036600319011261020a576004356001600160401b03811161020a576109af6103e7913690600401612ba4565b613d86565b3461020a57602036600319011261020a57600435600b5481101561020a5761028861028f6102a392600b600052604051928380927f0175b7a638427703f0dbe7bb9bbf987a2551717b34e79f33b5b1008d1fa01db901612a0e565b3461020a57602036600319011261020a576001600160a01b03610a306128c6565b166000526009602052610a636040600020600d610a4c82612e7c565b910154604051928392604084526040840190612bfa565b9060208301520390f35b6101608060031936011261020a576001600160401b0360043581811161020a57610a9b903690600401612ba4565b9060643581811161020a57610ab4903690600401612ba4565b9160843582811161020a57610acd903690600401612ba4565b9160a43581811161020a57610ae6903690600401612ba4565b9460c43582811161020a57610aff903690600401612ba4565b60e43583811161020a57610b17903690600401612ba4565b6101043584811161020a57610b30903690600401612ba4565b916101243585811161020a57610b4a903690600401612ba4565b946101443590811161020a57610b64903690600401612ba4565b983360005260209760098952600260406000200154610d3757610b868b613d86565b60405199610b938b612ada565b338b52888a8c015260249b8c3560408d015260443560608d015260808c015260a08b015260c08a015260e089015261010088015261012087015261014086015284015260405192610be384612abf565b8352606082840152600060408401523360005260098252610c088360406000206141d7565b600b54600160401b9182821015610d22576001820180600b55821015610d0d57610c5891600b6000527f0175b7a638427703f0dbe7bb9bbf987a2551717b34e79f33b5b1008d1fa01db901613330565b600a5490811015610cf857806001610c739201600a55612e41565b610ce35782610c81916141d7565b600c5460018101809111610cce577ff59a1b8573db02cf501c11c9d7d88b5365a59bdf0555cfd387db21cfcaccf4da9350600c55610cc9604051928284938452830190612d9f565b0390a1005b83634e487b7160e01b60005260116004526000fd5b83634e487b7160e01b60005260006004526000fd5b83634e487b7160e01b60005260416004526000fd5b85634e487b7160e01b60005260326004526000fd5b85634e487b7160e01b60005260416004526000fd5b60405162461bcd60e51b8152600481018a9052601a60248201527f566f74657220616c7265616479207265676973746572656420210000000000006044820152606490fd5b3461020a57602036600319011261020a5760043560145481101561020a5760069060146000520260018060a01b03817fce6d7b5282bd9a3661ae061feed1dbda4e52ab073b1f9285be6e155d9c38d4ec0154166102a37fce6d7b5282bd9a3661ae061feed1dbda4e52ab073b1f9285be6e155d9c38d4f060405193610e278561067e817fce6d7b5282bd9a3661ae061feed1dbda4e52ab073b1f9285be6e155d9c38d4ed8501612a0e565b604051610e5a81610288817fce6d7b5282bd9a3661ae061feed1dbda4e52ab073b1f9285be6e155d9c38d4ee8601612a0e565b610e91604051926106f6846106ef817fce6d7b5282bd9a3661ae061feed1dbda4e52ab073b1f9285be6e155d9c38d4ef8501612a0e565b60405195869586612b4d565b3461020a57600036600319011261020a576020601654604051908152f35b3461020a57602036600319011261020a576001600160a01b03610edc6128c6565b1660005260056020526040600020610ef381612e7c565b6102a360405192610f0b846106ef81600c8501612a0e565b600e6040519161096d8361070681600d8501612a0e565b3461020a57602036600319011261020a5760043560075481101561020a5761028861028f6102a3926007600052604051928380927fa66cc928b5edb82af9bd49922954155ab7b0942694bea4ce44661d9a8736c68801612a0e565b3461020a57600036600319011261020a57601354610f9a81612fc5565b90610fa86040519283612b2c565b80825260208201908160136000527f66de8ffda797e3de9c05e8fc57b3bf0ec28a930d40b0d285d93c06501cf6a0906000915b83831061104957848660405191829160208301906020845251809152604083019060408160051b85010192916000905b82821061101a57505050500390f35b919360019193955060206110398192603f198a82030186528851612fdc565b960192019201859493919261100b565b60405161105581612b11565b604051611066816102888187612a0e565b815260405161107c816102888160018801612a0e565b6020820152604051611095816102888160028801612a0e565b60408201526040516110ae816102888160038801612a0e565b60608201526040516110c7816102888160048801612a0e565b60808201526005830180546110db81612fc5565b916110e96040519384612b2c565b81835260208301906000526020600020906000905b83821061118c575050505060a082015260068301805461111d81612fc5565b9161112b6040519384612b2c565b81835260208301906000526020600020906000905b83821061116757505050506001928260209260c06007950152815201920192019190610fdb565b60016020819260405161117e81610288818a612a0e565b815201930191019091611140565b6010602060019261119c8661320a565b8152019301910190916110fe565b3461020a57600036600319011261020a576020600354604051908152f35b60c036600319011261020a576001600160401b0360043581811161020a576111f4903690600401612ba4565b602491823581811161020a5761120e903690600401612ba4565b9160443582811161020a57611227903690600401612ba4565b60643583811161020a5761123f903690600401612ba4565b60843584811161020a57611257903690600401612ba4565b60a4359185831161020a573660238401121561020a5782600401359261127c84612fc5565b9361128a6040519586612b2c565b8085526020978a8987019260051b8401019236841161020a5790818c8b9998979695949301925b8484106113a4578d8d8b61132f8e611320838f8f8f8f6112dc60018060a01b03600154163314613277565b604051998a976112eb89612b11565b88528588015283604088015260608701526080860152606060a086015260c085015281604051938285809451938492016128dc565b81016011815203019020613681565b601354600160401b811015610cf85780600161134e9201601355613138565b610ce3578261135c91613681565b60165460018101809111610cce577fe23b65f5c9310b5b270b9d96e225be290d906fdbd35ec3efd3a8a9c3189320cd9350601655610cc9604051928284938452830190612fdc565b90919280949596979899503583811161020a578b916113ca8f9284933691870101612ba4565b815201930191908a9897969594936112b1565b608036600319011261020a576001600160401b0360043581811161020a57611409903690600401612ba4565b9060243581811161020a57611422903690600401612ba4565b9060443581811161020a5761143b903690600401612ba4565b9060643590811161020a57611454903690600401612ba4565b916040519361146285612aa4565b3385526020850152604084015260608301526080820152606060a0820152336000526012602052611497816040600020613c1e565b601454600160401b8110156114dc578060016114b69201601455612f8a565b9190916114c6576103e791613c1e565b634e487b7160e01b600052600060045260246000fd5b634e487b7160e01b600052604160045260246000fd5b3461020a57602036600319011261020a57600435600f5481101561020a57600690600f6000520260018060a01b03817f8d1108e10bcb7c27dddfc02ed9d693a074039d026cf4ea4240b40f7d581ac8020154166102a37f8d1108e10bcb7c27dddfc02ed9d693a074039d026cf4ea4240b40f7d581ac8066040519361159d8561067e817f8d1108e10bcb7c27dddfc02ed9d693a074039d026cf4ea4240b40f7d581ac8038501612a0e565b7f8d1108e10bcb7c27dddfc02ed9d693a074039d026cf4ea4240b40f7d581ac8048101546115f8604051926106f6846106ef817f8d1108e10bcb7c27dddfc02ed9d693a074039d026cf4ea4240b40f7d581ac8058501612a0e565b60405195869586612e05565b3461020a57602036600319011261020a5760043560005481101561020a5761028861028f6102a39260008052604051928380927f290decd9548b62a8d60345a988386fc84ba6bc95484008f6362f93160ef3e56301612a0e565b3461020a57600036600319011261020a576020600c54604051908152f35b3461020a57602036600319011261020a576116956128c6565b606060806040516116a581612af6565b6116ad6140f8565b8152826020820152826040820152600083820152015260018060a01b031660005260056020526102a36116e3604060002061320a565b604051918291602083526020830190612ce5565b3461020a57602036600319011261020a57600435600a5481101561020a57600e610a6391600a600052027fc65a7bb8d6351c1cf70c95a316cc6a92839c986682d98bc35f958f4883f9d2b5610a4c827fc65a7bb8d6351c1cf70c95a316cc6a92839c986682d98bc35f958f4883f9d2a801612e7c565b3461020a57602036600319011261020a576001600160a01b038061178f6128c6565b16600052600e6020526040600020908154166102a36004604051936117bb8561067e8160018501612a0e565b60028101546115f8604051926106f6846106ef8160038501612a0e565b3461020a57602036600319011261020a576004356001600160401b03811161020a57602061180d611820923690600401612ba4565b81604051938285809451938492016128dc565b8101601181520301902060405161183b816102888185612a0e565b6102a36004604051936118558561067e8160018501612a0e565b604051611869816102888160028601612a0e565b61070d604051926106f6846106ef8160038501612a0e565b3461020a57600036600319011261020a57600a5461189e81612fc5565b906118ac6040519283612b2c565b8082526020908183019081600a6000527fc65a7bb8d6351c1cf70c95a316cc6a92839c986682d98bc35f958f4883f9d2a86000915b8383106119485750505050604051918083019381845251809452604083019360408160051b85010192916000955b82871061191c5785850386f35b909192938280611938600193603f198a82030186528851612d9f565b960192019601959291909261190f565b600e8660019261195a859a999a61430c565b8152019201920191909594956118e1565b3461020a57600036600319011261020a5760065461198881612fc5565b906119966040519283612b2c565b80825260209081830160066000527ff652222313e28459528d920b65115c16c04f3efc82aaedc97be59f3f377c0d3f836000925b8484106119e457604051828152806102a38185018a612d43565b6001916010916119f38561320a565b81520192019201919084906119ca565b6101a036600319011261020a576001600160401b0360043581811161020a57611a30903690600401612ba4565b60643582811161020a57611a48903690600401612ba4565b60843583811161020a57611a60903690600401612ba4565b9260a43581811161020a57611a79903690600401612ba4565b9060c43581811161020a57611a92903690600401612ba4565b9160e43582811161020a57611aab903690600401612ba4565b926101043583811161020a57611ac5903690600401612ba4565b6101243584811161020a57611ade903690600401612ba4565b916101443585811161020a57611af8903690600401612ba4565b936101643586811161020a57611b12903690600401612ba4565b956101843590811161020a57611b2c903690600401612ba4565b9933600052600560205260243560026040600020015414611d3357336000818152600560205260409020546001600160a01b031614611cee57611b6e8b613d86565b6040519a611b7b8c612ada565b338c528a60208d015260243560408d015260443560608d015260808c015260a08b015260c08a015260e089015261010088015261012087015261014086015261016085015260405193611bcd85612af6565b8452602084015260408301526000606083015260606080830152336000526005602052611bfe82604060002061352d565b600754600160401b91828210156114dc576001820180600755821015611cd857611c4e9160076000527fa66cc928b5edb82af9bd49922954155ab7b0942694bea4ce44661d9a8736c68801613330565b600654908110156114dc57806001611c6992016006556130e2565b6114c65781611c779161352d565b60085460018101809111611cc2577faa865f867abaa68b8cba3e6df5b4cc018184c6e7fff1d03843d27c69a973e3b091610cc991600855604051918291602083526020830190612ce5565b634e487b7160e01b600052601160045260246000fd5b634e487b7160e01b600052603260045260246000fd5b60405162461bcd60e51b815260206004820152601e60248201527f43616e64696461746520616c72656164792072656769737465726564202100006044820152606490fd5b60405162461bcd60e51b815260206004820152603960248201527f43616e646964617465207769746820676976656e20436974697a656e7368697060448201527f204e6f2e20616c726561647920726567697374657265642021000000000000006064820152608490fd5b3461020a57600036600319011261020a57601454611dbb81612fc5565b90611dc96040519283612b2c565b80825260208201908160146000527fce6d7b5282bd9a3661ae061feed1dbda4e52ab073b1f9285be6e155d9c38d4ec6000915b838310611f5c5784866040519182916020830190602084525180915260408301906005604082821b86010193926000915b838310611e3a5786860387f35b919395509193603f1987820301835285519060018060a01b0390818351168152611e87611e75602085015160c08060208601528401906128ff565b604085015183820360408501526128ff565b90611eb4611ea160609384870151848203868601526128ff565b60808087015190848303908501526128ff565b9060a08095015194818303910152835190818152602081019260208084891b8401019601946000915b848310611f03575050505050505060208060019297019301930190928695949293611e2d565b90919293949596602080611f4d600193601f19898203018b528b51908782511681526040611f3c858401518987850152898401906128ff565b9201519060408184039101526128ff565b99019701959493019190611edd565b604051611f6881612aa4565b82546001600160a01b03168152604051611f89816102888160018801612a0e565b6020820152604051611fa2816102888160028801612a0e565b6040820152604051611fbb816102888160038801612a0e565b6060820152604051611fd4816102888160048801612a0e565b60808201526005830154611fe781612fc5565b90611ff56040519283612b2c565b80825260208201600586016000526020600020906000905b83821061203457505050506001928260209260a06006950152815201920192019190611dfc565b6003602060019260405161204781612abf565b848060a01b0387541681526040516120658161028881898c01612a0e565b8382015260405161207d816102888160028c01612a0e565b604082015281520193019101909161200d565b3461020a57602036600319011261020a5760206120ab6128c6565b6001546040516001600160a01b0392831691909216148152f35b608036600319011261020a576001600160401b0360043581811161020a576120f1903690600401612ba4565b9060443581811161020a5761210a903690600401612ba4565b9060643590811161020a57612123903690600401612ba4565b6001549092906001600160a01b031661213d338214613277565b6040519361214a85612aa4565b8185528260208601526024938435604087015260608601526080850152606060a0850152600052600e60205261218483604060002061342b565b60105490600160401b9182811015610cf85760018101806010558110156122ae57906121d69160106000527f1b6847dc741a1b0cd08d278845f9d819d87b734759afb55fe2de5cb82a9ae67201613330565b600f5490811015612299576001810180600f558110156122845782600661222492600f600052027f8d1108e10bcb7c27dddfc02ed9d693a074039d026cf4ea4240b40f7d581ac8020161342b565b6015549060018201809211612270577fa9842a716bc2513f613d9faf736ca365fe3689a18ea2c3ef8bb9402c98a060c1610cc98484601555604051918291602083526020830190612961565b634e487b7160e01b60009081526011600452fd5b50634e487b7160e01b60009081526032600452fd5b50634e487b7160e01b60009081526041600452fd5b83634e487b7160e01b60005260326004526000fd5b604036600319011261020a576122d76128c6565b6024356001600160401b03811161020a576122f6903690600401612ba4565b6001546001600160a01b03163314612735573360005260096020526003600d60406000200154116126e25760018060a01b038216600052600560205261234333600f604060002001613173565b33600052600960205261235d82600c604060002001613173565b6001600160a01b0382166000908152600560205260409020600e015460018101908110611cc2576001600160a01b0383166000908152600560205260409020600e0155600d546123ac90614349565b600d5560005b60405190600583516123c88185602088016128dc565b83019260208160119586815203019020015481101561248657612439918161241b612415826005604051602081816124068d838151938492016128dc565b8101898152030190200161311c565b5061320a565b8051516001600160a01b0388811691161461243e575b5050506131b5565b6123b2565b600e916005612453606061247b940151614349565b94602060405180928261246c8d848151938492016128dc565b8201908152030190200161311c565b500155848181612431565b8360005b6006548110156124d657806124a16124ba926130e2565b50546001600160a01b038481169116146124bf576131b5565b61248a565b6104236124cb826130e2565b50600f339101613173565b5060005b600a5481101561252257806124f161250792612e41565b50546001600160a01b0316331461250c576131b5565b6124da565b61042383600c61251b84612e41565b5001613173565b5033600052600960205261253d600d60406000200154614349565b336000526009602052600d6040600020015560018060a01b031660005260056020527f34acf85a95a1dc89bfc38e95c6d8d0e8e5d4544c49e9103ed7882d205ed151f8610cc960406000206040519182916020835260a0602084015260018060a01b0381541660c0840152600f6126978461268361266f61265b6126476126336101808060e088015261262061260c6125de8c60016102408c019101612a0e565b60028d01546101008b015260038d01546101208b015260bf19996101408b8284030191015260048d01612a0e565b8d810389016101608f015260058c01612a0e565b90878d830301908d015260068a01612a0e565b858b8203016101a08c015260078901612a0e565b848a8203016101c08b015260088801612a0e565b83898203016101e08a015260098701612a0e565b8288820301610200890152600a8601612a0e565b9086820301610220870152600b8401612a0e565b916126c86126b5601f199485888203016040890152600c8401612a0e565b84878203016060880152600d8301612a0e565b92600e82015460808701528584030160a0860152016131c4565b60405162461bcd60e51b815260206004820152602560248201527f596f752068617665206578636565642074686520766f7465206361737465206c60448201526434b6b4ba1760d91b6064820152608490fd5b606460405162461bcd60e51b815260206004820152602060248201527f41646d696e20697320726573747269637420746f20636173746520766f74652e6044820152fd5b3461020a57600036600319011261020a576020600854604051908152f35b3461020a57600036600319011261020a576020600454604051908152f35b3461020a57600036600319011261020a576020600254604051908152f35b3461020a57602036600319011261020a576001600160a01b03806127f56128c6565b1660005260126020526040600020908154166102a36004604051936128218561067e8160018501612a0e565b604051612835816102888160028601612a0e565b610e91604051926106f6846106ef8160038501612a0e565b3461020a57602036600319011261020a57606060a061286a6128c6565b9261287481612aa4565b60008152826020820152600060408201528280820152826080820152015260018060a01b0316600052600e6020526102a36128b26040600020614154565b604051918291602083526020830190612961565b600435906001600160a01b038216820361020a57565b60005b8381106128ef5750506000910152565b81810151838201526020016128df565b90602091612918815180928185528580860191016128dc565b601f01601f1916010190565b90815180825260208080930193019160005b828110612944575050505090565b83516001600160a01b031685529381019392810192600101612936565b6129d19160018060a01b03825116815260a06129c06129ae612992602086015160c0602087015260c08601906128ff565b60408601516040860152606086015185820360608701526128ff565b608085015184820360808601526128ff565b9201519060a0818403910152612924565b90565b90600182811c92168015612a04575b60208310146129ee57565b634e487b7160e01b600052602260045260246000fd5b91607f16916129e3565b9060009291805491612a1f836129d4565b918282526001938481169081600014612a815750600114612a41575b50505050565b90919394506000526020928360002092846000945b838610612a6d575050505001019038808080612a3b565b805485870183015294019385908201612a56565b9294505050602093945060ff191683830152151560051b01019038808080612a3b565b60c081019081106001600160401b038211176114dc57604052565b606081019081106001600160401b038211176114dc57604052565b61018081019081106001600160401b038211176114dc57604052565b60a081019081106001600160401b038211176114dc57604052565b60e081019081106001600160401b038211176114dc57604052565b90601f801991011681019081106001600160401b038211176114dc57604052565b93906129d19593612b7a612b9694612b889360018060a01b0316885260a0602089015260a08801906128ff565b9086820360408801526128ff565b9084820360608601526128ff565b9160808184039101526128ff565b81601f8201121561020a578035906001600160401b0382116114dc5760405192612bd8601f8401601f191660200185612b2c565b8284526020838301011161020a57816000926020809301838601378301015290565b906129d19160018060a01b038151168252612cd1612cbd612ca9612c95612c83612c71612c5f612c3960208901516101808060208d01528b01906128ff565b604089015160408b0152606089015160608b015260808901518a820360808c01526128ff565b60a088015189820360a08b01526128ff565b60c087015188820360c08a01526128ff565b60e086015187820360e08901526128ff565b6101008086015190878303908801526128ff565b6101208085015190868303908701526128ff565b6101408084015190858303908601526128ff565b9161016080920151918184039101526128ff565b6129d1916080612d28612d16612d04855160a0865260a0860190612bfa565b602086015185820360208701526128ff565b604085015184820360408601526128ff565b92606081015160608401520151906080818403910152612924565b908082519081815260208091019281808460051b8301019501936000915b848310612d715750505050505090565b9091929394958480612d8f600193601f198682030187528a51612ce5565b9801930193019194939290612d61565b90604080612dcb612db98551606086526060860190612bfa565b60208601518582036020870152612924565b93015191015290565b93906129d19593612b7a612b9694612df7612b889460a08a5260a08a01906128ff565b9088820360208a01526128ff565b93612e2e612b96936129d197959360018060a01b0316875260a0602088015260a08701906128ff565b91604086015284820360608601526128ff565b600a54811015611cd857600e90600a600052027fc65a7bb8d6351c1cf70c95a316cc6a92839c986682d98bc35f958f4883f9d2a80190600090565b90600b610160604093612f86855191612e9483612ada565b610706839760018060a01b0383541685528051612eb8816102888160018801612a0e565b6020860152600283015481860152600383015460608601528051612ee3816102888160048801612a0e565b60808601528051612efb816102888160058801612a0e565b60a08601528051612f13816102888160068801612a0e565b60c08601528051612f2b816102888160078801612a0e565b60e08601528051612f43816102888160088801612a0e565b6101008601528051612f5c816102888160098801612a0e565b6101208601528051612f758161028881600a8801612a0e565b610140860152518096819301612a0e565b0152565b601454811015611cd8576006906014600052027fce6d7b5282bd9a3661ae061feed1dbda4e52ab073b1f9285be6e155d9c38d4ec0190600090565b6001600160401b0381116114dc5760051b60200190565b612fef815160e0845260e08401906128ff565b60c061305b613049613037613025613013602096878901518a8203898c01526128ff565b604088015189820360408b01526128ff565b606087015188820360608a01526128ff565b608086015187820360808901526128ff565b60a085015186820360a0880152612d43565b9201519260c08184039101528251908183528083019281808460051b8301019501936000915b8483106130915750505050505090565b90919293949584806130af600193601f198682030187528a516128ff565b9801930193019194939290613081565b949392612b7a606093612df76130dd9460808a5260808a0190612bfa565b930152565b600654811015611cd857600660005260041b7ff652222313e28459528d920b65115c16c04f3efc82aaedc97be59f3f377c0d3f0190600090565b8054821015611cd85760005260206000209060041b0190600090565b601354811015611cd8576007906013600052027f66de8ffda797e3de9c05e8fc57b3bf0ec28a930d40b0d285d93c06501cf6a0900190600090565b805490600160401b8210156114dc5760018201808255821015611cd8576000526020600020019060018060a01b03166001600160601b0360a01b825416179055565b6000198114611cc25760010190565b90815480825260208092019260005281600020916000905b8282106131ea575050505090565b83546001600160a01b0316855293840193600193840193909101906131dc565b90600f608060405161321b81612af6565b612f86819561322981612e7c565b835260405161323f8161028881600c8601612a0e565b60208401526040516132588161028881600d8601612a0e565b6040840152600e810154606084015261070660405180968193016131c4565b1561327e57565b60405162461bcd60e51b815260206004820152602660248201527f4f6e6c792061646d696e2063616e20696e766f6b6520746869732066756e6374604482015265696f6e73202160d01b6064820152608490fd5b8181106132dd575050565b600081556001016132d2565b9190601f81116132f857505050565b613324926000526020600020906020601f840160051c83019310613326575b601f0160051c01906132d2565b565b9091508190613317565b91909182516001600160401b0381116114dc576133578161335184546129d4565b846132e9565b602080601f8311600114613393575081929394600092613388575b50508160011b916000199060031b1c1916179055565b015190503880613372565b90601f198316958460005282600020926000905b8882106133df575050836001959697106133c6575b505050811b019055565b015160001960f88460031b161c191690553880806133bc565b806001859682949686015181550195019301906133a7565b90600160401b81116114dc5781549080835581811061341557505050565b61332492600052602060002091820191016132d2565b9060018060a01b0390818151166001600160601b0360a01b84541617835560209160a060058484015195613463600197888301613330565b6040850151600282015561347e606086015160038301613330565b61348f608086015160048301613330565b01920151928351936001600160401b0385116114dc5781906134b186866133f7565b0192600052806000209160005b8581106134ce5750505050505050565b84518216848201559382019386016134be565b6134eb81546129d4565b90816134f5575050565b81601f60009311600114613507575055565b8183526020832061352391601f0160051c8101906001016132d2565b8160208120915555565b81519160018060a01b03808451166001600160601b0360a01b8454161783556080600f602094613604610160878901519861356c60019a8b8601613330565b60408101516002850155606081015160038501556135908682015160048601613330565b6135a160a082015160058601613330565b6135b260c082015160068601613330565b6135c360e082015160078601613330565b6135d561010082015160088601613330565b6135e761012082015160098601613330565b6135f9610140820151600a8601613330565b0151600b8301613330565b61361486860151600c8301613330565b6136256040860151600d8301613330565b6060850151600e82015501920151928351936001600160401b0385116114dc57819061365186866133f7565b0192600052806000209160005b85811061366e5750505050505050565b845182168482015593820193860161365e565b919061368e815184613330565b60209283820151936136a4600195868401613330565b6040830151926136b8600294858501613330565b6060810151926136cc600394858301613330565b6080820151906136e0600492838301613330565b6005958682019560a085015190815192600160401b998a851161393e5790889392918a5492868c558387106137ed575b505050500160009687528587208a8789935b8585106137cf57505050505050600660c091019201519081519586116137bc575082908254868455808710613787575b5091845282842091015b84841061376c5750505050509050565b86838261377b83945186613330565b0192019301929061375c565b838652888784882092830192015b8281106137a3575050613752565b90919293506137b1816134e1565b019088859392613795565b634e487b7160e01b855260419052602484fd5b90816137de601093518661352d565b01920192019190878c91613722565b93945091929091906001600160fc1b038085168503613929578616860361391457908d918a9594936000938d8552878520958b1b860195898c1b01905b86821061383957505050613710565b859697985061385190601093949596835582016134e1565b858382015585848201556138668b82016134e1565b6138718582016134e1565b61387d600682016134e1565b613889600782016134e1565b613895600882016134e1565b6138a1600982016134e1565b6138ad600a82016134e1565b6138b9600b82016134e1565b6138c5600c82016134e1565b6138d1600d82016134e1565b85600e820155600f81018d815490888355816138fb575b50505001908f918c97969594939261382a565b61390c9289528820908101906132d2565b38808e6138e8565b601188634e487b7160e01b6000525260246000fd5b601189634e487b7160e01b6000525260246000fd5b604187634e487b7160e01b6000525260246000fd5b8051821015611cd85760209160051b010190565b90808214613a3f5761397981546129d4565b906001600160401b0382116114dc57819061399e8261399886546129d4565b866132e9565b600090601f83116001146139d4576000926139c95750508160011b916000199060031b1c1916179055565b015490503880613372565b81526020808220858352818320935090601f1985169083905b828210613a26575050908460019594939210613a0d57505050811b019055565b015460001960f88460031b161c191690553880806133bc565b84958192958501548155600180910196019401906139ed565b5050565b818114613a3f578154916001600160401b0383116114dc57613a6583836133f7565b60005260206000209060005260206000208154916000925b848410613a8b575050505050565b600191820180546001600160a01b0390921684860155939091019290613a7d565b8054600160401b8110156114dc57613ac99160018201815561311c565b6114c657818114159182613adc57505050565b600f809161332494613b1b575b613af9600c8201600c8601613967565b613b09600d8201600d8601613967565b600e810154600e850155019101613a43565b805484546001600160a01b0319166001600160a01b0391909116178455613b486001828101908601613967565b6002810154600285015560038101546003850155613b6c6004820160048601613967565b613b7c6005820160058601613967565b613b8c6006820160068601613967565b613b9c6007820160078601613967565b613bac6008820160088601613967565b613bbc6009820160098601613967565b613bcc600a8201600a8601613967565b613bdc600b8201600b8601613967565b613ae9565b600260406133249360018060a01b038151166001600160601b0360a01b855416178455613c15602082015160018601613330565b01519101613330565b60018060a01b038251166001600160601b0360a01b8254161781556020908183015192613c4f600194858401613330565b604081015192613c63600294858501613330565b60a06005606084015194613c7b600396878301613330565b613c8c608086015160048301613330565b0192015193845194600160401b86116114dc5783548685558392818810613ce8575b50500191600052806000206000925b858410613ccd5750505050505050565b848382613cdc8a945186613be1565b01920193019290613cbd565b908092935086029186830403611cc2578686028681048803611cc2576000868152858120869594810193928991015b848110613d2657505050613cae565b90918093949596508155613d3b8b82016134e1565b613d468482016134e1565b0190878695949392613d17565b908154600160401b8110156114dc5760018101808455811015611cd8576133249260005260036020600020910201613be1565b8051906020918282019081209060009283549283156140e4579085929185805260405186907f290decd9548b62a8d60345a988386fc84ba6bc95484008f6362f93160ef3e56381815493613dd9856129d4565b928383528983019560019d8e821691826000146140c657505060011461406b575b50613e0792500382612b2c565b51902003613e3a5750505050600254918201809211613e265750600255565b634e487b7160e01b81526011600452602490fd5b8051822084871015614057578580528660405187817f290decd9548b62a8d60345a988386fc84ba6bc95484008f6362f93160ef3e56491825492613e7d846129d4565b938484528a8085019782169182600014614039575050600114613fde575b50613ea892500382612b2c565b51902003613ec75750505050600354918201809211613e265750600355565b5190209160021015613fca578280526040518391817f290decd9548b62a8d60345a988386fc84ba6bc95484008f6362f93160ef3e56593845494613f0a866129d4565b90818452848401968a81169081600014613fac5750600114613f54575b5050613f3592500382612b2c565b51902014613f41575050565b600454918201809211613e265750600455565b8852879150887f63d75db57ae45c3799740c3cd8dcee96a498324843d79ae390adc81d74b52f135b828410613f955750505091613f35928201013880613f27565b8054878501870152869450928501928a9101613f7c565b915050613f3594925060ff19168652151560051b8201013880613f27565b634e487b7160e01b83526032600452602483fd5b8b5250829050878a8c7f6c13d8c1c5df666ea9ca2a428504a3776c8ca01021c3a1524ca7d765f600979a5b858310614020575050613ea8935082010138613e9b565b80919294505483858801015201910188908c8593614009565b60ff19168852613ea895151560051b8501019250389150613e9b9050565b634e487b7160e01b86526032600452602486fd5b8b5250829050878a8c7f510e4e770828ddbf7f7b00ab00a9f6adaf81c0dc9cc85f1f8249c256942d61d95b8583106140ad575050613e07935082010138613dfa565b80919294505483858801015201910188908c8593614096565b60ff19168852613e0795151560051b8501019250389150613dfa9050565b634e487b7160e01b85526032600452602485fd5b6040519061410582612ada565b8160008152610160606091826020820152600060408201526000838201528260808201528260a08201528260c08201528260e08201528261010082015282610120820152826101408201520152565b90600560a0604093612f8685519161416b83612aa4565b6107068397600180871b038354168552805161418e816102888160018801612a0e565b602086015260028301548186015280516141af816102888160038801612a0e565b606086015280516141c7816102888160048801612a0e565b60808601525180968193016131c4565b90805160018060a01b03808251166001600160601b0360a01b8554161784556020906142ab6101608385015194614212600196878a01613330565b6040810151600289015560608101516003890155614237608082015160048a01613330565b61424860a082015160058a01613330565b61425960c082015160068a01613330565b61426a60e082015160078a01613330565b61427c61010082015160088a01613330565b61428e61012082015160098a01613330565b6142a0610140820151600a8a01613330565b0151600b8701613330565b600c85019082850151928351936001600160401b0385116114dc5781906142d286866133f7565b0192600052806000209160005b8581106142f957505050505050506040600d910151910155565b84518216848201559382019386016142df565b9060405161431981612abf565b6040600d829461432881612e7c565b8452825161433d8161028881600c86016131c4565b60208501520154910152565b9060018201809211611cc25756fea26469706673582212203a34ea6c47b17f0f116719a358bcd250af1bbd5bad2b8d80c17e4fb6d273ca6a64736f6c63430008110033",
			"opcodes": "PUSH1 0x80 CALLVALUE PUSH3 0x2A8 JUMPI PUSH1 0x1 PUSH1 0x1 PUSH1 0x40 SHL SUB PUSH1 0x60 DUP3 ADD DUP2 DUP2 GT DUP4 DUP3 LT OR PUSH3 0x292 JUMPI PUSH1 0x40 MSTORE PUSH3 0x2C PUSH3 0x2AD JUMP JUMPDEST PUSH1 0x4 SWAP1 DUP2 DUP2 MSTORE PUSH1 0x20 SWAP1 PUSH4 0x4D414C45 PUSH1 0xE0 SHL DUP3 DUP3 ADD MSTORE DUP5 MSTORE PUSH3 0x4D PUSH3 0x2AD JUMP JUMPDEST PUSH1 0x6 DUP2 MSTORE PUSH6 0x46454D414C45 PUSH1 0xD0 SHL DUP3 DUP3 ADD MSTORE DUP2 DUP6 ADD MSTORE PUSH3 0x6D PUSH3 0x2AD JUMP JUMPDEST PUSH1 0x6 DUP2 MSTORE PUSH6 0x4F5448455253 PUSH1 0xD0 SHL DUP3 DUP3 ADD MSTORE PUSH1 0x40 DUP6 ADD MSTORE PUSH1 0x0 SWAP3 DUP4 SLOAD SWAP5 PUSH1 0x3 SWAP6 DUP7 DUP7 SSTORE DUP1 DUP8 LT PUSH3 0x215 JUMPI JUMPDEST POP DUP5 DUP1 MSTORE DUP3 DUP6 KECCAK256 DUP6 SWAP2 JUMPDEST DUP8 DUP4 LT PUSH3 0xEA JUMPI DUP7 DUP1 DUP8 DUP2 DUP12 DUP2 PUSH1 0x2 SSTORE SSTORE SSTORE CALLER PUSH1 0x1 DUP1 PUSH1 0xA0 SHL SUB NOT PUSH1 0x1 SLOAD AND OR PUSH1 0x1 SSTORE DUP1 PUSH1 0x8 SSTORE DUP1 PUSH1 0xC SSTORE DUP1 PUSH1 0xD SSTORE DUP1 PUSH1 0x15 SSTORE PUSH1 0x16 SSTORE PUSH1 0x40 MLOAD PUSH2 0x438D SWAP1 DUP2 PUSH3 0x324 DUP3 CODECOPY RETURN JUMPDEST DUP1 MLOAD DUP1 MLOAD SWAP1 DUP6 DUP3 GT PUSH3 0x202 JUMPI SWAP1 DUP7 SWAP2 PUSH3 0x106 DUP6 SLOAD PUSH3 0x2CD JUMP JUMPDEST SWAP1 PUSH1 0x1F SWAP2 DUP3 DUP2 GT PUSH3 0x1C7 JUMPI JUMPDEST POP DUP4 SWAP2 DUP4 GT PUSH1 0x1 EQ PUSH3 0x15C JUMPI SWAP2 DUP1 PUSH1 0x1 SWAP6 SWAP3 DUP7 SWAP6 SWAP5 DUP14 SWAP3 PUSH3 0x150 JUMPI JUMPDEST POP POP PUSH1 0x0 NOT DUP3 DUP15 SHL SHR NOT AND SWAP1 DUP5 SHL OR DUP6 SSTORE JUMPDEST ADD SWAP3 ADD SWAP3 ADD SWAP2 SWAP1 PUSH3 0xA3 JUMP JUMPDEST ADD MLOAD SWAP1 POP CODESIZE DUP1 PUSH3 0x131 JUMP JUMPDEST DUP6 DUP12 MSTORE DUP4 DUP12 KECCAK256 SWAP2 SWAP1 PUSH1 0x1F NOT DUP5 AND DUP13 JUMPDEST DUP2 DUP2 LT PUSH3 0x1AE JUMPI POP SWAP2 PUSH1 0x1 SWAP7 SWAP4 SWAP2 DUP6 DUP9 SWAP8 SWAP7 SWAP5 LT PUSH3 0x195 JUMPI JUMPDEST POP POP POP DUP4 SHL DUP4 ADD DUP6 SSTORE PUSH3 0x143 JUMP JUMPDEST ADD MLOAD PUSH1 0x0 NOT DUP4 DUP16 SHL PUSH1 0xF8 AND SHR NOT AND SWAP1 SSTORE CODESIZE DUP1 DUP1 PUSH3 0x186 JUMP JUMPDEST DUP3 DUP5 ADD MLOAD DUP6 SSTORE DUP12 SWAP7 PUSH1 0x1 SWAP1 SWAP6 ADD SWAP5 SWAP4 DUP5 ADD SWAP4 ADD PUSH3 0x16B JUMP JUMPDEST PUSH3 0x1F1 SWAP1 DUP8 DUP14 MSTORE DUP6 DUP14 KECCAK256 PUSH1 0x5 DUP6 DUP1 DUP9 ADD DUP3 SHR DUP4 ADD SWAP4 DUP10 DUP10 LT PUSH3 0x1F8 JUMPI JUMPDEST ADD SWAP1 SHR ADD SWAP1 PUSH3 0x30A JUMP JUMPDEST CODESIZE PUSH3 0x113 JUMP JUMPDEST SWAP4 POP DUP3 SWAP4 PUSH3 0x1E6 JUMP JUMPDEST PUSH4 0x4E487B71 PUSH1 0xE0 SHL DUP10 MSTORE PUSH1 0x41 DUP9 MSTORE PUSH1 0x24 DUP10 REVERT JUMPDEST DUP6 DUP1 MSTORE DUP7 DUP5 DUP8 KECCAK256 SWAP2 DUP3 ADD SWAP2 ADD JUMPDEST DUP2 DUP2 LT PUSH3 0x231 JUMPI POP PUSH3 0x99 JUMP JUMPDEST DUP1 PUSH3 0x240 PUSH1 0x1 SWAP3 SLOAD PUSH3 0x2CD JUMP JUMPDEST DUP1 PUSH3 0x24F JUMPI JUMPDEST POP ADD PUSH3 0x222 JUMP JUMPDEST PUSH1 0x1F SWAP1 DUP2 DUP2 GT DUP5 EQ PUSH3 0x269 JUMPI POP POP DUP8 DUP2 SSTORE JUMPDEST CODESIZE PUSH3 0x247 JUMP JUMPDEST DUP4 PUSH3 0x284 SWAP3 DUP5 DUP13 MSTORE DUP10 DUP13 KECCAK256 SWAP3 ADD PUSH1 0x5 SHR DUP3 ADD SWAP2 ADD PUSH3 0x30A JUMP JUMPDEST DUP8 DUP7 DUP2 KECCAK256 DUP2 DUP4 SSTORE SSTORE PUSH3 0x262 JUMP JUMPDEST PUSH4 0x4E487B71 PUSH1 0xE0 SHL PUSH1 0x0 MSTORE PUSH1 0x41 PUSH1 0x4 MSTORE PUSH1 0x24 PUSH1 0x0 REVERT JUMPDEST PUSH1 0x0 DUP1 REVERT JUMPDEST PUSH1 0x40 DUP1 MLOAD SWAP2 SWAP1 DUP3 ADD PUSH1 0x1 PUSH1 0x1 PUSH1 0x40 SHL SUB DUP2 GT DUP4 DUP3 LT OR PUSH3 0x292 JUMPI PUSH1 0x40 MSTORE JUMP JUMPDEST SWAP1 PUSH1 0x1 DUP3 DUP2 SHR SWAP3 AND DUP1 ISZERO PUSH3 0x2FF JUMPI JUMPDEST PUSH1 0x20 DUP4 LT EQ PUSH3 0x2E9 JUMPI JUMP JUMPDEST PUSH4 0x4E487B71 PUSH1 0xE0 SHL PUSH1 0x0 MSTORE PUSH1 0x22 PUSH1 0x4 MSTORE PUSH1 0x24 PUSH1 0x0 REVERT JUMPDEST SWAP2 PUSH1 0x7F AND SWAP2 PUSH3 0x2DD JUMP JUMPDEST DUP2 DUP2 LT PUSH3 0x316 JUMPI POP POP JUMP JUMPDEST PUSH1 0x0 DUP2 SSTORE PUSH1 0x1 ADD PUSH3 0x30A JUMP INVALID PUSH1 0x80 DUP1 PUSH1 0x40 MSTORE PUSH1 0x4 CALLDATASIZE LT ISZERO PUSH2 0x13 JUMPI PUSH1 0x0 DUP1 REVERT JUMPDEST PUSH1 0x0 CALLDATALOAD PUSH1 0xE0 SHR SWAP1 DUP2 PUSH3 0xDA7228 EQ PUSH2 0x284D JUMPI POP DUP1 PUSH4 0x273D66E EQ PUSH2 0x27D3 JUMPI DUP1 PUSH4 0x29C21BD EQ PUSH2 0x27B5 JUMPI DUP1 PUSH4 0x983F185 EQ PUSH2 0x2797 JUMPI DUP1 PUSH4 0x1812DAB4 EQ PUSH2 0x2779 JUMPI DUP1 PUSH4 0x1BF533A4 EQ PUSH2 0x22C3 JUMPI DUP1 PUSH4 0x1D50384B EQ PUSH2 0x20C5 JUMPI DUP1 PUSH4 0x24D7806C EQ PUSH2 0x2090 JUMPI DUP1 PUSH4 0x2526E05D EQ PUSH2 0x1D9E JUMPI DUP1 PUSH4 0x2D23C735 EQ PUSH2 0x1A03 JUMPI DUP1 PUSH4 0x2E6997FE EQ PUSH2 0x196B JUMPI DUP1 PUSH4 0x35BBE70E EQ PUSH2 0x1881 JUMPI DUP1 PUSH4 0x4A3CCC96 EQ PUSH2 0x17D8 JUMPI DUP1 PUSH4 0x4F235207 EQ PUSH2 0x176D JUMPI DUP1 PUSH4 0x50E2E8AF EQ PUSH2 0x16F7 JUMPI DUP1 PUSH4 0x53AC5DC3 EQ PUSH2 0x167C JUMPI DUP1 PUSH4 0x6332ABC9 EQ PUSH2 0x165E JUMPI DUP1 PUSH4 0x6394A8FA EQ PUSH2 0x1604 JUMPI DUP1 PUSH4 0x640E79B7 EQ PUSH2 0x14F2 JUMPI DUP1 PUSH4 0x69D2BCA1 EQ PUSH2 0x13DD JUMPI DUP1 PUSH4 0x71C693EB EQ PUSH2 0x11C8 JUMPI DUP1 PUSH4 0x7C054C54 EQ PUSH2 0x11AA JUMPI DUP1 PUSH4 0x7FD5F268 EQ PUSH2 0xF7D JUMPI DUP1 PUSH4 0x8287E42F EQ PUSH2 0xF22 JUMPI DUP1 PUSH4 0x8AB66A90 EQ PUSH2 0xEBB JUMPI DUP1 PUSH4 0x8D0371FF EQ PUSH2 0xE9D JUMPI DUP1 PUSH4 0x9682F9B3 EQ PUSH2 0xD7C JUMPI DUP1 PUSH4 0x9EDA74CF EQ PUSH2 0xA6D JUMPI DUP1 PUSH4 0xA3EC138D EQ PUSH2 0xA0F JUMPI DUP1 PUSH4 0xA96278AE EQ PUSH2 0x9B4 JUMPI DUP1 PUSH4 0xB0A4EC42 EQ PUSH2 0x97C JUMPI DUP1 PUSH4 0xB13C744B EQ PUSH2 0x890 JUMPI DUP1 PUSH4 0xB867BFCC EQ PUSH2 0x7A6 JUMPI DUP1 PUSH4 0xBA71BEF0 EQ PUSH2 0x737 JUMPI DUP1 PUSH4 0xC6384071 EQ PUSH2 0x719 JUMPI DUP1 PUSH4 0xDEFB908F EQ PUSH2 0x5CC JUMPI DUP1 PUSH4 0xE9AF3FC0 EQ PUSH2 0x4FB JUMPI DUP1 PUSH4 0xEF53C6AB EQ PUSH2 0x2A7 JUMPI DUP1 PUSH4 0xF3845166 EQ PUSH2 0x22D JUMPI DUP1 PUSH4 0xF7C4C25A EQ PUSH2 0x20F JUMPI PUSH4 0xFC6F9468 EQ PUSH2 0x1E1 JUMPI PUSH1 0x0 DUP1 REVERT JUMPDEST CALLVALUE PUSH2 0x20A JUMPI PUSH1 0x0 CALLDATASIZE PUSH1 0x3 NOT ADD SLT PUSH2 0x20A JUMPI PUSH1 0x1 SLOAD PUSH1 0x40 MLOAD PUSH1 0x1 PUSH1 0x1 PUSH1 0xA0 SHL SUB SWAP1 SWAP2 AND DUP2 MSTORE PUSH1 0x20 SWAP1 RETURN JUMPDEST PUSH1 0x0 DUP1 REVERT JUMPDEST CALLVALUE PUSH2 0x20A JUMPI PUSH1 0x0 CALLDATASIZE PUSH1 0x3 NOT ADD SLT PUSH2 0x20A JUMPI PUSH1 0x20 PUSH1 0x15 SLOAD PUSH1 0x40 MLOAD SWAP1 DUP2 MSTORE RETURN JUMPDEST CALLVALUE PUSH2 0x20A JUMPI PUSH1 0x20 CALLDATASIZE PUSH1 0x3 NOT ADD SLT PUSH2 0x20A JUMPI PUSH1 0x4 CALLDATALOAD PUSH1 0x10 SLOAD DUP2 LT ISZERO PUSH2 0x20A JUMPI PUSH2 0x288 PUSH2 0x28F PUSH2 0x2A3 SWAP3 PUSH1 0x10 PUSH1 0x0 MSTORE PUSH1 0x40 MLOAD SWAP3 DUP4 DUP1 SWAP3 PUSH32 0x1B6847DC741A1B0CD08D278845F9D819D87B734759AFB55FE2DE5CB82A9AE672 ADD PUSH2 0x2A0E JUMP JUMPDEST SUB DUP3 PUSH2 0x2B2C JUMP JUMPDEST PUSH1 0x40 MLOAD SWAP2 DUP3 SWAP2 PUSH1 0x20 DUP4 MSTORE PUSH1 0x20 DUP4 ADD SWAP1 PUSH2 0x28FF JUMP JUMPDEST SUB SWAP1 RETURN JUMPDEST PUSH1 0x40 CALLDATASIZE PUSH1 0x3 NOT ADD SLT PUSH2 0x20A JUMPI PUSH1 0x4 CALLDATALOAD PUSH1 0x1 PUSH1 0x1 PUSH1 0x40 SHL SUB DUP1 DUP3 GT PUSH2 0x20A JUMPI CALLDATASIZE PUSH1 0x23 DUP4 ADD SLT ISZERO PUSH2 0x20A JUMPI DUP2 PUSH1 0x4 ADD CALLDATALOAD PUSH2 0x2DE DUP2 PUSH2 0x2FC5 JUMP JUMPDEST SWAP2 PUSH2 0x2EC PUSH1 0x40 MLOAD SWAP4 DUP5 PUSH2 0x2B2C JUMP JUMPDEST DUP2 DUP4 MSTORE PUSH1 0x20 SWAP4 DUP5 DUP5 ADD PUSH1 0x24 PUSH1 0x5 SWAP5 DUP6 SHL DUP4 ADD ADD SWAP2 CALLDATASIZE DUP4 GT PUSH2 0x20A JUMPI PUSH1 0x24 ADD SWAP1 JUMPDEST DUP3 DUP3 LT PUSH2 0x4DC JUMPI POP POP POP PUSH1 0x24 CALLDATALOAD SWAP1 DUP2 GT PUSH2 0x20A JUMPI SWAP2 PUSH2 0x330 DUP5 SWAP4 CALLDATASIZE SWAP1 PUSH1 0x4 ADD PUSH2 0x2BA4 JUMP JUMPDEST SWAP1 PUSH1 0x1 DUP1 PUSH1 0xA0 SHL SUB SWAP1 PUSH1 0x1 SWAP4 DUP5 SWAP4 PUSH2 0x34C DUP5 DUP7 SLOAD AND CALLER EQ PUSH2 0x3277 JUMP JUMPDEST DUP1 DUP8 ADD PUSH1 0x0 DUP7 JUMPDEST PUSH2 0x485 JUMPI JUMPDEST POP PUSH1 0x0 SWAP7 JUMPDEST PUSH2 0x363 JUMPI STOP JUMPDEST PUSH1 0x13 SLOAD DUP8 LT ISZERO PUSH2 0x3E7 JUMPI PUSH1 0x2 PUSH2 0x378 DUP9 PUSH2 0x3138 JUMP JUMPDEST POP ADD SWAP7 PUSH1 0x40 MLOAD SWAP8 PUSH1 0x0 SWAP9 DUP2 SLOAD SWAP2 PUSH2 0x38E DUP4 PUSH2 0x29D4 JUMP JUMPDEST SWAP1 DUP2 DUP4 MSTORE DUP13 DUP4 ADD SWAP4 DUP14 DUP13 DUP3 AND SWAP2 DUP3 PUSH1 0x0 EQ PUSH2 0x466 JUMPI POP POP PUSH1 0x1 EQ PUSH2 0x42E JUMPI JUMPDEST POP POP PUSH2 0x3BC DUP2 DUP11 SWAP12 SUB DUP3 PUSH2 0x2B2C JUMP JUMPDEST MLOAD SWAP1 KECCAK256 DUP4 MLOAD DUP4 KECCAK256 EQ PUSH2 0x3D7 JUMPI PUSH2 0x3D1 SWAP1 PUSH2 0x31B5 JUMP JUMPDEST SWAP7 PUSH2 0x35D JUMP JUMPDEST SWAP3 SWAP4 SWAP5 SWAP6 SWAP2 POP POP PUSH1 0x0 SWAP1 JUMPDEST PUSH2 0x3E9 JUMPI JUMPDEST STOP JUMPDEST DUP4 MLOAD DUP2 LT ISZERO PUSH2 0x3E7 JUMPI PUSH2 0x428 SWAP1 PUSH2 0x423 PUSH2 0x402 DUP5 PUSH2 0x3138 JUMP JUMPDEST POP DUP8 PUSH2 0x40E DUP7 DUP10 PUSH2 0x3953 JUMP JUMPDEST MLOAD AND PUSH1 0x0 MSTORE DUP6 DUP11 MSTORE DUP6 PUSH1 0x40 PUSH1 0x0 KECCAK256 SWAP2 ADD PUSH2 0x3AAC JUMP JUMPDEST PUSH2 0x31B5 JUMP JUMPDEST DUP6 PUSH2 0x3E2 JUMP JUMPDEST PUSH1 0x0 SWAP1 DUP2 MSTORE DUP13 DUP2 KECCAK256 SWAP12 POP DUP13 SWAP2 JUMPDEST DUP1 DUP3 LT PUSH2 0x451 JUMPI POP DUP3 ADD ADD SWAP10 POP PUSH2 0x3BC DUP2 PUSH2 0x3AD JUMP JUMPDEST DUP13 SLOAD DUP3 DUP6 ADD DUP5 ADD MSTORE SWAP12 DUP12 ADD SWAP12 SWAP1 DUP3 ADD SWAP1 PUSH2 0x43B JUMP JUMPDEST PUSH1 0xFF NOT AND DUP7 MSTORE SWAP3 ISZERO ISZERO DUP10 SHL DUP5 ADD SWAP1 SWAP3 ADD SWAP12 POP PUSH2 0x3BC SWAP2 POP DUP3 SWAP1 POP PUSH2 0x3AD JUMP JUMPDEST DUP5 MLOAD DUP2 LT ISZERO PUSH2 0x4D7 JUMPI PUSH2 0x4D1 SWAP1 PUSH2 0x423 DUP6 PUSH1 0x40 MLOAD DUP13 DUP2 DUP9 MLOAD PUSH2 0x4A8 DUP2 DUP4 DUP12 PUSH2 0x28DC JUMP JUMPDEST DUP2 ADD PUSH1 0x11 DUP2 MSTORE SUB ADD SWAP1 KECCAK256 ADD DUP9 PUSH2 0x4BE DUP5 DUP11 PUSH2 0x3953 JUMP JUMPDEST MLOAD AND PUSH1 0x0 MSTORE DUP7 DUP13 MSTORE PUSH1 0x40 PUSH1 0x0 KECCAK256 SWAP1 PUSH2 0x3AAC JUMP JUMPDEST DUP7 PUSH2 0x353 JUMP JUMPDEST PUSH2 0x358 JUMP JUMPDEST DUP2 CALLDATALOAD PUSH1 0x1 PUSH1 0x1 PUSH1 0xA0 SHL SUB DUP2 AND DUP2 SUB PUSH2 0x20A JUMPI DUP2 MSTORE SWAP1 DUP7 ADD SWAP1 DUP7 ADD PUSH2 0x30C JUMP JUMPDEST PUSH1 0x60 CALLDATASIZE PUSH1 0x3 NOT ADD SLT PUSH2 0x20A JUMPI PUSH2 0x50F PUSH2 0x28C6 JUMP JUMPDEST PUSH1 0x1 PUSH1 0x1 PUSH1 0x40 SHL SUB PUSH1 0x24 CALLDATALOAD DUP2 DUP2 GT PUSH2 0x20A JUMPI PUSH2 0x52F SWAP1 CALLDATASIZE SWAP1 PUSH1 0x4 ADD PUSH2 0x2BA4 JUMP JUMPDEST SWAP1 PUSH1 0x44 CALLDATALOAD SWAP1 DUP2 GT PUSH2 0x20A JUMPI PUSH2 0x548 SWAP1 CALLDATASIZE SWAP1 PUSH1 0x4 ADD PUSH2 0x2BA4 JUMP JUMPDEST PUSH1 0x40 MLOAD SWAP2 PUSH2 0x555 DUP4 PUSH2 0x2ABF JUMP JUMPDEST CALLER DUP4 MSTORE PUSH1 0x20 DUP4 ADD MSTORE PUSH1 0x40 DUP3 ADD MSTORE PUSH1 0x1 DUP1 PUSH1 0xA0 SHL SUB DUP1 SWAP3 AND DUP1 PUSH1 0x0 MSTORE PUSH1 0x12 PUSH1 0x20 MSTORE PUSH1 0x5 SWAP1 PUSH2 0x588 DUP4 DUP4 PUSH1 0x40 PUSH1 0x0 KECCAK256 ADD PUSH2 0x3D53 JUMP JUMPDEST PUSH1 0x0 JUMPDEST PUSH1 0x14 SLOAD DUP2 LT ISZERO PUSH2 0x3E7 JUMPI DUP2 DUP6 PUSH2 0x5A0 DUP4 PUSH2 0x2F8A JUMP JUMPDEST POP SLOAD AND EQ PUSH2 0x5B6 JUMPI PUSH2 0x5B1 SWAP1 PUSH2 0x31B5 JUMP JUMPDEST PUSH2 0x58B JUMP JUMPDEST PUSH2 0x3E7 SWAP5 POP PUSH2 0x5C5 SWAP2 POP PUSH2 0x2F8A JUMP JUMPDEST POP ADD PUSH2 0x3D53 JUMP JUMPDEST CALLVALUE PUSH2 0x20A JUMPI PUSH1 0x20 CALLDATASIZE PUSH1 0x3 NOT ADD SLT PUSH2 0x20A JUMPI PUSH1 0x4 CALLDATALOAD PUSH1 0x13 SLOAD DUP2 LT ISZERO PUSH2 0x20A JUMPI PUSH1 0x7 SWAP1 PUSH1 0x13 PUSH1 0x0 MSTORE MUL PUSH1 0x40 MLOAD PUSH2 0x626 DUP2 PUSH2 0x288 DUP2 DUP6 PUSH32 0x66DE8FFDA797E3DE9C05E8FC57B3BF0EC28A930D40B0D285D93C06501CF6A090 ADD PUSH2 0x2A0E JUMP JUMPDEST PUSH2 0x2A3 PUSH32 0x66DE8FFDA797E3DE9C05E8FC57B3BF0EC28A930D40B0D285D93C06501CF6A094 PUSH1 0x40 MLOAD SWAP4 PUSH2 0x685 DUP6 PUSH2 0x67E DUP2 PUSH32 0x66DE8FFDA797E3DE9C05E8FC57B3BF0EC28A930D40B0D285D93C06501CF6A091 DUP6 ADD PUSH2 0x2A0E JUMP JUMPDEST SUB DUP7 PUSH2 0x2B2C JUMP JUMPDEST PUSH1 0x40 MLOAD PUSH2 0x6B8 DUP2 PUSH2 0x288 DUP2 PUSH32 0x66DE8FFDA797E3DE9C05E8FC57B3BF0EC28A930D40B0D285D93C06501CF6A092 DUP7 ADD PUSH2 0x2A0E JUMP JUMPDEST PUSH2 0x70D PUSH1 0x40 MLOAD SWAP3 PUSH2 0x6F6 DUP5 PUSH2 0x6EF DUP2 PUSH32 0x66DE8FFDA797E3DE9C05E8FC57B3BF0EC28A930D40B0D285D93C06501CF6A093 DUP6 ADD PUSH2 0x2A0E JUMP JUMPDEST SUB DUP6 PUSH2 0x2B2C JUMP JUMPDEST PUSH2 0x706 PUSH1 0x40 MLOAD DUP1 SWAP7 DUP2 SWAP4 ADD PUSH2 0x2A0E JUMP JUMPDEST SUB DUP5 PUSH2 0x2B2C JUMP JUMPDEST PUSH1 0x40 MLOAD SWAP6 DUP7 SWAP6 DUP7 PUSH2 0x2DD4 JUMP JUMPDEST CALLVALUE PUSH2 0x20A JUMPI PUSH1 0x0 CALLDATASIZE PUSH1 0x3 NOT ADD SLT PUSH2 0x20A JUMPI PUSH1 0x20 PUSH1 0xD SLOAD PUSH1 0x40 MLOAD SWAP1 DUP2 MSTORE RETURN JUMPDEST CALLVALUE PUSH2 0x20A JUMPI PUSH1 0x20 CALLDATASIZE PUSH1 0x3 NOT ADD SLT PUSH2 0x20A JUMPI PUSH2 0x750 PUSH2 0x28C6 JUMP JUMPDEST PUSH1 0x0 PUSH1 0x40 DUP1 MLOAD PUSH2 0x75F DUP2 PUSH2 0x2ABF JUMP JUMPDEST PUSH2 0x767 PUSH2 0x40F8 JUMP JUMPDEST DUP2 MSTORE PUSH1 0x60 PUSH1 0x20 DUP3 ADD MSTORE ADD MSTORE PUSH1 0x1 DUP1 PUSH1 0xA0 SHL SUB AND PUSH1 0x0 MSTORE PUSH1 0x9 PUSH1 0x20 MSTORE PUSH2 0x2A3 PUSH2 0x792 PUSH1 0x40 PUSH1 0x0 KECCAK256 PUSH2 0x430C JUMP JUMPDEST PUSH1 0x40 MLOAD SWAP2 DUP3 SWAP2 PUSH1 0x20 DUP4 MSTORE PUSH1 0x20 DUP4 ADD SWAP1 PUSH2 0x2D9F JUMP JUMPDEST CALLVALUE PUSH2 0x20A JUMPI PUSH1 0x0 CALLDATASIZE PUSH1 0x3 NOT ADD SLT PUSH2 0x20A JUMPI PUSH1 0xF SLOAD PUSH2 0x7C3 DUP2 PUSH2 0x2FC5 JUMP JUMPDEST SWAP1 PUSH2 0x7D1 PUSH1 0x40 MLOAD SWAP3 DUP4 PUSH2 0x2B2C JUMP JUMPDEST DUP1 DUP3 MSTORE PUSH1 0x20 SWAP1 DUP2 DUP4 ADD SWAP1 DUP2 PUSH1 0xF PUSH1 0x0 MSTORE PUSH32 0x8D1108E10BCB7C27DDDFC02ED9D693A074039D026CF4EA4240B40F7D581AC802 PUSH1 0x0 SWAP2 JUMPDEST DUP4 DUP4 LT PUSH2 0x86D JUMPI POP POP POP POP PUSH1 0x40 MLOAD SWAP2 DUP1 DUP4 ADD SWAP4 DUP2 DUP5 MSTORE MLOAD DUP1 SWAP5 MSTORE PUSH1 0x40 DUP4 ADD SWAP4 PUSH1 0x40 DUP2 PUSH1 0x5 SHL DUP6 ADD ADD SWAP3 SWAP2 PUSH1 0x0 SWAP6 JUMPDEST DUP3 DUP8 LT PUSH2 0x841 JUMPI DUP6 DUP6 SUB DUP7 RETURN JUMPDEST SWAP1 SWAP2 SWAP3 SWAP4 DUP3 DUP1 PUSH2 0x85D PUSH1 0x1 SWAP4 PUSH1 0x3F NOT DUP11 DUP3 SUB ADD DUP7 MSTORE DUP9 MLOAD PUSH2 0x2961 JUMP JUMPDEST SWAP7 ADD SWAP3 ADD SWAP7 ADD SWAP6 SWAP3 SWAP2 SWAP1 SWAP3 PUSH2 0x834 JUMP JUMPDEST PUSH1 0x6 DUP7 PUSH1 0x1 SWAP3 PUSH2 0x87F DUP6 SWAP11 SWAP10 SWAP11 PUSH2 0x4154 JUMP JUMPDEST DUP2 MSTORE ADD SWAP3 ADD SWAP3 ADD SWAP2 SWAP1 SWAP6 SWAP5 SWAP6 PUSH2 0x806 JUMP JUMPDEST CALLVALUE PUSH2 0x20A JUMPI PUSH1 0x20 CALLDATASIZE PUSH1 0x3 NOT ADD SLT PUSH2 0x20A JUMPI PUSH1 0x4 CALLDATALOAD PUSH1 0x6 SLOAD DUP2 LT ISZERO PUSH2 0x20A JUMPI PUSH1 0x6 PUSH1 0x0 MSTORE PUSH1 0x4 SHL PUSH2 0x8E1 DUP2 PUSH32 0xF652222313E28459528D920B65115C16C04F3EFC82AAEDC97BE59F3F377C0D3F ADD PUSH2 0x2E7C JUMP JUMPDEST PUSH2 0x2A3 PUSH1 0x40 MLOAD SWAP3 PUSH2 0x918 DUP5 PUSH2 0x6EF DUP2 PUSH32 0xF652222313E28459528D920B65115C16C04F3EFC82AAEDC97BE59F3F377C0D4B DUP6 ADD PUSH2 0x2A0E JUMP JUMPDEST PUSH32 0xF652222313E28459528D920B65115C16C04F3EFC82AAEDC97BE59F3F377C0D4D PUSH1 0x40 MLOAD SWAP2 PUSH2 0x96D DUP4 PUSH2 0x706 DUP2 PUSH32 0xF652222313E28459528D920B65115C16C04F3EFC82AAEDC97BE59F3F377C0D4C DUP6 ADD PUSH2 0x2A0E JUMP JUMPDEST ADD SLOAD SWAP1 PUSH1 0x40 MLOAD SWAP5 DUP6 SWAP5 DUP6 PUSH2 0x30BF JUMP JUMPDEST CALLVALUE PUSH2 0x20A JUMPI PUSH1 0x20 CALLDATASIZE PUSH1 0x3 NOT ADD SLT PUSH2 0x20A JUMPI PUSH1 0x4 CALLDATALOAD PUSH1 0x1 PUSH1 0x1 PUSH1 0x40 SHL SUB DUP2 GT PUSH2 0x20A JUMPI PUSH2 0x9AF PUSH2 0x3E7 SWAP2 CALLDATASIZE SWAP1 PUSH1 0x4 ADD PUSH2 0x2BA4 JUMP JUMPDEST PUSH2 0x3D86 JUMP JUMPDEST CALLVALUE PUSH2 0x20A JUMPI PUSH1 0x20 CALLDATASIZE PUSH1 0x3 NOT ADD SLT PUSH2 0x20A JUMPI PUSH1 0x4 CALLDATALOAD PUSH1 0xB SLOAD DUP2 LT ISZERO PUSH2 0x20A JUMPI PUSH2 0x288 PUSH2 0x28F PUSH2 0x2A3 SWAP3 PUSH1 0xB PUSH1 0x0 MSTORE PUSH1 0x40 MLOAD SWAP3 DUP4 DUP1 SWAP3 PUSH32 0x175B7A638427703F0DBE7BB9BBF987A2551717B34E79F33B5B1008D1FA01DB9 ADD PUSH2 0x2A0E JUMP JUMPDEST CALLVALUE PUSH2 0x20A JUMPI PUSH1 0x20 CALLDATASIZE PUSH1 0x3 NOT ADD SLT PUSH2 0x20A JUMPI PUSH1 0x1 PUSH1 0x1 PUSH1 0xA0 SHL SUB PUSH2 0xA30 PUSH2 0x28C6 JUMP JUMPDEST AND PUSH1 0x0 MSTORE PUSH1 0x9 PUSH1 0x20 MSTORE PUSH2 0xA63 PUSH1 0x40 PUSH1 0x0 KECCAK256 PUSH1 0xD PUSH2 0xA4C DUP3 PUSH2 0x2E7C JUMP JUMPDEST SWAP2 ADD SLOAD PUSH1 0x40 MLOAD SWAP3 DUP4 SWAP3 PUSH1 0x40 DUP5 MSTORE PUSH1 0x40 DUP5 ADD SWAP1 PUSH2 0x2BFA JUMP JUMPDEST SWAP1 PUSH1 0x20 DUP4 ADD MSTORE SUB SWAP1 RETURN JUMPDEST PUSH2 0x160 DUP1 PUSH1 0x3 NOT CALLDATASIZE ADD SLT PUSH2 0x20A JUMPI PUSH1 0x1 PUSH1 0x1 PUSH1 0x40 SHL SUB PUSH1 0x4 CALLDATALOAD DUP2 DUP2 GT PUSH2 0x20A JUMPI PUSH2 0xA9B SWAP1 CALLDATASIZE SWAP1 PUSH1 0x4 ADD PUSH2 0x2BA4 JUMP JUMPDEST SWAP1 PUSH1 0x64 CALLDATALOAD DUP2 DUP2 GT PUSH2 0x20A JUMPI PUSH2 0xAB4 SWAP1 CALLDATASIZE SWAP1 PUSH1 0x4 ADD PUSH2 0x2BA4 JUMP JUMPDEST SWAP2 PUSH1 0x84 CALLDATALOAD DUP3 DUP2 GT PUSH2 0x20A JUMPI PUSH2 0xACD SWAP1 CALLDATASIZE SWAP1 PUSH1 0x4 ADD PUSH2 0x2BA4 JUMP JUMPDEST SWAP2 PUSH1 0xA4 CALLDATALOAD DUP2 DUP2 GT PUSH2 0x20A JUMPI PUSH2 0xAE6 SWAP1 CALLDATASIZE SWAP1 PUSH1 0x4 ADD PUSH2 0x2BA4 JUMP JUMPDEST SWAP5 PUSH1 0xC4 CALLDATALOAD DUP3 DUP2 GT PUSH2 0x20A JUMPI PUSH2 0xAFF SWAP1 CALLDATASIZE SWAP1 PUSH1 0x4 ADD PUSH2 0x2BA4 JUMP JUMPDEST PUSH1 0xE4 CALLDATALOAD DUP4 DUP2 GT PUSH2 0x20A JUMPI PUSH2 0xB17 SWAP1 CALLDATASIZE SWAP1 PUSH1 0x4 ADD PUSH2 0x2BA4 JUMP JUMPDEST PUSH2 0x104 CALLDATALOAD DUP5 DUP2 GT PUSH2 0x20A JUMPI PUSH2 0xB30 SWAP1 CALLDATASIZE SWAP1 PUSH1 0x4 ADD PUSH2 0x2BA4 JUMP JUMPDEST SWAP2 PUSH2 0x124 CALLDATALOAD DUP6 DUP2 GT PUSH2 0x20A JUMPI PUSH2 0xB4A SWAP1 CALLDATASIZE SWAP1 PUSH1 0x4 ADD PUSH2 0x2BA4 JUMP JUMPDEST SWAP5 PUSH2 0x144 CALLDATALOAD SWAP1 DUP2 GT PUSH2 0x20A JUMPI PUSH2 0xB64 SWAP1 CALLDATASIZE SWAP1 PUSH1 0x4 ADD PUSH2 0x2BA4 JUMP JUMPDEST SWAP9 CALLER PUSH1 0x0 MSTORE PUSH1 0x20 SWAP8 PUSH1 0x9 DUP10 MSTORE PUSH1 0x2 PUSH1 0x40 PUSH1 0x0 KECCAK256 ADD SLOAD PUSH2 0xD37 JUMPI PUSH2 0xB86 DUP12 PUSH2 0x3D86 JUMP JUMPDEST PUSH1 0x40 MLOAD SWAP10 PUSH2 0xB93 DUP12 PUSH2 0x2ADA JUMP JUMPDEST CALLER DUP12 MSTORE DUP9 DUP11 DUP13 ADD MSTORE PUSH1 0x24 SWAP12 DUP13 CALLDATALOAD PUSH1 0x40 DUP14 ADD MSTORE PUSH1 0x44 CALLDATALOAD PUSH1 0x60 DUP14 ADD MSTORE PUSH1 0x80 DUP13 ADD MSTORE PUSH1 0xA0 DUP12 ADD MSTORE PUSH1 0xC0 DUP11 ADD MSTORE PUSH1 0xE0 DUP10 ADD MSTORE PUSH2 0x100 DUP9 ADD MSTORE PUSH2 0x120 DUP8 ADD MSTORE PUSH2 0x140 DUP7 ADD MSTORE DUP5 ADD MSTORE PUSH1 0x40 MLOAD SWAP3 PUSH2 0xBE3 DUP5 PUSH2 0x2ABF JUMP JUMPDEST DUP4 MSTORE PUSH1 0x60 DUP3 DUP5 ADD MSTORE PUSH1 0x0 PUSH1 0x40 DUP5 ADD MSTORE CALLER PUSH1 0x0 MSTORE PUSH1 0x9 DUP3 MSTORE PUSH2 0xC08 DUP4 PUSH1 0x40 PUSH1 0x0 KECCAK256 PUSH2 0x41D7 JUMP JUMPDEST PUSH1 0xB SLOAD PUSH1 0x1 PUSH1 0x40 SHL SWAP2 DUP3 DUP3 LT ISZERO PUSH2 0xD22 JUMPI PUSH1 0x1 DUP3 ADD DUP1 PUSH1 0xB SSTORE DUP3 LT ISZERO PUSH2 0xD0D JUMPI PUSH2 0xC58 SWAP2 PUSH1 0xB PUSH1 0x0 MSTORE PUSH32 0x175B7A638427703F0DBE7BB9BBF987A2551717B34E79F33B5B1008D1FA01DB9 ADD PUSH2 0x3330 JUMP JUMPDEST PUSH1 0xA SLOAD SWAP1 DUP2 LT ISZERO PUSH2 0xCF8 JUMPI DUP1 PUSH1 0x1 PUSH2 0xC73 SWAP3 ADD PUSH1 0xA SSTORE PUSH2 0x2E41 JUMP JUMPDEST PUSH2 0xCE3 JUMPI DUP3 PUSH2 0xC81 SWAP2 PUSH2 0x41D7 JUMP JUMPDEST PUSH1 0xC SLOAD PUSH1 0x1 DUP2 ADD DUP1 SWAP2 GT PUSH2 0xCCE JUMPI PUSH32 0xF59A1B8573DB02CF501C11C9D7D88B5365A59BDF0555CFD387DB21CFCACCF4DA SWAP4 POP PUSH1 0xC SSTORE PUSH2 0xCC9 PUSH1 0x40 MLOAD SWAP3 DUP3 DUP5 SWAP4 DUP5 MSTORE DUP4 ADD SWAP1 PUSH2 0x2D9F JUMP JUMPDEST SUB SWAP1 LOG1 STOP JUMPDEST DUP4 PUSH4 0x4E487B71 PUSH1 0xE0 SHL PUSH1 0x0 MSTORE PUSH1 0x11 PUSH1 0x4 MSTORE PUSH1 0x0 REVERT JUMPDEST DUP4 PUSH4 0x4E487B71 PUSH1 0xE0 SHL PUSH1 0x0 MSTORE PUSH1 0x0 PUSH1 0x4 MSTORE PUSH1 0x0 REVERT JUMPDEST DUP4 PUSH4 0x4E487B71 PUSH1 0xE0 SHL PUSH1 0x0 MSTORE PUSH1 0x41 PUSH1 0x4 MSTORE PUSH1 0x0 REVERT JUMPDEST DUP6 PUSH4 0x4E487B71 PUSH1 0xE0 SHL PUSH1 0x0 MSTORE PUSH1 0x32 PUSH1 0x4 MSTORE PUSH1 0x0 REVERT JUMPDEST DUP6 PUSH4 0x4E487B71 PUSH1 0xE0 SHL PUSH1 0x0 MSTORE PUSH1 0x41 PUSH1 0x4 MSTORE PUSH1 0x0 REVERT JUMPDEST PUSH1 0x40 MLOAD PUSH3 0x461BCD PUSH1 0xE5 SHL DUP2 MSTORE PUSH1 0x4 DUP2 ADD DUP11 SWAP1 MSTORE PUSH1 0x1A PUSH1 0x24 DUP3 ADD MSTORE PUSH32 0x566F74657220616C726561647920726567697374657265642021000000000000 PUSH1 0x44 DUP3 ADD MSTORE PUSH1 0x64 SWAP1 REVERT JUMPDEST CALLVALUE PUSH2 0x20A JUMPI PUSH1 0x20 CALLDATASIZE PUSH1 0x3 NOT ADD SLT PUSH2 0x20A JUMPI PUSH1 0x4 CALLDATALOAD PUSH1 0x14 SLOAD DUP2 LT ISZERO PUSH2 0x20A JUMPI PUSH1 0x6 SWAP1 PUSH1 0x14 PUSH1 0x0 MSTORE MUL PUSH1 0x1 DUP1 PUSH1 0xA0 SHL SUB DUP2 PUSH32 0xCE6D7B5282BD9A3661AE061FEED1DBDA4E52AB073B1F9285BE6E155D9C38D4EC ADD SLOAD AND PUSH2 0x2A3 PUSH32 0xCE6D7B5282BD9A3661AE061FEED1DBDA4E52AB073B1F9285BE6E155D9C38D4F0 PUSH1 0x40 MLOAD SWAP4 PUSH2 0xE27 DUP6 PUSH2 0x67E DUP2 PUSH32 0xCE6D7B5282BD9A3661AE061FEED1DBDA4E52AB073B1F9285BE6E155D9C38D4ED DUP6 ADD PUSH2 0x2A0E JUMP JUMPDEST PUSH1 0x40 MLOAD PUSH2 0xE5A DUP2 PUSH2 0x288 DUP2 PUSH32 0xCE6D7B5282BD9A3661AE061FEED1DBDA4E52AB073B1F9285BE6E155D9C38D4EE DUP7 ADD PUSH2 0x2A0E JUMP JUMPDEST PUSH2 0xE91 PUSH1 0x40 MLOAD SWAP3 PUSH2 0x6F6 DUP5 PUSH2 0x6EF DUP2 PUSH32 0xCE6D7B5282BD9A3661AE061FEED1DBDA4E52AB073B1F9285BE6E155D9C38D4EF DUP6 ADD PUSH2 0x2A0E JUMP JUMPDEST PUSH1 0x40 MLOAD SWAP6 DUP7 SWAP6 DUP7 PUSH2 0x2B4D JUMP JUMPDEST CALLVALUE PUSH2 0x20A JUMPI PUSH1 0x0 CALLDATASIZE PUSH1 0x3 NOT ADD SLT PUSH2 0x20A JUMPI PUSH1 0x20 PUSH1 0x16 SLOAD PUSH1 0x40 MLOAD SWAP1 DUP2 MSTORE RETURN JUMPDEST CALLVALUE PUSH2 0x20A JUMPI PUSH1 0x20 CALLDATASIZE PUSH1 0x3 NOT ADD SLT PUSH2 0x20A JUMPI PUSH1 0x1 PUSH1 0x1 PUSH1 0xA0 SHL SUB PUSH2 0xEDC PUSH2 0x28C6 JUMP JUMPDEST AND PUSH1 0x0 MSTORE PUSH1 0x5 PUSH1 0x20 MSTORE PUSH1 0x40 PUSH1 0x0 KECCAK256 PUSH2 0xEF3 DUP2 PUSH2 0x2E7C JUMP JUMPDEST PUSH2 0x2A3 PUSH1 0x40 MLOAD SWAP3 PUSH2 0xF0B DUP5 PUSH2 0x6EF DUP2 PUSH1 0xC DUP6 ADD PUSH2 0x2A0E JUMP JUMPDEST PUSH1 0xE PUSH1 0x40 MLOAD SWAP2 PUSH2 0x96D DUP4 PUSH2 0x706 DUP2 PUSH1 0xD DUP6 ADD PUSH2 0x2A0E JUMP JUMPDEST CALLVALUE PUSH2 0x20A JUMPI PUSH1 0x20 CALLDATASIZE PUSH1 0x3 NOT ADD SLT PUSH2 0x20A JUMPI PUSH1 0x4 CALLDATALOAD PUSH1 0x7 SLOAD DUP2 LT ISZERO PUSH2 0x20A JUMPI PUSH2 0x288 PUSH2 0x28F PUSH2 0x2A3 SWAP3 PUSH1 0x7 PUSH1 0x0 MSTORE PUSH1 0x40 MLOAD SWAP3 DUP4 DUP1 SWAP3 PUSH32 0xA66CC928B5EDB82AF9BD49922954155AB7B0942694BEA4CE44661D9A8736C688 ADD PUSH2 0x2A0E JUMP JUMPDEST CALLVALUE PUSH2 0x20A JUMPI PUSH1 0x0 CALLDATASIZE PUSH1 0x3 NOT ADD SLT PUSH2 0x20A JUMPI PUSH1 0x13 SLOAD PUSH2 0xF9A DUP2 PUSH2 0x2FC5 JUMP JUMPDEST SWAP1 PUSH2 0xFA8 PUSH1 0x40 MLOAD SWAP3 DUP4 PUSH2 0x2B2C JUMP JUMPDEST DUP1 DUP3 MSTORE PUSH1 0x20 DUP3 ADD SWAP1 DUP2 PUSH1 0x13 PUSH1 0x0 MSTORE PUSH32 0x66DE8FFDA797E3DE9C05E8FC57B3BF0EC28A930D40B0D285D93C06501CF6A090 PUSH1 0x0 SWAP2 JUMPDEST DUP4 DUP4 LT PUSH2 0x1049 JUMPI DUP5 DUP7 PUSH1 0x40 MLOAD SWAP2 DUP3 SWAP2 PUSH1 0x20 DUP4 ADD SWAP1 PUSH1 0x20 DUP5 MSTORE MLOAD DUP1 SWAP2 MSTORE PUSH1 0x40 DUP4 ADD SWAP1 PUSH1 0x40 DUP2 PUSH1 0x5 SHL DUP6 ADD ADD SWAP3 SWAP2 PUSH1 0x0 SWAP1 JUMPDEST DUP3 DUP3 LT PUSH2 0x101A JUMPI POP POP POP POP SUB SWAP1 RETURN JUMPDEST SWAP2 SWAP4 PUSH1 0x1 SWAP2 SWAP4 SWAP6 POP PUSH1 0x20 PUSH2 0x1039 DUP2 SWAP3 PUSH1 0x3F NOT DUP11 DUP3 SUB ADD DUP7 MSTORE DUP9 MLOAD PUSH2 0x2FDC JUMP JUMPDEST SWAP7 ADD SWAP3 ADD SWAP3 ADD DUP6 SWAP5 SWAP4 SWAP2 SWAP3 PUSH2 0x100B JUMP JUMPDEST PUSH1 0x40 MLOAD PUSH2 0x1055 DUP2 PUSH2 0x2B11 JUMP JUMPDEST PUSH1 0x40 MLOAD PUSH2 0x1066 DUP2 PUSH2 0x288 DUP2 DUP8 PUSH2 0x2A0E JUMP JUMPDEST DUP2 MSTORE PUSH1 0x40 MLOAD PUSH2 0x107C DUP2 PUSH2 0x288 DUP2 PUSH1 0x1 DUP9 ADD PUSH2 0x2A0E JUMP JUMPDEST PUSH1 0x20 DUP3 ADD MSTORE PUSH1 0x40 MLOAD PUSH2 0x1095 DUP2 PUSH2 0x288 DUP2 PUSH1 0x2 DUP9 ADD PUSH2 0x2A0E JUMP JUMPDEST PUSH1 0x40 DUP3 ADD MSTORE PUSH1 0x40 MLOAD PUSH2 0x10AE DUP2 PUSH2 0x288 DUP2 PUSH1 0x3 DUP9 ADD PUSH2 0x2A0E JUMP JUMPDEST PUSH1 0x60 DUP3 ADD MSTORE PUSH1 0x40 MLOAD PUSH2 0x10C7 DUP2 PUSH2 0x288 DUP2 PUSH1 0x4 DUP9 ADD PUSH2 0x2A0E JUMP JUMPDEST PUSH1 0x80 DUP3 ADD MSTORE PUSH1 0x5 DUP4 ADD DUP1 SLOAD PUSH2 0x10DB DUP2 PUSH2 0x2FC5 JUMP JUMPDEST SWAP2 PUSH2 0x10E9 PUSH1 0x40 MLOAD SWAP4 DUP5 PUSH2 0x2B2C JUMP JUMPDEST DUP2 DUP4 MSTORE PUSH1 0x20 DUP4 ADD SWAP1 PUSH1 0x0 MSTORE PUSH1 0x20 PUSH1 0x0 KECCAK256 SWAP1 PUSH1 0x0 SWAP1 JUMPDEST DUP4 DUP3 LT PUSH2 0x118C JUMPI POP POP POP POP PUSH1 0xA0 DUP3 ADD MSTORE PUSH1 0x6 DUP4 ADD DUP1 SLOAD PUSH2 0x111D DUP2 PUSH2 0x2FC5 JUMP JUMPDEST SWAP2 PUSH2 0x112B PUSH1 0x40 MLOAD SWAP4 DUP5 PUSH2 0x2B2C JUMP JUMPDEST DUP2 DUP4 MSTORE PUSH1 0x20 DUP4 ADD SWAP1 PUSH1 0x0 MSTORE PUSH1 0x20 PUSH1 0x0 KECCAK256 SWAP1 PUSH1 0x0 SWAP1 JUMPDEST DUP4 DUP3 LT PUSH2 0x1167 JUMPI POP POP POP POP PUSH1 0x1 SWAP3 DUP3 PUSH1 0x20 SWAP3 PUSH1 0xC0 PUSH1 0x7 SWAP6 ADD MSTORE DUP2 MSTORE ADD SWAP3 ADD SWAP3 ADD SWAP2 SWAP1 PUSH2 0xFDB JUMP JUMPDEST PUSH1 0x1 PUSH1 0x20 DUP2 SWAP3 PUSH1 0x40 MLOAD PUSH2 0x117E DUP2 PUSH2 0x288 DUP2 DUP11 PUSH2 0x2A0E JUMP JUMPDEST DUP2 MSTORE ADD SWAP4 ADD SWAP2 ADD SWAP1 SWAP2 PUSH2 0x1140 JUMP JUMPDEST PUSH1 0x10 PUSH1 0x20 PUSH1 0x1 SWAP3 PUSH2 0x119C DUP7 PUSH2 0x320A JUMP JUMPDEST DUP2 MSTORE ADD SWAP4 ADD SWAP2 ADD SWAP1 SWAP2 PUSH2 0x10FE JUMP JUMPDEST CALLVALUE PUSH2 0x20A JUMPI PUSH1 0x0 CALLDATASIZE PUSH1 0x3 NOT ADD SLT PUSH2 0x20A JUMPI PUSH1 0x20 PUSH1 0x3 SLOAD PUSH1 0x40 MLOAD SWAP1 DUP2 MSTORE RETURN JUMPDEST PUSH1 0xC0 CALLDATASIZE PUSH1 0x3 NOT ADD SLT PUSH2 0x20A JUMPI PUSH1 0x1 PUSH1 0x1 PUSH1 0x40 SHL SUB PUSH1 0x4 CALLDATALOAD DUP2 DUP2 GT PUSH2 0x20A JUMPI PUSH2 0x11F4 SWAP1 CALLDATASIZE SWAP1 PUSH1 0x4 ADD PUSH2 0x2BA4 JUMP JUMPDEST PUSH1 0x24 SWAP2 DUP3 CALLDATALOAD DUP2 DUP2 GT PUSH2 0x20A JUMPI PUSH2 0x120E SWAP1 CALLDATASIZE SWAP1 PUSH1 0x4 ADD PUSH2 0x2BA4 JUMP JUMPDEST SWAP2 PUSH1 0x44 CALLDATALOAD DUP3 DUP2 GT PUSH2 0x20A JUMPI PUSH2 0x1227 SWAP1 CALLDATASIZE SWAP1 PUSH1 0x4 ADD PUSH2 0x2BA4 JUMP JUMPDEST PUSH1 0x64 CALLDATALOAD DUP4 DUP2 GT PUSH2 0x20A JUMPI PUSH2 0x123F SWAP1 CALLDATASIZE SWAP1 PUSH1 0x4 ADD PUSH2 0x2BA4 JUMP JUMPDEST PUSH1 0x84 CALLDATALOAD DUP5 DUP2 GT PUSH2 0x20A JUMPI PUSH2 0x1257 SWAP1 CALLDATASIZE SWAP1 PUSH1 0x4 ADD PUSH2 0x2BA4 JUMP JUMPDEST PUSH1 0xA4 CALLDATALOAD SWAP2 DUP6 DUP4 GT PUSH2 0x20A JUMPI CALLDATASIZE PUSH1 0x23 DUP5 ADD SLT ISZERO PUSH2 0x20A JUMPI DUP3 PUSH1 0x4 ADD CALLDATALOAD SWAP3 PUSH2 0x127C DUP5 PUSH2 0x2FC5 JUMP JUMPDEST SWAP4 PUSH2 0x128A PUSH1 0x40 MLOAD SWAP6 DUP7 PUSH2 0x2B2C JUMP JUMPDEST DUP1 DUP6 MSTORE PUSH1 0x20 SWAP8 DUP11 DUP10 DUP8 ADD SWAP3 PUSH1 0x5 SHL DUP5 ADD ADD SWAP3 CALLDATASIZE DUP5 GT PUSH2 0x20A JUMPI SWAP1 DUP2 DUP13 DUP12 SWAP10 SWAP9 SWAP8 SWAP7 SWAP6 SWAP5 SWAP4 ADD SWAP3 JUMPDEST DUP5 DUP5 LT PUSH2 0x13A4 JUMPI DUP14 DUP14 DUP12 PUSH2 0x132F DUP15 PUSH2 0x1320 DUP4 DUP16 DUP16 DUP16 DUP16 PUSH2 0x12DC PUSH1 0x1 DUP1 PUSH1 0xA0 SHL SUB PUSH1 0x1 SLOAD AND CALLER EQ PUSH2 0x3277 JUMP JUMPDEST PUSH1 0x40 MLOAD SWAP10 DUP11 SWAP8 PUSH2 0x12EB DUP10 PUSH2 0x2B11 JUMP JUMPDEST DUP9 MSTORE DUP6 DUP9 ADD MSTORE DUP4 PUSH1 0x40 DUP9 ADD MSTORE PUSH1 0x60 DUP8 ADD MSTORE PUSH1 0x80 DUP7 ADD MSTORE PUSH1 0x60 PUSH1 0xA0 DUP7 ADD MSTORE PUSH1 0xC0 DUP6 ADD MSTORE DUP2 PUSH1 0x40 MLOAD SWAP4 DUP3 DUP6 DUP1 SWAP5 MLOAD SWAP4 DUP5 SWAP3 ADD PUSH2 0x28DC JUMP JUMPDEST DUP2 ADD PUSH1 0x11 DUP2 MSTORE SUB ADD SWAP1 KECCAK256 PUSH2 0x3681 JUMP JUMPDEST PUSH1 0x13 SLOAD PUSH1 0x1 PUSH1 0x40 SHL DUP2 LT ISZERO PUSH2 0xCF8 JUMPI DUP1 PUSH1 0x1 PUSH2 0x134E SWAP3 ADD PUSH1 0x13 SSTORE PUSH2 0x3138 JUMP JUMPDEST PUSH2 0xCE3 JUMPI DUP3 PUSH2 0x135C SWAP2 PUSH2 0x3681 JUMP JUMPDEST PUSH1 0x16 SLOAD PUSH1 0x1 DUP2 ADD DUP1 SWAP2 GT PUSH2 0xCCE JUMPI PUSH32 0xE23B65F5C9310B5B270B9D96E225BE290D906FDBD35EC3EFD3A8A9C3189320CD SWAP4 POP PUSH1 0x16 SSTORE PUSH2 0xCC9 PUSH1 0x40 MLOAD SWAP3 DUP3 DUP5 SWAP4 DUP5 MSTORE DUP4 ADD SWAP1 PUSH2 0x2FDC JUMP JUMPDEST SWAP1 SWAP2 SWAP3 DUP1 SWAP5 SWAP6 SWAP7 SWAP8 SWAP9 SWAP10 POP CALLDATALOAD DUP4 DUP2 GT PUSH2 0x20A JUMPI DUP12 SWAP2 PUSH2 0x13CA DUP16 SWAP3 DUP5 SWAP4 CALLDATASIZE SWAP2 DUP8 ADD ADD PUSH2 0x2BA4 JUMP JUMPDEST DUP2 MSTORE ADD SWAP4 ADD SWAP2 SWAP1 DUP11 SWAP9 SWAP8 SWAP7 SWAP6 SWAP5 SWAP4 PUSH2 0x12B1 JUMP JUMPDEST PUSH1 0x80 CALLDATASIZE PUSH1 0x3 NOT ADD SLT PUSH2 0x20A JUMPI PUSH1 0x1 PUSH1 0x1 PUSH1 0x40 SHL SUB PUSH1 0x4 CALLDATALOAD DUP2 DUP2 GT PUSH2 0x20A JUMPI PUSH2 0x1409 SWAP1 CALLDATASIZE SWAP1 PUSH1 0x4 ADD PUSH2 0x2BA4 JUMP JUMPDEST SWAP1 PUSH1 0x24 CALLDATALOAD DUP2 DUP2 GT PUSH2 0x20A JUMPI PUSH2 0x1422 SWAP1 CALLDATASIZE SWAP1 PUSH1 0x4 ADD PUSH2 0x2BA4 JUMP JUMPDEST SWAP1 PUSH1 0x44 CALLDATALOAD DUP2 DUP2 GT PUSH2 0x20A JUMPI PUSH2 0x143B SWAP1 CALLDATASIZE SWAP1 PUSH1 0x4 ADD PUSH2 0x2BA4 JUMP JUMPDEST SWAP1 PUSH1 0x64 CALLDATALOAD SWAP1 DUP2 GT PUSH2 0x20A JUMPI PUSH2 0x1454 SWAP1 CALLDATASIZE SWAP1 PUSH1 0x4 ADD PUSH2 0x2BA4 JUMP JUMPDEST SWAP2 PUSH1 0x40 MLOAD SWAP4 PUSH2 0x1462 DUP6 PUSH2 0x2AA4 JUMP JUMPDEST CALLER DUP6 MSTORE PUSH1 0x20 DUP6 ADD MSTORE PUSH1 0x40 DUP5 ADD MSTORE PUSH1 0x60 DUP4 ADD MSTORE PUSH1 0x80 DUP3 ADD MSTORE PUSH1 0x60 PUSH1 0xA0 DUP3 ADD MSTORE CALLER PUSH1 0x0 MSTORE PUSH1 0x12 PUSH1 0x20 MSTORE PUSH2 0x1497 DUP2 PUSH1 0x40 PUSH1 0x0 KECCAK256 PUSH2 0x3C1E JUMP JUMPDEST PUSH1 0x14 SLOAD PUSH1 0x1 PUSH1 0x40 SHL DUP2 LT ISZERO PUSH2 0x14DC JUMPI DUP1 PUSH1 0x1 PUSH2 0x14B6 SWAP3 ADD PUSH1 0x14 SSTORE PUSH2 0x2F8A JUMP JUMPDEST SWAP2 SWAP1 SWAP2 PUSH2 0x14C6 JUMPI PUSH2 0x3E7 SWAP2 PUSH2 0x3C1E JUMP JUMPDEST PUSH4 0x4E487B71 PUSH1 0xE0 SHL PUSH1 0x0 MSTORE PUSH1 0x0 PUSH1 0x4 MSTORE PUSH1 0x24 PUSH1 0x0 REVERT JUMPDEST PUSH4 0x4E487B71 PUSH1 0xE0 SHL PUSH1 0x0 MSTORE PUSH1 0x41 PUSH1 0x4 MSTORE PUSH1 0x24 PUSH1 0x0 REVERT JUMPDEST CALLVALUE PUSH2 0x20A JUMPI PUSH1 0x20 CALLDATASIZE PUSH1 0x3 NOT ADD SLT PUSH2 0x20A JUMPI PUSH1 0x4 CALLDATALOAD PUSH1 0xF SLOAD DUP2 LT ISZERO PUSH2 0x20A JUMPI PUSH1 0x6 SWAP1 PUSH1 0xF PUSH1 0x0 MSTORE MUL PUSH1 0x1 DUP1 PUSH1 0xA0 SHL SUB DUP2 PUSH32 0x8D1108E10BCB7C27DDDFC02ED9D693A074039D026CF4EA4240B40F7D581AC802 ADD SLOAD AND PUSH2 0x2A3 PUSH32 0x8D1108E10BCB7C27DDDFC02ED9D693A074039D026CF4EA4240B40F7D581AC806 PUSH1 0x40 MLOAD SWAP4 PUSH2 0x159D DUP6 PUSH2 0x67E DUP2 PUSH32 0x8D1108E10BCB7C27DDDFC02ED9D693A074039D026CF4EA4240B40F7D581AC803 DUP6 ADD PUSH2 0x2A0E JUMP JUMPDEST PUSH32 0x8D1108E10BCB7C27DDDFC02ED9D693A074039D026CF4EA4240B40F7D581AC804 DUP2 ADD SLOAD PUSH2 0x15F8 PUSH1 0x40 MLOAD SWAP3 PUSH2 0x6F6 DUP5 PUSH2 0x6EF DUP2 PUSH32 0x8D1108E10BCB7C27DDDFC02ED9D693A074039D026CF4EA4240B40F7D581AC805 DUP6 ADD PUSH2 0x2A0E JUMP JUMPDEST PUSH1 0x40 MLOAD SWAP6 DUP7 SWAP6 DUP7 PUSH2 0x2E05 JUMP JUMPDEST CALLVALUE PUSH2 0x20A JUMPI PUSH1 0x20 CALLDATASIZE PUSH1 0x3 NOT ADD SLT PUSH2 0x20A JUMPI PUSH1 0x4 CALLDATALOAD PUSH1 0x0 SLOAD DUP2 LT ISZERO PUSH2 0x20A JUMPI PUSH2 0x288 PUSH2 0x28F PUSH2 0x2A3 SWAP3 PUSH1 0x0 DUP1 MSTORE PUSH1 0x40 MLOAD SWAP3 DUP4 DUP1 SWAP3 PUSH32 0x290DECD9548B62A8D60345A988386FC84BA6BC95484008F6362F93160EF3E563 ADD PUSH2 0x2A0E JUMP JUMPDEST CALLVALUE PUSH2 0x20A JUMPI PUSH1 0x0 CALLDATASIZE PUSH1 0x3 NOT ADD SLT PUSH2 0x20A JUMPI PUSH1 0x20 PUSH1 0xC SLOAD PUSH1 0x40 MLOAD SWAP1 DUP2 MSTORE RETURN JUMPDEST CALLVALUE PUSH2 0x20A JUMPI PUSH1 0x20 CALLDATASIZE PUSH1 0x3 NOT ADD SLT PUSH2 0x20A JUMPI PUSH2 0x1695 PUSH2 0x28C6 JUMP JUMPDEST PUSH1 0x60 PUSH1 0x80 PUSH1 0x40 MLOAD PUSH2 0x16A5 DUP2 PUSH2 0x2AF6 JUMP JUMPDEST PUSH2 0x16AD PUSH2 0x40F8 JUMP JUMPDEST DUP2 MSTORE DUP3 PUSH1 0x20 DUP3 ADD MSTORE DUP3 PUSH1 0x40 DUP3 ADD MSTORE PUSH1 0x0 DUP4 DUP3 ADD MSTORE ADD MSTORE PUSH1 0x1 DUP1 PUSH1 0xA0 SHL SUB AND PUSH1 0x0 MSTORE PUSH1 0x5 PUSH1 0x20 MSTORE PUSH2 0x2A3 PUSH2 0x16E3 PUSH1 0x40 PUSH1 0x0 KECCAK256 PUSH2 0x320A JUMP JUMPDEST PUSH1 0x40 MLOAD SWAP2 DUP3 SWAP2 PUSH1 0x20 DUP4 MSTORE PUSH1 0x20 DUP4 ADD SWAP1 PUSH2 0x2CE5 JUMP JUMPDEST CALLVALUE PUSH2 0x20A JUMPI PUSH1 0x20 CALLDATASIZE PUSH1 0x3 NOT ADD SLT PUSH2 0x20A JUMPI PUSH1 0x4 CALLDATALOAD PUSH1 0xA SLOAD DUP2 LT ISZERO PUSH2 0x20A JUMPI PUSH1 0xE PUSH2 0xA63 SWAP2 PUSH1 0xA PUSH1 0x0 MSTORE MUL PUSH32 0xC65A7BB8D6351C1CF70C95A316CC6A92839C986682D98BC35F958F4883F9D2B5 PUSH2 0xA4C DUP3 PUSH32 0xC65A7BB8D6351C1CF70C95A316CC6A92839C986682D98BC35F958F4883F9D2A8 ADD PUSH2 0x2E7C JUMP JUMPDEST CALLVALUE PUSH2 0x20A JUMPI PUSH1 0x20 CALLDATASIZE PUSH1 0x3 NOT ADD SLT PUSH2 0x20A JUMPI PUSH1 0x1 PUSH1 0x1 PUSH1 0xA0 SHL SUB DUP1 PUSH2 0x178F PUSH2 0x28C6 JUMP JUMPDEST AND PUSH1 0x0 MSTORE PUSH1 0xE PUSH1 0x20 MSTORE PUSH1 0x40 PUSH1 0x0 KECCAK256 SWAP1 DUP2 SLOAD AND PUSH2 0x2A3 PUSH1 0x4 PUSH1 0x40 MLOAD SWAP4 PUSH2 0x17BB DUP6 PUSH2 0x67E DUP2 PUSH1 0x1 DUP6 ADD PUSH2 0x2A0E JUMP JUMPDEST PUSH1 0x2 DUP2 ADD SLOAD PUSH2 0x15F8 PUSH1 0x40 MLOAD SWAP3 PUSH2 0x6F6 DUP5 PUSH2 0x6EF DUP2 PUSH1 0x3 DUP6 ADD PUSH2 0x2A0E JUMP JUMPDEST CALLVALUE PUSH2 0x20A JUMPI PUSH1 0x20 CALLDATASIZE PUSH1 0x3 NOT ADD SLT PUSH2 0x20A JUMPI PUSH1 0x4 CALLDATALOAD PUSH1 0x1 PUSH1 0x1 PUSH1 0x40 SHL SUB DUP2 GT PUSH2 0x20A JUMPI PUSH1 0x20 PUSH2 0x180D PUSH2 0x1820 SWAP3 CALLDATASIZE SWAP1 PUSH1 0x4 ADD PUSH2 0x2BA4 JUMP JUMPDEST DUP2 PUSH1 0x40 MLOAD SWAP4 DUP3 DUP6 DUP1 SWAP5 MLOAD SWAP4 DUP5 SWAP3 ADD PUSH2 0x28DC JUMP JUMPDEST DUP2 ADD PUSH1 0x11 DUP2 MSTORE SUB ADD SWAP1 KECCAK256 PUSH1 0x40 MLOAD PUSH2 0x183B DUP2 PUSH2 0x288 DUP2 DUP6 PUSH2 0x2A0E JUMP JUMPDEST PUSH2 0x2A3 PUSH1 0x4 PUSH1 0x40 MLOAD SWAP4 PUSH2 0x1855 DUP6 PUSH2 0x67E DUP2 PUSH1 0x1 DUP6 ADD PUSH2 0x2A0E JUMP JUMPDEST PUSH1 0x40 MLOAD PUSH2 0x1869 DUP2 PUSH2 0x288 DUP2 PUSH1 0x2 DUP7 ADD PUSH2 0x2A0E JUMP JUMPDEST PUSH2 0x70D PUSH1 0x40 MLOAD SWAP3 PUSH2 0x6F6 DUP5 PUSH2 0x6EF DUP2 PUSH1 0x3 DUP6 ADD PUSH2 0x2A0E JUMP JUMPDEST CALLVALUE PUSH2 0x20A JUMPI PUSH1 0x0 CALLDATASIZE PUSH1 0x3 NOT ADD SLT PUSH2 0x20A JUMPI PUSH1 0xA SLOAD PUSH2 0x189E DUP2 PUSH2 0x2FC5 JUMP JUMPDEST SWAP1 PUSH2 0x18AC PUSH1 0x40 MLOAD SWAP3 DUP4 PUSH2 0x2B2C JUMP JUMPDEST DUP1 DUP3 MSTORE PUSH1 0x20 SWAP1 DUP2 DUP4 ADD SWAP1 DUP2 PUSH1 0xA PUSH1 0x0 MSTORE PUSH32 0xC65A7BB8D6351C1CF70C95A316CC6A92839C986682D98BC35F958F4883F9D2A8 PUSH1 0x0 SWAP2 JUMPDEST DUP4 DUP4 LT PUSH2 0x1948 JUMPI POP POP POP POP PUSH1 0x40 MLOAD SWAP2 DUP1 DUP4 ADD SWAP4 DUP2 DUP5 MSTORE MLOAD DUP1 SWAP5 MSTORE PUSH1 0x40 DUP4 ADD SWAP4 PUSH1 0x40 DUP2 PUSH1 0x5 SHL DUP6 ADD ADD SWAP3 SWAP2 PUSH1 0x0 SWAP6 JUMPDEST DUP3 DUP8 LT PUSH2 0x191C JUMPI DUP6 DUP6 SUB DUP7 RETURN JUMPDEST SWAP1 SWAP2 SWAP3 SWAP4 DUP3 DUP1 PUSH2 0x1938 PUSH1 0x1 SWAP4 PUSH1 0x3F NOT DUP11 DUP3 SUB ADD DUP7 MSTORE DUP9 MLOAD PUSH2 0x2D9F JUMP JUMPDEST SWAP7 ADD SWAP3 ADD SWAP7 ADD SWAP6 SWAP3 SWAP2 SWAP1 SWAP3 PUSH2 0x190F JUMP JUMPDEST PUSH1 0xE DUP7 PUSH1 0x1 SWAP3 PUSH2 0x195A DUP6 SWAP11 SWAP10 SWAP11 PUSH2 0x430C JUMP JUMPDEST DUP2 MSTORE ADD SWAP3 ADD SWAP3 ADD SWAP2 SWAP1 SWAP6 SWAP5 SWAP6 PUSH2 0x18E1 JUMP JUMPDEST CALLVALUE PUSH2 0x20A JUMPI PUSH1 0x0 CALLDATASIZE PUSH1 0x3 NOT ADD SLT PUSH2 0x20A JUMPI PUSH1 0x6 SLOAD PUSH2 0x1988 DUP2 PUSH2 0x2FC5 JUMP JUMPDEST SWAP1 PUSH2 0x1996 PUSH1 0x40 MLOAD SWAP3 DUP4 PUSH2 0x2B2C JUMP JUMPDEST DUP1 DUP3 MSTORE PUSH1 0x20 SWAP1 DUP2 DUP4 ADD PUSH1 0x6 PUSH1 0x0 MSTORE PUSH32 0xF652222313E28459528D920B65115C16C04F3EFC82AAEDC97BE59F3F377C0D3F DUP4 PUSH1 0x0 SWAP3 JUMPDEST DUP5 DUP5 LT PUSH2 0x19E4 JUMPI PUSH1 0x40 MLOAD DUP3 DUP2 MSTORE DUP1 PUSH2 0x2A3 DUP2 DUP6 ADD DUP11 PUSH2 0x2D43 JUMP JUMPDEST PUSH1 0x1 SWAP2 PUSH1 0x10 SWAP2 PUSH2 0x19F3 DUP6 PUSH2 0x320A JUMP JUMPDEST DUP2 MSTORE ADD SWAP3 ADD SWAP3 ADD SWAP2 SWAP1 DUP5 SWAP1 PUSH2 0x19CA JUMP JUMPDEST PUSH2 0x1A0 CALLDATASIZE PUSH1 0x3 NOT ADD SLT PUSH2 0x20A JUMPI PUSH1 0x1 PUSH1 0x1 PUSH1 0x40 SHL SUB PUSH1 0x4 CALLDATALOAD DUP2 DUP2 GT PUSH2 0x20A JUMPI PUSH2 0x1A30 SWAP1 CALLDATASIZE SWAP1 PUSH1 0x4 ADD PUSH2 0x2BA4 JUMP JUMPDEST PUSH1 0x64 CALLDATALOAD DUP3 DUP2 GT PUSH2 0x20A JUMPI PUSH2 0x1A48 SWAP1 CALLDATASIZE SWAP1 PUSH1 0x4 ADD PUSH2 0x2BA4 JUMP JUMPDEST PUSH1 0x84 CALLDATALOAD DUP4 DUP2 GT PUSH2 0x20A JUMPI PUSH2 0x1A60 SWAP1 CALLDATASIZE SWAP1 PUSH1 0x4 ADD PUSH2 0x2BA4 JUMP JUMPDEST SWAP3 PUSH1 0xA4 CALLDATALOAD DUP2 DUP2 GT PUSH2 0x20A JUMPI PUSH2 0x1A79 SWAP1 CALLDATASIZE SWAP1 PUSH1 0x4 ADD PUSH2 0x2BA4 JUMP JUMPDEST SWAP1 PUSH1 0xC4 CALLDATALOAD DUP2 DUP2 GT PUSH2 0x20A JUMPI PUSH2 0x1A92 SWAP1 CALLDATASIZE SWAP1 PUSH1 0x4 ADD PUSH2 0x2BA4 JUMP JUMPDEST SWAP2 PUSH1 0xE4 CALLDATALOAD DUP3 DUP2 GT PUSH2 0x20A JUMPI PUSH2 0x1AAB SWAP1 CALLDATASIZE SWAP1 PUSH1 0x4 ADD PUSH2 0x2BA4 JUMP JUMPDEST SWAP3 PUSH2 0x104 CALLDATALOAD DUP4 DUP2 GT PUSH2 0x20A JUMPI PUSH2 0x1AC5 SWAP1 CALLDATASIZE SWAP1 PUSH1 0x4 ADD PUSH2 0x2BA4 JUMP JUMPDEST PUSH2 0x124 CALLDATALOAD DUP5 DUP2 GT PUSH2 0x20A JUMPI PUSH2 0x1ADE SWAP1 CALLDATASIZE SWAP1 PUSH1 0x4 ADD PUSH2 0x2BA4 JUMP JUMPDEST SWAP2 PUSH2 0x144 CALLDATALOAD DUP6 DUP2 GT PUSH2 0x20A JUMPI PUSH2 0x1AF8 SWAP1 CALLDATASIZE SWAP1 PUSH1 0x4 ADD PUSH2 0x2BA4 JUMP JUMPDEST SWAP4 PUSH2 0x164 CALLDATALOAD DUP7 DUP2 GT PUSH2 0x20A JUMPI PUSH2 0x1B12 SWAP1 CALLDATASIZE SWAP1 PUSH1 0x4 ADD PUSH2 0x2BA4 JUMP JUMPDEST SWAP6 PUSH2 0x184 CALLDATALOAD SWAP1 DUP2 GT PUSH2 0x20A JUMPI PUSH2 0x1B2C SWAP1 CALLDATASIZE SWAP1 PUSH1 0x4 ADD PUSH2 0x2BA4 JUMP JUMPDEST SWAP10 CALLER PUSH1 0x0 MSTORE PUSH1 0x5 PUSH1 0x20 MSTORE PUSH1 0x24 CALLDATALOAD PUSH1 0x2 PUSH1 0x40 PUSH1 0x0 KECCAK256 ADD SLOAD EQ PUSH2 0x1D33 JUMPI CALLER PUSH1 0x0 DUP2 DUP2 MSTORE PUSH1 0x5 PUSH1 0x20 MSTORE PUSH1 0x40 SWAP1 KECCAK256 SLOAD PUSH1 0x1 PUSH1 0x1 PUSH1 0xA0 SHL SUB AND EQ PUSH2 0x1CEE JUMPI PUSH2 0x1B6E DUP12 PUSH2 0x3D86 JUMP JUMPDEST PUSH1 0x40 MLOAD SWAP11 PUSH2 0x1B7B DUP13 PUSH2 0x2ADA JUMP JUMPDEST CALLER DUP13 MSTORE DUP11 PUSH1 0x20 DUP14 ADD MSTORE PUSH1 0x24 CALLDATALOAD PUSH1 0x40 DUP14 ADD MSTORE PUSH1 0x44 CALLDATALOAD PUSH1 0x60 DUP14 ADD MSTORE PUSH1 0x80 DUP13 ADD MSTORE PUSH1 0xA0 DUP12 ADD MSTORE PUSH1 0xC0 DUP11 ADD MSTORE PUSH1 0xE0 DUP10 ADD MSTORE PUSH2 0x100 DUP9 ADD MSTORE PUSH2 0x120 DUP8 ADD MSTORE PUSH2 0x140 DUP7 ADD MSTORE PUSH2 0x160 DUP6 ADD MSTORE PUSH1 0x40 MLOAD SWAP4 PUSH2 0x1BCD DUP6 PUSH2 0x2AF6 JUMP JUMPDEST DUP5 MSTORE PUSH1 0x20 DUP5 ADD MSTORE PUSH1 0x40 DUP4 ADD MSTORE PUSH1 0x0 PUSH1 0x60 DUP4 ADD MSTORE PUSH1 0x60 PUSH1 0x80 DUP4 ADD MSTORE CALLER PUSH1 0x0 MSTORE PUSH1 0x5 PUSH1 0x20 MSTORE PUSH2 0x1BFE DUP3 PUSH1 0x40 PUSH1 0x0 KECCAK256 PUSH2 0x352D JUMP JUMPDEST PUSH1 0x7 SLOAD PUSH1 0x1 PUSH1 0x40 SHL SWAP2 DUP3 DUP3 LT ISZERO PUSH2 0x14DC JUMPI PUSH1 0x1 DUP3 ADD DUP1 PUSH1 0x7 SSTORE DUP3 LT ISZERO PUSH2 0x1CD8 JUMPI PUSH2 0x1C4E SWAP2 PUSH1 0x7 PUSH1 0x0 MSTORE PUSH32 0xA66CC928B5EDB82AF9BD49922954155AB7B0942694BEA4CE44661D9A8736C688 ADD PUSH2 0x3330 JUMP JUMPDEST PUSH1 0x6 SLOAD SWAP1 DUP2 LT ISZERO PUSH2 0x14DC JUMPI DUP1 PUSH1 0x1 PUSH2 0x1C69 SWAP3 ADD PUSH1 0x6 SSTORE PUSH2 0x30E2 JUMP JUMPDEST PUSH2 0x14C6 JUMPI DUP2 PUSH2 0x1C77 SWAP2 PUSH2 0x352D JUMP JUMPDEST PUSH1 0x8 SLOAD PUSH1 0x1 DUP2 ADD DUP1 SWAP2 GT PUSH2 0x1CC2 JUMPI PUSH32 0xAA865F867ABAA68B8CBA3E6DF5B4CC018184C6E7FFF1D03843D27C69A973E3B0 SWAP2 PUSH2 0xCC9 SWAP2 PUSH1 0x8 SSTORE PUSH1 0x40 MLOAD SWAP2 DUP3 SWAP2 PUSH1 0x20 DUP4 MSTORE PUSH1 0x20 DUP4 ADD SWAP1 PUSH2 0x2CE5 JUMP JUMPDEST PUSH4 0x4E487B71 PUSH1 0xE0 SHL PUSH1 0x0 MSTORE PUSH1 0x11 PUSH1 0x4 MSTORE PUSH1 0x24 PUSH1 0x0 REVERT JUMPDEST PUSH4 0x4E487B71 PUSH1 0xE0 SHL PUSH1 0x0 MSTORE PUSH1 0x32 PUSH1 0x4 MSTORE PUSH1 0x24 PUSH1 0x0 REVERT JUMPDEST PUSH1 0x40 MLOAD PUSH3 0x461BCD PUSH1 0xE5 SHL DUP2 MSTORE PUSH1 0x20 PUSH1 0x4 DUP3 ADD MSTORE PUSH1 0x1E PUSH1 0x24 DUP3 ADD MSTORE PUSH32 0x43616E64696461746520616C7265616479207265676973746572656420210000 PUSH1 0x44 DUP3 ADD MSTORE PUSH1 0x64 SWAP1 REVERT JUMPDEST PUSH1 0x40 MLOAD PUSH3 0x461BCD PUSH1 0xE5 SHL DUP2 MSTORE PUSH1 0x20 PUSH1 0x4 DUP3 ADD MSTORE PUSH1 0x39 PUSH1 0x24 DUP3 ADD MSTORE PUSH32 0x43616E646964617465207769746820676976656E20436974697A656E73686970 PUSH1 0x44 DUP3 ADD MSTORE PUSH32 0x204E6F2E20616C72656164792072656769737465726564202100000000000000 PUSH1 0x64 DUP3 ADD MSTORE PUSH1 0x84 SWAP1 REVERT JUMPDEST CALLVALUE PUSH2 0x20A JUMPI PUSH1 0x0 CALLDATASIZE PUSH1 0x3 NOT ADD SLT PUSH2 0x20A JUMPI PUSH1 0x14 SLOAD PUSH2 0x1DBB DUP2 PUSH2 0x2FC5 JUMP JUMPDEST SWAP1 PUSH2 0x1DC9 PUSH1 0x40 MLOAD SWAP3 DUP4 PUSH2 0x2B2C JUMP JUMPDEST DUP1 DUP3 MSTORE PUSH1 0x20 DUP3 ADD SWAP1 DUP2 PUSH1 0x14 PUSH1 0x0 MSTORE PUSH32 0xCE6D7B5282BD9A3661AE061FEED1DBDA4E52AB073B1F9285BE6E155D9C38D4EC PUSH1 0x0 SWAP2 JUMPDEST DUP4 DUP4 LT PUSH2 0x1F5C JUMPI DUP5 DUP7 PUSH1 0x40 MLOAD SWAP2 DUP3 SWAP2 PUSH1 0x20 DUP4 ADD SWAP1 PUSH1 0x20 DUP5 MSTORE MLOAD DUP1 SWAP2 MSTORE PUSH1 0x40 DUP4 ADD SWAP1 PUSH1 0x5 PUSH1 0x40 DUP3 DUP3 SHL DUP7 ADD ADD SWAP4 SWAP3 PUSH1 0x0 SWAP2 JUMPDEST DUP4 DUP4 LT PUSH2 0x1E3A JUMPI DUP7 DUP7 SUB DUP8 RETURN JUMPDEST SWAP2 SWAP4 SWAP6 POP SWAP2 SWAP4 PUSH1 0x3F NOT DUP8 DUP3 SUB ADD DUP4 MSTORE DUP6 MLOAD SWAP1 PUSH1 0x1 DUP1 PUSH1 0xA0 SHL SUB SWAP1 DUP2 DUP4 MLOAD AND DUP2 MSTORE PUSH2 0x1E87 PUSH2 0x1E75 PUSH1 0x20 DUP6 ADD MLOAD PUSH1 0xC0 DUP1 PUSH1 0x20 DUP7 ADD MSTORE DUP5 ADD SWAP1 PUSH2 0x28FF JUMP JUMPDEST PUSH1 0x40 DUP6 ADD MLOAD DUP4 DUP3 SUB PUSH1 0x40 DUP6 ADD MSTORE PUSH2 0x28FF JUMP JUMPDEST SWAP1 PUSH2 0x1EB4 PUSH2 0x1EA1 PUSH1 0x60 SWAP4 DUP5 DUP8 ADD MLOAD DUP5 DUP3 SUB DUP7 DUP7 ADD MSTORE PUSH2 0x28FF JUMP JUMPDEST PUSH1 0x80 DUP1 DUP8 ADD MLOAD SWAP1 DUP5 DUP4 SUB SWAP1 DUP6 ADD MSTORE PUSH2 0x28FF JUMP JUMPDEST SWAP1 PUSH1 0xA0 DUP1 SWAP6 ADD MLOAD SWAP5 DUP2 DUP4 SUB SWAP2 ADD MSTORE DUP4 MLOAD SWAP1 DUP2 DUP2 MSTORE PUSH1 0x20 DUP2 ADD SWAP3 PUSH1 0x20 DUP1 DUP5 DUP10 SHL DUP5 ADD ADD SWAP7 ADD SWAP5 PUSH1 0x0 SWAP2 JUMPDEST DUP5 DUP4 LT PUSH2 0x1F03 JUMPI POP POP POP POP POP POP POP PUSH1 0x20 DUP1 PUSH1 0x1 SWAP3 SWAP8 ADD SWAP4 ADD SWAP4 ADD SWAP1 SWAP3 DUP7 SWAP6 SWAP5 SWAP3 SWAP4 PUSH2 0x1E2D JUMP JUMPDEST SWAP1 SWAP2 SWAP3 SWAP4 SWAP5 SWAP6 SWAP7 PUSH1 0x20 DUP1 PUSH2 0x1F4D PUSH1 0x1 SWAP4 PUSH1 0x1F NOT DUP10 DUP3 SUB ADD DUP12 MSTORE DUP12 MLOAD SWAP1 DUP8 DUP3 MLOAD AND DUP2 MSTORE PUSH1 0x40 PUSH2 0x1F3C DUP6 DUP5 ADD MLOAD DUP10 DUP8 DUP6 ADD MSTORE DUP10 DUP5 ADD SWAP1 PUSH2 0x28FF JUMP JUMPDEST SWAP3 ADD MLOAD SWAP1 PUSH1 0x40 DUP2 DUP5 SUB SWAP2 ADD MSTORE PUSH2 0x28FF JUMP JUMPDEST SWAP10 ADD SWAP8 ADD SWAP6 SWAP5 SWAP4 ADD SWAP2 SWAP1 PUSH2 0x1EDD JUMP JUMPDEST PUSH1 0x40 MLOAD PUSH2 0x1F68 DUP2 PUSH2 0x2AA4 JUMP JUMPDEST DUP3 SLOAD PUSH1 0x1 PUSH1 0x1 PUSH1 0xA0 SHL SUB AND DUP2 MSTORE PUSH1 0x40 MLOAD PUSH2 0x1F89 DUP2 PUSH2 0x288 DUP2 PUSH1 0x1 DUP9 ADD PUSH2 0x2A0E JUMP JUMPDEST PUSH1 0x20 DUP3 ADD MSTORE PUSH1 0x40 MLOAD PUSH2 0x1FA2 DUP2 PUSH2 0x288 DUP2 PUSH1 0x2 DUP9 ADD PUSH2 0x2A0E JUMP JUMPDEST PUSH1 0x40 DUP3 ADD MSTORE PUSH1 0x40 MLOAD PUSH2 0x1FBB DUP2 PUSH2 0x288 DUP2 PUSH1 0x3 DUP9 ADD PUSH2 0x2A0E JUMP JUMPDEST PUSH1 0x60 DUP3 ADD MSTORE PUSH1 0x40 MLOAD PUSH2 0x1FD4 DUP2 PUSH2 0x288 DUP2 PUSH1 0x4 DUP9 ADD PUSH2 0x2A0E JUMP JUMPDEST PUSH1 0x80 DUP3 ADD MSTORE PUSH1 0x5 DUP4 ADD SLOAD PUSH2 0x1FE7 DUP2 PUSH2 0x2FC5 JUMP JUMPDEST SWAP1 PUSH2 0x1FF5 PUSH1 0x40 MLOAD SWAP3 DUP4 PUSH2 0x2B2C JUMP JUMPDEST DUP1 DUP3 MSTORE PUSH1 0x20 DUP3 ADD PUSH1 0x5 DUP7 ADD PUSH1 0x0 MSTORE PUSH1 0x20 PUSH1 0x0 KECCAK256 SWAP1 PUSH1 0x0 SWAP1 JUMPDEST DUP4 DUP3 LT PUSH2 0x2034 JUMPI POP POP POP POP PUSH1 0x1 SWAP3 DUP3 PUSH1 0x20 SWAP3 PUSH1 0xA0 PUSH1 0x6 SWAP6 ADD MSTORE DUP2 MSTORE ADD SWAP3 ADD SWAP3 ADD SWAP2 SWAP1 PUSH2 0x1DFC JUMP JUMPDEST PUSH1 0x3 PUSH1 0x20 PUSH1 0x1 SWAP3 PUSH1 0x40 MLOAD PUSH2 0x2047 DUP2 PUSH2 0x2ABF JUMP JUMPDEST DUP5 DUP1 PUSH1 0xA0 SHL SUB DUP8 SLOAD AND DUP2 MSTORE PUSH1 0x40 MLOAD PUSH2 0x2065 DUP2 PUSH2 0x288 DUP2 DUP10 DUP13 ADD PUSH2 0x2A0E JUMP JUMPDEST DUP4 DUP3 ADD MSTORE PUSH1 0x40 MLOAD PUSH2 0x207D DUP2 PUSH2 0x288 DUP2 PUSH1 0x2 DUP13 ADD PUSH2 0x2A0E JUMP JUMPDEST PUSH1 0x40 DUP3 ADD MSTORE DUP2 MSTORE ADD SWAP4 ADD SWAP2 ADD SWAP1 SWAP2 PUSH2 0x200D JUMP JUMPDEST CALLVALUE PUSH2 0x20A JUMPI PUSH1 0x20 CALLDATASIZE PUSH1 0x3 NOT ADD SLT PUSH2 0x20A JUMPI PUSH1 0x20 PUSH2 0x20AB PUSH2 0x28C6 JUMP JUMPDEST PUSH1 0x1 SLOAD PUSH1 0x40 MLOAD PUSH1 0x1 PUSH1 0x1 PUSH1 0xA0 SHL SUB SWAP3 DUP4 AND SWAP2 SWAP1 SWAP3 AND EQ DUP2 MSTORE RETURN JUMPDEST PUSH1 0x80 CALLDATASIZE PUSH1 0x3 NOT ADD SLT PUSH2 0x20A JUMPI PUSH1 0x1 PUSH1 0x1 PUSH1 0x40 SHL SUB PUSH1 0x4 CALLDATALOAD DUP2 DUP2 GT PUSH2 0x20A JUMPI PUSH2 0x20F1 SWAP1 CALLDATASIZE SWAP1 PUSH1 0x4 ADD PUSH2 0x2BA4 JUMP JUMPDEST SWAP1 PUSH1 0x44 CALLDATALOAD DUP2 DUP2 GT PUSH2 0x20A JUMPI PUSH2 0x210A SWAP1 CALLDATASIZE SWAP1 PUSH1 0x4 ADD PUSH2 0x2BA4 JUMP JUMPDEST SWAP1 PUSH1 0x64 CALLDATALOAD SWAP1 DUP2 GT PUSH2 0x20A JUMPI PUSH2 0x2123 SWAP1 CALLDATASIZE SWAP1 PUSH1 0x4 ADD PUSH2 0x2BA4 JUMP JUMPDEST PUSH1 0x1 SLOAD SWAP1 SWAP3 SWAP1 PUSH1 0x1 PUSH1 0x1 PUSH1 0xA0 SHL SUB AND PUSH2 0x213D CALLER DUP3 EQ PUSH2 0x3277 JUMP JUMPDEST PUSH1 0x40 MLOAD SWAP4 PUSH2 0x214A DUP6 PUSH2 0x2AA4 JUMP JUMPDEST DUP2 DUP6 MSTORE DUP3 PUSH1 0x20 DUP7 ADD MSTORE PUSH1 0x24 SWAP4 DUP5 CALLDATALOAD PUSH1 0x40 DUP8 ADD MSTORE PUSH1 0x60 DUP7 ADD MSTORE PUSH1 0x80 DUP6 ADD MSTORE PUSH1 0x60 PUSH1 0xA0 DUP6 ADD MSTORE PUSH1 0x0 MSTORE PUSH1 0xE PUSH1 0x20 MSTORE PUSH2 0x2184 DUP4 PUSH1 0x40 PUSH1 0x0 KECCAK256 PUSH2 0x342B JUMP JUMPDEST PUSH1 0x10 SLOAD SWAP1 PUSH1 0x1 PUSH1 0x40 SHL SWAP2 DUP3 DUP2 LT ISZERO PUSH2 0xCF8 JUMPI PUSH1 0x1 DUP2 ADD DUP1 PUSH1 0x10 SSTORE DUP2 LT ISZERO PUSH2 0x22AE JUMPI SWAP1 PUSH2 0x21D6 SWAP2 PUSH1 0x10 PUSH1 0x0 MSTORE PUSH32 0x1B6847DC741A1B0CD08D278845F9D819D87B734759AFB55FE2DE5CB82A9AE672 ADD PUSH2 0x3330 JUMP JUMPDEST PUSH1 0xF SLOAD SWAP1 DUP2 LT ISZERO PUSH2 0x2299 JUMPI PUSH1 0x1 DUP2 ADD DUP1 PUSH1 0xF SSTORE DUP2 LT ISZERO PUSH2 0x2284 JUMPI DUP3 PUSH1 0x6 PUSH2 0x2224 SWAP3 PUSH1 0xF PUSH1 0x0 MSTORE MUL PUSH32 0x8D1108E10BCB7C27DDDFC02ED9D693A074039D026CF4EA4240B40F7D581AC802 ADD PUSH2 0x342B JUMP JUMPDEST PUSH1 0x15 SLOAD SWAP1 PUSH1 0x1 DUP3 ADD DUP1 SWAP3 GT PUSH2 0x2270 JUMPI PUSH32 0xA9842A716BC2513F613D9FAF736CA365FE3689A18EA2C3EF8BB9402C98A060C1 PUSH2 0xCC9 DUP5 DUP5 PUSH1 0x15 SSTORE PUSH1 0x40 MLOAD SWAP2 DUP3 SWAP2 PUSH1 0x20 DUP4 MSTORE PUSH1 0x20 DUP4 ADD SWAP1 PUSH2 0x2961 JUMP JUMPDEST PUSH4 0x4E487B71 PUSH1 0xE0 SHL PUSH1 0x0 SWAP1 DUP2 MSTORE PUSH1 0x11 PUSH1 0x4 MSTORE REVERT JUMPDEST POP PUSH4 0x4E487B71 PUSH1 0xE0 SHL PUSH1 0x0 SWAP1 DUP2 MSTORE PUSH1 0x32 PUSH1 0x4 MSTORE REVERT JUMPDEST POP PUSH4 0x4E487B71 PUSH1 0xE0 SHL PUSH1 0x0 SWAP1 DUP2 MSTORE PUSH1 0x41 PUSH1 0x4 MSTORE REVERT JUMPDEST DUP4 PUSH4 0x4E487B71 PUSH1 0xE0 SHL PUSH1 0x0 MSTORE PUSH1 0x32 PUSH1 0x4 MSTORE PUSH1 0x0 REVERT JUMPDEST PUSH1 0x40 CALLDATASIZE PUSH1 0x3 NOT ADD SLT PUSH2 0x20A JUMPI PUSH2 0x22D7 PUSH2 0x28C6 JUMP JUMPDEST PUSH1 0x24 CALLDATALOAD PUSH1 0x1 PUSH1 0x1 PUSH1 0x40 SHL SUB DUP2 GT PUSH2 0x20A JUMPI PUSH2 0x22F6 SWAP1 CALLDATASIZE SWAP1 PUSH1 0x4 ADD PUSH2 0x2BA4 JUMP JUMPDEST PUSH1 0x1 SLOAD PUSH1 0x1 PUSH1 0x1 PUSH1 0xA0 SHL SUB AND CALLER EQ PUSH2 0x2735 JUMPI CALLER PUSH1 0x0 MSTORE PUSH1 0x9 PUSH1 0x20 MSTORE PUSH1 0x3 PUSH1 0xD PUSH1 0x40 PUSH1 0x0 KECCAK256 ADD SLOAD GT PUSH2 0x26E2 JUMPI PUSH1 0x1 DUP1 PUSH1 0xA0 SHL SUB DUP3 AND PUSH1 0x0 MSTORE PUSH1 0x5 PUSH1 0x20 MSTORE PUSH2 0x2343 CALLER PUSH1 0xF PUSH1 0x40 PUSH1 0x0 KECCAK256 ADD PUSH2 0x3173 JUMP JUMPDEST CALLER PUSH1 0x0 MSTORE PUSH1 0x9 PUSH1 0x20 MSTORE PUSH2 0x235D DUP3 PUSH1 0xC PUSH1 0x40 PUSH1 0x0 KECCAK256 ADD PUSH2 0x3173 JUMP JUMPDEST PUSH1 0x1 PUSH1 0x1 PUSH1 0xA0 SHL SUB DUP3 AND PUSH1 0x0 SWAP1 DUP2 MSTORE PUSH1 0x5 PUSH1 0x20 MSTORE PUSH1 0x40 SWAP1 KECCAK256 PUSH1 0xE ADD SLOAD PUSH1 0x1 DUP2 ADD SWAP1 DUP2 LT PUSH2 0x1CC2 JUMPI PUSH1 0x1 PUSH1 0x1 PUSH1 0xA0 SHL SUB DUP4 AND PUSH1 0x0 SWAP1 DUP2 MSTORE PUSH1 0x5 PUSH1 0x20 MSTORE PUSH1 0x40 SWAP1 KECCAK256 PUSH1 0xE ADD SSTORE PUSH1 0xD SLOAD PUSH2 0x23AC SWAP1 PUSH2 0x4349 JUMP JUMPDEST PUSH1 0xD SSTORE PUSH1 0x0 JUMPDEST PUSH1 0x40 MLOAD SWAP1 PUSH1 0x5 DUP4 MLOAD PUSH2 0x23C8 DUP2 DUP6 PUSH1 0x20 DUP9 ADD PUSH2 0x28DC JUMP JUMPDEST DUP4 ADD SWAP3 PUSH1 0x20 DUP2 PUSH1 0x11 SWAP6 DUP7 DUP2 MSTORE SUB ADD SWAP1 KECCAK256 ADD SLOAD DUP2 LT ISZERO PUSH2 0x2486 JUMPI PUSH2 0x2439 SWAP2 DUP2 PUSH2 0x241B PUSH2 0x2415 DUP3 PUSH1 0x5 PUSH1 0x40 MLOAD PUSH1 0x20 DUP2 DUP2 PUSH2 0x2406 DUP14 DUP4 DUP2 MLOAD SWAP4 DUP5 SWAP3 ADD PUSH2 0x28DC JUMP JUMPDEST DUP2 ADD DUP10 DUP2 MSTORE SUB ADD SWAP1 KECCAK256 ADD PUSH2 0x311C JUMP JUMPDEST POP PUSH2 0x320A JUMP JUMPDEST DUP1 MLOAD MLOAD PUSH1 0x1 PUSH1 0x1 PUSH1 0xA0 SHL SUB DUP9 DUP2 AND SWAP2 AND EQ PUSH2 0x243E JUMPI JUMPDEST POP POP POP PUSH2 0x31B5 JUMP JUMPDEST PUSH2 0x23B2 JUMP JUMPDEST PUSH1 0xE SWAP2 PUSH1 0x5 PUSH2 0x2453 PUSH1 0x60 PUSH2 0x247B SWAP5 ADD MLOAD PUSH2 0x4349 JUMP JUMPDEST SWAP5 PUSH1 0x20 PUSH1 0x40 MLOAD DUP1 SWAP3 DUP3 PUSH2 0x246C DUP14 DUP5 DUP2 MLOAD SWAP4 DUP5 SWAP3 ADD PUSH2 0x28DC JUMP JUMPDEST DUP3 ADD SWAP1 DUP2 MSTORE SUB ADD SWAP1 KECCAK256 ADD PUSH2 0x311C JUMP JUMPDEST POP ADD SSTORE DUP5 DUP2 DUP2 PUSH2 0x2431 JUMP JUMPDEST DUP4 PUSH1 0x0 JUMPDEST PUSH1 0x6 SLOAD DUP2 LT ISZERO PUSH2 0x24D6 JUMPI DUP1 PUSH2 0x24A1 PUSH2 0x24BA SWAP3 PUSH2 0x30E2 JUMP JUMPDEST POP SLOAD PUSH1 0x1 PUSH1 0x1 PUSH1 0xA0 SHL SUB DUP5 DUP2 AND SWAP2 AND EQ PUSH2 0x24BF JUMPI PUSH2 0x31B5 JUMP JUMPDEST PUSH2 0x248A JUMP JUMPDEST PUSH2 0x423 PUSH2 0x24CB DUP3 PUSH2 0x30E2 JUMP JUMPDEST POP PUSH1 0xF CALLER SWAP2 ADD PUSH2 0x3173 JUMP JUMPDEST POP PUSH1 0x0 JUMPDEST PUSH1 0xA SLOAD DUP2 LT ISZERO PUSH2 0x2522 JUMPI DUP1 PUSH2 0x24F1 PUSH2 0x2507 SWAP3 PUSH2 0x2E41 JUMP JUMPDEST POP SLOAD PUSH1 0x1 PUSH1 0x1 PUSH1 0xA0 SHL SUB AND CALLER EQ PUSH2 0x250C JUMPI PUSH2 0x31B5 JUMP JUMPDEST PUSH2 0x24DA JUMP JUMPDEST PUSH2 0x423 DUP4 PUSH1 0xC PUSH2 0x251B DUP5 PUSH2 0x2E41 JUMP JUMPDEST POP ADD PUSH2 0x3173 JUMP JUMPDEST POP CALLER PUSH1 0x0 MSTORE PUSH1 0x9 PUSH1 0x20 MSTORE PUSH2 0x253D PUSH1 0xD PUSH1 0x40 PUSH1 0x0 KECCAK256 ADD SLOAD PUSH2 0x4349 JUMP JUMPDEST CALLER PUSH1 0x0 MSTORE PUSH1 0x9 PUSH1 0x20 MSTORE PUSH1 0xD PUSH1 0x40 PUSH1 0x0 KECCAK256 ADD SSTORE PUSH1 0x1 DUP1 PUSH1 0xA0 SHL SUB AND PUSH1 0x0 MSTORE PUSH1 0x5 PUSH1 0x20 MSTORE PUSH32 0x34ACF85A95A1DC89BFC38E95C6D8D0E8E5D4544C49E9103ED7882D205ED151F8 PUSH2 0xCC9 PUSH1 0x40 PUSH1 0x0 KECCAK256 PUSH1 0x40 MLOAD SWAP2 DUP3 SWAP2 PUSH1 0x20 DUP4 MSTORE PUSH1 0xA0 PUSH1 0x20 DUP5 ADD MSTORE PUSH1 0x1 DUP1 PUSH1 0xA0 SHL SUB DUP2 SLOAD AND PUSH1 0xC0 DUP5 ADD MSTORE PUSH1 0xF PUSH2 0x2697 DUP5 PUSH2 0x2683 PUSH2 0x266F PUSH2 0x265B PUSH2 0x2647 PUSH2 0x2633 PUSH2 0x180 DUP1 PUSH1 0xE0 DUP9 ADD MSTORE PUSH2 0x2620 PUSH2 0x260C PUSH2 0x25DE DUP13 PUSH1 0x1 PUSH2 0x240 DUP13 ADD SWAP2 ADD PUSH2 0x2A0E JUMP JUMPDEST PUSH1 0x2 DUP14 ADD SLOAD PUSH2 0x100 DUP12 ADD MSTORE PUSH1 0x3 DUP14 ADD SLOAD PUSH2 0x120 DUP12 ADD MSTORE PUSH1 0xBF NOT SWAP10 PUSH2 0x140 DUP12 DUP3 DUP5 SUB ADD SWAP2 ADD MSTORE PUSH1 0x4 DUP14 ADD PUSH2 0x2A0E JUMP JUMPDEST DUP14 DUP2 SUB DUP10 ADD PUSH2 0x160 DUP16 ADD MSTORE PUSH1 0x5 DUP13 ADD PUSH2 0x2A0E JUMP JUMPDEST SWAP1 DUP8 DUP14 DUP4 SUB ADD SWAP1 DUP14 ADD MSTORE PUSH1 0x6 DUP11 ADD PUSH2 0x2A0E JUMP JUMPDEST DUP6 DUP12 DUP3 SUB ADD PUSH2 0x1A0 DUP13 ADD MSTORE PUSH1 0x7 DUP10 ADD PUSH2 0x2A0E JUMP JUMPDEST DUP5 DUP11 DUP3 SUB ADD PUSH2 0x1C0 DUP12 ADD MSTORE PUSH1 0x8 DUP9 ADD PUSH2 0x2A0E JUMP JUMPDEST DUP4 DUP10 DUP3 SUB ADD PUSH2 0x1E0 DUP11 ADD MSTORE PUSH1 0x9 DUP8 ADD PUSH2 0x2A0E JUMP JUMPDEST DUP3 DUP9 DUP3 SUB ADD PUSH2 0x200 DUP10 ADD MSTORE PUSH1 0xA DUP7 ADD PUSH2 0x2A0E JUMP JUMPDEST SWAP1 DUP7 DUP3 SUB ADD PUSH2 0x220 DUP8 ADD MSTORE PUSH1 0xB DUP5 ADD PUSH2 0x2A0E JUMP JUMPDEST SWAP2 PUSH2 0x26C8 PUSH2 0x26B5 PUSH1 0x1F NOT SWAP5 DUP6 DUP9 DUP3 SUB ADD PUSH1 0x40 DUP10 ADD MSTORE PUSH1 0xC DUP5 ADD PUSH2 0x2A0E JUMP JUMPDEST DUP5 DUP8 DUP3 SUB ADD PUSH1 0x60 DUP9 ADD MSTORE PUSH1 0xD DUP4 ADD PUSH2 0x2A0E JUMP JUMPDEST SWAP3 PUSH1 0xE DUP3 ADD SLOAD PUSH1 0x80 DUP8 ADD MSTORE DUP6 DUP5 SUB ADD PUSH1 0xA0 DUP7 ADD MSTORE ADD PUSH2 0x31C4 JUMP JUMPDEST PUSH1 0x40 MLOAD PUSH3 0x461BCD PUSH1 0xE5 SHL DUP2 MSTORE PUSH1 0x20 PUSH1 0x4 DUP3 ADD MSTORE PUSH1 0x25 PUSH1 0x24 DUP3 ADD MSTORE PUSH32 0x596F752068617665206578636565642074686520766F7465206361737465206C PUSH1 0x44 DUP3 ADD MSTORE PUSH5 0x34B6B4BA17 PUSH1 0xD9 SHL PUSH1 0x64 DUP3 ADD MSTORE PUSH1 0x84 SWAP1 REVERT JUMPDEST PUSH1 0x64 PUSH1 0x40 MLOAD PUSH3 0x461BCD PUSH1 0xE5 SHL DUP2 MSTORE PUSH1 0x20 PUSH1 0x4 DUP3 ADD MSTORE PUSH1 0x20 PUSH1 0x24 DUP3 ADD MSTORE PUSH32 0x41646D696E20697320726573747269637420746F20636173746520766F74652E PUSH1 0x44 DUP3 ADD MSTORE REVERT JUMPDEST CALLVALUE PUSH2 0x20A JUMPI PUSH1 0x0 CALLDATASIZE PUSH1 0x3 NOT ADD SLT PUSH2 0x20A JUMPI PUSH1 0x20 PUSH1 0x8 SLOAD PUSH1 0x40 MLOAD SWAP1 DUP2 MSTORE RETURN JUMPDEST CALLVALUE PUSH2 0x20A JUMPI PUSH1 0x0 CALLDATASIZE PUSH1 0x3 NOT ADD SLT PUSH2 0x20A JUMPI PUSH1 0x20 PUSH1 0x4 SLOAD PUSH1 0x40 MLOAD SWAP1 DUP2 MSTORE RETURN JUMPDEST CALLVALUE PUSH2 0x20A JUMPI PUSH1 0x0 CALLDATASIZE PUSH1 0x3 NOT ADD SLT PUSH2 0x20A JUMPI PUSH1 0x20 PUSH1 0x2 SLOAD PUSH1 0x40 MLOAD SWAP1 DUP2 MSTORE RETURN JUMPDEST CALLVALUE PUSH2 0x20A JUMPI PUSH1 0x20 CALLDATASIZE PUSH1 0x3 NOT ADD SLT PUSH2 0x20A JUMPI PUSH1 0x1 PUSH1 0x1 PUSH1 0xA0 SHL SUB DUP1 PUSH2 0x27F5 PUSH2 0x28C6 JUMP JUMPDEST AND PUSH1 0x0 MSTORE PUSH1 0x12 PUSH1 0x20 MSTORE PUSH1 0x40 PUSH1 0x0 KECCAK256 SWAP1 DUP2 SLOAD AND PUSH2 0x2A3 PUSH1 0x4 PUSH1 0x40 MLOAD SWAP4 PUSH2 0x2821 DUP6 PUSH2 0x67E DUP2 PUSH1 0x1 DUP6 ADD PUSH2 0x2A0E JUMP JUMPDEST PUSH1 0x40 MLOAD PUSH2 0x2835 DUP2 PUSH2 0x288 DUP2 PUSH1 0x2 DUP7 ADD PUSH2 0x2A0E JUMP JUMPDEST PUSH2 0xE91 PUSH1 0x40 MLOAD SWAP3 PUSH2 0x6F6 DUP5 PUSH2 0x6EF DUP2 PUSH1 0x3 DUP6 ADD PUSH2 0x2A0E JUMP JUMPDEST CALLVALUE PUSH2 0x20A JUMPI PUSH1 0x20 CALLDATASIZE PUSH1 0x3 NOT ADD SLT PUSH2 0x20A JUMPI PUSH1 0x60 PUSH1 0xA0 PUSH2 0x286A PUSH2 0x28C6 JUMP JUMPDEST SWAP3 PUSH2 0x2874 DUP2 PUSH2 0x2AA4 JUMP JUMPDEST PUSH1 0x0 DUP2 MSTORE DUP3 PUSH1 0x20 DUP3 ADD MSTORE PUSH1 0x0 PUSH1 0x40 DUP3 ADD MSTORE DUP3 DUP1 DUP3 ADD MSTORE DUP3 PUSH1 0x80 DUP3 ADD MSTORE ADD MSTORE PUSH1 0x1 DUP1 PUSH1 0xA0 SHL SUB AND PUSH1 0x0 MSTORE PUSH1 0xE PUSH1 0x20 MSTORE PUSH2 0x2A3 PUSH2 0x28B2 PUSH1 0x40 PUSH1 0x0 KECCAK256 PUSH2 0x4154 JUMP JUMPDEST PUSH1 0x40 MLOAD SWAP2 DUP3 SWAP2 PUSH1 0x20 DUP4 MSTORE PUSH1 0x20 DUP4 ADD SWAP1 PUSH2 0x2961 JUMP JUMPDEST PUSH1 0x4 CALLDATALOAD SWAP1 PUSH1 0x1 PUSH1 0x1 PUSH1 0xA0 SHL SUB DUP3 AND DUP3 SUB PUSH2 0x20A JUMPI JUMP JUMPDEST PUSH1 0x0 JUMPDEST DUP4 DUP2 LT PUSH2 0x28EF JUMPI POP POP PUSH1 0x0 SWAP2 ADD MSTORE JUMP JUMPDEST DUP2 DUP2 ADD MLOAD DUP4 DUP3 ADD MSTORE PUSH1 0x20 ADD PUSH2 0x28DF JUMP JUMPDEST SWAP1 PUSH1 0x20 SWAP2 PUSH2 0x2918 DUP2 MLOAD DUP1 SWAP3 DUP2 DUP6 MSTORE DUP6 DUP1 DUP7 ADD SWAP2 ADD PUSH2 0x28DC JUMP JUMPDEST PUSH1 0x1F ADD PUSH1 0x1F NOT AND ADD ADD SWAP1 JUMP JUMPDEST SWAP1 DUP2 MLOAD DUP1 DUP3 MSTORE PUSH1 0x20 DUP1 DUP1 SWAP4 ADD SWAP4 ADD SWAP2 PUSH1 0x0 JUMPDEST DUP3 DUP2 LT PUSH2 0x2944 JUMPI POP POP POP POP SWAP1 JUMP JUMPDEST DUP4 MLOAD PUSH1 0x1 PUSH1 0x1 PUSH1 0xA0 SHL SUB AND DUP6 MSTORE SWAP4 DUP2 ADD SWAP4 SWAP3 DUP2 ADD SWAP3 PUSH1 0x1 ADD PUSH2 0x2936 JUMP JUMPDEST PUSH2 0x29D1 SWAP2 PUSH1 0x1 DUP1 PUSH1 0xA0 SHL SUB DUP3 MLOAD AND DUP2 MSTORE PUSH1 0xA0 PUSH2 0x29C0 PUSH2 0x29AE PUSH2 0x2992 PUSH1 0x20 DUP7 ADD MLOAD PUSH1 0xC0 PUSH1 0x20 DUP8 ADD MSTORE PUSH1 0xC0 DUP7 ADD SWAP1 PUSH2 0x28FF JUMP JUMPDEST PUSH1 0x40 DUP7 ADD MLOAD PUSH1 0x40 DUP7 ADD MSTORE PUSH1 0x60 DUP7 ADD MLOAD DUP6 DUP3 SUB PUSH1 0x60 DUP8 ADD MSTORE PUSH2 0x28FF JUMP JUMPDEST PUSH1 0x80 DUP6 ADD MLOAD DUP5 DUP3 SUB PUSH1 0x80 DUP7 ADD MSTORE PUSH2 0x28FF JUMP JUMPDEST SWAP3 ADD MLOAD SWAP1 PUSH1 0xA0 DUP2 DUP5 SUB SWAP2 ADD MSTORE PUSH2 0x2924 JUMP JUMPDEST SWAP1 JUMP JUMPDEST SWAP1 PUSH1 0x1 DUP3 DUP2 SHR SWAP3 AND DUP1 ISZERO PUSH2 0x2A04 JUMPI JUMPDEST PUSH1 0x20 DUP4 LT EQ PUSH2 0x29EE JUMPI JUMP JUMPDEST PUSH4 0x4E487B71 PUSH1 0xE0 SHL PUSH1 0x0 MSTORE PUSH1 0x22 PUSH1 0x4 MSTORE PUSH1 0x24 PUSH1 0x0 REVERT JUMPDEST SWAP2 PUSH1 0x7F AND SWAP2 PUSH2 0x29E3 JUMP JUMPDEST SWAP1 PUSH1 0x0 SWAP3 SWAP2 DUP1 SLOAD SWAP2 PUSH2 0x2A1F DUP4 PUSH2 0x29D4 JUMP JUMPDEST SWAP2 DUP3 DUP3 MSTORE PUSH1 0x1 SWAP4 DUP5 DUP2 AND SWAP1 DUP2 PUSH1 0x0 EQ PUSH2 0x2A81 JUMPI POP PUSH1 0x1 EQ PUSH2 0x2A41 JUMPI JUMPDEST POP POP POP POP JUMP JUMPDEST SWAP1 SWAP2 SWAP4 SWAP5 POP PUSH1 0x0 MSTORE PUSH1 0x20 SWAP3 DUP4 PUSH1 0x0 KECCAK256 SWAP3 DUP5 PUSH1 0x0 SWAP5 JUMPDEST DUP4 DUP7 LT PUSH2 0x2A6D JUMPI POP POP POP POP ADD ADD SWAP1 CODESIZE DUP1 DUP1 DUP1 PUSH2 0x2A3B JUMP JUMPDEST DUP1 SLOAD DUP6 DUP8 ADD DUP4 ADD MSTORE SWAP5 ADD SWAP4 DUP6 SWAP1 DUP3 ADD PUSH2 0x2A56 JUMP JUMPDEST SWAP3 SWAP5 POP POP POP PUSH1 0x20 SWAP4 SWAP5 POP PUSH1 0xFF NOT AND DUP4 DUP4 ADD MSTORE ISZERO ISZERO PUSH1 0x5 SHL ADD ADD SWAP1 CODESIZE DUP1 DUP1 DUP1 PUSH2 0x2A3B JUMP JUMPDEST PUSH1 0xC0 DUP2 ADD SWAP1 DUP2 LT PUSH1 0x1 PUSH1 0x1 PUSH1 0x40 SHL SUB DUP3 GT OR PUSH2 0x14DC JUMPI PUSH1 0x40 MSTORE JUMP JUMPDEST PUSH1 0x60 DUP2 ADD SWAP1 DUP2 LT PUSH1 0x1 PUSH1 0x1 PUSH1 0x40 SHL SUB DUP3 GT OR PUSH2 0x14DC JUMPI PUSH1 0x40 MSTORE JUMP JUMPDEST PUSH2 0x180 DUP2 ADD SWAP1 DUP2 LT PUSH1 0x1 PUSH1 0x1 PUSH1 0x40 SHL SUB DUP3 GT OR PUSH2 0x14DC JUMPI PUSH1 0x40 MSTORE JUMP JUMPDEST PUSH1 0xA0 DUP2 ADD SWAP1 DUP2 LT PUSH1 0x1 PUSH1 0x1 PUSH1 0x40 SHL SUB DUP3 GT OR PUSH2 0x14DC JUMPI PUSH1 0x40 MSTORE JUMP JUMPDEST PUSH1 0xE0 DUP2 ADD SWAP1 DUP2 LT PUSH1 0x1 PUSH1 0x1 PUSH1 0x40 SHL SUB DUP3 GT OR PUSH2 0x14DC JUMPI PUSH1 0x40 MSTORE JUMP JUMPDEST SWAP1 PUSH1 0x1F DUP1 NOT SWAP2 ADD AND DUP2 ADD SWAP1 DUP2 LT PUSH1 0x1 PUSH1 0x1 PUSH1 0x40 SHL SUB DUP3 GT OR PUSH2 0x14DC JUMPI PUSH1 0x40 MSTORE JUMP JUMPDEST SWAP4 SWAP1 PUSH2 0x29D1 SWAP6 SWAP4 PUSH2 0x2B7A PUSH2 0x2B96 SWAP5 PUSH2 0x2B88 SWAP4 PUSH1 0x1 DUP1 PUSH1 0xA0 SHL SUB AND DUP9 MSTORE PUSH1 0xA0 PUSH1 0x20 DUP10 ADD MSTORE PUSH1 0xA0 DUP9 ADD SWAP1 PUSH2 0x28FF JUMP JUMPDEST SWAP1 DUP7 DUP3 SUB PUSH1 0x40 DUP9 ADD MSTORE PUSH2 0x28FF JUMP JUMPDEST SWAP1 DUP5 DUP3 SUB PUSH1 0x60 DUP7 ADD MSTORE PUSH2 0x28FF JUMP JUMPDEST SWAP2 PUSH1 0x80 DUP2 DUP5 SUB SWAP2 ADD MSTORE PUSH2 0x28FF JUMP JUMPDEST DUP2 PUSH1 0x1F DUP3 ADD SLT ISZERO PUSH2 0x20A JUMPI DUP1 CALLDATALOAD SWAP1 PUSH1 0x1 PUSH1 0x1 PUSH1 0x40 SHL SUB DUP3 GT PUSH2 0x14DC JUMPI PUSH1 0x40 MLOAD SWAP3 PUSH2 0x2BD8 PUSH1 0x1F DUP5 ADD PUSH1 0x1F NOT AND PUSH1 0x20 ADD DUP6 PUSH2 0x2B2C JUMP JUMPDEST DUP3 DUP5 MSTORE PUSH1 0x20 DUP4 DUP4 ADD ADD GT PUSH2 0x20A JUMPI DUP2 PUSH1 0x0 SWAP3 PUSH1 0x20 DUP1 SWAP4 ADD DUP4 DUP7 ADD CALLDATACOPY DUP4 ADD ADD MSTORE SWAP1 JUMP JUMPDEST SWAP1 PUSH2 0x29D1 SWAP2 PUSH1 0x1 DUP1 PUSH1 0xA0 SHL SUB DUP2 MLOAD AND DUP3 MSTORE PUSH2 0x2CD1 PUSH2 0x2CBD PUSH2 0x2CA9 PUSH2 0x2C95 PUSH2 0x2C83 PUSH2 0x2C71 PUSH2 0x2C5F PUSH2 0x2C39 PUSH1 0x20 DUP10 ADD MLOAD PUSH2 0x180 DUP1 PUSH1 0x20 DUP14 ADD MSTORE DUP12 ADD SWAP1 PUSH2 0x28FF JUMP JUMPDEST PUSH1 0x40 DUP10 ADD MLOAD PUSH1 0x40 DUP12 ADD MSTORE PUSH1 0x60 DUP10 ADD MLOAD PUSH1 0x60 DUP12 ADD MSTORE PUSH1 0x80 DUP10 ADD MLOAD DUP11 DUP3 SUB PUSH1 0x80 DUP13 ADD MSTORE PUSH2 0x28FF JUMP JUMPDEST PUSH1 0xA0 DUP9 ADD MLOAD DUP10 DUP3 SUB PUSH1 0xA0 DUP12 ADD MSTORE PUSH2 0x28FF JUMP JUMPDEST PUSH1 0xC0 DUP8 ADD MLOAD DUP9 DUP3 SUB PUSH1 0xC0 DUP11 ADD MSTORE PUSH2 0x28FF JUMP JUMPDEST PUSH1 0xE0 DUP7 ADD MLOAD DUP8 DUP3 SUB PUSH1 0xE0 DUP10 ADD MSTORE PUSH2 0x28FF JUMP JUMPDEST PUSH2 0x100 DUP1 DUP7 ADD MLOAD SWAP1 DUP8 DUP4 SUB SWAP1 DUP9 ADD MSTORE PUSH2 0x28FF JUMP JUMPDEST PUSH2 0x120 DUP1 DUP6 ADD MLOAD SWAP1 DUP7 DUP4 SUB SWAP1 DUP8 ADD MSTORE PUSH2 0x28FF JUMP JUMPDEST PUSH2 0x140 DUP1 DUP5 ADD MLOAD SWAP1 DUP6 DUP4 SUB SWAP1 DUP7 ADD MSTORE PUSH2 0x28FF JUMP JUMPDEST SWAP2 PUSH2 0x160 DUP1 SWAP3 ADD MLOAD SWAP2 DUP2 DUP5 SUB SWAP2 ADD MSTORE PUSH2 0x28FF JUMP JUMPDEST PUSH2 0x29D1 SWAP2 PUSH1 0x80 PUSH2 0x2D28 PUSH2 0x2D16 PUSH2 0x2D04 DUP6 MLOAD PUSH1 0xA0 DUP7 MSTORE PUSH1 0xA0 DUP7 ADD SWAP1 PUSH2 0x2BFA JUMP JUMPDEST PUSH1 0x20 DUP7 ADD MLOAD DUP6 DUP3 SUB PUSH1 0x20 DUP8 ADD MSTORE PUSH2 0x28FF JUMP JUMPDEST PUSH1 0x40 DUP6 ADD MLOAD DUP5 DUP3 SUB PUSH1 0x40 DUP7 ADD MSTORE PUSH2 0x28FF JUMP JUMPDEST SWAP3 PUSH1 0x60 DUP2 ADD MLOAD PUSH1 0x60 DUP5 ADD MSTORE ADD MLOAD SWAP1 PUSH1 0x80 DUP2 DUP5 SUB SWAP2 ADD MSTORE PUSH2 0x2924 JUMP JUMPDEST SWAP1 DUP1 DUP3 MLOAD SWAP1 DUP2 DUP2 MSTORE PUSH1 0x20 DUP1 SWAP2 ADD SWAP3 DUP2 DUP1 DUP5 PUSH1 0x5 SHL DUP4 ADD ADD SWAP6 ADD SWAP4 PUSH1 0x0 SWAP2 JUMPDEST DUP5 DUP4 LT PUSH2 0x2D71 JUMPI POP POP POP POP POP POP SWAP1 JUMP JUMPDEST SWAP1 SWAP2 SWAP3 SWAP4 SWAP5 SWAP6 DUP5 DUP1 PUSH2 0x2D8F PUSH1 0x1 SWAP4 PUSH1 0x1F NOT DUP7 DUP3 SUB ADD DUP8 MSTORE DUP11 MLOAD PUSH2 0x2CE5 JUMP JUMPDEST SWAP9 ADD SWAP4 ADD SWAP4 ADD SWAP2 SWAP5 SWAP4 SWAP3 SWAP1 PUSH2 0x2D61 JUMP JUMPDEST SWAP1 PUSH1 0x40 DUP1 PUSH2 0x2DCB PUSH2 0x2DB9 DUP6 MLOAD PUSH1 0x60 DUP7 MSTORE PUSH1 0x60 DUP7 ADD SWAP1 PUSH2 0x2BFA JUMP JUMPDEST PUSH1 0x20 DUP7 ADD MLOAD DUP6 DUP3 SUB PUSH1 0x20 DUP8 ADD MSTORE PUSH2 0x2924 JUMP JUMPDEST SWAP4 ADD MLOAD SWAP2 ADD MSTORE SWAP1 JUMP JUMPDEST SWAP4 SWAP1 PUSH2 0x29D1 SWAP6 SWAP4 PUSH2 0x2B7A PUSH2 0x2B96 SWAP5 PUSH2 0x2DF7 PUSH2 0x2B88 SWAP5 PUSH1 0xA0 DUP11 MSTORE PUSH1 0xA0 DUP11 ADD SWAP1 PUSH2 0x28FF JUMP JUMPDEST SWAP1 DUP9 DUP3 SUB PUSH1 0x20 DUP11 ADD MSTORE PUSH2 0x28FF JUMP JUMPDEST SWAP4 PUSH2 0x2E2E PUSH2 0x2B96 SWAP4 PUSH2 0x29D1 SWAP8 SWAP6 SWAP4 PUSH1 0x1 DUP1 PUSH1 0xA0 SHL SUB AND DUP8 MSTORE PUSH1 0xA0 PUSH1 0x20 DUP9 ADD MSTORE PUSH1 0xA0 DUP8 ADD SWAP1 PUSH2 0x28FF JUMP JUMPDEST SWAP2 PUSH1 0x40 DUP7 ADD MSTORE DUP5 DUP3 SUB PUSH1 0x60 DUP7 ADD MSTORE PUSH2 0x28FF JUMP JUMPDEST PUSH1 0xA SLOAD DUP2 LT ISZERO PUSH2 0x1CD8 JUMPI PUSH1 0xE SWAP1 PUSH1 0xA PUSH1 0x0 MSTORE MUL PUSH32 0xC65A7BB8D6351C1CF70C95A316CC6A92839C986682D98BC35F958F4883F9D2A8 ADD SWAP1 PUSH1 0x0 SWAP1 JUMP JUMPDEST SWAP1 PUSH1 0xB PUSH2 0x160 PUSH1 0x40 SWAP4 PUSH2 0x2F86 DUP6 MLOAD SWAP2 PUSH2 0x2E94 DUP4 PUSH2 0x2ADA JUMP JUMPDEST PUSH2 0x706 DUP4 SWAP8 PUSH1 0x1 DUP1 PUSH1 0xA0 SHL SUB DUP4 SLOAD AND DUP6 MSTORE DUP1 MLOAD PUSH2 0x2EB8 DUP2 PUSH2 0x288 DUP2 PUSH1 0x1 DUP9 ADD PUSH2 0x2A0E JUMP JUMPDEST PUSH1 0x20 DUP7 ADD MSTORE PUSH1 0x2 DUP4 ADD SLOAD DUP2 DUP7 ADD MSTORE PUSH1 0x3 DUP4 ADD SLOAD PUSH1 0x60 DUP7 ADD MSTORE DUP1 MLOAD PUSH2 0x2EE3 DUP2 PUSH2 0x288 DUP2 PUSH1 0x4 DUP9 ADD PUSH2 0x2A0E JUMP JUMPDEST PUSH1 0x80 DUP7 ADD MSTORE DUP1 MLOAD PUSH2 0x2EFB DUP2 PUSH2 0x288 DUP2 PUSH1 0x5 DUP9 ADD PUSH2 0x2A0E JUMP JUMPDEST PUSH1 0xA0 DUP7 ADD MSTORE DUP1 MLOAD PUSH2 0x2F13 DUP2 PUSH2 0x288 DUP2 PUSH1 0x6 DUP9 ADD PUSH2 0x2A0E JUMP JUMPDEST PUSH1 0xC0 DUP7 ADD MSTORE DUP1 MLOAD PUSH2 0x2F2B DUP2 PUSH2 0x288 DUP2 PUSH1 0x7 DUP9 ADD PUSH2 0x2A0E JUMP JUMPDEST PUSH1 0xE0 DUP7 ADD MSTORE DUP1 MLOAD PUSH2 0x2F43 DUP2 PUSH2 0x288 DUP2 PUSH1 0x8 DUP9 ADD PUSH2 0x2A0E JUMP JUMPDEST PUSH2 0x100 DUP7 ADD MSTORE DUP1 MLOAD PUSH2 0x2F5C DUP2 PUSH2 0x288 DUP2 PUSH1 0x9 DUP9 ADD PUSH2 0x2A0E JUMP JUMPDEST PUSH2 0x120 DUP7 ADD MSTORE DUP1 MLOAD PUSH2 0x2F75 DUP2 PUSH2 0x288 DUP2 PUSH1 0xA DUP9 ADD PUSH2 0x2A0E JUMP JUMPDEST PUSH2 0x140 DUP7 ADD MSTORE MLOAD DUP1 SWAP7 DUP2 SWAP4 ADD PUSH2 0x2A0E JUMP JUMPDEST ADD MSTORE JUMP JUMPDEST PUSH1 0x14 SLOAD DUP2 LT ISZERO PUSH2 0x1CD8 JUMPI PUSH1 0x6 SWAP1 PUSH1 0x14 PUSH1 0x0 MSTORE MUL PUSH32 0xCE6D7B5282BD9A3661AE061FEED1DBDA4E52AB073B1F9285BE6E155D9C38D4EC ADD SWAP1 PUSH1 0x0 SWAP1 JUMP JUMPDEST PUSH1 0x1 PUSH1 0x1 PUSH1 0x40 SHL SUB DUP2 GT PUSH2 0x14DC JUMPI PUSH1 0x5 SHL PUSH1 0x20 ADD SWAP1 JUMP JUMPDEST PUSH2 0x2FEF DUP2 MLOAD PUSH1 0xE0 DUP5 MSTORE PUSH1 0xE0 DUP5 ADD SWAP1 PUSH2 0x28FF JUMP JUMPDEST PUSH1 0xC0 PUSH2 0x305B PUSH2 0x3049 PUSH2 0x3037 PUSH2 0x3025 PUSH2 0x3013 PUSH1 0x20 SWAP7 DUP8 DUP10 ADD MLOAD DUP11 DUP3 SUB DUP10 DUP13 ADD MSTORE PUSH2 0x28FF JUMP JUMPDEST PUSH1 0x40 DUP9 ADD MLOAD DUP10 DUP3 SUB PUSH1 0x40 DUP12 ADD MSTORE PUSH2 0x28FF JUMP JUMPDEST PUSH1 0x60 DUP8 ADD MLOAD DUP9 DUP3 SUB PUSH1 0x60 DUP11 ADD MSTORE PUSH2 0x28FF JUMP JUMPDEST PUSH1 0x80 DUP7 ADD MLOAD DUP8 DUP3 SUB PUSH1 0x80 DUP10 ADD MSTORE PUSH2 0x28FF JUMP JUMPDEST PUSH1 0xA0 DUP6 ADD MLOAD DUP7 DUP3 SUB PUSH1 0xA0 DUP9 ADD MSTORE PUSH2 0x2D43 JUMP JUMPDEST SWAP3 ADD MLOAD SWAP3 PUSH1 0xC0 DUP2 DUP5 SUB SWAP2 ADD MSTORE DUP3 MLOAD SWAP1 DUP2 DUP4 MSTORE DUP1 DUP4 ADD SWAP3 DUP2 DUP1 DUP5 PUSH1 0x5 SHL DUP4 ADD ADD SWAP6 ADD SWAP4 PUSH1 0x0 SWAP2 JUMPDEST DUP5 DUP4 LT PUSH2 0x3091 JUMPI POP POP POP POP POP POP SWAP1 JUMP JUMPDEST SWAP1 SWAP2 SWAP3 SWAP4 SWAP5 SWAP6 DUP5 DUP1 PUSH2 0x30AF PUSH1 0x1 SWAP4 PUSH1 0x1F NOT DUP7 DUP3 SUB ADD DUP8 MSTORE DUP11 MLOAD PUSH2 0x28FF JUMP JUMPDEST SWAP9 ADD SWAP4 ADD SWAP4 ADD SWAP2 SWAP5 SWAP4 SWAP3 SWAP1 PUSH2 0x3081 JUMP JUMPDEST SWAP5 SWAP4 SWAP3 PUSH2 0x2B7A PUSH1 0x60 SWAP4 PUSH2 0x2DF7 PUSH2 0x30DD SWAP5 PUSH1 0x80 DUP11 MSTORE PUSH1 0x80 DUP11 ADD SWAP1 PUSH2 0x2BFA JUMP JUMPDEST SWAP4 ADD MSTORE JUMP JUMPDEST PUSH1 0x6 SLOAD DUP2 LT ISZERO PUSH2 0x1CD8 JUMPI PUSH1 0x6 PUSH1 0x0 MSTORE PUSH1 0x4 SHL PUSH32 0xF652222313E28459528D920B65115C16C04F3EFC82AAEDC97BE59F3F377C0D3F ADD SWAP1 PUSH1 0x0 SWAP1 JUMP JUMPDEST DUP1 SLOAD DUP3 LT ISZERO PUSH2 0x1CD8 JUMPI PUSH1 0x0 MSTORE PUSH1 0x20 PUSH1 0x0 KECCAK256 SWAP1 PUSH1 0x4 SHL ADD SWAP1 PUSH1 0x0 SWAP1 JUMP JUMPDEST PUSH1 0x13 SLOAD DUP2 LT ISZERO PUSH2 0x1CD8 JUMPI PUSH1 0x7 SWAP1 PUSH1 0x13 PUSH1 0x0 MSTORE MUL PUSH32 0x66DE8FFDA797E3DE9C05E8FC57B3BF0EC28A930D40B0D285D93C06501CF6A090 ADD SWAP1 PUSH1 0x0 SWAP1 JUMP JUMPDEST DUP1 SLOAD SWAP1 PUSH1 0x1 PUSH1 0x40 SHL DUP3 LT ISZERO PUSH2 0x14DC JUMPI PUSH1 0x1 DUP3 ADD DUP1 DUP3 SSTORE DUP3 LT ISZERO PUSH2 0x1CD8 JUMPI PUSH1 0x0 MSTORE PUSH1 0x20 PUSH1 0x0 KECCAK256 ADD SWAP1 PUSH1 0x1 DUP1 PUSH1 0xA0 SHL SUB AND PUSH1 0x1 PUSH1 0x1 PUSH1 0x60 SHL SUB PUSH1 0xA0 SHL DUP3 SLOAD AND OR SWAP1 SSTORE JUMP JUMPDEST PUSH1 0x0 NOT DUP2 EQ PUSH2 0x1CC2 JUMPI PUSH1 0x1 ADD SWAP1 JUMP JUMPDEST SWAP1 DUP2 SLOAD DUP1 DUP3 MSTORE PUSH1 0x20 DUP1 SWAP3 ADD SWAP3 PUSH1 0x0 MSTORE DUP2 PUSH1 0x0 KECCAK256 SWAP2 PUSH1 0x0 SWAP1 JUMPDEST DUP3 DUP3 LT PUSH2 0x31EA JUMPI POP POP POP POP SWAP1 JUMP JUMPDEST DUP4 SLOAD PUSH1 0x1 PUSH1 0x1 PUSH1 0xA0 SHL SUB AND DUP6 MSTORE SWAP4 DUP5 ADD SWAP4 PUSH1 0x1 SWAP4 DUP5 ADD SWAP4 SWAP1 SWAP2 ADD SWAP1 PUSH2 0x31DC JUMP JUMPDEST SWAP1 PUSH1 0xF PUSH1 0x80 PUSH1 0x40 MLOAD PUSH2 0x321B DUP2 PUSH2 0x2AF6 JUMP JUMPDEST PUSH2 0x2F86 DUP2 SWAP6 PUSH2 0x3229 DUP2 PUSH2 0x2E7C JUMP JUMPDEST DUP4 MSTORE PUSH1 0x40 MLOAD PUSH2 0x323F DUP2 PUSH2 0x288 DUP2 PUSH1 0xC DUP7 ADD PUSH2 0x2A0E JUMP JUMPDEST PUSH1 0x20 DUP5 ADD MSTORE PUSH1 0x40 MLOAD PUSH2 0x3258 DUP2 PUSH2 0x288 DUP2 PUSH1 0xD DUP7 ADD PUSH2 0x2A0E JUMP JUMPDEST PUSH1 0x40 DUP5 ADD MSTORE PUSH1 0xE DUP2 ADD SLOAD PUSH1 0x60 DUP5 ADD MSTORE PUSH2 0x706 PUSH1 0x40 MLOAD DUP1 SWAP7 DUP2 SWAP4 ADD PUSH2 0x31C4 JUMP JUMPDEST ISZERO PUSH2 0x327E JUMPI JUMP JUMPDEST PUSH1 0x40 MLOAD PUSH3 0x461BCD PUSH1 0xE5 SHL DUP2 MSTORE PUSH1 0x20 PUSH1 0x4 DUP3 ADD MSTORE PUSH1 0x26 PUSH1 0x24 DUP3 ADD MSTORE PUSH32 0x4F6E6C792061646D696E2063616E20696E766F6B6520746869732066756E6374 PUSH1 0x44 DUP3 ADD MSTORE PUSH6 0x696F6E732021 PUSH1 0xD0 SHL PUSH1 0x64 DUP3 ADD MSTORE PUSH1 0x84 SWAP1 REVERT JUMPDEST DUP2 DUP2 LT PUSH2 0x32DD JUMPI POP POP JUMP JUMPDEST PUSH1 0x0 DUP2 SSTORE PUSH1 0x1 ADD PUSH2 0x32D2 JUMP JUMPDEST SWAP2 SWAP1 PUSH1 0x1F DUP2 GT PUSH2 0x32F8 JUMPI POP POP POP JUMP JUMPDEST PUSH2 0x3324 SWAP3 PUSH1 0x0 MSTORE PUSH1 0x20 PUSH1 0x0 KECCAK256 SWAP1 PUSH1 0x20 PUSH1 0x1F DUP5 ADD PUSH1 0x5 SHR DUP4 ADD SWAP4 LT PUSH2 0x3326 JUMPI JUMPDEST PUSH1 0x1F ADD PUSH1 0x5 SHR ADD SWAP1 PUSH2 0x32D2 JUMP JUMPDEST JUMP JUMPDEST SWAP1 SWAP2 POP DUP2 SWAP1 PUSH2 0x3317 JUMP JUMPDEST SWAP2 SWAP1 SWAP2 DUP3 MLOAD PUSH1 0x1 PUSH1 0x1 PUSH1 0x40 SHL SUB DUP2 GT PUSH2 0x14DC JUMPI PUSH2 0x3357 DUP2 PUSH2 0x3351 DUP5 SLOAD PUSH2 0x29D4 JUMP JUMPDEST DUP5 PUSH2 0x32E9 JUMP JUMPDEST PUSH1 0x20 DUP1 PUSH1 0x1F DUP4 GT PUSH1 0x1 EQ PUSH2 0x3393 JUMPI POP DUP2 SWAP3 SWAP4 SWAP5 PUSH1 0x0 SWAP3 PUSH2 0x3388 JUMPI JUMPDEST POP POP DUP2 PUSH1 0x1 SHL SWAP2 PUSH1 0x0 NOT SWAP1 PUSH1 0x3 SHL SHR NOT AND OR SWAP1 SSTORE JUMP JUMPDEST ADD MLOAD SWAP1 POP CODESIZE DUP1 PUSH2 0x3372 JUMP JUMPDEST SWAP1 PUSH1 0x1F NOT DUP4 AND SWAP6 DUP5 PUSH1 0x0 MSTORE DUP3 PUSH1 0x0 KECCAK256 SWAP3 PUSH1 0x0 SWAP1 JUMPDEST DUP9 DUP3 LT PUSH2 0x33DF JUMPI POP POP DUP4 PUSH1 0x1 SWAP6 SWAP7 SWAP8 LT PUSH2 0x33C6 JUMPI JUMPDEST POP POP POP DUP2 SHL ADD SWAP1 SSTORE JUMP JUMPDEST ADD MLOAD PUSH1 0x0 NOT PUSH1 0xF8 DUP5 PUSH1 0x3 SHL AND SHR NOT AND SWAP1 SSTORE CODESIZE DUP1 DUP1 PUSH2 0x33BC JUMP JUMPDEST DUP1 PUSH1 0x1 DUP6 SWAP7 DUP3 SWAP5 SWAP7 DUP7 ADD MLOAD DUP2 SSTORE ADD SWAP6 ADD SWAP4 ADD SWAP1 PUSH2 0x33A7 JUMP JUMPDEST SWAP1 PUSH1 0x1 PUSH1 0x40 SHL DUP2 GT PUSH2 0x14DC JUMPI DUP2 SLOAD SWAP1 DUP1 DUP4 SSTORE DUP2 DUP2 LT PUSH2 0x3415 JUMPI POP POP POP JUMP JUMPDEST PUSH2 0x3324 SWAP3 PUSH1 0x0 MSTORE PUSH1 0x20 PUSH1 0x0 KECCAK256 SWAP2 DUP3 ADD SWAP2 ADD PUSH2 0x32D2 JUMP JUMPDEST SWAP1 PUSH1 0x1 DUP1 PUSH1 0xA0 SHL SUB SWAP1 DUP2 DUP2 MLOAD AND PUSH1 0x1 PUSH1 0x1 PUSH1 0x60 SHL SUB PUSH1 0xA0 SHL DUP5 SLOAD AND OR DUP4 SSTORE PUSH1 0x20 SWAP2 PUSH1 0xA0 PUSH1 0x5 DUP5 DUP5 ADD MLOAD SWAP6 PUSH2 0x3463 PUSH1 0x1 SWAP8 DUP9 DUP4 ADD PUSH2 0x3330 JUMP JUMPDEST PUSH1 0x40 DUP6 ADD MLOAD PUSH1 0x2 DUP3 ADD SSTORE PUSH2 0x347E PUSH1 0x60 DUP7 ADD MLOAD PUSH1 0x3 DUP4 ADD PUSH2 0x3330 JUMP JUMPDEST PUSH2 0x348F PUSH1 0x80 DUP7 ADD MLOAD PUSH1 0x4 DUP4 ADD PUSH2 0x3330 JUMP JUMPDEST ADD SWAP3 ADD MLOAD SWAP3 DUP4 MLOAD SWAP4 PUSH1 0x1 PUSH1 0x1 PUSH1 0x40 SHL SUB DUP6 GT PUSH2 0x14DC JUMPI DUP2 SWAP1 PUSH2 0x34B1 DUP7 DUP7 PUSH2 0x33F7 JUMP JUMPDEST ADD SWAP3 PUSH1 0x0 MSTORE DUP1 PUSH1 0x0 KECCAK256 SWAP2 PUSH1 0x0 JUMPDEST DUP6 DUP2 LT PUSH2 0x34CE JUMPI POP POP POP POP POP POP POP JUMP JUMPDEST DUP5 MLOAD DUP3 AND DUP5 DUP3 ADD SSTORE SWAP4 DUP3 ADD SWAP4 DUP7 ADD PUSH2 0x34BE JUMP JUMPDEST PUSH2 0x34EB DUP2 SLOAD PUSH2 0x29D4 JUMP JUMPDEST SWAP1 DUP2 PUSH2 0x34F5 JUMPI POP POP JUMP JUMPDEST DUP2 PUSH1 0x1F PUSH1 0x0 SWAP4 GT PUSH1 0x1 EQ PUSH2 0x3507 JUMPI POP SSTORE JUMP JUMPDEST DUP2 DUP4 MSTORE PUSH1 0x20 DUP4 KECCAK256 PUSH2 0x3523 SWAP2 PUSH1 0x1F ADD PUSH1 0x5 SHR DUP2 ADD SWAP1 PUSH1 0x1 ADD PUSH2 0x32D2 JUMP JUMPDEST DUP2 PUSH1 0x20 DUP2 KECCAK256 SWAP2 SSTORE SSTORE JUMP JUMPDEST DUP2 MLOAD SWAP2 PUSH1 0x1 DUP1 PUSH1 0xA0 SHL SUB DUP1 DUP5 MLOAD AND PUSH1 0x1 PUSH1 0x1 PUSH1 0x60 SHL SUB PUSH1 0xA0 SHL DUP5 SLOAD AND OR DUP4 SSTORE PUSH1 0x80 PUSH1 0xF PUSH1 0x20 SWAP5 PUSH2 0x3604 PUSH2 0x160 DUP8 DUP10 ADD MLOAD SWAP9 PUSH2 0x356C PUSH1 0x1 SWAP11 DUP12 DUP7 ADD PUSH2 0x3330 JUMP JUMPDEST PUSH1 0x40 DUP2 ADD MLOAD PUSH1 0x2 DUP6 ADD SSTORE PUSH1 0x60 DUP2 ADD MLOAD PUSH1 0x3 DUP6 ADD SSTORE PUSH2 0x3590 DUP7 DUP3 ADD MLOAD PUSH1 0x4 DUP7 ADD PUSH2 0x3330 JUMP JUMPDEST PUSH2 0x35A1 PUSH1 0xA0 DUP3 ADD MLOAD PUSH1 0x5 DUP7 ADD PUSH2 0x3330 JUMP JUMPDEST PUSH2 0x35B2 PUSH1 0xC0 DUP3 ADD MLOAD PUSH1 0x6 DUP7 ADD PUSH2 0x3330 JUMP JUMPDEST PUSH2 0x35C3 PUSH1 0xE0 DUP3 ADD MLOAD PUSH1 0x7 DUP7 ADD PUSH2 0x3330 JUMP JUMPDEST PUSH2 0x35D5 PUSH2 0x100 DUP3 ADD MLOAD PUSH1 0x8 DUP7 ADD PUSH2 0x3330 JUMP JUMPDEST PUSH2 0x35E7 PUSH2 0x120 DUP3 ADD MLOAD PUSH1 0x9 DUP7 ADD PUSH2 0x3330 JUMP JUMPDEST PUSH2 0x35F9 PUSH2 0x140 DUP3 ADD MLOAD PUSH1 0xA DUP7 ADD PUSH2 0x3330 JUMP JUMPDEST ADD MLOAD PUSH1 0xB DUP4 ADD PUSH2 0x3330 JUMP JUMPDEST PUSH2 0x3614 DUP7 DUP7 ADD MLOAD PUSH1 0xC DUP4 ADD PUSH2 0x3330 JUMP JUMPDEST PUSH2 0x3625 PUSH1 0x40 DUP7 ADD MLOAD PUSH1 0xD DUP4 ADD PUSH2 0x3330 JUMP JUMPDEST PUSH1 0x60 DUP6 ADD MLOAD PUSH1 0xE DUP3 ADD SSTORE ADD SWAP3 ADD MLOAD SWAP3 DUP4 MLOAD SWAP4 PUSH1 0x1 PUSH1 0x1 PUSH1 0x40 SHL SUB DUP6 GT PUSH2 0x14DC JUMPI DUP2 SWAP1 PUSH2 0x3651 DUP7 DUP7 PUSH2 0x33F7 JUMP JUMPDEST ADD SWAP3 PUSH1 0x0 MSTORE DUP1 PUSH1 0x0 KECCAK256 SWAP2 PUSH1 0x0 JUMPDEST DUP6 DUP2 LT PUSH2 0x366E JUMPI POP POP POP POP POP POP POP JUMP JUMPDEST DUP5 MLOAD DUP3 AND DUP5 DUP3 ADD SSTORE SWAP4 DUP3 ADD SWAP4 DUP7 ADD PUSH2 0x365E JUMP JUMPDEST SWAP2 SWAP1 PUSH2 0x368E DUP2 MLOAD DUP5 PUSH2 0x3330 JUMP JUMPDEST PUSH1 0x20 SWAP3 DUP4 DUP3 ADD MLOAD SWAP4 PUSH2 0x36A4 PUSH1 0x1 SWAP6 DUP7 DUP5 ADD PUSH2 0x3330 JUMP JUMPDEST PUSH1 0x40 DUP4 ADD MLOAD SWAP3 PUSH2 0x36B8 PUSH1 0x2 SWAP5 DUP6 DUP6 ADD PUSH2 0x3330 JUMP JUMPDEST PUSH1 0x60 DUP2 ADD MLOAD SWAP3 PUSH2 0x36CC PUSH1 0x3 SWAP5 DUP6 DUP4 ADD PUSH2 0x3330 JUMP JUMPDEST PUSH1 0x80 DUP3 ADD MLOAD SWAP1 PUSH2 0x36E0 PUSH1 0x4 SWAP3 DUP4 DUP4 ADD PUSH2 0x3330 JUMP JUMPDEST PUSH1 0x5 SWAP6 DUP7 DUP3 ADD SWAP6 PUSH1 0xA0 DUP6 ADD MLOAD SWAP1 DUP2 MLOAD SWAP3 PUSH1 0x1 PUSH1 0x40 SHL SWAP10 DUP11 DUP6 GT PUSH2 0x393E JUMPI SWAP1 DUP9 SWAP4 SWAP3 SWAP2 DUP11 SLOAD SWAP3 DUP7 DUP13 SSTORE DUP4 DUP8 LT PUSH2 0x37ED JUMPI JUMPDEST POP POP POP POP ADD PUSH1 0x0 SWAP7 DUP8 MSTORE DUP6 DUP8 KECCAK256 DUP11 DUP8 DUP10 SWAP4 JUMPDEST DUP6 DUP6 LT PUSH2 0x37CF JUMPI POP POP POP POP POP POP PUSH1 0x6 PUSH1 0xC0 SWAP2 ADD SWAP3 ADD MLOAD SWAP1 DUP2 MLOAD SWAP6 DUP7 GT PUSH2 0x37BC JUMPI POP DUP3 SWAP1 DUP3 SLOAD DUP7 DUP5 SSTORE DUP1 DUP8 LT PUSH2 0x3787 JUMPI JUMPDEST POP SWAP2 DUP5 MSTORE DUP3 DUP5 KECCAK256 SWAP2 ADD JUMPDEST DUP5 DUP5 LT PUSH2 0x376C JUMPI POP POP POP POP POP SWAP1 POP JUMP JUMPDEST DUP7 DUP4 DUP3 PUSH2 0x377B DUP4 SWAP5 MLOAD DUP7 PUSH2 0x3330 JUMP JUMPDEST ADD SWAP3 ADD SWAP4 ADD SWAP3 SWAP1 PUSH2 0x375C JUMP JUMPDEST DUP4 DUP7 MSTORE DUP9 DUP8 DUP5 DUP9 KECCAK256 SWAP3 DUP4 ADD SWAP3 ADD JUMPDEST DUP3 DUP2 LT PUSH2 0x37A3 JUMPI POP POP PUSH2 0x3752 JUMP JUMPDEST SWAP1 SWAP2 SWAP3 SWAP4 POP PUSH2 0x37B1 DUP2 PUSH2 0x34E1 JUMP JUMPDEST ADD SWAP1 DUP9 DUP6 SWAP4 SWAP3 PUSH2 0x3795 JUMP JUMPDEST PUSH4 0x4E487B71 PUSH1 0xE0 SHL DUP6 MSTORE PUSH1 0x41 SWAP1 MSTORE PUSH1 0x24 DUP5 REVERT JUMPDEST SWAP1 DUP2 PUSH2 0x37DE PUSH1 0x10 SWAP4 MLOAD DUP7 PUSH2 0x352D JUMP JUMPDEST ADD SWAP3 ADD SWAP3 ADD SWAP2 SWAP1 DUP8 DUP13 SWAP2 PUSH2 0x3722 JUMP JUMPDEST SWAP4 SWAP5 POP SWAP2 SWAP3 SWAP1 SWAP2 SWAP1 PUSH1 0x1 PUSH1 0x1 PUSH1 0xFC SHL SUB DUP1 DUP6 AND DUP6 SUB PUSH2 0x3929 JUMPI DUP7 AND DUP7 SUB PUSH2 0x3914 JUMPI SWAP1 DUP14 SWAP2 DUP11 SWAP6 SWAP5 SWAP4 PUSH1 0x0 SWAP4 DUP14 DUP6 MSTORE DUP8 DUP6 KECCAK256 SWAP6 DUP12 SHL DUP7 ADD SWAP6 DUP10 DUP13 SHL ADD SWAP1 JUMPDEST DUP7 DUP3 LT PUSH2 0x3839 JUMPI POP POP POP PUSH2 0x3710 JUMP JUMPDEST DUP6 SWAP7 SWAP8 SWAP9 POP PUSH2 0x3851 SWAP1 PUSH1 0x10 SWAP4 SWAP5 SWAP6 SWAP7 DUP4 SSTORE DUP3 ADD PUSH2 0x34E1 JUMP JUMPDEST DUP6 DUP4 DUP3 ADD SSTORE DUP6 DUP5 DUP3 ADD SSTORE PUSH2 0x3866 DUP12 DUP3 ADD PUSH2 0x34E1 JUMP JUMPDEST PUSH2 0x3871 DUP6 DUP3 ADD PUSH2 0x34E1 JUMP JUMPDEST PUSH2 0x387D PUSH1 0x6 DUP3 ADD PUSH2 0x34E1 JUMP JUMPDEST PUSH2 0x3889 PUSH1 0x7 DUP3 ADD PUSH2 0x34E1 JUMP JUMPDEST PUSH2 0x3895 PUSH1 0x8 DUP3 ADD PUSH2 0x34E1 JUMP JUMPDEST PUSH2 0x38A1 PUSH1 0x9 DUP3 ADD PUSH2 0x34E1 JUMP JUMPDEST PUSH2 0x38AD PUSH1 0xA DUP3 ADD PUSH2 0x34E1 JUMP JUMPDEST PUSH2 0x38B9 PUSH1 0xB DUP3 ADD PUSH2 0x34E1 JUMP JUMPDEST PUSH2 0x38C5 PUSH1 0xC DUP3 ADD PUSH2 0x34E1 JUMP JUMPDEST PUSH2 0x38D1 PUSH1 0xD DUP3 ADD PUSH2 0x34E1 JUMP JUMPDEST DUP6 PUSH1 0xE DUP3 ADD SSTORE PUSH1 0xF DUP2 ADD DUP14 DUP2 SLOAD SWAP1 DUP9 DUP4 SSTORE DUP2 PUSH2 0x38FB JUMPI JUMPDEST POP POP POP ADD SWAP1 DUP16 SWAP2 DUP13 SWAP8 SWAP7 SWAP6 SWAP5 SWAP4 SWAP3 PUSH2 0x382A JUMP JUMPDEST PUSH2 0x390C SWAP3 DUP10 MSTORE DUP9 KECCAK256 SWAP1 DUP2 ADD SWAP1 PUSH2 0x32D2 JUMP JUMPDEST CODESIZE DUP1 DUP15 PUSH2 0x38E8 JUMP JUMPDEST PUSH1 0x11 DUP9 PUSH4 0x4E487B71 PUSH1 0xE0 SHL PUSH1 0x0 MSTORE MSTORE PUSH1 0x24 PUSH1 0x0 REVERT JUMPDEST PUSH1 0x11 DUP10 PUSH4 0x4E487B71 PUSH1 0xE0 SHL PUSH1 0x0 MSTORE MSTORE PUSH1 0x24 PUSH1 0x0 REVERT JUMPDEST PUSH1 0x41 DUP8 PUSH4 0x4E487B71 PUSH1 0xE0 SHL PUSH1 0x0 MSTORE MSTORE PUSH1 0x24 PUSH1 0x0 REVERT JUMPDEST DUP1 MLOAD DUP3 LT ISZERO PUSH2 0x1CD8 JUMPI PUSH1 0x20 SWAP2 PUSH1 0x5 SHL ADD ADD SWAP1 JUMP JUMPDEST SWAP1 DUP1 DUP3 EQ PUSH2 0x3A3F JUMPI PUSH2 0x3979 DUP2 SLOAD PUSH2 0x29D4 JUMP JUMPDEST SWAP1 PUSH1 0x1 PUSH1 0x1 PUSH1 0x40 SHL SUB DUP3 GT PUSH2 0x14DC JUMPI DUP2 SWAP1 PUSH2 0x399E DUP3 PUSH2 0x3998 DUP7 SLOAD PUSH2 0x29D4 JUMP JUMPDEST DUP7 PUSH2 0x32E9 JUMP JUMPDEST PUSH1 0x0 SWAP1 PUSH1 0x1F DUP4 GT PUSH1 0x1 EQ PUSH2 0x39D4 JUMPI PUSH1 0x0 SWAP3 PUSH2 0x39C9 JUMPI POP POP DUP2 PUSH1 0x1 SHL SWAP2 PUSH1 0x0 NOT SWAP1 PUSH1 0x3 SHL SHR NOT AND OR SWAP1 SSTORE JUMP JUMPDEST ADD SLOAD SWAP1 POP CODESIZE DUP1 PUSH2 0x3372 JUMP JUMPDEST DUP2 MSTORE PUSH1 0x20 DUP1 DUP3 KECCAK256 DUP6 DUP4 MSTORE DUP2 DUP4 KECCAK256 SWAP4 POP SWAP1 PUSH1 0x1F NOT DUP6 AND SWAP1 DUP4 SWAP1 JUMPDEST DUP3 DUP3 LT PUSH2 0x3A26 JUMPI POP POP SWAP1 DUP5 PUSH1 0x1 SWAP6 SWAP5 SWAP4 SWAP3 LT PUSH2 0x3A0D JUMPI POP POP POP DUP2 SHL ADD SWAP1 SSTORE JUMP JUMPDEST ADD SLOAD PUSH1 0x0 NOT PUSH1 0xF8 DUP5 PUSH1 0x3 SHL AND SHR NOT AND SWAP1 SSTORE CODESIZE DUP1 DUP1 PUSH2 0x33BC JUMP JUMPDEST DUP5 SWAP6 DUP2 SWAP3 SWAP6 DUP6 ADD SLOAD DUP2 SSTORE PUSH1 0x1 DUP1 SWAP2 ADD SWAP7 ADD SWAP5 ADD SWAP1 PUSH2 0x39ED JUMP JUMPDEST POP POP JUMP JUMPDEST DUP2 DUP2 EQ PUSH2 0x3A3F JUMPI DUP2 SLOAD SWAP2 PUSH1 0x1 PUSH1 0x1 PUSH1 0x40 SHL SUB DUP4 GT PUSH2 0x14DC JUMPI PUSH2 0x3A65 DUP4 DUP4 PUSH2 0x33F7 JUMP JUMPDEST PUSH1 0x0 MSTORE PUSH1 0x20 PUSH1 0x0 KECCAK256 SWAP1 PUSH1 0x0 MSTORE PUSH1 0x20 PUSH1 0x0 KECCAK256 DUP2 SLOAD SWAP2 PUSH1 0x0 SWAP3 JUMPDEST DUP5 DUP5 LT PUSH2 0x3A8B JUMPI POP POP POP POP POP JUMP JUMPDEST PUSH1 0x1 SWAP2 DUP3 ADD DUP1 SLOAD PUSH1 0x1 PUSH1 0x1 PUSH1 0xA0 SHL SUB SWAP1 SWAP3 AND DUP5 DUP7 ADD SSTORE SWAP4 SWAP1 SWAP2 ADD SWAP3 SWAP1 PUSH2 0x3A7D JUMP JUMPDEST DUP1 SLOAD PUSH1 0x1 PUSH1 0x40 SHL DUP2 LT ISZERO PUSH2 0x14DC JUMPI PUSH2 0x3AC9 SWAP2 PUSH1 0x1 DUP3 ADD DUP2 SSTORE PUSH2 0x311C JUMP JUMPDEST PUSH2 0x14C6 JUMPI DUP2 DUP2 EQ ISZERO SWAP2 DUP3 PUSH2 0x3ADC JUMPI POP POP POP JUMP JUMPDEST PUSH1 0xF DUP1 SWAP2 PUSH2 0x3324 SWAP5 PUSH2 0x3B1B JUMPI JUMPDEST PUSH2 0x3AF9 PUSH1 0xC DUP3 ADD PUSH1 0xC DUP7 ADD PUSH2 0x3967 JUMP JUMPDEST PUSH2 0x3B09 PUSH1 0xD DUP3 ADD PUSH1 0xD DUP7 ADD PUSH2 0x3967 JUMP JUMPDEST PUSH1 0xE DUP2 ADD SLOAD PUSH1 0xE DUP6 ADD SSTORE ADD SWAP2 ADD PUSH2 0x3A43 JUMP JUMPDEST DUP1 SLOAD DUP5 SLOAD PUSH1 0x1 PUSH1 0x1 PUSH1 0xA0 SHL SUB NOT AND PUSH1 0x1 PUSH1 0x1 PUSH1 0xA0 SHL SUB SWAP2 SWAP1 SWAP2 AND OR DUP5 SSTORE PUSH2 0x3B48 PUSH1 0x1 DUP3 DUP2 ADD SWAP1 DUP7 ADD PUSH2 0x3967 JUMP JUMPDEST PUSH1 0x2 DUP2 ADD SLOAD PUSH1 0x2 DUP6 ADD SSTORE PUSH1 0x3 DUP2 ADD SLOAD PUSH1 0x3 DUP6 ADD SSTORE PUSH2 0x3B6C PUSH1 0x4 DUP3 ADD PUSH1 0x4 DUP7 ADD PUSH2 0x3967 JUMP JUMPDEST PUSH2 0x3B7C PUSH1 0x5 DUP3 ADD PUSH1 0x5 DUP7 ADD PUSH2 0x3967 JUMP JUMPDEST PUSH2 0x3B8C PUSH1 0x6 DUP3 ADD PUSH1 0x6 DUP7 ADD PUSH2 0x3967 JUMP JUMPDEST PUSH2 0x3B9C PUSH1 0x7 DUP3 ADD PUSH1 0x7 DUP7 ADD PUSH2 0x3967 JUMP JUMPDEST PUSH2 0x3BAC PUSH1 0x8 DUP3 ADD PUSH1 0x8 DUP7 ADD PUSH2 0x3967 JUMP JUMPDEST PUSH2 0x3BBC PUSH1 0x9 DUP3 ADD PUSH1 0x9 DUP7 ADD PUSH2 0x3967 JUMP JUMPDEST PUSH2 0x3BCC PUSH1 0xA DUP3 ADD PUSH1 0xA DUP7 ADD PUSH2 0x3967 JUMP JUMPDEST PUSH2 0x3BDC PUSH1 0xB DUP3 ADD PUSH1 0xB DUP7 ADD PUSH2 0x3967 JUMP JUMPDEST PUSH2 0x3AE9 JUMP JUMPDEST PUSH1 0x2 PUSH1 0x40 PUSH2 0x3324 SWAP4 PUSH1 0x1 DUP1 PUSH1 0xA0 SHL SUB DUP2 MLOAD AND PUSH1 0x1 PUSH1 0x1 PUSH1 0x60 SHL SUB PUSH1 0xA0 SHL DUP6 SLOAD AND OR DUP5 SSTORE PUSH2 0x3C15 PUSH1 0x20 DUP3 ADD MLOAD PUSH1 0x1 DUP7 ADD PUSH2 0x3330 JUMP JUMPDEST ADD MLOAD SWAP2 ADD PUSH2 0x3330 JUMP JUMPDEST PUSH1 0x1 DUP1 PUSH1 0xA0 SHL SUB DUP3 MLOAD AND PUSH1 0x1 PUSH1 0x1 PUSH1 0x60 SHL SUB PUSH1 0xA0 SHL DUP3 SLOAD AND OR DUP2 SSTORE PUSH1 0x20 SWAP1 DUP2 DUP4 ADD MLOAD SWAP3 PUSH2 0x3C4F PUSH1 0x1 SWAP5 DUP6 DUP5 ADD PUSH2 0x3330 JUMP JUMPDEST PUSH1 0x40 DUP2 ADD MLOAD SWAP3 PUSH2 0x3C63 PUSH1 0x2 SWAP5 DUP6 DUP6 ADD PUSH2 0x3330 JUMP JUMPDEST PUSH1 0xA0 PUSH1 0x5 PUSH1 0x60 DUP5 ADD MLOAD SWAP5 PUSH2 0x3C7B PUSH1 0x3 SWAP7 DUP8 DUP4 ADD PUSH2 0x3330 JUMP JUMPDEST PUSH2 0x3C8C PUSH1 0x80 DUP7 ADD MLOAD PUSH1 0x4 DUP4 ADD PUSH2 0x3330 JUMP JUMPDEST ADD SWAP3 ADD MLOAD SWAP4 DUP5 MLOAD SWAP5 PUSH1 0x1 PUSH1 0x40 SHL DUP7 GT PUSH2 0x14DC JUMPI DUP4 SLOAD DUP7 DUP6 SSTORE DUP4 SWAP3 DUP2 DUP9 LT PUSH2 0x3CE8 JUMPI JUMPDEST POP POP ADD SWAP2 PUSH1 0x0 MSTORE DUP1 PUSH1 0x0 KECCAK256 PUSH1 0x0 SWAP3 JUMPDEST DUP6 DUP5 LT PUSH2 0x3CCD JUMPI POP POP POP POP POP POP POP JUMP JUMPDEST DUP5 DUP4 DUP3 PUSH2 0x3CDC DUP11 SWAP5 MLOAD DUP7 PUSH2 0x3BE1 JUMP JUMPDEST ADD SWAP3 ADD SWAP4 ADD SWAP3 SWAP1 PUSH2 0x3CBD JUMP JUMPDEST SWAP1 DUP1 SWAP3 SWAP4 POP DUP7 MUL SWAP2 DUP7 DUP4 DIV SUB PUSH2 0x1CC2 JUMPI DUP7 DUP7 MUL DUP7 DUP2 DIV DUP9 SUB PUSH2 0x1CC2 JUMPI PUSH1 0x0 DUP7 DUP2 MSTORE DUP6 DUP2 KECCAK256 DUP7 SWAP6 SWAP5 DUP2 ADD SWAP4 SWAP3 DUP10 SWAP2 ADD JUMPDEST DUP5 DUP2 LT PUSH2 0x3D26 JUMPI POP POP POP PUSH2 0x3CAE JUMP JUMPDEST SWAP1 SWAP2 DUP1 SWAP4 SWAP5 SWAP6 SWAP7 POP DUP2 SSTORE PUSH2 0x3D3B DUP12 DUP3 ADD PUSH2 0x34E1 JUMP JUMPDEST PUSH2 0x3D46 DUP5 DUP3 ADD PUSH2 0x34E1 JUMP JUMPDEST ADD SWAP1 DUP8 DUP7 SWAP6 SWAP5 SWAP4 SWAP3 PUSH2 0x3D17 JUMP JUMPDEST SWAP1 DUP2 SLOAD PUSH1 0x1 PUSH1 0x40 SHL DUP2 LT ISZERO PUSH2 0x14DC JUMPI PUSH1 0x1 DUP2 ADD DUP1 DUP5 SSTORE DUP2 LT ISZERO PUSH2 0x1CD8 JUMPI PUSH2 0x3324 SWAP3 PUSH1 0x0 MSTORE PUSH1 0x3 PUSH1 0x20 PUSH1 0x0 KECCAK256 SWAP2 MUL ADD PUSH2 0x3BE1 JUMP JUMPDEST DUP1 MLOAD SWAP1 PUSH1 0x20 SWAP2 DUP3 DUP3 ADD SWAP1 DUP2 KECCAK256 SWAP1 PUSH1 0x0 SWAP3 DUP4 SLOAD SWAP3 DUP4 ISZERO PUSH2 0x40E4 JUMPI SWAP1 DUP6 SWAP3 SWAP2 DUP6 DUP1 MSTORE PUSH1 0x40 MLOAD DUP7 SWAP1 PUSH32 0x290DECD9548B62A8D60345A988386FC84BA6BC95484008F6362F93160EF3E563 DUP2 DUP2 SLOAD SWAP4 PUSH2 0x3DD9 DUP6 PUSH2 0x29D4 JUMP JUMPDEST SWAP3 DUP4 DUP4 MSTORE DUP10 DUP4 ADD SWAP6 PUSH1 0x1 SWAP14 DUP15 DUP3 AND SWAP2 DUP3 PUSH1 0x0 EQ PUSH2 0x40C6 JUMPI POP POP PUSH1 0x1 EQ PUSH2 0x406B JUMPI JUMPDEST POP PUSH2 0x3E07 SWAP3 POP SUB DUP3 PUSH2 0x2B2C JUMP JUMPDEST MLOAD SWAP1 KECCAK256 SUB PUSH2 0x3E3A JUMPI POP POP POP POP PUSH1 0x2 SLOAD SWAP2 DUP3 ADD DUP1 SWAP3 GT PUSH2 0x3E26 JUMPI POP PUSH1 0x2 SSTORE JUMP JUMPDEST PUSH4 0x4E487B71 PUSH1 0xE0 SHL DUP2 MSTORE PUSH1 0x11 PUSH1 0x4 MSTORE PUSH1 0x24 SWAP1 REVERT JUMPDEST DUP1 MLOAD DUP3 KECCAK256 DUP5 DUP8 LT ISZERO PUSH2 0x4057 JUMPI DUP6 DUP1 MSTORE DUP7 PUSH1 0x40 MLOAD DUP8 DUP2 PUSH32 0x290DECD9548B62A8D60345A988386FC84BA6BC95484008F6362F93160EF3E564 SWAP2 DUP3 SLOAD SWAP3 PUSH2 0x3E7D DUP5 PUSH2 0x29D4 JUMP JUMPDEST SWAP4 DUP5 DUP5 MSTORE DUP11 DUP1 DUP6 ADD SWAP8 DUP3 AND SWAP2 DUP3 PUSH1 0x0 EQ PUSH2 0x4039 JUMPI POP POP PUSH1 0x1 EQ PUSH2 0x3FDE JUMPI JUMPDEST POP PUSH2 0x3EA8 SWAP3 POP SUB DUP3 PUSH2 0x2B2C JUMP JUMPDEST MLOAD SWAP1 KECCAK256 SUB PUSH2 0x3EC7 JUMPI POP POP POP POP PUSH1 0x3 SLOAD SWAP2 DUP3 ADD DUP1 SWAP3 GT PUSH2 0x3E26 JUMPI POP PUSH1 0x3 SSTORE JUMP JUMPDEST MLOAD SWAP1 KECCAK256 SWAP2 PUSH1 0x2 LT ISZERO PUSH2 0x3FCA JUMPI DUP3 DUP1 MSTORE PUSH1 0x40 MLOAD DUP4 SWAP2 DUP2 PUSH32 0x290DECD9548B62A8D60345A988386FC84BA6BC95484008F6362F93160EF3E565 SWAP4 DUP5 SLOAD SWAP5 PUSH2 0x3F0A DUP7 PUSH2 0x29D4 JUMP JUMPDEST SWAP1 DUP2 DUP5 MSTORE DUP5 DUP5 ADD SWAP7 DUP11 DUP2 AND SWAP1 DUP2 PUSH1 0x0 EQ PUSH2 0x3FAC JUMPI POP PUSH1 0x1 EQ PUSH2 0x3F54 JUMPI JUMPDEST POP POP PUSH2 0x3F35 SWAP3 POP SUB DUP3 PUSH2 0x2B2C JUMP JUMPDEST MLOAD SWAP1 KECCAK256 EQ PUSH2 0x3F41 JUMPI POP POP JUMP JUMPDEST PUSH1 0x4 SLOAD SWAP2 DUP3 ADD DUP1 SWAP3 GT PUSH2 0x3E26 JUMPI POP PUSH1 0x4 SSTORE JUMP JUMPDEST DUP9 MSTORE DUP8 SWAP2 POP DUP9 PUSH32 0x63D75DB57AE45C3799740C3CD8DCEE96A498324843D79AE390ADC81D74B52F13 JUMPDEST DUP3 DUP5 LT PUSH2 0x3F95 JUMPI POP POP POP SWAP2 PUSH2 0x3F35 SWAP3 DUP3 ADD ADD CODESIZE DUP1 PUSH2 0x3F27 JUMP JUMPDEST DUP1 SLOAD DUP8 DUP6 ADD DUP8 ADD MSTORE DUP7 SWAP5 POP SWAP3 DUP6 ADD SWAP3 DUP11 SWAP2 ADD PUSH2 0x3F7C JUMP JUMPDEST SWAP2 POP POP PUSH2 0x3F35 SWAP5 SWAP3 POP PUSH1 0xFF NOT AND DUP7 MSTORE ISZERO ISZERO PUSH1 0x5 SHL DUP3 ADD ADD CODESIZE DUP1 PUSH2 0x3F27 JUMP JUMPDEST PUSH4 0x4E487B71 PUSH1 0xE0 SHL DUP4 MSTORE PUSH1 0x32 PUSH1 0x4 MSTORE PUSH1 0x24 DUP4 REVERT JUMPDEST DUP12 MSTORE POP DUP3 SWAP1 POP DUP8 DUP11 DUP13 PUSH32 0x6C13D8C1C5DF666EA9CA2A428504A3776C8CA01021C3A1524CA7D765F600979A JUMPDEST DUP6 DUP4 LT PUSH2 0x4020 JUMPI POP POP PUSH2 0x3EA8 SWAP4 POP DUP3 ADD ADD CODESIZE PUSH2 0x3E9B JUMP JUMPDEST DUP1 SWAP2 SWAP3 SWAP5 POP SLOAD DUP4 DUP6 DUP9 ADD ADD MSTORE ADD SWAP2 ADD DUP9 SWAP1 DUP13 DUP6 SWAP4 PUSH2 0x4009 JUMP JUMPDEST PUSH1 0xFF NOT AND DUP9 MSTORE PUSH2 0x3EA8 SWAP6 ISZERO ISZERO PUSH1 0x5 SHL DUP6 ADD ADD SWAP3 POP CODESIZE SWAP2 POP PUSH2 0x3E9B SWAP1 POP JUMP JUMPDEST PUSH4 0x4E487B71 PUSH1 0xE0 SHL DUP7 MSTORE PUSH1 0x32 PUSH1 0x4 MSTORE PUSH1 0x24 DUP7 REVERT JUMPDEST DUP12 MSTORE POP DUP3 SWAP1 POP DUP8 DUP11 DUP13 PUSH32 0x510E4E770828DDBF7F7B00AB00A9F6ADAF81C0DC9CC85F1F8249C256942D61D9 JUMPDEST DUP6 DUP4 LT PUSH2 0x40AD JUMPI POP POP PUSH2 0x3E07 SWAP4 POP DUP3 ADD ADD CODESIZE PUSH2 0x3DFA JUMP JUMPDEST DUP1 SWAP2 SWAP3 SWAP5 POP SLOAD DUP4 DUP6 DUP9 ADD ADD MSTORE ADD SWAP2 ADD DUP9 SWAP1 DUP13 DUP6 SWAP4 PUSH2 0x4096 JUMP JUMPDEST PUSH1 0xFF NOT AND DUP9 MSTORE PUSH2 0x3E07 SWAP6 ISZERO ISZERO PUSH1 0x5 SHL DUP6 ADD ADD SWAP3 POP CODESIZE SWAP2 POP PUSH2 0x3DFA SWAP1 POP JUMP JUMPDEST PUSH4 0x4E487B71 PUSH1 0xE0 SHL DUP6 MSTORE PUSH1 0x32 PUSH1 0x4 MSTORE PUSH1 0x24 DUP6 REVERT JUMPDEST PUSH1 0x40 MLOAD SWAP1 PUSH2 0x4105 DUP3 PUSH2 0x2ADA JUMP JUMPDEST DUP2 PUSH1 0x0 DUP2 MSTORE PUSH2 0x160 PUSH1 0x60 SWAP2 DUP3 PUSH1 0x20 DUP3 ADD MSTORE PUSH1 0x0 PUSH1 0x40 DUP3 ADD MSTORE PUSH1 0x0 DUP4 DUP3 ADD MSTORE DUP3 PUSH1 0x80 DUP3 ADD MSTORE DUP3 PUSH1 0xA0 DUP3 ADD MSTORE DUP3 PUSH1 0xC0 DUP3 ADD MSTORE DUP3 PUSH1 0xE0 DUP3 ADD MSTORE DUP3 PUSH2 0x100 DUP3 ADD MSTORE DUP3 PUSH2 0x120 DUP3 ADD MSTORE DUP3 PUSH2 0x140 DUP3 ADD MSTORE ADD MSTORE JUMP JUMPDEST SWAP1 PUSH1 0x5 PUSH1 0xA0 PUSH1 0x40 SWAP4 PUSH2 0x2F86 DUP6 MLOAD SWAP2 PUSH2 0x416B DUP4 PUSH2 0x2AA4 JUMP JUMPDEST PUSH2 0x706 DUP4 SWAP8 PUSH1 0x1 DUP1 DUP8 SHL SUB DUP4 SLOAD AND DUP6 MSTORE DUP1 MLOAD PUSH2 0x418E DUP2 PUSH2 0x288 DUP2 PUSH1 0x1 DUP9 ADD PUSH2 0x2A0E JUMP JUMPDEST PUSH1 0x20 DUP7 ADD MSTORE PUSH1 0x2 DUP4 ADD SLOAD DUP2 DUP7 ADD MSTORE DUP1 MLOAD PUSH2 0x41AF DUP2 PUSH2 0x288 DUP2 PUSH1 0x3 DUP9 ADD PUSH2 0x2A0E JUMP JUMPDEST PUSH1 0x60 DUP7 ADD MSTORE DUP1 MLOAD PUSH2 0x41C7 DUP2 PUSH2 0x288 DUP2 PUSH1 0x4 DUP9 ADD PUSH2 0x2A0E JUMP JUMPDEST PUSH1 0x80 DUP7 ADD MSTORE MLOAD DUP1 SWAP7 DUP2 SWAP4 ADD PUSH2 0x31C4 JUMP JUMPDEST SWAP1 DUP1 MLOAD PUSH1 0x1 DUP1 PUSH1 0xA0 SHL SUB DUP1 DUP3 MLOAD AND PUSH1 0x1 PUSH1 0x1 PUSH1 0x60 SHL SUB PUSH1 0xA0 SHL DUP6 SLOAD AND OR DUP5 SSTORE PUSH1 0x20 SWAP1 PUSH2 0x42AB PUSH2 0x160 DUP4 DUP6 ADD MLOAD SWAP5 PUSH2 0x4212 PUSH1 0x1 SWAP7 DUP8 DUP11 ADD PUSH2 0x3330 JUMP JUMPDEST PUSH1 0x40 DUP2 ADD MLOAD PUSH1 0x2 DUP10 ADD SSTORE PUSH1 0x60 DUP2 ADD MLOAD PUSH1 0x3 DUP10 ADD SSTORE PUSH2 0x4237 PUSH1 0x80 DUP3 ADD MLOAD PUSH1 0x4 DUP11 ADD PUSH2 0x3330 JUMP JUMPDEST PUSH2 0x4248 PUSH1 0xA0 DUP3 ADD MLOAD PUSH1 0x5 DUP11 ADD PUSH2 0x3330 JUMP JUMPDEST PUSH2 0x4259 PUSH1 0xC0 DUP3 ADD MLOAD PUSH1 0x6 DUP11 ADD PUSH2 0x3330 JUMP JUMPDEST PUSH2 0x426A PUSH1 0xE0 DUP3 ADD MLOAD PUSH1 0x7 DUP11 ADD PUSH2 0x3330 JUMP JUMPDEST PUSH2 0x427C PUSH2 0x100 DUP3 ADD MLOAD PUSH1 0x8 DUP11 ADD PUSH2 0x3330 JUMP JUMPDEST PUSH2 0x428E PUSH2 0x120 DUP3 ADD MLOAD PUSH1 0x9 DUP11 ADD PUSH2 0x3330 JUMP JUMPDEST PUSH2 0x42A0 PUSH2 0x140 DUP3 ADD MLOAD PUSH1 0xA DUP11 ADD PUSH2 0x3330 JUMP JUMPDEST ADD MLOAD PUSH1 0xB DUP8 ADD PUSH2 0x3330 JUMP JUMPDEST PUSH1 0xC DUP6 ADD SWAP1 DUP3 DUP6 ADD MLOAD SWAP3 DUP4 MLOAD SWAP4 PUSH1 0x1 PUSH1 0x1 PUSH1 0x40 SHL SUB DUP6 GT PUSH2 0x14DC JUMPI DUP2 SWAP1 PUSH2 0x42D2 DUP7 DUP7 PUSH2 0x33F7 JUMP JUMPDEST ADD SWAP3 PUSH1 0x0 MSTORE DUP1 PUSH1 0x0 KECCAK256 SWAP2 PUSH1 0x0 JUMPDEST DUP6 DUP2 LT PUSH2 0x42F9 JUMPI POP POP POP POP POP POP POP PUSH1 0x40 PUSH1 0xD SWAP2 ADD MLOAD SWAP2 ADD SSTORE JUMP JUMPDEST DUP5 MLOAD DUP3 AND DUP5 DUP3 ADD SSTORE SWAP4 DUP3 ADD SWAP4 DUP7 ADD PUSH2 0x42DF JUMP JUMPDEST SWAP1 PUSH1 0x40 MLOAD PUSH2 0x4319 DUP2 PUSH2 0x2ABF JUMP JUMPDEST PUSH1 0x40 PUSH1 0xD DUP3 SWAP5 PUSH2 0x4328 DUP2 PUSH2 0x2E7C JUMP JUMPDEST DUP5 MSTORE DUP3 MLOAD PUSH2 0x433D DUP2 PUSH2 0x288 DUP2 PUSH1 0xC DUP7 ADD PUSH2 0x31C4 JUMP JUMPDEST PUSH1 0x20 DUP6 ADD MSTORE ADD SLOAD SWAP2 ADD MSTORE JUMP JUMPDEST SWAP1 PUSH1 0x1 DUP3 ADD DUP1 SWAP3 GT PUSH2 0x1CC2 JUMPI JUMP INVALID LOG2 PUSH5 0x6970667358 0x22 SLT KECCAK256 GASPRICE CALLVALUE 0xEA PUSH13 0x47B17F0F116719A358BCD250AF SHL 0xBD JUMPDEST 0xAD 0x2B DUP14 DUP1 0xC1 PUSH31 0x4FB6D273CA6A64736F6C634300081100330000000000000000000000000000 "
		},
		"gasEstimates": {
			"creation": {
				"codeDepositCost": "3458600",
				"executionCost": "infinite",
				"totalCost": "infinite"
			},
			"external": {
				"addCandidate(string,uint256,uint256,string,string,string,string,string,string,string,string,string,string)": "infinite",
				"addFaqComment(address,string,string)": "infinite",
				"addFaqs(string,string,string,string)": "infinite",
				"addParty(string,uint256,string,string)": "infinite",
				"addSelectedCandidates(address[],string)": "infinite",
				"addVoter(string,uint256,uint256,string,string,string,string,string,string,string,string)": "infinite",
				"adminAddress()": "3159",
				"candidateList(uint256)": "infinite",
				"candidateNames(uint256)": "infinite",
				"candidates(address)": "infinite",
				"createElection(string,string,string,string,string,string[])": "infinite",
				"electionList(uint256)": "infinite",
				"elections(string)": "infinite",
				"faqList(uint256)": "infinite",
				"faqs(address)": "infinite",
				"gender_list(uint256)": "infinite",
				"getAllCandidates()": "infinite",
				"getAllElections()": "infinite",
				"getAllFAQs()": "infinite",
				"getAllParties()": "infinite",
				"getAllVoters()": "infinite",
				"getCandidateDetails(address)": "infinite",
				"getPartyDetails(address)": "infinite",
				"getVoterDetails(address)": "infinite",
				"isAdmin(address)": "2521",
				"parties(address)": "infinite",
				"partyList(uint256)": "infinite",
				"partyNames(uint256)": "infinite",
				"totalCandidate()": "2346",
				"totalElection()": "2808",
				"totalFemaleVoters()": "2720",
				"totalMaleVoters()": "2302",
				"totalOtherVoters()": "2324",
				"totalParty()": "3116",
				"totalVoter()": "2610",
				"updateCounter(string)": "infinite",
				"vote(address,string)": "infinite",
				"voteCount()": "3006",
				"voterList(uint256)": "infinite",
				"voterNames(uint256)": "infinite",
				"voters(address)": "infinite"
			}
		},
		"methodIdentifiers": {
			"addCandidate(string,uint256,uint256,string,string,string,string,string,string,string,string,string,string)": "2d23c735",
			"addFaqComment(address,string,string)": "e9af3fc0",
			"addFaqs(string,string,string,string)": "69d2bca1",
			"addParty(string,uint256,string,string)": "1d50384b",
			"addSelectedCandidates(address[],string)": "ef53c6ab",
			"addVoter(string,uint256,uint256,string,string,string,string,string,string,string,string)": "9eda74cf",
			"adminAddress()": "fc6f9468",
			"candidateList(uint256)": "b13c744b",
			"candidateNames(uint256)": "8287e42f",
			"candidates(address)": "8ab66a90",
			"createElection(string,string,string,string,string,string[])": "71c693eb",
			"electionList(uint256)": "defb908f",
			"elections(string)": "4a3ccc96",
			"faqList(uint256)": "9682f9b3",
			"faqs(address)": "0273d66e",
			"gender_list(uint256)": "6394a8fa",
			"getAllCandidates()": "2e6997fe",
			"getAllElections()": "7fd5f268",
			"getAllFAQs()": "2526e05d",
			"getAllParties()": "b867bfcc",
			"getAllVoters()": "35bbe70e",
			"getCandidateDetails(address)": "53ac5dc3",
			"getPartyDetails(address)": "00da7228",
			"getVoterDetails(address)": "ba71bef0",
			"isAdmin(address)": "24d7806c",
			"parties(address)": "4f235207",
			"partyList(uint256)": "640e79b7",
			"partyNames(uint256)": "f3845166",
			"totalCandidate()": "1812dab4",
			"totalElection()": "8d0371ff",
			"totalFemaleVoters()": "7c054c54",
			"totalMaleVoters()": "029c21bd",
			"totalOtherVoters()": "0983f185",
			"totalParty()": "f7c4c25a",
			"totalVoter()": "6332abc9",
			"updateCounter(string)": "b0a4ec42",
			"vote(address,string)": "1bf533a4",
			"voteCount()": "c6384071",
			"voterList(uint256)": "50e2e8af",
			"voterNames(uint256)": "a96278ae",
			"voters(address)": "a3ec138d"
		}
	},
	"abi": [
		{
			"anonymous": false,
			"inputs": [
				{
					"components": [
						{
							"components": [
								{
									"internalType": "address",
									"name": "_id",
									"type": "address"
								},
								{
									"internalType": "string",
									"name": "fullName",
									"type": "string"
								},
								{
									"internalType": "uint256",
									"name": "citizenshipNumber",
									"type": "uint256"
								},
								{
									"internalType": "uint256",
									"name": "age",
									"type": "uint256"
								},
								{
									"internalType": "string",
									"name": "gender",
									"type": "string"
								},
								{
									"internalType": "string",
									"name": "dob",
									"type": "string"
								},
								{
									"internalType": "string",
									"name": "email",
									"type": "string"
								},
								{
									"internalType": "string",
									"name": "profile",
									"type": "string"
								},
								{
									"internalType": "string",
									"name": "province",
									"type": "string"
								},
								{
									"internalType": "string",
									"name": "district",
									"type": "string"
								},
								{
									"internalType": "string",
									"name": "municipality",
									"type": "string"
								},
								{
									"internalType": "string",
									"name": "ward",
									"type": "string"
								}
							],
							"internalType": "struct Structure.User",
							"name": "user",
							"type": "tuple"
						},
						{
							"internalType": "string",
							"name": "partyName",
							"type": "string"
						},
						{
							"internalType": "string",
							"name": "agenda",
							"type": "string"
						},
						{
							"internalType": "uint256",
							"name": "voteCount",
							"type": "uint256"
						},
						{
							"internalType": "address[]",
							"name": "votedVoterLists",
							"type": "address[]"
						}
					],
					"indexed": false,
					"internalType": "struct Structure.Candidate",
					"name": "candidate",
					"type": "tuple"
				}
			],
			"name": "CandidateCreated",
			"type": "event"
		},
		{
			"anonymous": false,
			"inputs": [
				{
					"components": [
						{
							"internalType": "address",
							"name": "_id",
							"type": "address"
						},
						{
							"internalType": "string",
							"name": "title",
							"type": "string"
						},
						{
							"internalType": "string",
							"name": "description",
							"type": "string"
						},
						{
							"internalType": "string",
							"name": "fileUrl",
							"type": "string"
						},
						{
							"internalType": "string",
							"name": "createdAt",
							"type": "string"
						},
						{
							"components": [
								{
									"internalType": "address",
									"name": "userId",
									"type": "address"
								},
								{
									"internalType": "string",
									"name": "replyMsg",
									"type": "string"
								},
								{
									"internalType": "string",
									"name": "createdAt",
									"type": "string"
								}
							],
							"internalType": "struct Structure.ReplyComment[]",
							"name": "comments",
							"type": "tuple[]"
						}
					],
					"indexed": false,
					"internalType": "struct Structure.FAQ",
					"name": "faq",
					"type": "tuple"
				}
			],
			"name": "NewFaqAdded",
			"type": "event"
		},
		{
			"anonymous": false,
			"inputs": [
				{
					"components": [
						{
							"internalType": "address",
							"name": "owner",
							"type": "address"
						},
						{
							"internalType": "string",
							"name": "name",
							"type": "string"
						},
						{
							"internalType": "uint256",
							"name": "totalMember",
							"type": "uint256"
						},
						{
							"internalType": "string",
							"name": "agenda",
							"type": "string"
						},
						{
							"internalType": "string",
							"name": "logoUrl",
							"type": "string"
						},
						{
							"internalType": "address[]",
							"name": "members",
							"type": "address[]"
						}
					],
					"indexed": false,
					"internalType": "struct Structure.Party",
					"name": "party",
					"type": "tuple"
				}
			],
			"name": "PartyCreated",
			"type": "event"
		},
		{
			"anonymous": false,
			"inputs": [
				{
					"components": [
						{
							"components": [
								{
									"internalType": "address",
									"name": "_id",
									"type": "address"
								},
								{
									"internalType": "string",
									"name": "fullName",
									"type": "string"
								},
								{
									"internalType": "uint256",
									"name": "citizenshipNumber",
									"type": "uint256"
								},
								{
									"internalType": "uint256",
									"name": "age",
									"type": "uint256"
								},
								{
									"internalType": "string",
									"name": "gender",
									"type": "string"
								},
								{
									"internalType": "string",
									"name": "dob",
									"type": "string"
								},
								{
									"internalType": "string",
									"name": "email",
									"type": "string"
								},
								{
									"internalType": "string",
									"name": "profile",
									"type": "string"
								},
								{
									"internalType": "string",
									"name": "province",
									"type": "string"
								},
								{
									"internalType": "string",
									"name": "district",
									"type": "string"
								},
								{
									"internalType": "string",
									"name": "municipality",
									"type": "string"
								},
								{
									"internalType": "string",
									"name": "ward",
									"type": "string"
								}
							],
							"internalType": "struct Structure.User",
							"name": "user",
							"type": "tuple"
						},
						{
							"internalType": "string",
							"name": "partyName",
							"type": "string"
						},
						{
							"internalType": "string",
							"name": "agenda",
							"type": "string"
						},
						{
							"internalType": "uint256",
							"name": "voteCount",
							"type": "uint256"
						},
						{
							"internalType": "address[]",
							"name": "votedVoterLists",
							"type": "address[]"
						}
					],
					"indexed": false,
					"internalType": "struct Structure.Candidate",
					"name": "candidate",
					"type": "tuple"
				}
			],
			"name": "VoteCast",
			"type": "event"
		},
		{
			"anonymous": false,
			"inputs": [
				{
					"components": [
						{
							"components": [
								{
									"internalType": "address",
									"name": "_id",
									"type": "address"
								},
								{
									"internalType": "string",
									"name": "fullName",
									"type": "string"
								},
								{
									"internalType": "uint256",
									"name": "citizenshipNumber",
									"type": "uint256"
								},
								{
									"internalType": "uint256",
									"name": "age",
									"type": "uint256"
								},
								{
									"internalType": "string",
									"name": "gender",
									"type": "string"
								},
								{
									"internalType": "string",
									"name": "dob",
									"type": "string"
								},
								{
									"internalType": "string",
									"name": "email",
									"type": "string"
								},
								{
									"internalType": "string",
									"name": "profile",
									"type": "string"
								},
								{
									"internalType": "string",
									"name": "province",
									"type": "string"
								},
								{
									"internalType": "string",
									"name": "district",
									"type": "string"
								},
								{
									"internalType": "string",
									"name": "municipality",
									"type": "string"
								},
								{
									"internalType": "string",
									"name": "ward",
									"type": "string"
								}
							],
							"internalType": "struct Structure.User",
							"name": "user",
							"type": "tuple"
						},
						{
							"internalType": "address[]",
							"name": "votedCandidateList",
							"type": "address[]"
						},
						{
							"internalType": "uint256",
							"name": "voteLimitCount",
							"type": "uint256"
						}
					],
					"indexed": false,
					"internalType": "struct Structure.Voter",
					"name": "voter",
					"type": "tuple"
				}
			],
			"name": "VoterCreated",
			"type": "event"
		},
		{
			"anonymous": false,
			"inputs": [
				{
					"components": [
						{
							"internalType": "string",
							"name": "title",
							"type": "string"
						},
						{
							"internalType": "string",
							"name": "description",
							"type": "string"
						},
						{
							"internalType": "string",
							"name": "startDate",
							"type": "string"
						},
						{
							"internalType": "string",
							"name": "endDate",
							"type": "string"
						},
						{
							"internalType": "string",
							"name": "electionType",
							"type": "string"
						},
						{
							"components": [
								{
									"components": [
										{
											"internalType": "address",
											"name": "_id",
											"type": "address"
										},
										{
											"internalType": "string",
											"name": "fullName",
											"type": "string"
										},
										{
											"internalType": "uint256",
											"name": "citizenshipNumber",
											"type": "uint256"
										},
										{
											"internalType": "uint256",
											"name": "age",
											"type": "uint256"
										},
										{
											"internalType": "string",
											"name": "gender",
											"type": "string"
										},
										{
											"internalType": "string",
											"name": "dob",
											"type": "string"
										},
										{
											"internalType": "string",
											"name": "email",
											"type": "string"
										},
										{
											"internalType": "string",
											"name": "profile",
											"type": "string"
										},
										{
											"internalType": "string",
											"name": "province",
											"type": "string"
										},
										{
											"internalType": "string",
											"name": "district",
											"type": "string"
										},
										{
											"internalType": "string",
											"name": "municipality",
											"type": "string"
										},
										{
											"internalType": "string",
											"name": "ward",
											"type": "string"
										}
									],
									"internalType": "struct Structure.User",
									"name": "user",
									"type": "tuple"
								},
								{
									"internalType": "string",
									"name": "partyName",
									"type": "string"
								},
								{
									"internalType": "string",
									"name": "agenda",
									"type": "string"
								},
								{
									"internalType": "uint256",
									"name": "voteCount",
									"type": "uint256"
								},
								{
									"internalType": "address[]",
									"name": "votedVoterLists",
									"type": "address[]"
								}
							],
							"internalType": "struct Structure.Candidate[]",
							"name": "candidates",
							"type": "tuple[]"
						},
						{
							"internalType": "string[]",
							"name": "galleryImagesUrl",
							"type": "string[]"
						}
					],
					"indexed": false,
					"internalType": "struct Structure.Election",
					"name": "election",
					"type": "tuple"
				}
			],
			"name": "electionStart",
			"type": "event"
		},
		{
			"inputs": [
				{
					"internalType": "string",
					"name": "_name",
					"type": "string"
				},
				{
					"internalType": "uint256",
					"name": "_citizenshipNo",
					"type": "uint256"
				},
				{
					"internalType": "uint256",
					"name": "_age",
					"type": "uint256"
				},
				{
					"internalType": "string",
					"name": "_agenda",
					"type": "string"
				},
				{
					"internalType": "string",
					"name": "_dob",
					"type": "string"
				},
				{
					"internalType": "string",
					"name": "_email",
					"type": "string"
				},
				{
					"internalType": "string",
					"name": "_profile",
					"type": "string"
				},
				{
					"internalType": "string",
					"name": "_partyName",
					"type": "string"
				},
				{
					"internalType": "string",
					"name": "_province",
					"type": "string"
				},
				{
					"internalType": "string",
					"name": "_district",
					"type": "string"
				},
				{
					"internalType": "string",
					"name": "_municipality",
					"type": "string"
				},
				{
					"internalType": "string",
					"name": "_ward",
					"type": "string"
				},
				{
					"internalType": "string",
					"name": "_gender",
					"type": "string"
				}
			],
			"name": "addCandidate",
			"outputs": [],
			"stateMutability": "payable",
			"type": "function"
		},
		{
			"inputs": [
				{
					"internalType": "address",
					"name": "faqId",
					"type": "address"
				},
				{
					"internalType": "string",
					"name": "replyMsg",
					"type": "string"
				},
				{
					"internalType": "string",
					"name": "createdAt",
					"type": "string"
				}
			],
			"name": "addFaqComment",
			"outputs": [],
			"stateMutability": "payable",
			"type": "function"
		},
		{
			"inputs": [
				{
					"internalType": "string",
					"name": "title",
					"type": "string"
				},
				{
					"internalType": "string",
					"name": "description",
					"type": "string"
				},
				{
					"internalType": "string",
					"name": "fileUrl",
					"type": "string"
				},
				{
					"internalType": "string",
					"name": "createdAt",
					"type": "string"
				}
			],
			"name": "addFaqs",
			"outputs": [],
			"stateMutability": "payable",
			"type": "function"
		},
		{
			"inputs": [
				{
					"internalType": "string",
					"name": "_name",
					"type": "string"
				},
				{
					"internalType": "uint256",
					"name": "_totalMember",
					"type": "uint256"
				},
				{
					"internalType": "string",
					"name": "_agenda",
					"type": "string"
				},
				{
					"internalType": "string",
					"name": "_logoUrl",
					"type": "string"
				}
			],
			"name": "addParty",
			"outputs": [],
			"stateMutability": "payable",
			"type": "function"
		},
		{
			"inputs": [
				{
					"internalType": "address[]",
					"name": "_selectedCandidates",
					"type": "address[]"
				},
				{
					"internalType": "string",
					"name": "electionAddress",
					"type": "string"
				}
			],
			"name": "addSelectedCandidates",
			"outputs": [],
			"stateMutability": "payable",
			"type": "function"
		},
		{
			"inputs": [
				{
					"internalType": "string",
					"name": "_name",
					"type": "string"
				},
				{
					"internalType": "uint256",
					"name": "_citizenshipNo",
					"type": "uint256"
				},
				{
					"internalType": "uint256",
					"name": "_age",
					"type": "uint256"
				},
				{
					"internalType": "string",
					"name": "_dob",
					"type": "string"
				},
				{
					"internalType": "string",
					"name": "_email",
					"type": "string"
				},
				{
					"internalType": "string",
					"name": "_profile",
					"type": "string"
				},
				{
					"internalType": "string",
					"name": "_province",
					"type": "string"
				},
				{
					"internalType": "string",
					"name": "_district",
					"type": "string"
				},
				{
					"internalType": "string",
					"name": "_municipality",
					"type": "string"
				},
				{
					"internalType": "string",
					"name": "_ward",
					"type": "string"
				},
				{
					"internalType": "string",
					"name": "_gender",
					"type": "string"
				}
			],
			"name": "addVoter",
			"outputs": [],
			"stateMutability": "payable",
			"type": "function"
		},
		{
			"inputs": [],
			"name": "adminAddress",
			"outputs": [
				{
					"internalType": "address",
					"name": "",
					"type": "address"
				}
			],
			"stateMutability": "view",
			"type": "function"
		},
		{
			"inputs": [
				{
					"internalType": "uint256",
					"name": "",
					"type": "uint256"
				}
			],
			"name": "candidateList",
			"outputs": [
				{
					"components": [
						{
							"internalType": "address",
							"name": "_id",
							"type": "address"
						},
						{
							"internalType": "string",
							"name": "fullName",
							"type": "string"
						},
						{
							"internalType": "uint256",
							"name": "citizenshipNumber",
							"type": "uint256"
						},
						{
							"internalType": "uint256",
							"name": "age",
							"type": "uint256"
						},
						{
							"internalType": "string",
							"name": "gender",
							"type": "string"
						},
						{
							"internalType": "string",
							"name": "dob",
							"type": "string"
						},
						{
							"internalType": "string",
							"name": "email",
							"type": "string"
						},
						{
							"internalType": "string",
							"name": "profile",
							"type": "string"
						},
						{
							"internalType": "string",
							"name": "province",
							"type": "string"
						},
						{
							"internalType": "string",
							"name": "district",
							"type": "string"
						},
						{
							"internalType": "string",
							"name": "municipality",
							"type": "string"
						},
						{
							"internalType": "string",
							"name": "ward",
							"type": "string"
						}
					],
					"internalType": "struct Structure.User",
					"name": "user",
					"type": "tuple"
				},
				{
					"internalType": "string",
					"name": "partyName",
					"type": "string"
				},
				{
					"internalType": "string",
					"name": "agenda",
					"type": "string"
				},
				{
					"internalType": "uint256",
					"name": "voteCount",
					"type": "uint256"
				}
			],
			"stateMutability": "view",
			"type": "function"
		},
		{
			"inputs": [
				{
					"internalType": "uint256",
					"name": "",
					"type": "uint256"
				}
			],
			"name": "candidateNames",
			"outputs": [
				{
					"internalType": "string",
					"name": "",
					"type": "string"
				}
			],
			"stateMutability": "view",
			"type": "function"
		},
		{
			"inputs": [
				{
					"internalType": "address",
					"name": "",
					"type": "address"
				}
			],
			"name": "candidates",
			"outputs": [
				{
					"components": [
						{
							"internalType": "address",
							"name": "_id",
							"type": "address"
						},
						{
							"internalType": "string",
							"name": "fullName",
							"type": "string"
						},
						{
							"internalType": "uint256",
							"name": "citizenshipNumber",
							"type": "uint256"
						},
						{
							"internalType": "uint256",
							"name": "age",
							"type": "uint256"
						},
						{
							"internalType": "string",
							"name": "gender",
							"type": "string"
						},
						{
							"internalType": "string",
							"name": "dob",
							"type": "string"
						},
						{
							"internalType": "string",
							"name": "email",
							"type": "string"
						},
						{
							"internalType": "string",
							"name": "profile",
							"type": "string"
						},
						{
							"internalType": "string",
							"name": "province",
							"type": "string"
						},
						{
							"internalType": "string",
							"name": "district",
							"type": "string"
						},
						{
							"internalType": "string",
							"name": "municipality",
							"type": "string"
						},
						{
							"internalType": "string",
							"name": "ward",
							"type": "string"
						}
					],
					"internalType": "struct Structure.User",
					"name": "user",
					"type": "tuple"
				},
				{
					"internalType": "string",
					"name": "partyName",
					"type": "string"
				},
				{
					"internalType": "string",
					"name": "agenda",
					"type": "string"
				},
				{
					"internalType": "uint256",
					"name": "voteCount",
					"type": "uint256"
				}
			],
			"stateMutability": "view",
			"type": "function"
		},
		{
			"inputs": [
				{
					"internalType": "string",
					"name": "_title",
					"type": "string"
				},
				{
					"internalType": "string",
					"name": "_description",
					"type": "string"
				},
				{
					"internalType": "string",
					"name": "_startDate",
					"type": "string"
				},
				{
					"internalType": "string",
					"name": "_endDate",
					"type": "string"
				},
				{
					"internalType": "string",
					"name": "_electionType",
					"type": "string"
				},
				{
					"internalType": "string[]",
					"name": "galleryImagesUrl",
					"type": "string[]"
				}
			],
			"name": "createElection",
			"outputs": [],
			"stateMutability": "payable",
			"type": "function"
		},
		{
			"inputs": [
				{
					"internalType": "uint256",
					"name": "",
					"type": "uint256"
				}
			],
			"name": "electionList",
			"outputs": [
				{
					"internalType": "string",
					"name": "title",
					"type": "string"
				},
				{
					"internalType": "string",
					"name": "description",
					"type": "string"
				},
				{
					"internalType": "string",
					"name": "startDate",
					"type": "string"
				},
				{
					"internalType": "string",
					"name": "endDate",
					"type": "string"
				},
				{
					"internalType": "string",
					"name": "electionType",
					"type": "string"
				}
			],
			"stateMutability": "view",
			"type": "function"
		},
		{
			"inputs": [
				{
					"internalType": "string",
					"name": "",
					"type": "string"
				}
			],
			"name": "elections",
			"outputs": [
				{
					"internalType": "string",
					"name": "title",
					"type": "string"
				},
				{
					"internalType": "string",
					"name": "description",
					"type": "string"
				},
				{
					"internalType": "string",
					"name": "startDate",
					"type": "string"
				},
				{
					"internalType": "string",
					"name": "endDate",
					"type": "string"
				},
				{
					"internalType": "string",
					"name": "electionType",
					"type": "string"
				}
			],
			"stateMutability": "view",
			"type": "function"
		},
		{
			"inputs": [
				{
					"internalType": "uint256",
					"name": "",
					"type": "uint256"
				}
			],
			"name": "faqList",
			"outputs": [
				{
					"internalType": "address",
					"name": "_id",
					"type": "address"
				},
				{
					"internalType": "string",
					"name": "title",
					"type": "string"
				},
				{
					"internalType": "string",
					"name": "description",
					"type": "string"
				},
				{
					"internalType": "string",
					"name": "fileUrl",
					"type": "string"
				},
				{
					"internalType": "string",
					"name": "createdAt",
					"type": "string"
				}
			],
			"stateMutability": "view",
			"type": "function"
		},
		{
			"inputs": [
				{
					"internalType": "address",
					"name": "",
					"type": "address"
				}
			],
			"name": "faqs",
			"outputs": [
				{
					"internalType": "address",
					"name": "_id",
					"type": "address"
				},
				{
					"internalType": "string",
					"name": "title",
					"type": "string"
				},
				{
					"internalType": "string",
					"name": "description",
					"type": "string"
				},
				{
					"internalType": "string",
					"name": "fileUrl",
					"type": "string"
				},
				{
					"internalType": "string",
					"name": "createdAt",
					"type": "string"
				}
			],
			"stateMutability": "view",
			"type": "function"
		},
		{
			"inputs": [
				{
					"internalType": "uint256",
					"name": "",
					"type": "uint256"
				}
			],
			"name": "gender_list",
			"outputs": [
				{
					"internalType": "string",
					"name": "",
					"type": "string"
				}
			],
			"stateMutability": "view",
			"type": "function"
		},
		{
			"inputs": [],
			"name": "getAllCandidates",
			"outputs": [
				{
					"components": [
						{
							"components": [
								{
									"internalType": "address",
									"name": "_id",
									"type": "address"
								},
								{
									"internalType": "string",
									"name": "fullName",
									"type": "string"
								},
								{
									"internalType": "uint256",
									"name": "citizenshipNumber",
									"type": "uint256"
								},
								{
									"internalType": "uint256",
									"name": "age",
									"type": "uint256"
								},
								{
									"internalType": "string",
									"name": "gender",
									"type": "string"
								},
								{
									"internalType": "string",
									"name": "dob",
									"type": "string"
								},
								{
									"internalType": "string",
									"name": "email",
									"type": "string"
								},
								{
									"internalType": "string",
									"name": "profile",
									"type": "string"
								},
								{
									"internalType": "string",
									"name": "province",
									"type": "string"
								},
								{
									"internalType": "string",
									"name": "district",
									"type": "string"
								},
								{
									"internalType": "string",
									"name": "municipality",
									"type": "string"
								},
								{
									"internalType": "string",
									"name": "ward",
									"type": "string"
								}
							],
							"internalType": "struct Structure.User",
							"name": "user",
							"type": "tuple"
						},
						{
							"internalType": "string",
							"name": "partyName",
							"type": "string"
						},
						{
							"internalType": "string",
							"name": "agenda",
							"type": "string"
						},
						{
							"internalType": "uint256",
							"name": "voteCount",
							"type": "uint256"
						},
						{
							"internalType": "address[]",
							"name": "votedVoterLists",
							"type": "address[]"
						}
					],
					"internalType": "struct Structure.Candidate[]",
					"name": "",
					"type": "tuple[]"
				}
			],
			"stateMutability": "view",
			"type": "function"
		},
		{
			"inputs": [],
			"name": "getAllElections",
			"outputs": [
				{
					"components": [
						{
							"internalType": "string",
							"name": "title",
							"type": "string"
						},
						{
							"internalType": "string",
							"name": "description",
							"type": "string"
						},
						{
							"internalType": "string",
							"name": "startDate",
							"type": "string"
						},
						{
							"internalType": "string",
							"name": "endDate",
							"type": "string"
						},
						{
							"internalType": "string",
							"name": "electionType",
							"type": "string"
						},
						{
							"components": [
								{
									"components": [
										{
											"internalType": "address",
											"name": "_id",
											"type": "address"
										},
										{
											"internalType": "string",
											"name": "fullName",
											"type": "string"
										},
										{
											"internalType": "uint256",
											"name": "citizenshipNumber",
											"type": "uint256"
										},
										{
											"internalType": "uint256",
											"name": "age",
											"type": "uint256"
										},
										{
											"internalType": "string",
											"name": "gender",
											"type": "string"
										},
										{
											"internalType": "string",
											"name": "dob",
											"type": "string"
										},
										{
											"internalType": "string",
											"name": "email",
											"type": "string"
										},
										{
											"internalType": "string",
											"name": "profile",
											"type": "string"
										},
										{
											"internalType": "string",
											"name": "province",
											"type": "string"
										},
										{
											"internalType": "string",
											"name": "district",
											"type": "string"
										},
										{
											"internalType": "string",
											"name": "municipality",
											"type": "string"
										},
										{
											"internalType": "string",
											"name": "ward",
											"type": "string"
										}
									],
									"internalType": "struct Structure.User",
									"name": "user",
									"type": "tuple"
								},
								{
									"internalType": "string",
									"name": "partyName",
									"type": "string"
								},
								{
									"internalType": "string",
									"name": "agenda",
									"type": "string"
								},
								{
									"internalType": "uint256",
									"name": "voteCount",
									"type": "uint256"
								},
								{
									"internalType": "address[]",
									"name": "votedVoterLists",
									"type": "address[]"
								}
							],
							"internalType": "struct Structure.Candidate[]",
							"name": "candidates",
							"type": "tuple[]"
						},
						{
							"internalType": "string[]",
							"name": "galleryImagesUrl",
							"type": "string[]"
						}
					],
					"internalType": "struct Structure.Election[]",
					"name": "",
					"type": "tuple[]"
				}
			],
			"stateMutability": "view",
			"type": "function"
		},
		{
			"inputs": [],
			"name": "getAllFAQs",
			"outputs": [
				{
					"components": [
						{
							"internalType": "address",
							"name": "_id",
							"type": "address"
						},
						{
							"internalType": "string",
							"name": "title",
							"type": "string"
						},
						{
							"internalType": "string",
							"name": "description",
							"type": "string"
						},
						{
							"internalType": "string",
							"name": "fileUrl",
							"type": "string"
						},
						{
							"internalType": "string",
							"name": "createdAt",
							"type": "string"
						},
						{
							"components": [
								{
									"internalType": "address",
									"name": "userId",
									"type": "address"
								},
								{
									"internalType": "string",
									"name": "replyMsg",
									"type": "string"
								},
								{
									"internalType": "string",
									"name": "createdAt",
									"type": "string"
								}
							],
							"internalType": "struct Structure.ReplyComment[]",
							"name": "comments",
							"type": "tuple[]"
						}
					],
					"internalType": "struct Structure.FAQ[]",
					"name": "",
					"type": "tuple[]"
				}
			],
			"stateMutability": "view",
			"type": "function"
		},
		{
			"inputs": [],
			"name": "getAllParties",
			"outputs": [
				{
					"components": [
						{
							"internalType": "address",
							"name": "owner",
							"type": "address"
						},
						{
							"internalType": "string",
							"name": "name",
							"type": "string"
						},
						{
							"internalType": "uint256",
							"name": "totalMember",
							"type": "uint256"
						},
						{
							"internalType": "string",
							"name": "agenda",
							"type": "string"
						},
						{
							"internalType": "string",
							"name": "logoUrl",
							"type": "string"
						},
						{
							"internalType": "address[]",
							"name": "members",
							"type": "address[]"
						}
					],
					"internalType": "struct Structure.Party[]",
					"name": "",
					"type": "tuple[]"
				}
			],
			"stateMutability": "view",
			"type": "function"
		},
		{
			"inputs": [],
			"name": "getAllVoters",
			"outputs": [
				{
					"components": [
						{
							"components": [
								{
									"internalType": "address",
									"name": "_id",
									"type": "address"
								},
								{
									"internalType": "string",
									"name": "fullName",
									"type": "string"
								},
								{
									"internalType": "uint256",
									"name": "citizenshipNumber",
									"type": "uint256"
								},
								{
									"internalType": "uint256",
									"name": "age",
									"type": "uint256"
								},
								{
									"internalType": "string",
									"name": "gender",
									"type": "string"
								},
								{
									"internalType": "string",
									"name": "dob",
									"type": "string"
								},
								{
									"internalType": "string",
									"name": "email",
									"type": "string"
								},
								{
									"internalType": "string",
									"name": "profile",
									"type": "string"
								},
								{
									"internalType": "string",
									"name": "province",
									"type": "string"
								},
								{
									"internalType": "string",
									"name": "district",
									"type": "string"
								},
								{
									"internalType": "string",
									"name": "municipality",
									"type": "string"
								},
								{
									"internalType": "string",
									"name": "ward",
									"type": "string"
								}
							],
							"internalType": "struct Structure.User",
							"name": "user",
							"type": "tuple"
						},
						{
							"internalType": "address[]",
							"name": "votedCandidateList",
							"type": "address[]"
						},
						{
							"internalType": "uint256",
							"name": "voteLimitCount",
							"type": "uint256"
						}
					],
					"internalType": "struct Structure.Voter[]",
					"name": "",
					"type": "tuple[]"
				}
			],
			"stateMutability": "view",
			"type": "function"
		},
		{
			"inputs": [
				{
					"internalType": "address",
					"name": "_id",
					"type": "address"
				}
			],
			"name": "getCandidateDetails",
			"outputs": [
				{
					"components": [
						{
							"components": [
								{
									"internalType": "address",
									"name": "_id",
									"type": "address"
								},
								{
									"internalType": "string",
									"name": "fullName",
									"type": "string"
								},
								{
									"internalType": "uint256",
									"name": "citizenshipNumber",
									"type": "uint256"
								},
								{
									"internalType": "uint256",
									"name": "age",
									"type": "uint256"
								},
								{
									"internalType": "string",
									"name": "gender",
									"type": "string"
								},
								{
									"internalType": "string",
									"name": "dob",
									"type": "string"
								},
								{
									"internalType": "string",
									"name": "email",
									"type": "string"
								},
								{
									"internalType": "string",
									"name": "profile",
									"type": "string"
								},
								{
									"internalType": "string",
									"name": "province",
									"type": "string"
								},
								{
									"internalType": "string",
									"name": "district",
									"type": "string"
								},
								{
									"internalType": "string",
									"name": "municipality",
									"type": "string"
								},
								{
									"internalType": "string",
									"name": "ward",
									"type": "string"
								}
							],
							"internalType": "struct Structure.User",
							"name": "user",
							"type": "tuple"
						},
						{
							"internalType": "string",
							"name": "partyName",
							"type": "string"
						},
						{
							"internalType": "string",
							"name": "agenda",
							"type": "string"
						},
						{
							"internalType": "uint256",
							"name": "voteCount",
							"type": "uint256"
						},
						{
							"internalType": "address[]",
							"name": "votedVoterLists",
							"type": "address[]"
						}
					],
					"internalType": "struct Structure.Candidate",
					"name": "",
					"type": "tuple"
				}
			],
			"stateMutability": "view",
			"type": "function"
		},
		{
			"inputs": [
				{
					"internalType": "address",
					"name": "owner",
					"type": "address"
				}
			],
			"name": "getPartyDetails",
			"outputs": [
				{
					"components": [
						{
							"internalType": "address",
							"name": "owner",
							"type": "address"
						},
						{
							"internalType": "string",
							"name": "name",
							"type": "string"
						},
						{
							"internalType": "uint256",
							"name": "totalMember",
							"type": "uint256"
						},
						{
							"internalType": "string",
							"name": "agenda",
							"type": "string"
						},
						{
							"internalType": "string",
							"name": "logoUrl",
							"type": "string"
						},
						{
							"internalType": "address[]",
							"name": "members",
							"type": "address[]"
						}
					],
					"internalType": "struct Structure.Party",
					"name": "",
					"type": "tuple"
				}
			],
			"stateMutability": "view",
			"type": "function"
		},
		{
			"inputs": [
				{
					"internalType": "address",
					"name": "_id",
					"type": "address"
				}
			],
			"name": "getVoterDetails",
			"outputs": [
				{
					"components": [
						{
							"components": [
								{
									"internalType": "address",
									"name": "_id",
									"type": "address"
								},
								{
									"internalType": "string",
									"name": "fullName",
									"type": "string"
								},
								{
									"internalType": "uint256",
									"name": "citizenshipNumber",
									"type": "uint256"
								},
								{
									"internalType": "uint256",
									"name": "age",
									"type": "uint256"
								},
								{
									"internalType": "string",
									"name": "gender",
									"type": "string"
								},
								{
									"internalType": "string",
									"name": "dob",
									"type": "string"
								},
								{
									"internalType": "string",
									"name": "email",
									"type": "string"
								},
								{
									"internalType": "string",
									"name": "profile",
									"type": "string"
								},
								{
									"internalType": "string",
									"name": "province",
									"type": "string"
								},
								{
									"internalType": "string",
									"name": "district",
									"type": "string"
								},
								{
									"internalType": "string",
									"name": "municipality",
									"type": "string"
								},
								{
									"internalType": "string",
									"name": "ward",
									"type": "string"
								}
							],
							"internalType": "struct Structure.User",
							"name": "user",
							"type": "tuple"
						},
						{
							"internalType": "address[]",
							"name": "votedCandidateList",
							"type": "address[]"
						},
						{
							"internalType": "uint256",
							"name": "voteLimitCount",
							"type": "uint256"
						}
					],
					"internalType": "struct Structure.Voter",
					"name": "",
					"type": "tuple"
				}
			],
			"stateMutability": "view",
			"type": "function"
		},
		{
			"inputs": [
				{
					"internalType": "address",
					"name": "_id",
					"type": "address"
				}
			],
			"name": "isAdmin",
			"outputs": [
				{
					"internalType": "bool",
					"name": "",
					"type": "bool"
				}
			],
			"stateMutability": "view",
			"type": "function"
		},
		{
			"inputs": [
				{
					"internalType": "address",
					"name": "",
					"type": "address"
				}
			],
			"name": "parties",
			"outputs": [
				{
					"internalType": "address",
					"name": "owner",
					"type": "address"
				},
				{
					"internalType": "string",
					"name": "name",
					"type": "string"
				},
				{
					"internalType": "uint256",
					"name": "totalMember",
					"type": "uint256"
				},
				{
					"internalType": "string",
					"name": "agenda",
					"type": "string"
				},
				{
					"internalType": "string",
					"name": "logoUrl",
					"type": "string"
				}
			],
			"stateMutability": "view",
			"type": "function"
		},
		{
			"inputs": [
				{
					"internalType": "uint256",
					"name": "",
					"type": "uint256"
				}
			],
			"name": "partyList",
			"outputs": [
				{
					"internalType": "address",
					"name": "owner",
					"type": "address"
				},
				{
					"internalType": "string",
					"name": "name",
					"type": "string"
				},
				{
					"internalType": "uint256",
					"name": "totalMember",
					"type": "uint256"
				},
				{
					"internalType": "string",
					"name": "agenda",
					"type": "string"
				},
				{
					"internalType": "string",
					"name": "logoUrl",
					"type": "string"
				}
			],
			"stateMutability": "view",
			"type": "function"
		},
		{
			"inputs": [
				{
					"internalType": "uint256",
					"name": "",
					"type": "uint256"
				}
			],
			"name": "partyNames",
			"outputs": [
				{
					"internalType": "string",
					"name": "",
					"type": "string"
				}
			],
			"stateMutability": "view",
			"type": "function"
		},
		{
			"inputs": [],
			"name": "totalCandidate",
			"outputs": [
				{
					"internalType": "uint256",
					"name": "",
					"type": "uint256"
				}
			],
			"stateMutability": "view",
			"type": "function"
		},
		{
			"inputs": [],
			"name": "totalElection",
			"outputs": [
				{
					"internalType": "uint256",
					"name": "",
					"type": "uint256"
				}
			],
			"stateMutability": "view",
			"type": "function"
		},
		{
			"inputs": [],
			"name": "totalFemaleVoters",
			"outputs": [
				{
					"internalType": "uint256",
					"name": "",
					"type": "uint256"
				}
			],
			"stateMutability": "view",
			"type": "function"
		},
		{
			"inputs": [],
			"name": "totalMaleVoters",
			"outputs": [
				{
					"internalType": "uint256",
					"name": "",
					"type": "uint256"
				}
			],
			"stateMutability": "view",
			"type": "function"
		},
		{
			"inputs": [],
			"name": "totalOtherVoters",
			"outputs": [
				{
					"internalType": "uint256",
					"name": "",
					"type": "uint256"
				}
			],
			"stateMutability": "view",
			"type": "function"
		},
		{
			"inputs": [],
			"name": "totalParty",
			"outputs": [
				{
					"internalType": "uint256",
					"name": "",
					"type": "uint256"
				}
			],
			"stateMutability": "view",
			"type": "function"
		},
		{
			"inputs": [],
			"name": "totalVoter",
			"outputs": [
				{
					"internalType": "uint256",
					"name": "",
					"type": "uint256"
				}
			],
			"stateMutability": "view",
			"type": "function"
		},
		{
			"inputs": [
				{
					"internalType": "string",
					"name": "_gender",
					"type": "string"
				}
			],
			"name": "updateCounter",
			"outputs": [],
			"stateMutability": "nonpayable",
			"type": "function"
		},
		{
			"inputs": [
				{
					"internalType": "address",
					"name": "_candidateId",
					"type": "address"
				},
				{
					"internalType": "string",
					"name": "electionAddress",
					"type": "string"
				}
			],
			"name": "vote",
			"outputs": [],
			"stateMutability": "payable",
			"type": "function"
		},
		{
			"inputs": [],
			"name": "voteCount",
			"outputs": [
				{
					"internalType": "uint256",
					"name": "",
					"type": "uint256"
				}
			],
			"stateMutability": "view",
			"type": "function"
		},
		{
			"inputs": [
				{
					"internalType": "uint256",
					"name": "",
					"type": "uint256"
				}
			],
			"name": "voterList",
			"outputs": [
				{
					"components": [
						{
							"internalType": "address",
							"name": "_id",
							"type": "address"
						},
						{
							"internalType": "string",
							"name": "fullName",
							"type": "string"
						},
						{
							"internalType": "uint256",
							"name": "citizenshipNumber",
							"type": "uint256"
						},
						{
							"internalType": "uint256",
							"name": "age",
							"type": "uint256"
						},
						{
							"internalType": "string",
							"name": "gender",
							"type": "string"
						},
						{
							"internalType": "string",
							"name": "dob",
							"type": "string"
						},
						{
							"internalType": "string",
							"name": "email",
							"type": "string"
						},
						{
							"internalType": "string",
							"name": "profile",
							"type": "string"
						},
						{
							"internalType": "string",
							"name": "province",
							"type": "string"
						},
						{
							"internalType": "string",
							"name": "district",
							"type": "string"
						},
						{
							"internalType": "string",
							"name": "municipality",
							"type": "string"
						},
						{
							"internalType": "string",
							"name": "ward",
							"type": "string"
						}
					],
					"internalType": "struct Structure.User",
					"name": "user",
					"type": "tuple"
				},
				{
					"internalType": "uint256",
					"name": "voteLimitCount",
					"type": "uint256"
				}
			],
			"stateMutability": "view",
			"type": "function"
		},
		{
			"inputs": [
				{
					"internalType": "uint256",
					"name": "",
					"type": "uint256"
				}
			],
			"name": "voterNames",
			"outputs": [
				{
					"internalType": "string",
					"name": "",
					"type": "string"
				}
			],
			"stateMutability": "view",
			"type": "function"
		},
		{
			"inputs": [
				{
					"internalType": "address",
					"name": "",
					"type": "address"
				}
			],
			"name": "voters",
			"outputs": [
				{
					"components": [
						{
							"internalType": "address",
							"name": "_id",
							"type": "address"
						},
						{
							"internalType": "string",
							"name": "fullName",
							"type": "string"
						},
						{
							"internalType": "uint256",
							"name": "citizenshipNumber",
							"type": "uint256"
						},
						{
							"internalType": "uint256",
							"name": "age",
							"type": "uint256"
						},
						{
							"internalType": "string",
							"name": "gender",
							"type": "string"
						},
						{
							"internalType": "string",
							"name": "dob",
							"type": "string"
						},
						{
							"internalType": "string",
							"name": "email",
							"type": "string"
						},
						{
							"internalType": "string",
							"name": "profile",
							"type": "string"
						},
						{
							"internalType": "string",
							"name": "province",
							"type": "string"
						},
						{
							"internalType": "string",
							"name": "district",
							"type": "string"
						},
						{
							"internalType": "string",
							"name": "municipality",
							"type": "string"
						},
						{
							"internalType": "string",
							"name": "ward",
							"type": "string"
						}
					],
					"internalType": "struct Structure.User",
					"name": "user",
					"type": "tuple"
				},
				{
					"internalType": "uint256",
					"name": "voteLimitCount",
					"type": "uint256"
				}
			],
			"stateMutability": "view",
			"type": "function"
		}
	]
}