{
	"data": {
		"bytecode": {
			"linkReferences": {},
			"object": "608034620002a8576001600160401b03606082018181118382101762000292576040526200002c620002ad565b600490818152602090634d414c4560e01b8282015284526200004d620002ad565b600681526546454d414c4560d01b82820152818501526200006d620002ad565b60068152654f544845525360d01b82820152604085015260009283549460039586865580871062000215575b5084805282852085915b878310620000ea57868087818b8160025555553360018060a01b031960015416176001558060085580600c5580600d55806015556016556040516145829081620003248239f35b80518051908582116200020257908691620001068554620002cd565b90601f91828111620001c7575b50839183116001146200015c579180600195928695948d9262000150575b5050600019828e1b1c191690841b1785555b01920192019190620000a3565b01519050388062000131565b858b52838b209190601f1984168c5b818110620001ae575091600196939185889796941062000195575b505050831b8301855562000143565b0151600019838f1b60f8161c1916905538808062000186565b8284015185558b9660019095019493840193016200016b565b620001f190878d52858d20600585808801821c830193898910620001f8575b01901c01906200030a565b3862000113565b93508293620001e6565b634e487b7160e01b895260418852602489fd5b8580528684872091820191015b81811062000231575062000099565b806200024060019254620002cd565b806200024f575b500162000222565b601f908181118414620002695750508781555b3862000247565b836200028492848c52898c20920160051c820191016200030a565b878681208183555562000262565b634e487b7160e01b600052604160045260246000fd5b600080fd5b60408051919082016001600160401b038111838210176200029257604052565b90600182811c92168015620002ff575b6020831014620002e957565b634e487b7160e01b600052602260045260246000fd5b91607f1691620002dd565b81811062000316575050565b600081556001016200030a56fe608080604052600436101561001357600080fd5b60003560e01c908162da722814612b86575080630273d66e14612b0c578063029c21bd14612aee5780630983f18514612ad05780631812dab414612ab25780631bf533a4146124a95780631d50384b146122ab57806324d7806c146122765780632526e05d14611f845780632d23c73514611ae05780632e6997fe14611a4857806335bbe70e1461195e5780634a3ccc96146118b55780634f2352071461184a57806350e2e8af146117d457806353ac5dc31461174c578063615b6bc5146114c15780636332abc9146114a35780636394a8fa14611449578063640e79b71461133757806369d2bca11461122257806371c693eb1461100d5780637c054c5414610fef5780637fd5f26814610dc25780638287e42f14610d675780638ab66a9014610cd75780638d0371ff14610cb95780639682f9b314610b985780639eda74cf14610889578063a3ec138d1461082b578063a96278ae146107d0578063b0a4ec4214610798578063b13c744b1461063e578063b867bfcc14610554578063ba71bef0146104e5578063c6384071146104c7578063defb908f1461037a578063e9af3fc0146102a7578063f38451661461022d578063f7c4c25a1461020f5763fc6f9468146101e157600080fd5b3461020a57600036600319011261020a576001546040516001600160a01b039091168152602090f35b600080fd5b3461020a57600036600319011261020a576020601554604051908152f35b3461020a57602036600319011261020a5760043560105481101561020a5761028861028f6102a3926010600052604051928380927f1b6847dc741a1b0cd08d278845f9d819d87b734759afb55fe2de5cb82a9ae67201612d47565b0382612e65565b604051918291602083526020830190612c38565b0390f35b606036600319011261020a576102bb612bff565b6001600160401b0360243581811161020a576102db903690600401612edd565b9060443590811161020a576102f4903690600401612edd565b6040519161030183612df8565b3383526020830152604082015260018060a01b038092168060005260126020526005906103348383604060002001613f48565b60005b60145481101561037857818561034c8361330a565b505416146103625761035d9061351d565b610337565b6103789450610371915061330a565b5001613f48565b005b3461020a57602036600319011261020a5760043560135481101561020a576007906013600052026040516103d48161028881857f66de8ffda797e3de9c05e8fc57b3bf0ec28a930d40b0d285d93c06501cf6a09001612d47565b6102a37f66de8ffda797e3de9c05e8fc57b3bf0ec28a930d40b0d285d93c06501cf6a094604051936104338561042c817f66de8ffda797e3de9c05e8fc57b3bf0ec28a930d40b0d285d93c06501cf6a0918501612d47565b0386612e65565b60405161046681610288817f66de8ffda797e3de9c05e8fc57b3bf0ec28a930d40b0d285d93c06501cf6a0928601612d47565b6104bb604051926104a48461049d817f66de8ffda797e3de9c05e8fc57b3bf0ec28a930d40b0d285d93c06501cf6a0938501612d47565b0385612e65565b6104b46040518096819301612d47565b0384612e65565b60405195869586613125565b3461020a57600036600319011261020a576020600d54604051908152f35b3461020a57602036600319011261020a576104fe612bff565b60006040805161050d81612df8565b6105156142ed565b815260606020820152015260018060a01b031660005260096020526102a36105406040600020614501565b6040519182916020835260208301906130f0565b3461020a57600036600319011261020a57600f54610571816132db565b9061057f6040519283612e65565b8082526020908183019081600f6000527f8d1108e10bcb7c27dddfc02ed9d693a074039d026cf4ea4240b40f7d581ac8026000915b83831061061b5750505050604051918083019381845251809452604083019360408160051b85010192916000955b8287106105ef5785850386f35b90919293828061060b600193603f198a82030186528851612c9a565b96019201960195929190926105e2565b60068660019261062d859a999a614349565b8152019201920191909594956105b4565b3461020a57602036600319011261020a5760043560065481101561020a57600660005260120261068f7ff652222313e28459528d920b65115c16c04f3efc82aaedc97be59f3f377c0d3f82016131cd565b6102a3604051926106c68461049d817ff652222313e28459528d920b65115c16c04f3efc82aaedc97be59f3f377c0d4b8501612d47565b60405190610701826106fa817ff652222313e28459528d920b65115c16c04f3efc82aaedc97be59f3f377c0d4c8501612d47565b0383612e65565b60405161073481610288817ff652222313e28459528d920b65115c16c04f3efc82aaedc97be59f3f377c0d4d8601612d47565b7ff652222313e28459528d920b65115c16c04f3efc82aaedc97be59f3f377c0d4f604051926107898461049d817ff652222313e28459528d920b65115c16c04f3efc82aaedc97be59f3f377c0d4e8501612d47565b01549260405196879687613428565b3461020a57602036600319011261020a576004356001600160401b03811161020a576107cb610378913690600401612edd565b613f7b565b3461020a57602036600319011261020a57600435600b5481101561020a5761028861028f6102a392600b600052604051928380927f0175b7a638427703f0dbe7bb9bbf987a2551717b34e79f33b5b1008d1fa01db901612d47565b3461020a57602036600319011261020a576001600160a01b0361084c612bff565b16600052600960205261087f6040600020600d610868826131cd565b910154604051928392604084526040840190612f33565b9060208301520390f35b6101608060031936011261020a576001600160401b0360043581811161020a576108b7903690600401612edd565b9060643581811161020a576108d0903690600401612edd565b9160843582811161020a576108e9903690600401612edd565b9160a43581811161020a57610902903690600401612edd565b9460c43582811161020a5761091b903690600401612edd565b60e43583811161020a57610933903690600401612edd565b6101043584811161020a5761094c903690600401612edd565b916101243585811161020a57610966903690600401612edd565b946101443590811161020a57610980903690600401612edd565b983360005260209760098952600260406000200154610b53576109a28b613f7b565b604051996109af8b612e13565b338b52888a8c015260249b8c3560408d015260443560608d015260808c015260a08b015260c08a015260e0890152610100880152610120870152610140860152840152604051926109ff84612df8565b8352606082840152600060408401523360005260098252610a248360406000206143cc565b600b54600160401b9182821015610b3e576001820180600b55821015610b2957610a7491600b6000527f0175b7a638427703f0dbe7bb9bbf987a2551717b34e79f33b5b1008d1fa01db9016136ca565b600a5490811015610b1457806001610a8f9201600a55613192565b610aff5782610a9d916143cc565b600c5460018101809111610aea577ff59a1b8573db02cf501c11c9d7d88b5365a59bdf0555cfd387db21cfcaccf4da9350600c55610ae56040519282849384528301906130f0565b0390a1005b83634e487b7160e01b60005260116004526000fd5b83634e487b7160e01b60005260006004526000fd5b83634e487b7160e01b60005260416004526000fd5b85634e487b7160e01b60005260326004526000fd5b85634e487b7160e01b60005260416004526000fd5b60405162461bcd60e51b8152600481018a9052601a60248201527f566f74657220616c7265616479207265676973746572656420210000000000006044820152606490fd5b3461020a57602036600319011261020a5760043560145481101561020a5760069060146000520260018060a01b03817fce6d7b5282bd9a3661ae061feed1dbda4e52ab073b1f9285be6e155d9c38d4ec0154166102a37fce6d7b5282bd9a3661ae061feed1dbda4e52ab073b1f9285be6e155d9c38d4f060405193610c438561042c817fce6d7b5282bd9a3661ae061feed1dbda4e52ab073b1f9285be6e155d9c38d4ed8501612d47565b604051610c7681610288817fce6d7b5282bd9a3661ae061feed1dbda4e52ab073b1f9285be6e155d9c38d4ee8601612d47565b610cad604051926104a48461049d817fce6d7b5282bd9a3661ae061feed1dbda4e52ab073b1f9285be6e155d9c38d4ef8501612d47565b60405195869586612e86565b3461020a57600036600319011261020a576020601654604051908152f35b3461020a57602036600319011261020a576001600160a01b03610cf8612bff565b1660005260056020526040600020610d0f816131cd565b6102a360405192610d278461049d81600c8501612d47565b60405190610d3c826106fa81600d8501612d47565b604051610d508161028881600e8601612d47565b6010604051926107898461049d81600f8501612d47565b3461020a57602036600319011261020a5760043560075481101561020a5761028861028f6102a3926007600052604051928380927fa66cc928b5edb82af9bd49922954155ab7b0942694bea4ce44661d9a8736c68801612d47565b3461020a57600036600319011261020a57601354610ddf816132db565b90610ded6040519283612e65565b80825260208201908160136000527f66de8ffda797e3de9c05e8fc57b3bf0ec28a930d40b0d285d93c06501cf6a0906000915b838310610e8e57848660405191829160208301906020845251809152604083019060408160051b85010192916000905b828210610e5f57505050500390f35b91936001919395506020610e7e8192603f198a82030186528851613345565b9601920192018594939192610e50565b604051610e9a81612e2f565b604051610eab816102888187612d47565b8152604051610ec1816102888160018801612d47565b6020820152604051610eda816102888160028801612d47565b6040820152604051610ef3816102888160038801612d47565b6060820152604051610f0c816102888160048801612d47565b6080820152600583018054610f20816132db565b91610f2e6040519384612e65565b81835260208301906000526020600020906000905b838210610fd1575050505060a0820152600683018054610f62816132db565b91610f706040519384612e65565b81835260208301906000526020600020906000905b838210610fac57505050506001928260209260c06007950152815201920192019190610e20565b600160208192604051610fc381610288818a612d47565b815201930191019091610f85565b60126020600192610fe186613d0e565b815201930191019091610f43565b3461020a57600036600319011261020a576020600354604051908152f35b60c036600319011261020a576001600160401b0360043581811161020a57611039903690600401612edd565b602491823581811161020a57611053903690600401612edd565b9160443582811161020a5761106c903690600401612edd565b60643583811161020a57611084903690600401612edd565b60843584811161020a5761109c903690600401612edd565b60a4359185831161020a573660238401121561020a578260040135926110c1846132db565b936110cf6040519586612e65565b8085526020978a8987019260051b8401019236841161020a5790818c8b9998979695949301925b8484106111e9578d8d8b6111748e611165838f8f8f8f61112160018060a01b03600154163314613658565b604051998a9761113089612e2f565b88528588015283604088015260608701526080860152606060a086015260c08501528160405193828580945193849201612c15565b81016011815203019020613a7a565b601354600160401b811015610b145780600161119392016013556134e2565b610aff57826111a191613a7a565b60165460018101809111610aea577f9c8794a23f33dde2007342c154e928effe9f52147c9bc50bd6c201ef0636cd739350601655610ae5604051928284938452830190613345565b90919280949596979899503583811161020a578b9161120f8f9284933691870101612edd565b815201930191908a9897969594936110f6565b608036600319011261020a576001600160401b0360043581811161020a5761124e903690600401612edd565b9060243581811161020a57611267903690600401612edd565b9060443581811161020a57611280903690600401612edd565b9060643590811161020a57611299903690600401612edd565b91604051936112a785612ddd565b3385526020850152604084015260608301526080820152606060a08201523360005260126020526112dc816040600020613e13565b601454600160401b811015611321578060016112fb920160145561330a565b91909161130b5761037891613e13565b634e487b7160e01b600052600060045260246000fd5b634e487b7160e01b600052604160045260246000fd5b3461020a57602036600319011261020a57600435600f5481101561020a57600690600f6000520260018060a01b03817f8d1108e10bcb7c27dddfc02ed9d693a074039d026cf4ea4240b40f7d581ac8020154166102a37f8d1108e10bcb7c27dddfc02ed9d693a074039d026cf4ea4240b40f7d581ac806604051936113e28561042c817f8d1108e10bcb7c27dddfc02ed9d693a074039d026cf4ea4240b40f7d581ac8038501612d47565b7f8d1108e10bcb7c27dddfc02ed9d693a074039d026cf4ea4240b40f7d581ac80481015461143d604051926104a48461049d817f8d1108e10bcb7c27dddfc02ed9d693a074039d026cf4ea4240b40f7d581ac8058501612d47565b60405195869586613156565b3461020a57602036600319011261020a5760043560005481101561020a5761028861028f6102a39260008052604051928380927f290decd9548b62a8d60345a988386fc84ba6bc95484008f6362f93160ef3e56301612d47565b3461020a57600036600319011261020a576020600c54604051908152f35b60608060031936011261020a576001600160401b0360043581811161020a573660238201121561020a5780600401356114f9816132db565b906115076040519283612e65565b8082526020928383019060249182600594851b8301019136831161020a57838101915b8383106116c457505050503584811161020a5761154b903690600401612edd565b9360443590811161020a57611567909594953690600401612edd565b9460018060a01b0390600180978197611584858454163314613658565b6000888501935b611648575b5050506000975b61159d57005b601354881015610378576115bc60026115b58a6134e2565b500161356c565b86815191012082518220146115db576115d5879861351d565b97611597565b5050846000905b6115e857005b83518110156103785780826116006116429387613cfa565b51511660005283865261163d6116196040600020613d0e565b876116248489613cfa565b5101516040820152856116368b6134e2565b5001613da9565b61351d565b856115e2565b87518110156116bf5780866116606116b9938b613cfa565b515116600052878a5261163d6116796040600020613d0e565b8b611684848d613cfa565b51015160408201528585820152896116a98d898b604051938492839251928391612c15565b8101601181520301902001613da9565b8961158b565b611590565b823589811161020a5782016040602319823603011261020a5760405191604083018381108c82111761173757604052818701356001600160a01b038116810361020a5783526044820135928b841161020a576117288b949389869536920101612edd565b8382015281520192019161152a565b87634e487b7160e01b60005260416004526000fd5b3461020a57602036600319011261020a57611765612bff565b60405161177181612e2f565b6117796142ed565b815260c06060918260208201528260408201528280820152826080820152600060a0820152015260018060a01b031660005260056020526102a36117c06040600020613d0e565b60405191829160208352602083019061301e565b3461020a57602036600319011261020a57600435600a5481101561020a57600e61087f91600a600052027fc65a7bb8d6351c1cf70c95a316cc6a92839c986682d98bc35f958f4883f9d2b5610868827fc65a7bb8d6351c1cf70c95a316cc6a92839c986682d98bc35f958f4883f9d2a8016131cd565b3461020a57602036600319011261020a576001600160a01b038061186c612bff565b16600052600e6020526040600020908154166102a36004604051936118988561042c8160018501612d47565b600281015461143d604051926104a48461049d8160038501612d47565b3461020a57602036600319011261020a576004356001600160401b03811161020a5760206118ea6118fd923690600401612edd565b8160405193828580945193849201612c15565b81016011815203019020604051611918816102888185612d47565b6102a36004604051936119328561042c8160018501612d47565b604051611946816102888160028601612d47565b6104bb604051926104a48461049d8160038501612d47565b3461020a57600036600319011261020a57600a5461197b816132db565b906119896040519283612e65565b8082526020908183019081600a6000527fc65a7bb8d6351c1cf70c95a316cc6a92839c986682d98bc35f958f4883f9d2a86000915b838310611a255750505050604051918083019381845251809452604083019360408160051b85010192916000955b8287106119f95785850386f35b909192938280611a15600193603f198a820301865288516130f0565b96019201960195929190926119ec565b600e86600192611a37859a999a614501565b8152019201920191909594956119be565b3461020a57600036600319011261020a57600654611a65816132db565b90611a736040519283612e65565b80825260209081830160066000527ff652222313e28459528d920b65115c16c04f3efc82aaedc97be59f3f377c0d3f836000925b848410611ac157604051828152806102a38185018a613094565b600191601291611ad085613d0e565b8152019201920191908490611aa7565b6101a036600319011261020a576004356001600160401b03811161020a57611b0c903690600401612edd565b6064356001600160401b03811161020a57611b2b903690600401612edd565b906084356001600160401b03811161020a57611b4b903690600401612edd565b9160a4356001600160401b03811161020a57611b6b903690600401612edd565b60c4356001600160401b03811161020a57611b8a903690600401612edd565b9060e4356001600160401b03811161020a57611baa903690600401612edd565b91610104356001600160401b03811161020a57611bcb903690600401612edd565b610124356001600160401b03811161020a57611beb903690600401612edd565b90610144356001600160401b03811161020a57611c0c903690600401612edd565b92610164356001600160401b03811161020a57611c2d903690600401612edd565b946001600160401b03610184351161020a57611c4f3661018435600401612edd565b33600081815260056020526040902054919b916001600160a01b031614611f3f5760065460005b818110611e32575050611c888b613f7b565b6040519a611c958c612e13565b338c528a60208d015260243560408d015260443560608d015260808c015260a08b015260c08a015260e089015261010088015261012087015261014086015261016085015260405193611ce785612e2f565b84526020840152604051611cfa81612e4a565b600081526040840152604051611d0f81612e4a565b6000815260608401526080830152600060a0830152606060c0830152336000526005602052611d42826040600020613904565b600754600160401b9182821015611321576001820180600755821015611e1c57611d929160076000527fa66cc928b5edb82af9bd49922954155ab7b0942694bea4ce44661d9a8736c688016136ca565b6006549081101561132157806001611dad920160065561348b565b61130b5781611dbb91613904565b60085460018101809111611e06577fbd7813b4659b0614f61b410071fd949aa054d01b83458e9418da207fa0a1526091610ae59160085560405191829160208352602083019061301e565b634e487b7160e01b600052601160045260246000fd5b634e487b7160e01b600052603260045260246000fd5b611e3b8161348b565b506002015460243514611ed457611e5660066115b58361348b565b602081519101208451602086012014611e7757611e729061351d565b611c76565b60405162461bcd60e51b815260206004820152602f60248201527f43616e646964617465207769746820676976656e20656d61696c20616c72656160448201526e64792072656769737465726564202160881b6064820152608490fd5b60405162461bcd60e51b815260206004820152603960248201527f43616e646964617465207769746820676976656e20436974697a656e7368697060448201527f204e6f2e20616c726561647920726567697374657265642021000000000000006064820152608490fd5b60405162461bcd60e51b815260206004820152601e60248201527f43616e64696461746520616c72656164792072656769737465726564202100006044820152606490fd5b3461020a57600036600319011261020a57601454611fa1816132db565b90611faf6040519283612e65565b80825260208201908160146000527fce6d7b5282bd9a3661ae061feed1dbda4e52ab073b1f9285be6e155d9c38d4ec6000915b8383106121425784866040519182916020830190602084525180915260408301906005604082821b86010193926000915b8383106120205786860387f35b919395509193603f1987820301835285519060018060a01b039081835116815261206d61205b602085015160c0806020860152840190612c38565b60408501518382036040850152612c38565b9061209a6120876060938487015184820386860152612c38565b6080808701519084830390850152612c38565b9060a08095015194818303910152835190818152602081019260208084891b8401019601946000915b8483106120e9575050505050505060208060019297019301930190928695949293612013565b90919293949596602080612133600193601f19898203018b528b5190878251168152604061212285840151898785015289840190612c38565b920151906040818403910152612c38565b990197019594930191906120c3565b60405161214e81612ddd565b82546001600160a01b0316815260405161216f816102888160018801612d47565b6020820152604051612188816102888160028801612d47565b60408201526040516121a1816102888160038801612d47565b60608201526040516121ba816102888160048801612d47565b608082015260058301546121cd816132db565b906121db6040519283612e65565b80825260208201600586016000526020600020906000905b83821061221a57505050506001928260209260a06006950152815201920192019190611fe2565b6003602060019260405161222d81612df8565b848060a01b03875416815260405161224b8161028881898c01612d47565b83820152604051612263816102888160028c01612d47565b60408201528152019301910190916121f3565b3461020a57602036600319011261020a576020612291612bff565b6001546040516001600160a01b0392831691909216148152f35b608036600319011261020a576001600160401b0360043581811161020a576122d7903690600401612edd565b9060443581811161020a576122f0903690600401612edd565b9060643590811161020a57612309903690600401612edd565b6001549092906001600160a01b0316612323338214613658565b6040519361233085612ddd565b8185528260208601526024938435604087015260608601526080850152606060a0850152600052600e60205261236a836040600020613802565b60105490600160401b9182811015610b1457600181018060105581101561249457906123bc9160106000527f1b6847dc741a1b0cd08d278845f9d819d87b734759afb55fe2de5cb82a9ae672016136ca565b600f549081101561247f576001810180600f5581101561246a5782600661240a92600f600052027f8d1108e10bcb7c27dddfc02ed9d693a074039d026cf4ea4240b40f7d581ac80201613802565b6015549060018201809211612456577fa9842a716bc2513f613d9faf736ca365fe3689a18ea2c3ef8bb9402c98a060c1610ae58484601555604051918291602083526020830190612c9a565b634e487b7160e01b60009081526011600452fd5b50634e487b7160e01b60009081526032600452fd5b50634e487b7160e01b60009081526041600452fd5b83634e487b7160e01b60005260326004526000fd5b604036600319011261020a576124bd612bff565b6024356001600160401b03811161020a576124dc903690600401612edd565b9060018060a01b03600154163314612a6d5760065460005b818110612a005750503360005260096020526003600d60406000200154116129ad5760005b6001600160a01b03821660009081526005602052604090206011908101548210156125b9578161254e916040600020016132f2565b905460039190911b1c6001600160a01b031633146125745761256f9061351d565b612519565b60405162461bcd60e51b815260206004820152601860248201527f596f75206861766520616c726561647920766f746564202100000000000000006044820152606490fd5b505060018060a01b03811660005260056020526125dd33601160406000200161352c565b3360005260096020526125f781600c60406000200161352c565b6001600160a01b038116600090815260056020526040902060100154600181018111611e0657600190818060a01b038316600052600560205201601060406000200155612645600d5461453e565b600d5560005b60135481101561272f5761266360026115b5836134e2565b602081519101208351602085012014612685575b6126809061351d565b61264b565b9160005b6005612694856134e2565b50015481101561272857806126b86126d19260056126b1886134e2565b50016134c6565b50546001600160a01b038581169116146126d65761351d565b612689565b6126f36126e88260056126b1896134e2565b50601133910161352c565b61270f60106127078360056126b18a6134e2565b50015461453e565b60106127208360056126b18a6134e2565b50015561351d565b5091612677565b5060005b600654811015612774578061274a6127639261348b565b50546001600160a01b038481169116146127685761351d565b612733565b61163d6126e88261348b565b5060005b600a548110156127c0578061278f6127a592613192565b50546001600160a01b031633146127aa5761351d565b612778565b61163d83600c6127b984613192565b500161352c565b503360005260096020526127db600d6040600020015461453e565b336000526009602052600d6040600020015560018060a01b031660005260056020527f8290914339d7365303a413cd92c24712459932b4210891839d929fafd3dd37bf610ae560406000206040519182916020835260e0602084015260018060a01b0381541661010084015260116129366101808061012087015261292261290e6128fa6128e66128d26128be6128aa8a8d6101606003612883610280840160018601612d47565b93600281015461014085015201549101528d60ff19998a8284030191015260048c01612d47565b8c810388016101a08e015260058b01612d47565b868c8203016101c08d015260068a01612d47565b858b8203016101e08c015260078901612d47565b848a8203016102008b015260088801612d47565b83898203016102208a015260098701612d47565b8288820301610240890152600a8601612d47565b9086820301610260870152600b8401612d47565b9161299361298061296d61295a601f1996878a82030160408b0152600c8601612d47565b868982030160608a0152600d8501612d47565b85888203016080890152600e8401612d47565b848782030160a0880152600f8301612d47565b92601082015460c08701528584030160e086015201613612565b60405162461bcd60e51b815260206004820152602560248201527f596f752068617665206578636565642074686520766f7465206361737465206c60448201526434b6b4ba1760d91b6064820152608490fd5b612a098161348b565b50546001600160a01b03163314612a2857612a239061351d565b6124f4565b60405162461bcd60e51b815260206004820152601f60248201527f43616e64696461746520697320726573747269637420746f20766f74652021006044820152606490fd5b60405162461bcd60e51b815260206004820152601b60248201527f41646d696e20697320726573747269637420746f20766f7465202100000000006044820152606490fd5b3461020a57600036600319011261020a576020600854604051908152f35b3461020a57600036600319011261020a576020600454604051908152f35b3461020a57600036600319011261020a576020600254604051908152f35b3461020a57602036600319011261020a576001600160a01b0380612b2e612bff565b1660005260126020526040600020908154166102a3600460405193612b5a8561042c8160018501612d47565b604051612b6e816102888160028601612d47565b610cad604051926104a48461049d8160038501612d47565b3461020a57602036600319011261020a57606060a0612ba3612bff565b92612bad81612ddd565b60008152826020820152600060408201528280820152826080820152015260018060a01b0316600052600e6020526102a3612beb6040600020614349565b604051918291602083526020830190612c9a565b600435906001600160a01b038216820361020a57565b60005b838110612c285750506000910152565b8181015183820152602001612c18565b90602091612c5181518092818552858086019101612c15565b601f01601f1916010190565b90815180825260208080930193019160005b828110612c7d575050505090565b83516001600160a01b031685529381019392810192600101612c6f565b612d0a9160018060a01b03825116815260a0612cf9612ce7612ccb602086015160c0602087015260c0860190612c38565b6040860151604086015260608601518582036060870152612c38565b60808501518482036080860152612c38565b9201519060a0818403910152612c5d565b90565b90600182811c92168015612d3d575b6020831014612d2757565b634e487b7160e01b600052602260045260246000fd5b91607f1691612d1c565b9060009291805491612d5883612d0d565b918282526001938481169081600014612dba5750600114612d7a575b50505050565b90919394506000526020928360002092846000945b838610612da6575050505001019038808080612d74565b805485870183015294019385908201612d8f565b9294505050602093945060ff191683830152151560051b01019038808080612d74565b60c081019081106001600160401b0382111761132157604052565b606081019081106001600160401b0382111761132157604052565b61018081019081106001600160401b0382111761132157604052565b60e081019081106001600160401b0382111761132157604052565b602081019081106001600160401b0382111761132157604052565b90601f801991011681019081106001600160401b0382111761132157604052565b9390612d0a9593612eb3612ecf94612ec19360018060a01b0316885260a0602089015260a0880190612c38565b908682036040880152612c38565b908482036060860152612c38565b916080818403910152612c38565b81601f8201121561020a578035906001600160401b0382116113215760405192612f11601f8401601f191660200185612e65565b8284526020838301011161020a57816000926020809301838601378301015290565b90612d0a9160018060a01b03815116825261300a612ff6612fe2612fce612fbc612faa612f98612f7260208901516101808060208d01528b0190612c38565b604089015160408b0152606089015160608b015260808901518a820360808c0152612c38565b60a088015189820360a08b0152612c38565b60c087015188820360c08a0152612c38565b60e086015187820360e0890152612c38565b610100808601519087830390880152612c38565b610120808501519086830390870152612c38565b610140808401519085830390860152612c38565b916101608092015191818403910152612c38565b612d0a9160c0613079612ce7613067613055613043875160e0885260e0880190612f33565b60208801518782036020890152612c38565b60408701518682036040880152612c38565b60608601518582036060870152612c38565b9260a081015160a084015201519060c0818403910152612c5d565b908082519081815260208091019281808460051b8301019501936000915b8483106130c25750505050505090565b90919293949584806130e0600193601f198682030187528a5161301e565b98019301930191949392906130b2565b9060408061311c61310a8551606086526060860190612f33565b60208601518582036020870152612c5d565b93015191015290565b9390612d0a9593612eb3612ecf94613148612ec19460a08a5260a08a0190612c38565b9088820360208a0152612c38565b9361317f612ecf93612d0a97959360018060a01b0316875260a0602088015260a0870190612c38565b9160408601528482036060860152612c38565b600a54811015611e1c57600e90600a600052027fc65a7bb8d6351c1cf70c95a316cc6a92839c986682d98bc35f958f4883f9d2a80190600090565b90600b6101606040936132d78551916131e583612e13565b6104b4839760018060a01b0383541685528051613209816102888160018801612d47565b6020860152600283015481860152600383015460608601528051613234816102888160048801612d47565b6080860152805161324c816102888160058801612d47565b60a08601528051613264816102888160068801612d47565b60c0860152805161327c816102888160078801612d47565b60e08601528051613294816102888160088801612d47565b61010086015280516132ad816102888160098801612d47565b61012086015280516132c68161028881600a8801612d47565b610140860152518096819301612d47565b0152565b6001600160401b0381116113215760051b60200190565b8054821015611e1c5760005260206000200190600090565b601454811015611e1c576006906014600052027fce6d7b5282bd9a3661ae061feed1dbda4e52ab073b1f9285be6e155d9c38d4ec0190600090565b613358815160e0845260e0840190612c38565b60c06133c46133b26133a061338e61337c602096878901518a8203898c0152612c38565b604088015189820360408b0152612c38565b606087015188820360608a0152612c38565b60808601518782036080890152612c38565b60a085015186820360a0880152613094565b9201519260c08184039101528251908183528083019281808460051b8301019501936000915b8483106133fa5750505050505090565b9091929394958480613418600193601f198682030187528a51612c38565b98019301930191949392906133ea565b969594919361346a6134869461345c60a09761344e6134789660c08e8181520190612f33565b8c810360208e015290612c38565b908a820360408c0152612c38565b9088820360608a0152612c38565b908682036080880152612c38565b930152565b600654811015611e1c576012906006600052027ff652222313e28459528d920b65115c16c04f3efc82aaedc97be59f3f377c0d3f0190600090565b8054821015611e1c576000526012602060002091020190600090565b601354811015611e1c576007906013600052027f66de8ffda797e3de9c05e8fc57b3bf0ec28a930d40b0d285d93c06501cf6a0900190600090565b6000198114611e065760010190565b8054600160401b81101561132157613549916001820181556132f2565b819291549060031b9160018060a01b039283811b93849216901b16911916179055565b906040519182600082549261358084612d0d565b9081845260019485811690816000146135ef57506001146135ac575b50506135aa92500383612e65565b565b9093915060005260209081600020936000915b8183106135d75750506135aa9350820101388061359c565b855488840185015294850194879450918301916135bf565b9150506135aa94506020925060ff191682840152151560051b820101388061359c565b90815480825260208092019260005281600020916000905b828210613638575050505090565b83546001600160a01b03168552938401936001938401939091019061362a565b1561365f57565b60405162461bcd60e51b815260206004820152602660248201527f4f6e6c792061646d696e2063616e20696e766f6b6520746869732066756e6374604482015265696f6e73202160d01b6064820152608490fd5b8181106136be575050565b600081556001016136b3565b91909182516001600160401b038111611321576136e78254612d0d565b601f8111613791575b50602080601f831160011461372d575081929394600092613722575b50508160011b916000199060031b1c1916179055565b01519050388061370c565b90601f198316958460005282600020926000905b88821061377957505083600195969710613760575b505050811b019055565b015160001960f88460031b161c19169055388080613756565b80600185968294968601518155019501930190613741565b6137be90836000526020600020601f840160051c810191602085106137c4575b601f0160051c01906136b3565b386136f0565b90915081906137b1565b90600160401b8111611321578154908083558181106137ec57505050565b6135aa92600052602060002091820191016136b3565b9060018060a01b0390818151166001600160601b0360a01b84541617835560209160a06005848401519561383a6001978883016136ca565b604085015160028201556138556060860151600383016136ca565b6138666080860151600483016136ca565b01920151928351936001600160401b03851161132157819061388886866137ce565b0192600052806000209160005b8581106138a55750505050505050565b8451821684820155938201938601613895565b6138c28154612d0d565b90816138cc575050565b81601f600093116001146138de575055565b818352602083206138fa91601f0160051c8101906001016136b3565b8160208120915555565b81519160018060a01b03808451166001600160601b0360a01b84541617835560c060116020946139db610160878901519861394360019a8b86016136ca565b60408101516002850155606081015160038501556139686080820151600486016136ca565b61397960a0820151600586016136ca565b61398986820151600686016136ca565b61399a60e0820151600786016136ca565b6139ac610100820151600886016136ca565b6139be610120820151600986016136ca565b6139d0610140820151600a86016136ca565b0151600b83016136ca565b6139eb86860151600c83016136ca565b6139fc6040860151600d83016136ca565b613a0d6060860151600e83016136ca565b613a1e6080860151600f83016136ca565b60a0850151601082015501920151928351936001600160401b038511611321578190613a4a86866137ce565b0192600052806000209160005b858110613a675750505050505050565b8451821684820155938201938601613a57565b613a858251826136ca565b613a966020830151600183016136ca565b604082015190613aaa6002928383016136ca565b606083015191613abe6003938484016136ca565b613acf6080850151600484016136ca565b60a084015190815193600160401b851161132157600584015491856005860155828610613bd3575b505050602001916000926005830184526020842084915b838310613bb55750505050600660c0910192015191825192600160401b8411613ba1578154848355808510613b74575b50908252602080832091015b838310613b575750505050565b6001602082613b68839451866136ca565b01920192019190613b4a565b828452846020852091820191015b818110613b8f5750613b3e565b80613b9b6001926138b8565b01613b82565b634e487b7160e01b83526041600452602483fd5b6012602082613bc76001945186613904565b01920192019190613b0e565b82601202926012840403611e06578560120292601284048703611e06576005860160005260206000209384015b8185018110613c10575050613af7565b80600060129255613c23600182016138b8565b600084820155600085820155613c3b600482016138b8565b613c47600582016138b8565b613c53600682016138b8565b613c5f600782016138b8565b613c6b600882016138b8565b613c77600982016138b8565b613c83600a82016138b8565b613c8f600b82016138b8565b613c9b600c82016138b8565b613ca7600d82016138b8565b613cb3600e82016138b8565b613cbf600f82016138b8565b600060108201556011810180546000825580613cde575b505001613c00565b613cf3916000526020600020908101906136b3565b3880613cd6565b8051821015611e1c5760209160051b010190565b90601160c06040936132d7855191613d2583612e2f565b6104b48397613d33836131cd565b85528051613d488161028881600c8801612d47565b60208601528051613d608161028881600d8801612d47565b818601528051613d778161028881600e8801612d47565b60608601528051613d8f8161028881600f8801612d47565b6080860152601083015460a0860152518096819301613612565b8054600160401b81101561132157613dc6916001820181556134c6565b91909161130b576135aa91613904565b600260406135aa9360018060a01b038151166001600160601b0360a01b855416178455613e0a6020820151600186016136ca565b015191016136ca565b60018060a01b038251166001600160601b0360a01b8254161781556020908183015192613e446001948584016136ca565b604081015192613e586002948585016136ca565b60a06005606084015194613e706003968783016136ca565b613e816080860151600483016136ca565b0192015193845194600160401b86116113215783548685558392818810613edd575b50500191600052806000206000925b858410613ec25750505050505050565b848382613ed18a945186613dd6565b01920193019290613eb2565b908092935086029186830403611e06578686028681048803611e06576000868152858120869594810193928991015b848110613f1b57505050613ea3565b90918093949596508155613f308b82016138b8565b613f3b8482016138b8565b0190878695949392613f0c565b908154600160401b8110156113215760018101808455811015611e1c576135aa9260005260036020600020910201613dd6565b8051906020918282019081209060009283549283156142d9579085929185805260405186907f290decd9548b62a8d60345a988386fc84ba6bc95484008f6362f93160ef3e56381815493613fce85612d0d565b928383528983019560019d8e821691826000146142bb575050600114614260575b50613ffc92500382612e65565b5190200361402f575050505060025491820180921161401b5750600255565b634e487b7160e01b81526011600452602490fd5b805182208487101561424c578580528660405187817f290decd9548b62a8d60345a988386fc84ba6bc95484008f6362f93160ef3e5649182549261407284612d0d565b938484528a808501978216918260001461422e5750506001146141d3575b5061409d92500382612e65565b519020036140bc575050505060035491820180921161401b5750600355565b51902091600210156141bf578280526040518391817f290decd9548b62a8d60345a988386fc84ba6bc95484008f6362f93160ef3e565938454946140ff86612d0d565b90818452848401968a811690816000146141a15750600114614149575b505061412a92500382612e65565b51902014614136575050565b60045491820180921161401b5750600455565b8852879150887f63d75db57ae45c3799740c3cd8dcee96a498324843d79ae390adc81d74b52f135b82841061418a575050509161412a92820101388061411c565b8054878501870152869450928501928a9101614171565b91505061412a94925060ff19168652151560051b820101388061411c565b634e487b7160e01b83526032600452602483fd5b8b5250829050878a8c7f6c13d8c1c5df666ea9ca2a428504a3776c8ca01021c3a1524ca7d765f600979a5b85831061421557505061409d935082010138614090565b80919294505483858801015201910188908c85936141fe565b60ff1916885261409d95151560051b85010192503891506140909050565b634e487b7160e01b86526032600452602486fd5b8b5250829050878a8c7f510e4e770828ddbf7f7b00ab00a9f6adaf81c0dc9cc85f1f8249c256942d61d95b8583106142a2575050613ffc935082010138613fef565b80919294505483858801015201910188908c859361428b565b60ff19168852613ffc95151560051b8501019250389150613fef9050565b634e487b7160e01b85526032600452602485fd5b604051906142fa82612e13565b8160008152610160606091826020820152600060408201526000838201528260808201528260a08201528260c08201528260e08201528261010082015282610120820152826101408201520152565b90600560a06040936132d785519161436083612ddd565b6104b48397600180871b0383541685528051614383816102888160018801612d47565b602086015260028301548186015280516143a4816102888160038801612d47565b606086015280516143bc816102888160048801612d47565b6080860152518096819301613612565b90805160018060a01b03808251166001600160601b0360a01b8554161784556020906144a06101608385015194614407600196878a016136ca565b604081015160028901556060810151600389015561442c608082015160048a016136ca565b61443d60a082015160058a016136ca565b61444e60c082015160068a016136ca565b61445f60e082015160078a016136ca565b61447161010082015160088a016136ca565b61448361012082015160098a016136ca565b614495610140820151600a8a016136ca565b0151600b87016136ca565b600c85019082850151928351936001600160401b0385116113215781906144c786866137ce565b0192600052806000209160005b8581106144ee57505050505050506040600d910151910155565b84518216848201559382019386016144d4565b9060405161450e81612df8565b6040600d829461451d816131cd565b845282516145328161028881600c8601613612565b60208501520154910152565b9060018201809211611e065756fea2646970667358221220f3d1e4038c1c30404cb3d3e9c8828593cb50003b97922a39d4ae737c48ef8f2864736f6c63430008110033",
			"opcodes": "PUSH1 0x80 CALLVALUE PUSH3 0x2A8 JUMPI PUSH1 0x1 PUSH1 0x1 PUSH1 0x40 SHL SUB PUSH1 0x60 DUP3 ADD DUP2 DUP2 GT DUP4 DUP3 LT OR PUSH3 0x292 JUMPI PUSH1 0x40 MSTORE PUSH3 0x2C PUSH3 0x2AD JUMP JUMPDEST PUSH1 0x4 SWAP1 DUP2 DUP2 MSTORE PUSH1 0x20 SWAP1 PUSH4 0x4D414C45 PUSH1 0xE0 SHL DUP3 DUP3 ADD MSTORE DUP5 MSTORE PUSH3 0x4D PUSH3 0x2AD JUMP JUMPDEST PUSH1 0x6 DUP2 MSTORE PUSH6 0x46454D414C45 PUSH1 0xD0 SHL DUP3 DUP3 ADD MSTORE DUP2 DUP6 ADD MSTORE PUSH3 0x6D PUSH3 0x2AD JUMP JUMPDEST PUSH1 0x6 DUP2 MSTORE PUSH6 0x4F5448455253 PUSH1 0xD0 SHL DUP3 DUP3 ADD MSTORE PUSH1 0x40 DUP6 ADD MSTORE PUSH1 0x0 SWAP3 DUP4 SLOAD SWAP5 PUSH1 0x3 SWAP6 DUP7 DUP7 SSTORE DUP1 DUP8 LT PUSH3 0x215 JUMPI JUMPDEST POP DUP5 DUP1 MSTORE DUP3 DUP6 KECCAK256 DUP6 SWAP2 JUMPDEST DUP8 DUP4 LT PUSH3 0xEA JUMPI DUP7 DUP1 DUP8 DUP2 DUP12 DUP2 PUSH1 0x2 SSTORE SSTORE SSTORE CALLER PUSH1 0x1 DUP1 PUSH1 0xA0 SHL SUB NOT PUSH1 0x1 SLOAD AND OR PUSH1 0x1 SSTORE DUP1 PUSH1 0x8 SSTORE DUP1 PUSH1 0xC SSTORE DUP1 PUSH1 0xD SSTORE DUP1 PUSH1 0x15 SSTORE PUSH1 0x16 SSTORE PUSH1 0x40 MLOAD PUSH2 0x4582 SWAP1 DUP2 PUSH3 0x324 DUP3 CODECOPY RETURN JUMPDEST DUP1 MLOAD DUP1 MLOAD SWAP1 DUP6 DUP3 GT PUSH3 0x202 JUMPI SWAP1 DUP7 SWAP2 PUSH3 0x106 DUP6 SLOAD PUSH3 0x2CD JUMP JUMPDEST SWAP1 PUSH1 0x1F SWAP2 DUP3 DUP2 GT PUSH3 0x1C7 JUMPI JUMPDEST POP DUP4 SWAP2 DUP4 GT PUSH1 0x1 EQ PUSH3 0x15C JUMPI SWAP2 DUP1 PUSH1 0x1 SWAP6 SWAP3 DUP7 SWAP6 SWAP5 DUP14 SWAP3 PUSH3 0x150 JUMPI JUMPDEST POP POP PUSH1 0x0 NOT DUP3 DUP15 SHL SHR NOT AND SWAP1 DUP5 SHL OR DUP6 SSTORE JUMPDEST ADD SWAP3 ADD SWAP3 ADD SWAP2 SWAP1 PUSH3 0xA3 JUMP JUMPDEST ADD MLOAD SWAP1 POP CODESIZE DUP1 PUSH3 0x131 JUMP JUMPDEST DUP6 DUP12 MSTORE DUP4 DUP12 KECCAK256 SWAP2 SWAP1 PUSH1 0x1F NOT DUP5 AND DUP13 JUMPDEST DUP2 DUP2 LT PUSH3 0x1AE JUMPI POP SWAP2 PUSH1 0x1 SWAP7 SWAP4 SWAP2 DUP6 DUP9 SWAP8 SWAP7 SWAP5 LT PUSH3 0x195 JUMPI JUMPDEST POP POP POP DUP4 SHL DUP4 ADD DUP6 SSTORE PUSH3 0x143 JUMP JUMPDEST ADD MLOAD PUSH1 0x0 NOT DUP4 DUP16 SHL PUSH1 0xF8 AND SHR NOT AND SWAP1 SSTORE CODESIZE DUP1 DUP1 PUSH3 0x186 JUMP JUMPDEST DUP3 DUP5 ADD MLOAD DUP6 SSTORE DUP12 SWAP7 PUSH1 0x1 SWAP1 SWAP6 ADD SWAP5 SWAP4 DUP5 ADD SWAP4 ADD PUSH3 0x16B JUMP JUMPDEST PUSH3 0x1F1 SWAP1 DUP8 DUP14 MSTORE DUP6 DUP14 KECCAK256 PUSH1 0x5 DUP6 DUP1 DUP9 ADD DUP3 SHR DUP4 ADD SWAP4 DUP10 DUP10 LT PUSH3 0x1F8 JUMPI JUMPDEST ADD SWAP1 SHR ADD SWAP1 PUSH3 0x30A JUMP JUMPDEST CODESIZE PUSH3 0x113 JUMP JUMPDEST SWAP4 POP DUP3 SWAP4 PUSH3 0x1E6 JUMP JUMPDEST PUSH4 0x4E487B71 PUSH1 0xE0 SHL DUP10 MSTORE PUSH1 0x41 DUP9 MSTORE PUSH1 0x24 DUP10 REVERT JUMPDEST DUP6 DUP1 MSTORE DUP7 DUP5 DUP8 KECCAK256 SWAP2 DUP3 ADD SWAP2 ADD JUMPDEST DUP2 DUP2 LT PUSH3 0x231 JUMPI POP PUSH3 0x99 JUMP JUMPDEST DUP1 PUSH3 0x240 PUSH1 0x1 SWAP3 SLOAD PUSH3 0x2CD JUMP JUMPDEST DUP1 PUSH3 0x24F JUMPI JUMPDEST POP ADD PUSH3 0x222 JUMP JUMPDEST PUSH1 0x1F SWAP1 DUP2 DUP2 GT DUP5 EQ PUSH3 0x269 JUMPI POP POP DUP8 DUP2 SSTORE JUMPDEST CODESIZE PUSH3 0x247 JUMP JUMPDEST DUP4 PUSH3 0x284 SWAP3 DUP5 DUP13 MSTORE DUP10 DUP13 KECCAK256 SWAP3 ADD PUSH1 0x5 SHR DUP3 ADD SWAP2 ADD PUSH3 0x30A JUMP JUMPDEST DUP8 DUP7 DUP2 KECCAK256 DUP2 DUP4 SSTORE SSTORE PUSH3 0x262 JUMP JUMPDEST PUSH4 0x4E487B71 PUSH1 0xE0 SHL PUSH1 0x0 MSTORE PUSH1 0x41 PUSH1 0x4 MSTORE PUSH1 0x24 PUSH1 0x0 REVERT JUMPDEST PUSH1 0x0 DUP1 REVERT JUMPDEST PUSH1 0x40 DUP1 MLOAD SWAP2 SWAP1 DUP3 ADD PUSH1 0x1 PUSH1 0x1 PUSH1 0x40 SHL SUB DUP2 GT DUP4 DUP3 LT OR PUSH3 0x292 JUMPI PUSH1 0x40 MSTORE JUMP JUMPDEST SWAP1 PUSH1 0x1 DUP3 DUP2 SHR SWAP3 AND DUP1 ISZERO PUSH3 0x2FF JUMPI JUMPDEST PUSH1 0x20 DUP4 LT EQ PUSH3 0x2E9 JUMPI JUMP JUMPDEST PUSH4 0x4E487B71 PUSH1 0xE0 SHL PUSH1 0x0 MSTORE PUSH1 0x22 PUSH1 0x4 MSTORE PUSH1 0x24 PUSH1 0x0 REVERT JUMPDEST SWAP2 PUSH1 0x7F AND SWAP2 PUSH3 0x2DD JUMP JUMPDEST DUP2 DUP2 LT PUSH3 0x316 JUMPI POP POP JUMP JUMPDEST PUSH1 0x0 DUP2 SSTORE PUSH1 0x1 ADD PUSH3 0x30A JUMP INVALID PUSH1 0x80 DUP1 PUSH1 0x40 MSTORE PUSH1 0x4 CALLDATASIZE LT ISZERO PUSH2 0x13 JUMPI PUSH1 0x0 DUP1 REVERT JUMPDEST PUSH1 0x0 CALLDATALOAD PUSH1 0xE0 SHR SWAP1 DUP2 PUSH3 0xDA7228 EQ PUSH2 0x2B86 JUMPI POP DUP1 PUSH4 0x273D66E EQ PUSH2 0x2B0C JUMPI DUP1 PUSH4 0x29C21BD EQ PUSH2 0x2AEE JUMPI DUP1 PUSH4 0x983F185 EQ PUSH2 0x2AD0 JUMPI DUP1 PUSH4 0x1812DAB4 EQ PUSH2 0x2AB2 JUMPI DUP1 PUSH4 0x1BF533A4 EQ PUSH2 0x24A9 JUMPI DUP1 PUSH4 0x1D50384B EQ PUSH2 0x22AB JUMPI DUP1 PUSH4 0x24D7806C EQ PUSH2 0x2276 JUMPI DUP1 PUSH4 0x2526E05D EQ PUSH2 0x1F84 JUMPI DUP1 PUSH4 0x2D23C735 EQ PUSH2 0x1AE0 JUMPI DUP1 PUSH4 0x2E6997FE EQ PUSH2 0x1A48 JUMPI DUP1 PUSH4 0x35BBE70E EQ PUSH2 0x195E JUMPI DUP1 PUSH4 0x4A3CCC96 EQ PUSH2 0x18B5 JUMPI DUP1 PUSH4 0x4F235207 EQ PUSH2 0x184A JUMPI DUP1 PUSH4 0x50E2E8AF EQ PUSH2 0x17D4 JUMPI DUP1 PUSH4 0x53AC5DC3 EQ PUSH2 0x174C JUMPI DUP1 PUSH4 0x615B6BC5 EQ PUSH2 0x14C1 JUMPI DUP1 PUSH4 0x6332ABC9 EQ PUSH2 0x14A3 JUMPI DUP1 PUSH4 0x6394A8FA EQ PUSH2 0x1449 JUMPI DUP1 PUSH4 0x640E79B7 EQ PUSH2 0x1337 JUMPI DUP1 PUSH4 0x69D2BCA1 EQ PUSH2 0x1222 JUMPI DUP1 PUSH4 0x71C693EB EQ PUSH2 0x100D JUMPI DUP1 PUSH4 0x7C054C54 EQ PUSH2 0xFEF JUMPI DUP1 PUSH4 0x7FD5F268 EQ PUSH2 0xDC2 JUMPI DUP1 PUSH4 0x8287E42F EQ PUSH2 0xD67 JUMPI DUP1 PUSH4 0x8AB66A90 EQ PUSH2 0xCD7 JUMPI DUP1 PUSH4 0x8D0371FF EQ PUSH2 0xCB9 JUMPI DUP1 PUSH4 0x9682F9B3 EQ PUSH2 0xB98 JUMPI DUP1 PUSH4 0x9EDA74CF EQ PUSH2 0x889 JUMPI DUP1 PUSH4 0xA3EC138D EQ PUSH2 0x82B JUMPI DUP1 PUSH4 0xA96278AE EQ PUSH2 0x7D0 JUMPI DUP1 PUSH4 0xB0A4EC42 EQ PUSH2 0x798 JUMPI DUP1 PUSH4 0xB13C744B EQ PUSH2 0x63E JUMPI DUP1 PUSH4 0xB867BFCC EQ PUSH2 0x554 JUMPI DUP1 PUSH4 0xBA71BEF0 EQ PUSH2 0x4E5 JUMPI DUP1 PUSH4 0xC6384071 EQ PUSH2 0x4C7 JUMPI DUP1 PUSH4 0xDEFB908F EQ PUSH2 0x37A JUMPI DUP1 PUSH4 0xE9AF3FC0 EQ PUSH2 0x2A7 JUMPI DUP1 PUSH4 0xF3845166 EQ PUSH2 0x22D JUMPI DUP1 PUSH4 0xF7C4C25A EQ PUSH2 0x20F JUMPI PUSH4 0xFC6F9468 EQ PUSH2 0x1E1 JUMPI PUSH1 0x0 DUP1 REVERT JUMPDEST CALLVALUE PUSH2 0x20A JUMPI PUSH1 0x0 CALLDATASIZE PUSH1 0x3 NOT ADD SLT PUSH2 0x20A JUMPI PUSH1 0x1 SLOAD PUSH1 0x40 MLOAD PUSH1 0x1 PUSH1 0x1 PUSH1 0xA0 SHL SUB SWAP1 SWAP2 AND DUP2 MSTORE PUSH1 0x20 SWAP1 RETURN JUMPDEST PUSH1 0x0 DUP1 REVERT JUMPDEST CALLVALUE PUSH2 0x20A JUMPI PUSH1 0x0 CALLDATASIZE PUSH1 0x3 NOT ADD SLT PUSH2 0x20A JUMPI PUSH1 0x20 PUSH1 0x15 SLOAD PUSH1 0x40 MLOAD SWAP1 DUP2 MSTORE RETURN JUMPDEST CALLVALUE PUSH2 0x20A JUMPI PUSH1 0x20 CALLDATASIZE PUSH1 0x3 NOT ADD SLT PUSH2 0x20A JUMPI PUSH1 0x4 CALLDATALOAD PUSH1 0x10 SLOAD DUP2 LT ISZERO PUSH2 0x20A JUMPI PUSH2 0x288 PUSH2 0x28F PUSH2 0x2A3 SWAP3 PUSH1 0x10 PUSH1 0x0 MSTORE PUSH1 0x40 MLOAD SWAP3 DUP4 DUP1 SWAP3 PUSH32 0x1B6847DC741A1B0CD08D278845F9D819D87B734759AFB55FE2DE5CB82A9AE672 ADD PUSH2 0x2D47 JUMP JUMPDEST SUB DUP3 PUSH2 0x2E65 JUMP JUMPDEST PUSH1 0x40 MLOAD SWAP2 DUP3 SWAP2 PUSH1 0x20 DUP4 MSTORE PUSH1 0x20 DUP4 ADD SWAP1 PUSH2 0x2C38 JUMP JUMPDEST SUB SWAP1 RETURN JUMPDEST PUSH1 0x60 CALLDATASIZE PUSH1 0x3 NOT ADD SLT PUSH2 0x20A JUMPI PUSH2 0x2BB PUSH2 0x2BFF JUMP JUMPDEST PUSH1 0x1 PUSH1 0x1 PUSH1 0x40 SHL SUB PUSH1 0x24 CALLDATALOAD DUP2 DUP2 GT PUSH2 0x20A JUMPI PUSH2 0x2DB SWAP1 CALLDATASIZE SWAP1 PUSH1 0x4 ADD PUSH2 0x2EDD JUMP JUMPDEST SWAP1 PUSH1 0x44 CALLDATALOAD SWAP1 DUP2 GT PUSH2 0x20A JUMPI PUSH2 0x2F4 SWAP1 CALLDATASIZE SWAP1 PUSH1 0x4 ADD PUSH2 0x2EDD JUMP JUMPDEST PUSH1 0x40 MLOAD SWAP2 PUSH2 0x301 DUP4 PUSH2 0x2DF8 JUMP JUMPDEST CALLER DUP4 MSTORE PUSH1 0x20 DUP4 ADD MSTORE PUSH1 0x40 DUP3 ADD MSTORE PUSH1 0x1 DUP1 PUSH1 0xA0 SHL SUB DUP1 SWAP3 AND DUP1 PUSH1 0x0 MSTORE PUSH1 0x12 PUSH1 0x20 MSTORE PUSH1 0x5 SWAP1 PUSH2 0x334 DUP4 DUP4 PUSH1 0x40 PUSH1 0x0 KECCAK256 ADD PUSH2 0x3F48 JUMP JUMPDEST PUSH1 0x0 JUMPDEST PUSH1 0x14 SLOAD DUP2 LT ISZERO PUSH2 0x378 JUMPI DUP2 DUP6 PUSH2 0x34C DUP4 PUSH2 0x330A JUMP JUMPDEST POP SLOAD AND EQ PUSH2 0x362 JUMPI PUSH2 0x35D SWAP1 PUSH2 0x351D JUMP JUMPDEST PUSH2 0x337 JUMP JUMPDEST PUSH2 0x378 SWAP5 POP PUSH2 0x371 SWAP2 POP PUSH2 0x330A JUMP JUMPDEST POP ADD PUSH2 0x3F48 JUMP JUMPDEST STOP JUMPDEST CALLVALUE PUSH2 0x20A JUMPI PUSH1 0x20 CALLDATASIZE PUSH1 0x3 NOT ADD SLT PUSH2 0x20A JUMPI PUSH1 0x4 CALLDATALOAD PUSH1 0x13 SLOAD DUP2 LT ISZERO PUSH2 0x20A JUMPI PUSH1 0x7 SWAP1 PUSH1 0x13 PUSH1 0x0 MSTORE MUL PUSH1 0x40 MLOAD PUSH2 0x3D4 DUP2 PUSH2 0x288 DUP2 DUP6 PUSH32 0x66DE8FFDA797E3DE9C05E8FC57B3BF0EC28A930D40B0D285D93C06501CF6A090 ADD PUSH2 0x2D47 JUMP JUMPDEST PUSH2 0x2A3 PUSH32 0x66DE8FFDA797E3DE9C05E8FC57B3BF0EC28A930D40B0D285D93C06501CF6A094 PUSH1 0x40 MLOAD SWAP4 PUSH2 0x433 DUP6 PUSH2 0x42C DUP2 PUSH32 0x66DE8FFDA797E3DE9C05E8FC57B3BF0EC28A930D40B0D285D93C06501CF6A091 DUP6 ADD PUSH2 0x2D47 JUMP JUMPDEST SUB DUP7 PUSH2 0x2E65 JUMP JUMPDEST PUSH1 0x40 MLOAD PUSH2 0x466 DUP2 PUSH2 0x288 DUP2 PUSH32 0x66DE8FFDA797E3DE9C05E8FC57B3BF0EC28A930D40B0D285D93C06501CF6A092 DUP7 ADD PUSH2 0x2D47 JUMP JUMPDEST PUSH2 0x4BB PUSH1 0x40 MLOAD SWAP3 PUSH2 0x4A4 DUP5 PUSH2 0x49D DUP2 PUSH32 0x66DE8FFDA797E3DE9C05E8FC57B3BF0EC28A930D40B0D285D93C06501CF6A093 DUP6 ADD PUSH2 0x2D47 JUMP JUMPDEST SUB DUP6 PUSH2 0x2E65 JUMP JUMPDEST PUSH2 0x4B4 PUSH1 0x40 MLOAD DUP1 SWAP7 DUP2 SWAP4 ADD PUSH2 0x2D47 JUMP JUMPDEST SUB DUP5 PUSH2 0x2E65 JUMP JUMPDEST PUSH1 0x40 MLOAD SWAP6 DUP7 SWAP6 DUP7 PUSH2 0x3125 JUMP JUMPDEST CALLVALUE PUSH2 0x20A JUMPI PUSH1 0x0 CALLDATASIZE PUSH1 0x3 NOT ADD SLT PUSH2 0x20A JUMPI PUSH1 0x20 PUSH1 0xD SLOAD PUSH1 0x40 MLOAD SWAP1 DUP2 MSTORE RETURN JUMPDEST CALLVALUE PUSH2 0x20A JUMPI PUSH1 0x20 CALLDATASIZE PUSH1 0x3 NOT ADD SLT PUSH2 0x20A JUMPI PUSH2 0x4FE PUSH2 0x2BFF JUMP JUMPDEST PUSH1 0x0 PUSH1 0x40 DUP1 MLOAD PUSH2 0x50D DUP2 PUSH2 0x2DF8 JUMP JUMPDEST PUSH2 0x515 PUSH2 0x42ED JUMP JUMPDEST DUP2 MSTORE PUSH1 0x60 PUSH1 0x20 DUP3 ADD MSTORE ADD MSTORE PUSH1 0x1 DUP1 PUSH1 0xA0 SHL SUB AND PUSH1 0x0 MSTORE PUSH1 0x9 PUSH1 0x20 MSTORE PUSH2 0x2A3 PUSH2 0x540 PUSH1 0x40 PUSH1 0x0 KECCAK256 PUSH2 0x4501 JUMP JUMPDEST PUSH1 0x40 MLOAD SWAP2 DUP3 SWAP2 PUSH1 0x20 DUP4 MSTORE PUSH1 0x20 DUP4 ADD SWAP1 PUSH2 0x30F0 JUMP JUMPDEST CALLVALUE PUSH2 0x20A JUMPI PUSH1 0x0 CALLDATASIZE PUSH1 0x3 NOT ADD SLT PUSH2 0x20A JUMPI PUSH1 0xF SLOAD PUSH2 0x571 DUP2 PUSH2 0x32DB JUMP JUMPDEST SWAP1 PUSH2 0x57F PUSH1 0x40 MLOAD SWAP3 DUP4 PUSH2 0x2E65 JUMP JUMPDEST DUP1 DUP3 MSTORE PUSH1 0x20 SWAP1 DUP2 DUP4 ADD SWAP1 DUP2 PUSH1 0xF PUSH1 0x0 MSTORE PUSH32 0x8D1108E10BCB7C27DDDFC02ED9D693A074039D026CF4EA4240B40F7D581AC802 PUSH1 0x0 SWAP2 JUMPDEST DUP4 DUP4 LT PUSH2 0x61B JUMPI POP POP POP POP PUSH1 0x40 MLOAD SWAP2 DUP1 DUP4 ADD SWAP4 DUP2 DUP5 MSTORE MLOAD DUP1 SWAP5 MSTORE PUSH1 0x40 DUP4 ADD SWAP4 PUSH1 0x40 DUP2 PUSH1 0x5 SHL DUP6 ADD ADD SWAP3 SWAP2 PUSH1 0x0 SWAP6 JUMPDEST DUP3 DUP8 LT PUSH2 0x5EF JUMPI DUP6 DUP6 SUB DUP7 RETURN JUMPDEST SWAP1 SWAP2 SWAP3 SWAP4 DUP3 DUP1 PUSH2 0x60B PUSH1 0x1 SWAP4 PUSH1 0x3F NOT DUP11 DUP3 SUB ADD DUP7 MSTORE DUP9 MLOAD PUSH2 0x2C9A JUMP JUMPDEST SWAP7 ADD SWAP3 ADD SWAP7 ADD SWAP6 SWAP3 SWAP2 SWAP1 SWAP3 PUSH2 0x5E2 JUMP JUMPDEST PUSH1 0x6 DUP7 PUSH1 0x1 SWAP3 PUSH2 0x62D DUP6 SWAP11 SWAP10 SWAP11 PUSH2 0x4349 JUMP JUMPDEST DUP2 MSTORE ADD SWAP3 ADD SWAP3 ADD SWAP2 SWAP1 SWAP6 SWAP5 SWAP6 PUSH2 0x5B4 JUMP JUMPDEST CALLVALUE PUSH2 0x20A JUMPI PUSH1 0x20 CALLDATASIZE PUSH1 0x3 NOT ADD SLT PUSH2 0x20A JUMPI PUSH1 0x4 CALLDATALOAD PUSH1 0x6 SLOAD DUP2 LT ISZERO PUSH2 0x20A JUMPI PUSH1 0x6 PUSH1 0x0 MSTORE PUSH1 0x12 MUL PUSH2 0x68F PUSH32 0xF652222313E28459528D920B65115C16C04F3EFC82AAEDC97BE59F3F377C0D3F DUP3 ADD PUSH2 0x31CD JUMP JUMPDEST PUSH2 0x2A3 PUSH1 0x40 MLOAD SWAP3 PUSH2 0x6C6 DUP5 PUSH2 0x49D DUP2 PUSH32 0xF652222313E28459528D920B65115C16C04F3EFC82AAEDC97BE59F3F377C0D4B DUP6 ADD PUSH2 0x2D47 JUMP JUMPDEST PUSH1 0x40 MLOAD SWAP1 PUSH2 0x701 DUP3 PUSH2 0x6FA DUP2 PUSH32 0xF652222313E28459528D920B65115C16C04F3EFC82AAEDC97BE59F3F377C0D4C DUP6 ADD PUSH2 0x2D47 JUMP JUMPDEST SUB DUP4 PUSH2 0x2E65 JUMP JUMPDEST PUSH1 0x40 MLOAD PUSH2 0x734 DUP2 PUSH2 0x288 DUP2 PUSH32 0xF652222313E28459528D920B65115C16C04F3EFC82AAEDC97BE59F3F377C0D4D DUP7 ADD PUSH2 0x2D47 JUMP JUMPDEST PUSH32 0xF652222313E28459528D920B65115C16C04F3EFC82AAEDC97BE59F3F377C0D4F PUSH1 0x40 MLOAD SWAP3 PUSH2 0x789 DUP5 PUSH2 0x49D DUP2 PUSH32 0xF652222313E28459528D920B65115C16C04F3EFC82AAEDC97BE59F3F377C0D4E DUP6 ADD PUSH2 0x2D47 JUMP JUMPDEST ADD SLOAD SWAP3 PUSH1 0x40 MLOAD SWAP7 DUP8 SWAP7 DUP8 PUSH2 0x3428 JUMP JUMPDEST CALLVALUE PUSH2 0x20A JUMPI PUSH1 0x20 CALLDATASIZE PUSH1 0x3 NOT ADD SLT PUSH2 0x20A JUMPI PUSH1 0x4 CALLDATALOAD PUSH1 0x1 PUSH1 0x1 PUSH1 0x40 SHL SUB DUP2 GT PUSH2 0x20A JUMPI PUSH2 0x7CB PUSH2 0x378 SWAP2 CALLDATASIZE SWAP1 PUSH1 0x4 ADD PUSH2 0x2EDD JUMP JUMPDEST PUSH2 0x3F7B JUMP JUMPDEST CALLVALUE PUSH2 0x20A JUMPI PUSH1 0x20 CALLDATASIZE PUSH1 0x3 NOT ADD SLT PUSH2 0x20A JUMPI PUSH1 0x4 CALLDATALOAD PUSH1 0xB SLOAD DUP2 LT ISZERO PUSH2 0x20A JUMPI PUSH2 0x288 PUSH2 0x28F PUSH2 0x2A3 SWAP3 PUSH1 0xB PUSH1 0x0 MSTORE PUSH1 0x40 MLOAD SWAP3 DUP4 DUP1 SWAP3 PUSH32 0x175B7A638427703F0DBE7BB9BBF987A2551717B34E79F33B5B1008D1FA01DB9 ADD PUSH2 0x2D47 JUMP JUMPDEST CALLVALUE PUSH2 0x20A JUMPI PUSH1 0x20 CALLDATASIZE PUSH1 0x3 NOT ADD SLT PUSH2 0x20A JUMPI PUSH1 0x1 PUSH1 0x1 PUSH1 0xA0 SHL SUB PUSH2 0x84C PUSH2 0x2BFF JUMP JUMPDEST AND PUSH1 0x0 MSTORE PUSH1 0x9 PUSH1 0x20 MSTORE PUSH2 0x87F PUSH1 0x40 PUSH1 0x0 KECCAK256 PUSH1 0xD PUSH2 0x868 DUP3 PUSH2 0x31CD JUMP JUMPDEST SWAP2 ADD SLOAD PUSH1 0x40 MLOAD SWAP3 DUP4 SWAP3 PUSH1 0x40 DUP5 MSTORE PUSH1 0x40 DUP5 ADD SWAP1 PUSH2 0x2F33 JUMP JUMPDEST SWAP1 PUSH1 0x20 DUP4 ADD MSTORE SUB SWAP1 RETURN JUMPDEST PUSH2 0x160 DUP1 PUSH1 0x3 NOT CALLDATASIZE ADD SLT PUSH2 0x20A JUMPI PUSH1 0x1 PUSH1 0x1 PUSH1 0x40 SHL SUB PUSH1 0x4 CALLDATALOAD DUP2 DUP2 GT PUSH2 0x20A JUMPI PUSH2 0x8B7 SWAP1 CALLDATASIZE SWAP1 PUSH1 0x4 ADD PUSH2 0x2EDD JUMP JUMPDEST SWAP1 PUSH1 0x64 CALLDATALOAD DUP2 DUP2 GT PUSH2 0x20A JUMPI PUSH2 0x8D0 SWAP1 CALLDATASIZE SWAP1 PUSH1 0x4 ADD PUSH2 0x2EDD JUMP JUMPDEST SWAP2 PUSH1 0x84 CALLDATALOAD DUP3 DUP2 GT PUSH2 0x20A JUMPI PUSH2 0x8E9 SWAP1 CALLDATASIZE SWAP1 PUSH1 0x4 ADD PUSH2 0x2EDD JUMP JUMPDEST SWAP2 PUSH1 0xA4 CALLDATALOAD DUP2 DUP2 GT PUSH2 0x20A JUMPI PUSH2 0x902 SWAP1 CALLDATASIZE SWAP1 PUSH1 0x4 ADD PUSH2 0x2EDD JUMP JUMPDEST SWAP5 PUSH1 0xC4 CALLDATALOAD DUP3 DUP2 GT PUSH2 0x20A JUMPI PUSH2 0x91B SWAP1 CALLDATASIZE SWAP1 PUSH1 0x4 ADD PUSH2 0x2EDD JUMP JUMPDEST PUSH1 0xE4 CALLDATALOAD DUP4 DUP2 GT PUSH2 0x20A JUMPI PUSH2 0x933 SWAP1 CALLDATASIZE SWAP1 PUSH1 0x4 ADD PUSH2 0x2EDD JUMP JUMPDEST PUSH2 0x104 CALLDATALOAD DUP5 DUP2 GT PUSH2 0x20A JUMPI PUSH2 0x94C SWAP1 CALLDATASIZE SWAP1 PUSH1 0x4 ADD PUSH2 0x2EDD JUMP JUMPDEST SWAP2 PUSH2 0x124 CALLDATALOAD DUP6 DUP2 GT PUSH2 0x20A JUMPI PUSH2 0x966 SWAP1 CALLDATASIZE SWAP1 PUSH1 0x4 ADD PUSH2 0x2EDD JUMP JUMPDEST SWAP5 PUSH2 0x144 CALLDATALOAD SWAP1 DUP2 GT PUSH2 0x20A JUMPI PUSH2 0x980 SWAP1 CALLDATASIZE SWAP1 PUSH1 0x4 ADD PUSH2 0x2EDD JUMP JUMPDEST SWAP9 CALLER PUSH1 0x0 MSTORE PUSH1 0x20 SWAP8 PUSH1 0x9 DUP10 MSTORE PUSH1 0x2 PUSH1 0x40 PUSH1 0x0 KECCAK256 ADD SLOAD PUSH2 0xB53 JUMPI PUSH2 0x9A2 DUP12 PUSH2 0x3F7B JUMP JUMPDEST PUSH1 0x40 MLOAD SWAP10 PUSH2 0x9AF DUP12 PUSH2 0x2E13 JUMP JUMPDEST CALLER DUP12 MSTORE DUP9 DUP11 DUP13 ADD MSTORE PUSH1 0x24 SWAP12 DUP13 CALLDATALOAD PUSH1 0x40 DUP14 ADD MSTORE PUSH1 0x44 CALLDATALOAD PUSH1 0x60 DUP14 ADD MSTORE PUSH1 0x80 DUP13 ADD MSTORE PUSH1 0xA0 DUP12 ADD MSTORE PUSH1 0xC0 DUP11 ADD MSTORE PUSH1 0xE0 DUP10 ADD MSTORE PUSH2 0x100 DUP9 ADD MSTORE PUSH2 0x120 DUP8 ADD MSTORE PUSH2 0x140 DUP7 ADD MSTORE DUP5 ADD MSTORE PUSH1 0x40 MLOAD SWAP3 PUSH2 0x9FF DUP5 PUSH2 0x2DF8 JUMP JUMPDEST DUP4 MSTORE PUSH1 0x60 DUP3 DUP5 ADD MSTORE PUSH1 0x0 PUSH1 0x40 DUP5 ADD MSTORE CALLER PUSH1 0x0 MSTORE PUSH1 0x9 DUP3 MSTORE PUSH2 0xA24 DUP4 PUSH1 0x40 PUSH1 0x0 KECCAK256 PUSH2 0x43CC JUMP JUMPDEST PUSH1 0xB SLOAD PUSH1 0x1 PUSH1 0x40 SHL SWAP2 DUP3 DUP3 LT ISZERO PUSH2 0xB3E JUMPI PUSH1 0x1 DUP3 ADD DUP1 PUSH1 0xB SSTORE DUP3 LT ISZERO PUSH2 0xB29 JUMPI PUSH2 0xA74 SWAP2 PUSH1 0xB PUSH1 0x0 MSTORE PUSH32 0x175B7A638427703F0DBE7BB9BBF987A2551717B34E79F33B5B1008D1FA01DB9 ADD PUSH2 0x36CA JUMP JUMPDEST PUSH1 0xA SLOAD SWAP1 DUP2 LT ISZERO PUSH2 0xB14 JUMPI DUP1 PUSH1 0x1 PUSH2 0xA8F SWAP3 ADD PUSH1 0xA SSTORE PUSH2 0x3192 JUMP JUMPDEST PUSH2 0xAFF JUMPI DUP3 PUSH2 0xA9D SWAP2 PUSH2 0x43CC JUMP JUMPDEST PUSH1 0xC SLOAD PUSH1 0x1 DUP2 ADD DUP1 SWAP2 GT PUSH2 0xAEA JUMPI PUSH32 0xF59A1B8573DB02CF501C11C9D7D88B5365A59BDF0555CFD387DB21CFCACCF4DA SWAP4 POP PUSH1 0xC SSTORE PUSH2 0xAE5 PUSH1 0x40 MLOAD SWAP3 DUP3 DUP5 SWAP4 DUP5 MSTORE DUP4 ADD SWAP1 PUSH2 0x30F0 JUMP JUMPDEST SUB SWAP1 LOG1 STOP JUMPDEST DUP4 PUSH4 0x4E487B71 PUSH1 0xE0 SHL PUSH1 0x0 MSTORE PUSH1 0x11 PUSH1 0x4 MSTORE PUSH1 0x0 REVERT JUMPDEST DUP4 PUSH4 0x4E487B71 PUSH1 0xE0 SHL PUSH1 0x0 MSTORE PUSH1 0x0 PUSH1 0x4 MSTORE PUSH1 0x0 REVERT JUMPDEST DUP4 PUSH4 0x4E487B71 PUSH1 0xE0 SHL PUSH1 0x0 MSTORE PUSH1 0x41 PUSH1 0x4 MSTORE PUSH1 0x0 REVERT JUMPDEST DUP6 PUSH4 0x4E487B71 PUSH1 0xE0 SHL PUSH1 0x0 MSTORE PUSH1 0x32 PUSH1 0x4 MSTORE PUSH1 0x0 REVERT JUMPDEST DUP6 PUSH4 0x4E487B71 PUSH1 0xE0 SHL PUSH1 0x0 MSTORE PUSH1 0x41 PUSH1 0x4 MSTORE PUSH1 0x0 REVERT JUMPDEST PUSH1 0x40 MLOAD PUSH3 0x461BCD PUSH1 0xE5 SHL DUP2 MSTORE PUSH1 0x4 DUP2 ADD DUP11 SWAP1 MSTORE PUSH1 0x1A PUSH1 0x24 DUP3 ADD MSTORE PUSH32 0x566F74657220616C726561647920726567697374657265642021000000000000 PUSH1 0x44 DUP3 ADD MSTORE PUSH1 0x64 SWAP1 REVERT JUMPDEST CALLVALUE PUSH2 0x20A JUMPI PUSH1 0x20 CALLDATASIZE PUSH1 0x3 NOT ADD SLT PUSH2 0x20A JUMPI PUSH1 0x4 CALLDATALOAD PUSH1 0x14 SLOAD DUP2 LT ISZERO PUSH2 0x20A JUMPI PUSH1 0x6 SWAP1 PUSH1 0x14 PUSH1 0x0 MSTORE MUL PUSH1 0x1 DUP1 PUSH1 0xA0 SHL SUB DUP2 PUSH32 0xCE6D7B5282BD9A3661AE061FEED1DBDA4E52AB073B1F9285BE6E155D9C38D4EC ADD SLOAD AND PUSH2 0x2A3 PUSH32 0xCE6D7B5282BD9A3661AE061FEED1DBDA4E52AB073B1F9285BE6E155D9C38D4F0 PUSH1 0x40 MLOAD SWAP4 PUSH2 0xC43 DUP6 PUSH2 0x42C DUP2 PUSH32 0xCE6D7B5282BD9A3661AE061FEED1DBDA4E52AB073B1F9285BE6E155D9C38D4ED DUP6 ADD PUSH2 0x2D47 JUMP JUMPDEST PUSH1 0x40 MLOAD PUSH2 0xC76 DUP2 PUSH2 0x288 DUP2 PUSH32 0xCE6D7B5282BD9A3661AE061FEED1DBDA4E52AB073B1F9285BE6E155D9C38D4EE DUP7 ADD PUSH2 0x2D47 JUMP JUMPDEST PUSH2 0xCAD PUSH1 0x40 MLOAD SWAP3 PUSH2 0x4A4 DUP5 PUSH2 0x49D DUP2 PUSH32 0xCE6D7B5282BD9A3661AE061FEED1DBDA4E52AB073B1F9285BE6E155D9C38D4EF DUP6 ADD PUSH2 0x2D47 JUMP JUMPDEST PUSH1 0x40 MLOAD SWAP6 DUP7 SWAP6 DUP7 PUSH2 0x2E86 JUMP JUMPDEST CALLVALUE PUSH2 0x20A JUMPI PUSH1 0x0 CALLDATASIZE PUSH1 0x3 NOT ADD SLT PUSH2 0x20A JUMPI PUSH1 0x20 PUSH1 0x16 SLOAD PUSH1 0x40 MLOAD SWAP1 DUP2 MSTORE RETURN JUMPDEST CALLVALUE PUSH2 0x20A JUMPI PUSH1 0x20 CALLDATASIZE PUSH1 0x3 NOT ADD SLT PUSH2 0x20A JUMPI PUSH1 0x1 PUSH1 0x1 PUSH1 0xA0 SHL SUB PUSH2 0xCF8 PUSH2 0x2BFF JUMP JUMPDEST AND PUSH1 0x0 MSTORE PUSH1 0x5 PUSH1 0x20 MSTORE PUSH1 0x40 PUSH1 0x0 KECCAK256 PUSH2 0xD0F DUP2 PUSH2 0x31CD JUMP JUMPDEST PUSH2 0x2A3 PUSH1 0x40 MLOAD SWAP3 PUSH2 0xD27 DUP5 PUSH2 0x49D DUP2 PUSH1 0xC DUP6 ADD PUSH2 0x2D47 JUMP JUMPDEST PUSH1 0x40 MLOAD SWAP1 PUSH2 0xD3C DUP3 PUSH2 0x6FA DUP2 PUSH1 0xD DUP6 ADD PUSH2 0x2D47 JUMP JUMPDEST PUSH1 0x40 MLOAD PUSH2 0xD50 DUP2 PUSH2 0x288 DUP2 PUSH1 0xE DUP7 ADD PUSH2 0x2D47 JUMP JUMPDEST PUSH1 0x10 PUSH1 0x40 MLOAD SWAP3 PUSH2 0x789 DUP5 PUSH2 0x49D DUP2 PUSH1 0xF DUP6 ADD PUSH2 0x2D47 JUMP JUMPDEST CALLVALUE PUSH2 0x20A JUMPI PUSH1 0x20 CALLDATASIZE PUSH1 0x3 NOT ADD SLT PUSH2 0x20A JUMPI PUSH1 0x4 CALLDATALOAD PUSH1 0x7 SLOAD DUP2 LT ISZERO PUSH2 0x20A JUMPI PUSH2 0x288 PUSH2 0x28F PUSH2 0x2A3 SWAP3 PUSH1 0x7 PUSH1 0x0 MSTORE PUSH1 0x40 MLOAD SWAP3 DUP4 DUP1 SWAP3 PUSH32 0xA66CC928B5EDB82AF9BD49922954155AB7B0942694BEA4CE44661D9A8736C688 ADD PUSH2 0x2D47 JUMP JUMPDEST CALLVALUE PUSH2 0x20A JUMPI PUSH1 0x0 CALLDATASIZE PUSH1 0x3 NOT ADD SLT PUSH2 0x20A JUMPI PUSH1 0x13 SLOAD PUSH2 0xDDF DUP2 PUSH2 0x32DB JUMP JUMPDEST SWAP1 PUSH2 0xDED PUSH1 0x40 MLOAD SWAP3 DUP4 PUSH2 0x2E65 JUMP JUMPDEST DUP1 DUP3 MSTORE PUSH1 0x20 DUP3 ADD SWAP1 DUP2 PUSH1 0x13 PUSH1 0x0 MSTORE PUSH32 0x66DE8FFDA797E3DE9C05E8FC57B3BF0EC28A930D40B0D285D93C06501CF6A090 PUSH1 0x0 SWAP2 JUMPDEST DUP4 DUP4 LT PUSH2 0xE8E JUMPI DUP5 DUP7 PUSH1 0x40 MLOAD SWAP2 DUP3 SWAP2 PUSH1 0x20 DUP4 ADD SWAP1 PUSH1 0x20 DUP5 MSTORE MLOAD DUP1 SWAP2 MSTORE PUSH1 0x40 DUP4 ADD SWAP1 PUSH1 0x40 DUP2 PUSH1 0x5 SHL DUP6 ADD ADD SWAP3 SWAP2 PUSH1 0x0 SWAP1 JUMPDEST DUP3 DUP3 LT PUSH2 0xE5F JUMPI POP POP POP POP SUB SWAP1 RETURN JUMPDEST SWAP2 SWAP4 PUSH1 0x1 SWAP2 SWAP4 SWAP6 POP PUSH1 0x20 PUSH2 0xE7E DUP2 SWAP3 PUSH1 0x3F NOT DUP11 DUP3 SUB ADD DUP7 MSTORE DUP9 MLOAD PUSH2 0x3345 JUMP JUMPDEST SWAP7 ADD SWAP3 ADD SWAP3 ADD DUP6 SWAP5 SWAP4 SWAP2 SWAP3 PUSH2 0xE50 JUMP JUMPDEST PUSH1 0x40 MLOAD PUSH2 0xE9A DUP2 PUSH2 0x2E2F JUMP JUMPDEST PUSH1 0x40 MLOAD PUSH2 0xEAB DUP2 PUSH2 0x288 DUP2 DUP8 PUSH2 0x2D47 JUMP JUMPDEST DUP2 MSTORE PUSH1 0x40 MLOAD PUSH2 0xEC1 DUP2 PUSH2 0x288 DUP2 PUSH1 0x1 DUP9 ADD PUSH2 0x2D47 JUMP JUMPDEST PUSH1 0x20 DUP3 ADD MSTORE PUSH1 0x40 MLOAD PUSH2 0xEDA DUP2 PUSH2 0x288 DUP2 PUSH1 0x2 DUP9 ADD PUSH2 0x2D47 JUMP JUMPDEST PUSH1 0x40 DUP3 ADD MSTORE PUSH1 0x40 MLOAD PUSH2 0xEF3 DUP2 PUSH2 0x288 DUP2 PUSH1 0x3 DUP9 ADD PUSH2 0x2D47 JUMP JUMPDEST PUSH1 0x60 DUP3 ADD MSTORE PUSH1 0x40 MLOAD PUSH2 0xF0C DUP2 PUSH2 0x288 DUP2 PUSH1 0x4 DUP9 ADD PUSH2 0x2D47 JUMP JUMPDEST PUSH1 0x80 DUP3 ADD MSTORE PUSH1 0x5 DUP4 ADD DUP1 SLOAD PUSH2 0xF20 DUP2 PUSH2 0x32DB JUMP JUMPDEST SWAP2 PUSH2 0xF2E PUSH1 0x40 MLOAD SWAP4 DUP5 PUSH2 0x2E65 JUMP JUMPDEST DUP2 DUP4 MSTORE PUSH1 0x20 DUP4 ADD SWAP1 PUSH1 0x0 MSTORE PUSH1 0x20 PUSH1 0x0 KECCAK256 SWAP1 PUSH1 0x0 SWAP1 JUMPDEST DUP4 DUP3 LT PUSH2 0xFD1 JUMPI POP POP POP POP PUSH1 0xA0 DUP3 ADD MSTORE PUSH1 0x6 DUP4 ADD DUP1 SLOAD PUSH2 0xF62 DUP2 PUSH2 0x32DB JUMP JUMPDEST SWAP2 PUSH2 0xF70 PUSH1 0x40 MLOAD SWAP4 DUP5 PUSH2 0x2E65 JUMP JUMPDEST DUP2 DUP4 MSTORE PUSH1 0x20 DUP4 ADD SWAP1 PUSH1 0x0 MSTORE PUSH1 0x20 PUSH1 0x0 KECCAK256 SWAP1 PUSH1 0x0 SWAP1 JUMPDEST DUP4 DUP3 LT PUSH2 0xFAC JUMPI POP POP POP POP PUSH1 0x1 SWAP3 DUP3 PUSH1 0x20 SWAP3 PUSH1 0xC0 PUSH1 0x7 SWAP6 ADD MSTORE DUP2 MSTORE ADD SWAP3 ADD SWAP3 ADD SWAP2 SWAP1 PUSH2 0xE20 JUMP JUMPDEST PUSH1 0x1 PUSH1 0x20 DUP2 SWAP3 PUSH1 0x40 MLOAD PUSH2 0xFC3 DUP2 PUSH2 0x288 DUP2 DUP11 PUSH2 0x2D47 JUMP JUMPDEST DUP2 MSTORE ADD SWAP4 ADD SWAP2 ADD SWAP1 SWAP2 PUSH2 0xF85 JUMP JUMPDEST PUSH1 0x12 PUSH1 0x20 PUSH1 0x1 SWAP3 PUSH2 0xFE1 DUP7 PUSH2 0x3D0E JUMP JUMPDEST DUP2 MSTORE ADD SWAP4 ADD SWAP2 ADD SWAP1 SWAP2 PUSH2 0xF43 JUMP JUMPDEST CALLVALUE PUSH2 0x20A JUMPI PUSH1 0x0 CALLDATASIZE PUSH1 0x3 NOT ADD SLT PUSH2 0x20A JUMPI PUSH1 0x20 PUSH1 0x3 SLOAD PUSH1 0x40 MLOAD SWAP1 DUP2 MSTORE RETURN JUMPDEST PUSH1 0xC0 CALLDATASIZE PUSH1 0x3 NOT ADD SLT PUSH2 0x20A JUMPI PUSH1 0x1 PUSH1 0x1 PUSH1 0x40 SHL SUB PUSH1 0x4 CALLDATALOAD DUP2 DUP2 GT PUSH2 0x20A JUMPI PUSH2 0x1039 SWAP1 CALLDATASIZE SWAP1 PUSH1 0x4 ADD PUSH2 0x2EDD JUMP JUMPDEST PUSH1 0x24 SWAP2 DUP3 CALLDATALOAD DUP2 DUP2 GT PUSH2 0x20A JUMPI PUSH2 0x1053 SWAP1 CALLDATASIZE SWAP1 PUSH1 0x4 ADD PUSH2 0x2EDD JUMP JUMPDEST SWAP2 PUSH1 0x44 CALLDATALOAD DUP3 DUP2 GT PUSH2 0x20A JUMPI PUSH2 0x106C SWAP1 CALLDATASIZE SWAP1 PUSH1 0x4 ADD PUSH2 0x2EDD JUMP JUMPDEST PUSH1 0x64 CALLDATALOAD DUP4 DUP2 GT PUSH2 0x20A JUMPI PUSH2 0x1084 SWAP1 CALLDATASIZE SWAP1 PUSH1 0x4 ADD PUSH2 0x2EDD JUMP JUMPDEST PUSH1 0x84 CALLDATALOAD DUP5 DUP2 GT PUSH2 0x20A JUMPI PUSH2 0x109C SWAP1 CALLDATASIZE SWAP1 PUSH1 0x4 ADD PUSH2 0x2EDD JUMP JUMPDEST PUSH1 0xA4 CALLDATALOAD SWAP2 DUP6 DUP4 GT PUSH2 0x20A JUMPI CALLDATASIZE PUSH1 0x23 DUP5 ADD SLT ISZERO PUSH2 0x20A JUMPI DUP3 PUSH1 0x4 ADD CALLDATALOAD SWAP3 PUSH2 0x10C1 DUP5 PUSH2 0x32DB JUMP JUMPDEST SWAP4 PUSH2 0x10CF PUSH1 0x40 MLOAD SWAP6 DUP7 PUSH2 0x2E65 JUMP JUMPDEST DUP1 DUP6 MSTORE PUSH1 0x20 SWAP8 DUP11 DUP10 DUP8 ADD SWAP3 PUSH1 0x5 SHL DUP5 ADD ADD SWAP3 CALLDATASIZE DUP5 GT PUSH2 0x20A JUMPI SWAP1 DUP2 DUP13 DUP12 SWAP10 SWAP9 SWAP8 SWAP7 SWAP6 SWAP5 SWAP4 ADD SWAP3 JUMPDEST DUP5 DUP5 LT PUSH2 0x11E9 JUMPI DUP14 DUP14 DUP12 PUSH2 0x1174 DUP15 PUSH2 0x1165 DUP4 DUP16 DUP16 DUP16 DUP16 PUSH2 0x1121 PUSH1 0x1 DUP1 PUSH1 0xA0 SHL SUB PUSH1 0x1 SLOAD AND CALLER EQ PUSH2 0x3658 JUMP JUMPDEST PUSH1 0x40 MLOAD SWAP10 DUP11 SWAP8 PUSH2 0x1130 DUP10 PUSH2 0x2E2F JUMP JUMPDEST DUP9 MSTORE DUP6 DUP9 ADD MSTORE DUP4 PUSH1 0x40 DUP9 ADD MSTORE PUSH1 0x60 DUP8 ADD MSTORE PUSH1 0x80 DUP7 ADD MSTORE PUSH1 0x60 PUSH1 0xA0 DUP7 ADD MSTORE PUSH1 0xC0 DUP6 ADD MSTORE DUP2 PUSH1 0x40 MLOAD SWAP4 DUP3 DUP6 DUP1 SWAP5 MLOAD SWAP4 DUP5 SWAP3 ADD PUSH2 0x2C15 JUMP JUMPDEST DUP2 ADD PUSH1 0x11 DUP2 MSTORE SUB ADD SWAP1 KECCAK256 PUSH2 0x3A7A JUMP JUMPDEST PUSH1 0x13 SLOAD PUSH1 0x1 PUSH1 0x40 SHL DUP2 LT ISZERO PUSH2 0xB14 JUMPI DUP1 PUSH1 0x1 PUSH2 0x1193 SWAP3 ADD PUSH1 0x13 SSTORE PUSH2 0x34E2 JUMP JUMPDEST PUSH2 0xAFF JUMPI DUP3 PUSH2 0x11A1 SWAP2 PUSH2 0x3A7A JUMP JUMPDEST PUSH1 0x16 SLOAD PUSH1 0x1 DUP2 ADD DUP1 SWAP2 GT PUSH2 0xAEA JUMPI PUSH32 0x9C8794A23F33DDE2007342C154E928EFFE9F52147C9BC50BD6C201EF0636CD73 SWAP4 POP PUSH1 0x16 SSTORE PUSH2 0xAE5 PUSH1 0x40 MLOAD SWAP3 DUP3 DUP5 SWAP4 DUP5 MSTORE DUP4 ADD SWAP1 PUSH2 0x3345 JUMP JUMPDEST SWAP1 SWAP2 SWAP3 DUP1 SWAP5 SWAP6 SWAP7 SWAP8 SWAP9 SWAP10 POP CALLDATALOAD DUP4 DUP2 GT PUSH2 0x20A JUMPI DUP12 SWAP2 PUSH2 0x120F DUP16 SWAP3 DUP5 SWAP4 CALLDATASIZE SWAP2 DUP8 ADD ADD PUSH2 0x2EDD JUMP JUMPDEST DUP2 MSTORE ADD SWAP4 ADD SWAP2 SWAP1 DUP11 SWAP9 SWAP8 SWAP7 SWAP6 SWAP5 SWAP4 PUSH2 0x10F6 JUMP JUMPDEST PUSH1 0x80 CALLDATASIZE PUSH1 0x3 NOT ADD SLT PUSH2 0x20A JUMPI PUSH1 0x1 PUSH1 0x1 PUSH1 0x40 SHL SUB PUSH1 0x4 CALLDATALOAD DUP2 DUP2 GT PUSH2 0x20A JUMPI PUSH2 0x124E SWAP1 CALLDATASIZE SWAP1 PUSH1 0x4 ADD PUSH2 0x2EDD JUMP JUMPDEST SWAP1 PUSH1 0x24 CALLDATALOAD DUP2 DUP2 GT PUSH2 0x20A JUMPI PUSH2 0x1267 SWAP1 CALLDATASIZE SWAP1 PUSH1 0x4 ADD PUSH2 0x2EDD JUMP JUMPDEST SWAP1 PUSH1 0x44 CALLDATALOAD DUP2 DUP2 GT PUSH2 0x20A JUMPI PUSH2 0x1280 SWAP1 CALLDATASIZE SWAP1 PUSH1 0x4 ADD PUSH2 0x2EDD JUMP JUMPDEST SWAP1 PUSH1 0x64 CALLDATALOAD SWAP1 DUP2 GT PUSH2 0x20A JUMPI PUSH2 0x1299 SWAP1 CALLDATASIZE SWAP1 PUSH1 0x4 ADD PUSH2 0x2EDD JUMP JUMPDEST SWAP2 PUSH1 0x40 MLOAD SWAP4 PUSH2 0x12A7 DUP6 PUSH2 0x2DDD JUMP JUMPDEST CALLER DUP6 MSTORE PUSH1 0x20 DUP6 ADD MSTORE PUSH1 0x40 DUP5 ADD MSTORE PUSH1 0x60 DUP4 ADD MSTORE PUSH1 0x80 DUP3 ADD MSTORE PUSH1 0x60 PUSH1 0xA0 DUP3 ADD MSTORE CALLER PUSH1 0x0 MSTORE PUSH1 0x12 PUSH1 0x20 MSTORE PUSH2 0x12DC DUP2 PUSH1 0x40 PUSH1 0x0 KECCAK256 PUSH2 0x3E13 JUMP JUMPDEST PUSH1 0x14 SLOAD PUSH1 0x1 PUSH1 0x40 SHL DUP2 LT ISZERO PUSH2 0x1321 JUMPI DUP1 PUSH1 0x1 PUSH2 0x12FB SWAP3 ADD PUSH1 0x14 SSTORE PUSH2 0x330A JUMP JUMPDEST SWAP2 SWAP1 SWAP2 PUSH2 0x130B JUMPI PUSH2 0x378 SWAP2 PUSH2 0x3E13 JUMP JUMPDEST PUSH4 0x4E487B71 PUSH1 0xE0 SHL PUSH1 0x0 MSTORE PUSH1 0x0 PUSH1 0x4 MSTORE PUSH1 0x24 PUSH1 0x0 REVERT JUMPDEST PUSH4 0x4E487B71 PUSH1 0xE0 SHL PUSH1 0x0 MSTORE PUSH1 0x41 PUSH1 0x4 MSTORE PUSH1 0x24 PUSH1 0x0 REVERT JUMPDEST CALLVALUE PUSH2 0x20A JUMPI PUSH1 0x20 CALLDATASIZE PUSH1 0x3 NOT ADD SLT PUSH2 0x20A JUMPI PUSH1 0x4 CALLDATALOAD PUSH1 0xF SLOAD DUP2 LT ISZERO PUSH2 0x20A JUMPI PUSH1 0x6 SWAP1 PUSH1 0xF PUSH1 0x0 MSTORE MUL PUSH1 0x1 DUP1 PUSH1 0xA0 SHL SUB DUP2 PUSH32 0x8D1108E10BCB7C27DDDFC02ED9D693A074039D026CF4EA4240B40F7D581AC802 ADD SLOAD AND PUSH2 0x2A3 PUSH32 0x8D1108E10BCB7C27DDDFC02ED9D693A074039D026CF4EA4240B40F7D581AC806 PUSH1 0x40 MLOAD SWAP4 PUSH2 0x13E2 DUP6 PUSH2 0x42C DUP2 PUSH32 0x8D1108E10BCB7C27DDDFC02ED9D693A074039D026CF4EA4240B40F7D581AC803 DUP6 ADD PUSH2 0x2D47 JUMP JUMPDEST PUSH32 0x8D1108E10BCB7C27DDDFC02ED9D693A074039D026CF4EA4240B40F7D581AC804 DUP2 ADD SLOAD PUSH2 0x143D PUSH1 0x40 MLOAD SWAP3 PUSH2 0x4A4 DUP5 PUSH2 0x49D DUP2 PUSH32 0x8D1108E10BCB7C27DDDFC02ED9D693A074039D026CF4EA4240B40F7D581AC805 DUP6 ADD PUSH2 0x2D47 JUMP JUMPDEST PUSH1 0x40 MLOAD SWAP6 DUP7 SWAP6 DUP7 PUSH2 0x3156 JUMP JUMPDEST CALLVALUE PUSH2 0x20A JUMPI PUSH1 0x20 CALLDATASIZE PUSH1 0x3 NOT ADD SLT PUSH2 0x20A JUMPI PUSH1 0x4 CALLDATALOAD PUSH1 0x0 SLOAD DUP2 LT ISZERO PUSH2 0x20A JUMPI PUSH2 0x288 PUSH2 0x28F PUSH2 0x2A3 SWAP3 PUSH1 0x0 DUP1 MSTORE PUSH1 0x40 MLOAD SWAP3 DUP4 DUP1 SWAP3 PUSH32 0x290DECD9548B62A8D60345A988386FC84BA6BC95484008F6362F93160EF3E563 ADD PUSH2 0x2D47 JUMP JUMPDEST CALLVALUE PUSH2 0x20A JUMPI PUSH1 0x0 CALLDATASIZE PUSH1 0x3 NOT ADD SLT PUSH2 0x20A JUMPI PUSH1 0x20 PUSH1 0xC SLOAD PUSH1 0x40 MLOAD SWAP1 DUP2 MSTORE RETURN JUMPDEST PUSH1 0x60 DUP1 PUSH1 0x3 NOT CALLDATASIZE ADD SLT PUSH2 0x20A JUMPI PUSH1 0x1 PUSH1 0x1 PUSH1 0x40 SHL SUB PUSH1 0x4 CALLDATALOAD DUP2 DUP2 GT PUSH2 0x20A JUMPI CALLDATASIZE PUSH1 0x23 DUP3 ADD SLT ISZERO PUSH2 0x20A JUMPI DUP1 PUSH1 0x4 ADD CALLDATALOAD PUSH2 0x14F9 DUP2 PUSH2 0x32DB JUMP JUMPDEST SWAP1 PUSH2 0x1507 PUSH1 0x40 MLOAD SWAP3 DUP4 PUSH2 0x2E65 JUMP JUMPDEST DUP1 DUP3 MSTORE PUSH1 0x20 SWAP3 DUP4 DUP4 ADD SWAP1 PUSH1 0x24 SWAP2 DUP3 PUSH1 0x5 SWAP5 DUP6 SHL DUP4 ADD ADD SWAP2 CALLDATASIZE DUP4 GT PUSH2 0x20A JUMPI DUP4 DUP2 ADD SWAP2 JUMPDEST DUP4 DUP4 LT PUSH2 0x16C4 JUMPI POP POP POP POP CALLDATALOAD DUP5 DUP2 GT PUSH2 0x20A JUMPI PUSH2 0x154B SWAP1 CALLDATASIZE SWAP1 PUSH1 0x4 ADD PUSH2 0x2EDD JUMP JUMPDEST SWAP4 PUSH1 0x44 CALLDATALOAD SWAP1 DUP2 GT PUSH2 0x20A JUMPI PUSH2 0x1567 SWAP1 SWAP6 SWAP5 SWAP6 CALLDATASIZE SWAP1 PUSH1 0x4 ADD PUSH2 0x2EDD JUMP JUMPDEST SWAP5 PUSH1 0x1 DUP1 PUSH1 0xA0 SHL SUB SWAP1 PUSH1 0x1 DUP1 SWAP8 DUP2 SWAP8 PUSH2 0x1584 DUP6 DUP5 SLOAD AND CALLER EQ PUSH2 0x3658 JUMP JUMPDEST PUSH1 0x0 DUP9 DUP6 ADD SWAP4 JUMPDEST PUSH2 0x1648 JUMPI JUMPDEST POP POP POP PUSH1 0x0 SWAP8 JUMPDEST PUSH2 0x159D JUMPI STOP JUMPDEST PUSH1 0x13 SLOAD DUP9 LT ISZERO PUSH2 0x378 JUMPI PUSH2 0x15BC PUSH1 0x2 PUSH2 0x15B5 DUP11 PUSH2 0x34E2 JUMP JUMPDEST POP ADD PUSH2 0x356C JUMP JUMPDEST DUP7 DUP2 MLOAD SWAP2 ADD KECCAK256 DUP3 MLOAD DUP3 KECCAK256 EQ PUSH2 0x15DB JUMPI PUSH2 0x15D5 DUP8 SWAP9 PUSH2 0x351D JUMP JUMPDEST SWAP8 PUSH2 0x1597 JUMP JUMPDEST POP POP DUP5 PUSH1 0x0 SWAP1 JUMPDEST PUSH2 0x15E8 JUMPI STOP JUMPDEST DUP4 MLOAD DUP2 LT ISZERO PUSH2 0x378 JUMPI DUP1 DUP3 PUSH2 0x1600 PUSH2 0x1642 SWAP4 DUP8 PUSH2 0x3CFA JUMP JUMPDEST MLOAD MLOAD AND PUSH1 0x0 MSTORE DUP4 DUP7 MSTORE PUSH2 0x163D PUSH2 0x1619 PUSH1 0x40 PUSH1 0x0 KECCAK256 PUSH2 0x3D0E JUMP JUMPDEST DUP8 PUSH2 0x1624 DUP5 DUP10 PUSH2 0x3CFA JUMP JUMPDEST MLOAD ADD MLOAD PUSH1 0x40 DUP3 ADD MSTORE DUP6 PUSH2 0x1636 DUP12 PUSH2 0x34E2 JUMP JUMPDEST POP ADD PUSH2 0x3DA9 JUMP JUMPDEST PUSH2 0x351D JUMP JUMPDEST DUP6 PUSH2 0x15E2 JUMP JUMPDEST DUP8 MLOAD DUP2 LT ISZERO PUSH2 0x16BF JUMPI DUP1 DUP7 PUSH2 0x1660 PUSH2 0x16B9 SWAP4 DUP12 PUSH2 0x3CFA JUMP JUMPDEST MLOAD MLOAD AND PUSH1 0x0 MSTORE DUP8 DUP11 MSTORE PUSH2 0x163D PUSH2 0x1679 PUSH1 0x40 PUSH1 0x0 KECCAK256 PUSH2 0x3D0E JUMP JUMPDEST DUP12 PUSH2 0x1684 DUP5 DUP14 PUSH2 0x3CFA JUMP JUMPDEST MLOAD ADD MLOAD PUSH1 0x40 DUP3 ADD MSTORE DUP6 DUP6 DUP3 ADD MSTORE DUP10 PUSH2 0x16A9 DUP14 DUP10 DUP12 PUSH1 0x40 MLOAD SWAP4 DUP5 SWAP3 DUP4 SWAP3 MLOAD SWAP3 DUP4 SWAP2 PUSH2 0x2C15 JUMP JUMPDEST DUP2 ADD PUSH1 0x11 DUP2 MSTORE SUB ADD SWAP1 KECCAK256 ADD PUSH2 0x3DA9 JUMP JUMPDEST DUP10 PUSH2 0x158B JUMP JUMPDEST PUSH2 0x1590 JUMP JUMPDEST DUP3 CALLDATALOAD DUP10 DUP2 GT PUSH2 0x20A JUMPI DUP3 ADD PUSH1 0x40 PUSH1 0x23 NOT DUP3 CALLDATASIZE SUB ADD SLT PUSH2 0x20A JUMPI PUSH1 0x40 MLOAD SWAP2 PUSH1 0x40 DUP4 ADD DUP4 DUP2 LT DUP13 DUP3 GT OR PUSH2 0x1737 JUMPI PUSH1 0x40 MSTORE DUP2 DUP8 ADD CALLDATALOAD PUSH1 0x1 PUSH1 0x1 PUSH1 0xA0 SHL SUB DUP2 AND DUP2 SUB PUSH2 0x20A JUMPI DUP4 MSTORE PUSH1 0x44 DUP3 ADD CALLDATALOAD SWAP3 DUP12 DUP5 GT PUSH2 0x20A JUMPI PUSH2 0x1728 DUP12 SWAP5 SWAP4 DUP10 DUP7 SWAP6 CALLDATASIZE SWAP3 ADD ADD PUSH2 0x2EDD JUMP JUMPDEST DUP4 DUP3 ADD MSTORE DUP2 MSTORE ADD SWAP3 ADD SWAP2 PUSH2 0x152A JUMP JUMPDEST DUP8 PUSH4 0x4E487B71 PUSH1 0xE0 SHL PUSH1 0x0 MSTORE PUSH1 0x41 PUSH1 0x4 MSTORE PUSH1 0x0 REVERT JUMPDEST CALLVALUE PUSH2 0x20A JUMPI PUSH1 0x20 CALLDATASIZE PUSH1 0x3 NOT ADD SLT PUSH2 0x20A JUMPI PUSH2 0x1765 PUSH2 0x2BFF JUMP JUMPDEST PUSH1 0x40 MLOAD PUSH2 0x1771 DUP2 PUSH2 0x2E2F JUMP JUMPDEST PUSH2 0x1779 PUSH2 0x42ED JUMP JUMPDEST DUP2 MSTORE PUSH1 0xC0 PUSH1 0x60 SWAP2 DUP3 PUSH1 0x20 DUP3 ADD MSTORE DUP3 PUSH1 0x40 DUP3 ADD MSTORE DUP3 DUP1 DUP3 ADD MSTORE DUP3 PUSH1 0x80 DUP3 ADD MSTORE PUSH1 0x0 PUSH1 0xA0 DUP3 ADD MSTORE ADD MSTORE PUSH1 0x1 DUP1 PUSH1 0xA0 SHL SUB AND PUSH1 0x0 MSTORE PUSH1 0x5 PUSH1 0x20 MSTORE PUSH2 0x2A3 PUSH2 0x17C0 PUSH1 0x40 PUSH1 0x0 KECCAK256 PUSH2 0x3D0E JUMP JUMPDEST PUSH1 0x40 MLOAD SWAP2 DUP3 SWAP2 PUSH1 0x20 DUP4 MSTORE PUSH1 0x20 DUP4 ADD SWAP1 PUSH2 0x301E JUMP JUMPDEST CALLVALUE PUSH2 0x20A JUMPI PUSH1 0x20 CALLDATASIZE PUSH1 0x3 NOT ADD SLT PUSH2 0x20A JUMPI PUSH1 0x4 CALLDATALOAD PUSH1 0xA SLOAD DUP2 LT ISZERO PUSH2 0x20A JUMPI PUSH1 0xE PUSH2 0x87F SWAP2 PUSH1 0xA PUSH1 0x0 MSTORE MUL PUSH32 0xC65A7BB8D6351C1CF70C95A316CC6A92839C986682D98BC35F958F4883F9D2B5 PUSH2 0x868 DUP3 PUSH32 0xC65A7BB8D6351C1CF70C95A316CC6A92839C986682D98BC35F958F4883F9D2A8 ADD PUSH2 0x31CD JUMP JUMPDEST CALLVALUE PUSH2 0x20A JUMPI PUSH1 0x20 CALLDATASIZE PUSH1 0x3 NOT ADD SLT PUSH2 0x20A JUMPI PUSH1 0x1 PUSH1 0x1 PUSH1 0xA0 SHL SUB DUP1 PUSH2 0x186C PUSH2 0x2BFF JUMP JUMPDEST AND PUSH1 0x0 MSTORE PUSH1 0xE PUSH1 0x20 MSTORE PUSH1 0x40 PUSH1 0x0 KECCAK256 SWAP1 DUP2 SLOAD AND PUSH2 0x2A3 PUSH1 0x4 PUSH1 0x40 MLOAD SWAP4 PUSH2 0x1898 DUP6 PUSH2 0x42C DUP2 PUSH1 0x1 DUP6 ADD PUSH2 0x2D47 JUMP JUMPDEST PUSH1 0x2 DUP2 ADD SLOAD PUSH2 0x143D PUSH1 0x40 MLOAD SWAP3 PUSH2 0x4A4 DUP5 PUSH2 0x49D DUP2 PUSH1 0x3 DUP6 ADD PUSH2 0x2D47 JUMP JUMPDEST CALLVALUE PUSH2 0x20A JUMPI PUSH1 0x20 CALLDATASIZE PUSH1 0x3 NOT ADD SLT PUSH2 0x20A JUMPI PUSH1 0x4 CALLDATALOAD PUSH1 0x1 PUSH1 0x1 PUSH1 0x40 SHL SUB DUP2 GT PUSH2 0x20A JUMPI PUSH1 0x20 PUSH2 0x18EA PUSH2 0x18FD SWAP3 CALLDATASIZE SWAP1 PUSH1 0x4 ADD PUSH2 0x2EDD JUMP JUMPDEST DUP2 PUSH1 0x40 MLOAD SWAP4 DUP3 DUP6 DUP1 SWAP5 MLOAD SWAP4 DUP5 SWAP3 ADD PUSH2 0x2C15 JUMP JUMPDEST DUP2 ADD PUSH1 0x11 DUP2 MSTORE SUB ADD SWAP1 KECCAK256 PUSH1 0x40 MLOAD PUSH2 0x1918 DUP2 PUSH2 0x288 DUP2 DUP6 PUSH2 0x2D47 JUMP JUMPDEST PUSH2 0x2A3 PUSH1 0x4 PUSH1 0x40 MLOAD SWAP4 PUSH2 0x1932 DUP6 PUSH2 0x42C DUP2 PUSH1 0x1 DUP6 ADD PUSH2 0x2D47 JUMP JUMPDEST PUSH1 0x40 MLOAD PUSH2 0x1946 DUP2 PUSH2 0x288 DUP2 PUSH1 0x2 DUP7 ADD PUSH2 0x2D47 JUMP JUMPDEST PUSH2 0x4BB PUSH1 0x40 MLOAD SWAP3 PUSH2 0x4A4 DUP5 PUSH2 0x49D DUP2 PUSH1 0x3 DUP6 ADD PUSH2 0x2D47 JUMP JUMPDEST CALLVALUE PUSH2 0x20A JUMPI PUSH1 0x0 CALLDATASIZE PUSH1 0x3 NOT ADD SLT PUSH2 0x20A JUMPI PUSH1 0xA SLOAD PUSH2 0x197B DUP2 PUSH2 0x32DB JUMP JUMPDEST SWAP1 PUSH2 0x1989 PUSH1 0x40 MLOAD SWAP3 DUP4 PUSH2 0x2E65 JUMP JUMPDEST DUP1 DUP3 MSTORE PUSH1 0x20 SWAP1 DUP2 DUP4 ADD SWAP1 DUP2 PUSH1 0xA PUSH1 0x0 MSTORE PUSH32 0xC65A7BB8D6351C1CF70C95A316CC6A92839C986682D98BC35F958F4883F9D2A8 PUSH1 0x0 SWAP2 JUMPDEST DUP4 DUP4 LT PUSH2 0x1A25 JUMPI POP POP POP POP PUSH1 0x40 MLOAD SWAP2 DUP1 DUP4 ADD SWAP4 DUP2 DUP5 MSTORE MLOAD DUP1 SWAP5 MSTORE PUSH1 0x40 DUP4 ADD SWAP4 PUSH1 0x40 DUP2 PUSH1 0x5 SHL DUP6 ADD ADD SWAP3 SWAP2 PUSH1 0x0 SWAP6 JUMPDEST DUP3 DUP8 LT PUSH2 0x19F9 JUMPI DUP6 DUP6 SUB DUP7 RETURN JUMPDEST SWAP1 SWAP2 SWAP3 SWAP4 DUP3 DUP1 PUSH2 0x1A15 PUSH1 0x1 SWAP4 PUSH1 0x3F NOT DUP11 DUP3 SUB ADD DUP7 MSTORE DUP9 MLOAD PUSH2 0x30F0 JUMP JUMPDEST SWAP7 ADD SWAP3 ADD SWAP7 ADD SWAP6 SWAP3 SWAP2 SWAP1 SWAP3 PUSH2 0x19EC JUMP JUMPDEST PUSH1 0xE DUP7 PUSH1 0x1 SWAP3 PUSH2 0x1A37 DUP6 SWAP11 SWAP10 SWAP11 PUSH2 0x4501 JUMP JUMPDEST DUP2 MSTORE ADD SWAP3 ADD SWAP3 ADD SWAP2 SWAP1 SWAP6 SWAP5 SWAP6 PUSH2 0x19BE JUMP JUMPDEST CALLVALUE PUSH2 0x20A JUMPI PUSH1 0x0 CALLDATASIZE PUSH1 0x3 NOT ADD SLT PUSH2 0x20A JUMPI PUSH1 0x6 SLOAD PUSH2 0x1A65 DUP2 PUSH2 0x32DB JUMP JUMPDEST SWAP1 PUSH2 0x1A73 PUSH1 0x40 MLOAD SWAP3 DUP4 PUSH2 0x2E65 JUMP JUMPDEST DUP1 DUP3 MSTORE PUSH1 0x20 SWAP1 DUP2 DUP4 ADD PUSH1 0x6 PUSH1 0x0 MSTORE PUSH32 0xF652222313E28459528D920B65115C16C04F3EFC82AAEDC97BE59F3F377C0D3F DUP4 PUSH1 0x0 SWAP3 JUMPDEST DUP5 DUP5 LT PUSH2 0x1AC1 JUMPI PUSH1 0x40 MLOAD DUP3 DUP2 MSTORE DUP1 PUSH2 0x2A3 DUP2 DUP6 ADD DUP11 PUSH2 0x3094 JUMP JUMPDEST PUSH1 0x1 SWAP2 PUSH1 0x12 SWAP2 PUSH2 0x1AD0 DUP6 PUSH2 0x3D0E JUMP JUMPDEST DUP2 MSTORE ADD SWAP3 ADD SWAP3 ADD SWAP2 SWAP1 DUP5 SWAP1 PUSH2 0x1AA7 JUMP JUMPDEST PUSH2 0x1A0 CALLDATASIZE PUSH1 0x3 NOT ADD SLT PUSH2 0x20A JUMPI PUSH1 0x4 CALLDATALOAD PUSH1 0x1 PUSH1 0x1 PUSH1 0x40 SHL SUB DUP2 GT PUSH2 0x20A JUMPI PUSH2 0x1B0C SWAP1 CALLDATASIZE SWAP1 PUSH1 0x4 ADD PUSH2 0x2EDD JUMP JUMPDEST PUSH1 0x64 CALLDATALOAD PUSH1 0x1 PUSH1 0x1 PUSH1 0x40 SHL SUB DUP2 GT PUSH2 0x20A JUMPI PUSH2 0x1B2B SWAP1 CALLDATASIZE SWAP1 PUSH1 0x4 ADD PUSH2 0x2EDD JUMP JUMPDEST SWAP1 PUSH1 0x84 CALLDATALOAD PUSH1 0x1 PUSH1 0x1 PUSH1 0x40 SHL SUB DUP2 GT PUSH2 0x20A JUMPI PUSH2 0x1B4B SWAP1 CALLDATASIZE SWAP1 PUSH1 0x4 ADD PUSH2 0x2EDD JUMP JUMPDEST SWAP2 PUSH1 0xA4 CALLDATALOAD PUSH1 0x1 PUSH1 0x1 PUSH1 0x40 SHL SUB DUP2 GT PUSH2 0x20A JUMPI PUSH2 0x1B6B SWAP1 CALLDATASIZE SWAP1 PUSH1 0x4 ADD PUSH2 0x2EDD JUMP JUMPDEST PUSH1 0xC4 CALLDATALOAD PUSH1 0x1 PUSH1 0x1 PUSH1 0x40 SHL SUB DUP2 GT PUSH2 0x20A JUMPI PUSH2 0x1B8A SWAP1 CALLDATASIZE SWAP1 PUSH1 0x4 ADD PUSH2 0x2EDD JUMP JUMPDEST SWAP1 PUSH1 0xE4 CALLDATALOAD PUSH1 0x1 PUSH1 0x1 PUSH1 0x40 SHL SUB DUP2 GT PUSH2 0x20A JUMPI PUSH2 0x1BAA SWAP1 CALLDATASIZE SWAP1 PUSH1 0x4 ADD PUSH2 0x2EDD JUMP JUMPDEST SWAP2 PUSH2 0x104 CALLDATALOAD PUSH1 0x1 PUSH1 0x1 PUSH1 0x40 SHL SUB DUP2 GT PUSH2 0x20A JUMPI PUSH2 0x1BCB SWAP1 CALLDATASIZE SWAP1 PUSH1 0x4 ADD PUSH2 0x2EDD JUMP JUMPDEST PUSH2 0x124 CALLDATALOAD PUSH1 0x1 PUSH1 0x1 PUSH1 0x40 SHL SUB DUP2 GT PUSH2 0x20A JUMPI PUSH2 0x1BEB SWAP1 CALLDATASIZE SWAP1 PUSH1 0x4 ADD PUSH2 0x2EDD JUMP JUMPDEST SWAP1 PUSH2 0x144 CALLDATALOAD PUSH1 0x1 PUSH1 0x1 PUSH1 0x40 SHL SUB DUP2 GT PUSH2 0x20A JUMPI PUSH2 0x1C0C SWAP1 CALLDATASIZE SWAP1 PUSH1 0x4 ADD PUSH2 0x2EDD JUMP JUMPDEST SWAP3 PUSH2 0x164 CALLDATALOAD PUSH1 0x1 PUSH1 0x1 PUSH1 0x40 SHL SUB DUP2 GT PUSH2 0x20A JUMPI PUSH2 0x1C2D SWAP1 CALLDATASIZE SWAP1 PUSH1 0x4 ADD PUSH2 0x2EDD JUMP JUMPDEST SWAP5 PUSH1 0x1 PUSH1 0x1 PUSH1 0x40 SHL SUB PUSH2 0x184 CALLDATALOAD GT PUSH2 0x20A JUMPI PUSH2 0x1C4F CALLDATASIZE PUSH2 0x184 CALLDATALOAD PUSH1 0x4 ADD PUSH2 0x2EDD JUMP JUMPDEST CALLER PUSH1 0x0 DUP2 DUP2 MSTORE PUSH1 0x5 PUSH1 0x20 MSTORE PUSH1 0x40 SWAP1 KECCAK256 SLOAD SWAP2 SWAP12 SWAP2 PUSH1 0x1 PUSH1 0x1 PUSH1 0xA0 SHL SUB AND EQ PUSH2 0x1F3F JUMPI PUSH1 0x6 SLOAD PUSH1 0x0 JUMPDEST DUP2 DUP2 LT PUSH2 0x1E32 JUMPI POP POP PUSH2 0x1C88 DUP12 PUSH2 0x3F7B JUMP JUMPDEST PUSH1 0x40 MLOAD SWAP11 PUSH2 0x1C95 DUP13 PUSH2 0x2E13 JUMP JUMPDEST CALLER DUP13 MSTORE DUP11 PUSH1 0x20 DUP14 ADD MSTORE PUSH1 0x24 CALLDATALOAD PUSH1 0x40 DUP14 ADD MSTORE PUSH1 0x44 CALLDATALOAD PUSH1 0x60 DUP14 ADD MSTORE PUSH1 0x80 DUP13 ADD MSTORE PUSH1 0xA0 DUP12 ADD MSTORE PUSH1 0xC0 DUP11 ADD MSTORE PUSH1 0xE0 DUP10 ADD MSTORE PUSH2 0x100 DUP9 ADD MSTORE PUSH2 0x120 DUP8 ADD MSTORE PUSH2 0x140 DUP7 ADD MSTORE PUSH2 0x160 DUP6 ADD MSTORE PUSH1 0x40 MLOAD SWAP4 PUSH2 0x1CE7 DUP6 PUSH2 0x2E2F JUMP JUMPDEST DUP5 MSTORE PUSH1 0x20 DUP5 ADD MSTORE PUSH1 0x40 MLOAD PUSH2 0x1CFA DUP2 PUSH2 0x2E4A JUMP JUMPDEST PUSH1 0x0 DUP2 MSTORE PUSH1 0x40 DUP5 ADD MSTORE PUSH1 0x40 MLOAD PUSH2 0x1D0F DUP2 PUSH2 0x2E4A JUMP JUMPDEST PUSH1 0x0 DUP2 MSTORE PUSH1 0x60 DUP5 ADD MSTORE PUSH1 0x80 DUP4 ADD MSTORE PUSH1 0x0 PUSH1 0xA0 DUP4 ADD MSTORE PUSH1 0x60 PUSH1 0xC0 DUP4 ADD MSTORE CALLER PUSH1 0x0 MSTORE PUSH1 0x5 PUSH1 0x20 MSTORE PUSH2 0x1D42 DUP3 PUSH1 0x40 PUSH1 0x0 KECCAK256 PUSH2 0x3904 JUMP JUMPDEST PUSH1 0x7 SLOAD PUSH1 0x1 PUSH1 0x40 SHL SWAP2 DUP3 DUP3 LT ISZERO PUSH2 0x1321 JUMPI PUSH1 0x1 DUP3 ADD DUP1 PUSH1 0x7 SSTORE DUP3 LT ISZERO PUSH2 0x1E1C JUMPI PUSH2 0x1D92 SWAP2 PUSH1 0x7 PUSH1 0x0 MSTORE PUSH32 0xA66CC928B5EDB82AF9BD49922954155AB7B0942694BEA4CE44661D9A8736C688 ADD PUSH2 0x36CA JUMP JUMPDEST PUSH1 0x6 SLOAD SWAP1 DUP2 LT ISZERO PUSH2 0x1321 JUMPI DUP1 PUSH1 0x1 PUSH2 0x1DAD SWAP3 ADD PUSH1 0x6 SSTORE PUSH2 0x348B JUMP JUMPDEST PUSH2 0x130B JUMPI DUP2 PUSH2 0x1DBB SWAP2 PUSH2 0x3904 JUMP JUMPDEST PUSH1 0x8 SLOAD PUSH1 0x1 DUP2 ADD DUP1 SWAP2 GT PUSH2 0x1E06 JUMPI PUSH32 0xBD7813B4659B0614F61B410071FD949AA054D01B83458E9418DA207FA0A15260 SWAP2 PUSH2 0xAE5 SWAP2 PUSH1 0x8 SSTORE PUSH1 0x40 MLOAD SWAP2 DUP3 SWAP2 PUSH1 0x20 DUP4 MSTORE PUSH1 0x20 DUP4 ADD SWAP1 PUSH2 0x301E JUMP JUMPDEST PUSH4 0x4E487B71 PUSH1 0xE0 SHL PUSH1 0x0 MSTORE PUSH1 0x11 PUSH1 0x4 MSTORE PUSH1 0x24 PUSH1 0x0 REVERT JUMPDEST PUSH4 0x4E487B71 PUSH1 0xE0 SHL PUSH1 0x0 MSTORE PUSH1 0x32 PUSH1 0x4 MSTORE PUSH1 0x24 PUSH1 0x0 REVERT JUMPDEST PUSH2 0x1E3B DUP2 PUSH2 0x348B JUMP JUMPDEST POP PUSH1 0x2 ADD SLOAD PUSH1 0x24 CALLDATALOAD EQ PUSH2 0x1ED4 JUMPI PUSH2 0x1E56 PUSH1 0x6 PUSH2 0x15B5 DUP4 PUSH2 0x348B JUMP JUMPDEST PUSH1 0x20 DUP2 MLOAD SWAP2 ADD KECCAK256 DUP5 MLOAD PUSH1 0x20 DUP7 ADD KECCAK256 EQ PUSH2 0x1E77 JUMPI PUSH2 0x1E72 SWAP1 PUSH2 0x351D JUMP JUMPDEST PUSH2 0x1C76 JUMP JUMPDEST PUSH1 0x40 MLOAD PUSH3 0x461BCD PUSH1 0xE5 SHL DUP2 MSTORE PUSH1 0x20 PUSH1 0x4 DUP3 ADD MSTORE PUSH1 0x2F PUSH1 0x24 DUP3 ADD MSTORE PUSH32 0x43616E646964617465207769746820676976656E20656D61696C20616C726561 PUSH1 0x44 DUP3 ADD MSTORE PUSH15 0x647920726567697374657265642021 PUSH1 0x88 SHL PUSH1 0x64 DUP3 ADD MSTORE PUSH1 0x84 SWAP1 REVERT JUMPDEST PUSH1 0x40 MLOAD PUSH3 0x461BCD PUSH1 0xE5 SHL DUP2 MSTORE PUSH1 0x20 PUSH1 0x4 DUP3 ADD MSTORE PUSH1 0x39 PUSH1 0x24 DUP3 ADD MSTORE PUSH32 0x43616E646964617465207769746820676976656E20436974697A656E73686970 PUSH1 0x44 DUP3 ADD MSTORE PUSH32 0x204E6F2E20616C72656164792072656769737465726564202100000000000000 PUSH1 0x64 DUP3 ADD MSTORE PUSH1 0x84 SWAP1 REVERT JUMPDEST PUSH1 0x40 MLOAD PUSH3 0x461BCD PUSH1 0xE5 SHL DUP2 MSTORE PUSH1 0x20 PUSH1 0x4 DUP3 ADD MSTORE PUSH1 0x1E PUSH1 0x24 DUP3 ADD MSTORE PUSH32 0x43616E64696461746520616C7265616479207265676973746572656420210000 PUSH1 0x44 DUP3 ADD MSTORE PUSH1 0x64 SWAP1 REVERT JUMPDEST CALLVALUE PUSH2 0x20A JUMPI PUSH1 0x0 CALLDATASIZE PUSH1 0x3 NOT ADD SLT PUSH2 0x20A JUMPI PUSH1 0x14 SLOAD PUSH2 0x1FA1 DUP2 PUSH2 0x32DB JUMP JUMPDEST SWAP1 PUSH2 0x1FAF PUSH1 0x40 MLOAD SWAP3 DUP4 PUSH2 0x2E65 JUMP JUMPDEST DUP1 DUP3 MSTORE PUSH1 0x20 DUP3 ADD SWAP1 DUP2 PUSH1 0x14 PUSH1 0x0 MSTORE PUSH32 0xCE6D7B5282BD9A3661AE061FEED1DBDA4E52AB073B1F9285BE6E155D9C38D4EC PUSH1 0x0 SWAP2 JUMPDEST DUP4 DUP4 LT PUSH2 0x2142 JUMPI DUP5 DUP7 PUSH1 0x40 MLOAD SWAP2 DUP3 SWAP2 PUSH1 0x20 DUP4 ADD SWAP1 PUSH1 0x20 DUP5 MSTORE MLOAD DUP1 SWAP2 MSTORE PUSH1 0x40 DUP4 ADD SWAP1 PUSH1 0x5 PUSH1 0x40 DUP3 DUP3 SHL DUP7 ADD ADD SWAP4 SWAP3 PUSH1 0x0 SWAP2 JUMPDEST DUP4 DUP4 LT PUSH2 0x2020 JUMPI DUP7 DUP7 SUB DUP8 RETURN JUMPDEST SWAP2 SWAP4 SWAP6 POP SWAP2 SWAP4 PUSH1 0x3F NOT DUP8 DUP3 SUB ADD DUP4 MSTORE DUP6 MLOAD SWAP1 PUSH1 0x1 DUP1 PUSH1 0xA0 SHL SUB SWAP1 DUP2 DUP4 MLOAD AND DUP2 MSTORE PUSH2 0x206D PUSH2 0x205B PUSH1 0x20 DUP6 ADD MLOAD PUSH1 0xC0 DUP1 PUSH1 0x20 DUP7 ADD MSTORE DUP5 ADD SWAP1 PUSH2 0x2C38 JUMP JUMPDEST PUSH1 0x40 DUP6 ADD MLOAD DUP4 DUP3 SUB PUSH1 0x40 DUP6 ADD MSTORE PUSH2 0x2C38 JUMP JUMPDEST SWAP1 PUSH2 0x209A PUSH2 0x2087 PUSH1 0x60 SWAP4 DUP5 DUP8 ADD MLOAD DUP5 DUP3 SUB DUP7 DUP7 ADD MSTORE PUSH2 0x2C38 JUMP JUMPDEST PUSH1 0x80 DUP1 DUP8 ADD MLOAD SWAP1 DUP5 DUP4 SUB SWAP1 DUP6 ADD MSTORE PUSH2 0x2C38 JUMP JUMPDEST SWAP1 PUSH1 0xA0 DUP1 SWAP6 ADD MLOAD SWAP5 DUP2 DUP4 SUB SWAP2 ADD MSTORE DUP4 MLOAD SWAP1 DUP2 DUP2 MSTORE PUSH1 0x20 DUP2 ADD SWAP3 PUSH1 0x20 DUP1 DUP5 DUP10 SHL DUP5 ADD ADD SWAP7 ADD SWAP5 PUSH1 0x0 SWAP2 JUMPDEST DUP5 DUP4 LT PUSH2 0x20E9 JUMPI POP POP POP POP POP POP POP PUSH1 0x20 DUP1 PUSH1 0x1 SWAP3 SWAP8 ADD SWAP4 ADD SWAP4 ADD SWAP1 SWAP3 DUP7 SWAP6 SWAP5 SWAP3 SWAP4 PUSH2 0x2013 JUMP JUMPDEST SWAP1 SWAP2 SWAP3 SWAP4 SWAP5 SWAP6 SWAP7 PUSH1 0x20 DUP1 PUSH2 0x2133 PUSH1 0x1 SWAP4 PUSH1 0x1F NOT DUP10 DUP3 SUB ADD DUP12 MSTORE DUP12 MLOAD SWAP1 DUP8 DUP3 MLOAD AND DUP2 MSTORE PUSH1 0x40 PUSH2 0x2122 DUP6 DUP5 ADD MLOAD DUP10 DUP8 DUP6 ADD MSTORE DUP10 DUP5 ADD SWAP1 PUSH2 0x2C38 JUMP JUMPDEST SWAP3 ADD MLOAD SWAP1 PUSH1 0x40 DUP2 DUP5 SUB SWAP2 ADD MSTORE PUSH2 0x2C38 JUMP JUMPDEST SWAP10 ADD SWAP8 ADD SWAP6 SWAP5 SWAP4 ADD SWAP2 SWAP1 PUSH2 0x20C3 JUMP JUMPDEST PUSH1 0x40 MLOAD PUSH2 0x214E DUP2 PUSH2 0x2DDD JUMP JUMPDEST DUP3 SLOAD PUSH1 0x1 PUSH1 0x1 PUSH1 0xA0 SHL SUB AND DUP2 MSTORE PUSH1 0x40 MLOAD PUSH2 0x216F DUP2 PUSH2 0x288 DUP2 PUSH1 0x1 DUP9 ADD PUSH2 0x2D47 JUMP JUMPDEST PUSH1 0x20 DUP3 ADD MSTORE PUSH1 0x40 MLOAD PUSH2 0x2188 DUP2 PUSH2 0x288 DUP2 PUSH1 0x2 DUP9 ADD PUSH2 0x2D47 JUMP JUMPDEST PUSH1 0x40 DUP3 ADD MSTORE PUSH1 0x40 MLOAD PUSH2 0x21A1 DUP2 PUSH2 0x288 DUP2 PUSH1 0x3 DUP9 ADD PUSH2 0x2D47 JUMP JUMPDEST PUSH1 0x60 DUP3 ADD MSTORE PUSH1 0x40 MLOAD PUSH2 0x21BA DUP2 PUSH2 0x288 DUP2 PUSH1 0x4 DUP9 ADD PUSH2 0x2D47 JUMP JUMPDEST PUSH1 0x80 DUP3 ADD MSTORE PUSH1 0x5 DUP4 ADD SLOAD PUSH2 0x21CD DUP2 PUSH2 0x32DB JUMP JUMPDEST SWAP1 PUSH2 0x21DB PUSH1 0x40 MLOAD SWAP3 DUP4 PUSH2 0x2E65 JUMP JUMPDEST DUP1 DUP3 MSTORE PUSH1 0x20 DUP3 ADD PUSH1 0x5 DUP7 ADD PUSH1 0x0 MSTORE PUSH1 0x20 PUSH1 0x0 KECCAK256 SWAP1 PUSH1 0x0 SWAP1 JUMPDEST DUP4 DUP3 LT PUSH2 0x221A JUMPI POP POP POP POP PUSH1 0x1 SWAP3 DUP3 PUSH1 0x20 SWAP3 PUSH1 0xA0 PUSH1 0x6 SWAP6 ADD MSTORE DUP2 MSTORE ADD SWAP3 ADD SWAP3 ADD SWAP2 SWAP1 PUSH2 0x1FE2 JUMP JUMPDEST PUSH1 0x3 PUSH1 0x20 PUSH1 0x1 SWAP3 PUSH1 0x40 MLOAD PUSH2 0x222D DUP2 PUSH2 0x2DF8 JUMP JUMPDEST DUP5 DUP1 PUSH1 0xA0 SHL SUB DUP8 SLOAD AND DUP2 MSTORE PUSH1 0x40 MLOAD PUSH2 0x224B DUP2 PUSH2 0x288 DUP2 DUP10 DUP13 ADD PUSH2 0x2D47 JUMP JUMPDEST DUP4 DUP3 ADD MSTORE PUSH1 0x40 MLOAD PUSH2 0x2263 DUP2 PUSH2 0x288 DUP2 PUSH1 0x2 DUP13 ADD PUSH2 0x2D47 JUMP JUMPDEST PUSH1 0x40 DUP3 ADD MSTORE DUP2 MSTORE ADD SWAP4 ADD SWAP2 ADD SWAP1 SWAP2 PUSH2 0x21F3 JUMP JUMPDEST CALLVALUE PUSH2 0x20A JUMPI PUSH1 0x20 CALLDATASIZE PUSH1 0x3 NOT ADD SLT PUSH2 0x20A JUMPI PUSH1 0x20 PUSH2 0x2291 PUSH2 0x2BFF JUMP JUMPDEST PUSH1 0x1 SLOAD PUSH1 0x40 MLOAD PUSH1 0x1 PUSH1 0x1 PUSH1 0xA0 SHL SUB SWAP3 DUP4 AND SWAP2 SWAP1 SWAP3 AND EQ DUP2 MSTORE RETURN JUMPDEST PUSH1 0x80 CALLDATASIZE PUSH1 0x3 NOT ADD SLT PUSH2 0x20A JUMPI PUSH1 0x1 PUSH1 0x1 PUSH1 0x40 SHL SUB PUSH1 0x4 CALLDATALOAD DUP2 DUP2 GT PUSH2 0x20A JUMPI PUSH2 0x22D7 SWAP1 CALLDATASIZE SWAP1 PUSH1 0x4 ADD PUSH2 0x2EDD JUMP JUMPDEST SWAP1 PUSH1 0x44 CALLDATALOAD DUP2 DUP2 GT PUSH2 0x20A JUMPI PUSH2 0x22F0 SWAP1 CALLDATASIZE SWAP1 PUSH1 0x4 ADD PUSH2 0x2EDD JUMP JUMPDEST SWAP1 PUSH1 0x64 CALLDATALOAD SWAP1 DUP2 GT PUSH2 0x20A JUMPI PUSH2 0x2309 SWAP1 CALLDATASIZE SWAP1 PUSH1 0x4 ADD PUSH2 0x2EDD JUMP JUMPDEST PUSH1 0x1 SLOAD SWAP1 SWAP3 SWAP1 PUSH1 0x1 PUSH1 0x1 PUSH1 0xA0 SHL SUB AND PUSH2 0x2323 CALLER DUP3 EQ PUSH2 0x3658 JUMP JUMPDEST PUSH1 0x40 MLOAD SWAP4 PUSH2 0x2330 DUP6 PUSH2 0x2DDD JUMP JUMPDEST DUP2 DUP6 MSTORE DUP3 PUSH1 0x20 DUP7 ADD MSTORE PUSH1 0x24 SWAP4 DUP5 CALLDATALOAD PUSH1 0x40 DUP8 ADD MSTORE PUSH1 0x60 DUP7 ADD MSTORE PUSH1 0x80 DUP6 ADD MSTORE PUSH1 0x60 PUSH1 0xA0 DUP6 ADD MSTORE PUSH1 0x0 MSTORE PUSH1 0xE PUSH1 0x20 MSTORE PUSH2 0x236A DUP4 PUSH1 0x40 PUSH1 0x0 KECCAK256 PUSH2 0x3802 JUMP JUMPDEST PUSH1 0x10 SLOAD SWAP1 PUSH1 0x1 PUSH1 0x40 SHL SWAP2 DUP3 DUP2 LT ISZERO PUSH2 0xB14 JUMPI PUSH1 0x1 DUP2 ADD DUP1 PUSH1 0x10 SSTORE DUP2 LT ISZERO PUSH2 0x2494 JUMPI SWAP1 PUSH2 0x23BC SWAP2 PUSH1 0x10 PUSH1 0x0 MSTORE PUSH32 0x1B6847DC741A1B0CD08D278845F9D819D87B734759AFB55FE2DE5CB82A9AE672 ADD PUSH2 0x36CA JUMP JUMPDEST PUSH1 0xF SLOAD SWAP1 DUP2 LT ISZERO PUSH2 0x247F JUMPI PUSH1 0x1 DUP2 ADD DUP1 PUSH1 0xF SSTORE DUP2 LT ISZERO PUSH2 0x246A JUMPI DUP3 PUSH1 0x6 PUSH2 0x240A SWAP3 PUSH1 0xF PUSH1 0x0 MSTORE MUL PUSH32 0x8D1108E10BCB7C27DDDFC02ED9D693A074039D026CF4EA4240B40F7D581AC802 ADD PUSH2 0x3802 JUMP JUMPDEST PUSH1 0x15 SLOAD SWAP1 PUSH1 0x1 DUP3 ADD DUP1 SWAP3 GT PUSH2 0x2456 JUMPI PUSH32 0xA9842A716BC2513F613D9FAF736CA365FE3689A18EA2C3EF8BB9402C98A060C1 PUSH2 0xAE5 DUP5 DUP5 PUSH1 0x15 SSTORE PUSH1 0x40 MLOAD SWAP2 DUP3 SWAP2 PUSH1 0x20 DUP4 MSTORE PUSH1 0x20 DUP4 ADD SWAP1 PUSH2 0x2C9A JUMP JUMPDEST PUSH4 0x4E487B71 PUSH1 0xE0 SHL PUSH1 0x0 SWAP1 DUP2 MSTORE PUSH1 0x11 PUSH1 0x4 MSTORE REVERT JUMPDEST POP PUSH4 0x4E487B71 PUSH1 0xE0 SHL PUSH1 0x0 SWAP1 DUP2 MSTORE PUSH1 0x32 PUSH1 0x4 MSTORE REVERT JUMPDEST POP PUSH4 0x4E487B71 PUSH1 0xE0 SHL PUSH1 0x0 SWAP1 DUP2 MSTORE PUSH1 0x41 PUSH1 0x4 MSTORE REVERT JUMPDEST DUP4 PUSH4 0x4E487B71 PUSH1 0xE0 SHL PUSH1 0x0 MSTORE PUSH1 0x32 PUSH1 0x4 MSTORE PUSH1 0x0 REVERT JUMPDEST PUSH1 0x40 CALLDATASIZE PUSH1 0x3 NOT ADD SLT PUSH2 0x20A JUMPI PUSH2 0x24BD PUSH2 0x2BFF JUMP JUMPDEST PUSH1 0x24 CALLDATALOAD PUSH1 0x1 PUSH1 0x1 PUSH1 0x40 SHL SUB DUP2 GT PUSH2 0x20A JUMPI PUSH2 0x24DC SWAP1 CALLDATASIZE SWAP1 PUSH1 0x4 ADD PUSH2 0x2EDD JUMP JUMPDEST SWAP1 PUSH1 0x1 DUP1 PUSH1 0xA0 SHL SUB PUSH1 0x1 SLOAD AND CALLER EQ PUSH2 0x2A6D JUMPI PUSH1 0x6 SLOAD PUSH1 0x0 JUMPDEST DUP2 DUP2 LT PUSH2 0x2A00 JUMPI POP POP CALLER PUSH1 0x0 MSTORE PUSH1 0x9 PUSH1 0x20 MSTORE PUSH1 0x3 PUSH1 0xD PUSH1 0x40 PUSH1 0x0 KECCAK256 ADD SLOAD GT PUSH2 0x29AD JUMPI PUSH1 0x0 JUMPDEST PUSH1 0x1 PUSH1 0x1 PUSH1 0xA0 SHL SUB DUP3 AND PUSH1 0x0 SWAP1 DUP2 MSTORE PUSH1 0x5 PUSH1 0x20 MSTORE PUSH1 0x40 SWAP1 KECCAK256 PUSH1 0x11 SWAP1 DUP2 ADD SLOAD DUP3 LT ISZERO PUSH2 0x25B9 JUMPI DUP2 PUSH2 0x254E SWAP2 PUSH1 0x40 PUSH1 0x0 KECCAK256 ADD PUSH2 0x32F2 JUMP JUMPDEST SWAP1 SLOAD PUSH1 0x3 SWAP2 SWAP1 SWAP2 SHL SHR PUSH1 0x1 PUSH1 0x1 PUSH1 0xA0 SHL SUB AND CALLER EQ PUSH2 0x2574 JUMPI PUSH2 0x256F SWAP1 PUSH2 0x351D JUMP JUMPDEST PUSH2 0x2519 JUMP JUMPDEST PUSH1 0x40 MLOAD PUSH3 0x461BCD PUSH1 0xE5 SHL DUP2 MSTORE PUSH1 0x20 PUSH1 0x4 DUP3 ADD MSTORE PUSH1 0x18 PUSH1 0x24 DUP3 ADD MSTORE PUSH32 0x596F75206861766520616C726561647920766F74656420210000000000000000 PUSH1 0x44 DUP3 ADD MSTORE PUSH1 0x64 SWAP1 REVERT JUMPDEST POP POP PUSH1 0x1 DUP1 PUSH1 0xA0 SHL SUB DUP2 AND PUSH1 0x0 MSTORE PUSH1 0x5 PUSH1 0x20 MSTORE PUSH2 0x25DD CALLER PUSH1 0x11 PUSH1 0x40 PUSH1 0x0 KECCAK256 ADD PUSH2 0x352C JUMP JUMPDEST CALLER PUSH1 0x0 MSTORE PUSH1 0x9 PUSH1 0x20 MSTORE PUSH2 0x25F7 DUP2 PUSH1 0xC PUSH1 0x40 PUSH1 0x0 KECCAK256 ADD PUSH2 0x352C JUMP JUMPDEST PUSH1 0x1 PUSH1 0x1 PUSH1 0xA0 SHL SUB DUP2 AND PUSH1 0x0 SWAP1 DUP2 MSTORE PUSH1 0x5 PUSH1 0x20 MSTORE PUSH1 0x40 SWAP1 KECCAK256 PUSH1 0x10 ADD SLOAD PUSH1 0x1 DUP2 ADD DUP2 GT PUSH2 0x1E06 JUMPI PUSH1 0x1 SWAP1 DUP2 DUP1 PUSH1 0xA0 SHL SUB DUP4 AND PUSH1 0x0 MSTORE PUSH1 0x5 PUSH1 0x20 MSTORE ADD PUSH1 0x10 PUSH1 0x40 PUSH1 0x0 KECCAK256 ADD SSTORE PUSH2 0x2645 PUSH1 0xD SLOAD PUSH2 0x453E JUMP JUMPDEST PUSH1 0xD SSTORE PUSH1 0x0 JUMPDEST PUSH1 0x13 SLOAD DUP2 LT ISZERO PUSH2 0x272F JUMPI PUSH2 0x2663 PUSH1 0x2 PUSH2 0x15B5 DUP4 PUSH2 0x34E2 JUMP JUMPDEST PUSH1 0x20 DUP2 MLOAD SWAP2 ADD KECCAK256 DUP4 MLOAD PUSH1 0x20 DUP6 ADD KECCAK256 EQ PUSH2 0x2685 JUMPI JUMPDEST PUSH2 0x2680 SWAP1 PUSH2 0x351D JUMP JUMPDEST PUSH2 0x264B JUMP JUMPDEST SWAP2 PUSH1 0x0 JUMPDEST PUSH1 0x5 PUSH2 0x2694 DUP6 PUSH2 0x34E2 JUMP JUMPDEST POP ADD SLOAD DUP2 LT ISZERO PUSH2 0x2728 JUMPI DUP1 PUSH2 0x26B8 PUSH2 0x26D1 SWAP3 PUSH1 0x5 PUSH2 0x26B1 DUP9 PUSH2 0x34E2 JUMP JUMPDEST POP ADD PUSH2 0x34C6 JUMP JUMPDEST POP SLOAD PUSH1 0x1 PUSH1 0x1 PUSH1 0xA0 SHL SUB DUP6 DUP2 AND SWAP2 AND EQ PUSH2 0x26D6 JUMPI PUSH2 0x351D JUMP JUMPDEST PUSH2 0x2689 JUMP JUMPDEST PUSH2 0x26F3 PUSH2 0x26E8 DUP3 PUSH1 0x5 PUSH2 0x26B1 DUP10 PUSH2 0x34E2 JUMP JUMPDEST POP PUSH1 0x11 CALLER SWAP2 ADD PUSH2 0x352C JUMP JUMPDEST PUSH2 0x270F PUSH1 0x10 PUSH2 0x2707 DUP4 PUSH1 0x5 PUSH2 0x26B1 DUP11 PUSH2 0x34E2 JUMP JUMPDEST POP ADD SLOAD PUSH2 0x453E JUMP JUMPDEST PUSH1 0x10 PUSH2 0x2720 DUP4 PUSH1 0x5 PUSH2 0x26B1 DUP11 PUSH2 0x34E2 JUMP JUMPDEST POP ADD SSTORE PUSH2 0x351D JUMP JUMPDEST POP SWAP2 PUSH2 0x2677 JUMP JUMPDEST POP PUSH1 0x0 JUMPDEST PUSH1 0x6 SLOAD DUP2 LT ISZERO PUSH2 0x2774 JUMPI DUP1 PUSH2 0x274A PUSH2 0x2763 SWAP3 PUSH2 0x348B JUMP JUMPDEST POP SLOAD PUSH1 0x1 PUSH1 0x1 PUSH1 0xA0 SHL SUB DUP5 DUP2 AND SWAP2 AND EQ PUSH2 0x2768 JUMPI PUSH2 0x351D JUMP JUMPDEST PUSH2 0x2733 JUMP JUMPDEST PUSH2 0x163D PUSH2 0x26E8 DUP3 PUSH2 0x348B JUMP JUMPDEST POP PUSH1 0x0 JUMPDEST PUSH1 0xA SLOAD DUP2 LT ISZERO PUSH2 0x27C0 JUMPI DUP1 PUSH2 0x278F PUSH2 0x27A5 SWAP3 PUSH2 0x3192 JUMP JUMPDEST POP SLOAD PUSH1 0x1 PUSH1 0x1 PUSH1 0xA0 SHL SUB AND CALLER EQ PUSH2 0x27AA JUMPI PUSH2 0x351D JUMP JUMPDEST PUSH2 0x2778 JUMP JUMPDEST PUSH2 0x163D DUP4 PUSH1 0xC PUSH2 0x27B9 DUP5 PUSH2 0x3192 JUMP JUMPDEST POP ADD PUSH2 0x352C JUMP JUMPDEST POP CALLER PUSH1 0x0 MSTORE PUSH1 0x9 PUSH1 0x20 MSTORE PUSH2 0x27DB PUSH1 0xD PUSH1 0x40 PUSH1 0x0 KECCAK256 ADD SLOAD PUSH2 0x453E JUMP JUMPDEST CALLER PUSH1 0x0 MSTORE PUSH1 0x9 PUSH1 0x20 MSTORE PUSH1 0xD PUSH1 0x40 PUSH1 0x0 KECCAK256 ADD SSTORE PUSH1 0x1 DUP1 PUSH1 0xA0 SHL SUB AND PUSH1 0x0 MSTORE PUSH1 0x5 PUSH1 0x20 MSTORE PUSH32 0x8290914339D7365303A413CD92C24712459932B4210891839D929FAFD3DD37BF PUSH2 0xAE5 PUSH1 0x40 PUSH1 0x0 KECCAK256 PUSH1 0x40 MLOAD SWAP2 DUP3 SWAP2 PUSH1 0x20 DUP4 MSTORE PUSH1 0xE0 PUSH1 0x20 DUP5 ADD MSTORE PUSH1 0x1 DUP1 PUSH1 0xA0 SHL SUB DUP2 SLOAD AND PUSH2 0x100 DUP5 ADD MSTORE PUSH1 0x11 PUSH2 0x2936 PUSH2 0x180 DUP1 PUSH2 0x120 DUP8 ADD MSTORE PUSH2 0x2922 PUSH2 0x290E PUSH2 0x28FA PUSH2 0x28E6 PUSH2 0x28D2 PUSH2 0x28BE PUSH2 0x28AA DUP11 DUP14 PUSH2 0x160 PUSH1 0x3 PUSH2 0x2883 PUSH2 0x280 DUP5 ADD PUSH1 0x1 DUP7 ADD PUSH2 0x2D47 JUMP JUMPDEST SWAP4 PUSH1 0x2 DUP2 ADD SLOAD PUSH2 0x140 DUP6 ADD MSTORE ADD SLOAD SWAP2 ADD MSTORE DUP14 PUSH1 0xFF NOT SWAP10 DUP11 DUP3 DUP5 SUB ADD SWAP2 ADD MSTORE PUSH1 0x4 DUP13 ADD PUSH2 0x2D47 JUMP JUMPDEST DUP13 DUP2 SUB DUP9 ADD PUSH2 0x1A0 DUP15 ADD MSTORE PUSH1 0x5 DUP12 ADD PUSH2 0x2D47 JUMP JUMPDEST DUP7 DUP13 DUP3 SUB ADD PUSH2 0x1C0 DUP14 ADD MSTORE PUSH1 0x6 DUP11 ADD PUSH2 0x2D47 JUMP JUMPDEST DUP6 DUP12 DUP3 SUB ADD PUSH2 0x1E0 DUP13 ADD MSTORE PUSH1 0x7 DUP10 ADD PUSH2 0x2D47 JUMP JUMPDEST DUP5 DUP11 DUP3 SUB ADD PUSH2 0x200 DUP12 ADD MSTORE PUSH1 0x8 DUP9 ADD PUSH2 0x2D47 JUMP JUMPDEST DUP4 DUP10 DUP3 SUB ADD PUSH2 0x220 DUP11 ADD MSTORE PUSH1 0x9 DUP8 ADD PUSH2 0x2D47 JUMP JUMPDEST DUP3 DUP9 DUP3 SUB ADD PUSH2 0x240 DUP10 ADD MSTORE PUSH1 0xA DUP7 ADD PUSH2 0x2D47 JUMP JUMPDEST SWAP1 DUP7 DUP3 SUB ADD PUSH2 0x260 DUP8 ADD MSTORE PUSH1 0xB DUP5 ADD PUSH2 0x2D47 JUMP JUMPDEST SWAP2 PUSH2 0x2993 PUSH2 0x2980 PUSH2 0x296D PUSH2 0x295A PUSH1 0x1F NOT SWAP7 DUP8 DUP11 DUP3 SUB ADD PUSH1 0x40 DUP12 ADD MSTORE PUSH1 0xC DUP7 ADD PUSH2 0x2D47 JUMP JUMPDEST DUP7 DUP10 DUP3 SUB ADD PUSH1 0x60 DUP11 ADD MSTORE PUSH1 0xD DUP6 ADD PUSH2 0x2D47 JUMP JUMPDEST DUP6 DUP9 DUP3 SUB ADD PUSH1 0x80 DUP10 ADD MSTORE PUSH1 0xE DUP5 ADD PUSH2 0x2D47 JUMP JUMPDEST DUP5 DUP8 DUP3 SUB ADD PUSH1 0xA0 DUP9 ADD MSTORE PUSH1 0xF DUP4 ADD PUSH2 0x2D47 JUMP JUMPDEST SWAP3 PUSH1 0x10 DUP3 ADD SLOAD PUSH1 0xC0 DUP8 ADD MSTORE DUP6 DUP5 SUB ADD PUSH1 0xE0 DUP7 ADD MSTORE ADD PUSH2 0x3612 JUMP JUMPDEST PUSH1 0x40 MLOAD PUSH3 0x461BCD PUSH1 0xE5 SHL DUP2 MSTORE PUSH1 0x20 PUSH1 0x4 DUP3 ADD MSTORE PUSH1 0x25 PUSH1 0x24 DUP3 ADD MSTORE PUSH32 0x596F752068617665206578636565642074686520766F7465206361737465206C PUSH1 0x44 DUP3 ADD MSTORE PUSH5 0x34B6B4BA17 PUSH1 0xD9 SHL PUSH1 0x64 DUP3 ADD MSTORE PUSH1 0x84 SWAP1 REVERT JUMPDEST PUSH2 0x2A09 DUP2 PUSH2 0x348B JUMP JUMPDEST POP SLOAD PUSH1 0x1 PUSH1 0x1 PUSH1 0xA0 SHL SUB AND CALLER EQ PUSH2 0x2A28 JUMPI PUSH2 0x2A23 SWAP1 PUSH2 0x351D JUMP JUMPDEST PUSH2 0x24F4 JUMP JUMPDEST PUSH1 0x40 MLOAD PUSH3 0x461BCD PUSH1 0xE5 SHL DUP2 MSTORE PUSH1 0x20 PUSH1 0x4 DUP3 ADD MSTORE PUSH1 0x1F PUSH1 0x24 DUP3 ADD MSTORE PUSH32 0x43616E64696461746520697320726573747269637420746F20766F7465202100 PUSH1 0x44 DUP3 ADD MSTORE PUSH1 0x64 SWAP1 REVERT JUMPDEST PUSH1 0x40 MLOAD PUSH3 0x461BCD PUSH1 0xE5 SHL DUP2 MSTORE PUSH1 0x20 PUSH1 0x4 DUP3 ADD MSTORE PUSH1 0x1B PUSH1 0x24 DUP3 ADD MSTORE PUSH32 0x41646D696E20697320726573747269637420746F20766F746520210000000000 PUSH1 0x44 DUP3 ADD MSTORE PUSH1 0x64 SWAP1 REVERT JUMPDEST CALLVALUE PUSH2 0x20A JUMPI PUSH1 0x0 CALLDATASIZE PUSH1 0x3 NOT ADD SLT PUSH2 0x20A JUMPI PUSH1 0x20 PUSH1 0x8 SLOAD PUSH1 0x40 MLOAD SWAP1 DUP2 MSTORE RETURN JUMPDEST CALLVALUE PUSH2 0x20A JUMPI PUSH1 0x0 CALLDATASIZE PUSH1 0x3 NOT ADD SLT PUSH2 0x20A JUMPI PUSH1 0x20 PUSH1 0x4 SLOAD PUSH1 0x40 MLOAD SWAP1 DUP2 MSTORE RETURN JUMPDEST CALLVALUE PUSH2 0x20A JUMPI PUSH1 0x0 CALLDATASIZE PUSH1 0x3 NOT ADD SLT PUSH2 0x20A JUMPI PUSH1 0x20 PUSH1 0x2 SLOAD PUSH1 0x40 MLOAD SWAP1 DUP2 MSTORE RETURN JUMPDEST CALLVALUE PUSH2 0x20A JUMPI PUSH1 0x20 CALLDATASIZE PUSH1 0x3 NOT ADD SLT PUSH2 0x20A JUMPI PUSH1 0x1 PUSH1 0x1 PUSH1 0xA0 SHL SUB DUP1 PUSH2 0x2B2E PUSH2 0x2BFF JUMP JUMPDEST AND PUSH1 0x0 MSTORE PUSH1 0x12 PUSH1 0x20 MSTORE PUSH1 0x40 PUSH1 0x0 KECCAK256 SWAP1 DUP2 SLOAD AND PUSH2 0x2A3 PUSH1 0x4 PUSH1 0x40 MLOAD SWAP4 PUSH2 0x2B5A DUP6 PUSH2 0x42C DUP2 PUSH1 0x1 DUP6 ADD PUSH2 0x2D47 JUMP JUMPDEST PUSH1 0x40 MLOAD PUSH2 0x2B6E DUP2 PUSH2 0x288 DUP2 PUSH1 0x2 DUP7 ADD PUSH2 0x2D47 JUMP JUMPDEST PUSH2 0xCAD PUSH1 0x40 MLOAD SWAP3 PUSH2 0x4A4 DUP5 PUSH2 0x49D DUP2 PUSH1 0x3 DUP6 ADD PUSH2 0x2D47 JUMP JUMPDEST CALLVALUE PUSH2 0x20A JUMPI PUSH1 0x20 CALLDATASIZE PUSH1 0x3 NOT ADD SLT PUSH2 0x20A JUMPI PUSH1 0x60 PUSH1 0xA0 PUSH2 0x2BA3 PUSH2 0x2BFF JUMP JUMPDEST SWAP3 PUSH2 0x2BAD DUP2 PUSH2 0x2DDD JUMP JUMPDEST PUSH1 0x0 DUP2 MSTORE DUP3 PUSH1 0x20 DUP3 ADD MSTORE PUSH1 0x0 PUSH1 0x40 DUP3 ADD MSTORE DUP3 DUP1 DUP3 ADD MSTORE DUP3 PUSH1 0x80 DUP3 ADD MSTORE ADD MSTORE PUSH1 0x1 DUP1 PUSH1 0xA0 SHL SUB AND PUSH1 0x0 MSTORE PUSH1 0xE PUSH1 0x20 MSTORE PUSH2 0x2A3 PUSH2 0x2BEB PUSH1 0x40 PUSH1 0x0 KECCAK256 PUSH2 0x4349 JUMP JUMPDEST PUSH1 0x40 MLOAD SWAP2 DUP3 SWAP2 PUSH1 0x20 DUP4 MSTORE PUSH1 0x20 DUP4 ADD SWAP1 PUSH2 0x2C9A JUMP JUMPDEST PUSH1 0x4 CALLDATALOAD SWAP1 PUSH1 0x1 PUSH1 0x1 PUSH1 0xA0 SHL SUB DUP3 AND DUP3 SUB PUSH2 0x20A JUMPI JUMP JUMPDEST PUSH1 0x0 JUMPDEST DUP4 DUP2 LT PUSH2 0x2C28 JUMPI POP POP PUSH1 0x0 SWAP2 ADD MSTORE JUMP JUMPDEST DUP2 DUP2 ADD MLOAD DUP4 DUP3 ADD MSTORE PUSH1 0x20 ADD PUSH2 0x2C18 JUMP JUMPDEST SWAP1 PUSH1 0x20 SWAP2 PUSH2 0x2C51 DUP2 MLOAD DUP1 SWAP3 DUP2 DUP6 MSTORE DUP6 DUP1 DUP7 ADD SWAP2 ADD PUSH2 0x2C15 JUMP JUMPDEST PUSH1 0x1F ADD PUSH1 0x1F NOT AND ADD ADD SWAP1 JUMP JUMPDEST SWAP1 DUP2 MLOAD DUP1 DUP3 MSTORE PUSH1 0x20 DUP1 DUP1 SWAP4 ADD SWAP4 ADD SWAP2 PUSH1 0x0 JUMPDEST DUP3 DUP2 LT PUSH2 0x2C7D JUMPI POP POP POP POP SWAP1 JUMP JUMPDEST DUP4 MLOAD PUSH1 0x1 PUSH1 0x1 PUSH1 0xA0 SHL SUB AND DUP6 MSTORE SWAP4 DUP2 ADD SWAP4 SWAP3 DUP2 ADD SWAP3 PUSH1 0x1 ADD PUSH2 0x2C6F JUMP JUMPDEST PUSH2 0x2D0A SWAP2 PUSH1 0x1 DUP1 PUSH1 0xA0 SHL SUB DUP3 MLOAD AND DUP2 MSTORE PUSH1 0xA0 PUSH2 0x2CF9 PUSH2 0x2CE7 PUSH2 0x2CCB PUSH1 0x20 DUP7 ADD MLOAD PUSH1 0xC0 PUSH1 0x20 DUP8 ADD MSTORE PUSH1 0xC0 DUP7 ADD SWAP1 PUSH2 0x2C38 JUMP JUMPDEST PUSH1 0x40 DUP7 ADD MLOAD PUSH1 0x40 DUP7 ADD MSTORE PUSH1 0x60 DUP7 ADD MLOAD DUP6 DUP3 SUB PUSH1 0x60 DUP8 ADD MSTORE PUSH2 0x2C38 JUMP JUMPDEST PUSH1 0x80 DUP6 ADD MLOAD DUP5 DUP3 SUB PUSH1 0x80 DUP7 ADD MSTORE PUSH2 0x2C38 JUMP JUMPDEST SWAP3 ADD MLOAD SWAP1 PUSH1 0xA0 DUP2 DUP5 SUB SWAP2 ADD MSTORE PUSH2 0x2C5D JUMP JUMPDEST SWAP1 JUMP JUMPDEST SWAP1 PUSH1 0x1 DUP3 DUP2 SHR SWAP3 AND DUP1 ISZERO PUSH2 0x2D3D JUMPI JUMPDEST PUSH1 0x20 DUP4 LT EQ PUSH2 0x2D27 JUMPI JUMP JUMPDEST PUSH4 0x4E487B71 PUSH1 0xE0 SHL PUSH1 0x0 MSTORE PUSH1 0x22 PUSH1 0x4 MSTORE PUSH1 0x24 PUSH1 0x0 REVERT JUMPDEST SWAP2 PUSH1 0x7F AND SWAP2 PUSH2 0x2D1C JUMP JUMPDEST SWAP1 PUSH1 0x0 SWAP3 SWAP2 DUP1 SLOAD SWAP2 PUSH2 0x2D58 DUP4 PUSH2 0x2D0D JUMP JUMPDEST SWAP2 DUP3 DUP3 MSTORE PUSH1 0x1 SWAP4 DUP5 DUP2 AND SWAP1 DUP2 PUSH1 0x0 EQ PUSH2 0x2DBA JUMPI POP PUSH1 0x1 EQ PUSH2 0x2D7A JUMPI JUMPDEST POP POP POP POP JUMP JUMPDEST SWAP1 SWAP2 SWAP4 SWAP5 POP PUSH1 0x0 MSTORE PUSH1 0x20 SWAP3 DUP4 PUSH1 0x0 KECCAK256 SWAP3 DUP5 PUSH1 0x0 SWAP5 JUMPDEST DUP4 DUP7 LT PUSH2 0x2DA6 JUMPI POP POP POP POP ADD ADD SWAP1 CODESIZE DUP1 DUP1 DUP1 PUSH2 0x2D74 JUMP JUMPDEST DUP1 SLOAD DUP6 DUP8 ADD DUP4 ADD MSTORE SWAP5 ADD SWAP4 DUP6 SWAP1 DUP3 ADD PUSH2 0x2D8F JUMP JUMPDEST SWAP3 SWAP5 POP POP POP PUSH1 0x20 SWAP4 SWAP5 POP PUSH1 0xFF NOT AND DUP4 DUP4 ADD MSTORE ISZERO ISZERO PUSH1 0x5 SHL ADD ADD SWAP1 CODESIZE DUP1 DUP1 DUP1 PUSH2 0x2D74 JUMP JUMPDEST PUSH1 0xC0 DUP2 ADD SWAP1 DUP2 LT PUSH1 0x1 PUSH1 0x1 PUSH1 0x40 SHL SUB DUP3 GT OR PUSH2 0x1321 JUMPI PUSH1 0x40 MSTORE JUMP JUMPDEST PUSH1 0x60 DUP2 ADD SWAP1 DUP2 LT PUSH1 0x1 PUSH1 0x1 PUSH1 0x40 SHL SUB DUP3 GT OR PUSH2 0x1321 JUMPI PUSH1 0x40 MSTORE JUMP JUMPDEST PUSH2 0x180 DUP2 ADD SWAP1 DUP2 LT PUSH1 0x1 PUSH1 0x1 PUSH1 0x40 SHL SUB DUP3 GT OR PUSH2 0x1321 JUMPI PUSH1 0x40 MSTORE JUMP JUMPDEST PUSH1 0xE0 DUP2 ADD SWAP1 DUP2 LT PUSH1 0x1 PUSH1 0x1 PUSH1 0x40 SHL SUB DUP3 GT OR PUSH2 0x1321 JUMPI PUSH1 0x40 MSTORE JUMP JUMPDEST PUSH1 0x20 DUP2 ADD SWAP1 DUP2 LT PUSH1 0x1 PUSH1 0x1 PUSH1 0x40 SHL SUB DUP3 GT OR PUSH2 0x1321 JUMPI PUSH1 0x40 MSTORE JUMP JUMPDEST SWAP1 PUSH1 0x1F DUP1 NOT SWAP2 ADD AND DUP2 ADD SWAP1 DUP2 LT PUSH1 0x1 PUSH1 0x1 PUSH1 0x40 SHL SUB DUP3 GT OR PUSH2 0x1321 JUMPI PUSH1 0x40 MSTORE JUMP JUMPDEST SWAP4 SWAP1 PUSH2 0x2D0A SWAP6 SWAP4 PUSH2 0x2EB3 PUSH2 0x2ECF SWAP5 PUSH2 0x2EC1 SWAP4 PUSH1 0x1 DUP1 PUSH1 0xA0 SHL SUB AND DUP9 MSTORE PUSH1 0xA0 PUSH1 0x20 DUP10 ADD MSTORE PUSH1 0xA0 DUP9 ADD SWAP1 PUSH2 0x2C38 JUMP JUMPDEST SWAP1 DUP7 DUP3 SUB PUSH1 0x40 DUP9 ADD MSTORE PUSH2 0x2C38 JUMP JUMPDEST SWAP1 DUP5 DUP3 SUB PUSH1 0x60 DUP7 ADD MSTORE PUSH2 0x2C38 JUMP JUMPDEST SWAP2 PUSH1 0x80 DUP2 DUP5 SUB SWAP2 ADD MSTORE PUSH2 0x2C38 JUMP JUMPDEST DUP2 PUSH1 0x1F DUP3 ADD SLT ISZERO PUSH2 0x20A JUMPI DUP1 CALLDATALOAD SWAP1 PUSH1 0x1 PUSH1 0x1 PUSH1 0x40 SHL SUB DUP3 GT PUSH2 0x1321 JUMPI PUSH1 0x40 MLOAD SWAP3 PUSH2 0x2F11 PUSH1 0x1F DUP5 ADD PUSH1 0x1F NOT AND PUSH1 0x20 ADD DUP6 PUSH2 0x2E65 JUMP JUMPDEST DUP3 DUP5 MSTORE PUSH1 0x20 DUP4 DUP4 ADD ADD GT PUSH2 0x20A JUMPI DUP2 PUSH1 0x0 SWAP3 PUSH1 0x20 DUP1 SWAP4 ADD DUP4 DUP7 ADD CALLDATACOPY DUP4 ADD ADD MSTORE SWAP1 JUMP JUMPDEST SWAP1 PUSH2 0x2D0A SWAP2 PUSH1 0x1 DUP1 PUSH1 0xA0 SHL SUB DUP2 MLOAD AND DUP3 MSTORE PUSH2 0x300A PUSH2 0x2FF6 PUSH2 0x2FE2 PUSH2 0x2FCE PUSH2 0x2FBC PUSH2 0x2FAA PUSH2 0x2F98 PUSH2 0x2F72 PUSH1 0x20 DUP10 ADD MLOAD PUSH2 0x180 DUP1 PUSH1 0x20 DUP14 ADD MSTORE DUP12 ADD SWAP1 PUSH2 0x2C38 JUMP JUMPDEST PUSH1 0x40 DUP10 ADD MLOAD PUSH1 0x40 DUP12 ADD MSTORE PUSH1 0x60 DUP10 ADD MLOAD PUSH1 0x60 DUP12 ADD MSTORE PUSH1 0x80 DUP10 ADD MLOAD DUP11 DUP3 SUB PUSH1 0x80 DUP13 ADD MSTORE PUSH2 0x2C38 JUMP JUMPDEST PUSH1 0xA0 DUP9 ADD MLOAD DUP10 DUP3 SUB PUSH1 0xA0 DUP12 ADD MSTORE PUSH2 0x2C38 JUMP JUMPDEST PUSH1 0xC0 DUP8 ADD MLOAD DUP9 DUP3 SUB PUSH1 0xC0 DUP11 ADD MSTORE PUSH2 0x2C38 JUMP JUMPDEST PUSH1 0xE0 DUP7 ADD MLOAD DUP8 DUP3 SUB PUSH1 0xE0 DUP10 ADD MSTORE PUSH2 0x2C38 JUMP JUMPDEST PUSH2 0x100 DUP1 DUP7 ADD MLOAD SWAP1 DUP8 DUP4 SUB SWAP1 DUP9 ADD MSTORE PUSH2 0x2C38 JUMP JUMPDEST PUSH2 0x120 DUP1 DUP6 ADD MLOAD SWAP1 DUP7 DUP4 SUB SWAP1 DUP8 ADD MSTORE PUSH2 0x2C38 JUMP JUMPDEST PUSH2 0x140 DUP1 DUP5 ADD MLOAD SWAP1 DUP6 DUP4 SUB SWAP1 DUP7 ADD MSTORE PUSH2 0x2C38 JUMP JUMPDEST SWAP2 PUSH2 0x160 DUP1 SWAP3 ADD MLOAD SWAP2 DUP2 DUP5 SUB SWAP2 ADD MSTORE PUSH2 0x2C38 JUMP JUMPDEST PUSH2 0x2D0A SWAP2 PUSH1 0xC0 PUSH2 0x3079 PUSH2 0x2CE7 PUSH2 0x3067 PUSH2 0x3055 PUSH2 0x3043 DUP8 MLOAD PUSH1 0xE0 DUP9 MSTORE PUSH1 0xE0 DUP9 ADD SWAP1 PUSH2 0x2F33 JUMP JUMPDEST PUSH1 0x20 DUP9 ADD MLOAD DUP8 DUP3 SUB PUSH1 0x20 DUP10 ADD MSTORE PUSH2 0x2C38 JUMP JUMPDEST PUSH1 0x40 DUP8 ADD MLOAD DUP7 DUP3 SUB PUSH1 0x40 DUP9 ADD MSTORE PUSH2 0x2C38 JUMP JUMPDEST PUSH1 0x60 DUP7 ADD MLOAD DUP6 DUP3 SUB PUSH1 0x60 DUP8 ADD MSTORE PUSH2 0x2C38 JUMP JUMPDEST SWAP3 PUSH1 0xA0 DUP2 ADD MLOAD PUSH1 0xA0 DUP5 ADD MSTORE ADD MLOAD SWAP1 PUSH1 0xC0 DUP2 DUP5 SUB SWAP2 ADD MSTORE PUSH2 0x2C5D JUMP JUMPDEST SWAP1 DUP1 DUP3 MLOAD SWAP1 DUP2 DUP2 MSTORE PUSH1 0x20 DUP1 SWAP2 ADD SWAP3 DUP2 DUP1 DUP5 PUSH1 0x5 SHL DUP4 ADD ADD SWAP6 ADD SWAP4 PUSH1 0x0 SWAP2 JUMPDEST DUP5 DUP4 LT PUSH2 0x30C2 JUMPI POP POP POP POP POP POP SWAP1 JUMP JUMPDEST SWAP1 SWAP2 SWAP3 SWAP4 SWAP5 SWAP6 DUP5 DUP1 PUSH2 0x30E0 PUSH1 0x1 SWAP4 PUSH1 0x1F NOT DUP7 DUP3 SUB ADD DUP8 MSTORE DUP11 MLOAD PUSH2 0x301E JUMP JUMPDEST SWAP9 ADD SWAP4 ADD SWAP4 ADD SWAP2 SWAP5 SWAP4 SWAP3 SWAP1 PUSH2 0x30B2 JUMP JUMPDEST SWAP1 PUSH1 0x40 DUP1 PUSH2 0x311C PUSH2 0x310A DUP6 MLOAD PUSH1 0x60 DUP7 MSTORE PUSH1 0x60 DUP7 ADD SWAP1 PUSH2 0x2F33 JUMP JUMPDEST PUSH1 0x20 DUP7 ADD MLOAD DUP6 DUP3 SUB PUSH1 0x20 DUP8 ADD MSTORE PUSH2 0x2C5D JUMP JUMPDEST SWAP4 ADD MLOAD SWAP2 ADD MSTORE SWAP1 JUMP JUMPDEST SWAP4 SWAP1 PUSH2 0x2D0A SWAP6 SWAP4 PUSH2 0x2EB3 PUSH2 0x2ECF SWAP5 PUSH2 0x3148 PUSH2 0x2EC1 SWAP5 PUSH1 0xA0 DUP11 MSTORE PUSH1 0xA0 DUP11 ADD SWAP1 PUSH2 0x2C38 JUMP JUMPDEST SWAP1 DUP9 DUP3 SUB PUSH1 0x20 DUP11 ADD MSTORE PUSH2 0x2C38 JUMP JUMPDEST SWAP4 PUSH2 0x317F PUSH2 0x2ECF SWAP4 PUSH2 0x2D0A SWAP8 SWAP6 SWAP4 PUSH1 0x1 DUP1 PUSH1 0xA0 SHL SUB AND DUP8 MSTORE PUSH1 0xA0 PUSH1 0x20 DUP9 ADD MSTORE PUSH1 0xA0 DUP8 ADD SWAP1 PUSH2 0x2C38 JUMP JUMPDEST SWAP2 PUSH1 0x40 DUP7 ADD MSTORE DUP5 DUP3 SUB PUSH1 0x60 DUP7 ADD MSTORE PUSH2 0x2C38 JUMP JUMPDEST PUSH1 0xA SLOAD DUP2 LT ISZERO PUSH2 0x1E1C JUMPI PUSH1 0xE SWAP1 PUSH1 0xA PUSH1 0x0 MSTORE MUL PUSH32 0xC65A7BB8D6351C1CF70C95A316CC6A92839C986682D98BC35F958F4883F9D2A8 ADD SWAP1 PUSH1 0x0 SWAP1 JUMP JUMPDEST SWAP1 PUSH1 0xB PUSH2 0x160 PUSH1 0x40 SWAP4 PUSH2 0x32D7 DUP6 MLOAD SWAP2 PUSH2 0x31E5 DUP4 PUSH2 0x2E13 JUMP JUMPDEST PUSH2 0x4B4 DUP4 SWAP8 PUSH1 0x1 DUP1 PUSH1 0xA0 SHL SUB DUP4 SLOAD AND DUP6 MSTORE DUP1 MLOAD PUSH2 0x3209 DUP2 PUSH2 0x288 DUP2 PUSH1 0x1 DUP9 ADD PUSH2 0x2D47 JUMP JUMPDEST PUSH1 0x20 DUP7 ADD MSTORE PUSH1 0x2 DUP4 ADD SLOAD DUP2 DUP7 ADD MSTORE PUSH1 0x3 DUP4 ADD SLOAD PUSH1 0x60 DUP7 ADD MSTORE DUP1 MLOAD PUSH2 0x3234 DUP2 PUSH2 0x288 DUP2 PUSH1 0x4 DUP9 ADD PUSH2 0x2D47 JUMP JUMPDEST PUSH1 0x80 DUP7 ADD MSTORE DUP1 MLOAD PUSH2 0x324C DUP2 PUSH2 0x288 DUP2 PUSH1 0x5 DUP9 ADD PUSH2 0x2D47 JUMP JUMPDEST PUSH1 0xA0 DUP7 ADD MSTORE DUP1 MLOAD PUSH2 0x3264 DUP2 PUSH2 0x288 DUP2 PUSH1 0x6 DUP9 ADD PUSH2 0x2D47 JUMP JUMPDEST PUSH1 0xC0 DUP7 ADD MSTORE DUP1 MLOAD PUSH2 0x327C DUP2 PUSH2 0x288 DUP2 PUSH1 0x7 DUP9 ADD PUSH2 0x2D47 JUMP JUMPDEST PUSH1 0xE0 DUP7 ADD MSTORE DUP1 MLOAD PUSH2 0x3294 DUP2 PUSH2 0x288 DUP2 PUSH1 0x8 DUP9 ADD PUSH2 0x2D47 JUMP JUMPDEST PUSH2 0x100 DUP7 ADD MSTORE DUP1 MLOAD PUSH2 0x32AD DUP2 PUSH2 0x288 DUP2 PUSH1 0x9 DUP9 ADD PUSH2 0x2D47 JUMP JUMPDEST PUSH2 0x120 DUP7 ADD MSTORE DUP1 MLOAD PUSH2 0x32C6 DUP2 PUSH2 0x288 DUP2 PUSH1 0xA DUP9 ADD PUSH2 0x2D47 JUMP JUMPDEST PUSH2 0x140 DUP7 ADD MSTORE MLOAD DUP1 SWAP7 DUP2 SWAP4 ADD PUSH2 0x2D47 JUMP JUMPDEST ADD MSTORE JUMP JUMPDEST PUSH1 0x1 PUSH1 0x1 PUSH1 0x40 SHL SUB DUP2 GT PUSH2 0x1321 JUMPI PUSH1 0x5 SHL PUSH1 0x20 ADD SWAP1 JUMP JUMPDEST DUP1 SLOAD DUP3 LT ISZERO PUSH2 0x1E1C JUMPI PUSH1 0x0 MSTORE PUSH1 0x20 PUSH1 0x0 KECCAK256 ADD SWAP1 PUSH1 0x0 SWAP1 JUMP JUMPDEST PUSH1 0x14 SLOAD DUP2 LT ISZERO PUSH2 0x1E1C JUMPI PUSH1 0x6 SWAP1 PUSH1 0x14 PUSH1 0x0 MSTORE MUL PUSH32 0xCE6D7B5282BD9A3661AE061FEED1DBDA4E52AB073B1F9285BE6E155D9C38D4EC ADD SWAP1 PUSH1 0x0 SWAP1 JUMP JUMPDEST PUSH2 0x3358 DUP2 MLOAD PUSH1 0xE0 DUP5 MSTORE PUSH1 0xE0 DUP5 ADD SWAP1 PUSH2 0x2C38 JUMP JUMPDEST PUSH1 0xC0 PUSH2 0x33C4 PUSH2 0x33B2 PUSH2 0x33A0 PUSH2 0x338E PUSH2 0x337C PUSH1 0x20 SWAP7 DUP8 DUP10 ADD MLOAD DUP11 DUP3 SUB DUP10 DUP13 ADD MSTORE PUSH2 0x2C38 JUMP JUMPDEST PUSH1 0x40 DUP9 ADD MLOAD DUP10 DUP3 SUB PUSH1 0x40 DUP12 ADD MSTORE PUSH2 0x2C38 JUMP JUMPDEST PUSH1 0x60 DUP8 ADD MLOAD DUP9 DUP3 SUB PUSH1 0x60 DUP11 ADD MSTORE PUSH2 0x2C38 JUMP JUMPDEST PUSH1 0x80 DUP7 ADD MLOAD DUP8 DUP3 SUB PUSH1 0x80 DUP10 ADD MSTORE PUSH2 0x2C38 JUMP JUMPDEST PUSH1 0xA0 DUP6 ADD MLOAD DUP7 DUP3 SUB PUSH1 0xA0 DUP9 ADD MSTORE PUSH2 0x3094 JUMP JUMPDEST SWAP3 ADD MLOAD SWAP3 PUSH1 0xC0 DUP2 DUP5 SUB SWAP2 ADD MSTORE DUP3 MLOAD SWAP1 DUP2 DUP4 MSTORE DUP1 DUP4 ADD SWAP3 DUP2 DUP1 DUP5 PUSH1 0x5 SHL DUP4 ADD ADD SWAP6 ADD SWAP4 PUSH1 0x0 SWAP2 JUMPDEST DUP5 DUP4 LT PUSH2 0x33FA JUMPI POP POP POP POP POP POP SWAP1 JUMP JUMPDEST SWAP1 SWAP2 SWAP3 SWAP4 SWAP5 SWAP6 DUP5 DUP1 PUSH2 0x3418 PUSH1 0x1 SWAP4 PUSH1 0x1F NOT DUP7 DUP3 SUB ADD DUP8 MSTORE DUP11 MLOAD PUSH2 0x2C38 JUMP JUMPDEST SWAP9 ADD SWAP4 ADD SWAP4 ADD SWAP2 SWAP5 SWAP4 SWAP3 SWAP1 PUSH2 0x33EA JUMP JUMPDEST SWAP7 SWAP6 SWAP5 SWAP2 SWAP4 PUSH2 0x346A PUSH2 0x3486 SWAP5 PUSH2 0x345C PUSH1 0xA0 SWAP8 PUSH2 0x344E PUSH2 0x3478 SWAP7 PUSH1 0xC0 DUP15 DUP2 DUP2 MSTORE ADD SWAP1 PUSH2 0x2F33 JUMP JUMPDEST DUP13 DUP2 SUB PUSH1 0x20 DUP15 ADD MSTORE SWAP1 PUSH2 0x2C38 JUMP JUMPDEST SWAP1 DUP11 DUP3 SUB PUSH1 0x40 DUP13 ADD MSTORE PUSH2 0x2C38 JUMP JUMPDEST SWAP1 DUP9 DUP3 SUB PUSH1 0x60 DUP11 ADD MSTORE PUSH2 0x2C38 JUMP JUMPDEST SWAP1 DUP7 DUP3 SUB PUSH1 0x80 DUP9 ADD MSTORE PUSH2 0x2C38 JUMP JUMPDEST SWAP4 ADD MSTORE JUMP JUMPDEST PUSH1 0x6 SLOAD DUP2 LT ISZERO PUSH2 0x1E1C JUMPI PUSH1 0x12 SWAP1 PUSH1 0x6 PUSH1 0x0 MSTORE MUL PUSH32 0xF652222313E28459528D920B65115C16C04F3EFC82AAEDC97BE59F3F377C0D3F ADD SWAP1 PUSH1 0x0 SWAP1 JUMP JUMPDEST DUP1 SLOAD DUP3 LT ISZERO PUSH2 0x1E1C JUMPI PUSH1 0x0 MSTORE PUSH1 0x12 PUSH1 0x20 PUSH1 0x0 KECCAK256 SWAP2 MUL ADD SWAP1 PUSH1 0x0 SWAP1 JUMP JUMPDEST PUSH1 0x13 SLOAD DUP2 LT ISZERO PUSH2 0x1E1C JUMPI PUSH1 0x7 SWAP1 PUSH1 0x13 PUSH1 0x0 MSTORE MUL PUSH32 0x66DE8FFDA797E3DE9C05E8FC57B3BF0EC28A930D40B0D285D93C06501CF6A090 ADD SWAP1 PUSH1 0x0 SWAP1 JUMP JUMPDEST PUSH1 0x0 NOT DUP2 EQ PUSH2 0x1E06 JUMPI PUSH1 0x1 ADD SWAP1 JUMP JUMPDEST DUP1 SLOAD PUSH1 0x1 PUSH1 0x40 SHL DUP2 LT ISZERO PUSH2 0x1321 JUMPI PUSH2 0x3549 SWAP2 PUSH1 0x1 DUP3 ADD DUP2 SSTORE PUSH2 0x32F2 JUMP JUMPDEST DUP2 SWAP3 SWAP2 SLOAD SWAP1 PUSH1 0x3 SHL SWAP2 PUSH1 0x1 DUP1 PUSH1 0xA0 SHL SUB SWAP3 DUP4 DUP2 SHL SWAP4 DUP5 SWAP3 AND SWAP1 SHL AND SWAP2 NOT AND OR SWAP1 SSTORE JUMP JUMPDEST SWAP1 PUSH1 0x40 MLOAD SWAP2 DUP3 PUSH1 0x0 DUP3 SLOAD SWAP3 PUSH2 0x3580 DUP5 PUSH2 0x2D0D JUMP JUMPDEST SWAP1 DUP2 DUP5 MSTORE PUSH1 0x1 SWAP5 DUP6 DUP2 AND SWAP1 DUP2 PUSH1 0x0 EQ PUSH2 0x35EF JUMPI POP PUSH1 0x1 EQ PUSH2 0x35AC JUMPI JUMPDEST POP POP PUSH2 0x35AA SWAP3 POP SUB DUP4 PUSH2 0x2E65 JUMP JUMPDEST JUMP JUMPDEST SWAP1 SWAP4 SWAP2 POP PUSH1 0x0 MSTORE PUSH1 0x20 SWAP1 DUP2 PUSH1 0x0 KECCAK256 SWAP4 PUSH1 0x0 SWAP2 JUMPDEST DUP2 DUP4 LT PUSH2 0x35D7 JUMPI POP POP PUSH2 0x35AA SWAP4 POP DUP3 ADD ADD CODESIZE DUP1 PUSH2 0x359C JUMP JUMPDEST DUP6 SLOAD DUP9 DUP5 ADD DUP6 ADD MSTORE SWAP5 DUP6 ADD SWAP5 DUP8 SWAP5 POP SWAP2 DUP4 ADD SWAP2 PUSH2 0x35BF JUMP JUMPDEST SWAP2 POP POP PUSH2 0x35AA SWAP5 POP PUSH1 0x20 SWAP3 POP PUSH1 0xFF NOT AND DUP3 DUP5 ADD MSTORE ISZERO ISZERO PUSH1 0x5 SHL DUP3 ADD ADD CODESIZE DUP1 PUSH2 0x359C JUMP JUMPDEST SWAP1 DUP2 SLOAD DUP1 DUP3 MSTORE PUSH1 0x20 DUP1 SWAP3 ADD SWAP3 PUSH1 0x0 MSTORE DUP2 PUSH1 0x0 KECCAK256 SWAP2 PUSH1 0x0 SWAP1 JUMPDEST DUP3 DUP3 LT PUSH2 0x3638 JUMPI POP POP POP POP SWAP1 JUMP JUMPDEST DUP4 SLOAD PUSH1 0x1 PUSH1 0x1 PUSH1 0xA0 SHL SUB AND DUP6 MSTORE SWAP4 DUP5 ADD SWAP4 PUSH1 0x1 SWAP4 DUP5 ADD SWAP4 SWAP1 SWAP2 ADD SWAP1 PUSH2 0x362A JUMP JUMPDEST ISZERO PUSH2 0x365F JUMPI JUMP JUMPDEST PUSH1 0x40 MLOAD PUSH3 0x461BCD PUSH1 0xE5 SHL DUP2 MSTORE PUSH1 0x20 PUSH1 0x4 DUP3 ADD MSTORE PUSH1 0x26 PUSH1 0x24 DUP3 ADD MSTORE PUSH32 0x4F6E6C792061646D696E2063616E20696E766F6B6520746869732066756E6374 PUSH1 0x44 DUP3 ADD MSTORE PUSH6 0x696F6E732021 PUSH1 0xD0 SHL PUSH1 0x64 DUP3 ADD MSTORE PUSH1 0x84 SWAP1 REVERT JUMPDEST DUP2 DUP2 LT PUSH2 0x36BE JUMPI POP POP JUMP JUMPDEST PUSH1 0x0 DUP2 SSTORE PUSH1 0x1 ADD PUSH2 0x36B3 JUMP JUMPDEST SWAP2 SWAP1 SWAP2 DUP3 MLOAD PUSH1 0x1 PUSH1 0x1 PUSH1 0x40 SHL SUB DUP2 GT PUSH2 0x1321 JUMPI PUSH2 0x36E7 DUP3 SLOAD PUSH2 0x2D0D JUMP JUMPDEST PUSH1 0x1F DUP2 GT PUSH2 0x3791 JUMPI JUMPDEST POP PUSH1 0x20 DUP1 PUSH1 0x1F DUP4 GT PUSH1 0x1 EQ PUSH2 0x372D JUMPI POP DUP2 SWAP3 SWAP4 SWAP5 PUSH1 0x0 SWAP3 PUSH2 0x3722 JUMPI JUMPDEST POP POP DUP2 PUSH1 0x1 SHL SWAP2 PUSH1 0x0 NOT SWAP1 PUSH1 0x3 SHL SHR NOT AND OR SWAP1 SSTORE JUMP JUMPDEST ADD MLOAD SWAP1 POP CODESIZE DUP1 PUSH2 0x370C JUMP JUMPDEST SWAP1 PUSH1 0x1F NOT DUP4 AND SWAP6 DUP5 PUSH1 0x0 MSTORE DUP3 PUSH1 0x0 KECCAK256 SWAP3 PUSH1 0x0 SWAP1 JUMPDEST DUP9 DUP3 LT PUSH2 0x3779 JUMPI POP POP DUP4 PUSH1 0x1 SWAP6 SWAP7 SWAP8 LT PUSH2 0x3760 JUMPI JUMPDEST POP POP POP DUP2 SHL ADD SWAP1 SSTORE JUMP JUMPDEST ADD MLOAD PUSH1 0x0 NOT PUSH1 0xF8 DUP5 PUSH1 0x3 SHL AND SHR NOT AND SWAP1 SSTORE CODESIZE DUP1 DUP1 PUSH2 0x3756 JUMP JUMPDEST DUP1 PUSH1 0x1 DUP6 SWAP7 DUP3 SWAP5 SWAP7 DUP7 ADD MLOAD DUP2 SSTORE ADD SWAP6 ADD SWAP4 ADD SWAP1 PUSH2 0x3741 JUMP JUMPDEST PUSH2 0x37BE SWAP1 DUP4 PUSH1 0x0 MSTORE PUSH1 0x20 PUSH1 0x0 KECCAK256 PUSH1 0x1F DUP5 ADD PUSH1 0x5 SHR DUP2 ADD SWAP2 PUSH1 0x20 DUP6 LT PUSH2 0x37C4 JUMPI JUMPDEST PUSH1 0x1F ADD PUSH1 0x5 SHR ADD SWAP1 PUSH2 0x36B3 JUMP JUMPDEST CODESIZE PUSH2 0x36F0 JUMP JUMPDEST SWAP1 SWAP2 POP DUP2 SWAP1 PUSH2 0x37B1 JUMP JUMPDEST SWAP1 PUSH1 0x1 PUSH1 0x40 SHL DUP2 GT PUSH2 0x1321 JUMPI DUP2 SLOAD SWAP1 DUP1 DUP4 SSTORE DUP2 DUP2 LT PUSH2 0x37EC JUMPI POP POP POP JUMP JUMPDEST PUSH2 0x35AA SWAP3 PUSH1 0x0 MSTORE PUSH1 0x20 PUSH1 0x0 KECCAK256 SWAP2 DUP3 ADD SWAP2 ADD PUSH2 0x36B3 JUMP JUMPDEST SWAP1 PUSH1 0x1 DUP1 PUSH1 0xA0 SHL SUB SWAP1 DUP2 DUP2 MLOAD AND PUSH1 0x1 PUSH1 0x1 PUSH1 0x60 SHL SUB PUSH1 0xA0 SHL DUP5 SLOAD AND OR DUP4 SSTORE PUSH1 0x20 SWAP2 PUSH1 0xA0 PUSH1 0x5 DUP5 DUP5 ADD MLOAD SWAP6 PUSH2 0x383A PUSH1 0x1 SWAP8 DUP9 DUP4 ADD PUSH2 0x36CA JUMP JUMPDEST PUSH1 0x40 DUP6 ADD MLOAD PUSH1 0x2 DUP3 ADD SSTORE PUSH2 0x3855 PUSH1 0x60 DUP7 ADD MLOAD PUSH1 0x3 DUP4 ADD PUSH2 0x36CA JUMP JUMPDEST PUSH2 0x3866 PUSH1 0x80 DUP7 ADD MLOAD PUSH1 0x4 DUP4 ADD PUSH2 0x36CA JUMP JUMPDEST ADD SWAP3 ADD MLOAD SWAP3 DUP4 MLOAD SWAP4 PUSH1 0x1 PUSH1 0x1 PUSH1 0x40 SHL SUB DUP6 GT PUSH2 0x1321 JUMPI DUP2 SWAP1 PUSH2 0x3888 DUP7 DUP7 PUSH2 0x37CE JUMP JUMPDEST ADD SWAP3 PUSH1 0x0 MSTORE DUP1 PUSH1 0x0 KECCAK256 SWAP2 PUSH1 0x0 JUMPDEST DUP6 DUP2 LT PUSH2 0x38A5 JUMPI POP POP POP POP POP POP POP JUMP JUMPDEST DUP5 MLOAD DUP3 AND DUP5 DUP3 ADD SSTORE SWAP4 DUP3 ADD SWAP4 DUP7 ADD PUSH2 0x3895 JUMP JUMPDEST PUSH2 0x38C2 DUP2 SLOAD PUSH2 0x2D0D JUMP JUMPDEST SWAP1 DUP2 PUSH2 0x38CC JUMPI POP POP JUMP JUMPDEST DUP2 PUSH1 0x1F PUSH1 0x0 SWAP4 GT PUSH1 0x1 EQ PUSH2 0x38DE JUMPI POP SSTORE JUMP JUMPDEST DUP2 DUP4 MSTORE PUSH1 0x20 DUP4 KECCAK256 PUSH2 0x38FA SWAP2 PUSH1 0x1F ADD PUSH1 0x5 SHR DUP2 ADD SWAP1 PUSH1 0x1 ADD PUSH2 0x36B3 JUMP JUMPDEST DUP2 PUSH1 0x20 DUP2 KECCAK256 SWAP2 SSTORE SSTORE JUMP JUMPDEST DUP2 MLOAD SWAP2 PUSH1 0x1 DUP1 PUSH1 0xA0 SHL SUB DUP1 DUP5 MLOAD AND PUSH1 0x1 PUSH1 0x1 PUSH1 0x60 SHL SUB PUSH1 0xA0 SHL DUP5 SLOAD AND OR DUP4 SSTORE PUSH1 0xC0 PUSH1 0x11 PUSH1 0x20 SWAP5 PUSH2 0x39DB PUSH2 0x160 DUP8 DUP10 ADD MLOAD SWAP9 PUSH2 0x3943 PUSH1 0x1 SWAP11 DUP12 DUP7 ADD PUSH2 0x36CA JUMP JUMPDEST PUSH1 0x40 DUP2 ADD MLOAD PUSH1 0x2 DUP6 ADD SSTORE PUSH1 0x60 DUP2 ADD MLOAD PUSH1 0x3 DUP6 ADD SSTORE PUSH2 0x3968 PUSH1 0x80 DUP3 ADD MLOAD PUSH1 0x4 DUP7 ADD PUSH2 0x36CA JUMP JUMPDEST PUSH2 0x3979 PUSH1 0xA0 DUP3 ADD MLOAD PUSH1 0x5 DUP7 ADD PUSH2 0x36CA JUMP JUMPDEST PUSH2 0x3989 DUP7 DUP3 ADD MLOAD PUSH1 0x6 DUP7 ADD PUSH2 0x36CA JUMP JUMPDEST PUSH2 0x399A PUSH1 0xE0 DUP3 ADD MLOAD PUSH1 0x7 DUP7 ADD PUSH2 0x36CA JUMP JUMPDEST PUSH2 0x39AC PUSH2 0x100 DUP3 ADD MLOAD PUSH1 0x8 DUP7 ADD PUSH2 0x36CA JUMP JUMPDEST PUSH2 0x39BE PUSH2 0x120 DUP3 ADD MLOAD PUSH1 0x9 DUP7 ADD PUSH2 0x36CA JUMP JUMPDEST PUSH2 0x39D0 PUSH2 0x140 DUP3 ADD MLOAD PUSH1 0xA DUP7 ADD PUSH2 0x36CA JUMP JUMPDEST ADD MLOAD PUSH1 0xB DUP4 ADD PUSH2 0x36CA JUMP JUMPDEST PUSH2 0x39EB DUP7 DUP7 ADD MLOAD PUSH1 0xC DUP4 ADD PUSH2 0x36CA JUMP JUMPDEST PUSH2 0x39FC PUSH1 0x40 DUP7 ADD MLOAD PUSH1 0xD DUP4 ADD PUSH2 0x36CA JUMP JUMPDEST PUSH2 0x3A0D PUSH1 0x60 DUP7 ADD MLOAD PUSH1 0xE DUP4 ADD PUSH2 0x36CA JUMP JUMPDEST PUSH2 0x3A1E PUSH1 0x80 DUP7 ADD MLOAD PUSH1 0xF DUP4 ADD PUSH2 0x36CA JUMP JUMPDEST PUSH1 0xA0 DUP6 ADD MLOAD PUSH1 0x10 DUP3 ADD SSTORE ADD SWAP3 ADD MLOAD SWAP3 DUP4 MLOAD SWAP4 PUSH1 0x1 PUSH1 0x1 PUSH1 0x40 SHL SUB DUP6 GT PUSH2 0x1321 JUMPI DUP2 SWAP1 PUSH2 0x3A4A DUP7 DUP7 PUSH2 0x37CE JUMP JUMPDEST ADD SWAP3 PUSH1 0x0 MSTORE DUP1 PUSH1 0x0 KECCAK256 SWAP2 PUSH1 0x0 JUMPDEST DUP6 DUP2 LT PUSH2 0x3A67 JUMPI POP POP POP POP POP POP POP JUMP JUMPDEST DUP5 MLOAD DUP3 AND DUP5 DUP3 ADD SSTORE SWAP4 DUP3 ADD SWAP4 DUP7 ADD PUSH2 0x3A57 JUMP JUMPDEST PUSH2 0x3A85 DUP3 MLOAD DUP3 PUSH2 0x36CA JUMP JUMPDEST PUSH2 0x3A96 PUSH1 0x20 DUP4 ADD MLOAD PUSH1 0x1 DUP4 ADD PUSH2 0x36CA JUMP JUMPDEST PUSH1 0x40 DUP3 ADD MLOAD SWAP1 PUSH2 0x3AAA PUSH1 0x2 SWAP3 DUP4 DUP4 ADD PUSH2 0x36CA JUMP JUMPDEST PUSH1 0x60 DUP4 ADD MLOAD SWAP2 PUSH2 0x3ABE PUSH1 0x3 SWAP4 DUP5 DUP5 ADD PUSH2 0x36CA JUMP JUMPDEST PUSH2 0x3ACF PUSH1 0x80 DUP6 ADD MLOAD PUSH1 0x4 DUP5 ADD PUSH2 0x36CA JUMP JUMPDEST PUSH1 0xA0 DUP5 ADD MLOAD SWAP1 DUP2 MLOAD SWAP4 PUSH1 0x1 PUSH1 0x40 SHL DUP6 GT PUSH2 0x1321 JUMPI PUSH1 0x5 DUP5 ADD SLOAD SWAP2 DUP6 PUSH1 0x5 DUP7 ADD SSTORE DUP3 DUP7 LT PUSH2 0x3BD3 JUMPI JUMPDEST POP POP POP PUSH1 0x20 ADD SWAP2 PUSH1 0x0 SWAP3 PUSH1 0x5 DUP4 ADD DUP5 MSTORE PUSH1 0x20 DUP5 KECCAK256 DUP5 SWAP2 JUMPDEST DUP4 DUP4 LT PUSH2 0x3BB5 JUMPI POP POP POP POP PUSH1 0x6 PUSH1 0xC0 SWAP2 ADD SWAP3 ADD MLOAD SWAP2 DUP3 MLOAD SWAP3 PUSH1 0x1 PUSH1 0x40 SHL DUP5 GT PUSH2 0x3BA1 JUMPI DUP2 SLOAD DUP5 DUP4 SSTORE DUP1 DUP6 LT PUSH2 0x3B74 JUMPI JUMPDEST POP SWAP1 DUP3 MSTORE PUSH1 0x20 DUP1 DUP4 KECCAK256 SWAP2 ADD JUMPDEST DUP4 DUP4 LT PUSH2 0x3B57 JUMPI POP POP POP POP JUMP JUMPDEST PUSH1 0x1 PUSH1 0x20 DUP3 PUSH2 0x3B68 DUP4 SWAP5 MLOAD DUP7 PUSH2 0x36CA JUMP JUMPDEST ADD SWAP3 ADD SWAP3 ADD SWAP2 SWAP1 PUSH2 0x3B4A JUMP JUMPDEST DUP3 DUP5 MSTORE DUP5 PUSH1 0x20 DUP6 KECCAK256 SWAP2 DUP3 ADD SWAP2 ADD JUMPDEST DUP2 DUP2 LT PUSH2 0x3B8F JUMPI POP PUSH2 0x3B3E JUMP JUMPDEST DUP1 PUSH2 0x3B9B PUSH1 0x1 SWAP3 PUSH2 0x38B8 JUMP JUMPDEST ADD PUSH2 0x3B82 JUMP JUMPDEST PUSH4 0x4E487B71 PUSH1 0xE0 SHL DUP4 MSTORE PUSH1 0x41 PUSH1 0x4 MSTORE PUSH1 0x24 DUP4 REVERT JUMPDEST PUSH1 0x12 PUSH1 0x20 DUP3 PUSH2 0x3BC7 PUSH1 0x1 SWAP5 MLOAD DUP7 PUSH2 0x3904 JUMP JUMPDEST ADD SWAP3 ADD SWAP3 ADD SWAP2 SWAP1 PUSH2 0x3B0E JUMP JUMPDEST DUP3 PUSH1 0x12 MUL SWAP3 PUSH1 0x12 DUP5 DIV SUB PUSH2 0x1E06 JUMPI DUP6 PUSH1 0x12 MUL SWAP3 PUSH1 0x12 DUP5 DIV DUP8 SUB PUSH2 0x1E06 JUMPI PUSH1 0x5 DUP7 ADD PUSH1 0x0 MSTORE PUSH1 0x20 PUSH1 0x0 KECCAK256 SWAP4 DUP5 ADD JUMPDEST DUP2 DUP6 ADD DUP2 LT PUSH2 0x3C10 JUMPI POP POP PUSH2 0x3AF7 JUMP JUMPDEST DUP1 PUSH1 0x0 PUSH1 0x12 SWAP3 SSTORE PUSH2 0x3C23 PUSH1 0x1 DUP3 ADD PUSH2 0x38B8 JUMP JUMPDEST PUSH1 0x0 DUP5 DUP3 ADD SSTORE PUSH1 0x0 DUP6 DUP3 ADD SSTORE PUSH2 0x3C3B PUSH1 0x4 DUP3 ADD PUSH2 0x38B8 JUMP JUMPDEST PUSH2 0x3C47 PUSH1 0x5 DUP3 ADD PUSH2 0x38B8 JUMP JUMPDEST PUSH2 0x3C53 PUSH1 0x6 DUP3 ADD PUSH2 0x38B8 JUMP JUMPDEST PUSH2 0x3C5F PUSH1 0x7 DUP3 ADD PUSH2 0x38B8 JUMP JUMPDEST PUSH2 0x3C6B PUSH1 0x8 DUP3 ADD PUSH2 0x38B8 JUMP JUMPDEST PUSH2 0x3C77 PUSH1 0x9 DUP3 ADD PUSH2 0x38B8 JUMP JUMPDEST PUSH2 0x3C83 PUSH1 0xA DUP3 ADD PUSH2 0x38B8 JUMP JUMPDEST PUSH2 0x3C8F PUSH1 0xB DUP3 ADD PUSH2 0x38B8 JUMP JUMPDEST PUSH2 0x3C9B PUSH1 0xC DUP3 ADD PUSH2 0x38B8 JUMP JUMPDEST PUSH2 0x3CA7 PUSH1 0xD DUP3 ADD PUSH2 0x38B8 JUMP JUMPDEST PUSH2 0x3CB3 PUSH1 0xE DUP3 ADD PUSH2 0x38B8 JUMP JUMPDEST PUSH2 0x3CBF PUSH1 0xF DUP3 ADD PUSH2 0x38B8 JUMP JUMPDEST PUSH1 0x0 PUSH1 0x10 DUP3 ADD SSTORE PUSH1 0x11 DUP2 ADD DUP1 SLOAD PUSH1 0x0 DUP3 SSTORE DUP1 PUSH2 0x3CDE JUMPI JUMPDEST POP POP ADD PUSH2 0x3C00 JUMP JUMPDEST PUSH2 0x3CF3 SWAP2 PUSH1 0x0 MSTORE PUSH1 0x20 PUSH1 0x0 KECCAK256 SWAP1 DUP2 ADD SWAP1 PUSH2 0x36B3 JUMP JUMPDEST CODESIZE DUP1 PUSH2 0x3CD6 JUMP JUMPDEST DUP1 MLOAD DUP3 LT ISZERO PUSH2 0x1E1C JUMPI PUSH1 0x20 SWAP2 PUSH1 0x5 SHL ADD ADD SWAP1 JUMP JUMPDEST SWAP1 PUSH1 0x11 PUSH1 0xC0 PUSH1 0x40 SWAP4 PUSH2 0x32D7 DUP6 MLOAD SWAP2 PUSH2 0x3D25 DUP4 PUSH2 0x2E2F JUMP JUMPDEST PUSH2 0x4B4 DUP4 SWAP8 PUSH2 0x3D33 DUP4 PUSH2 0x31CD JUMP JUMPDEST DUP6 MSTORE DUP1 MLOAD PUSH2 0x3D48 DUP2 PUSH2 0x288 DUP2 PUSH1 0xC DUP9 ADD PUSH2 0x2D47 JUMP JUMPDEST PUSH1 0x20 DUP7 ADD MSTORE DUP1 MLOAD PUSH2 0x3D60 DUP2 PUSH2 0x288 DUP2 PUSH1 0xD DUP9 ADD PUSH2 0x2D47 JUMP JUMPDEST DUP2 DUP7 ADD MSTORE DUP1 MLOAD PUSH2 0x3D77 DUP2 PUSH2 0x288 DUP2 PUSH1 0xE DUP9 ADD PUSH2 0x2D47 JUMP JUMPDEST PUSH1 0x60 DUP7 ADD MSTORE DUP1 MLOAD PUSH2 0x3D8F DUP2 PUSH2 0x288 DUP2 PUSH1 0xF DUP9 ADD PUSH2 0x2D47 JUMP JUMPDEST PUSH1 0x80 DUP7 ADD MSTORE PUSH1 0x10 DUP4 ADD SLOAD PUSH1 0xA0 DUP7 ADD MSTORE MLOAD DUP1 SWAP7 DUP2 SWAP4 ADD PUSH2 0x3612 JUMP JUMPDEST DUP1 SLOAD PUSH1 0x1 PUSH1 0x40 SHL DUP2 LT ISZERO PUSH2 0x1321 JUMPI PUSH2 0x3DC6 SWAP2 PUSH1 0x1 DUP3 ADD DUP2 SSTORE PUSH2 0x34C6 JUMP JUMPDEST SWAP2 SWAP1 SWAP2 PUSH2 0x130B JUMPI PUSH2 0x35AA SWAP2 PUSH2 0x3904 JUMP JUMPDEST PUSH1 0x2 PUSH1 0x40 PUSH2 0x35AA SWAP4 PUSH1 0x1 DUP1 PUSH1 0xA0 SHL SUB DUP2 MLOAD AND PUSH1 0x1 PUSH1 0x1 PUSH1 0x60 SHL SUB PUSH1 0xA0 SHL DUP6 SLOAD AND OR DUP5 SSTORE PUSH2 0x3E0A PUSH1 0x20 DUP3 ADD MLOAD PUSH1 0x1 DUP7 ADD PUSH2 0x36CA JUMP JUMPDEST ADD MLOAD SWAP2 ADD PUSH2 0x36CA JUMP JUMPDEST PUSH1 0x1 DUP1 PUSH1 0xA0 SHL SUB DUP3 MLOAD AND PUSH1 0x1 PUSH1 0x1 PUSH1 0x60 SHL SUB PUSH1 0xA0 SHL DUP3 SLOAD AND OR DUP2 SSTORE PUSH1 0x20 SWAP1 DUP2 DUP4 ADD MLOAD SWAP3 PUSH2 0x3E44 PUSH1 0x1 SWAP5 DUP6 DUP5 ADD PUSH2 0x36CA JUMP JUMPDEST PUSH1 0x40 DUP2 ADD MLOAD SWAP3 PUSH2 0x3E58 PUSH1 0x2 SWAP5 DUP6 DUP6 ADD PUSH2 0x36CA JUMP JUMPDEST PUSH1 0xA0 PUSH1 0x5 PUSH1 0x60 DUP5 ADD MLOAD SWAP5 PUSH2 0x3E70 PUSH1 0x3 SWAP7 DUP8 DUP4 ADD PUSH2 0x36CA JUMP JUMPDEST PUSH2 0x3E81 PUSH1 0x80 DUP7 ADD MLOAD PUSH1 0x4 DUP4 ADD PUSH2 0x36CA JUMP JUMPDEST ADD SWAP3 ADD MLOAD SWAP4 DUP5 MLOAD SWAP5 PUSH1 0x1 PUSH1 0x40 SHL DUP7 GT PUSH2 0x1321 JUMPI DUP4 SLOAD DUP7 DUP6 SSTORE DUP4 SWAP3 DUP2 DUP9 LT PUSH2 0x3EDD JUMPI JUMPDEST POP POP ADD SWAP2 PUSH1 0x0 MSTORE DUP1 PUSH1 0x0 KECCAK256 PUSH1 0x0 SWAP3 JUMPDEST DUP6 DUP5 LT PUSH2 0x3EC2 JUMPI POP POP POP POP POP POP POP JUMP JUMPDEST DUP5 DUP4 DUP3 PUSH2 0x3ED1 DUP11 SWAP5 MLOAD DUP7 PUSH2 0x3DD6 JUMP JUMPDEST ADD SWAP3 ADD SWAP4 ADD SWAP3 SWAP1 PUSH2 0x3EB2 JUMP JUMPDEST SWAP1 DUP1 SWAP3 SWAP4 POP DUP7 MUL SWAP2 DUP7 DUP4 DIV SUB PUSH2 0x1E06 JUMPI DUP7 DUP7 MUL DUP7 DUP2 DIV DUP9 SUB PUSH2 0x1E06 JUMPI PUSH1 0x0 DUP7 DUP2 MSTORE DUP6 DUP2 KECCAK256 DUP7 SWAP6 SWAP5 DUP2 ADD SWAP4 SWAP3 DUP10 SWAP2 ADD JUMPDEST DUP5 DUP2 LT PUSH2 0x3F1B JUMPI POP POP POP PUSH2 0x3EA3 JUMP JUMPDEST SWAP1 SWAP2 DUP1 SWAP4 SWAP5 SWAP6 SWAP7 POP DUP2 SSTORE PUSH2 0x3F30 DUP12 DUP3 ADD PUSH2 0x38B8 JUMP JUMPDEST PUSH2 0x3F3B DUP5 DUP3 ADD PUSH2 0x38B8 JUMP JUMPDEST ADD SWAP1 DUP8 DUP7 SWAP6 SWAP5 SWAP4 SWAP3 PUSH2 0x3F0C JUMP JUMPDEST SWAP1 DUP2 SLOAD PUSH1 0x1 PUSH1 0x40 SHL DUP2 LT ISZERO PUSH2 0x1321 JUMPI PUSH1 0x1 DUP2 ADD DUP1 DUP5 SSTORE DUP2 LT ISZERO PUSH2 0x1E1C JUMPI PUSH2 0x35AA SWAP3 PUSH1 0x0 MSTORE PUSH1 0x3 PUSH1 0x20 PUSH1 0x0 KECCAK256 SWAP2 MUL ADD PUSH2 0x3DD6 JUMP JUMPDEST DUP1 MLOAD SWAP1 PUSH1 0x20 SWAP2 DUP3 DUP3 ADD SWAP1 DUP2 KECCAK256 SWAP1 PUSH1 0x0 SWAP3 DUP4 SLOAD SWAP3 DUP4 ISZERO PUSH2 0x42D9 JUMPI SWAP1 DUP6 SWAP3 SWAP2 DUP6 DUP1 MSTORE PUSH1 0x40 MLOAD DUP7 SWAP1 PUSH32 0x290DECD9548B62A8D60345A988386FC84BA6BC95484008F6362F93160EF3E563 DUP2 DUP2 SLOAD SWAP4 PUSH2 0x3FCE DUP6 PUSH2 0x2D0D JUMP JUMPDEST SWAP3 DUP4 DUP4 MSTORE DUP10 DUP4 ADD SWAP6 PUSH1 0x1 SWAP14 DUP15 DUP3 AND SWAP2 DUP3 PUSH1 0x0 EQ PUSH2 0x42BB JUMPI POP POP PUSH1 0x1 EQ PUSH2 0x4260 JUMPI JUMPDEST POP PUSH2 0x3FFC SWAP3 POP SUB DUP3 PUSH2 0x2E65 JUMP JUMPDEST MLOAD SWAP1 KECCAK256 SUB PUSH2 0x402F JUMPI POP POP POP POP PUSH1 0x2 SLOAD SWAP2 DUP3 ADD DUP1 SWAP3 GT PUSH2 0x401B JUMPI POP PUSH1 0x2 SSTORE JUMP JUMPDEST PUSH4 0x4E487B71 PUSH1 0xE0 SHL DUP2 MSTORE PUSH1 0x11 PUSH1 0x4 MSTORE PUSH1 0x24 SWAP1 REVERT JUMPDEST DUP1 MLOAD DUP3 KECCAK256 DUP5 DUP8 LT ISZERO PUSH2 0x424C JUMPI DUP6 DUP1 MSTORE DUP7 PUSH1 0x40 MLOAD DUP8 DUP2 PUSH32 0x290DECD9548B62A8D60345A988386FC84BA6BC95484008F6362F93160EF3E564 SWAP2 DUP3 SLOAD SWAP3 PUSH2 0x4072 DUP5 PUSH2 0x2D0D JUMP JUMPDEST SWAP4 DUP5 DUP5 MSTORE DUP11 DUP1 DUP6 ADD SWAP8 DUP3 AND SWAP2 DUP3 PUSH1 0x0 EQ PUSH2 0x422E JUMPI POP POP PUSH1 0x1 EQ PUSH2 0x41D3 JUMPI JUMPDEST POP PUSH2 0x409D SWAP3 POP SUB DUP3 PUSH2 0x2E65 JUMP JUMPDEST MLOAD SWAP1 KECCAK256 SUB PUSH2 0x40BC JUMPI POP POP POP POP PUSH1 0x3 SLOAD SWAP2 DUP3 ADD DUP1 SWAP3 GT PUSH2 0x401B JUMPI POP PUSH1 0x3 SSTORE JUMP JUMPDEST MLOAD SWAP1 KECCAK256 SWAP2 PUSH1 0x2 LT ISZERO PUSH2 0x41BF JUMPI DUP3 DUP1 MSTORE PUSH1 0x40 MLOAD DUP4 SWAP2 DUP2 PUSH32 0x290DECD9548B62A8D60345A988386FC84BA6BC95484008F6362F93160EF3E565 SWAP4 DUP5 SLOAD SWAP5 PUSH2 0x40FF DUP7 PUSH2 0x2D0D JUMP JUMPDEST SWAP1 DUP2 DUP5 MSTORE DUP5 DUP5 ADD SWAP7 DUP11 DUP2 AND SWAP1 DUP2 PUSH1 0x0 EQ PUSH2 0x41A1 JUMPI POP PUSH1 0x1 EQ PUSH2 0x4149 JUMPI JUMPDEST POP POP PUSH2 0x412A SWAP3 POP SUB DUP3 PUSH2 0x2E65 JUMP JUMPDEST MLOAD SWAP1 KECCAK256 EQ PUSH2 0x4136 JUMPI POP POP JUMP JUMPDEST PUSH1 0x4 SLOAD SWAP2 DUP3 ADD DUP1 SWAP3 GT PUSH2 0x401B JUMPI POP PUSH1 0x4 SSTORE JUMP JUMPDEST DUP9 MSTORE DUP8 SWAP2 POP DUP9 PUSH32 0x63D75DB57AE45C3799740C3CD8DCEE96A498324843D79AE390ADC81D74B52F13 JUMPDEST DUP3 DUP5 LT PUSH2 0x418A JUMPI POP POP POP SWAP2 PUSH2 0x412A SWAP3 DUP3 ADD ADD CODESIZE DUP1 PUSH2 0x411C JUMP JUMPDEST DUP1 SLOAD DUP8 DUP6 ADD DUP8 ADD MSTORE DUP7 SWAP5 POP SWAP3 DUP6 ADD SWAP3 DUP11 SWAP2 ADD PUSH2 0x4171 JUMP JUMPDEST SWAP2 POP POP PUSH2 0x412A SWAP5 SWAP3 POP PUSH1 0xFF NOT AND DUP7 MSTORE ISZERO ISZERO PUSH1 0x5 SHL DUP3 ADD ADD CODESIZE DUP1 PUSH2 0x411C JUMP JUMPDEST PUSH4 0x4E487B71 PUSH1 0xE0 SHL DUP4 MSTORE PUSH1 0x32 PUSH1 0x4 MSTORE PUSH1 0x24 DUP4 REVERT JUMPDEST DUP12 MSTORE POP DUP3 SWAP1 POP DUP8 DUP11 DUP13 PUSH32 0x6C13D8C1C5DF666EA9CA2A428504A3776C8CA01021C3A1524CA7D765F600979A JUMPDEST DUP6 DUP4 LT PUSH2 0x4215 JUMPI POP POP PUSH2 0x409D SWAP4 POP DUP3 ADD ADD CODESIZE PUSH2 0x4090 JUMP JUMPDEST DUP1 SWAP2 SWAP3 SWAP5 POP SLOAD DUP4 DUP6 DUP9 ADD ADD MSTORE ADD SWAP2 ADD DUP9 SWAP1 DUP13 DUP6 SWAP4 PUSH2 0x41FE JUMP JUMPDEST PUSH1 0xFF NOT AND DUP9 MSTORE PUSH2 0x409D SWAP6 ISZERO ISZERO PUSH1 0x5 SHL DUP6 ADD ADD SWAP3 POP CODESIZE SWAP2 POP PUSH2 0x4090 SWAP1 POP JUMP JUMPDEST PUSH4 0x4E487B71 PUSH1 0xE0 SHL DUP7 MSTORE PUSH1 0x32 PUSH1 0x4 MSTORE PUSH1 0x24 DUP7 REVERT JUMPDEST DUP12 MSTORE POP DUP3 SWAP1 POP DUP8 DUP11 DUP13 PUSH32 0x510E4E770828DDBF7F7B00AB00A9F6ADAF81C0DC9CC85F1F8249C256942D61D9 JUMPDEST DUP6 DUP4 LT PUSH2 0x42A2 JUMPI POP POP PUSH2 0x3FFC SWAP4 POP DUP3 ADD ADD CODESIZE PUSH2 0x3FEF JUMP JUMPDEST DUP1 SWAP2 SWAP3 SWAP5 POP SLOAD DUP4 DUP6 DUP9 ADD ADD MSTORE ADD SWAP2 ADD DUP9 SWAP1 DUP13 DUP6 SWAP4 PUSH2 0x428B JUMP JUMPDEST PUSH1 0xFF NOT AND DUP9 MSTORE PUSH2 0x3FFC SWAP6 ISZERO ISZERO PUSH1 0x5 SHL DUP6 ADD ADD SWAP3 POP CODESIZE SWAP2 POP PUSH2 0x3FEF SWAP1 POP JUMP JUMPDEST PUSH4 0x4E487B71 PUSH1 0xE0 SHL DUP6 MSTORE PUSH1 0x32 PUSH1 0x4 MSTORE PUSH1 0x24 DUP6 REVERT JUMPDEST PUSH1 0x40 MLOAD SWAP1 PUSH2 0x42FA DUP3 PUSH2 0x2E13 JUMP JUMPDEST DUP2 PUSH1 0x0 DUP2 MSTORE PUSH2 0x160 PUSH1 0x60 SWAP2 DUP3 PUSH1 0x20 DUP3 ADD MSTORE PUSH1 0x0 PUSH1 0x40 DUP3 ADD MSTORE PUSH1 0x0 DUP4 DUP3 ADD MSTORE DUP3 PUSH1 0x80 DUP3 ADD MSTORE DUP3 PUSH1 0xA0 DUP3 ADD MSTORE DUP3 PUSH1 0xC0 DUP3 ADD MSTORE DUP3 PUSH1 0xE0 DUP3 ADD MSTORE DUP3 PUSH2 0x100 DUP3 ADD MSTORE DUP3 PUSH2 0x120 DUP3 ADD MSTORE DUP3 PUSH2 0x140 DUP3 ADD MSTORE ADD MSTORE JUMP JUMPDEST SWAP1 PUSH1 0x5 PUSH1 0xA0 PUSH1 0x40 SWAP4 PUSH2 0x32D7 DUP6 MLOAD SWAP2 PUSH2 0x4360 DUP4 PUSH2 0x2DDD JUMP JUMPDEST PUSH2 0x4B4 DUP4 SWAP8 PUSH1 0x1 DUP1 DUP8 SHL SUB DUP4 SLOAD AND DUP6 MSTORE DUP1 MLOAD PUSH2 0x4383 DUP2 PUSH2 0x288 DUP2 PUSH1 0x1 DUP9 ADD PUSH2 0x2D47 JUMP JUMPDEST PUSH1 0x20 DUP7 ADD MSTORE PUSH1 0x2 DUP4 ADD SLOAD DUP2 DUP7 ADD MSTORE DUP1 MLOAD PUSH2 0x43A4 DUP2 PUSH2 0x288 DUP2 PUSH1 0x3 DUP9 ADD PUSH2 0x2D47 JUMP JUMPDEST PUSH1 0x60 DUP7 ADD MSTORE DUP1 MLOAD PUSH2 0x43BC DUP2 PUSH2 0x288 DUP2 PUSH1 0x4 DUP9 ADD PUSH2 0x2D47 JUMP JUMPDEST PUSH1 0x80 DUP7 ADD MSTORE MLOAD DUP1 SWAP7 DUP2 SWAP4 ADD PUSH2 0x3612 JUMP JUMPDEST SWAP1 DUP1 MLOAD PUSH1 0x1 DUP1 PUSH1 0xA0 SHL SUB DUP1 DUP3 MLOAD AND PUSH1 0x1 PUSH1 0x1 PUSH1 0x60 SHL SUB PUSH1 0xA0 SHL DUP6 SLOAD AND OR DUP5 SSTORE PUSH1 0x20 SWAP1 PUSH2 0x44A0 PUSH2 0x160 DUP4 DUP6 ADD MLOAD SWAP5 PUSH2 0x4407 PUSH1 0x1 SWAP7 DUP8 DUP11 ADD PUSH2 0x36CA JUMP JUMPDEST PUSH1 0x40 DUP2 ADD MLOAD PUSH1 0x2 DUP10 ADD SSTORE PUSH1 0x60 DUP2 ADD MLOAD PUSH1 0x3 DUP10 ADD SSTORE PUSH2 0x442C PUSH1 0x80 DUP3 ADD MLOAD PUSH1 0x4 DUP11 ADD PUSH2 0x36CA JUMP JUMPDEST PUSH2 0x443D PUSH1 0xA0 DUP3 ADD MLOAD PUSH1 0x5 DUP11 ADD PUSH2 0x36CA JUMP JUMPDEST PUSH2 0x444E PUSH1 0xC0 DUP3 ADD MLOAD PUSH1 0x6 DUP11 ADD PUSH2 0x36CA JUMP JUMPDEST PUSH2 0x445F PUSH1 0xE0 DUP3 ADD MLOAD PUSH1 0x7 DUP11 ADD PUSH2 0x36CA JUMP JUMPDEST PUSH2 0x4471 PUSH2 0x100 DUP3 ADD MLOAD PUSH1 0x8 DUP11 ADD PUSH2 0x36CA JUMP JUMPDEST PUSH2 0x4483 PUSH2 0x120 DUP3 ADD MLOAD PUSH1 0x9 DUP11 ADD PUSH2 0x36CA JUMP JUMPDEST PUSH2 0x4495 PUSH2 0x140 DUP3 ADD MLOAD PUSH1 0xA DUP11 ADD PUSH2 0x36CA JUMP JUMPDEST ADD MLOAD PUSH1 0xB DUP8 ADD PUSH2 0x36CA JUMP JUMPDEST PUSH1 0xC DUP6 ADD SWAP1 DUP3 DUP6 ADD MLOAD SWAP3 DUP4 MLOAD SWAP4 PUSH1 0x1 PUSH1 0x1 PUSH1 0x40 SHL SUB DUP6 GT PUSH2 0x1321 JUMPI DUP2 SWAP1 PUSH2 0x44C7 DUP7 DUP7 PUSH2 0x37CE JUMP JUMPDEST ADD SWAP3 PUSH1 0x0 MSTORE DUP1 PUSH1 0x0 KECCAK256 SWAP2 PUSH1 0x0 JUMPDEST DUP6 DUP2 LT PUSH2 0x44EE JUMPI POP POP POP POP POP POP POP PUSH1 0x40 PUSH1 0xD SWAP2 ADD MLOAD SWAP2 ADD SSTORE JUMP JUMPDEST DUP5 MLOAD DUP3 AND DUP5 DUP3 ADD SSTORE SWAP4 DUP3 ADD SWAP4 DUP7 ADD PUSH2 0x44D4 JUMP JUMPDEST SWAP1 PUSH1 0x40 MLOAD PUSH2 0x450E DUP2 PUSH2 0x2DF8 JUMP JUMPDEST PUSH1 0x40 PUSH1 0xD DUP3 SWAP5 PUSH2 0x451D DUP2 PUSH2 0x31CD JUMP JUMPDEST DUP5 MSTORE DUP3 MLOAD PUSH2 0x4532 DUP2 PUSH2 0x288 DUP2 PUSH1 0xC DUP7 ADD PUSH2 0x3612 JUMP JUMPDEST PUSH1 0x20 DUP6 ADD MSTORE ADD SLOAD SWAP2 ADD MSTORE JUMP JUMPDEST SWAP1 PUSH1 0x1 DUP3 ADD DUP1 SWAP3 GT PUSH2 0x1E06 JUMPI JUMP INVALID LOG2 PUSH5 0x6970667358 0x22 SLT KECCAK256 RETURN 0xD1 0xE4 SUB DUP13 SHR ADDRESS BLOCKHASH 0x4C 0xB3 0xD3 0xE9 0xC8 DUP3 DUP6 SWAP4 0xCB POP STOP EXTCODESIZE SWAP8 SWAP3 0x2A CODECOPY 0xD4 0xAE PUSH20 0x7C48EF8F2864736F6C6343000811003300000000 "
		},
		"gasEstimates": {
			"creation": {
				"codeDepositCost": "3558800",
				"executionCost": "infinite",
				"totalCost": "infinite"
			},
			"external": {
				"addCandidate(string,uint256,uint256,string,string,string,string,string,string,string,string,string,string)": "infinite",
				"addFaqComment(address,string,string)": "infinite",
				"addFaqs(string,string,string,string)": "infinite",
				"addParty(string,uint256,string,string)": "infinite",
				"addSelectedCandidates((address,string)[],string,string)": "infinite",
				"addVoter(string,uint256,uint256,string,string,string,string,string,string,string,string)": "infinite",
				"adminAddress()": "3159",
				"candidateList(uint256)": "infinite",
				"candidateNames(uint256)": "infinite",
				"candidates(address)": "infinite",
				"createElection(string,string,string,string,string,string[])": "infinite",
				"electionList(uint256)": "infinite",
				"elections(string)": "infinite",
				"faqList(uint256)": "infinite",
				"faqs(address)": "infinite",
				"gender_list(uint256)": "infinite",
				"getAllCandidates()": "infinite",
				"getAllElections()": "infinite",
				"getAllFAQs()": "infinite",
				"getAllParties()": "infinite",
				"getAllVoters()": "infinite",
				"getCandidateDetails(address)": "infinite",
				"getPartyDetails(address)": "infinite",
				"getVoterDetails(address)": "infinite",
				"isAdmin(address)": "2521",
				"parties(address)": "infinite",
				"partyList(uint256)": "infinite",
				"partyNames(uint256)": "infinite",
				"totalCandidate()": "2346",
				"totalElection()": "2830",
				"totalFemaleVoters()": "2742",
				"totalMaleVoters()": "2302",
				"totalOtherVoters()": "2324",
				"totalParty()": "3116",
				"totalVoter()": "2632",
				"updateCounter(string)": "infinite",
				"vote(address,string)": "infinite",
				"voteCount()": "3028",
				"voterList(uint256)": "infinite",
				"voterNames(uint256)": "infinite",
				"voters(address)": "infinite"
			}
		},
		"methodIdentifiers": {
			"addCandidate(string,uint256,uint256,string,string,string,string,string,string,string,string,string,string)": "2d23c735",
			"addFaqComment(address,string,string)": "e9af3fc0",
			"addFaqs(string,string,string,string)": "69d2bca1",
			"addParty(string,uint256,string,string)": "1d50384b",
			"addSelectedCandidates((address,string)[],string,string)": "615b6bc5",
			"addVoter(string,uint256,uint256,string,string,string,string,string,string,string,string)": "9eda74cf",
			"adminAddress()": "fc6f9468",
			"candidateList(uint256)": "b13c744b",
			"candidateNames(uint256)": "8287e42f",
			"candidates(address)": "8ab66a90",
			"createElection(string,string,string,string,string,string[])": "71c693eb",
			"electionList(uint256)": "defb908f",
			"elections(string)": "4a3ccc96",
			"faqList(uint256)": "9682f9b3",
			"faqs(address)": "0273d66e",
			"gender_list(uint256)": "6394a8fa",
			"getAllCandidates()": "2e6997fe",
			"getAllElections()": "7fd5f268",
			"getAllFAQs()": "2526e05d",
			"getAllParties()": "b867bfcc",
			"getAllVoters()": "35bbe70e",
			"getCandidateDetails(address)": "53ac5dc3",
			"getPartyDetails(address)": "00da7228",
			"getVoterDetails(address)": "ba71bef0",
			"isAdmin(address)": "24d7806c",
			"parties(address)": "4f235207",
			"partyList(uint256)": "640e79b7",
			"partyNames(uint256)": "f3845166",
			"totalCandidate()": "1812dab4",
			"totalElection()": "8d0371ff",
			"totalFemaleVoters()": "7c054c54",
			"totalMaleVoters()": "029c21bd",
			"totalOtherVoters()": "0983f185",
			"totalParty()": "f7c4c25a",
			"totalVoter()": "6332abc9",
			"updateCounter(string)": "b0a4ec42",
			"vote(address,string)": "1bf533a4",
			"voteCount()": "c6384071",
			"voterList(uint256)": "50e2e8af",
			"voterNames(uint256)": "a96278ae",
			"voters(address)": "a3ec138d"
		}
	},
	"abi": [
		{
			"anonymous": false,
			"inputs": [
				{
					"components": [
						{
							"components": [
								{
									"internalType": "address",
									"name": "_id",
									"type": "address"
								},
								{
									"internalType": "string",
									"name": "fullName",
									"type": "string"
								},
								{
									"internalType": "uint256",
									"name": "citizenshipNumber",
									"type": "uint256"
								},
								{
									"internalType": "uint256",
									"name": "age",
									"type": "uint256"
								},
								{
									"internalType": "string",
									"name": "gender",
									"type": "string"
								},
								{
									"internalType": "string",
									"name": "dob",
									"type": "string"
								},
								{
									"internalType": "string",
									"name": "email",
									"type": "string"
								},
								{
									"internalType": "string",
									"name": "profile",
									"type": "string"
								},
								{
									"internalType": "string",
									"name": "province",
									"type": "string"
								},
								{
									"internalType": "string",
									"name": "district",
									"type": "string"
								},
								{
									"internalType": "string",
									"name": "municipality",
									"type": "string"
								},
								{
									"internalType": "string",
									"name": "ward",
									"type": "string"
								}
							],
							"internalType": "struct Structure.User",
							"name": "user",
							"type": "tuple"
						},
						{
							"internalType": "string",
							"name": "partyName",
							"type": "string"
						},
						{
							"internalType": "string",
							"name": "position",
							"type": "string"
						},
						{
							"internalType": "string",
							"name": "votingBooth",
							"type": "string"
						},
						{
							"internalType": "string",
							"name": "agenda",
							"type": "string"
						},
						{
							"internalType": "uint256",
							"name": "voteCount",
							"type": "uint256"
						},
						{
							"internalType": "address[]",
							"name": "votedVoterLists",
							"type": "address[]"
						}
					],
					"indexed": false,
					"internalType": "struct Structure.Candidate",
					"name": "candidate",
					"type": "tuple"
				}
			],
			"name": "CandidateCreated",
			"type": "event"
		},
		{
			"anonymous": false,
			"inputs": [
				{
					"components": [
						{
							"internalType": "address",
							"name": "_id",
							"type": "address"
						},
						{
							"internalType": "string",
							"name": "title",
							"type": "string"
						},
						{
							"internalType": "string",
							"name": "description",
							"type": "string"
						},
						{
							"internalType": "string",
							"name": "fileUrl",
							"type": "string"
						},
						{
							"internalType": "string",
							"name": "createdAt",
							"type": "string"
						},
						{
							"components": [
								{
									"internalType": "address",
									"name": "userId",
									"type": "address"
								},
								{
									"internalType": "string",
									"name": "replyMsg",
									"type": "string"
								},
								{
									"internalType": "string",
									"name": "createdAt",
									"type": "string"
								}
							],
							"internalType": "struct Structure.ReplyComment[]",
							"name": "comments",
							"type": "tuple[]"
						}
					],
					"indexed": false,
					"internalType": "struct Structure.FAQ",
					"name": "faq",
					"type": "tuple"
				}
			],
			"name": "NewFaqAdded",
			"type": "event"
		},
		{
			"anonymous": false,
			"inputs": [
				{
					"components": [
						{
							"internalType": "address",
							"name": "owner",
							"type": "address"
						},
						{
							"internalType": "string",
							"name": "name",
							"type": "string"
						},
						{
							"internalType": "uint256",
							"name": "totalMember",
							"type": "uint256"
						},
						{
							"internalType": "string",
							"name": "agenda",
							"type": "string"
						},
						{
							"internalType": "string",
							"name": "logoUrl",
							"type": "string"
						},
						{
							"internalType": "address[]",
							"name": "members",
							"type": "address[]"
						}
					],
					"indexed": false,
					"internalType": "struct Structure.Party",
					"name": "party",
					"type": "tuple"
				}
			],
			"name": "PartyCreated",
			"type": "event"
		},
		{
			"anonymous": false,
			"inputs": [
				{
					"components": [
						{
							"components": [
								{
									"internalType": "address",
									"name": "_id",
									"type": "address"
								},
								{
									"internalType": "string",
									"name": "fullName",
									"type": "string"
								},
								{
									"internalType": "uint256",
									"name": "citizenshipNumber",
									"type": "uint256"
								},
								{
									"internalType": "uint256",
									"name": "age",
									"type": "uint256"
								},
								{
									"internalType": "string",
									"name": "gender",
									"type": "string"
								},
								{
									"internalType": "string",
									"name": "dob",
									"type": "string"
								},
								{
									"internalType": "string",
									"name": "email",
									"type": "string"
								},
								{
									"internalType": "string",
									"name": "profile",
									"type": "string"
								},
								{
									"internalType": "string",
									"name": "province",
									"type": "string"
								},
								{
									"internalType": "string",
									"name": "district",
									"type": "string"
								},
								{
									"internalType": "string",
									"name": "municipality",
									"type": "string"
								},
								{
									"internalType": "string",
									"name": "ward",
									"type": "string"
								}
							],
							"internalType": "struct Structure.User",
							"name": "user",
							"type": "tuple"
						},
						{
							"internalType": "string",
							"name": "partyName",
							"type": "string"
						},
						{
							"internalType": "string",
							"name": "position",
							"type": "string"
						},
						{
							"internalType": "string",
							"name": "votingBooth",
							"type": "string"
						},
						{
							"internalType": "string",
							"name": "agenda",
							"type": "string"
						},
						{
							"internalType": "uint256",
							"name": "voteCount",
							"type": "uint256"
						},
						{
							"internalType": "address[]",
							"name": "votedVoterLists",
							"type": "address[]"
						}
					],
					"indexed": false,
					"internalType": "struct Structure.Candidate",
					"name": "candidate",
					"type": "tuple"
				}
			],
			"name": "VoteCast",
			"type": "event"
		},
		{
			"anonymous": false,
			"inputs": [
				{
					"components": [
						{
							"components": [
								{
									"internalType": "address",
									"name": "_id",
									"type": "address"
								},
								{
									"internalType": "string",
									"name": "fullName",
									"type": "string"
								},
								{
									"internalType": "uint256",
									"name": "citizenshipNumber",
									"type": "uint256"
								},
								{
									"internalType": "uint256",
									"name": "age",
									"type": "uint256"
								},
								{
									"internalType": "string",
									"name": "gender",
									"type": "string"
								},
								{
									"internalType": "string",
									"name": "dob",
									"type": "string"
								},
								{
									"internalType": "string",
									"name": "email",
									"type": "string"
								},
								{
									"internalType": "string",
									"name": "profile",
									"type": "string"
								},
								{
									"internalType": "string",
									"name": "province",
									"type": "string"
								},
								{
									"internalType": "string",
									"name": "district",
									"type": "string"
								},
								{
									"internalType": "string",
									"name": "municipality",
									"type": "string"
								},
								{
									"internalType": "string",
									"name": "ward",
									"type": "string"
								}
							],
							"internalType": "struct Structure.User",
							"name": "user",
							"type": "tuple"
						},
						{
							"internalType": "address[]",
							"name": "votedCandidateList",
							"type": "address[]"
						},
						{
							"internalType": "uint256",
							"name": "voteLimitCount",
							"type": "uint256"
						}
					],
					"indexed": false,
					"internalType": "struct Structure.Voter",
					"name": "voter",
					"type": "tuple"
				}
			],
			"name": "VoterCreated",
			"type": "event"
		},
		{
			"anonymous": false,
			"inputs": [
				{
					"components": [
						{
							"internalType": "string",
							"name": "title",
							"type": "string"
						},
						{
							"internalType": "string",
							"name": "description",
							"type": "string"
						},
						{
							"internalType": "string",
							"name": "startDate",
							"type": "string"
						},
						{
							"internalType": "string",
							"name": "endDate",
							"type": "string"
						},
						{
							"internalType": "string",
							"name": "electionType",
							"type": "string"
						},
						{
							"components": [
								{
									"components": [
										{
											"internalType": "address",
											"name": "_id",
											"type": "address"
										},
										{
											"internalType": "string",
											"name": "fullName",
											"type": "string"
										},
										{
											"internalType": "uint256",
											"name": "citizenshipNumber",
											"type": "uint256"
										},
										{
											"internalType": "uint256",
											"name": "age",
											"type": "uint256"
										},
										{
											"internalType": "string",
											"name": "gender",
											"type": "string"
										},
										{
											"internalType": "string",
											"name": "dob",
											"type": "string"
										},
										{
											"internalType": "string",
											"name": "email",
											"type": "string"
										},
										{
											"internalType": "string",
											"name": "profile",
											"type": "string"
										},
										{
											"internalType": "string",
											"name": "province",
											"type": "string"
										},
										{
											"internalType": "string",
											"name": "district",
											"type": "string"
										},
										{
											"internalType": "string",
											"name": "municipality",
											"type": "string"
										},
										{
											"internalType": "string",
											"name": "ward",
											"type": "string"
										}
									],
									"internalType": "struct Structure.User",
									"name": "user",
									"type": "tuple"
								},
								{
									"internalType": "string",
									"name": "partyName",
									"type": "string"
								},
								{
									"internalType": "string",
									"name": "position",
									"type": "string"
								},
								{
									"internalType": "string",
									"name": "votingBooth",
									"type": "string"
								},
								{
									"internalType": "string",
									"name": "agenda",
									"type": "string"
								},
								{
									"internalType": "uint256",
									"name": "voteCount",
									"type": "uint256"
								},
								{
									"internalType": "address[]",
									"name": "votedVoterLists",
									"type": "address[]"
								}
							],
							"internalType": "struct Structure.Candidate[]",
							"name": "candidates",
							"type": "tuple[]"
						},
						{
							"internalType": "string[]",
							"name": "galleryImagesUrl",
							"type": "string[]"
						}
					],
					"indexed": false,
					"internalType": "struct Structure.Election",
					"name": "election",
					"type": "tuple"
				}
			],
			"name": "electionStart",
			"type": "event"
		},
		{
			"inputs": [
				{
					"internalType": "string",
					"name": "_name",
					"type": "string"
				},
				{
					"internalType": "uint256",
					"name": "_citizenshipNo",
					"type": "uint256"
				},
				{
					"internalType": "uint256",
					"name": "_age",
					"type": "uint256"
				},
				{
					"internalType": "string",
					"name": "_agenda",
					"type": "string"
				},
				{
					"internalType": "string",
					"name": "_dob",
					"type": "string"
				},
				{
					"internalType": "string",
					"name": "_email",
					"type": "string"
				},
				{
					"internalType": "string",
					"name": "_profile",
					"type": "string"
				},
				{
					"internalType": "string",
					"name": "_partyName",
					"type": "string"
				},
				{
					"internalType": "string",
					"name": "_province",
					"type": "string"
				},
				{
					"internalType": "string",
					"name": "_district",
					"type": "string"
				},
				{
					"internalType": "string",
					"name": "_municipality",
					"type": "string"
				},
				{
					"internalType": "string",
					"name": "_ward",
					"type": "string"
				},
				{
					"internalType": "string",
					"name": "_gender",
					"type": "string"
				}
			],
			"name": "addCandidate",
			"outputs": [],
			"stateMutability": "payable",
			"type": "function"
		},
		{
			"inputs": [
				{
					"internalType": "address",
					"name": "faqId",
					"type": "address"
				},
				{
					"internalType": "string",
					"name": "replyMsg",
					"type": "string"
				},
				{
					"internalType": "string",
					"name": "createdAt",
					"type": "string"
				}
			],
			"name": "addFaqComment",
			"outputs": [],
			"stateMutability": "payable",
			"type": "function"
		},
		{
			"inputs": [
				{
					"internalType": "string",
					"name": "title",
					"type": "string"
				},
				{
					"internalType": "string",
					"name": "description",
					"type": "string"
				},
				{
					"internalType": "string",
					"name": "fileUrl",
					"type": "string"
				},
				{
					"internalType": "string",
					"name": "createdAt",
					"type": "string"
				}
			],
			"name": "addFaqs",
			"outputs": [],
			"stateMutability": "payable",
			"type": "function"
		},
		{
			"inputs": [
				{
					"internalType": "string",
					"name": "_name",
					"type": "string"
				},
				{
					"internalType": "uint256",
					"name": "_totalMember",
					"type": "uint256"
				},
				{
					"internalType": "string",
					"name": "_agenda",
					"type": "string"
				},
				{
					"internalType": "string",
					"name": "_logoUrl",
					"type": "string"
				}
			],
			"name": "addParty",
			"outputs": [],
			"stateMutability": "payable",
			"type": "function"
		},
		{
			"inputs": [
				{
					"components": [
						{
							"internalType": "address",
							"name": "_id",
							"type": "address"
						},
						{
							"internalType": "string",
							"name": "position",
							"type": "string"
						}
					],
					"internalType": "struct Structure.SelectedCandidatePayload[]",
					"name": "_selectedCandidates",
					"type": "tuple[]"
				},
				{
					"internalType": "string",
					"name": "electionAddress",
					"type": "string"
				},
				{
					"internalType": "string",
					"name": "_votingBooth",
					"type": "string"
				}
			],
			"name": "addSelectedCandidates",
			"outputs": [],
			"stateMutability": "payable",
			"type": "function"
		},
		{
			"inputs": [
				{
					"internalType": "string",
					"name": "_name",
					"type": "string"
				},
				{
					"internalType": "uint256",
					"name": "_citizenshipNo",
					"type": "uint256"
				},
				{
					"internalType": "uint256",
					"name": "_age",
					"type": "uint256"
				},
				{
					"internalType": "string",
					"name": "_dob",
					"type": "string"
				},
				{
					"internalType": "string",
					"name": "_email",
					"type": "string"
				},
				{
					"internalType": "string",
					"name": "_profile",
					"type": "string"
				},
				{
					"internalType": "string",
					"name": "_province",
					"type": "string"
				},
				{
					"internalType": "string",
					"name": "_district",
					"type": "string"
				},
				{
					"internalType": "string",
					"name": "_municipality",
					"type": "string"
				},
				{
					"internalType": "string",
					"name": "_ward",
					"type": "string"
				},
				{
					"internalType": "string",
					"name": "_gender",
					"type": "string"
				}
			],
			"name": "addVoter",
			"outputs": [],
			"stateMutability": "payable",
			"type": "function"
		},
		{
			"inputs": [],
			"name": "adminAddress",
			"outputs": [
				{
					"internalType": "address",
					"name": "",
					"type": "address"
				}
			],
			"stateMutability": "view",
			"type": "function"
		},
		{
			"inputs": [
				{
					"internalType": "uint256",
					"name": "",
					"type": "uint256"
				}
			],
			"name": "candidateList",
			"outputs": [
				{
					"components": [
						{
							"internalType": "address",
							"name": "_id",
							"type": "address"
						},
						{
							"internalType": "string",
							"name": "fullName",
							"type": "string"
						},
						{
							"internalType": "uint256",
							"name": "citizenshipNumber",
							"type": "uint256"
						},
						{
							"internalType": "uint256",
							"name": "age",
							"type": "uint256"
						},
						{
							"internalType": "string",
							"name": "gender",
							"type": "string"
						},
						{
							"internalType": "string",
							"name": "dob",
							"type": "string"
						},
						{
							"internalType": "string",
							"name": "email",
							"type": "string"
						},
						{
							"internalType": "string",
							"name": "profile",
							"type": "string"
						},
						{
							"internalType": "string",
							"name": "province",
							"type": "string"
						},
						{
							"internalType": "string",
							"name": "district",
							"type": "string"
						},
						{
							"internalType": "string",
							"name": "municipality",
							"type": "string"
						},
						{
							"internalType": "string",
							"name": "ward",
							"type": "string"
						}
					],
					"internalType": "struct Structure.User",
					"name": "user",
					"type": "tuple"
				},
				{
					"internalType": "string",
					"name": "partyName",
					"type": "string"
				},
				{
					"internalType": "string",
					"name": "position",
					"type": "string"
				},
				{
					"internalType": "string",
					"name": "votingBooth",
					"type": "string"
				},
				{
					"internalType": "string",
					"name": "agenda",
					"type": "string"
				},
				{
					"internalType": "uint256",
					"name": "voteCount",
					"type": "uint256"
				}
			],
			"stateMutability": "view",
			"type": "function"
		},
		{
			"inputs": [
				{
					"internalType": "uint256",
					"name": "",
					"type": "uint256"
				}
			],
			"name": "candidateNames",
			"outputs": [
				{
					"internalType": "string",
					"name": "",
					"type": "string"
				}
			],
			"stateMutability": "view",
			"type": "function"
		},
		{
			"inputs": [
				{
					"internalType": "address",
					"name": "",
					"type": "address"
				}
			],
			"name": "candidates",
			"outputs": [
				{
					"components": [
						{
							"internalType": "address",
							"name": "_id",
							"type": "address"
						},
						{
							"internalType": "string",
							"name": "fullName",
							"type": "string"
						},
						{
							"internalType": "uint256",
							"name": "citizenshipNumber",
							"type": "uint256"
						},
						{
							"internalType": "uint256",
							"name": "age",
							"type": "uint256"
						},
						{
							"internalType": "string",
							"name": "gender",
							"type": "string"
						},
						{
							"internalType": "string",
							"name": "dob",
							"type": "string"
						},
						{
							"internalType": "string",
							"name": "email",
							"type": "string"
						},
						{
							"internalType": "string",
							"name": "profile",
							"type": "string"
						},
						{
							"internalType": "string",
							"name": "province",
							"type": "string"
						},
						{
							"internalType": "string",
							"name": "district",
							"type": "string"
						},
						{
							"internalType": "string",
							"name": "municipality",
							"type": "string"
						},
						{
							"internalType": "string",
							"name": "ward",
							"type": "string"
						}
					],
					"internalType": "struct Structure.User",
					"name": "user",
					"type": "tuple"
				},
				{
					"internalType": "string",
					"name": "partyName",
					"type": "string"
				},
				{
					"internalType": "string",
					"name": "position",
					"type": "string"
				},
				{
					"internalType": "string",
					"name": "votingBooth",
					"type": "string"
				},
				{
					"internalType": "string",
					"name": "agenda",
					"type": "string"
				},
				{
					"internalType": "uint256",
					"name": "voteCount",
					"type": "uint256"
				}
			],
			"stateMutability": "view",
			"type": "function"
		},
		{
			"inputs": [
				{
					"internalType": "string",
					"name": "_title",
					"type": "string"
				},
				{
					"internalType": "string",
					"name": "_description",
					"type": "string"
				},
				{
					"internalType": "string",
					"name": "_startDate",
					"type": "string"
				},
				{
					"internalType": "string",
					"name": "_endDate",
					"type": "string"
				},
				{
					"internalType": "string",
					"name": "_electionType",
					"type": "string"
				},
				{
					"internalType": "string[]",
					"name": "galleryImagesUrl",
					"type": "string[]"
				}
			],
			"name": "createElection",
			"outputs": [],
			"stateMutability": "payable",
			"type": "function"
		},
		{
			"inputs": [
				{
					"internalType": "uint256",
					"name": "",
					"type": "uint256"
				}
			],
			"name": "electionList",
			"outputs": [
				{
					"internalType": "string",
					"name": "title",
					"type": "string"
				},
				{
					"internalType": "string",
					"name": "description",
					"type": "string"
				},
				{
					"internalType": "string",
					"name": "startDate",
					"type": "string"
				},
				{
					"internalType": "string",
					"name": "endDate",
					"type": "string"
				},
				{
					"internalType": "string",
					"name": "electionType",
					"type": "string"
				}
			],
			"stateMutability": "view",
			"type": "function"
		},
		{
			"inputs": [
				{
					"internalType": "string",
					"name": "",
					"type": "string"
				}
			],
			"name": "elections",
			"outputs": [
				{
					"internalType": "string",
					"name": "title",
					"type": "string"
				},
				{
					"internalType": "string",
					"name": "description",
					"type": "string"
				},
				{
					"internalType": "string",
					"name": "startDate",
					"type": "string"
				},
				{
					"internalType": "string",
					"name": "endDate",
					"type": "string"
				},
				{
					"internalType": "string",
					"name": "electionType",
					"type": "string"
				}
			],
			"stateMutability": "view",
			"type": "function"
		},
		{
			"inputs": [
				{
					"internalType": "uint256",
					"name": "",
					"type": "uint256"
				}
			],
			"name": "faqList",
			"outputs": [
				{
					"internalType": "address",
					"name": "_id",
					"type": "address"
				},
				{
					"internalType": "string",
					"name": "title",
					"type": "string"
				},
				{
					"internalType": "string",
					"name": "description",
					"type": "string"
				},
				{
					"internalType": "string",
					"name": "fileUrl",
					"type": "string"
				},
				{
					"internalType": "string",
					"name": "createdAt",
					"type": "string"
				}
			],
			"stateMutability": "view",
			"type": "function"
		},
		{
			"inputs": [
				{
					"internalType": "address",
					"name": "",
					"type": "address"
				}
			],
			"name": "faqs",
			"outputs": [
				{
					"internalType": "address",
					"name": "_id",
					"type": "address"
				},
				{
					"internalType": "string",
					"name": "title",
					"type": "string"
				},
				{
					"internalType": "string",
					"name": "description",
					"type": "string"
				},
				{
					"internalType": "string",
					"name": "fileUrl",
					"type": "string"
				},
				{
					"internalType": "string",
					"name": "createdAt",
					"type": "string"
				}
			],
			"stateMutability": "view",
			"type": "function"
		},
		{
			"inputs": [
				{
					"internalType": "uint256",
					"name": "",
					"type": "uint256"
				}
			],
			"name": "gender_list",
			"outputs": [
				{
					"internalType": "string",
					"name": "",
					"type": "string"
				}
			],
			"stateMutability": "view",
			"type": "function"
		},
		{
			"inputs": [],
			"name": "getAllCandidates",
			"outputs": [
				{
					"components": [
						{
							"components": [
								{
									"internalType": "address",
									"name": "_id",
									"type": "address"
								},
								{
									"internalType": "string",
									"name": "fullName",
									"type": "string"
								},
								{
									"internalType": "uint256",
									"name": "citizenshipNumber",
									"type": "uint256"
								},
								{
									"internalType": "uint256",
									"name": "age",
									"type": "uint256"
								},
								{
									"internalType": "string",
									"name": "gender",
									"type": "string"
								},
								{
									"internalType": "string",
									"name": "dob",
									"type": "string"
								},
								{
									"internalType": "string",
									"name": "email",
									"type": "string"
								},
								{
									"internalType": "string",
									"name": "profile",
									"type": "string"
								},
								{
									"internalType": "string",
									"name": "province",
									"type": "string"
								},
								{
									"internalType": "string",
									"name": "district",
									"type": "string"
								},
								{
									"internalType": "string",
									"name": "municipality",
									"type": "string"
								},
								{
									"internalType": "string",
									"name": "ward",
									"type": "string"
								}
							],
							"internalType": "struct Structure.User",
							"name": "user",
							"type": "tuple"
						},
						{
							"internalType": "string",
							"name": "partyName",
							"type": "string"
						},
						{
							"internalType": "string",
							"name": "position",
							"type": "string"
						},
						{
							"internalType": "string",
							"name": "votingBooth",
							"type": "string"
						},
						{
							"internalType": "string",
							"name": "agenda",
							"type": "string"
						},
						{
							"internalType": "uint256",
							"name": "voteCount",
							"type": "uint256"
						},
						{
							"internalType": "address[]",
							"name": "votedVoterLists",
							"type": "address[]"
						}
					],
					"internalType": "struct Structure.Candidate[]",
					"name": "",
					"type": "tuple[]"
				}
			],
			"stateMutability": "view",
			"type": "function"
		},
		{
			"inputs": [],
			"name": "getAllElections",
			"outputs": [
				{
					"components": [
						{
							"internalType": "string",
							"name": "title",
							"type": "string"
						},
						{
							"internalType": "string",
							"name": "description",
							"type": "string"
						},
						{
							"internalType": "string",
							"name": "startDate",
							"type": "string"
						},
						{
							"internalType": "string",
							"name": "endDate",
							"type": "string"
						},
						{
							"internalType": "string",
							"name": "electionType",
							"type": "string"
						},
						{
							"components": [
								{
									"components": [
										{
											"internalType": "address",
											"name": "_id",
											"type": "address"
										},
										{
											"internalType": "string",
											"name": "fullName",
											"type": "string"
										},
										{
											"internalType": "uint256",
											"name": "citizenshipNumber",
											"type": "uint256"
										},
										{
											"internalType": "uint256",
											"name": "age",
											"type": "uint256"
										},
										{
											"internalType": "string",
											"name": "gender",
											"type": "string"
										},
										{
											"internalType": "string",
											"name": "dob",
											"type": "string"
										},
										{
											"internalType": "string",
											"name": "email",
											"type": "string"
										},
										{
											"internalType": "string",
											"name": "profile",
											"type": "string"
										},
										{
											"internalType": "string",
											"name": "province",
											"type": "string"
										},
										{
											"internalType": "string",
											"name": "district",
											"type": "string"
										},
										{
											"internalType": "string",
											"name": "municipality",
											"type": "string"
										},
										{
											"internalType": "string",
											"name": "ward",
											"type": "string"
										}
									],
									"internalType": "struct Structure.User",
									"name": "user",
									"type": "tuple"
								},
								{
									"internalType": "string",
									"name": "partyName",
									"type": "string"
								},
								{
									"internalType": "string",
									"name": "position",
									"type": "string"
								},
								{
									"internalType": "string",
									"name": "votingBooth",
									"type": "string"
								},
								{
									"internalType": "string",
									"name": "agenda",
									"type": "string"
								},
								{
									"internalType": "uint256",
									"name": "voteCount",
									"type": "uint256"
								},
								{
									"internalType": "address[]",
									"name": "votedVoterLists",
									"type": "address[]"
								}
							],
							"internalType": "struct Structure.Candidate[]",
							"name": "candidates",
							"type": "tuple[]"
						},
						{
							"internalType": "string[]",
							"name": "galleryImagesUrl",
							"type": "string[]"
						}
					],
					"internalType": "struct Structure.Election[]",
					"name": "",
					"type": "tuple[]"
				}
			],
			"stateMutability": "view",
			"type": "function"
		},
		{
			"inputs": [],
			"name": "getAllFAQs",
			"outputs": [
				{
					"components": [
						{
							"internalType": "address",
							"name": "_id",
							"type": "address"
						},
						{
							"internalType": "string",
							"name": "title",
							"type": "string"
						},
						{
							"internalType": "string",
							"name": "description",
							"type": "string"
						},
						{
							"internalType": "string",
							"name": "fileUrl",
							"type": "string"
						},
						{
							"internalType": "string",
							"name": "createdAt",
							"type": "string"
						},
						{
							"components": [
								{
									"internalType": "address",
									"name": "userId",
									"type": "address"
								},
								{
									"internalType": "string",
									"name": "replyMsg",
									"type": "string"
								},
								{
									"internalType": "string",
									"name": "createdAt",
									"type": "string"
								}
							],
							"internalType": "struct Structure.ReplyComment[]",
							"name": "comments",
							"type": "tuple[]"
						}
					],
					"internalType": "struct Structure.FAQ[]",
					"name": "",
					"type": "tuple[]"
				}
			],
			"stateMutability": "view",
			"type": "function"
		},
		{
			"inputs": [],
			"name": "getAllParties",
			"outputs": [
				{
					"components": [
						{
							"internalType": "address",
							"name": "owner",
							"type": "address"
						},
						{
							"internalType": "string",
							"name": "name",
							"type": "string"
						},
						{
							"internalType": "uint256",
							"name": "totalMember",
							"type": "uint256"
						},
						{
							"internalType": "string",
							"name": "agenda",
							"type": "string"
						},
						{
							"internalType": "string",
							"name": "logoUrl",
							"type": "string"
						},
						{
							"internalType": "address[]",
							"name": "members",
							"type": "address[]"
						}
					],
					"internalType": "struct Structure.Party[]",
					"name": "",
					"type": "tuple[]"
				}
			],
			"stateMutability": "view",
			"type": "function"
		},
		{
			"inputs": [],
			"name": "getAllVoters",
			"outputs": [
				{
					"components": [
						{
							"components": [
								{
									"internalType": "address",
									"name": "_id",
									"type": "address"
								},
								{
									"internalType": "string",
									"name": "fullName",
									"type": "string"
								},
								{
									"internalType": "uint256",
									"name": "citizenshipNumber",
									"type": "uint256"
								},
								{
									"internalType": "uint256",
									"name": "age",
									"type": "uint256"
								},
								{
									"internalType": "string",
									"name": "gender",
									"type": "string"
								},
								{
									"internalType": "string",
									"name": "dob",
									"type": "string"
								},
								{
									"internalType": "string",
									"name": "email",
									"type": "string"
								},
								{
									"internalType": "string",
									"name": "profile",
									"type": "string"
								},
								{
									"internalType": "string",
									"name": "province",
									"type": "string"
								},
								{
									"internalType": "string",
									"name": "district",
									"type": "string"
								},
								{
									"internalType": "string",
									"name": "municipality",
									"type": "string"
								},
								{
									"internalType": "string",
									"name": "ward",
									"type": "string"
								}
							],
							"internalType": "struct Structure.User",
							"name": "user",
							"type": "tuple"
						},
						{
							"internalType": "address[]",
							"name": "votedCandidateList",
							"type": "address[]"
						},
						{
							"internalType": "uint256",
							"name": "voteLimitCount",
							"type": "uint256"
						}
					],
					"internalType": "struct Structure.Voter[]",
					"name": "",
					"type": "tuple[]"
				}
			],
			"stateMutability": "view",
			"type": "function"
		},
		{
			"inputs": [
				{
					"internalType": "address",
					"name": "_id",
					"type": "address"
				}
			],
			"name": "getCandidateDetails",
			"outputs": [
				{
					"components": [
						{
							"components": [
								{
									"internalType": "address",
									"name": "_id",
									"type": "address"
								},
								{
									"internalType": "string",
									"name": "fullName",
									"type": "string"
								},
								{
									"internalType": "uint256",
									"name": "citizenshipNumber",
									"type": "uint256"
								},
								{
									"internalType": "uint256",
									"name": "age",
									"type": "uint256"
								},
								{
									"internalType": "string",
									"name": "gender",
									"type": "string"
								},
								{
									"internalType": "string",
									"name": "dob",
									"type": "string"
								},
								{
									"internalType": "string",
									"name": "email",
									"type": "string"
								},
								{
									"internalType": "string",
									"name": "profile",
									"type": "string"
								},
								{
									"internalType": "string",
									"name": "province",
									"type": "string"
								},
								{
									"internalType": "string",
									"name": "district",
									"type": "string"
								},
								{
									"internalType": "string",
									"name": "municipality",
									"type": "string"
								},
								{
									"internalType": "string",
									"name": "ward",
									"type": "string"
								}
							],
							"internalType": "struct Structure.User",
							"name": "user",
							"type": "tuple"
						},
						{
							"internalType": "string",
							"name": "partyName",
							"type": "string"
						},
						{
							"internalType": "string",
							"name": "position",
							"type": "string"
						},
						{
							"internalType": "string",
							"name": "votingBooth",
							"type": "string"
						},
						{
							"internalType": "string",
							"name": "agenda",
							"type": "string"
						},
						{
							"internalType": "uint256",
							"name": "voteCount",
							"type": "uint256"
						},
						{
							"internalType": "address[]",
							"name": "votedVoterLists",
							"type": "address[]"
						}
					],
					"internalType": "struct Structure.Candidate",
					"name": "",
					"type": "tuple"
				}
			],
			"stateMutability": "view",
			"type": "function"
		},
		{
			"inputs": [
				{
					"internalType": "address",
					"name": "owner",
					"type": "address"
				}
			],
			"name": "getPartyDetails",
			"outputs": [
				{
					"components": [
						{
							"internalType": "address",
							"name": "owner",
							"type": "address"
						},
						{
							"internalType": "string",
							"name": "name",
							"type": "string"
						},
						{
							"internalType": "uint256",
							"name": "totalMember",
							"type": "uint256"
						},
						{
							"internalType": "string",
							"name": "agenda",
							"type": "string"
						},
						{
							"internalType": "string",
							"name": "logoUrl",
							"type": "string"
						},
						{
							"internalType": "address[]",
							"name": "members",
							"type": "address[]"
						}
					],
					"internalType": "struct Structure.Party",
					"name": "",
					"type": "tuple"
				}
			],
			"stateMutability": "view",
			"type": "function"
		},
		{
			"inputs": [
				{
					"internalType": "address",
					"name": "_id",
					"type": "address"
				}
			],
			"name": "getVoterDetails",
			"outputs": [
				{
					"components": [
						{
							"components": [
								{
									"internalType": "address",
									"name": "_id",
									"type": "address"
								},
								{
									"internalType": "string",
									"name": "fullName",
									"type": "string"
								},
								{
									"internalType": "uint256",
									"name": "citizenshipNumber",
									"type": "uint256"
								},
								{
									"internalType": "uint256",
									"name": "age",
									"type": "uint256"
								},
								{
									"internalType": "string",
									"name": "gender",
									"type": "string"
								},
								{
									"internalType": "string",
									"name": "dob",
									"type": "string"
								},
								{
									"internalType": "string",
									"name": "email",
									"type": "string"
								},
								{
									"internalType": "string",
									"name": "profile",
									"type": "string"
								},
								{
									"internalType": "string",
									"name": "province",
									"type": "string"
								},
								{
									"internalType": "string",
									"name": "district",
									"type": "string"
								},
								{
									"internalType": "string",
									"name": "municipality",
									"type": "string"
								},
								{
									"internalType": "string",
									"name": "ward",
									"type": "string"
								}
							],
							"internalType": "struct Structure.User",
							"name": "user",
							"type": "tuple"
						},
						{
							"internalType": "address[]",
							"name": "votedCandidateList",
							"type": "address[]"
						},
						{
							"internalType": "uint256",
							"name": "voteLimitCount",
							"type": "uint256"
						}
					],
					"internalType": "struct Structure.Voter",
					"name": "",
					"type": "tuple"
				}
			],
			"stateMutability": "view",
			"type": "function"
		},
		{
			"inputs": [
				{
					"internalType": "address",
					"name": "_id",
					"type": "address"
				}
			],
			"name": "isAdmin",
			"outputs": [
				{
					"internalType": "bool",
					"name": "",
					"type": "bool"
				}
			],
			"stateMutability": "view",
			"type": "function"
		},
		{
			"inputs": [
				{
					"internalType": "address",
					"name": "",
					"type": "address"
				}
			],
			"name": "parties",
			"outputs": [
				{
					"internalType": "address",
					"name": "owner",
					"type": "address"
				},
				{
					"internalType": "string",
					"name": "name",
					"type": "string"
				},
				{
					"internalType": "uint256",
					"name": "totalMember",
					"type": "uint256"
				},
				{
					"internalType": "string",
					"name": "agenda",
					"type": "string"
				},
				{
					"internalType": "string",
					"name": "logoUrl",
					"type": "string"
				}
			],
			"stateMutability": "view",
			"type": "function"
		},
		{
			"inputs": [
				{
					"internalType": "uint256",
					"name": "",
					"type": "uint256"
				}
			],
			"name": "partyList",
			"outputs": [
				{
					"internalType": "address",
					"name": "owner",
					"type": "address"
				},
				{
					"internalType": "string",
					"name": "name",
					"type": "string"
				},
				{
					"internalType": "uint256",
					"name": "totalMember",
					"type": "uint256"
				},
				{
					"internalType": "string",
					"name": "agenda",
					"type": "string"
				},
				{
					"internalType": "string",
					"name": "logoUrl",
					"type": "string"
				}
			],
			"stateMutability": "view",
			"type": "function"
		},
		{
			"inputs": [
				{
					"internalType": "uint256",
					"name": "",
					"type": "uint256"
				}
			],
			"name": "partyNames",
			"outputs": [
				{
					"internalType": "string",
					"name": "",
					"type": "string"
				}
			],
			"stateMutability": "view",
			"type": "function"
		},
		{
			"inputs": [],
			"name": "totalCandidate",
			"outputs": [
				{
					"internalType": "uint256",
					"name": "",
					"type": "uint256"
				}
			],
			"stateMutability": "view",
			"type": "function"
		},
		{
			"inputs": [],
			"name": "totalElection",
			"outputs": [
				{
					"internalType": "uint256",
					"name": "",
					"type": "uint256"
				}
			],
			"stateMutability": "view",
			"type": "function"
		},
		{
			"inputs": [],
			"name": "totalFemaleVoters",
			"outputs": [
				{
					"internalType": "uint256",
					"name": "",
					"type": "uint256"
				}
			],
			"stateMutability": "view",
			"type": "function"
		},
		{
			"inputs": [],
			"name": "totalMaleVoters",
			"outputs": [
				{
					"internalType": "uint256",
					"name": "",
					"type": "uint256"
				}
			],
			"stateMutability": "view",
			"type": "function"
		},
		{
			"inputs": [],
			"name": "totalOtherVoters",
			"outputs": [
				{
					"internalType": "uint256",
					"name": "",
					"type": "uint256"
				}
			],
			"stateMutability": "view",
			"type": "function"
		},
		{
			"inputs": [],
			"name": "totalParty",
			"outputs": [
				{
					"internalType": "uint256",
					"name": "",
					"type": "uint256"
				}
			],
			"stateMutability": "view",
			"type": "function"
		},
		{
			"inputs": [],
			"name": "totalVoter",
			"outputs": [
				{
					"internalType": "uint256",
					"name": "",
					"type": "uint256"
				}
			],
			"stateMutability": "view",
			"type": "function"
		},
		{
			"inputs": [
				{
					"internalType": "string",
					"name": "_gender",
					"type": "string"
				}
			],
			"name": "updateCounter",
			"outputs": [],
			"stateMutability": "nonpayable",
			"type": "function"
		},
		{
			"inputs": [
				{
					"internalType": "address",
					"name": "_candidateId",
					"type": "address"
				},
				{
					"internalType": "string",
					"name": "electionAddress",
					"type": "string"
				}
			],
			"name": "vote",
			"outputs": [],
			"stateMutability": "payable",
			"type": "function"
		},
		{
			"inputs": [],
			"name": "voteCount",
			"outputs": [
				{
					"internalType": "uint256",
					"name": "",
					"type": "uint256"
				}
			],
			"stateMutability": "view",
			"type": "function"
		},
		{
			"inputs": [
				{
					"internalType": "uint256",
					"name": "",
					"type": "uint256"
				}
			],
			"name": "voterList",
			"outputs": [
				{
					"components": [
						{
							"internalType": "address",
							"name": "_id",
							"type": "address"
						},
						{
							"internalType": "string",
							"name": "fullName",
							"type": "string"
						},
						{
							"internalType": "uint256",
							"name": "citizenshipNumber",
							"type": "uint256"
						},
						{
							"internalType": "uint256",
							"name": "age",
							"type": "uint256"
						},
						{
							"internalType": "string",
							"name": "gender",
							"type": "string"
						},
						{
							"internalType": "string",
							"name": "dob",
							"type": "string"
						},
						{
							"internalType": "string",
							"name": "email",
							"type": "string"
						},
						{
							"internalType": "string",
							"name": "profile",
							"type": "string"
						},
						{
							"internalType": "string",
							"name": "province",
							"type": "string"
						},
						{
							"internalType": "string",
							"name": "district",
							"type": "string"
						},
						{
							"internalType": "string",
							"name": "municipality",
							"type": "string"
						},
						{
							"internalType": "string",
							"name": "ward",
							"type": "string"
						}
					],
					"internalType": "struct Structure.User",
					"name": "user",
					"type": "tuple"
				},
				{
					"internalType": "uint256",
					"name": "voteLimitCount",
					"type": "uint256"
				}
			],
			"stateMutability": "view",
			"type": "function"
		},
		{
			"inputs": [
				{
					"internalType": "uint256",
					"name": "",
					"type": "uint256"
				}
			],
			"name": "voterNames",
			"outputs": [
				{
					"internalType": "string",
					"name": "",
					"type": "string"
				}
			],
			"stateMutability": "view",
			"type": "function"
		},
		{
			"inputs": [
				{
					"internalType": "address",
					"name": "",
					"type": "address"
				}
			],
			"name": "voters",
			"outputs": [
				{
					"components": [
						{
							"internalType": "address",
							"name": "_id",
							"type": "address"
						},
						{
							"internalType": "string",
							"name": "fullName",
							"type": "string"
						},
						{
							"internalType": "uint256",
							"name": "citizenshipNumber",
							"type": "uint256"
						},
						{
							"internalType": "uint256",
							"name": "age",
							"type": "uint256"
						},
						{
							"internalType": "string",
							"name": "gender",
							"type": "string"
						},
						{
							"internalType": "string",
							"name": "dob",
							"type": "string"
						},
						{
							"internalType": "string",
							"name": "email",
							"type": "string"
						},
						{
							"internalType": "string",
							"name": "profile",
							"type": "string"
						},
						{
							"internalType": "string",
							"name": "province",
							"type": "string"
						},
						{
							"internalType": "string",
							"name": "district",
							"type": "string"
						},
						{
							"internalType": "string",
							"name": "municipality",
							"type": "string"
						},
						{
							"internalType": "string",
							"name": "ward",
							"type": "string"
						}
					],
					"internalType": "struct Structure.User",
					"name": "user",
					"type": "tuple"
				},
				{
					"internalType": "uint256",
					"name": "voteLimitCount",
					"type": "uint256"
				}
			],
			"stateMutability": "view",
			"type": "function"
		}
	]
}