{
	"data": {
		"bytecode": {
			"linkReferences": {},
			"object": "608034620002a8576001600160401b03606082018181118382101762000292576040526200002c620002ad565b600490818152602090634d414c4560e01b8282015284526200004d620002ad565b600681526546454d414c4560d01b82820152818501526200006d620002ad565b60068152654f544845525360d01b82820152604085015260009283549460039586865580871062000215575b5084805282852085915b878310620000ea57868087818b8160025555553360018060a01b031960015416176001558060085580600c5580600d55806015556016556040516145cc9081620003248239f35b80518051908582116200020257908691620001068554620002cd565b90601f91828111620001c7575b50839183116001146200015c579180600195928695948d9262000150575b5050600019828e1b1c191690841b1785555b01920192019190620000a3565b01519050388062000131565b858b52838b209190601f1984168c5b818110620001ae575091600196939185889796941062000195575b505050831b8301855562000143565b0151600019838f1b60f8161c1916905538808062000186565b8284015185558b9660019095019493840193016200016b565b620001f190878d52858d20600585808801821c830193898910620001f8575b01901c01906200030a565b3862000113565b93508293620001e6565b634e487b7160e01b895260418852602489fd5b8580528684872091820191015b81811062000231575062000099565b806200024060019254620002cd565b806200024f575b500162000222565b601f908181118414620002695750508781555b3862000247565b836200028492848c52898c20920160051c820191016200030a565b878681208183555562000262565b634e487b7160e01b600052604160045260246000fd5b600080fd5b60408051919082016001600160401b038111838210176200029257604052565b90600182811c92168015620002ff575b6020831014620002e957565b634e487b7160e01b600052602260045260246000fd5b91607f1691620002dd565b81811062000316575050565b600081556001016200030a56fe608080604052600436101561001357600080fd5b60003560e01c908162da722814612bd0575080630273d66e14612b56578063029c21bd14612b385780630983f18514612b1a5780631812dab414612afc5780631bf533a4146124f35780631d50384b146122f557806324d7806c146122c05780632526e05d14611fce5780632d23c73514611b2a5780632e6997fe14611a9257806335bbe70e146119a85780634a3ccc96146118ff5780634f2352071461189457806350e2e8af1461181e57806353ac5dc3146117965780636332abc9146117785780636394a8fa1461171e578063640e79b71461160c57806369d2bca1146114f75780636c9abccb1461122257806371c693eb1461100d5780637c054c5414610fef5780637fd5f26814610dc25780638287e42f14610d675780638ab66a9014610cd75780638d0371ff14610cb95780639682f9b314610b985780639eda74cf14610889578063a3ec138d1461082b578063a96278ae146107d0578063b0a4ec4214610798578063b13c744b1461063e578063b867bfcc14610554578063ba71bef0146104e5578063c6384071146104c7578063defb908f1461037a578063e9af3fc0146102a7578063f38451661461022d578063f7c4c25a1461020f5763fc6f9468146101e157600080fd5b3461020a57600036600319011261020a576001546040516001600160a01b039091168152602090f35b600080fd5b3461020a57600036600319011261020a576020601554604051908152f35b3461020a57602036600319011261020a5760043560105481101561020a5761028861028f6102a3926010600052604051928380927f1b6847dc741a1b0cd08d278845f9d819d87b734759afb55fe2de5cb82a9ae67201612d91565b0382612eaf565b604051918291602083526020830190612c82565b0390f35b606036600319011261020a576102bb612c49565b6001600160401b0360243581811161020a576102db903690600401612f27565b9060443590811161020a576102f4903690600401612f27565b6040519161030183612e42565b3383526020830152604082015260018060a01b038092168060005260126020526005906103348383604060002001613f92565b60005b60145481101561037857818561034c8361333d565b505416146103625761035d90613567565b610337565b6103789450610371915061333d565b5001613f92565b005b3461020a57602036600319011261020a5760043560135481101561020a576007906013600052026040516103d48161028881857f66de8ffda797e3de9c05e8fc57b3bf0ec28a930d40b0d285d93c06501cf6a09001612d91565b6102a37f66de8ffda797e3de9c05e8fc57b3bf0ec28a930d40b0d285d93c06501cf6a094604051936104338561042c817f66de8ffda797e3de9c05e8fc57b3bf0ec28a930d40b0d285d93c06501cf6a0918501612d91565b0386612eaf565b60405161046681610288817f66de8ffda797e3de9c05e8fc57b3bf0ec28a930d40b0d285d93c06501cf6a0928601612d91565b6104bb604051926104a48461049d817f66de8ffda797e3de9c05e8fc57b3bf0ec28a930d40b0d285d93c06501cf6a0938501612d91565b0385612eaf565b6104b46040518096819301612d91565b0384612eaf565b6040519586958661316f565b3461020a57600036600319011261020a576020600d54604051908152f35b3461020a57602036600319011261020a576104fe612c49565b60006040805161050d81612e42565b610515614337565b815260606020820152015260018060a01b031660005260096020526102a3610540604060002061454b565b60405191829160208352602083019061313a565b3461020a57600036600319011261020a57600f5461057181613378565b9061057f6040519283612eaf565b8082526020908183019081600f6000527f8d1108e10bcb7c27dddfc02ed9d693a074039d026cf4ea4240b40f7d581ac8026000915b83831061061b5750505050604051918083019381845251809452604083019360408160051b85010192916000955b8287106105ef5785850386f35b90919293828061060b600193603f198a82030186528851612ce4565b96019201960195929190926105e2565b60068660019261062d859a999a614393565b8152019201920191909594956105b4565b3461020a57602036600319011261020a5760043560065481101561020a57600660005260120261068f7ff652222313e28459528d920b65115c16c04f3efc82aaedc97be59f3f377c0d3f8201613217565b6102a3604051926106c68461049d817ff652222313e28459528d920b65115c16c04f3efc82aaedc97be59f3f377c0d4b8501612d91565b60405190610701826106fa817ff652222313e28459528d920b65115c16c04f3efc82aaedc97be59f3f377c0d4c8501612d91565b0383612eaf565b60405161073481610288817ff652222313e28459528d920b65115c16c04f3efc82aaedc97be59f3f377c0d4d8601612d91565b7ff652222313e28459528d920b65115c16c04f3efc82aaedc97be59f3f377c0d4f604051926107898461049d817ff652222313e28459528d920b65115c16c04f3efc82aaedc97be59f3f377c0d4e8501612d91565b01549260405196879687613472565b3461020a57602036600319011261020a576004356001600160401b03811161020a576107cb610378913690600401612f27565b613fc5565b3461020a57602036600319011261020a57600435600b5481101561020a5761028861028f6102a392600b600052604051928380927f0175b7a638427703f0dbe7bb9bbf987a2551717b34e79f33b5b1008d1fa01db901612d91565b3461020a57602036600319011261020a576001600160a01b0361084c612c49565b16600052600960205261087f6040600020600d61086882613217565b910154604051928392604084526040840190612f7d565b9060208301520390f35b6101608060031936011261020a576001600160401b0360043581811161020a576108b7903690600401612f27565b9060643581811161020a576108d0903690600401612f27565b9160843582811161020a576108e9903690600401612f27565b9160a43581811161020a57610902903690600401612f27565b9460c43582811161020a5761091b903690600401612f27565b60e43583811161020a57610933903690600401612f27565b6101043584811161020a5761094c903690600401612f27565b916101243585811161020a57610966903690600401612f27565b946101443590811161020a57610980903690600401612f27565b983360005260209760098952600260406000200154610b53576109a28b613fc5565b604051996109af8b612e5d565b338b52888a8c015260249b8c3560408d015260443560608d015260808c015260a08b015260c08a015260e0890152610100880152610120870152610140860152840152604051926109ff84612e42565b8352606082840152600060408401523360005260098252610a24836040600020614416565b600b54600160401b9182821015610b3e576001820180600b55821015610b2957610a7491600b6000527f0175b7a638427703f0dbe7bb9bbf987a2551717b34e79f33b5b1008d1fa01db901613714565b600a5490811015610b1457806001610a8f9201600a556131dc565b610aff5782610a9d91614416565b600c5460018101809111610aea577ff59a1b8573db02cf501c11c9d7d88b5365a59bdf0555cfd387db21cfcaccf4da9350600c55610ae560405192828493845283019061313a565b0390a1005b83634e487b7160e01b60005260116004526000fd5b83634e487b7160e01b60005260006004526000fd5b83634e487b7160e01b60005260416004526000fd5b85634e487b7160e01b60005260326004526000fd5b85634e487b7160e01b60005260416004526000fd5b60405162461bcd60e51b8152600481018a9052601a60248201527f566f74657220616c7265616479207265676973746572656420210000000000006044820152606490fd5b3461020a57602036600319011261020a5760043560145481101561020a5760069060146000520260018060a01b03817fce6d7b5282bd9a3661ae061feed1dbda4e52ab073b1f9285be6e155d9c38d4ec0154166102a37fce6d7b5282bd9a3661ae061feed1dbda4e52ab073b1f9285be6e155d9c38d4f060405193610c438561042c817fce6d7b5282bd9a3661ae061feed1dbda4e52ab073b1f9285be6e155d9c38d4ed8501612d91565b604051610c7681610288817fce6d7b5282bd9a3661ae061feed1dbda4e52ab073b1f9285be6e155d9c38d4ee8601612d91565b610cad604051926104a48461049d817fce6d7b5282bd9a3661ae061feed1dbda4e52ab073b1f9285be6e155d9c38d4ef8501612d91565b60405195869586612ed0565b3461020a57600036600319011261020a576020601654604051908152f35b3461020a57602036600319011261020a576001600160a01b03610cf8612c49565b1660005260056020526040600020610d0f81613217565b6102a360405192610d278461049d81600c8501612d91565b60405190610d3c826106fa81600d8501612d91565b604051610d508161028881600e8601612d91565b6010604051926107898461049d81600f8501612d91565b3461020a57602036600319011261020a5760043560075481101561020a5761028861028f6102a3926007600052604051928380927fa66cc928b5edb82af9bd49922954155ab7b0942694bea4ce44661d9a8736c68801612d91565b3461020a57600036600319011261020a57601354610ddf81613378565b90610ded6040519283612eaf565b80825260208201908160136000527f66de8ffda797e3de9c05e8fc57b3bf0ec28a930d40b0d285d93c06501cf6a0906000915b838310610e8e57848660405191829160208301906020845251809152604083019060408160051b85010192916000905b828210610e5f57505050500390f35b91936001919395506020610e7e8192603f198a8203018652885161338f565b9601920192018594939192610e50565b604051610e9a81612e79565b604051610eab816102888187612d91565b8152604051610ec1816102888160018801612d91565b6020820152604051610eda816102888160028801612d91565b6040820152604051610ef3816102888160038801612d91565b6060820152604051610f0c816102888160048801612d91565b6080820152600583018054610f2081613378565b91610f2e6040519384612eaf565b81835260208301906000526020600020906000905b838210610fd1575050505060a0820152600683018054610f6281613378565b91610f706040519384612eaf565b81835260208301906000526020600020906000905b838210610fac57505050506001928260209260c06007950152815201920192019190610e20565b600160208192604051610fc381610288818a612d91565b815201930191019091610f85565b60126020600192610fe186613d58565b815201930191019091610f43565b3461020a57600036600319011261020a576020600354604051908152f35b60c036600319011261020a576001600160401b0360043581811161020a57611039903690600401612f27565b602491823581811161020a57611053903690600401612f27565b9160443582811161020a5761106c903690600401612f27565b60643583811161020a57611084903690600401612f27565b60843584811161020a5761109c903690600401612f27565b60a4359185831161020a573660238401121561020a578260040135926110c184613378565b936110cf6040519586612eaf565b8085526020978a8987019260051b8401019236841161020a5790818c8b9998979695949301925b8484106111e9578d8d8b6111748e611165838f8f8f8f61112160018060a01b036001541633146136a2565b604051998a9761113089612e79565b88528588015283604088015260608701526080860152606060a086015260c08501528160405193828580945193849201612c5f565b81016011815203019020613ac4565b601354600160401b811015610b1457806001611193920160135561352c565b610aff57826111a191613ac4565b60165460018101809111610aea577f9c8794a23f33dde2007342c154e928effe9f52147c9bc50bd6c201ef0636cd739350601655610ae560405192828493845283019061338f565b90919280949596979899503583811161020a578b9161120f8f9284933691870101612f27565b815201930191908a9897969594936110f6565b604036600319011261020a576004356001600160401b0380821161020a573660238301121561020a5781600401359061125a82613378565b916112686040519384612eaf565b80835260208084019460249586600594851b8301019136831161020a57878101915b83831061144f5750505050843583811161020a576112ac903690600401612f27565b9260018060a01b039560019687956112c88288541633146136a2565b6000858201995b6113c3575b508697986000975b6112e257005b601354881015610378578761130360026112fc8c9b61352c565b50016135b6565b87815191012083518320146113215761131b90613567565b976112dc565b96979150506000905b61133057005b88518110156103785781611344828b613d44565b51511660005286855261135a6040600020613d58565b85611365838c613d44565b51015160408201526040611379838c613d44565b510151606082015260405186810181811087821117610b3e576040526000815260c08201526113bd91906113b890896113b18a61352c565b5001613df3565b613567565b8761132a565b885181101561144a57611444816113b88b8a6114348f8c908f986113e88c9187613d44565b515116600052838252604061141b8861140383600020613d58565b978561140f8383613d44565b510151848a0152613d44565b5101516060860152604051809381928c51928391612c5f565b8101601181520301902001613df3565b906112cf565b6112d4565b823587811161020a57820160609182602319833603011261020a576040519283018381108a8211176114e257604052818b01356001600160a01b038116810361020a578352604482013589811161020a576114af908c3691850101612f27565b8784015260648201359289841161020a576114d28894938d869536920101612f27565b604082015281520192019161128a565b8b634e487b7160e01b60005260416004526000fd5b608036600319011261020a576001600160401b0360043581811161020a57611523903690600401612f27565b9060243581811161020a5761153c903690600401612f27565b9060443581811161020a57611555903690600401612f27565b9060643590811161020a5761156e903690600401612f27565b916040519361157c85612e27565b3385526020850152604084015260608301526080820152606060a08201523360005260126020526115b1816040600020613e5d565b601454600160401b8110156115f6578060016115d0920160145561333d565b9190916115e05761037891613e5d565b634e487b7160e01b600052600060045260246000fd5b634e487b7160e01b600052604160045260246000fd5b3461020a57602036600319011261020a57600435600f5481101561020a57600690600f6000520260018060a01b03817f8d1108e10bcb7c27dddfc02ed9d693a074039d026cf4ea4240b40f7d581ac8020154166102a37f8d1108e10bcb7c27dddfc02ed9d693a074039d026cf4ea4240b40f7d581ac806604051936116b78561042c817f8d1108e10bcb7c27dddfc02ed9d693a074039d026cf4ea4240b40f7d581ac8038501612d91565b7f8d1108e10bcb7c27dddfc02ed9d693a074039d026cf4ea4240b40f7d581ac804810154611712604051926104a48461049d817f8d1108e10bcb7c27dddfc02ed9d693a074039d026cf4ea4240b40f7d581ac8058501612d91565b604051958695866131a0565b3461020a57602036600319011261020a5760043560005481101561020a5761028861028f6102a39260008052604051928380927f290decd9548b62a8d60345a988386fc84ba6bc95484008f6362f93160ef3e56301612d91565b3461020a57600036600319011261020a576020600c54604051908152f35b3461020a57602036600319011261020a576117af612c49565b6040516117bb81612e79565b6117c3614337565b815260c06060918260208201528260408201528280820152826080820152600060a0820152015260018060a01b031660005260056020526102a361180a6040600020613d58565b604051918291602083526020830190613068565b3461020a57602036600319011261020a57600435600a5481101561020a57600e61087f91600a600052027fc65a7bb8d6351c1cf70c95a316cc6a92839c986682d98bc35f958f4883f9d2b5610868827fc65a7bb8d6351c1cf70c95a316cc6a92839c986682d98bc35f958f4883f9d2a801613217565b3461020a57602036600319011261020a576001600160a01b03806118b6612c49565b16600052600e6020526040600020908154166102a36004604051936118e28561042c8160018501612d91565b6002810154611712604051926104a48461049d8160038501612d91565b3461020a57602036600319011261020a576004356001600160401b03811161020a576020611934611947923690600401612f27565b8160405193828580945193849201612c5f565b81016011815203019020604051611962816102888185612d91565b6102a360046040519361197c8561042c8160018501612d91565b604051611990816102888160028601612d91565b6104bb604051926104a48461049d8160038501612d91565b3461020a57600036600319011261020a57600a546119c581613378565b906119d36040519283612eaf565b8082526020908183019081600a6000527fc65a7bb8d6351c1cf70c95a316cc6a92839c986682d98bc35f958f4883f9d2a86000915b838310611a6f5750505050604051918083019381845251809452604083019360408160051b85010192916000955b828710611a435785850386f35b909192938280611a5f600193603f198a8203018652885161313a565b9601920196019592919092611a36565b600e86600192611a81859a999a61454b565b815201920192019190959495611a08565b3461020a57600036600319011261020a57600654611aaf81613378565b90611abd6040519283612eaf565b80825260209081830160066000527ff652222313e28459528d920b65115c16c04f3efc82aaedc97be59f3f377c0d3f836000925b848410611b0b57604051828152806102a38185018a6130de565b600191601291611b1a85613d58565b8152019201920191908490611af1565b6101a036600319011261020a576004356001600160401b03811161020a57611b56903690600401612f27565b6064356001600160401b03811161020a57611b75903690600401612f27565b906084356001600160401b03811161020a57611b95903690600401612f27565b9160a4356001600160401b03811161020a57611bb5903690600401612f27565b60c4356001600160401b03811161020a57611bd4903690600401612f27565b9060e4356001600160401b03811161020a57611bf4903690600401612f27565b91610104356001600160401b03811161020a57611c15903690600401612f27565b610124356001600160401b03811161020a57611c35903690600401612f27565b90610144356001600160401b03811161020a57611c56903690600401612f27565b92610164356001600160401b03811161020a57611c77903690600401612f27565b946001600160401b03610184351161020a57611c993661018435600401612f27565b33600081815260056020526040902054919b916001600160a01b031614611f895760065460005b818110611e7c575050611cd28b613fc5565b6040519a611cdf8c612e5d565b338c528a60208d015260243560408d015260443560608d015260808c015260a08b015260c08a015260e089015261010088015261012087015261014086015261016085015260405193611d3185612e79565b84526020840152604051611d4481612e94565b600081526040840152604051611d5981612e94565b6000815260608401526080830152600060a0830152606060c0830152336000526005602052611d8c82604060002061394e565b600754600160401b91828210156115f6576001820180600755821015611e6657611ddc9160076000527fa66cc928b5edb82af9bd49922954155ab7b0942694bea4ce44661d9a8736c68801613714565b600654908110156115f657806001611df792016006556134d5565b6115e05781611e059161394e565b60085460018101809111611e50577fbd7813b4659b0614f61b410071fd949aa054d01b83458e9418da207fa0a1526091610ae591600855604051918291602083526020830190613068565b634e487b7160e01b600052601160045260246000fd5b634e487b7160e01b600052603260045260246000fd5b611e85816134d5565b506002015460243514611f1e57611ea060066112fc836134d5565b602081519101208451602086012014611ec157611ebc90613567565b611cc0565b60405162461bcd60e51b815260206004820152602f60248201527f43616e646964617465207769746820676976656e20656d61696c20616c72656160448201526e64792072656769737465726564202160881b6064820152608490fd5b60405162461bcd60e51b815260206004820152603960248201527f43616e646964617465207769746820676976656e20436974697a656e7368697060448201527f204e6f2e20616c726561647920726567697374657265642021000000000000006064820152608490fd5b60405162461bcd60e51b815260206004820152601e60248201527f43616e64696461746520616c72656164792072656769737465726564202100006044820152606490fd5b3461020a57600036600319011261020a57601454611feb81613378565b90611ff96040519283612eaf565b80825260208201908160146000527fce6d7b5282bd9a3661ae061feed1dbda4e52ab073b1f9285be6e155d9c38d4ec6000915b83831061218c5784866040519182916020830190602084525180915260408301906005604082821b86010193926000915b83831061206a5786860387f35b919395509193603f1987820301835285519060018060a01b03908183511681526120b76120a5602085015160c0806020860152840190612c82565b60408501518382036040850152612c82565b906120e46120d16060938487015184820386860152612c82565b6080808701519084830390850152612c82565b9060a08095015194818303910152835190818152602081019260208084891b8401019601946000915b84831061213357505050505050506020806001929701930193019092869594929361205d565b9091929394959660208061217d600193601f19898203018b528b5190878251168152604061216c85840151898785015289840190612c82565b920151906040818403910152612c82565b9901970195949301919061210d565b60405161219881612e27565b82546001600160a01b031681526040516121b9816102888160018801612d91565b60208201526040516121d2816102888160028801612d91565b60408201526040516121eb816102888160038801612d91565b6060820152604051612204816102888160048801612d91565b6080820152600583015461221781613378565b906122256040519283612eaf565b80825260208201600586016000526020600020906000905b83821061226457505050506001928260209260a0600695015281520192019201919061202c565b6003602060019260405161227781612e42565b848060a01b0387541681526040516122958161028881898c01612d91565b838201526040516122ad816102888160028c01612d91565b604082015281520193019101909161223d565b3461020a57602036600319011261020a5760206122db612c49565b6001546040516001600160a01b0392831691909216148152f35b608036600319011261020a576001600160401b0360043581811161020a57612321903690600401612f27565b9060443581811161020a5761233a903690600401612f27565b9060643590811161020a57612353903690600401612f27565b6001549092906001600160a01b031661236d3382146136a2565b6040519361237a85612e27565b8185528260208601526024938435604087015260608601526080850152606060a0850152600052600e6020526123b483604060002061384c565b60105490600160401b9182811015610b145760018101806010558110156124de57906124069160106000527f1b6847dc741a1b0cd08d278845f9d819d87b734759afb55fe2de5cb82a9ae67201613714565b600f54908110156124c9576001810180600f558110156124b45782600661245492600f600052027f8d1108e10bcb7c27dddfc02ed9d693a074039d026cf4ea4240b40f7d581ac8020161384c565b60155490600182018092116124a0577fa9842a716bc2513f613d9faf736ca365fe3689a18ea2c3ef8bb9402c98a060c1610ae58484601555604051918291602083526020830190612ce4565b634e487b7160e01b60009081526011600452fd5b50634e487b7160e01b60009081526032600452fd5b50634e487b7160e01b60009081526041600452fd5b83634e487b7160e01b60005260326004526000fd5b604036600319011261020a57612507612c49565b6024356001600160401b03811161020a57612526903690600401612f27565b9060018060a01b03600154163314612ab75760065460005b818110612a4a5750503360005260096020526003600d60406000200154116129f75760005b6001600160a01b0382166000908152600560205260409020601190810154821015612603578161259891604060002001613325565b905460039190911b1c6001600160a01b031633146125be576125b990613567565b612563565b60405162461bcd60e51b815260206004820152601860248201527f596f75206861766520616c726561647920766f746564202100000000000000006044820152606490fd5b505060018060a01b0381166000526005602052612627336011604060002001613576565b33600052600960205261264181600c604060002001613576565b6001600160a01b038116600090815260056020526040902060100154600181018111611e5057600190818060a01b03831660005260056020520160106040600020015561268f600d54614588565b600d5560005b601354811015612779576126ad60026112fc8361352c565b6020815191012083516020850120146126cf575b6126ca90613567565b612695565b9160005b60056126de8561352c565b500154811015612772578061270261271b9260056126fb8861352c565b5001613510565b50546001600160a01b0385811691161461272057613567565b6126d3565b61273d6127328260056126fb8961352c565b506011339101613576565b61275960106127518360056126fb8a61352c565b500154614588565b601061276a8360056126fb8a61352c565b500155613567565b50916126c1565b5060005b6006548110156127be57806127946127ad926134d5565b50546001600160a01b038481169116146127b257613567565b61277d565b6113b8612732826134d5565b5060005b600a5481101561280a57806127d96127ef926131dc565b50546001600160a01b031633146127f457613567565b6127c2565b6113b883600c612803846131dc565b5001613576565b50336000526009602052612825600d60406000200154614588565b336000526009602052600d6040600020015560018060a01b031660005260056020527f8290914339d7365303a413cd92c24712459932b4210891839d929fafd3dd37bf610ae560406000206040519182916020835260e0602084015260018060a01b0381541661010084015260116129806101808061012087015261296c61295861294461293061291c6129086128f48a8d61016060036128cd610280840160018601612d91565b93600281015461014085015201549101528d60ff19998a8284030191015260048c01612d91565b8c810388016101a08e015260058b01612d91565b868c8203016101c08d015260068a01612d91565b858b8203016101e08c015260078901612d91565b848a8203016102008b015260088801612d91565b83898203016102208a015260098701612d91565b8288820301610240890152600a8601612d91565b9086820301610260870152600b8401612d91565b916129dd6129ca6129b76129a4601f1996878a82030160408b0152600c8601612d91565b868982030160608a0152600d8501612d91565b85888203016080890152600e8401612d91565b848782030160a0880152600f8301612d91565b92601082015460c08701528584030160e08601520161365c565b60405162461bcd60e51b815260206004820152602560248201527f596f752068617665206578636565642074686520766f7465206361737465206c60448201526434b6b4ba1760d91b6064820152608490fd5b612a53816134d5565b50546001600160a01b03163314612a7257612a6d90613567565b61253e565b60405162461bcd60e51b815260206004820152601f60248201527f43616e64696461746520697320726573747269637420746f20766f74652021006044820152606490fd5b60405162461bcd60e51b815260206004820152601b60248201527f41646d696e20697320726573747269637420746f20766f7465202100000000006044820152606490fd5b3461020a57600036600319011261020a576020600854604051908152f35b3461020a57600036600319011261020a576020600454604051908152f35b3461020a57600036600319011261020a576020600254604051908152f35b3461020a57602036600319011261020a576001600160a01b0380612b78612c49565b1660005260126020526040600020908154166102a3600460405193612ba48561042c8160018501612d91565b604051612bb8816102888160028601612d91565b610cad604051926104a48461049d8160038501612d91565b3461020a57602036600319011261020a57606060a0612bed612c49565b92612bf781612e27565b60008152826020820152600060408201528280820152826080820152015260018060a01b0316600052600e6020526102a3612c356040600020614393565b604051918291602083526020830190612ce4565b600435906001600160a01b038216820361020a57565b60005b838110612c725750506000910152565b8181015183820152602001612c62565b90602091612c9b81518092818552858086019101612c5f565b601f01601f1916010190565b90815180825260208080930193019160005b828110612cc7575050505090565b83516001600160a01b031685529381019392810192600101612cb9565b612d549160018060a01b03825116815260a0612d43612d31612d15602086015160c0602087015260c0860190612c82565b6040860151604086015260608601518582036060870152612c82565b60808501518482036080860152612c82565b9201519060a0818403910152612ca7565b90565b90600182811c92168015612d87575b6020831014612d7157565b634e487b7160e01b600052602260045260246000fd5b91607f1691612d66565b9060009291805491612da283612d57565b918282526001938481169081600014612e045750600114612dc4575b50505050565b90919394506000526020928360002092846000945b838610612df0575050505001019038808080612dbe565b805485870183015294019385908201612dd9565b9294505050602093945060ff191683830152151560051b01019038808080612dbe565b60c081019081106001600160401b038211176115f657604052565b606081019081106001600160401b038211176115f657604052565b61018081019081106001600160401b038211176115f657604052565b60e081019081106001600160401b038211176115f657604052565b602081019081106001600160401b038211176115f657604052565b90601f801991011681019081106001600160401b038211176115f657604052565b9390612d549593612efd612f1994612f0b9360018060a01b0316885260a0602089015260a0880190612c82565b908682036040880152612c82565b908482036060860152612c82565b916080818403910152612c82565b81601f8201121561020a578035906001600160401b0382116115f65760405192612f5b601f8401601f191660200185612eaf565b8284526020838301011161020a57816000926020809301838601378301015290565b90612d549160018060a01b03815116825261305461304061302c613018613006612ff4612fe2612fbc60208901516101808060208d01528b0190612c82565b604089015160408b0152606089015160608b015260808901518a820360808c0152612c82565b60a088015189820360a08b0152612c82565b60c087015188820360c08a0152612c82565b60e086015187820360e0890152612c82565b610100808601519087830390880152612c82565b610120808501519086830390870152612c82565b610140808401519085830390860152612c82565b916101608092015191818403910152612c82565b612d549160c06130c3612d316130b161309f61308d875160e0885260e0880190612f7d565b60208801518782036020890152612c82565b60408701518682036040880152612c82565b60608601518582036060870152612c82565b9260a081015160a084015201519060c0818403910152612ca7565b908082519081815260208091019281808460051b8301019501936000915b84831061310c5750505050505090565b909192939495848061312a600193601f198682030187528a51613068565b98019301930191949392906130fc565b906040806131666131548551606086526060860190612f7d565b60208601518582036020870152612ca7565b93015191015290565b9390612d549593612efd612f1994613192612f0b9460a08a5260a08a0190612c82565b9088820360208a0152612c82565b936131c9612f1993612d5497959360018060a01b0316875260a0602088015260a0870190612c82565b9160408601528482036060860152612c82565b600a54811015611e6657600e90600a600052027fc65a7bb8d6351c1cf70c95a316cc6a92839c986682d98bc35f958f4883f9d2a80190600090565b90600b61016060409361332185519161322f83612e5d565b6104b4839760018060a01b0383541685528051613253816102888160018801612d91565b602086015260028301548186015260038301546060860152805161327e816102888160048801612d91565b60808601528051613296816102888160058801612d91565b60a086015280516132ae816102888160068801612d91565b60c086015280516132c6816102888160078801612d91565b60e086015280516132de816102888160088801612d91565b61010086015280516132f7816102888160098801612d91565b61012086015280516133108161028881600a8801612d91565b610140860152518096819301612d91565b0152565b8054821015611e665760005260206000200190600090565b601454811015611e66576006906014600052027fce6d7b5282bd9a3661ae061feed1dbda4e52ab073b1f9285be6e155d9c38d4ec0190600090565b6001600160401b0381116115f65760051b60200190565b6133a2815160e0845260e0840190612c82565b60c061340e6133fc6133ea6133d86133c6602096878901518a8203898c0152612c82565b604088015189820360408b0152612c82565b606087015188820360608a0152612c82565b60808601518782036080890152612c82565b60a085015186820360a08801526130de565b9201519260c08184039101528251908183528083019281808460051b8301019501936000915b8483106134445750505050505090565b9091929394958480613462600193601f198682030187528a51612c82565b9801930193019194939290613434565b96959491936134b46134d0946134a660a0976134986134c29660c08e8181520190612f7d565b8c810360208e015290612c82565b908a820360408c0152612c82565b9088820360608a0152612c82565b908682036080880152612c82565b930152565b600654811015611e66576012906006600052027ff652222313e28459528d920b65115c16c04f3efc82aaedc97be59f3f377c0d3f0190600090565b8054821015611e66576000526012602060002091020190600090565b601354811015611e66576007906013600052027f66de8ffda797e3de9c05e8fc57b3bf0ec28a930d40b0d285d93c06501cf6a0900190600090565b6000198114611e505760010190565b8054600160401b8110156115f65761359391600182018155613325565b819291549060031b9160018060a01b039283811b93849216901b16911916179055565b90604051918260008254926135ca84612d57565b90818452600194858116908160001461363957506001146135f6575b50506135f492500383612eaf565b565b9093915060005260209081600020936000915b8183106136215750506135f4935082010138806135e6565b85548884018501529485019487945091830191613609565b9150506135f494506020925060ff191682840152151560051b82010138806135e6565b90815480825260208092019260005281600020916000905b828210613682575050505090565b83546001600160a01b031685529384019360019384019390910190613674565b156136a957565b60405162461bcd60e51b815260206004820152602660248201527f4f6e6c792061646d696e2063616e20696e766f6b6520746869732066756e6374604482015265696f6e73202160d01b6064820152608490fd5b818110613708575050565b600081556001016136fd565b91909182516001600160401b0381116115f6576137318254612d57565b601f81116137db575b50602080601f831160011461377757508192939460009261376c575b50508160011b916000199060031b1c1916179055565b015190503880613756565b90601f198316958460005282600020926000905b8882106137c3575050836001959697106137aa575b505050811b019055565b015160001960f88460031b161c191690553880806137a0565b8060018596829496860151815501950193019061378b565b61380890836000526020600020601f840160051c8101916020851061380e575b601f0160051c01906136fd565b3861373a565b90915081906137fb565b90600160401b81116115f65781549080835581811061383657505050565b6135f492600052602060002091820191016136fd565b9060018060a01b0390818151166001600160601b0360a01b84541617835560209160a060058484015195613884600197888301613714565b6040850151600282015561389f606086015160038301613714565b6138b0608086015160048301613714565b01920151928351936001600160401b0385116115f65781906138d28686613818565b0192600052806000209160005b8581106138ef5750505050505050565b84518216848201559382019386016138df565b61390c8154612d57565b9081613916575050565b81601f60009311600114613928575055565b8183526020832061394491601f0160051c8101906001016136fd565b8160208120915555565b81519160018060a01b03808451166001600160601b0360a01b84541617835560c06011602094613a25610160878901519861398d60019a8b8601613714565b60408101516002850155606081015160038501556139b2608082015160048601613714565b6139c360a082015160058601613714565b6139d38682015160068601613714565b6139e460e082015160078601613714565b6139f661010082015160088601613714565b613a0861012082015160098601613714565b613a1a610140820151600a8601613714565b0151600b8301613714565b613a3586860151600c8301613714565b613a466040860151600d8301613714565b613a576060860151600e8301613714565b613a686080860151600f8301613714565b60a0850151601082015501920151928351936001600160401b0385116115f6578190613a948686613818565b0192600052806000209160005b858110613ab15750505050505050565b8451821684820155938201938601613aa1565b613acf825182613714565b613ae0602083015160018301613714565b604082015190613af4600292838301613714565b606083015191613b08600393848401613714565b613b19608085015160048401613714565b60a084015190815193600160401b85116115f657600584015491856005860155828610613c1d575b505050602001916000926005830184526020842084915b838310613bff5750505050600660c0910192015191825192600160401b8411613beb578154848355808510613bbe575b50908252602080832091015b838310613ba15750505050565b6001602082613bb283945186613714565b01920192019190613b94565b828452846020852091820191015b818110613bd95750613b88565b80613be5600192613902565b01613bcc565b634e487b7160e01b83526041600452602483fd5b6012602082613c11600194518661394e565b01920192019190613b58565b82601202926012840403611e50578560120292601284048703611e50576005860160005260206000209384015b8185018110613c5a575050613b41565b80600060129255613c6d60018201613902565b600084820155600085820155613c8560048201613902565b613c9160058201613902565b613c9d60068201613902565b613ca960078201613902565b613cb560088201613902565b613cc160098201613902565b613ccd600a8201613902565b613cd9600b8201613902565b613ce5600c8201613902565b613cf1600d8201613902565b613cfd600e8201613902565b613d09600f8201613902565b600060108201556011810180546000825580613d28575b505001613c4a565b613d3d916000526020600020908101906136fd565b3880613d20565b8051821015611e665760209160051b010190565b90601160c0604093613321855191613d6f83612e79565b6104b48397613d7d83613217565b85528051613d928161028881600c8801612d91565b60208601528051613daa8161028881600d8801612d91565b818601528051613dc18161028881600e8801612d91565b60608601528051613dd98161028881600f8801612d91565b6080860152601083015460a086015251809681930161365c565b8054600160401b8110156115f657613e1091600182018155613510565b9190916115e0576135f49161394e565b600260406135f49360018060a01b038151166001600160601b0360a01b855416178455613e54602082015160018601613714565b01519101613714565b60018060a01b038251166001600160601b0360a01b8254161781556020908183015192613e8e600194858401613714565b604081015192613ea2600294858501613714565b60a06005606084015194613eba600396878301613714565b613ecb608086015160048301613714565b0192015193845194600160401b86116115f65783548685558392818810613f27575b50500191600052806000206000925b858410613f0c5750505050505050565b848382613f1b8a945186613e20565b01920193019290613efc565b908092935086029186830403611e50578686028681048803611e50576000868152858120869594810193928991015b848110613f6557505050613eed565b90918093949596508155613f7a8b8201613902565b613f85848201613902565b0190878695949392613f56565b908154600160401b8110156115f65760018101808455811015611e66576135f49260005260036020600020910201613e20565b805190602091828201908120906000928354928315614323579085929185805260405186907f290decd9548b62a8d60345a988386fc84ba6bc95484008f6362f93160ef3e5638181549361401885612d57565b928383528983019560019d8e821691826000146143055750506001146142aa575b5061404692500382612eaf565b5190200361407957505050506002549182018092116140655750600255565b634e487b7160e01b81526011600452602490fd5b8051822084871015614296578580528660405187817f290decd9548b62a8d60345a988386fc84ba6bc95484008f6362f93160ef3e564918254926140bc84612d57565b938484528a808501978216918260001461427857505060011461421d575b506140e792500382612eaf565b5190200361410657505050506003549182018092116140655750600355565b5190209160021015614209578280526040518391817f290decd9548b62a8d60345a988386fc84ba6bc95484008f6362f93160ef3e5659384549461414986612d57565b90818452848401968a811690816000146141eb5750600114614193575b505061417492500382612eaf565b51902014614180575050565b6004549182018092116140655750600455565b8852879150887f63d75db57ae45c3799740c3cd8dcee96a498324843d79ae390adc81d74b52f135b8284106141d45750505091614174928201013880614166565b8054878501870152869450928501928a91016141bb565b91505061417494925060ff19168652151560051b8201013880614166565b634e487b7160e01b83526032600452602483fd5b8b5250829050878a8c7f6c13d8c1c5df666ea9ca2a428504a3776c8ca01021c3a1524ca7d765f600979a5b85831061425f5750506140e79350820101386140da565b80919294505483858801015201910188908c8593614248565b60ff191688526140e795151560051b85010192503891506140da9050565b634e487b7160e01b86526032600452602486fd5b8b5250829050878a8c7f510e4e770828ddbf7f7b00ab00a9f6adaf81c0dc9cc85f1f8249c256942d61d95b8583106142ec575050614046935082010138614039565b80919294505483858801015201910188908c85936142d5565b60ff1916885261404695151560051b85010192503891506140399050565b634e487b7160e01b85526032600452602485fd5b6040519061434482612e5d565b8160008152610160606091826020820152600060408201526000838201528260808201528260a08201528260c08201528260e08201528261010082015282610120820152826101408201520152565b90600560a06040936133218551916143aa83612e27565b6104b48397600180871b03835416855280516143cd816102888160018801612d91565b602086015260028301548186015280516143ee816102888160038801612d91565b60608601528051614406816102888160048801612d91565b608086015251809681930161365c565b90805160018060a01b03808251166001600160601b0360a01b8554161784556020906144ea6101608385015194614451600196878a01613714565b6040810151600289015560608101516003890155614476608082015160048a01613714565b61448760a082015160058a01613714565b61449860c082015160068a01613714565b6144a960e082015160078a01613714565b6144bb61010082015160088a01613714565b6144cd61012082015160098a01613714565b6144df610140820151600a8a01613714565b0151600b8701613714565b600c85019082850151928351936001600160401b0385116115f65781906145118686613818565b0192600052806000209160005b85811061453857505050505050506040600d910151910155565b845182168482015593820193860161451e565b9060405161455881612e42565b6040600d829461456781613217565b8452825161457c8161028881600c860161365c565b60208501520154910152565b9060018201809211611e505756fea26469706673582212201c4f6e26f3278511ea43648cc1c9b02ddefb8bbbd43c56fd4b548f47bc8ba42364736f6c63430008110033",
			"opcodes": "PUSH1 0x80 CALLVALUE PUSH3 0x2A8 JUMPI PUSH1 0x1 PUSH1 0x1 PUSH1 0x40 SHL SUB PUSH1 0x60 DUP3 ADD DUP2 DUP2 GT DUP4 DUP3 LT OR PUSH3 0x292 JUMPI PUSH1 0x40 MSTORE PUSH3 0x2C PUSH3 0x2AD JUMP JUMPDEST PUSH1 0x4 SWAP1 DUP2 DUP2 MSTORE PUSH1 0x20 SWAP1 PUSH4 0x4D414C45 PUSH1 0xE0 SHL DUP3 DUP3 ADD MSTORE DUP5 MSTORE PUSH3 0x4D PUSH3 0x2AD JUMP JUMPDEST PUSH1 0x6 DUP2 MSTORE PUSH6 0x46454D414C45 PUSH1 0xD0 SHL DUP3 DUP3 ADD MSTORE DUP2 DUP6 ADD MSTORE PUSH3 0x6D PUSH3 0x2AD JUMP JUMPDEST PUSH1 0x6 DUP2 MSTORE PUSH6 0x4F5448455253 PUSH1 0xD0 SHL DUP3 DUP3 ADD MSTORE PUSH1 0x40 DUP6 ADD MSTORE PUSH1 0x0 SWAP3 DUP4 SLOAD SWAP5 PUSH1 0x3 SWAP6 DUP7 DUP7 SSTORE DUP1 DUP8 LT PUSH3 0x215 JUMPI JUMPDEST POP DUP5 DUP1 MSTORE DUP3 DUP6 KECCAK256 DUP6 SWAP2 JUMPDEST DUP8 DUP4 LT PUSH3 0xEA JUMPI DUP7 DUP1 DUP8 DUP2 DUP12 DUP2 PUSH1 0x2 SSTORE SSTORE SSTORE CALLER PUSH1 0x1 DUP1 PUSH1 0xA0 SHL SUB NOT PUSH1 0x1 SLOAD AND OR PUSH1 0x1 SSTORE DUP1 PUSH1 0x8 SSTORE DUP1 PUSH1 0xC SSTORE DUP1 PUSH1 0xD SSTORE DUP1 PUSH1 0x15 SSTORE PUSH1 0x16 SSTORE PUSH1 0x40 MLOAD PUSH2 0x45CC SWAP1 DUP2 PUSH3 0x324 DUP3 CODECOPY RETURN JUMPDEST DUP1 MLOAD DUP1 MLOAD SWAP1 DUP6 DUP3 GT PUSH3 0x202 JUMPI SWAP1 DUP7 SWAP2 PUSH3 0x106 DUP6 SLOAD PUSH3 0x2CD JUMP JUMPDEST SWAP1 PUSH1 0x1F SWAP2 DUP3 DUP2 GT PUSH3 0x1C7 JUMPI JUMPDEST POP DUP4 SWAP2 DUP4 GT PUSH1 0x1 EQ PUSH3 0x15C JUMPI SWAP2 DUP1 PUSH1 0x1 SWAP6 SWAP3 DUP7 SWAP6 SWAP5 DUP14 SWAP3 PUSH3 0x150 JUMPI JUMPDEST POP POP PUSH1 0x0 NOT DUP3 DUP15 SHL SHR NOT AND SWAP1 DUP5 SHL OR DUP6 SSTORE JUMPDEST ADD SWAP3 ADD SWAP3 ADD SWAP2 SWAP1 PUSH3 0xA3 JUMP JUMPDEST ADD MLOAD SWAP1 POP CODESIZE DUP1 PUSH3 0x131 JUMP JUMPDEST DUP6 DUP12 MSTORE DUP4 DUP12 KECCAK256 SWAP2 SWAP1 PUSH1 0x1F NOT DUP5 AND DUP13 JUMPDEST DUP2 DUP2 LT PUSH3 0x1AE JUMPI POP SWAP2 PUSH1 0x1 SWAP7 SWAP4 SWAP2 DUP6 DUP9 SWAP8 SWAP7 SWAP5 LT PUSH3 0x195 JUMPI JUMPDEST POP POP POP DUP4 SHL DUP4 ADD DUP6 SSTORE PUSH3 0x143 JUMP JUMPDEST ADD MLOAD PUSH1 0x0 NOT DUP4 DUP16 SHL PUSH1 0xF8 AND SHR NOT AND SWAP1 SSTORE CODESIZE DUP1 DUP1 PUSH3 0x186 JUMP JUMPDEST DUP3 DUP5 ADD MLOAD DUP6 SSTORE DUP12 SWAP7 PUSH1 0x1 SWAP1 SWAP6 ADD SWAP5 SWAP4 DUP5 ADD SWAP4 ADD PUSH3 0x16B JUMP JUMPDEST PUSH3 0x1F1 SWAP1 DUP8 DUP14 MSTORE DUP6 DUP14 KECCAK256 PUSH1 0x5 DUP6 DUP1 DUP9 ADD DUP3 SHR DUP4 ADD SWAP4 DUP10 DUP10 LT PUSH3 0x1F8 JUMPI JUMPDEST ADD SWAP1 SHR ADD SWAP1 PUSH3 0x30A JUMP JUMPDEST CODESIZE PUSH3 0x113 JUMP JUMPDEST SWAP4 POP DUP3 SWAP4 PUSH3 0x1E6 JUMP JUMPDEST PUSH4 0x4E487B71 PUSH1 0xE0 SHL DUP10 MSTORE PUSH1 0x41 DUP9 MSTORE PUSH1 0x24 DUP10 REVERT JUMPDEST DUP6 DUP1 MSTORE DUP7 DUP5 DUP8 KECCAK256 SWAP2 DUP3 ADD SWAP2 ADD JUMPDEST DUP2 DUP2 LT PUSH3 0x231 JUMPI POP PUSH3 0x99 JUMP JUMPDEST DUP1 PUSH3 0x240 PUSH1 0x1 SWAP3 SLOAD PUSH3 0x2CD JUMP JUMPDEST DUP1 PUSH3 0x24F JUMPI JUMPDEST POP ADD PUSH3 0x222 JUMP JUMPDEST PUSH1 0x1F SWAP1 DUP2 DUP2 GT DUP5 EQ PUSH3 0x269 JUMPI POP POP DUP8 DUP2 SSTORE JUMPDEST CODESIZE PUSH3 0x247 JUMP JUMPDEST DUP4 PUSH3 0x284 SWAP3 DUP5 DUP13 MSTORE DUP10 DUP13 KECCAK256 SWAP3 ADD PUSH1 0x5 SHR DUP3 ADD SWAP2 ADD PUSH3 0x30A JUMP JUMPDEST DUP8 DUP7 DUP2 KECCAK256 DUP2 DUP4 SSTORE SSTORE PUSH3 0x262 JUMP JUMPDEST PUSH4 0x4E487B71 PUSH1 0xE0 SHL PUSH1 0x0 MSTORE PUSH1 0x41 PUSH1 0x4 MSTORE PUSH1 0x24 PUSH1 0x0 REVERT JUMPDEST PUSH1 0x0 DUP1 REVERT JUMPDEST PUSH1 0x40 DUP1 MLOAD SWAP2 SWAP1 DUP3 ADD PUSH1 0x1 PUSH1 0x1 PUSH1 0x40 SHL SUB DUP2 GT DUP4 DUP3 LT OR PUSH3 0x292 JUMPI PUSH1 0x40 MSTORE JUMP JUMPDEST SWAP1 PUSH1 0x1 DUP3 DUP2 SHR SWAP3 AND DUP1 ISZERO PUSH3 0x2FF JUMPI JUMPDEST PUSH1 0x20 DUP4 LT EQ PUSH3 0x2E9 JUMPI JUMP JUMPDEST PUSH4 0x4E487B71 PUSH1 0xE0 SHL PUSH1 0x0 MSTORE PUSH1 0x22 PUSH1 0x4 MSTORE PUSH1 0x24 PUSH1 0x0 REVERT JUMPDEST SWAP2 PUSH1 0x7F AND SWAP2 PUSH3 0x2DD JUMP JUMPDEST DUP2 DUP2 LT PUSH3 0x316 JUMPI POP POP JUMP JUMPDEST PUSH1 0x0 DUP2 SSTORE PUSH1 0x1 ADD PUSH3 0x30A JUMP INVALID PUSH1 0x80 DUP1 PUSH1 0x40 MSTORE PUSH1 0x4 CALLDATASIZE LT ISZERO PUSH2 0x13 JUMPI PUSH1 0x0 DUP1 REVERT JUMPDEST PUSH1 0x0 CALLDATALOAD PUSH1 0xE0 SHR SWAP1 DUP2 PUSH3 0xDA7228 EQ PUSH2 0x2BD0 JUMPI POP DUP1 PUSH4 0x273D66E EQ PUSH2 0x2B56 JUMPI DUP1 PUSH4 0x29C21BD EQ PUSH2 0x2B38 JUMPI DUP1 PUSH4 0x983F185 EQ PUSH2 0x2B1A JUMPI DUP1 PUSH4 0x1812DAB4 EQ PUSH2 0x2AFC JUMPI DUP1 PUSH4 0x1BF533A4 EQ PUSH2 0x24F3 JUMPI DUP1 PUSH4 0x1D50384B EQ PUSH2 0x22F5 JUMPI DUP1 PUSH4 0x24D7806C EQ PUSH2 0x22C0 JUMPI DUP1 PUSH4 0x2526E05D EQ PUSH2 0x1FCE JUMPI DUP1 PUSH4 0x2D23C735 EQ PUSH2 0x1B2A JUMPI DUP1 PUSH4 0x2E6997FE EQ PUSH2 0x1A92 JUMPI DUP1 PUSH4 0x35BBE70E EQ PUSH2 0x19A8 JUMPI DUP1 PUSH4 0x4A3CCC96 EQ PUSH2 0x18FF JUMPI DUP1 PUSH4 0x4F235207 EQ PUSH2 0x1894 JUMPI DUP1 PUSH4 0x50E2E8AF EQ PUSH2 0x181E JUMPI DUP1 PUSH4 0x53AC5DC3 EQ PUSH2 0x1796 JUMPI DUP1 PUSH4 0x6332ABC9 EQ PUSH2 0x1778 JUMPI DUP1 PUSH4 0x6394A8FA EQ PUSH2 0x171E JUMPI DUP1 PUSH4 0x640E79B7 EQ PUSH2 0x160C JUMPI DUP1 PUSH4 0x69D2BCA1 EQ PUSH2 0x14F7 JUMPI DUP1 PUSH4 0x6C9ABCCB EQ PUSH2 0x1222 JUMPI DUP1 PUSH4 0x71C693EB EQ PUSH2 0x100D JUMPI DUP1 PUSH4 0x7C054C54 EQ PUSH2 0xFEF JUMPI DUP1 PUSH4 0x7FD5F268 EQ PUSH2 0xDC2 JUMPI DUP1 PUSH4 0x8287E42F EQ PUSH2 0xD67 JUMPI DUP1 PUSH4 0x8AB66A90 EQ PUSH2 0xCD7 JUMPI DUP1 PUSH4 0x8D0371FF EQ PUSH2 0xCB9 JUMPI DUP1 PUSH4 0x9682F9B3 EQ PUSH2 0xB98 JUMPI DUP1 PUSH4 0x9EDA74CF EQ PUSH2 0x889 JUMPI DUP1 PUSH4 0xA3EC138D EQ PUSH2 0x82B JUMPI DUP1 PUSH4 0xA96278AE EQ PUSH2 0x7D0 JUMPI DUP1 PUSH4 0xB0A4EC42 EQ PUSH2 0x798 JUMPI DUP1 PUSH4 0xB13C744B EQ PUSH2 0x63E JUMPI DUP1 PUSH4 0xB867BFCC EQ PUSH2 0x554 JUMPI DUP1 PUSH4 0xBA71BEF0 EQ PUSH2 0x4E5 JUMPI DUP1 PUSH4 0xC6384071 EQ PUSH2 0x4C7 JUMPI DUP1 PUSH4 0xDEFB908F EQ PUSH2 0x37A JUMPI DUP1 PUSH4 0xE9AF3FC0 EQ PUSH2 0x2A7 JUMPI DUP1 PUSH4 0xF3845166 EQ PUSH2 0x22D JUMPI DUP1 PUSH4 0xF7C4C25A EQ PUSH2 0x20F JUMPI PUSH4 0xFC6F9468 EQ PUSH2 0x1E1 JUMPI PUSH1 0x0 DUP1 REVERT JUMPDEST CALLVALUE PUSH2 0x20A JUMPI PUSH1 0x0 CALLDATASIZE PUSH1 0x3 NOT ADD SLT PUSH2 0x20A JUMPI PUSH1 0x1 SLOAD PUSH1 0x40 MLOAD PUSH1 0x1 PUSH1 0x1 PUSH1 0xA0 SHL SUB SWAP1 SWAP2 AND DUP2 MSTORE PUSH1 0x20 SWAP1 RETURN JUMPDEST PUSH1 0x0 DUP1 REVERT JUMPDEST CALLVALUE PUSH2 0x20A JUMPI PUSH1 0x0 CALLDATASIZE PUSH1 0x3 NOT ADD SLT PUSH2 0x20A JUMPI PUSH1 0x20 PUSH1 0x15 SLOAD PUSH1 0x40 MLOAD SWAP1 DUP2 MSTORE RETURN JUMPDEST CALLVALUE PUSH2 0x20A JUMPI PUSH1 0x20 CALLDATASIZE PUSH1 0x3 NOT ADD SLT PUSH2 0x20A JUMPI PUSH1 0x4 CALLDATALOAD PUSH1 0x10 SLOAD DUP2 LT ISZERO PUSH2 0x20A JUMPI PUSH2 0x288 PUSH2 0x28F PUSH2 0x2A3 SWAP3 PUSH1 0x10 PUSH1 0x0 MSTORE PUSH1 0x40 MLOAD SWAP3 DUP4 DUP1 SWAP3 PUSH32 0x1B6847DC741A1B0CD08D278845F9D819D87B734759AFB55FE2DE5CB82A9AE672 ADD PUSH2 0x2D91 JUMP JUMPDEST SUB DUP3 PUSH2 0x2EAF JUMP JUMPDEST PUSH1 0x40 MLOAD SWAP2 DUP3 SWAP2 PUSH1 0x20 DUP4 MSTORE PUSH1 0x20 DUP4 ADD SWAP1 PUSH2 0x2C82 JUMP JUMPDEST SUB SWAP1 RETURN JUMPDEST PUSH1 0x60 CALLDATASIZE PUSH1 0x3 NOT ADD SLT PUSH2 0x20A JUMPI PUSH2 0x2BB PUSH2 0x2C49 JUMP JUMPDEST PUSH1 0x1 PUSH1 0x1 PUSH1 0x40 SHL SUB PUSH1 0x24 CALLDATALOAD DUP2 DUP2 GT PUSH2 0x20A JUMPI PUSH2 0x2DB SWAP1 CALLDATASIZE SWAP1 PUSH1 0x4 ADD PUSH2 0x2F27 JUMP JUMPDEST SWAP1 PUSH1 0x44 CALLDATALOAD SWAP1 DUP2 GT PUSH2 0x20A JUMPI PUSH2 0x2F4 SWAP1 CALLDATASIZE SWAP1 PUSH1 0x4 ADD PUSH2 0x2F27 JUMP JUMPDEST PUSH1 0x40 MLOAD SWAP2 PUSH2 0x301 DUP4 PUSH2 0x2E42 JUMP JUMPDEST CALLER DUP4 MSTORE PUSH1 0x20 DUP4 ADD MSTORE PUSH1 0x40 DUP3 ADD MSTORE PUSH1 0x1 DUP1 PUSH1 0xA0 SHL SUB DUP1 SWAP3 AND DUP1 PUSH1 0x0 MSTORE PUSH1 0x12 PUSH1 0x20 MSTORE PUSH1 0x5 SWAP1 PUSH2 0x334 DUP4 DUP4 PUSH1 0x40 PUSH1 0x0 KECCAK256 ADD PUSH2 0x3F92 JUMP JUMPDEST PUSH1 0x0 JUMPDEST PUSH1 0x14 SLOAD DUP2 LT ISZERO PUSH2 0x378 JUMPI DUP2 DUP6 PUSH2 0x34C DUP4 PUSH2 0x333D JUMP JUMPDEST POP SLOAD AND EQ PUSH2 0x362 JUMPI PUSH2 0x35D SWAP1 PUSH2 0x3567 JUMP JUMPDEST PUSH2 0x337 JUMP JUMPDEST PUSH2 0x378 SWAP5 POP PUSH2 0x371 SWAP2 POP PUSH2 0x333D JUMP JUMPDEST POP ADD PUSH2 0x3F92 JUMP JUMPDEST STOP JUMPDEST CALLVALUE PUSH2 0x20A JUMPI PUSH1 0x20 CALLDATASIZE PUSH1 0x3 NOT ADD SLT PUSH2 0x20A JUMPI PUSH1 0x4 CALLDATALOAD PUSH1 0x13 SLOAD DUP2 LT ISZERO PUSH2 0x20A JUMPI PUSH1 0x7 SWAP1 PUSH1 0x13 PUSH1 0x0 MSTORE MUL PUSH1 0x40 MLOAD PUSH2 0x3D4 DUP2 PUSH2 0x288 DUP2 DUP6 PUSH32 0x66DE8FFDA797E3DE9C05E8FC57B3BF0EC28A930D40B0D285D93C06501CF6A090 ADD PUSH2 0x2D91 JUMP JUMPDEST PUSH2 0x2A3 PUSH32 0x66DE8FFDA797E3DE9C05E8FC57B3BF0EC28A930D40B0D285D93C06501CF6A094 PUSH1 0x40 MLOAD SWAP4 PUSH2 0x433 DUP6 PUSH2 0x42C DUP2 PUSH32 0x66DE8FFDA797E3DE9C05E8FC57B3BF0EC28A930D40B0D285D93C06501CF6A091 DUP6 ADD PUSH2 0x2D91 JUMP JUMPDEST SUB DUP7 PUSH2 0x2EAF JUMP JUMPDEST PUSH1 0x40 MLOAD PUSH2 0x466 DUP2 PUSH2 0x288 DUP2 PUSH32 0x66DE8FFDA797E3DE9C05E8FC57B3BF0EC28A930D40B0D285D93C06501CF6A092 DUP7 ADD PUSH2 0x2D91 JUMP JUMPDEST PUSH2 0x4BB PUSH1 0x40 MLOAD SWAP3 PUSH2 0x4A4 DUP5 PUSH2 0x49D DUP2 PUSH32 0x66DE8FFDA797E3DE9C05E8FC57B3BF0EC28A930D40B0D285D93C06501CF6A093 DUP6 ADD PUSH2 0x2D91 JUMP JUMPDEST SUB DUP6 PUSH2 0x2EAF JUMP JUMPDEST PUSH2 0x4B4 PUSH1 0x40 MLOAD DUP1 SWAP7 DUP2 SWAP4 ADD PUSH2 0x2D91 JUMP JUMPDEST SUB DUP5 PUSH2 0x2EAF JUMP JUMPDEST PUSH1 0x40 MLOAD SWAP6 DUP7 SWAP6 DUP7 PUSH2 0x316F JUMP JUMPDEST CALLVALUE PUSH2 0x20A JUMPI PUSH1 0x0 CALLDATASIZE PUSH1 0x3 NOT ADD SLT PUSH2 0x20A JUMPI PUSH1 0x20 PUSH1 0xD SLOAD PUSH1 0x40 MLOAD SWAP1 DUP2 MSTORE RETURN JUMPDEST CALLVALUE PUSH2 0x20A JUMPI PUSH1 0x20 CALLDATASIZE PUSH1 0x3 NOT ADD SLT PUSH2 0x20A JUMPI PUSH2 0x4FE PUSH2 0x2C49 JUMP JUMPDEST PUSH1 0x0 PUSH1 0x40 DUP1 MLOAD PUSH2 0x50D DUP2 PUSH2 0x2E42 JUMP JUMPDEST PUSH2 0x515 PUSH2 0x4337 JUMP JUMPDEST DUP2 MSTORE PUSH1 0x60 PUSH1 0x20 DUP3 ADD MSTORE ADD MSTORE PUSH1 0x1 DUP1 PUSH1 0xA0 SHL SUB AND PUSH1 0x0 MSTORE PUSH1 0x9 PUSH1 0x20 MSTORE PUSH2 0x2A3 PUSH2 0x540 PUSH1 0x40 PUSH1 0x0 KECCAK256 PUSH2 0x454B JUMP JUMPDEST PUSH1 0x40 MLOAD SWAP2 DUP3 SWAP2 PUSH1 0x20 DUP4 MSTORE PUSH1 0x20 DUP4 ADD SWAP1 PUSH2 0x313A JUMP JUMPDEST CALLVALUE PUSH2 0x20A JUMPI PUSH1 0x0 CALLDATASIZE PUSH1 0x3 NOT ADD SLT PUSH2 0x20A JUMPI PUSH1 0xF SLOAD PUSH2 0x571 DUP2 PUSH2 0x3378 JUMP JUMPDEST SWAP1 PUSH2 0x57F PUSH1 0x40 MLOAD SWAP3 DUP4 PUSH2 0x2EAF JUMP JUMPDEST DUP1 DUP3 MSTORE PUSH1 0x20 SWAP1 DUP2 DUP4 ADD SWAP1 DUP2 PUSH1 0xF PUSH1 0x0 MSTORE PUSH32 0x8D1108E10BCB7C27DDDFC02ED9D693A074039D026CF4EA4240B40F7D581AC802 PUSH1 0x0 SWAP2 JUMPDEST DUP4 DUP4 LT PUSH2 0x61B JUMPI POP POP POP POP PUSH1 0x40 MLOAD SWAP2 DUP1 DUP4 ADD SWAP4 DUP2 DUP5 MSTORE MLOAD DUP1 SWAP5 MSTORE PUSH1 0x40 DUP4 ADD SWAP4 PUSH1 0x40 DUP2 PUSH1 0x5 SHL DUP6 ADD ADD SWAP3 SWAP2 PUSH1 0x0 SWAP6 JUMPDEST DUP3 DUP8 LT PUSH2 0x5EF JUMPI DUP6 DUP6 SUB DUP7 RETURN JUMPDEST SWAP1 SWAP2 SWAP3 SWAP4 DUP3 DUP1 PUSH2 0x60B PUSH1 0x1 SWAP4 PUSH1 0x3F NOT DUP11 DUP3 SUB ADD DUP7 MSTORE DUP9 MLOAD PUSH2 0x2CE4 JUMP JUMPDEST SWAP7 ADD SWAP3 ADD SWAP7 ADD SWAP6 SWAP3 SWAP2 SWAP1 SWAP3 PUSH2 0x5E2 JUMP JUMPDEST PUSH1 0x6 DUP7 PUSH1 0x1 SWAP3 PUSH2 0x62D DUP6 SWAP11 SWAP10 SWAP11 PUSH2 0x4393 JUMP JUMPDEST DUP2 MSTORE ADD SWAP3 ADD SWAP3 ADD SWAP2 SWAP1 SWAP6 SWAP5 SWAP6 PUSH2 0x5B4 JUMP JUMPDEST CALLVALUE PUSH2 0x20A JUMPI PUSH1 0x20 CALLDATASIZE PUSH1 0x3 NOT ADD SLT PUSH2 0x20A JUMPI PUSH1 0x4 CALLDATALOAD PUSH1 0x6 SLOAD DUP2 LT ISZERO PUSH2 0x20A JUMPI PUSH1 0x6 PUSH1 0x0 MSTORE PUSH1 0x12 MUL PUSH2 0x68F PUSH32 0xF652222313E28459528D920B65115C16C04F3EFC82AAEDC97BE59F3F377C0D3F DUP3 ADD PUSH2 0x3217 JUMP JUMPDEST PUSH2 0x2A3 PUSH1 0x40 MLOAD SWAP3 PUSH2 0x6C6 DUP5 PUSH2 0x49D DUP2 PUSH32 0xF652222313E28459528D920B65115C16C04F3EFC82AAEDC97BE59F3F377C0D4B DUP6 ADD PUSH2 0x2D91 JUMP JUMPDEST PUSH1 0x40 MLOAD SWAP1 PUSH2 0x701 DUP3 PUSH2 0x6FA DUP2 PUSH32 0xF652222313E28459528D920B65115C16C04F3EFC82AAEDC97BE59F3F377C0D4C DUP6 ADD PUSH2 0x2D91 JUMP JUMPDEST SUB DUP4 PUSH2 0x2EAF JUMP JUMPDEST PUSH1 0x40 MLOAD PUSH2 0x734 DUP2 PUSH2 0x288 DUP2 PUSH32 0xF652222313E28459528D920B65115C16C04F3EFC82AAEDC97BE59F3F377C0D4D DUP7 ADD PUSH2 0x2D91 JUMP JUMPDEST PUSH32 0xF652222313E28459528D920B65115C16C04F3EFC82AAEDC97BE59F3F377C0D4F PUSH1 0x40 MLOAD SWAP3 PUSH2 0x789 DUP5 PUSH2 0x49D DUP2 PUSH32 0xF652222313E28459528D920B65115C16C04F3EFC82AAEDC97BE59F3F377C0D4E DUP6 ADD PUSH2 0x2D91 JUMP JUMPDEST ADD SLOAD SWAP3 PUSH1 0x40 MLOAD SWAP7 DUP8 SWAP7 DUP8 PUSH2 0x3472 JUMP JUMPDEST CALLVALUE PUSH2 0x20A JUMPI PUSH1 0x20 CALLDATASIZE PUSH1 0x3 NOT ADD SLT PUSH2 0x20A JUMPI PUSH1 0x4 CALLDATALOAD PUSH1 0x1 PUSH1 0x1 PUSH1 0x40 SHL SUB DUP2 GT PUSH2 0x20A JUMPI PUSH2 0x7CB PUSH2 0x378 SWAP2 CALLDATASIZE SWAP1 PUSH1 0x4 ADD PUSH2 0x2F27 JUMP JUMPDEST PUSH2 0x3FC5 JUMP JUMPDEST CALLVALUE PUSH2 0x20A JUMPI PUSH1 0x20 CALLDATASIZE PUSH1 0x3 NOT ADD SLT PUSH2 0x20A JUMPI PUSH1 0x4 CALLDATALOAD PUSH1 0xB SLOAD DUP2 LT ISZERO PUSH2 0x20A JUMPI PUSH2 0x288 PUSH2 0x28F PUSH2 0x2A3 SWAP3 PUSH1 0xB PUSH1 0x0 MSTORE PUSH1 0x40 MLOAD SWAP3 DUP4 DUP1 SWAP3 PUSH32 0x175B7A638427703F0DBE7BB9BBF987A2551717B34E79F33B5B1008D1FA01DB9 ADD PUSH2 0x2D91 JUMP JUMPDEST CALLVALUE PUSH2 0x20A JUMPI PUSH1 0x20 CALLDATASIZE PUSH1 0x3 NOT ADD SLT PUSH2 0x20A JUMPI PUSH1 0x1 PUSH1 0x1 PUSH1 0xA0 SHL SUB PUSH2 0x84C PUSH2 0x2C49 JUMP JUMPDEST AND PUSH1 0x0 MSTORE PUSH1 0x9 PUSH1 0x20 MSTORE PUSH2 0x87F PUSH1 0x40 PUSH1 0x0 KECCAK256 PUSH1 0xD PUSH2 0x868 DUP3 PUSH2 0x3217 JUMP JUMPDEST SWAP2 ADD SLOAD PUSH1 0x40 MLOAD SWAP3 DUP4 SWAP3 PUSH1 0x40 DUP5 MSTORE PUSH1 0x40 DUP5 ADD SWAP1 PUSH2 0x2F7D JUMP JUMPDEST SWAP1 PUSH1 0x20 DUP4 ADD MSTORE SUB SWAP1 RETURN JUMPDEST PUSH2 0x160 DUP1 PUSH1 0x3 NOT CALLDATASIZE ADD SLT PUSH2 0x20A JUMPI PUSH1 0x1 PUSH1 0x1 PUSH1 0x40 SHL SUB PUSH1 0x4 CALLDATALOAD DUP2 DUP2 GT PUSH2 0x20A JUMPI PUSH2 0x8B7 SWAP1 CALLDATASIZE SWAP1 PUSH1 0x4 ADD PUSH2 0x2F27 JUMP JUMPDEST SWAP1 PUSH1 0x64 CALLDATALOAD DUP2 DUP2 GT PUSH2 0x20A JUMPI PUSH2 0x8D0 SWAP1 CALLDATASIZE SWAP1 PUSH1 0x4 ADD PUSH2 0x2F27 JUMP JUMPDEST SWAP2 PUSH1 0x84 CALLDATALOAD DUP3 DUP2 GT PUSH2 0x20A JUMPI PUSH2 0x8E9 SWAP1 CALLDATASIZE SWAP1 PUSH1 0x4 ADD PUSH2 0x2F27 JUMP JUMPDEST SWAP2 PUSH1 0xA4 CALLDATALOAD DUP2 DUP2 GT PUSH2 0x20A JUMPI PUSH2 0x902 SWAP1 CALLDATASIZE SWAP1 PUSH1 0x4 ADD PUSH2 0x2F27 JUMP JUMPDEST SWAP5 PUSH1 0xC4 CALLDATALOAD DUP3 DUP2 GT PUSH2 0x20A JUMPI PUSH2 0x91B SWAP1 CALLDATASIZE SWAP1 PUSH1 0x4 ADD PUSH2 0x2F27 JUMP JUMPDEST PUSH1 0xE4 CALLDATALOAD DUP4 DUP2 GT PUSH2 0x20A JUMPI PUSH2 0x933 SWAP1 CALLDATASIZE SWAP1 PUSH1 0x4 ADD PUSH2 0x2F27 JUMP JUMPDEST PUSH2 0x104 CALLDATALOAD DUP5 DUP2 GT PUSH2 0x20A JUMPI PUSH2 0x94C SWAP1 CALLDATASIZE SWAP1 PUSH1 0x4 ADD PUSH2 0x2F27 JUMP JUMPDEST SWAP2 PUSH2 0x124 CALLDATALOAD DUP6 DUP2 GT PUSH2 0x20A JUMPI PUSH2 0x966 SWAP1 CALLDATASIZE SWAP1 PUSH1 0x4 ADD PUSH2 0x2F27 JUMP JUMPDEST SWAP5 PUSH2 0x144 CALLDATALOAD SWAP1 DUP2 GT PUSH2 0x20A JUMPI PUSH2 0x980 SWAP1 CALLDATASIZE SWAP1 PUSH1 0x4 ADD PUSH2 0x2F27 JUMP JUMPDEST SWAP9 CALLER PUSH1 0x0 MSTORE PUSH1 0x20 SWAP8 PUSH1 0x9 DUP10 MSTORE PUSH1 0x2 PUSH1 0x40 PUSH1 0x0 KECCAK256 ADD SLOAD PUSH2 0xB53 JUMPI PUSH2 0x9A2 DUP12 PUSH2 0x3FC5 JUMP JUMPDEST PUSH1 0x40 MLOAD SWAP10 PUSH2 0x9AF DUP12 PUSH2 0x2E5D JUMP JUMPDEST CALLER DUP12 MSTORE DUP9 DUP11 DUP13 ADD MSTORE PUSH1 0x24 SWAP12 DUP13 CALLDATALOAD PUSH1 0x40 DUP14 ADD MSTORE PUSH1 0x44 CALLDATALOAD PUSH1 0x60 DUP14 ADD MSTORE PUSH1 0x80 DUP13 ADD MSTORE PUSH1 0xA0 DUP12 ADD MSTORE PUSH1 0xC0 DUP11 ADD MSTORE PUSH1 0xE0 DUP10 ADD MSTORE PUSH2 0x100 DUP9 ADD MSTORE PUSH2 0x120 DUP8 ADD MSTORE PUSH2 0x140 DUP7 ADD MSTORE DUP5 ADD MSTORE PUSH1 0x40 MLOAD SWAP3 PUSH2 0x9FF DUP5 PUSH2 0x2E42 JUMP JUMPDEST DUP4 MSTORE PUSH1 0x60 DUP3 DUP5 ADD MSTORE PUSH1 0x0 PUSH1 0x40 DUP5 ADD MSTORE CALLER PUSH1 0x0 MSTORE PUSH1 0x9 DUP3 MSTORE PUSH2 0xA24 DUP4 PUSH1 0x40 PUSH1 0x0 KECCAK256 PUSH2 0x4416 JUMP JUMPDEST PUSH1 0xB SLOAD PUSH1 0x1 PUSH1 0x40 SHL SWAP2 DUP3 DUP3 LT ISZERO PUSH2 0xB3E JUMPI PUSH1 0x1 DUP3 ADD DUP1 PUSH1 0xB SSTORE DUP3 LT ISZERO PUSH2 0xB29 JUMPI PUSH2 0xA74 SWAP2 PUSH1 0xB PUSH1 0x0 MSTORE PUSH32 0x175B7A638427703F0DBE7BB9BBF987A2551717B34E79F33B5B1008D1FA01DB9 ADD PUSH2 0x3714 JUMP JUMPDEST PUSH1 0xA SLOAD SWAP1 DUP2 LT ISZERO PUSH2 0xB14 JUMPI DUP1 PUSH1 0x1 PUSH2 0xA8F SWAP3 ADD PUSH1 0xA SSTORE PUSH2 0x31DC JUMP JUMPDEST PUSH2 0xAFF JUMPI DUP3 PUSH2 0xA9D SWAP2 PUSH2 0x4416 JUMP JUMPDEST PUSH1 0xC SLOAD PUSH1 0x1 DUP2 ADD DUP1 SWAP2 GT PUSH2 0xAEA JUMPI PUSH32 0xF59A1B8573DB02CF501C11C9D7D88B5365A59BDF0555CFD387DB21CFCACCF4DA SWAP4 POP PUSH1 0xC SSTORE PUSH2 0xAE5 PUSH1 0x40 MLOAD SWAP3 DUP3 DUP5 SWAP4 DUP5 MSTORE DUP4 ADD SWAP1 PUSH2 0x313A JUMP JUMPDEST SUB SWAP1 LOG1 STOP JUMPDEST DUP4 PUSH4 0x4E487B71 PUSH1 0xE0 SHL PUSH1 0x0 MSTORE PUSH1 0x11 PUSH1 0x4 MSTORE PUSH1 0x0 REVERT JUMPDEST DUP4 PUSH4 0x4E487B71 PUSH1 0xE0 SHL PUSH1 0x0 MSTORE PUSH1 0x0 PUSH1 0x4 MSTORE PUSH1 0x0 REVERT JUMPDEST DUP4 PUSH4 0x4E487B71 PUSH1 0xE0 SHL PUSH1 0x0 MSTORE PUSH1 0x41 PUSH1 0x4 MSTORE PUSH1 0x0 REVERT JUMPDEST DUP6 PUSH4 0x4E487B71 PUSH1 0xE0 SHL PUSH1 0x0 MSTORE PUSH1 0x32 PUSH1 0x4 MSTORE PUSH1 0x0 REVERT JUMPDEST DUP6 PUSH4 0x4E487B71 PUSH1 0xE0 SHL PUSH1 0x0 MSTORE PUSH1 0x41 PUSH1 0x4 MSTORE PUSH1 0x0 REVERT JUMPDEST PUSH1 0x40 MLOAD PUSH3 0x461BCD PUSH1 0xE5 SHL DUP2 MSTORE PUSH1 0x4 DUP2 ADD DUP11 SWAP1 MSTORE PUSH1 0x1A PUSH1 0x24 DUP3 ADD MSTORE PUSH32 0x566F74657220616C726561647920726567697374657265642021000000000000 PUSH1 0x44 DUP3 ADD MSTORE PUSH1 0x64 SWAP1 REVERT JUMPDEST CALLVALUE PUSH2 0x20A JUMPI PUSH1 0x20 CALLDATASIZE PUSH1 0x3 NOT ADD SLT PUSH2 0x20A JUMPI PUSH1 0x4 CALLDATALOAD PUSH1 0x14 SLOAD DUP2 LT ISZERO PUSH2 0x20A JUMPI PUSH1 0x6 SWAP1 PUSH1 0x14 PUSH1 0x0 MSTORE MUL PUSH1 0x1 DUP1 PUSH1 0xA0 SHL SUB DUP2 PUSH32 0xCE6D7B5282BD9A3661AE061FEED1DBDA4E52AB073B1F9285BE6E155D9C38D4EC ADD SLOAD AND PUSH2 0x2A3 PUSH32 0xCE6D7B5282BD9A3661AE061FEED1DBDA4E52AB073B1F9285BE6E155D9C38D4F0 PUSH1 0x40 MLOAD SWAP4 PUSH2 0xC43 DUP6 PUSH2 0x42C DUP2 PUSH32 0xCE6D7B5282BD9A3661AE061FEED1DBDA4E52AB073B1F9285BE6E155D9C38D4ED DUP6 ADD PUSH2 0x2D91 JUMP JUMPDEST PUSH1 0x40 MLOAD PUSH2 0xC76 DUP2 PUSH2 0x288 DUP2 PUSH32 0xCE6D7B5282BD9A3661AE061FEED1DBDA4E52AB073B1F9285BE6E155D9C38D4EE DUP7 ADD PUSH2 0x2D91 JUMP JUMPDEST PUSH2 0xCAD PUSH1 0x40 MLOAD SWAP3 PUSH2 0x4A4 DUP5 PUSH2 0x49D DUP2 PUSH32 0xCE6D7B5282BD9A3661AE061FEED1DBDA4E52AB073B1F9285BE6E155D9C38D4EF DUP6 ADD PUSH2 0x2D91 JUMP JUMPDEST PUSH1 0x40 MLOAD SWAP6 DUP7 SWAP6 DUP7 PUSH2 0x2ED0 JUMP JUMPDEST CALLVALUE PUSH2 0x20A JUMPI PUSH1 0x0 CALLDATASIZE PUSH1 0x3 NOT ADD SLT PUSH2 0x20A JUMPI PUSH1 0x20 PUSH1 0x16 SLOAD PUSH1 0x40 MLOAD SWAP1 DUP2 MSTORE RETURN JUMPDEST CALLVALUE PUSH2 0x20A JUMPI PUSH1 0x20 CALLDATASIZE PUSH1 0x3 NOT ADD SLT PUSH2 0x20A JUMPI PUSH1 0x1 PUSH1 0x1 PUSH1 0xA0 SHL SUB PUSH2 0xCF8 PUSH2 0x2C49 JUMP JUMPDEST AND PUSH1 0x0 MSTORE PUSH1 0x5 PUSH1 0x20 MSTORE PUSH1 0x40 PUSH1 0x0 KECCAK256 PUSH2 0xD0F DUP2 PUSH2 0x3217 JUMP JUMPDEST PUSH2 0x2A3 PUSH1 0x40 MLOAD SWAP3 PUSH2 0xD27 DUP5 PUSH2 0x49D DUP2 PUSH1 0xC DUP6 ADD PUSH2 0x2D91 JUMP JUMPDEST PUSH1 0x40 MLOAD SWAP1 PUSH2 0xD3C DUP3 PUSH2 0x6FA DUP2 PUSH1 0xD DUP6 ADD PUSH2 0x2D91 JUMP JUMPDEST PUSH1 0x40 MLOAD PUSH2 0xD50 DUP2 PUSH2 0x288 DUP2 PUSH1 0xE DUP7 ADD PUSH2 0x2D91 JUMP JUMPDEST PUSH1 0x10 PUSH1 0x40 MLOAD SWAP3 PUSH2 0x789 DUP5 PUSH2 0x49D DUP2 PUSH1 0xF DUP6 ADD PUSH2 0x2D91 JUMP JUMPDEST CALLVALUE PUSH2 0x20A JUMPI PUSH1 0x20 CALLDATASIZE PUSH1 0x3 NOT ADD SLT PUSH2 0x20A JUMPI PUSH1 0x4 CALLDATALOAD PUSH1 0x7 SLOAD DUP2 LT ISZERO PUSH2 0x20A JUMPI PUSH2 0x288 PUSH2 0x28F PUSH2 0x2A3 SWAP3 PUSH1 0x7 PUSH1 0x0 MSTORE PUSH1 0x40 MLOAD SWAP3 DUP4 DUP1 SWAP3 PUSH32 0xA66CC928B5EDB82AF9BD49922954155AB7B0942694BEA4CE44661D9A8736C688 ADD PUSH2 0x2D91 JUMP JUMPDEST CALLVALUE PUSH2 0x20A JUMPI PUSH1 0x0 CALLDATASIZE PUSH1 0x3 NOT ADD SLT PUSH2 0x20A JUMPI PUSH1 0x13 SLOAD PUSH2 0xDDF DUP2 PUSH2 0x3378 JUMP JUMPDEST SWAP1 PUSH2 0xDED PUSH1 0x40 MLOAD SWAP3 DUP4 PUSH2 0x2EAF JUMP JUMPDEST DUP1 DUP3 MSTORE PUSH1 0x20 DUP3 ADD SWAP1 DUP2 PUSH1 0x13 PUSH1 0x0 MSTORE PUSH32 0x66DE8FFDA797E3DE9C05E8FC57B3BF0EC28A930D40B0D285D93C06501CF6A090 PUSH1 0x0 SWAP2 JUMPDEST DUP4 DUP4 LT PUSH2 0xE8E JUMPI DUP5 DUP7 PUSH1 0x40 MLOAD SWAP2 DUP3 SWAP2 PUSH1 0x20 DUP4 ADD SWAP1 PUSH1 0x20 DUP5 MSTORE MLOAD DUP1 SWAP2 MSTORE PUSH1 0x40 DUP4 ADD SWAP1 PUSH1 0x40 DUP2 PUSH1 0x5 SHL DUP6 ADD ADD SWAP3 SWAP2 PUSH1 0x0 SWAP1 JUMPDEST DUP3 DUP3 LT PUSH2 0xE5F JUMPI POP POP POP POP SUB SWAP1 RETURN JUMPDEST SWAP2 SWAP4 PUSH1 0x1 SWAP2 SWAP4 SWAP6 POP PUSH1 0x20 PUSH2 0xE7E DUP2 SWAP3 PUSH1 0x3F NOT DUP11 DUP3 SUB ADD DUP7 MSTORE DUP9 MLOAD PUSH2 0x338F JUMP JUMPDEST SWAP7 ADD SWAP3 ADD SWAP3 ADD DUP6 SWAP5 SWAP4 SWAP2 SWAP3 PUSH2 0xE50 JUMP JUMPDEST PUSH1 0x40 MLOAD PUSH2 0xE9A DUP2 PUSH2 0x2E79 JUMP JUMPDEST PUSH1 0x40 MLOAD PUSH2 0xEAB DUP2 PUSH2 0x288 DUP2 DUP8 PUSH2 0x2D91 JUMP JUMPDEST DUP2 MSTORE PUSH1 0x40 MLOAD PUSH2 0xEC1 DUP2 PUSH2 0x288 DUP2 PUSH1 0x1 DUP9 ADD PUSH2 0x2D91 JUMP JUMPDEST PUSH1 0x20 DUP3 ADD MSTORE PUSH1 0x40 MLOAD PUSH2 0xEDA DUP2 PUSH2 0x288 DUP2 PUSH1 0x2 DUP9 ADD PUSH2 0x2D91 JUMP JUMPDEST PUSH1 0x40 DUP3 ADD MSTORE PUSH1 0x40 MLOAD PUSH2 0xEF3 DUP2 PUSH2 0x288 DUP2 PUSH1 0x3 DUP9 ADD PUSH2 0x2D91 JUMP JUMPDEST PUSH1 0x60 DUP3 ADD MSTORE PUSH1 0x40 MLOAD PUSH2 0xF0C DUP2 PUSH2 0x288 DUP2 PUSH1 0x4 DUP9 ADD PUSH2 0x2D91 JUMP JUMPDEST PUSH1 0x80 DUP3 ADD MSTORE PUSH1 0x5 DUP4 ADD DUP1 SLOAD PUSH2 0xF20 DUP2 PUSH2 0x3378 JUMP JUMPDEST SWAP2 PUSH2 0xF2E PUSH1 0x40 MLOAD SWAP4 DUP5 PUSH2 0x2EAF JUMP JUMPDEST DUP2 DUP4 MSTORE PUSH1 0x20 DUP4 ADD SWAP1 PUSH1 0x0 MSTORE PUSH1 0x20 PUSH1 0x0 KECCAK256 SWAP1 PUSH1 0x0 SWAP1 JUMPDEST DUP4 DUP3 LT PUSH2 0xFD1 JUMPI POP POP POP POP PUSH1 0xA0 DUP3 ADD MSTORE PUSH1 0x6 DUP4 ADD DUP1 SLOAD PUSH2 0xF62 DUP2 PUSH2 0x3378 JUMP JUMPDEST SWAP2 PUSH2 0xF70 PUSH1 0x40 MLOAD SWAP4 DUP5 PUSH2 0x2EAF JUMP JUMPDEST DUP2 DUP4 MSTORE PUSH1 0x20 DUP4 ADD SWAP1 PUSH1 0x0 MSTORE PUSH1 0x20 PUSH1 0x0 KECCAK256 SWAP1 PUSH1 0x0 SWAP1 JUMPDEST DUP4 DUP3 LT PUSH2 0xFAC JUMPI POP POP POP POP PUSH1 0x1 SWAP3 DUP3 PUSH1 0x20 SWAP3 PUSH1 0xC0 PUSH1 0x7 SWAP6 ADD MSTORE DUP2 MSTORE ADD SWAP3 ADD SWAP3 ADD SWAP2 SWAP1 PUSH2 0xE20 JUMP JUMPDEST PUSH1 0x1 PUSH1 0x20 DUP2 SWAP3 PUSH1 0x40 MLOAD PUSH2 0xFC3 DUP2 PUSH2 0x288 DUP2 DUP11 PUSH2 0x2D91 JUMP JUMPDEST DUP2 MSTORE ADD SWAP4 ADD SWAP2 ADD SWAP1 SWAP2 PUSH2 0xF85 JUMP JUMPDEST PUSH1 0x12 PUSH1 0x20 PUSH1 0x1 SWAP3 PUSH2 0xFE1 DUP7 PUSH2 0x3D58 JUMP JUMPDEST DUP2 MSTORE ADD SWAP4 ADD SWAP2 ADD SWAP1 SWAP2 PUSH2 0xF43 JUMP JUMPDEST CALLVALUE PUSH2 0x20A JUMPI PUSH1 0x0 CALLDATASIZE PUSH1 0x3 NOT ADD SLT PUSH2 0x20A JUMPI PUSH1 0x20 PUSH1 0x3 SLOAD PUSH1 0x40 MLOAD SWAP1 DUP2 MSTORE RETURN JUMPDEST PUSH1 0xC0 CALLDATASIZE PUSH1 0x3 NOT ADD SLT PUSH2 0x20A JUMPI PUSH1 0x1 PUSH1 0x1 PUSH1 0x40 SHL SUB PUSH1 0x4 CALLDATALOAD DUP2 DUP2 GT PUSH2 0x20A JUMPI PUSH2 0x1039 SWAP1 CALLDATASIZE SWAP1 PUSH1 0x4 ADD PUSH2 0x2F27 JUMP JUMPDEST PUSH1 0x24 SWAP2 DUP3 CALLDATALOAD DUP2 DUP2 GT PUSH2 0x20A JUMPI PUSH2 0x1053 SWAP1 CALLDATASIZE SWAP1 PUSH1 0x4 ADD PUSH2 0x2F27 JUMP JUMPDEST SWAP2 PUSH1 0x44 CALLDATALOAD DUP3 DUP2 GT PUSH2 0x20A JUMPI PUSH2 0x106C SWAP1 CALLDATASIZE SWAP1 PUSH1 0x4 ADD PUSH2 0x2F27 JUMP JUMPDEST PUSH1 0x64 CALLDATALOAD DUP4 DUP2 GT PUSH2 0x20A JUMPI PUSH2 0x1084 SWAP1 CALLDATASIZE SWAP1 PUSH1 0x4 ADD PUSH2 0x2F27 JUMP JUMPDEST PUSH1 0x84 CALLDATALOAD DUP5 DUP2 GT PUSH2 0x20A JUMPI PUSH2 0x109C SWAP1 CALLDATASIZE SWAP1 PUSH1 0x4 ADD PUSH2 0x2F27 JUMP JUMPDEST PUSH1 0xA4 CALLDATALOAD SWAP2 DUP6 DUP4 GT PUSH2 0x20A JUMPI CALLDATASIZE PUSH1 0x23 DUP5 ADD SLT ISZERO PUSH2 0x20A JUMPI DUP3 PUSH1 0x4 ADD CALLDATALOAD SWAP3 PUSH2 0x10C1 DUP5 PUSH2 0x3378 JUMP JUMPDEST SWAP4 PUSH2 0x10CF PUSH1 0x40 MLOAD SWAP6 DUP7 PUSH2 0x2EAF JUMP JUMPDEST DUP1 DUP6 MSTORE PUSH1 0x20 SWAP8 DUP11 DUP10 DUP8 ADD SWAP3 PUSH1 0x5 SHL DUP5 ADD ADD SWAP3 CALLDATASIZE DUP5 GT PUSH2 0x20A JUMPI SWAP1 DUP2 DUP13 DUP12 SWAP10 SWAP9 SWAP8 SWAP7 SWAP6 SWAP5 SWAP4 ADD SWAP3 JUMPDEST DUP5 DUP5 LT PUSH2 0x11E9 JUMPI DUP14 DUP14 DUP12 PUSH2 0x1174 DUP15 PUSH2 0x1165 DUP4 DUP16 DUP16 DUP16 DUP16 PUSH2 0x1121 PUSH1 0x1 DUP1 PUSH1 0xA0 SHL SUB PUSH1 0x1 SLOAD AND CALLER EQ PUSH2 0x36A2 JUMP JUMPDEST PUSH1 0x40 MLOAD SWAP10 DUP11 SWAP8 PUSH2 0x1130 DUP10 PUSH2 0x2E79 JUMP JUMPDEST DUP9 MSTORE DUP6 DUP9 ADD MSTORE DUP4 PUSH1 0x40 DUP9 ADD MSTORE PUSH1 0x60 DUP8 ADD MSTORE PUSH1 0x80 DUP7 ADD MSTORE PUSH1 0x60 PUSH1 0xA0 DUP7 ADD MSTORE PUSH1 0xC0 DUP6 ADD MSTORE DUP2 PUSH1 0x40 MLOAD SWAP4 DUP3 DUP6 DUP1 SWAP5 MLOAD SWAP4 DUP5 SWAP3 ADD PUSH2 0x2C5F JUMP JUMPDEST DUP2 ADD PUSH1 0x11 DUP2 MSTORE SUB ADD SWAP1 KECCAK256 PUSH2 0x3AC4 JUMP JUMPDEST PUSH1 0x13 SLOAD PUSH1 0x1 PUSH1 0x40 SHL DUP2 LT ISZERO PUSH2 0xB14 JUMPI DUP1 PUSH1 0x1 PUSH2 0x1193 SWAP3 ADD PUSH1 0x13 SSTORE PUSH2 0x352C JUMP JUMPDEST PUSH2 0xAFF JUMPI DUP3 PUSH2 0x11A1 SWAP2 PUSH2 0x3AC4 JUMP JUMPDEST PUSH1 0x16 SLOAD PUSH1 0x1 DUP2 ADD DUP1 SWAP2 GT PUSH2 0xAEA JUMPI PUSH32 0x9C8794A23F33DDE2007342C154E928EFFE9F52147C9BC50BD6C201EF0636CD73 SWAP4 POP PUSH1 0x16 SSTORE PUSH2 0xAE5 PUSH1 0x40 MLOAD SWAP3 DUP3 DUP5 SWAP4 DUP5 MSTORE DUP4 ADD SWAP1 PUSH2 0x338F JUMP JUMPDEST SWAP1 SWAP2 SWAP3 DUP1 SWAP5 SWAP6 SWAP7 SWAP8 SWAP9 SWAP10 POP CALLDATALOAD DUP4 DUP2 GT PUSH2 0x20A JUMPI DUP12 SWAP2 PUSH2 0x120F DUP16 SWAP3 DUP5 SWAP4 CALLDATASIZE SWAP2 DUP8 ADD ADD PUSH2 0x2F27 JUMP JUMPDEST DUP2 MSTORE ADD SWAP4 ADD SWAP2 SWAP1 DUP11 SWAP9 SWAP8 SWAP7 SWAP6 SWAP5 SWAP4 PUSH2 0x10F6 JUMP JUMPDEST PUSH1 0x40 CALLDATASIZE PUSH1 0x3 NOT ADD SLT PUSH2 0x20A JUMPI PUSH1 0x4 CALLDATALOAD PUSH1 0x1 PUSH1 0x1 PUSH1 0x40 SHL SUB DUP1 DUP3 GT PUSH2 0x20A JUMPI CALLDATASIZE PUSH1 0x23 DUP4 ADD SLT ISZERO PUSH2 0x20A JUMPI DUP2 PUSH1 0x4 ADD CALLDATALOAD SWAP1 PUSH2 0x125A DUP3 PUSH2 0x3378 JUMP JUMPDEST SWAP2 PUSH2 0x1268 PUSH1 0x40 MLOAD SWAP4 DUP5 PUSH2 0x2EAF JUMP JUMPDEST DUP1 DUP4 MSTORE PUSH1 0x20 DUP1 DUP5 ADD SWAP5 PUSH1 0x24 SWAP6 DUP7 PUSH1 0x5 SWAP5 DUP6 SHL DUP4 ADD ADD SWAP2 CALLDATASIZE DUP4 GT PUSH2 0x20A JUMPI DUP8 DUP2 ADD SWAP2 JUMPDEST DUP4 DUP4 LT PUSH2 0x144F JUMPI POP POP POP POP DUP5 CALLDATALOAD DUP4 DUP2 GT PUSH2 0x20A JUMPI PUSH2 0x12AC SWAP1 CALLDATASIZE SWAP1 PUSH1 0x4 ADD PUSH2 0x2F27 JUMP JUMPDEST SWAP3 PUSH1 0x1 DUP1 PUSH1 0xA0 SHL SUB SWAP6 PUSH1 0x1 SWAP7 DUP8 SWAP6 PUSH2 0x12C8 DUP3 DUP9 SLOAD AND CALLER EQ PUSH2 0x36A2 JUMP JUMPDEST PUSH1 0x0 DUP6 DUP3 ADD SWAP10 JUMPDEST PUSH2 0x13C3 JUMPI JUMPDEST POP DUP7 SWAP8 SWAP9 PUSH1 0x0 SWAP8 JUMPDEST PUSH2 0x12E2 JUMPI STOP JUMPDEST PUSH1 0x13 SLOAD DUP9 LT ISZERO PUSH2 0x378 JUMPI DUP8 PUSH2 0x1303 PUSH1 0x2 PUSH2 0x12FC DUP13 SWAP12 PUSH2 0x352C JUMP JUMPDEST POP ADD PUSH2 0x35B6 JUMP JUMPDEST DUP8 DUP2 MLOAD SWAP2 ADD KECCAK256 DUP4 MLOAD DUP4 KECCAK256 EQ PUSH2 0x1321 JUMPI PUSH2 0x131B SWAP1 PUSH2 0x3567 JUMP JUMPDEST SWAP8 PUSH2 0x12DC JUMP JUMPDEST SWAP7 SWAP8 SWAP2 POP POP PUSH1 0x0 SWAP1 JUMPDEST PUSH2 0x1330 JUMPI STOP JUMPDEST DUP9 MLOAD DUP2 LT ISZERO PUSH2 0x378 JUMPI DUP2 PUSH2 0x1344 DUP3 DUP12 PUSH2 0x3D44 JUMP JUMPDEST MLOAD MLOAD AND PUSH1 0x0 MSTORE DUP7 DUP6 MSTORE PUSH2 0x135A PUSH1 0x40 PUSH1 0x0 KECCAK256 PUSH2 0x3D58 JUMP JUMPDEST DUP6 PUSH2 0x1365 DUP4 DUP13 PUSH2 0x3D44 JUMP JUMPDEST MLOAD ADD MLOAD PUSH1 0x40 DUP3 ADD MSTORE PUSH1 0x40 PUSH2 0x1379 DUP4 DUP13 PUSH2 0x3D44 JUMP JUMPDEST MLOAD ADD MLOAD PUSH1 0x60 DUP3 ADD MSTORE PUSH1 0x40 MLOAD DUP7 DUP2 ADD DUP2 DUP2 LT DUP8 DUP3 GT OR PUSH2 0xB3E JUMPI PUSH1 0x40 MSTORE PUSH1 0x0 DUP2 MSTORE PUSH1 0xC0 DUP3 ADD MSTORE PUSH2 0x13BD SWAP2 SWAP1 PUSH2 0x13B8 SWAP1 DUP10 PUSH2 0x13B1 DUP11 PUSH2 0x352C JUMP JUMPDEST POP ADD PUSH2 0x3DF3 JUMP JUMPDEST PUSH2 0x3567 JUMP JUMPDEST DUP8 PUSH2 0x132A JUMP JUMPDEST DUP9 MLOAD DUP2 LT ISZERO PUSH2 0x144A JUMPI PUSH2 0x1444 DUP2 PUSH2 0x13B8 DUP12 DUP11 PUSH2 0x1434 DUP16 DUP13 SWAP1 DUP16 SWAP9 PUSH2 0x13E8 DUP13 SWAP2 DUP8 PUSH2 0x3D44 JUMP JUMPDEST MLOAD MLOAD AND PUSH1 0x0 MSTORE DUP4 DUP3 MSTORE PUSH1 0x40 PUSH2 0x141B DUP9 PUSH2 0x1403 DUP4 PUSH1 0x0 KECCAK256 PUSH2 0x3D58 JUMP JUMPDEST SWAP8 DUP6 PUSH2 0x140F DUP4 DUP4 PUSH2 0x3D44 JUMP JUMPDEST MLOAD ADD MLOAD DUP5 DUP11 ADD MSTORE PUSH2 0x3D44 JUMP JUMPDEST MLOAD ADD MLOAD PUSH1 0x60 DUP7 ADD MSTORE PUSH1 0x40 MLOAD DUP1 SWAP4 DUP2 SWAP3 DUP13 MLOAD SWAP3 DUP4 SWAP2 PUSH2 0x2C5F JUMP JUMPDEST DUP2 ADD PUSH1 0x11 DUP2 MSTORE SUB ADD SWAP1 KECCAK256 ADD PUSH2 0x3DF3 JUMP JUMPDEST SWAP1 PUSH2 0x12CF JUMP JUMPDEST PUSH2 0x12D4 JUMP JUMPDEST DUP3 CALLDATALOAD DUP8 DUP2 GT PUSH2 0x20A JUMPI DUP3 ADD PUSH1 0x60 SWAP2 DUP3 PUSH1 0x23 NOT DUP4 CALLDATASIZE SUB ADD SLT PUSH2 0x20A JUMPI PUSH1 0x40 MLOAD SWAP3 DUP4 ADD DUP4 DUP2 LT DUP11 DUP3 GT OR PUSH2 0x14E2 JUMPI PUSH1 0x40 MSTORE DUP2 DUP12 ADD CALLDATALOAD PUSH1 0x1 PUSH1 0x1 PUSH1 0xA0 SHL SUB DUP2 AND DUP2 SUB PUSH2 0x20A JUMPI DUP4 MSTORE PUSH1 0x44 DUP3 ADD CALLDATALOAD DUP10 DUP2 GT PUSH2 0x20A JUMPI PUSH2 0x14AF SWAP1 DUP13 CALLDATASIZE SWAP2 DUP6 ADD ADD PUSH2 0x2F27 JUMP JUMPDEST DUP8 DUP5 ADD MSTORE PUSH1 0x64 DUP3 ADD CALLDATALOAD SWAP3 DUP10 DUP5 GT PUSH2 0x20A JUMPI PUSH2 0x14D2 DUP9 SWAP5 SWAP4 DUP14 DUP7 SWAP6 CALLDATASIZE SWAP3 ADD ADD PUSH2 0x2F27 JUMP JUMPDEST PUSH1 0x40 DUP3 ADD MSTORE DUP2 MSTORE ADD SWAP3 ADD SWAP2 PUSH2 0x128A JUMP JUMPDEST DUP12 PUSH4 0x4E487B71 PUSH1 0xE0 SHL PUSH1 0x0 MSTORE PUSH1 0x41 PUSH1 0x4 MSTORE PUSH1 0x0 REVERT JUMPDEST PUSH1 0x80 CALLDATASIZE PUSH1 0x3 NOT ADD SLT PUSH2 0x20A JUMPI PUSH1 0x1 PUSH1 0x1 PUSH1 0x40 SHL SUB PUSH1 0x4 CALLDATALOAD DUP2 DUP2 GT PUSH2 0x20A JUMPI PUSH2 0x1523 SWAP1 CALLDATASIZE SWAP1 PUSH1 0x4 ADD PUSH2 0x2F27 JUMP JUMPDEST SWAP1 PUSH1 0x24 CALLDATALOAD DUP2 DUP2 GT PUSH2 0x20A JUMPI PUSH2 0x153C SWAP1 CALLDATASIZE SWAP1 PUSH1 0x4 ADD PUSH2 0x2F27 JUMP JUMPDEST SWAP1 PUSH1 0x44 CALLDATALOAD DUP2 DUP2 GT PUSH2 0x20A JUMPI PUSH2 0x1555 SWAP1 CALLDATASIZE SWAP1 PUSH1 0x4 ADD PUSH2 0x2F27 JUMP JUMPDEST SWAP1 PUSH1 0x64 CALLDATALOAD SWAP1 DUP2 GT PUSH2 0x20A JUMPI PUSH2 0x156E SWAP1 CALLDATASIZE SWAP1 PUSH1 0x4 ADD PUSH2 0x2F27 JUMP JUMPDEST SWAP2 PUSH1 0x40 MLOAD SWAP4 PUSH2 0x157C DUP6 PUSH2 0x2E27 JUMP JUMPDEST CALLER DUP6 MSTORE PUSH1 0x20 DUP6 ADD MSTORE PUSH1 0x40 DUP5 ADD MSTORE PUSH1 0x60 DUP4 ADD MSTORE PUSH1 0x80 DUP3 ADD MSTORE PUSH1 0x60 PUSH1 0xA0 DUP3 ADD MSTORE CALLER PUSH1 0x0 MSTORE PUSH1 0x12 PUSH1 0x20 MSTORE PUSH2 0x15B1 DUP2 PUSH1 0x40 PUSH1 0x0 KECCAK256 PUSH2 0x3E5D JUMP JUMPDEST PUSH1 0x14 SLOAD PUSH1 0x1 PUSH1 0x40 SHL DUP2 LT ISZERO PUSH2 0x15F6 JUMPI DUP1 PUSH1 0x1 PUSH2 0x15D0 SWAP3 ADD PUSH1 0x14 SSTORE PUSH2 0x333D JUMP JUMPDEST SWAP2 SWAP1 SWAP2 PUSH2 0x15E0 JUMPI PUSH2 0x378 SWAP2 PUSH2 0x3E5D JUMP JUMPDEST PUSH4 0x4E487B71 PUSH1 0xE0 SHL PUSH1 0x0 MSTORE PUSH1 0x0 PUSH1 0x4 MSTORE PUSH1 0x24 PUSH1 0x0 REVERT JUMPDEST PUSH4 0x4E487B71 PUSH1 0xE0 SHL PUSH1 0x0 MSTORE PUSH1 0x41 PUSH1 0x4 MSTORE PUSH1 0x24 PUSH1 0x0 REVERT JUMPDEST CALLVALUE PUSH2 0x20A JUMPI PUSH1 0x20 CALLDATASIZE PUSH1 0x3 NOT ADD SLT PUSH2 0x20A JUMPI PUSH1 0x4 CALLDATALOAD PUSH1 0xF SLOAD DUP2 LT ISZERO PUSH2 0x20A JUMPI PUSH1 0x6 SWAP1 PUSH1 0xF PUSH1 0x0 MSTORE MUL PUSH1 0x1 DUP1 PUSH1 0xA0 SHL SUB DUP2 PUSH32 0x8D1108E10BCB7C27DDDFC02ED9D693A074039D026CF4EA4240B40F7D581AC802 ADD SLOAD AND PUSH2 0x2A3 PUSH32 0x8D1108E10BCB7C27DDDFC02ED9D693A074039D026CF4EA4240B40F7D581AC806 PUSH1 0x40 MLOAD SWAP4 PUSH2 0x16B7 DUP6 PUSH2 0x42C DUP2 PUSH32 0x8D1108E10BCB7C27DDDFC02ED9D693A074039D026CF4EA4240B40F7D581AC803 DUP6 ADD PUSH2 0x2D91 JUMP JUMPDEST PUSH32 0x8D1108E10BCB7C27DDDFC02ED9D693A074039D026CF4EA4240B40F7D581AC804 DUP2 ADD SLOAD PUSH2 0x1712 PUSH1 0x40 MLOAD SWAP3 PUSH2 0x4A4 DUP5 PUSH2 0x49D DUP2 PUSH32 0x8D1108E10BCB7C27DDDFC02ED9D693A074039D026CF4EA4240B40F7D581AC805 DUP6 ADD PUSH2 0x2D91 JUMP JUMPDEST PUSH1 0x40 MLOAD SWAP6 DUP7 SWAP6 DUP7 PUSH2 0x31A0 JUMP JUMPDEST CALLVALUE PUSH2 0x20A JUMPI PUSH1 0x20 CALLDATASIZE PUSH1 0x3 NOT ADD SLT PUSH2 0x20A JUMPI PUSH1 0x4 CALLDATALOAD PUSH1 0x0 SLOAD DUP2 LT ISZERO PUSH2 0x20A JUMPI PUSH2 0x288 PUSH2 0x28F PUSH2 0x2A3 SWAP3 PUSH1 0x0 DUP1 MSTORE PUSH1 0x40 MLOAD SWAP3 DUP4 DUP1 SWAP3 PUSH32 0x290DECD9548B62A8D60345A988386FC84BA6BC95484008F6362F93160EF3E563 ADD PUSH2 0x2D91 JUMP JUMPDEST CALLVALUE PUSH2 0x20A JUMPI PUSH1 0x0 CALLDATASIZE PUSH1 0x3 NOT ADD SLT PUSH2 0x20A JUMPI PUSH1 0x20 PUSH1 0xC SLOAD PUSH1 0x40 MLOAD SWAP1 DUP2 MSTORE RETURN JUMPDEST CALLVALUE PUSH2 0x20A JUMPI PUSH1 0x20 CALLDATASIZE PUSH1 0x3 NOT ADD SLT PUSH2 0x20A JUMPI PUSH2 0x17AF PUSH2 0x2C49 JUMP JUMPDEST PUSH1 0x40 MLOAD PUSH2 0x17BB DUP2 PUSH2 0x2E79 JUMP JUMPDEST PUSH2 0x17C3 PUSH2 0x4337 JUMP JUMPDEST DUP2 MSTORE PUSH1 0xC0 PUSH1 0x60 SWAP2 DUP3 PUSH1 0x20 DUP3 ADD MSTORE DUP3 PUSH1 0x40 DUP3 ADD MSTORE DUP3 DUP1 DUP3 ADD MSTORE DUP3 PUSH1 0x80 DUP3 ADD MSTORE PUSH1 0x0 PUSH1 0xA0 DUP3 ADD MSTORE ADD MSTORE PUSH1 0x1 DUP1 PUSH1 0xA0 SHL SUB AND PUSH1 0x0 MSTORE PUSH1 0x5 PUSH1 0x20 MSTORE PUSH2 0x2A3 PUSH2 0x180A PUSH1 0x40 PUSH1 0x0 KECCAK256 PUSH2 0x3D58 JUMP JUMPDEST PUSH1 0x40 MLOAD SWAP2 DUP3 SWAP2 PUSH1 0x20 DUP4 MSTORE PUSH1 0x20 DUP4 ADD SWAP1 PUSH2 0x3068 JUMP JUMPDEST CALLVALUE PUSH2 0x20A JUMPI PUSH1 0x20 CALLDATASIZE PUSH1 0x3 NOT ADD SLT PUSH2 0x20A JUMPI PUSH1 0x4 CALLDATALOAD PUSH1 0xA SLOAD DUP2 LT ISZERO PUSH2 0x20A JUMPI PUSH1 0xE PUSH2 0x87F SWAP2 PUSH1 0xA PUSH1 0x0 MSTORE MUL PUSH32 0xC65A7BB8D6351C1CF70C95A316CC6A92839C986682D98BC35F958F4883F9D2B5 PUSH2 0x868 DUP3 PUSH32 0xC65A7BB8D6351C1CF70C95A316CC6A92839C986682D98BC35F958F4883F9D2A8 ADD PUSH2 0x3217 JUMP JUMPDEST CALLVALUE PUSH2 0x20A JUMPI PUSH1 0x20 CALLDATASIZE PUSH1 0x3 NOT ADD SLT PUSH2 0x20A JUMPI PUSH1 0x1 PUSH1 0x1 PUSH1 0xA0 SHL SUB DUP1 PUSH2 0x18B6 PUSH2 0x2C49 JUMP JUMPDEST AND PUSH1 0x0 MSTORE PUSH1 0xE PUSH1 0x20 MSTORE PUSH1 0x40 PUSH1 0x0 KECCAK256 SWAP1 DUP2 SLOAD AND PUSH2 0x2A3 PUSH1 0x4 PUSH1 0x40 MLOAD SWAP4 PUSH2 0x18E2 DUP6 PUSH2 0x42C DUP2 PUSH1 0x1 DUP6 ADD PUSH2 0x2D91 JUMP JUMPDEST PUSH1 0x2 DUP2 ADD SLOAD PUSH2 0x1712 PUSH1 0x40 MLOAD SWAP3 PUSH2 0x4A4 DUP5 PUSH2 0x49D DUP2 PUSH1 0x3 DUP6 ADD PUSH2 0x2D91 JUMP JUMPDEST CALLVALUE PUSH2 0x20A JUMPI PUSH1 0x20 CALLDATASIZE PUSH1 0x3 NOT ADD SLT PUSH2 0x20A JUMPI PUSH1 0x4 CALLDATALOAD PUSH1 0x1 PUSH1 0x1 PUSH1 0x40 SHL SUB DUP2 GT PUSH2 0x20A JUMPI PUSH1 0x20 PUSH2 0x1934 PUSH2 0x1947 SWAP3 CALLDATASIZE SWAP1 PUSH1 0x4 ADD PUSH2 0x2F27 JUMP JUMPDEST DUP2 PUSH1 0x40 MLOAD SWAP4 DUP3 DUP6 DUP1 SWAP5 MLOAD SWAP4 DUP5 SWAP3 ADD PUSH2 0x2C5F JUMP JUMPDEST DUP2 ADD PUSH1 0x11 DUP2 MSTORE SUB ADD SWAP1 KECCAK256 PUSH1 0x40 MLOAD PUSH2 0x1962 DUP2 PUSH2 0x288 DUP2 DUP6 PUSH2 0x2D91 JUMP JUMPDEST PUSH2 0x2A3 PUSH1 0x4 PUSH1 0x40 MLOAD SWAP4 PUSH2 0x197C DUP6 PUSH2 0x42C DUP2 PUSH1 0x1 DUP6 ADD PUSH2 0x2D91 JUMP JUMPDEST PUSH1 0x40 MLOAD PUSH2 0x1990 DUP2 PUSH2 0x288 DUP2 PUSH1 0x2 DUP7 ADD PUSH2 0x2D91 JUMP JUMPDEST PUSH2 0x4BB PUSH1 0x40 MLOAD SWAP3 PUSH2 0x4A4 DUP5 PUSH2 0x49D DUP2 PUSH1 0x3 DUP6 ADD PUSH2 0x2D91 JUMP JUMPDEST CALLVALUE PUSH2 0x20A JUMPI PUSH1 0x0 CALLDATASIZE PUSH1 0x3 NOT ADD SLT PUSH2 0x20A JUMPI PUSH1 0xA SLOAD PUSH2 0x19C5 DUP2 PUSH2 0x3378 JUMP JUMPDEST SWAP1 PUSH2 0x19D3 PUSH1 0x40 MLOAD SWAP3 DUP4 PUSH2 0x2EAF JUMP JUMPDEST DUP1 DUP3 MSTORE PUSH1 0x20 SWAP1 DUP2 DUP4 ADD SWAP1 DUP2 PUSH1 0xA PUSH1 0x0 MSTORE PUSH32 0xC65A7BB8D6351C1CF70C95A316CC6A92839C986682D98BC35F958F4883F9D2A8 PUSH1 0x0 SWAP2 JUMPDEST DUP4 DUP4 LT PUSH2 0x1A6F JUMPI POP POP POP POP PUSH1 0x40 MLOAD SWAP2 DUP1 DUP4 ADD SWAP4 DUP2 DUP5 MSTORE MLOAD DUP1 SWAP5 MSTORE PUSH1 0x40 DUP4 ADD SWAP4 PUSH1 0x40 DUP2 PUSH1 0x5 SHL DUP6 ADD ADD SWAP3 SWAP2 PUSH1 0x0 SWAP6 JUMPDEST DUP3 DUP8 LT PUSH2 0x1A43 JUMPI DUP6 DUP6 SUB DUP7 RETURN JUMPDEST SWAP1 SWAP2 SWAP3 SWAP4 DUP3 DUP1 PUSH2 0x1A5F PUSH1 0x1 SWAP4 PUSH1 0x3F NOT DUP11 DUP3 SUB ADD DUP7 MSTORE DUP9 MLOAD PUSH2 0x313A JUMP JUMPDEST SWAP7 ADD SWAP3 ADD SWAP7 ADD SWAP6 SWAP3 SWAP2 SWAP1 SWAP3 PUSH2 0x1A36 JUMP JUMPDEST PUSH1 0xE DUP7 PUSH1 0x1 SWAP3 PUSH2 0x1A81 DUP6 SWAP11 SWAP10 SWAP11 PUSH2 0x454B JUMP JUMPDEST DUP2 MSTORE ADD SWAP3 ADD SWAP3 ADD SWAP2 SWAP1 SWAP6 SWAP5 SWAP6 PUSH2 0x1A08 JUMP JUMPDEST CALLVALUE PUSH2 0x20A JUMPI PUSH1 0x0 CALLDATASIZE PUSH1 0x3 NOT ADD SLT PUSH2 0x20A JUMPI PUSH1 0x6 SLOAD PUSH2 0x1AAF DUP2 PUSH2 0x3378 JUMP JUMPDEST SWAP1 PUSH2 0x1ABD PUSH1 0x40 MLOAD SWAP3 DUP4 PUSH2 0x2EAF JUMP JUMPDEST DUP1 DUP3 MSTORE PUSH1 0x20 SWAP1 DUP2 DUP4 ADD PUSH1 0x6 PUSH1 0x0 MSTORE PUSH32 0xF652222313E28459528D920B65115C16C04F3EFC82AAEDC97BE59F3F377C0D3F DUP4 PUSH1 0x0 SWAP3 JUMPDEST DUP5 DUP5 LT PUSH2 0x1B0B JUMPI PUSH1 0x40 MLOAD DUP3 DUP2 MSTORE DUP1 PUSH2 0x2A3 DUP2 DUP6 ADD DUP11 PUSH2 0x30DE JUMP JUMPDEST PUSH1 0x1 SWAP2 PUSH1 0x12 SWAP2 PUSH2 0x1B1A DUP6 PUSH2 0x3D58 JUMP JUMPDEST DUP2 MSTORE ADD SWAP3 ADD SWAP3 ADD SWAP2 SWAP1 DUP5 SWAP1 PUSH2 0x1AF1 JUMP JUMPDEST PUSH2 0x1A0 CALLDATASIZE PUSH1 0x3 NOT ADD SLT PUSH2 0x20A JUMPI PUSH1 0x4 CALLDATALOAD PUSH1 0x1 PUSH1 0x1 PUSH1 0x40 SHL SUB DUP2 GT PUSH2 0x20A JUMPI PUSH2 0x1B56 SWAP1 CALLDATASIZE SWAP1 PUSH1 0x4 ADD PUSH2 0x2F27 JUMP JUMPDEST PUSH1 0x64 CALLDATALOAD PUSH1 0x1 PUSH1 0x1 PUSH1 0x40 SHL SUB DUP2 GT PUSH2 0x20A JUMPI PUSH2 0x1B75 SWAP1 CALLDATASIZE SWAP1 PUSH1 0x4 ADD PUSH2 0x2F27 JUMP JUMPDEST SWAP1 PUSH1 0x84 CALLDATALOAD PUSH1 0x1 PUSH1 0x1 PUSH1 0x40 SHL SUB DUP2 GT PUSH2 0x20A JUMPI PUSH2 0x1B95 SWAP1 CALLDATASIZE SWAP1 PUSH1 0x4 ADD PUSH2 0x2F27 JUMP JUMPDEST SWAP2 PUSH1 0xA4 CALLDATALOAD PUSH1 0x1 PUSH1 0x1 PUSH1 0x40 SHL SUB DUP2 GT PUSH2 0x20A JUMPI PUSH2 0x1BB5 SWAP1 CALLDATASIZE SWAP1 PUSH1 0x4 ADD PUSH2 0x2F27 JUMP JUMPDEST PUSH1 0xC4 CALLDATALOAD PUSH1 0x1 PUSH1 0x1 PUSH1 0x40 SHL SUB DUP2 GT PUSH2 0x20A JUMPI PUSH2 0x1BD4 SWAP1 CALLDATASIZE SWAP1 PUSH1 0x4 ADD PUSH2 0x2F27 JUMP JUMPDEST SWAP1 PUSH1 0xE4 CALLDATALOAD PUSH1 0x1 PUSH1 0x1 PUSH1 0x40 SHL SUB DUP2 GT PUSH2 0x20A JUMPI PUSH2 0x1BF4 SWAP1 CALLDATASIZE SWAP1 PUSH1 0x4 ADD PUSH2 0x2F27 JUMP JUMPDEST SWAP2 PUSH2 0x104 CALLDATALOAD PUSH1 0x1 PUSH1 0x1 PUSH1 0x40 SHL SUB DUP2 GT PUSH2 0x20A JUMPI PUSH2 0x1C15 SWAP1 CALLDATASIZE SWAP1 PUSH1 0x4 ADD PUSH2 0x2F27 JUMP JUMPDEST PUSH2 0x124 CALLDATALOAD PUSH1 0x1 PUSH1 0x1 PUSH1 0x40 SHL SUB DUP2 GT PUSH2 0x20A JUMPI PUSH2 0x1C35 SWAP1 CALLDATASIZE SWAP1 PUSH1 0x4 ADD PUSH2 0x2F27 JUMP JUMPDEST SWAP1 PUSH2 0x144 CALLDATALOAD PUSH1 0x1 PUSH1 0x1 PUSH1 0x40 SHL SUB DUP2 GT PUSH2 0x20A JUMPI PUSH2 0x1C56 SWAP1 CALLDATASIZE SWAP1 PUSH1 0x4 ADD PUSH2 0x2F27 JUMP JUMPDEST SWAP3 PUSH2 0x164 CALLDATALOAD PUSH1 0x1 PUSH1 0x1 PUSH1 0x40 SHL SUB DUP2 GT PUSH2 0x20A JUMPI PUSH2 0x1C77 SWAP1 CALLDATASIZE SWAP1 PUSH1 0x4 ADD PUSH2 0x2F27 JUMP JUMPDEST SWAP5 PUSH1 0x1 PUSH1 0x1 PUSH1 0x40 SHL SUB PUSH2 0x184 CALLDATALOAD GT PUSH2 0x20A JUMPI PUSH2 0x1C99 CALLDATASIZE PUSH2 0x184 CALLDATALOAD PUSH1 0x4 ADD PUSH2 0x2F27 JUMP JUMPDEST CALLER PUSH1 0x0 DUP2 DUP2 MSTORE PUSH1 0x5 PUSH1 0x20 MSTORE PUSH1 0x40 SWAP1 KECCAK256 SLOAD SWAP2 SWAP12 SWAP2 PUSH1 0x1 PUSH1 0x1 PUSH1 0xA0 SHL SUB AND EQ PUSH2 0x1F89 JUMPI PUSH1 0x6 SLOAD PUSH1 0x0 JUMPDEST DUP2 DUP2 LT PUSH2 0x1E7C JUMPI POP POP PUSH2 0x1CD2 DUP12 PUSH2 0x3FC5 JUMP JUMPDEST PUSH1 0x40 MLOAD SWAP11 PUSH2 0x1CDF DUP13 PUSH2 0x2E5D JUMP JUMPDEST CALLER DUP13 MSTORE DUP11 PUSH1 0x20 DUP14 ADD MSTORE PUSH1 0x24 CALLDATALOAD PUSH1 0x40 DUP14 ADD MSTORE PUSH1 0x44 CALLDATALOAD PUSH1 0x60 DUP14 ADD MSTORE PUSH1 0x80 DUP13 ADD MSTORE PUSH1 0xA0 DUP12 ADD MSTORE PUSH1 0xC0 DUP11 ADD MSTORE PUSH1 0xE0 DUP10 ADD MSTORE PUSH2 0x100 DUP9 ADD MSTORE PUSH2 0x120 DUP8 ADD MSTORE PUSH2 0x140 DUP7 ADD MSTORE PUSH2 0x160 DUP6 ADD MSTORE PUSH1 0x40 MLOAD SWAP4 PUSH2 0x1D31 DUP6 PUSH2 0x2E79 JUMP JUMPDEST DUP5 MSTORE PUSH1 0x20 DUP5 ADD MSTORE PUSH1 0x40 MLOAD PUSH2 0x1D44 DUP2 PUSH2 0x2E94 JUMP JUMPDEST PUSH1 0x0 DUP2 MSTORE PUSH1 0x40 DUP5 ADD MSTORE PUSH1 0x40 MLOAD PUSH2 0x1D59 DUP2 PUSH2 0x2E94 JUMP JUMPDEST PUSH1 0x0 DUP2 MSTORE PUSH1 0x60 DUP5 ADD MSTORE PUSH1 0x80 DUP4 ADD MSTORE PUSH1 0x0 PUSH1 0xA0 DUP4 ADD MSTORE PUSH1 0x60 PUSH1 0xC0 DUP4 ADD MSTORE CALLER PUSH1 0x0 MSTORE PUSH1 0x5 PUSH1 0x20 MSTORE PUSH2 0x1D8C DUP3 PUSH1 0x40 PUSH1 0x0 KECCAK256 PUSH2 0x394E JUMP JUMPDEST PUSH1 0x7 SLOAD PUSH1 0x1 PUSH1 0x40 SHL SWAP2 DUP3 DUP3 LT ISZERO PUSH2 0x15F6 JUMPI PUSH1 0x1 DUP3 ADD DUP1 PUSH1 0x7 SSTORE DUP3 LT ISZERO PUSH2 0x1E66 JUMPI PUSH2 0x1DDC SWAP2 PUSH1 0x7 PUSH1 0x0 MSTORE PUSH32 0xA66CC928B5EDB82AF9BD49922954155AB7B0942694BEA4CE44661D9A8736C688 ADD PUSH2 0x3714 JUMP JUMPDEST PUSH1 0x6 SLOAD SWAP1 DUP2 LT ISZERO PUSH2 0x15F6 JUMPI DUP1 PUSH1 0x1 PUSH2 0x1DF7 SWAP3 ADD PUSH1 0x6 SSTORE PUSH2 0x34D5 JUMP JUMPDEST PUSH2 0x15E0 JUMPI DUP2 PUSH2 0x1E05 SWAP2 PUSH2 0x394E JUMP JUMPDEST PUSH1 0x8 SLOAD PUSH1 0x1 DUP2 ADD DUP1 SWAP2 GT PUSH2 0x1E50 JUMPI PUSH32 0xBD7813B4659B0614F61B410071FD949AA054D01B83458E9418DA207FA0A15260 SWAP2 PUSH2 0xAE5 SWAP2 PUSH1 0x8 SSTORE PUSH1 0x40 MLOAD SWAP2 DUP3 SWAP2 PUSH1 0x20 DUP4 MSTORE PUSH1 0x20 DUP4 ADD SWAP1 PUSH2 0x3068 JUMP JUMPDEST PUSH4 0x4E487B71 PUSH1 0xE0 SHL PUSH1 0x0 MSTORE PUSH1 0x11 PUSH1 0x4 MSTORE PUSH1 0x24 PUSH1 0x0 REVERT JUMPDEST PUSH4 0x4E487B71 PUSH1 0xE0 SHL PUSH1 0x0 MSTORE PUSH1 0x32 PUSH1 0x4 MSTORE PUSH1 0x24 PUSH1 0x0 REVERT JUMPDEST PUSH2 0x1E85 DUP2 PUSH2 0x34D5 JUMP JUMPDEST POP PUSH1 0x2 ADD SLOAD PUSH1 0x24 CALLDATALOAD EQ PUSH2 0x1F1E JUMPI PUSH2 0x1EA0 PUSH1 0x6 PUSH2 0x12FC DUP4 PUSH2 0x34D5 JUMP JUMPDEST PUSH1 0x20 DUP2 MLOAD SWAP2 ADD KECCAK256 DUP5 MLOAD PUSH1 0x20 DUP7 ADD KECCAK256 EQ PUSH2 0x1EC1 JUMPI PUSH2 0x1EBC SWAP1 PUSH2 0x3567 JUMP JUMPDEST PUSH2 0x1CC0 JUMP JUMPDEST PUSH1 0x40 MLOAD PUSH3 0x461BCD PUSH1 0xE5 SHL DUP2 MSTORE PUSH1 0x20 PUSH1 0x4 DUP3 ADD MSTORE PUSH1 0x2F PUSH1 0x24 DUP3 ADD MSTORE PUSH32 0x43616E646964617465207769746820676976656E20656D61696C20616C726561 PUSH1 0x44 DUP3 ADD MSTORE PUSH15 0x647920726567697374657265642021 PUSH1 0x88 SHL PUSH1 0x64 DUP3 ADD MSTORE PUSH1 0x84 SWAP1 REVERT JUMPDEST PUSH1 0x40 MLOAD PUSH3 0x461BCD PUSH1 0xE5 SHL DUP2 MSTORE PUSH1 0x20 PUSH1 0x4 DUP3 ADD MSTORE PUSH1 0x39 PUSH1 0x24 DUP3 ADD MSTORE PUSH32 0x43616E646964617465207769746820676976656E20436974697A656E73686970 PUSH1 0x44 DUP3 ADD MSTORE PUSH32 0x204E6F2E20616C72656164792072656769737465726564202100000000000000 PUSH1 0x64 DUP3 ADD MSTORE PUSH1 0x84 SWAP1 REVERT JUMPDEST PUSH1 0x40 MLOAD PUSH3 0x461BCD PUSH1 0xE5 SHL DUP2 MSTORE PUSH1 0x20 PUSH1 0x4 DUP3 ADD MSTORE PUSH1 0x1E PUSH1 0x24 DUP3 ADD MSTORE PUSH32 0x43616E64696461746520616C7265616479207265676973746572656420210000 PUSH1 0x44 DUP3 ADD MSTORE PUSH1 0x64 SWAP1 REVERT JUMPDEST CALLVALUE PUSH2 0x20A JUMPI PUSH1 0x0 CALLDATASIZE PUSH1 0x3 NOT ADD SLT PUSH2 0x20A JUMPI PUSH1 0x14 SLOAD PUSH2 0x1FEB DUP2 PUSH2 0x3378 JUMP JUMPDEST SWAP1 PUSH2 0x1FF9 PUSH1 0x40 MLOAD SWAP3 DUP4 PUSH2 0x2EAF JUMP JUMPDEST DUP1 DUP3 MSTORE PUSH1 0x20 DUP3 ADD SWAP1 DUP2 PUSH1 0x14 PUSH1 0x0 MSTORE PUSH32 0xCE6D7B5282BD9A3661AE061FEED1DBDA4E52AB073B1F9285BE6E155D9C38D4EC PUSH1 0x0 SWAP2 JUMPDEST DUP4 DUP4 LT PUSH2 0x218C JUMPI DUP5 DUP7 PUSH1 0x40 MLOAD SWAP2 DUP3 SWAP2 PUSH1 0x20 DUP4 ADD SWAP1 PUSH1 0x20 DUP5 MSTORE MLOAD DUP1 SWAP2 MSTORE PUSH1 0x40 DUP4 ADD SWAP1 PUSH1 0x5 PUSH1 0x40 DUP3 DUP3 SHL DUP7 ADD ADD SWAP4 SWAP3 PUSH1 0x0 SWAP2 JUMPDEST DUP4 DUP4 LT PUSH2 0x206A JUMPI DUP7 DUP7 SUB DUP8 RETURN JUMPDEST SWAP2 SWAP4 SWAP6 POP SWAP2 SWAP4 PUSH1 0x3F NOT DUP8 DUP3 SUB ADD DUP4 MSTORE DUP6 MLOAD SWAP1 PUSH1 0x1 DUP1 PUSH1 0xA0 SHL SUB SWAP1 DUP2 DUP4 MLOAD AND DUP2 MSTORE PUSH2 0x20B7 PUSH2 0x20A5 PUSH1 0x20 DUP6 ADD MLOAD PUSH1 0xC0 DUP1 PUSH1 0x20 DUP7 ADD MSTORE DUP5 ADD SWAP1 PUSH2 0x2C82 JUMP JUMPDEST PUSH1 0x40 DUP6 ADD MLOAD DUP4 DUP3 SUB PUSH1 0x40 DUP6 ADD MSTORE PUSH2 0x2C82 JUMP JUMPDEST SWAP1 PUSH2 0x20E4 PUSH2 0x20D1 PUSH1 0x60 SWAP4 DUP5 DUP8 ADD MLOAD DUP5 DUP3 SUB DUP7 DUP7 ADD MSTORE PUSH2 0x2C82 JUMP JUMPDEST PUSH1 0x80 DUP1 DUP8 ADD MLOAD SWAP1 DUP5 DUP4 SUB SWAP1 DUP6 ADD MSTORE PUSH2 0x2C82 JUMP JUMPDEST SWAP1 PUSH1 0xA0 DUP1 SWAP6 ADD MLOAD SWAP5 DUP2 DUP4 SUB SWAP2 ADD MSTORE DUP4 MLOAD SWAP1 DUP2 DUP2 MSTORE PUSH1 0x20 DUP2 ADD SWAP3 PUSH1 0x20 DUP1 DUP5 DUP10 SHL DUP5 ADD ADD SWAP7 ADD SWAP5 PUSH1 0x0 SWAP2 JUMPDEST DUP5 DUP4 LT PUSH2 0x2133 JUMPI POP POP POP POP POP POP POP PUSH1 0x20 DUP1 PUSH1 0x1 SWAP3 SWAP8 ADD SWAP4 ADD SWAP4 ADD SWAP1 SWAP3 DUP7 SWAP6 SWAP5 SWAP3 SWAP4 PUSH2 0x205D JUMP JUMPDEST SWAP1 SWAP2 SWAP3 SWAP4 SWAP5 SWAP6 SWAP7 PUSH1 0x20 DUP1 PUSH2 0x217D PUSH1 0x1 SWAP4 PUSH1 0x1F NOT DUP10 DUP3 SUB ADD DUP12 MSTORE DUP12 MLOAD SWAP1 DUP8 DUP3 MLOAD AND DUP2 MSTORE PUSH1 0x40 PUSH2 0x216C DUP6 DUP5 ADD MLOAD DUP10 DUP8 DUP6 ADD MSTORE DUP10 DUP5 ADD SWAP1 PUSH2 0x2C82 JUMP JUMPDEST SWAP3 ADD MLOAD SWAP1 PUSH1 0x40 DUP2 DUP5 SUB SWAP2 ADD MSTORE PUSH2 0x2C82 JUMP JUMPDEST SWAP10 ADD SWAP8 ADD SWAP6 SWAP5 SWAP4 ADD SWAP2 SWAP1 PUSH2 0x210D JUMP JUMPDEST PUSH1 0x40 MLOAD PUSH2 0x2198 DUP2 PUSH2 0x2E27 JUMP JUMPDEST DUP3 SLOAD PUSH1 0x1 PUSH1 0x1 PUSH1 0xA0 SHL SUB AND DUP2 MSTORE PUSH1 0x40 MLOAD PUSH2 0x21B9 DUP2 PUSH2 0x288 DUP2 PUSH1 0x1 DUP9 ADD PUSH2 0x2D91 JUMP JUMPDEST PUSH1 0x20 DUP3 ADD MSTORE PUSH1 0x40 MLOAD PUSH2 0x21D2 DUP2 PUSH2 0x288 DUP2 PUSH1 0x2 DUP9 ADD PUSH2 0x2D91 JUMP JUMPDEST PUSH1 0x40 DUP3 ADD MSTORE PUSH1 0x40 MLOAD PUSH2 0x21EB DUP2 PUSH2 0x288 DUP2 PUSH1 0x3 DUP9 ADD PUSH2 0x2D91 JUMP JUMPDEST PUSH1 0x60 DUP3 ADD MSTORE PUSH1 0x40 MLOAD PUSH2 0x2204 DUP2 PUSH2 0x288 DUP2 PUSH1 0x4 DUP9 ADD PUSH2 0x2D91 JUMP JUMPDEST PUSH1 0x80 DUP3 ADD MSTORE PUSH1 0x5 DUP4 ADD SLOAD PUSH2 0x2217 DUP2 PUSH2 0x3378 JUMP JUMPDEST SWAP1 PUSH2 0x2225 PUSH1 0x40 MLOAD SWAP3 DUP4 PUSH2 0x2EAF JUMP JUMPDEST DUP1 DUP3 MSTORE PUSH1 0x20 DUP3 ADD PUSH1 0x5 DUP7 ADD PUSH1 0x0 MSTORE PUSH1 0x20 PUSH1 0x0 KECCAK256 SWAP1 PUSH1 0x0 SWAP1 JUMPDEST DUP4 DUP3 LT PUSH2 0x2264 JUMPI POP POP POP POP PUSH1 0x1 SWAP3 DUP3 PUSH1 0x20 SWAP3 PUSH1 0xA0 PUSH1 0x6 SWAP6 ADD MSTORE DUP2 MSTORE ADD SWAP3 ADD SWAP3 ADD SWAP2 SWAP1 PUSH2 0x202C JUMP JUMPDEST PUSH1 0x3 PUSH1 0x20 PUSH1 0x1 SWAP3 PUSH1 0x40 MLOAD PUSH2 0x2277 DUP2 PUSH2 0x2E42 JUMP JUMPDEST DUP5 DUP1 PUSH1 0xA0 SHL SUB DUP8 SLOAD AND DUP2 MSTORE PUSH1 0x40 MLOAD PUSH2 0x2295 DUP2 PUSH2 0x288 DUP2 DUP10 DUP13 ADD PUSH2 0x2D91 JUMP JUMPDEST DUP4 DUP3 ADD MSTORE PUSH1 0x40 MLOAD PUSH2 0x22AD DUP2 PUSH2 0x288 DUP2 PUSH1 0x2 DUP13 ADD PUSH2 0x2D91 JUMP JUMPDEST PUSH1 0x40 DUP3 ADD MSTORE DUP2 MSTORE ADD SWAP4 ADD SWAP2 ADD SWAP1 SWAP2 PUSH2 0x223D JUMP JUMPDEST CALLVALUE PUSH2 0x20A JUMPI PUSH1 0x20 CALLDATASIZE PUSH1 0x3 NOT ADD SLT PUSH2 0x20A JUMPI PUSH1 0x20 PUSH2 0x22DB PUSH2 0x2C49 JUMP JUMPDEST PUSH1 0x1 SLOAD PUSH1 0x40 MLOAD PUSH1 0x1 PUSH1 0x1 PUSH1 0xA0 SHL SUB SWAP3 DUP4 AND SWAP2 SWAP1 SWAP3 AND EQ DUP2 MSTORE RETURN JUMPDEST PUSH1 0x80 CALLDATASIZE PUSH1 0x3 NOT ADD SLT PUSH2 0x20A JUMPI PUSH1 0x1 PUSH1 0x1 PUSH1 0x40 SHL SUB PUSH1 0x4 CALLDATALOAD DUP2 DUP2 GT PUSH2 0x20A JUMPI PUSH2 0x2321 SWAP1 CALLDATASIZE SWAP1 PUSH1 0x4 ADD PUSH2 0x2F27 JUMP JUMPDEST SWAP1 PUSH1 0x44 CALLDATALOAD DUP2 DUP2 GT PUSH2 0x20A JUMPI PUSH2 0x233A SWAP1 CALLDATASIZE SWAP1 PUSH1 0x4 ADD PUSH2 0x2F27 JUMP JUMPDEST SWAP1 PUSH1 0x64 CALLDATALOAD SWAP1 DUP2 GT PUSH2 0x20A JUMPI PUSH2 0x2353 SWAP1 CALLDATASIZE SWAP1 PUSH1 0x4 ADD PUSH2 0x2F27 JUMP JUMPDEST PUSH1 0x1 SLOAD SWAP1 SWAP3 SWAP1 PUSH1 0x1 PUSH1 0x1 PUSH1 0xA0 SHL SUB AND PUSH2 0x236D CALLER DUP3 EQ PUSH2 0x36A2 JUMP JUMPDEST PUSH1 0x40 MLOAD SWAP4 PUSH2 0x237A DUP6 PUSH2 0x2E27 JUMP JUMPDEST DUP2 DUP6 MSTORE DUP3 PUSH1 0x20 DUP7 ADD MSTORE PUSH1 0x24 SWAP4 DUP5 CALLDATALOAD PUSH1 0x40 DUP8 ADD MSTORE PUSH1 0x60 DUP7 ADD MSTORE PUSH1 0x80 DUP6 ADD MSTORE PUSH1 0x60 PUSH1 0xA0 DUP6 ADD MSTORE PUSH1 0x0 MSTORE PUSH1 0xE PUSH1 0x20 MSTORE PUSH2 0x23B4 DUP4 PUSH1 0x40 PUSH1 0x0 KECCAK256 PUSH2 0x384C JUMP JUMPDEST PUSH1 0x10 SLOAD SWAP1 PUSH1 0x1 PUSH1 0x40 SHL SWAP2 DUP3 DUP2 LT ISZERO PUSH2 0xB14 JUMPI PUSH1 0x1 DUP2 ADD DUP1 PUSH1 0x10 SSTORE DUP2 LT ISZERO PUSH2 0x24DE JUMPI SWAP1 PUSH2 0x2406 SWAP2 PUSH1 0x10 PUSH1 0x0 MSTORE PUSH32 0x1B6847DC741A1B0CD08D278845F9D819D87B734759AFB55FE2DE5CB82A9AE672 ADD PUSH2 0x3714 JUMP JUMPDEST PUSH1 0xF SLOAD SWAP1 DUP2 LT ISZERO PUSH2 0x24C9 JUMPI PUSH1 0x1 DUP2 ADD DUP1 PUSH1 0xF SSTORE DUP2 LT ISZERO PUSH2 0x24B4 JUMPI DUP3 PUSH1 0x6 PUSH2 0x2454 SWAP3 PUSH1 0xF PUSH1 0x0 MSTORE MUL PUSH32 0x8D1108E10BCB7C27DDDFC02ED9D693A074039D026CF4EA4240B40F7D581AC802 ADD PUSH2 0x384C JUMP JUMPDEST PUSH1 0x15 SLOAD SWAP1 PUSH1 0x1 DUP3 ADD DUP1 SWAP3 GT PUSH2 0x24A0 JUMPI PUSH32 0xA9842A716BC2513F613D9FAF736CA365FE3689A18EA2C3EF8BB9402C98A060C1 PUSH2 0xAE5 DUP5 DUP5 PUSH1 0x15 SSTORE PUSH1 0x40 MLOAD SWAP2 DUP3 SWAP2 PUSH1 0x20 DUP4 MSTORE PUSH1 0x20 DUP4 ADD SWAP1 PUSH2 0x2CE4 JUMP JUMPDEST PUSH4 0x4E487B71 PUSH1 0xE0 SHL PUSH1 0x0 SWAP1 DUP2 MSTORE PUSH1 0x11 PUSH1 0x4 MSTORE REVERT JUMPDEST POP PUSH4 0x4E487B71 PUSH1 0xE0 SHL PUSH1 0x0 SWAP1 DUP2 MSTORE PUSH1 0x32 PUSH1 0x4 MSTORE REVERT JUMPDEST POP PUSH4 0x4E487B71 PUSH1 0xE0 SHL PUSH1 0x0 SWAP1 DUP2 MSTORE PUSH1 0x41 PUSH1 0x4 MSTORE REVERT JUMPDEST DUP4 PUSH4 0x4E487B71 PUSH1 0xE0 SHL PUSH1 0x0 MSTORE PUSH1 0x32 PUSH1 0x4 MSTORE PUSH1 0x0 REVERT JUMPDEST PUSH1 0x40 CALLDATASIZE PUSH1 0x3 NOT ADD SLT PUSH2 0x20A JUMPI PUSH2 0x2507 PUSH2 0x2C49 JUMP JUMPDEST PUSH1 0x24 CALLDATALOAD PUSH1 0x1 PUSH1 0x1 PUSH1 0x40 SHL SUB DUP2 GT PUSH2 0x20A JUMPI PUSH2 0x2526 SWAP1 CALLDATASIZE SWAP1 PUSH1 0x4 ADD PUSH2 0x2F27 JUMP JUMPDEST SWAP1 PUSH1 0x1 DUP1 PUSH1 0xA0 SHL SUB PUSH1 0x1 SLOAD AND CALLER EQ PUSH2 0x2AB7 JUMPI PUSH1 0x6 SLOAD PUSH1 0x0 JUMPDEST DUP2 DUP2 LT PUSH2 0x2A4A JUMPI POP POP CALLER PUSH1 0x0 MSTORE PUSH1 0x9 PUSH1 0x20 MSTORE PUSH1 0x3 PUSH1 0xD PUSH1 0x40 PUSH1 0x0 KECCAK256 ADD SLOAD GT PUSH2 0x29F7 JUMPI PUSH1 0x0 JUMPDEST PUSH1 0x1 PUSH1 0x1 PUSH1 0xA0 SHL SUB DUP3 AND PUSH1 0x0 SWAP1 DUP2 MSTORE PUSH1 0x5 PUSH1 0x20 MSTORE PUSH1 0x40 SWAP1 KECCAK256 PUSH1 0x11 SWAP1 DUP2 ADD SLOAD DUP3 LT ISZERO PUSH2 0x2603 JUMPI DUP2 PUSH2 0x2598 SWAP2 PUSH1 0x40 PUSH1 0x0 KECCAK256 ADD PUSH2 0x3325 JUMP JUMPDEST SWAP1 SLOAD PUSH1 0x3 SWAP2 SWAP1 SWAP2 SHL SHR PUSH1 0x1 PUSH1 0x1 PUSH1 0xA0 SHL SUB AND CALLER EQ PUSH2 0x25BE JUMPI PUSH2 0x25B9 SWAP1 PUSH2 0x3567 JUMP JUMPDEST PUSH2 0x2563 JUMP JUMPDEST PUSH1 0x40 MLOAD PUSH3 0x461BCD PUSH1 0xE5 SHL DUP2 MSTORE PUSH1 0x20 PUSH1 0x4 DUP3 ADD MSTORE PUSH1 0x18 PUSH1 0x24 DUP3 ADD MSTORE PUSH32 0x596F75206861766520616C726561647920766F74656420210000000000000000 PUSH1 0x44 DUP3 ADD MSTORE PUSH1 0x64 SWAP1 REVERT JUMPDEST POP POP PUSH1 0x1 DUP1 PUSH1 0xA0 SHL SUB DUP2 AND PUSH1 0x0 MSTORE PUSH1 0x5 PUSH1 0x20 MSTORE PUSH2 0x2627 CALLER PUSH1 0x11 PUSH1 0x40 PUSH1 0x0 KECCAK256 ADD PUSH2 0x3576 JUMP JUMPDEST CALLER PUSH1 0x0 MSTORE PUSH1 0x9 PUSH1 0x20 MSTORE PUSH2 0x2641 DUP2 PUSH1 0xC PUSH1 0x40 PUSH1 0x0 KECCAK256 ADD PUSH2 0x3576 JUMP JUMPDEST PUSH1 0x1 PUSH1 0x1 PUSH1 0xA0 SHL SUB DUP2 AND PUSH1 0x0 SWAP1 DUP2 MSTORE PUSH1 0x5 PUSH1 0x20 MSTORE PUSH1 0x40 SWAP1 KECCAK256 PUSH1 0x10 ADD SLOAD PUSH1 0x1 DUP2 ADD DUP2 GT PUSH2 0x1E50 JUMPI PUSH1 0x1 SWAP1 DUP2 DUP1 PUSH1 0xA0 SHL SUB DUP4 AND PUSH1 0x0 MSTORE PUSH1 0x5 PUSH1 0x20 MSTORE ADD PUSH1 0x10 PUSH1 0x40 PUSH1 0x0 KECCAK256 ADD SSTORE PUSH2 0x268F PUSH1 0xD SLOAD PUSH2 0x4588 JUMP JUMPDEST PUSH1 0xD SSTORE PUSH1 0x0 JUMPDEST PUSH1 0x13 SLOAD DUP2 LT ISZERO PUSH2 0x2779 JUMPI PUSH2 0x26AD PUSH1 0x2 PUSH2 0x12FC DUP4 PUSH2 0x352C JUMP JUMPDEST PUSH1 0x20 DUP2 MLOAD SWAP2 ADD KECCAK256 DUP4 MLOAD PUSH1 0x20 DUP6 ADD KECCAK256 EQ PUSH2 0x26CF JUMPI JUMPDEST PUSH2 0x26CA SWAP1 PUSH2 0x3567 JUMP JUMPDEST PUSH2 0x2695 JUMP JUMPDEST SWAP2 PUSH1 0x0 JUMPDEST PUSH1 0x5 PUSH2 0x26DE DUP6 PUSH2 0x352C JUMP JUMPDEST POP ADD SLOAD DUP2 LT ISZERO PUSH2 0x2772 JUMPI DUP1 PUSH2 0x2702 PUSH2 0x271B SWAP3 PUSH1 0x5 PUSH2 0x26FB DUP9 PUSH2 0x352C JUMP JUMPDEST POP ADD PUSH2 0x3510 JUMP JUMPDEST POP SLOAD PUSH1 0x1 PUSH1 0x1 PUSH1 0xA0 SHL SUB DUP6 DUP2 AND SWAP2 AND EQ PUSH2 0x2720 JUMPI PUSH2 0x3567 JUMP JUMPDEST PUSH2 0x26D3 JUMP JUMPDEST PUSH2 0x273D PUSH2 0x2732 DUP3 PUSH1 0x5 PUSH2 0x26FB DUP10 PUSH2 0x352C JUMP JUMPDEST POP PUSH1 0x11 CALLER SWAP2 ADD PUSH2 0x3576 JUMP JUMPDEST PUSH2 0x2759 PUSH1 0x10 PUSH2 0x2751 DUP4 PUSH1 0x5 PUSH2 0x26FB DUP11 PUSH2 0x352C JUMP JUMPDEST POP ADD SLOAD PUSH2 0x4588 JUMP JUMPDEST PUSH1 0x10 PUSH2 0x276A DUP4 PUSH1 0x5 PUSH2 0x26FB DUP11 PUSH2 0x352C JUMP JUMPDEST POP ADD SSTORE PUSH2 0x3567 JUMP JUMPDEST POP SWAP2 PUSH2 0x26C1 JUMP JUMPDEST POP PUSH1 0x0 JUMPDEST PUSH1 0x6 SLOAD DUP2 LT ISZERO PUSH2 0x27BE JUMPI DUP1 PUSH2 0x2794 PUSH2 0x27AD SWAP3 PUSH2 0x34D5 JUMP JUMPDEST POP SLOAD PUSH1 0x1 PUSH1 0x1 PUSH1 0xA0 SHL SUB DUP5 DUP2 AND SWAP2 AND EQ PUSH2 0x27B2 JUMPI PUSH2 0x3567 JUMP JUMPDEST PUSH2 0x277D JUMP JUMPDEST PUSH2 0x13B8 PUSH2 0x2732 DUP3 PUSH2 0x34D5 JUMP JUMPDEST POP PUSH1 0x0 JUMPDEST PUSH1 0xA SLOAD DUP2 LT ISZERO PUSH2 0x280A JUMPI DUP1 PUSH2 0x27D9 PUSH2 0x27EF SWAP3 PUSH2 0x31DC JUMP JUMPDEST POP SLOAD PUSH1 0x1 PUSH1 0x1 PUSH1 0xA0 SHL SUB AND CALLER EQ PUSH2 0x27F4 JUMPI PUSH2 0x3567 JUMP JUMPDEST PUSH2 0x27C2 JUMP JUMPDEST PUSH2 0x13B8 DUP4 PUSH1 0xC PUSH2 0x2803 DUP5 PUSH2 0x31DC JUMP JUMPDEST POP ADD PUSH2 0x3576 JUMP JUMPDEST POP CALLER PUSH1 0x0 MSTORE PUSH1 0x9 PUSH1 0x20 MSTORE PUSH2 0x2825 PUSH1 0xD PUSH1 0x40 PUSH1 0x0 KECCAK256 ADD SLOAD PUSH2 0x4588 JUMP JUMPDEST CALLER PUSH1 0x0 MSTORE PUSH1 0x9 PUSH1 0x20 MSTORE PUSH1 0xD PUSH1 0x40 PUSH1 0x0 KECCAK256 ADD SSTORE PUSH1 0x1 DUP1 PUSH1 0xA0 SHL SUB AND PUSH1 0x0 MSTORE PUSH1 0x5 PUSH1 0x20 MSTORE PUSH32 0x8290914339D7365303A413CD92C24712459932B4210891839D929FAFD3DD37BF PUSH2 0xAE5 PUSH1 0x40 PUSH1 0x0 KECCAK256 PUSH1 0x40 MLOAD SWAP2 DUP3 SWAP2 PUSH1 0x20 DUP4 MSTORE PUSH1 0xE0 PUSH1 0x20 DUP5 ADD MSTORE PUSH1 0x1 DUP1 PUSH1 0xA0 SHL SUB DUP2 SLOAD AND PUSH2 0x100 DUP5 ADD MSTORE PUSH1 0x11 PUSH2 0x2980 PUSH2 0x180 DUP1 PUSH2 0x120 DUP8 ADD MSTORE PUSH2 0x296C PUSH2 0x2958 PUSH2 0x2944 PUSH2 0x2930 PUSH2 0x291C PUSH2 0x2908 PUSH2 0x28F4 DUP11 DUP14 PUSH2 0x160 PUSH1 0x3 PUSH2 0x28CD PUSH2 0x280 DUP5 ADD PUSH1 0x1 DUP7 ADD PUSH2 0x2D91 JUMP JUMPDEST SWAP4 PUSH1 0x2 DUP2 ADD SLOAD PUSH2 0x140 DUP6 ADD MSTORE ADD SLOAD SWAP2 ADD MSTORE DUP14 PUSH1 0xFF NOT SWAP10 DUP11 DUP3 DUP5 SUB ADD SWAP2 ADD MSTORE PUSH1 0x4 DUP13 ADD PUSH2 0x2D91 JUMP JUMPDEST DUP13 DUP2 SUB DUP9 ADD PUSH2 0x1A0 DUP15 ADD MSTORE PUSH1 0x5 DUP12 ADD PUSH2 0x2D91 JUMP JUMPDEST DUP7 DUP13 DUP3 SUB ADD PUSH2 0x1C0 DUP14 ADD MSTORE PUSH1 0x6 DUP11 ADD PUSH2 0x2D91 JUMP JUMPDEST DUP6 DUP12 DUP3 SUB ADD PUSH2 0x1E0 DUP13 ADD MSTORE PUSH1 0x7 DUP10 ADD PUSH2 0x2D91 JUMP JUMPDEST DUP5 DUP11 DUP3 SUB ADD PUSH2 0x200 DUP12 ADD MSTORE PUSH1 0x8 DUP9 ADD PUSH2 0x2D91 JUMP JUMPDEST DUP4 DUP10 DUP3 SUB ADD PUSH2 0x220 DUP11 ADD MSTORE PUSH1 0x9 DUP8 ADD PUSH2 0x2D91 JUMP JUMPDEST DUP3 DUP9 DUP3 SUB ADD PUSH2 0x240 DUP10 ADD MSTORE PUSH1 0xA DUP7 ADD PUSH2 0x2D91 JUMP JUMPDEST SWAP1 DUP7 DUP3 SUB ADD PUSH2 0x260 DUP8 ADD MSTORE PUSH1 0xB DUP5 ADD PUSH2 0x2D91 JUMP JUMPDEST SWAP2 PUSH2 0x29DD PUSH2 0x29CA PUSH2 0x29B7 PUSH2 0x29A4 PUSH1 0x1F NOT SWAP7 DUP8 DUP11 DUP3 SUB ADD PUSH1 0x40 DUP12 ADD MSTORE PUSH1 0xC DUP7 ADD PUSH2 0x2D91 JUMP JUMPDEST DUP7 DUP10 DUP3 SUB ADD PUSH1 0x60 DUP11 ADD MSTORE PUSH1 0xD DUP6 ADD PUSH2 0x2D91 JUMP JUMPDEST DUP6 DUP9 DUP3 SUB ADD PUSH1 0x80 DUP10 ADD MSTORE PUSH1 0xE DUP5 ADD PUSH2 0x2D91 JUMP JUMPDEST DUP5 DUP8 DUP3 SUB ADD PUSH1 0xA0 DUP9 ADD MSTORE PUSH1 0xF DUP4 ADD PUSH2 0x2D91 JUMP JUMPDEST SWAP3 PUSH1 0x10 DUP3 ADD SLOAD PUSH1 0xC0 DUP8 ADD MSTORE DUP6 DUP5 SUB ADD PUSH1 0xE0 DUP7 ADD MSTORE ADD PUSH2 0x365C JUMP JUMPDEST PUSH1 0x40 MLOAD PUSH3 0x461BCD PUSH1 0xE5 SHL DUP2 MSTORE PUSH1 0x20 PUSH1 0x4 DUP3 ADD MSTORE PUSH1 0x25 PUSH1 0x24 DUP3 ADD MSTORE PUSH32 0x596F752068617665206578636565642074686520766F7465206361737465206C PUSH1 0x44 DUP3 ADD MSTORE PUSH5 0x34B6B4BA17 PUSH1 0xD9 SHL PUSH1 0x64 DUP3 ADD MSTORE PUSH1 0x84 SWAP1 REVERT JUMPDEST PUSH2 0x2A53 DUP2 PUSH2 0x34D5 JUMP JUMPDEST POP SLOAD PUSH1 0x1 PUSH1 0x1 PUSH1 0xA0 SHL SUB AND CALLER EQ PUSH2 0x2A72 JUMPI PUSH2 0x2A6D SWAP1 PUSH2 0x3567 JUMP JUMPDEST PUSH2 0x253E JUMP JUMPDEST PUSH1 0x40 MLOAD PUSH3 0x461BCD PUSH1 0xE5 SHL DUP2 MSTORE PUSH1 0x20 PUSH1 0x4 DUP3 ADD MSTORE PUSH1 0x1F PUSH1 0x24 DUP3 ADD MSTORE PUSH32 0x43616E64696461746520697320726573747269637420746F20766F7465202100 PUSH1 0x44 DUP3 ADD MSTORE PUSH1 0x64 SWAP1 REVERT JUMPDEST PUSH1 0x40 MLOAD PUSH3 0x461BCD PUSH1 0xE5 SHL DUP2 MSTORE PUSH1 0x20 PUSH1 0x4 DUP3 ADD MSTORE PUSH1 0x1B PUSH1 0x24 DUP3 ADD MSTORE PUSH32 0x41646D696E20697320726573747269637420746F20766F746520210000000000 PUSH1 0x44 DUP3 ADD MSTORE PUSH1 0x64 SWAP1 REVERT JUMPDEST CALLVALUE PUSH2 0x20A JUMPI PUSH1 0x0 CALLDATASIZE PUSH1 0x3 NOT ADD SLT PUSH2 0x20A JUMPI PUSH1 0x20 PUSH1 0x8 SLOAD PUSH1 0x40 MLOAD SWAP1 DUP2 MSTORE RETURN JUMPDEST CALLVALUE PUSH2 0x20A JUMPI PUSH1 0x0 CALLDATASIZE PUSH1 0x3 NOT ADD SLT PUSH2 0x20A JUMPI PUSH1 0x20 PUSH1 0x4 SLOAD PUSH1 0x40 MLOAD SWAP1 DUP2 MSTORE RETURN JUMPDEST CALLVALUE PUSH2 0x20A JUMPI PUSH1 0x0 CALLDATASIZE PUSH1 0x3 NOT ADD SLT PUSH2 0x20A JUMPI PUSH1 0x20 PUSH1 0x2 SLOAD PUSH1 0x40 MLOAD SWAP1 DUP2 MSTORE RETURN JUMPDEST CALLVALUE PUSH2 0x20A JUMPI PUSH1 0x20 CALLDATASIZE PUSH1 0x3 NOT ADD SLT PUSH2 0x20A JUMPI PUSH1 0x1 PUSH1 0x1 PUSH1 0xA0 SHL SUB DUP1 PUSH2 0x2B78 PUSH2 0x2C49 JUMP JUMPDEST AND PUSH1 0x0 MSTORE PUSH1 0x12 PUSH1 0x20 MSTORE PUSH1 0x40 PUSH1 0x0 KECCAK256 SWAP1 DUP2 SLOAD AND PUSH2 0x2A3 PUSH1 0x4 PUSH1 0x40 MLOAD SWAP4 PUSH2 0x2BA4 DUP6 PUSH2 0x42C DUP2 PUSH1 0x1 DUP6 ADD PUSH2 0x2D91 JUMP JUMPDEST PUSH1 0x40 MLOAD PUSH2 0x2BB8 DUP2 PUSH2 0x288 DUP2 PUSH1 0x2 DUP7 ADD PUSH2 0x2D91 JUMP JUMPDEST PUSH2 0xCAD PUSH1 0x40 MLOAD SWAP3 PUSH2 0x4A4 DUP5 PUSH2 0x49D DUP2 PUSH1 0x3 DUP6 ADD PUSH2 0x2D91 JUMP JUMPDEST CALLVALUE PUSH2 0x20A JUMPI PUSH1 0x20 CALLDATASIZE PUSH1 0x3 NOT ADD SLT PUSH2 0x20A JUMPI PUSH1 0x60 PUSH1 0xA0 PUSH2 0x2BED PUSH2 0x2C49 JUMP JUMPDEST SWAP3 PUSH2 0x2BF7 DUP2 PUSH2 0x2E27 JUMP JUMPDEST PUSH1 0x0 DUP2 MSTORE DUP3 PUSH1 0x20 DUP3 ADD MSTORE PUSH1 0x0 PUSH1 0x40 DUP3 ADD MSTORE DUP3 DUP1 DUP3 ADD MSTORE DUP3 PUSH1 0x80 DUP3 ADD MSTORE ADD MSTORE PUSH1 0x1 DUP1 PUSH1 0xA0 SHL SUB AND PUSH1 0x0 MSTORE PUSH1 0xE PUSH1 0x20 MSTORE PUSH2 0x2A3 PUSH2 0x2C35 PUSH1 0x40 PUSH1 0x0 KECCAK256 PUSH2 0x4393 JUMP JUMPDEST PUSH1 0x40 MLOAD SWAP2 DUP3 SWAP2 PUSH1 0x20 DUP4 MSTORE PUSH1 0x20 DUP4 ADD SWAP1 PUSH2 0x2CE4 JUMP JUMPDEST PUSH1 0x4 CALLDATALOAD SWAP1 PUSH1 0x1 PUSH1 0x1 PUSH1 0xA0 SHL SUB DUP3 AND DUP3 SUB PUSH2 0x20A JUMPI JUMP JUMPDEST PUSH1 0x0 JUMPDEST DUP4 DUP2 LT PUSH2 0x2C72 JUMPI POP POP PUSH1 0x0 SWAP2 ADD MSTORE JUMP JUMPDEST DUP2 DUP2 ADD MLOAD DUP4 DUP3 ADD MSTORE PUSH1 0x20 ADD PUSH2 0x2C62 JUMP JUMPDEST SWAP1 PUSH1 0x20 SWAP2 PUSH2 0x2C9B DUP2 MLOAD DUP1 SWAP3 DUP2 DUP6 MSTORE DUP6 DUP1 DUP7 ADD SWAP2 ADD PUSH2 0x2C5F JUMP JUMPDEST PUSH1 0x1F ADD PUSH1 0x1F NOT AND ADD ADD SWAP1 JUMP JUMPDEST SWAP1 DUP2 MLOAD DUP1 DUP3 MSTORE PUSH1 0x20 DUP1 DUP1 SWAP4 ADD SWAP4 ADD SWAP2 PUSH1 0x0 JUMPDEST DUP3 DUP2 LT PUSH2 0x2CC7 JUMPI POP POP POP POP SWAP1 JUMP JUMPDEST DUP4 MLOAD PUSH1 0x1 PUSH1 0x1 PUSH1 0xA0 SHL SUB AND DUP6 MSTORE SWAP4 DUP2 ADD SWAP4 SWAP3 DUP2 ADD SWAP3 PUSH1 0x1 ADD PUSH2 0x2CB9 JUMP JUMPDEST PUSH2 0x2D54 SWAP2 PUSH1 0x1 DUP1 PUSH1 0xA0 SHL SUB DUP3 MLOAD AND DUP2 MSTORE PUSH1 0xA0 PUSH2 0x2D43 PUSH2 0x2D31 PUSH2 0x2D15 PUSH1 0x20 DUP7 ADD MLOAD PUSH1 0xC0 PUSH1 0x20 DUP8 ADD MSTORE PUSH1 0xC0 DUP7 ADD SWAP1 PUSH2 0x2C82 JUMP JUMPDEST PUSH1 0x40 DUP7 ADD MLOAD PUSH1 0x40 DUP7 ADD MSTORE PUSH1 0x60 DUP7 ADD MLOAD DUP6 DUP3 SUB PUSH1 0x60 DUP8 ADD MSTORE PUSH2 0x2C82 JUMP JUMPDEST PUSH1 0x80 DUP6 ADD MLOAD DUP5 DUP3 SUB PUSH1 0x80 DUP7 ADD MSTORE PUSH2 0x2C82 JUMP JUMPDEST SWAP3 ADD MLOAD SWAP1 PUSH1 0xA0 DUP2 DUP5 SUB SWAP2 ADD MSTORE PUSH2 0x2CA7 JUMP JUMPDEST SWAP1 JUMP JUMPDEST SWAP1 PUSH1 0x1 DUP3 DUP2 SHR SWAP3 AND DUP1 ISZERO PUSH2 0x2D87 JUMPI JUMPDEST PUSH1 0x20 DUP4 LT EQ PUSH2 0x2D71 JUMPI JUMP JUMPDEST PUSH4 0x4E487B71 PUSH1 0xE0 SHL PUSH1 0x0 MSTORE PUSH1 0x22 PUSH1 0x4 MSTORE PUSH1 0x24 PUSH1 0x0 REVERT JUMPDEST SWAP2 PUSH1 0x7F AND SWAP2 PUSH2 0x2D66 JUMP JUMPDEST SWAP1 PUSH1 0x0 SWAP3 SWAP2 DUP1 SLOAD SWAP2 PUSH2 0x2DA2 DUP4 PUSH2 0x2D57 JUMP JUMPDEST SWAP2 DUP3 DUP3 MSTORE PUSH1 0x1 SWAP4 DUP5 DUP2 AND SWAP1 DUP2 PUSH1 0x0 EQ PUSH2 0x2E04 JUMPI POP PUSH1 0x1 EQ PUSH2 0x2DC4 JUMPI JUMPDEST POP POP POP POP JUMP JUMPDEST SWAP1 SWAP2 SWAP4 SWAP5 POP PUSH1 0x0 MSTORE PUSH1 0x20 SWAP3 DUP4 PUSH1 0x0 KECCAK256 SWAP3 DUP5 PUSH1 0x0 SWAP5 JUMPDEST DUP4 DUP7 LT PUSH2 0x2DF0 JUMPI POP POP POP POP ADD ADD SWAP1 CODESIZE DUP1 DUP1 DUP1 PUSH2 0x2DBE JUMP JUMPDEST DUP1 SLOAD DUP6 DUP8 ADD DUP4 ADD MSTORE SWAP5 ADD SWAP4 DUP6 SWAP1 DUP3 ADD PUSH2 0x2DD9 JUMP JUMPDEST SWAP3 SWAP5 POP POP POP PUSH1 0x20 SWAP4 SWAP5 POP PUSH1 0xFF NOT AND DUP4 DUP4 ADD MSTORE ISZERO ISZERO PUSH1 0x5 SHL ADD ADD SWAP1 CODESIZE DUP1 DUP1 DUP1 PUSH2 0x2DBE JUMP JUMPDEST PUSH1 0xC0 DUP2 ADD SWAP1 DUP2 LT PUSH1 0x1 PUSH1 0x1 PUSH1 0x40 SHL SUB DUP3 GT OR PUSH2 0x15F6 JUMPI PUSH1 0x40 MSTORE JUMP JUMPDEST PUSH1 0x60 DUP2 ADD SWAP1 DUP2 LT PUSH1 0x1 PUSH1 0x1 PUSH1 0x40 SHL SUB DUP3 GT OR PUSH2 0x15F6 JUMPI PUSH1 0x40 MSTORE JUMP JUMPDEST PUSH2 0x180 DUP2 ADD SWAP1 DUP2 LT PUSH1 0x1 PUSH1 0x1 PUSH1 0x40 SHL SUB DUP3 GT OR PUSH2 0x15F6 JUMPI PUSH1 0x40 MSTORE JUMP JUMPDEST PUSH1 0xE0 DUP2 ADD SWAP1 DUP2 LT PUSH1 0x1 PUSH1 0x1 PUSH1 0x40 SHL SUB DUP3 GT OR PUSH2 0x15F6 JUMPI PUSH1 0x40 MSTORE JUMP JUMPDEST PUSH1 0x20 DUP2 ADD SWAP1 DUP2 LT PUSH1 0x1 PUSH1 0x1 PUSH1 0x40 SHL SUB DUP3 GT OR PUSH2 0x15F6 JUMPI PUSH1 0x40 MSTORE JUMP JUMPDEST SWAP1 PUSH1 0x1F DUP1 NOT SWAP2 ADD AND DUP2 ADD SWAP1 DUP2 LT PUSH1 0x1 PUSH1 0x1 PUSH1 0x40 SHL SUB DUP3 GT OR PUSH2 0x15F6 JUMPI PUSH1 0x40 MSTORE JUMP JUMPDEST SWAP4 SWAP1 PUSH2 0x2D54 SWAP6 SWAP4 PUSH2 0x2EFD PUSH2 0x2F19 SWAP5 PUSH2 0x2F0B SWAP4 PUSH1 0x1 DUP1 PUSH1 0xA0 SHL SUB AND DUP9 MSTORE PUSH1 0xA0 PUSH1 0x20 DUP10 ADD MSTORE PUSH1 0xA0 DUP9 ADD SWAP1 PUSH2 0x2C82 JUMP JUMPDEST SWAP1 DUP7 DUP3 SUB PUSH1 0x40 DUP9 ADD MSTORE PUSH2 0x2C82 JUMP JUMPDEST SWAP1 DUP5 DUP3 SUB PUSH1 0x60 DUP7 ADD MSTORE PUSH2 0x2C82 JUMP JUMPDEST SWAP2 PUSH1 0x80 DUP2 DUP5 SUB SWAP2 ADD MSTORE PUSH2 0x2C82 JUMP JUMPDEST DUP2 PUSH1 0x1F DUP3 ADD SLT ISZERO PUSH2 0x20A JUMPI DUP1 CALLDATALOAD SWAP1 PUSH1 0x1 PUSH1 0x1 PUSH1 0x40 SHL SUB DUP3 GT PUSH2 0x15F6 JUMPI PUSH1 0x40 MLOAD SWAP3 PUSH2 0x2F5B PUSH1 0x1F DUP5 ADD PUSH1 0x1F NOT AND PUSH1 0x20 ADD DUP6 PUSH2 0x2EAF JUMP JUMPDEST DUP3 DUP5 MSTORE PUSH1 0x20 DUP4 DUP4 ADD ADD GT PUSH2 0x20A JUMPI DUP2 PUSH1 0x0 SWAP3 PUSH1 0x20 DUP1 SWAP4 ADD DUP4 DUP7 ADD CALLDATACOPY DUP4 ADD ADD MSTORE SWAP1 JUMP JUMPDEST SWAP1 PUSH2 0x2D54 SWAP2 PUSH1 0x1 DUP1 PUSH1 0xA0 SHL SUB DUP2 MLOAD AND DUP3 MSTORE PUSH2 0x3054 PUSH2 0x3040 PUSH2 0x302C PUSH2 0x3018 PUSH2 0x3006 PUSH2 0x2FF4 PUSH2 0x2FE2 PUSH2 0x2FBC PUSH1 0x20 DUP10 ADD MLOAD PUSH2 0x180 DUP1 PUSH1 0x20 DUP14 ADD MSTORE DUP12 ADD SWAP1 PUSH2 0x2C82 JUMP JUMPDEST PUSH1 0x40 DUP10 ADD MLOAD PUSH1 0x40 DUP12 ADD MSTORE PUSH1 0x60 DUP10 ADD MLOAD PUSH1 0x60 DUP12 ADD MSTORE PUSH1 0x80 DUP10 ADD MLOAD DUP11 DUP3 SUB PUSH1 0x80 DUP13 ADD MSTORE PUSH2 0x2C82 JUMP JUMPDEST PUSH1 0xA0 DUP9 ADD MLOAD DUP10 DUP3 SUB PUSH1 0xA0 DUP12 ADD MSTORE PUSH2 0x2C82 JUMP JUMPDEST PUSH1 0xC0 DUP8 ADD MLOAD DUP9 DUP3 SUB PUSH1 0xC0 DUP11 ADD MSTORE PUSH2 0x2C82 JUMP JUMPDEST PUSH1 0xE0 DUP7 ADD MLOAD DUP8 DUP3 SUB PUSH1 0xE0 DUP10 ADD MSTORE PUSH2 0x2C82 JUMP JUMPDEST PUSH2 0x100 DUP1 DUP7 ADD MLOAD SWAP1 DUP8 DUP4 SUB SWAP1 DUP9 ADD MSTORE PUSH2 0x2C82 JUMP JUMPDEST PUSH2 0x120 DUP1 DUP6 ADD MLOAD SWAP1 DUP7 DUP4 SUB SWAP1 DUP8 ADD MSTORE PUSH2 0x2C82 JUMP JUMPDEST PUSH2 0x140 DUP1 DUP5 ADD MLOAD SWAP1 DUP6 DUP4 SUB SWAP1 DUP7 ADD MSTORE PUSH2 0x2C82 JUMP JUMPDEST SWAP2 PUSH2 0x160 DUP1 SWAP3 ADD MLOAD SWAP2 DUP2 DUP5 SUB SWAP2 ADD MSTORE PUSH2 0x2C82 JUMP JUMPDEST PUSH2 0x2D54 SWAP2 PUSH1 0xC0 PUSH2 0x30C3 PUSH2 0x2D31 PUSH2 0x30B1 PUSH2 0x309F PUSH2 0x308D DUP8 MLOAD PUSH1 0xE0 DUP9 MSTORE PUSH1 0xE0 DUP9 ADD SWAP1 PUSH2 0x2F7D JUMP JUMPDEST PUSH1 0x20 DUP9 ADD MLOAD DUP8 DUP3 SUB PUSH1 0x20 DUP10 ADD MSTORE PUSH2 0x2C82 JUMP JUMPDEST PUSH1 0x40 DUP8 ADD MLOAD DUP7 DUP3 SUB PUSH1 0x40 DUP9 ADD MSTORE PUSH2 0x2C82 JUMP JUMPDEST PUSH1 0x60 DUP7 ADD MLOAD DUP6 DUP3 SUB PUSH1 0x60 DUP8 ADD MSTORE PUSH2 0x2C82 JUMP JUMPDEST SWAP3 PUSH1 0xA0 DUP2 ADD MLOAD PUSH1 0xA0 DUP5 ADD MSTORE ADD MLOAD SWAP1 PUSH1 0xC0 DUP2 DUP5 SUB SWAP2 ADD MSTORE PUSH2 0x2CA7 JUMP JUMPDEST SWAP1 DUP1 DUP3 MLOAD SWAP1 DUP2 DUP2 MSTORE PUSH1 0x20 DUP1 SWAP2 ADD SWAP3 DUP2 DUP1 DUP5 PUSH1 0x5 SHL DUP4 ADD ADD SWAP6 ADD SWAP4 PUSH1 0x0 SWAP2 JUMPDEST DUP5 DUP4 LT PUSH2 0x310C JUMPI POP POP POP POP POP POP SWAP1 JUMP JUMPDEST SWAP1 SWAP2 SWAP3 SWAP4 SWAP5 SWAP6 DUP5 DUP1 PUSH2 0x312A PUSH1 0x1 SWAP4 PUSH1 0x1F NOT DUP7 DUP3 SUB ADD DUP8 MSTORE DUP11 MLOAD PUSH2 0x3068 JUMP JUMPDEST SWAP9 ADD SWAP4 ADD SWAP4 ADD SWAP2 SWAP5 SWAP4 SWAP3 SWAP1 PUSH2 0x30FC JUMP JUMPDEST SWAP1 PUSH1 0x40 DUP1 PUSH2 0x3166 PUSH2 0x3154 DUP6 MLOAD PUSH1 0x60 DUP7 MSTORE PUSH1 0x60 DUP7 ADD SWAP1 PUSH2 0x2F7D JUMP JUMPDEST PUSH1 0x20 DUP7 ADD MLOAD DUP6 DUP3 SUB PUSH1 0x20 DUP8 ADD MSTORE PUSH2 0x2CA7 JUMP JUMPDEST SWAP4 ADD MLOAD SWAP2 ADD MSTORE SWAP1 JUMP JUMPDEST SWAP4 SWAP1 PUSH2 0x2D54 SWAP6 SWAP4 PUSH2 0x2EFD PUSH2 0x2F19 SWAP5 PUSH2 0x3192 PUSH2 0x2F0B SWAP5 PUSH1 0xA0 DUP11 MSTORE PUSH1 0xA0 DUP11 ADD SWAP1 PUSH2 0x2C82 JUMP JUMPDEST SWAP1 DUP9 DUP3 SUB PUSH1 0x20 DUP11 ADD MSTORE PUSH2 0x2C82 JUMP JUMPDEST SWAP4 PUSH2 0x31C9 PUSH2 0x2F19 SWAP4 PUSH2 0x2D54 SWAP8 SWAP6 SWAP4 PUSH1 0x1 DUP1 PUSH1 0xA0 SHL SUB AND DUP8 MSTORE PUSH1 0xA0 PUSH1 0x20 DUP9 ADD MSTORE PUSH1 0xA0 DUP8 ADD SWAP1 PUSH2 0x2C82 JUMP JUMPDEST SWAP2 PUSH1 0x40 DUP7 ADD MSTORE DUP5 DUP3 SUB PUSH1 0x60 DUP7 ADD MSTORE PUSH2 0x2C82 JUMP JUMPDEST PUSH1 0xA SLOAD DUP2 LT ISZERO PUSH2 0x1E66 JUMPI PUSH1 0xE SWAP1 PUSH1 0xA PUSH1 0x0 MSTORE MUL PUSH32 0xC65A7BB8D6351C1CF70C95A316CC6A92839C986682D98BC35F958F4883F9D2A8 ADD SWAP1 PUSH1 0x0 SWAP1 JUMP JUMPDEST SWAP1 PUSH1 0xB PUSH2 0x160 PUSH1 0x40 SWAP4 PUSH2 0x3321 DUP6 MLOAD SWAP2 PUSH2 0x322F DUP4 PUSH2 0x2E5D JUMP JUMPDEST PUSH2 0x4B4 DUP4 SWAP8 PUSH1 0x1 DUP1 PUSH1 0xA0 SHL SUB DUP4 SLOAD AND DUP6 MSTORE DUP1 MLOAD PUSH2 0x3253 DUP2 PUSH2 0x288 DUP2 PUSH1 0x1 DUP9 ADD PUSH2 0x2D91 JUMP JUMPDEST PUSH1 0x20 DUP7 ADD MSTORE PUSH1 0x2 DUP4 ADD SLOAD DUP2 DUP7 ADD MSTORE PUSH1 0x3 DUP4 ADD SLOAD PUSH1 0x60 DUP7 ADD MSTORE DUP1 MLOAD PUSH2 0x327E DUP2 PUSH2 0x288 DUP2 PUSH1 0x4 DUP9 ADD PUSH2 0x2D91 JUMP JUMPDEST PUSH1 0x80 DUP7 ADD MSTORE DUP1 MLOAD PUSH2 0x3296 DUP2 PUSH2 0x288 DUP2 PUSH1 0x5 DUP9 ADD PUSH2 0x2D91 JUMP JUMPDEST PUSH1 0xA0 DUP7 ADD MSTORE DUP1 MLOAD PUSH2 0x32AE DUP2 PUSH2 0x288 DUP2 PUSH1 0x6 DUP9 ADD PUSH2 0x2D91 JUMP JUMPDEST PUSH1 0xC0 DUP7 ADD MSTORE DUP1 MLOAD PUSH2 0x32C6 DUP2 PUSH2 0x288 DUP2 PUSH1 0x7 DUP9 ADD PUSH2 0x2D91 JUMP JUMPDEST PUSH1 0xE0 DUP7 ADD MSTORE DUP1 MLOAD PUSH2 0x32DE DUP2 PUSH2 0x288 DUP2 PUSH1 0x8 DUP9 ADD PUSH2 0x2D91 JUMP JUMPDEST PUSH2 0x100 DUP7 ADD MSTORE DUP1 MLOAD PUSH2 0x32F7 DUP2 PUSH2 0x288 DUP2 PUSH1 0x9 DUP9 ADD PUSH2 0x2D91 JUMP JUMPDEST PUSH2 0x120 DUP7 ADD MSTORE DUP1 MLOAD PUSH2 0x3310 DUP2 PUSH2 0x288 DUP2 PUSH1 0xA DUP9 ADD PUSH2 0x2D91 JUMP JUMPDEST PUSH2 0x140 DUP7 ADD MSTORE MLOAD DUP1 SWAP7 DUP2 SWAP4 ADD PUSH2 0x2D91 JUMP JUMPDEST ADD MSTORE JUMP JUMPDEST DUP1 SLOAD DUP3 LT ISZERO PUSH2 0x1E66 JUMPI PUSH1 0x0 MSTORE PUSH1 0x20 PUSH1 0x0 KECCAK256 ADD SWAP1 PUSH1 0x0 SWAP1 JUMP JUMPDEST PUSH1 0x14 SLOAD DUP2 LT ISZERO PUSH2 0x1E66 JUMPI PUSH1 0x6 SWAP1 PUSH1 0x14 PUSH1 0x0 MSTORE MUL PUSH32 0xCE6D7B5282BD9A3661AE061FEED1DBDA4E52AB073B1F9285BE6E155D9C38D4EC ADD SWAP1 PUSH1 0x0 SWAP1 JUMP JUMPDEST PUSH1 0x1 PUSH1 0x1 PUSH1 0x40 SHL SUB DUP2 GT PUSH2 0x15F6 JUMPI PUSH1 0x5 SHL PUSH1 0x20 ADD SWAP1 JUMP JUMPDEST PUSH2 0x33A2 DUP2 MLOAD PUSH1 0xE0 DUP5 MSTORE PUSH1 0xE0 DUP5 ADD SWAP1 PUSH2 0x2C82 JUMP JUMPDEST PUSH1 0xC0 PUSH2 0x340E PUSH2 0x33FC PUSH2 0x33EA PUSH2 0x33D8 PUSH2 0x33C6 PUSH1 0x20 SWAP7 DUP8 DUP10 ADD MLOAD DUP11 DUP3 SUB DUP10 DUP13 ADD MSTORE PUSH2 0x2C82 JUMP JUMPDEST PUSH1 0x40 DUP9 ADD MLOAD DUP10 DUP3 SUB PUSH1 0x40 DUP12 ADD MSTORE PUSH2 0x2C82 JUMP JUMPDEST PUSH1 0x60 DUP8 ADD MLOAD DUP9 DUP3 SUB PUSH1 0x60 DUP11 ADD MSTORE PUSH2 0x2C82 JUMP JUMPDEST PUSH1 0x80 DUP7 ADD MLOAD DUP8 DUP3 SUB PUSH1 0x80 DUP10 ADD MSTORE PUSH2 0x2C82 JUMP JUMPDEST PUSH1 0xA0 DUP6 ADD MLOAD DUP7 DUP3 SUB PUSH1 0xA0 DUP9 ADD MSTORE PUSH2 0x30DE JUMP JUMPDEST SWAP3 ADD MLOAD SWAP3 PUSH1 0xC0 DUP2 DUP5 SUB SWAP2 ADD MSTORE DUP3 MLOAD SWAP1 DUP2 DUP4 MSTORE DUP1 DUP4 ADD SWAP3 DUP2 DUP1 DUP5 PUSH1 0x5 SHL DUP4 ADD ADD SWAP6 ADD SWAP4 PUSH1 0x0 SWAP2 JUMPDEST DUP5 DUP4 LT PUSH2 0x3444 JUMPI POP POP POP POP POP POP SWAP1 JUMP JUMPDEST SWAP1 SWAP2 SWAP3 SWAP4 SWAP5 SWAP6 DUP5 DUP1 PUSH2 0x3462 PUSH1 0x1 SWAP4 PUSH1 0x1F NOT DUP7 DUP3 SUB ADD DUP8 MSTORE DUP11 MLOAD PUSH2 0x2C82 JUMP JUMPDEST SWAP9 ADD SWAP4 ADD SWAP4 ADD SWAP2 SWAP5 SWAP4 SWAP3 SWAP1 PUSH2 0x3434 JUMP JUMPDEST SWAP7 SWAP6 SWAP5 SWAP2 SWAP4 PUSH2 0x34B4 PUSH2 0x34D0 SWAP5 PUSH2 0x34A6 PUSH1 0xA0 SWAP8 PUSH2 0x3498 PUSH2 0x34C2 SWAP7 PUSH1 0xC0 DUP15 DUP2 DUP2 MSTORE ADD SWAP1 PUSH2 0x2F7D JUMP JUMPDEST DUP13 DUP2 SUB PUSH1 0x20 DUP15 ADD MSTORE SWAP1 PUSH2 0x2C82 JUMP JUMPDEST SWAP1 DUP11 DUP3 SUB PUSH1 0x40 DUP13 ADD MSTORE PUSH2 0x2C82 JUMP JUMPDEST SWAP1 DUP9 DUP3 SUB PUSH1 0x60 DUP11 ADD MSTORE PUSH2 0x2C82 JUMP JUMPDEST SWAP1 DUP7 DUP3 SUB PUSH1 0x80 DUP9 ADD MSTORE PUSH2 0x2C82 JUMP JUMPDEST SWAP4 ADD MSTORE JUMP JUMPDEST PUSH1 0x6 SLOAD DUP2 LT ISZERO PUSH2 0x1E66 JUMPI PUSH1 0x12 SWAP1 PUSH1 0x6 PUSH1 0x0 MSTORE MUL PUSH32 0xF652222313E28459528D920B65115C16C04F3EFC82AAEDC97BE59F3F377C0D3F ADD SWAP1 PUSH1 0x0 SWAP1 JUMP JUMPDEST DUP1 SLOAD DUP3 LT ISZERO PUSH2 0x1E66 JUMPI PUSH1 0x0 MSTORE PUSH1 0x12 PUSH1 0x20 PUSH1 0x0 KECCAK256 SWAP2 MUL ADD SWAP1 PUSH1 0x0 SWAP1 JUMP JUMPDEST PUSH1 0x13 SLOAD DUP2 LT ISZERO PUSH2 0x1E66 JUMPI PUSH1 0x7 SWAP1 PUSH1 0x13 PUSH1 0x0 MSTORE MUL PUSH32 0x66DE8FFDA797E3DE9C05E8FC57B3BF0EC28A930D40B0D285D93C06501CF6A090 ADD SWAP1 PUSH1 0x0 SWAP1 JUMP JUMPDEST PUSH1 0x0 NOT DUP2 EQ PUSH2 0x1E50 JUMPI PUSH1 0x1 ADD SWAP1 JUMP JUMPDEST DUP1 SLOAD PUSH1 0x1 PUSH1 0x40 SHL DUP2 LT ISZERO PUSH2 0x15F6 JUMPI PUSH2 0x3593 SWAP2 PUSH1 0x1 DUP3 ADD DUP2 SSTORE PUSH2 0x3325 JUMP JUMPDEST DUP2 SWAP3 SWAP2 SLOAD SWAP1 PUSH1 0x3 SHL SWAP2 PUSH1 0x1 DUP1 PUSH1 0xA0 SHL SUB SWAP3 DUP4 DUP2 SHL SWAP4 DUP5 SWAP3 AND SWAP1 SHL AND SWAP2 NOT AND OR SWAP1 SSTORE JUMP JUMPDEST SWAP1 PUSH1 0x40 MLOAD SWAP2 DUP3 PUSH1 0x0 DUP3 SLOAD SWAP3 PUSH2 0x35CA DUP5 PUSH2 0x2D57 JUMP JUMPDEST SWAP1 DUP2 DUP5 MSTORE PUSH1 0x1 SWAP5 DUP6 DUP2 AND SWAP1 DUP2 PUSH1 0x0 EQ PUSH2 0x3639 JUMPI POP PUSH1 0x1 EQ PUSH2 0x35F6 JUMPI JUMPDEST POP POP PUSH2 0x35F4 SWAP3 POP SUB DUP4 PUSH2 0x2EAF JUMP JUMPDEST JUMP JUMPDEST SWAP1 SWAP4 SWAP2 POP PUSH1 0x0 MSTORE PUSH1 0x20 SWAP1 DUP2 PUSH1 0x0 KECCAK256 SWAP4 PUSH1 0x0 SWAP2 JUMPDEST DUP2 DUP4 LT PUSH2 0x3621 JUMPI POP POP PUSH2 0x35F4 SWAP4 POP DUP3 ADD ADD CODESIZE DUP1 PUSH2 0x35E6 JUMP JUMPDEST DUP6 SLOAD DUP9 DUP5 ADD DUP6 ADD MSTORE SWAP5 DUP6 ADD SWAP5 DUP8 SWAP5 POP SWAP2 DUP4 ADD SWAP2 PUSH2 0x3609 JUMP JUMPDEST SWAP2 POP POP PUSH2 0x35F4 SWAP5 POP PUSH1 0x20 SWAP3 POP PUSH1 0xFF NOT AND DUP3 DUP5 ADD MSTORE ISZERO ISZERO PUSH1 0x5 SHL DUP3 ADD ADD CODESIZE DUP1 PUSH2 0x35E6 JUMP JUMPDEST SWAP1 DUP2 SLOAD DUP1 DUP3 MSTORE PUSH1 0x20 DUP1 SWAP3 ADD SWAP3 PUSH1 0x0 MSTORE DUP2 PUSH1 0x0 KECCAK256 SWAP2 PUSH1 0x0 SWAP1 JUMPDEST DUP3 DUP3 LT PUSH2 0x3682 JUMPI POP POP POP POP SWAP1 JUMP JUMPDEST DUP4 SLOAD PUSH1 0x1 PUSH1 0x1 PUSH1 0xA0 SHL SUB AND DUP6 MSTORE SWAP4 DUP5 ADD SWAP4 PUSH1 0x1 SWAP4 DUP5 ADD SWAP4 SWAP1 SWAP2 ADD SWAP1 PUSH2 0x3674 JUMP JUMPDEST ISZERO PUSH2 0x36A9 JUMPI JUMP JUMPDEST PUSH1 0x40 MLOAD PUSH3 0x461BCD PUSH1 0xE5 SHL DUP2 MSTORE PUSH1 0x20 PUSH1 0x4 DUP3 ADD MSTORE PUSH1 0x26 PUSH1 0x24 DUP3 ADD MSTORE PUSH32 0x4F6E6C792061646D696E2063616E20696E766F6B6520746869732066756E6374 PUSH1 0x44 DUP3 ADD MSTORE PUSH6 0x696F6E732021 PUSH1 0xD0 SHL PUSH1 0x64 DUP3 ADD MSTORE PUSH1 0x84 SWAP1 REVERT JUMPDEST DUP2 DUP2 LT PUSH2 0x3708 JUMPI POP POP JUMP JUMPDEST PUSH1 0x0 DUP2 SSTORE PUSH1 0x1 ADD PUSH2 0x36FD JUMP JUMPDEST SWAP2 SWAP1 SWAP2 DUP3 MLOAD PUSH1 0x1 PUSH1 0x1 PUSH1 0x40 SHL SUB DUP2 GT PUSH2 0x15F6 JUMPI PUSH2 0x3731 DUP3 SLOAD PUSH2 0x2D57 JUMP JUMPDEST PUSH1 0x1F DUP2 GT PUSH2 0x37DB JUMPI JUMPDEST POP PUSH1 0x20 DUP1 PUSH1 0x1F DUP4 GT PUSH1 0x1 EQ PUSH2 0x3777 JUMPI POP DUP2 SWAP3 SWAP4 SWAP5 PUSH1 0x0 SWAP3 PUSH2 0x376C JUMPI JUMPDEST POP POP DUP2 PUSH1 0x1 SHL SWAP2 PUSH1 0x0 NOT SWAP1 PUSH1 0x3 SHL SHR NOT AND OR SWAP1 SSTORE JUMP JUMPDEST ADD MLOAD SWAP1 POP CODESIZE DUP1 PUSH2 0x3756 JUMP JUMPDEST SWAP1 PUSH1 0x1F NOT DUP4 AND SWAP6 DUP5 PUSH1 0x0 MSTORE DUP3 PUSH1 0x0 KECCAK256 SWAP3 PUSH1 0x0 SWAP1 JUMPDEST DUP9 DUP3 LT PUSH2 0x37C3 JUMPI POP POP DUP4 PUSH1 0x1 SWAP6 SWAP7 SWAP8 LT PUSH2 0x37AA JUMPI JUMPDEST POP POP POP DUP2 SHL ADD SWAP1 SSTORE JUMP JUMPDEST ADD MLOAD PUSH1 0x0 NOT PUSH1 0xF8 DUP5 PUSH1 0x3 SHL AND SHR NOT AND SWAP1 SSTORE CODESIZE DUP1 DUP1 PUSH2 0x37A0 JUMP JUMPDEST DUP1 PUSH1 0x1 DUP6 SWAP7 DUP3 SWAP5 SWAP7 DUP7 ADD MLOAD DUP2 SSTORE ADD SWAP6 ADD SWAP4 ADD SWAP1 PUSH2 0x378B JUMP JUMPDEST PUSH2 0x3808 SWAP1 DUP4 PUSH1 0x0 MSTORE PUSH1 0x20 PUSH1 0x0 KECCAK256 PUSH1 0x1F DUP5 ADD PUSH1 0x5 SHR DUP2 ADD SWAP2 PUSH1 0x20 DUP6 LT PUSH2 0x380E JUMPI JUMPDEST PUSH1 0x1F ADD PUSH1 0x5 SHR ADD SWAP1 PUSH2 0x36FD JUMP JUMPDEST CODESIZE PUSH2 0x373A JUMP JUMPDEST SWAP1 SWAP2 POP DUP2 SWAP1 PUSH2 0x37FB JUMP JUMPDEST SWAP1 PUSH1 0x1 PUSH1 0x40 SHL DUP2 GT PUSH2 0x15F6 JUMPI DUP2 SLOAD SWAP1 DUP1 DUP4 SSTORE DUP2 DUP2 LT PUSH2 0x3836 JUMPI POP POP POP JUMP JUMPDEST PUSH2 0x35F4 SWAP3 PUSH1 0x0 MSTORE PUSH1 0x20 PUSH1 0x0 KECCAK256 SWAP2 DUP3 ADD SWAP2 ADD PUSH2 0x36FD JUMP JUMPDEST SWAP1 PUSH1 0x1 DUP1 PUSH1 0xA0 SHL SUB SWAP1 DUP2 DUP2 MLOAD AND PUSH1 0x1 PUSH1 0x1 PUSH1 0x60 SHL SUB PUSH1 0xA0 SHL DUP5 SLOAD AND OR DUP4 SSTORE PUSH1 0x20 SWAP2 PUSH1 0xA0 PUSH1 0x5 DUP5 DUP5 ADD MLOAD SWAP6 PUSH2 0x3884 PUSH1 0x1 SWAP8 DUP9 DUP4 ADD PUSH2 0x3714 JUMP JUMPDEST PUSH1 0x40 DUP6 ADD MLOAD PUSH1 0x2 DUP3 ADD SSTORE PUSH2 0x389F PUSH1 0x60 DUP7 ADD MLOAD PUSH1 0x3 DUP4 ADD PUSH2 0x3714 JUMP JUMPDEST PUSH2 0x38B0 PUSH1 0x80 DUP7 ADD MLOAD PUSH1 0x4 DUP4 ADD PUSH2 0x3714 JUMP JUMPDEST ADD SWAP3 ADD MLOAD SWAP3 DUP4 MLOAD SWAP4 PUSH1 0x1 PUSH1 0x1 PUSH1 0x40 SHL SUB DUP6 GT PUSH2 0x15F6 JUMPI DUP2 SWAP1 PUSH2 0x38D2 DUP7 DUP7 PUSH2 0x3818 JUMP JUMPDEST ADD SWAP3 PUSH1 0x0 MSTORE DUP1 PUSH1 0x0 KECCAK256 SWAP2 PUSH1 0x0 JUMPDEST DUP6 DUP2 LT PUSH2 0x38EF JUMPI POP POP POP POP POP POP POP JUMP JUMPDEST DUP5 MLOAD DUP3 AND DUP5 DUP3 ADD SSTORE SWAP4 DUP3 ADD SWAP4 DUP7 ADD PUSH2 0x38DF JUMP JUMPDEST PUSH2 0x390C DUP2 SLOAD PUSH2 0x2D57 JUMP JUMPDEST SWAP1 DUP2 PUSH2 0x3916 JUMPI POP POP JUMP JUMPDEST DUP2 PUSH1 0x1F PUSH1 0x0 SWAP4 GT PUSH1 0x1 EQ PUSH2 0x3928 JUMPI POP SSTORE JUMP JUMPDEST DUP2 DUP4 MSTORE PUSH1 0x20 DUP4 KECCAK256 PUSH2 0x3944 SWAP2 PUSH1 0x1F ADD PUSH1 0x5 SHR DUP2 ADD SWAP1 PUSH1 0x1 ADD PUSH2 0x36FD JUMP JUMPDEST DUP2 PUSH1 0x20 DUP2 KECCAK256 SWAP2 SSTORE SSTORE JUMP JUMPDEST DUP2 MLOAD SWAP2 PUSH1 0x1 DUP1 PUSH1 0xA0 SHL SUB DUP1 DUP5 MLOAD AND PUSH1 0x1 PUSH1 0x1 PUSH1 0x60 SHL SUB PUSH1 0xA0 SHL DUP5 SLOAD AND OR DUP4 SSTORE PUSH1 0xC0 PUSH1 0x11 PUSH1 0x20 SWAP5 PUSH2 0x3A25 PUSH2 0x160 DUP8 DUP10 ADD MLOAD SWAP9 PUSH2 0x398D PUSH1 0x1 SWAP11 DUP12 DUP7 ADD PUSH2 0x3714 JUMP JUMPDEST PUSH1 0x40 DUP2 ADD MLOAD PUSH1 0x2 DUP6 ADD SSTORE PUSH1 0x60 DUP2 ADD MLOAD PUSH1 0x3 DUP6 ADD SSTORE PUSH2 0x39B2 PUSH1 0x80 DUP3 ADD MLOAD PUSH1 0x4 DUP7 ADD PUSH2 0x3714 JUMP JUMPDEST PUSH2 0x39C3 PUSH1 0xA0 DUP3 ADD MLOAD PUSH1 0x5 DUP7 ADD PUSH2 0x3714 JUMP JUMPDEST PUSH2 0x39D3 DUP7 DUP3 ADD MLOAD PUSH1 0x6 DUP7 ADD PUSH2 0x3714 JUMP JUMPDEST PUSH2 0x39E4 PUSH1 0xE0 DUP3 ADD MLOAD PUSH1 0x7 DUP7 ADD PUSH2 0x3714 JUMP JUMPDEST PUSH2 0x39F6 PUSH2 0x100 DUP3 ADD MLOAD PUSH1 0x8 DUP7 ADD PUSH2 0x3714 JUMP JUMPDEST PUSH2 0x3A08 PUSH2 0x120 DUP3 ADD MLOAD PUSH1 0x9 DUP7 ADD PUSH2 0x3714 JUMP JUMPDEST PUSH2 0x3A1A PUSH2 0x140 DUP3 ADD MLOAD PUSH1 0xA DUP7 ADD PUSH2 0x3714 JUMP JUMPDEST ADD MLOAD PUSH1 0xB DUP4 ADD PUSH2 0x3714 JUMP JUMPDEST PUSH2 0x3A35 DUP7 DUP7 ADD MLOAD PUSH1 0xC DUP4 ADD PUSH2 0x3714 JUMP JUMPDEST PUSH2 0x3A46 PUSH1 0x40 DUP7 ADD MLOAD PUSH1 0xD DUP4 ADD PUSH2 0x3714 JUMP JUMPDEST PUSH2 0x3A57 PUSH1 0x60 DUP7 ADD MLOAD PUSH1 0xE DUP4 ADD PUSH2 0x3714 JUMP JUMPDEST PUSH2 0x3A68 PUSH1 0x80 DUP7 ADD MLOAD PUSH1 0xF DUP4 ADD PUSH2 0x3714 JUMP JUMPDEST PUSH1 0xA0 DUP6 ADD MLOAD PUSH1 0x10 DUP3 ADD SSTORE ADD SWAP3 ADD MLOAD SWAP3 DUP4 MLOAD SWAP4 PUSH1 0x1 PUSH1 0x1 PUSH1 0x40 SHL SUB DUP6 GT PUSH2 0x15F6 JUMPI DUP2 SWAP1 PUSH2 0x3A94 DUP7 DUP7 PUSH2 0x3818 JUMP JUMPDEST ADD SWAP3 PUSH1 0x0 MSTORE DUP1 PUSH1 0x0 KECCAK256 SWAP2 PUSH1 0x0 JUMPDEST DUP6 DUP2 LT PUSH2 0x3AB1 JUMPI POP POP POP POP POP POP POP JUMP JUMPDEST DUP5 MLOAD DUP3 AND DUP5 DUP3 ADD SSTORE SWAP4 DUP3 ADD SWAP4 DUP7 ADD PUSH2 0x3AA1 JUMP JUMPDEST PUSH2 0x3ACF DUP3 MLOAD DUP3 PUSH2 0x3714 JUMP JUMPDEST PUSH2 0x3AE0 PUSH1 0x20 DUP4 ADD MLOAD PUSH1 0x1 DUP4 ADD PUSH2 0x3714 JUMP JUMPDEST PUSH1 0x40 DUP3 ADD MLOAD SWAP1 PUSH2 0x3AF4 PUSH1 0x2 SWAP3 DUP4 DUP4 ADD PUSH2 0x3714 JUMP JUMPDEST PUSH1 0x60 DUP4 ADD MLOAD SWAP2 PUSH2 0x3B08 PUSH1 0x3 SWAP4 DUP5 DUP5 ADD PUSH2 0x3714 JUMP JUMPDEST PUSH2 0x3B19 PUSH1 0x80 DUP6 ADD MLOAD PUSH1 0x4 DUP5 ADD PUSH2 0x3714 JUMP JUMPDEST PUSH1 0xA0 DUP5 ADD MLOAD SWAP1 DUP2 MLOAD SWAP4 PUSH1 0x1 PUSH1 0x40 SHL DUP6 GT PUSH2 0x15F6 JUMPI PUSH1 0x5 DUP5 ADD SLOAD SWAP2 DUP6 PUSH1 0x5 DUP7 ADD SSTORE DUP3 DUP7 LT PUSH2 0x3C1D JUMPI JUMPDEST POP POP POP PUSH1 0x20 ADD SWAP2 PUSH1 0x0 SWAP3 PUSH1 0x5 DUP4 ADD DUP5 MSTORE PUSH1 0x20 DUP5 KECCAK256 DUP5 SWAP2 JUMPDEST DUP4 DUP4 LT PUSH2 0x3BFF JUMPI POP POP POP POP PUSH1 0x6 PUSH1 0xC0 SWAP2 ADD SWAP3 ADD MLOAD SWAP2 DUP3 MLOAD SWAP3 PUSH1 0x1 PUSH1 0x40 SHL DUP5 GT PUSH2 0x3BEB JUMPI DUP2 SLOAD DUP5 DUP4 SSTORE DUP1 DUP6 LT PUSH2 0x3BBE JUMPI JUMPDEST POP SWAP1 DUP3 MSTORE PUSH1 0x20 DUP1 DUP4 KECCAK256 SWAP2 ADD JUMPDEST DUP4 DUP4 LT PUSH2 0x3BA1 JUMPI POP POP POP POP JUMP JUMPDEST PUSH1 0x1 PUSH1 0x20 DUP3 PUSH2 0x3BB2 DUP4 SWAP5 MLOAD DUP7 PUSH2 0x3714 JUMP JUMPDEST ADD SWAP3 ADD SWAP3 ADD SWAP2 SWAP1 PUSH2 0x3B94 JUMP JUMPDEST DUP3 DUP5 MSTORE DUP5 PUSH1 0x20 DUP6 KECCAK256 SWAP2 DUP3 ADD SWAP2 ADD JUMPDEST DUP2 DUP2 LT PUSH2 0x3BD9 JUMPI POP PUSH2 0x3B88 JUMP JUMPDEST DUP1 PUSH2 0x3BE5 PUSH1 0x1 SWAP3 PUSH2 0x3902 JUMP JUMPDEST ADD PUSH2 0x3BCC JUMP JUMPDEST PUSH4 0x4E487B71 PUSH1 0xE0 SHL DUP4 MSTORE PUSH1 0x41 PUSH1 0x4 MSTORE PUSH1 0x24 DUP4 REVERT JUMPDEST PUSH1 0x12 PUSH1 0x20 DUP3 PUSH2 0x3C11 PUSH1 0x1 SWAP5 MLOAD DUP7 PUSH2 0x394E JUMP JUMPDEST ADD SWAP3 ADD SWAP3 ADD SWAP2 SWAP1 PUSH2 0x3B58 JUMP JUMPDEST DUP3 PUSH1 0x12 MUL SWAP3 PUSH1 0x12 DUP5 DIV SUB PUSH2 0x1E50 JUMPI DUP6 PUSH1 0x12 MUL SWAP3 PUSH1 0x12 DUP5 DIV DUP8 SUB PUSH2 0x1E50 JUMPI PUSH1 0x5 DUP7 ADD PUSH1 0x0 MSTORE PUSH1 0x20 PUSH1 0x0 KECCAK256 SWAP4 DUP5 ADD JUMPDEST DUP2 DUP6 ADD DUP2 LT PUSH2 0x3C5A JUMPI POP POP PUSH2 0x3B41 JUMP JUMPDEST DUP1 PUSH1 0x0 PUSH1 0x12 SWAP3 SSTORE PUSH2 0x3C6D PUSH1 0x1 DUP3 ADD PUSH2 0x3902 JUMP JUMPDEST PUSH1 0x0 DUP5 DUP3 ADD SSTORE PUSH1 0x0 DUP6 DUP3 ADD SSTORE PUSH2 0x3C85 PUSH1 0x4 DUP3 ADD PUSH2 0x3902 JUMP JUMPDEST PUSH2 0x3C91 PUSH1 0x5 DUP3 ADD PUSH2 0x3902 JUMP JUMPDEST PUSH2 0x3C9D PUSH1 0x6 DUP3 ADD PUSH2 0x3902 JUMP JUMPDEST PUSH2 0x3CA9 PUSH1 0x7 DUP3 ADD PUSH2 0x3902 JUMP JUMPDEST PUSH2 0x3CB5 PUSH1 0x8 DUP3 ADD PUSH2 0x3902 JUMP JUMPDEST PUSH2 0x3CC1 PUSH1 0x9 DUP3 ADD PUSH2 0x3902 JUMP JUMPDEST PUSH2 0x3CCD PUSH1 0xA DUP3 ADD PUSH2 0x3902 JUMP JUMPDEST PUSH2 0x3CD9 PUSH1 0xB DUP3 ADD PUSH2 0x3902 JUMP JUMPDEST PUSH2 0x3CE5 PUSH1 0xC DUP3 ADD PUSH2 0x3902 JUMP JUMPDEST PUSH2 0x3CF1 PUSH1 0xD DUP3 ADD PUSH2 0x3902 JUMP JUMPDEST PUSH2 0x3CFD PUSH1 0xE DUP3 ADD PUSH2 0x3902 JUMP JUMPDEST PUSH2 0x3D09 PUSH1 0xF DUP3 ADD PUSH2 0x3902 JUMP JUMPDEST PUSH1 0x0 PUSH1 0x10 DUP3 ADD SSTORE PUSH1 0x11 DUP2 ADD DUP1 SLOAD PUSH1 0x0 DUP3 SSTORE DUP1 PUSH2 0x3D28 JUMPI JUMPDEST POP POP ADD PUSH2 0x3C4A JUMP JUMPDEST PUSH2 0x3D3D SWAP2 PUSH1 0x0 MSTORE PUSH1 0x20 PUSH1 0x0 KECCAK256 SWAP1 DUP2 ADD SWAP1 PUSH2 0x36FD JUMP JUMPDEST CODESIZE DUP1 PUSH2 0x3D20 JUMP JUMPDEST DUP1 MLOAD DUP3 LT ISZERO PUSH2 0x1E66 JUMPI PUSH1 0x20 SWAP2 PUSH1 0x5 SHL ADD ADD SWAP1 JUMP JUMPDEST SWAP1 PUSH1 0x11 PUSH1 0xC0 PUSH1 0x40 SWAP4 PUSH2 0x3321 DUP6 MLOAD SWAP2 PUSH2 0x3D6F DUP4 PUSH2 0x2E79 JUMP JUMPDEST PUSH2 0x4B4 DUP4 SWAP8 PUSH2 0x3D7D DUP4 PUSH2 0x3217 JUMP JUMPDEST DUP6 MSTORE DUP1 MLOAD PUSH2 0x3D92 DUP2 PUSH2 0x288 DUP2 PUSH1 0xC DUP9 ADD PUSH2 0x2D91 JUMP JUMPDEST PUSH1 0x20 DUP7 ADD MSTORE DUP1 MLOAD PUSH2 0x3DAA DUP2 PUSH2 0x288 DUP2 PUSH1 0xD DUP9 ADD PUSH2 0x2D91 JUMP JUMPDEST DUP2 DUP7 ADD MSTORE DUP1 MLOAD PUSH2 0x3DC1 DUP2 PUSH2 0x288 DUP2 PUSH1 0xE DUP9 ADD PUSH2 0x2D91 JUMP JUMPDEST PUSH1 0x60 DUP7 ADD MSTORE DUP1 MLOAD PUSH2 0x3DD9 DUP2 PUSH2 0x288 DUP2 PUSH1 0xF DUP9 ADD PUSH2 0x2D91 JUMP JUMPDEST PUSH1 0x80 DUP7 ADD MSTORE PUSH1 0x10 DUP4 ADD SLOAD PUSH1 0xA0 DUP7 ADD MSTORE MLOAD DUP1 SWAP7 DUP2 SWAP4 ADD PUSH2 0x365C JUMP JUMPDEST DUP1 SLOAD PUSH1 0x1 PUSH1 0x40 SHL DUP2 LT ISZERO PUSH2 0x15F6 JUMPI PUSH2 0x3E10 SWAP2 PUSH1 0x1 DUP3 ADD DUP2 SSTORE PUSH2 0x3510 JUMP JUMPDEST SWAP2 SWAP1 SWAP2 PUSH2 0x15E0 JUMPI PUSH2 0x35F4 SWAP2 PUSH2 0x394E JUMP JUMPDEST PUSH1 0x2 PUSH1 0x40 PUSH2 0x35F4 SWAP4 PUSH1 0x1 DUP1 PUSH1 0xA0 SHL SUB DUP2 MLOAD AND PUSH1 0x1 PUSH1 0x1 PUSH1 0x60 SHL SUB PUSH1 0xA0 SHL DUP6 SLOAD AND OR DUP5 SSTORE PUSH2 0x3E54 PUSH1 0x20 DUP3 ADD MLOAD PUSH1 0x1 DUP7 ADD PUSH2 0x3714 JUMP JUMPDEST ADD MLOAD SWAP2 ADD PUSH2 0x3714 JUMP JUMPDEST PUSH1 0x1 DUP1 PUSH1 0xA0 SHL SUB DUP3 MLOAD AND PUSH1 0x1 PUSH1 0x1 PUSH1 0x60 SHL SUB PUSH1 0xA0 SHL DUP3 SLOAD AND OR DUP2 SSTORE PUSH1 0x20 SWAP1 DUP2 DUP4 ADD MLOAD SWAP3 PUSH2 0x3E8E PUSH1 0x1 SWAP5 DUP6 DUP5 ADD PUSH2 0x3714 JUMP JUMPDEST PUSH1 0x40 DUP2 ADD MLOAD SWAP3 PUSH2 0x3EA2 PUSH1 0x2 SWAP5 DUP6 DUP6 ADD PUSH2 0x3714 JUMP JUMPDEST PUSH1 0xA0 PUSH1 0x5 PUSH1 0x60 DUP5 ADD MLOAD SWAP5 PUSH2 0x3EBA PUSH1 0x3 SWAP7 DUP8 DUP4 ADD PUSH2 0x3714 JUMP JUMPDEST PUSH2 0x3ECB PUSH1 0x80 DUP7 ADD MLOAD PUSH1 0x4 DUP4 ADD PUSH2 0x3714 JUMP JUMPDEST ADD SWAP3 ADD MLOAD SWAP4 DUP5 MLOAD SWAP5 PUSH1 0x1 PUSH1 0x40 SHL DUP7 GT PUSH2 0x15F6 JUMPI DUP4 SLOAD DUP7 DUP6 SSTORE DUP4 SWAP3 DUP2 DUP9 LT PUSH2 0x3F27 JUMPI JUMPDEST POP POP ADD SWAP2 PUSH1 0x0 MSTORE DUP1 PUSH1 0x0 KECCAK256 PUSH1 0x0 SWAP3 JUMPDEST DUP6 DUP5 LT PUSH2 0x3F0C JUMPI POP POP POP POP POP POP POP JUMP JUMPDEST DUP5 DUP4 DUP3 PUSH2 0x3F1B DUP11 SWAP5 MLOAD DUP7 PUSH2 0x3E20 JUMP JUMPDEST ADD SWAP3 ADD SWAP4 ADD SWAP3 SWAP1 PUSH2 0x3EFC JUMP JUMPDEST SWAP1 DUP1 SWAP3 SWAP4 POP DUP7 MUL SWAP2 DUP7 DUP4 DIV SUB PUSH2 0x1E50 JUMPI DUP7 DUP7 MUL DUP7 DUP2 DIV DUP9 SUB PUSH2 0x1E50 JUMPI PUSH1 0x0 DUP7 DUP2 MSTORE DUP6 DUP2 KECCAK256 DUP7 SWAP6 SWAP5 DUP2 ADD SWAP4 SWAP3 DUP10 SWAP2 ADD JUMPDEST DUP5 DUP2 LT PUSH2 0x3F65 JUMPI POP POP POP PUSH2 0x3EED JUMP JUMPDEST SWAP1 SWAP2 DUP1 SWAP4 SWAP5 SWAP6 SWAP7 POP DUP2 SSTORE PUSH2 0x3F7A DUP12 DUP3 ADD PUSH2 0x3902 JUMP JUMPDEST PUSH2 0x3F85 DUP5 DUP3 ADD PUSH2 0x3902 JUMP JUMPDEST ADD SWAP1 DUP8 DUP7 SWAP6 SWAP5 SWAP4 SWAP3 PUSH2 0x3F56 JUMP JUMPDEST SWAP1 DUP2 SLOAD PUSH1 0x1 PUSH1 0x40 SHL DUP2 LT ISZERO PUSH2 0x15F6 JUMPI PUSH1 0x1 DUP2 ADD DUP1 DUP5 SSTORE DUP2 LT ISZERO PUSH2 0x1E66 JUMPI PUSH2 0x35F4 SWAP3 PUSH1 0x0 MSTORE PUSH1 0x3 PUSH1 0x20 PUSH1 0x0 KECCAK256 SWAP2 MUL ADD PUSH2 0x3E20 JUMP JUMPDEST DUP1 MLOAD SWAP1 PUSH1 0x20 SWAP2 DUP3 DUP3 ADD SWAP1 DUP2 KECCAK256 SWAP1 PUSH1 0x0 SWAP3 DUP4 SLOAD SWAP3 DUP4 ISZERO PUSH2 0x4323 JUMPI SWAP1 DUP6 SWAP3 SWAP2 DUP6 DUP1 MSTORE PUSH1 0x40 MLOAD DUP7 SWAP1 PUSH32 0x290DECD9548B62A8D60345A988386FC84BA6BC95484008F6362F93160EF3E563 DUP2 DUP2 SLOAD SWAP4 PUSH2 0x4018 DUP6 PUSH2 0x2D57 JUMP JUMPDEST SWAP3 DUP4 DUP4 MSTORE DUP10 DUP4 ADD SWAP6 PUSH1 0x1 SWAP14 DUP15 DUP3 AND SWAP2 DUP3 PUSH1 0x0 EQ PUSH2 0x4305 JUMPI POP POP PUSH1 0x1 EQ PUSH2 0x42AA JUMPI JUMPDEST POP PUSH2 0x4046 SWAP3 POP SUB DUP3 PUSH2 0x2EAF JUMP JUMPDEST MLOAD SWAP1 KECCAK256 SUB PUSH2 0x4079 JUMPI POP POP POP POP PUSH1 0x2 SLOAD SWAP2 DUP3 ADD DUP1 SWAP3 GT PUSH2 0x4065 JUMPI POP PUSH1 0x2 SSTORE JUMP JUMPDEST PUSH4 0x4E487B71 PUSH1 0xE0 SHL DUP2 MSTORE PUSH1 0x11 PUSH1 0x4 MSTORE PUSH1 0x24 SWAP1 REVERT JUMPDEST DUP1 MLOAD DUP3 KECCAK256 DUP5 DUP8 LT ISZERO PUSH2 0x4296 JUMPI DUP6 DUP1 MSTORE DUP7 PUSH1 0x40 MLOAD DUP8 DUP2 PUSH32 0x290DECD9548B62A8D60345A988386FC84BA6BC95484008F6362F93160EF3E564 SWAP2 DUP3 SLOAD SWAP3 PUSH2 0x40BC DUP5 PUSH2 0x2D57 JUMP JUMPDEST SWAP4 DUP5 DUP5 MSTORE DUP11 DUP1 DUP6 ADD SWAP8 DUP3 AND SWAP2 DUP3 PUSH1 0x0 EQ PUSH2 0x4278 JUMPI POP POP PUSH1 0x1 EQ PUSH2 0x421D JUMPI JUMPDEST POP PUSH2 0x40E7 SWAP3 POP SUB DUP3 PUSH2 0x2EAF JUMP JUMPDEST MLOAD SWAP1 KECCAK256 SUB PUSH2 0x4106 JUMPI POP POP POP POP PUSH1 0x3 SLOAD SWAP2 DUP3 ADD DUP1 SWAP3 GT PUSH2 0x4065 JUMPI POP PUSH1 0x3 SSTORE JUMP JUMPDEST MLOAD SWAP1 KECCAK256 SWAP2 PUSH1 0x2 LT ISZERO PUSH2 0x4209 JUMPI DUP3 DUP1 MSTORE PUSH1 0x40 MLOAD DUP4 SWAP2 DUP2 PUSH32 0x290DECD9548B62A8D60345A988386FC84BA6BC95484008F6362F93160EF3E565 SWAP4 DUP5 SLOAD SWAP5 PUSH2 0x4149 DUP7 PUSH2 0x2D57 JUMP JUMPDEST SWAP1 DUP2 DUP5 MSTORE DUP5 DUP5 ADD SWAP7 DUP11 DUP2 AND SWAP1 DUP2 PUSH1 0x0 EQ PUSH2 0x41EB JUMPI POP PUSH1 0x1 EQ PUSH2 0x4193 JUMPI JUMPDEST POP POP PUSH2 0x4174 SWAP3 POP SUB DUP3 PUSH2 0x2EAF JUMP JUMPDEST MLOAD SWAP1 KECCAK256 EQ PUSH2 0x4180 JUMPI POP POP JUMP JUMPDEST PUSH1 0x4 SLOAD SWAP2 DUP3 ADD DUP1 SWAP3 GT PUSH2 0x4065 JUMPI POP PUSH1 0x4 SSTORE JUMP JUMPDEST DUP9 MSTORE DUP8 SWAP2 POP DUP9 PUSH32 0x63D75DB57AE45C3799740C3CD8DCEE96A498324843D79AE390ADC81D74B52F13 JUMPDEST DUP3 DUP5 LT PUSH2 0x41D4 JUMPI POP POP POP SWAP2 PUSH2 0x4174 SWAP3 DUP3 ADD ADD CODESIZE DUP1 PUSH2 0x4166 JUMP JUMPDEST DUP1 SLOAD DUP8 DUP6 ADD DUP8 ADD MSTORE DUP7 SWAP5 POP SWAP3 DUP6 ADD SWAP3 DUP11 SWAP2 ADD PUSH2 0x41BB JUMP JUMPDEST SWAP2 POP POP PUSH2 0x4174 SWAP5 SWAP3 POP PUSH1 0xFF NOT AND DUP7 MSTORE ISZERO ISZERO PUSH1 0x5 SHL DUP3 ADD ADD CODESIZE DUP1 PUSH2 0x4166 JUMP JUMPDEST PUSH4 0x4E487B71 PUSH1 0xE0 SHL DUP4 MSTORE PUSH1 0x32 PUSH1 0x4 MSTORE PUSH1 0x24 DUP4 REVERT JUMPDEST DUP12 MSTORE POP DUP3 SWAP1 POP DUP8 DUP11 DUP13 PUSH32 0x6C13D8C1C5DF666EA9CA2A428504A3776C8CA01021C3A1524CA7D765F600979A JUMPDEST DUP6 DUP4 LT PUSH2 0x425F JUMPI POP POP PUSH2 0x40E7 SWAP4 POP DUP3 ADD ADD CODESIZE PUSH2 0x40DA JUMP JUMPDEST DUP1 SWAP2 SWAP3 SWAP5 POP SLOAD DUP4 DUP6 DUP9 ADD ADD MSTORE ADD SWAP2 ADD DUP9 SWAP1 DUP13 DUP6 SWAP4 PUSH2 0x4248 JUMP JUMPDEST PUSH1 0xFF NOT AND DUP9 MSTORE PUSH2 0x40E7 SWAP6 ISZERO ISZERO PUSH1 0x5 SHL DUP6 ADD ADD SWAP3 POP CODESIZE SWAP2 POP PUSH2 0x40DA SWAP1 POP JUMP JUMPDEST PUSH4 0x4E487B71 PUSH1 0xE0 SHL DUP7 MSTORE PUSH1 0x32 PUSH1 0x4 MSTORE PUSH1 0x24 DUP7 REVERT JUMPDEST DUP12 MSTORE POP DUP3 SWAP1 POP DUP8 DUP11 DUP13 PUSH32 0x510E4E770828DDBF7F7B00AB00A9F6ADAF81C0DC9CC85F1F8249C256942D61D9 JUMPDEST DUP6 DUP4 LT PUSH2 0x42EC JUMPI POP POP PUSH2 0x4046 SWAP4 POP DUP3 ADD ADD CODESIZE PUSH2 0x4039 JUMP JUMPDEST DUP1 SWAP2 SWAP3 SWAP5 POP SLOAD DUP4 DUP6 DUP9 ADD ADD MSTORE ADD SWAP2 ADD DUP9 SWAP1 DUP13 DUP6 SWAP4 PUSH2 0x42D5 JUMP JUMPDEST PUSH1 0xFF NOT AND DUP9 MSTORE PUSH2 0x4046 SWAP6 ISZERO ISZERO PUSH1 0x5 SHL DUP6 ADD ADD SWAP3 POP CODESIZE SWAP2 POP PUSH2 0x4039 SWAP1 POP JUMP JUMPDEST PUSH4 0x4E487B71 PUSH1 0xE0 SHL DUP6 MSTORE PUSH1 0x32 PUSH1 0x4 MSTORE PUSH1 0x24 DUP6 REVERT JUMPDEST PUSH1 0x40 MLOAD SWAP1 PUSH2 0x4344 DUP3 PUSH2 0x2E5D JUMP JUMPDEST DUP2 PUSH1 0x0 DUP2 MSTORE PUSH2 0x160 PUSH1 0x60 SWAP2 DUP3 PUSH1 0x20 DUP3 ADD MSTORE PUSH1 0x0 PUSH1 0x40 DUP3 ADD MSTORE PUSH1 0x0 DUP4 DUP3 ADD MSTORE DUP3 PUSH1 0x80 DUP3 ADD MSTORE DUP3 PUSH1 0xA0 DUP3 ADD MSTORE DUP3 PUSH1 0xC0 DUP3 ADD MSTORE DUP3 PUSH1 0xE0 DUP3 ADD MSTORE DUP3 PUSH2 0x100 DUP3 ADD MSTORE DUP3 PUSH2 0x120 DUP3 ADD MSTORE DUP3 PUSH2 0x140 DUP3 ADD MSTORE ADD MSTORE JUMP JUMPDEST SWAP1 PUSH1 0x5 PUSH1 0xA0 PUSH1 0x40 SWAP4 PUSH2 0x3321 DUP6 MLOAD SWAP2 PUSH2 0x43AA DUP4 PUSH2 0x2E27 JUMP JUMPDEST PUSH2 0x4B4 DUP4 SWAP8 PUSH1 0x1 DUP1 DUP8 SHL SUB DUP4 SLOAD AND DUP6 MSTORE DUP1 MLOAD PUSH2 0x43CD DUP2 PUSH2 0x288 DUP2 PUSH1 0x1 DUP9 ADD PUSH2 0x2D91 JUMP JUMPDEST PUSH1 0x20 DUP7 ADD MSTORE PUSH1 0x2 DUP4 ADD SLOAD DUP2 DUP7 ADD MSTORE DUP1 MLOAD PUSH2 0x43EE DUP2 PUSH2 0x288 DUP2 PUSH1 0x3 DUP9 ADD PUSH2 0x2D91 JUMP JUMPDEST PUSH1 0x60 DUP7 ADD MSTORE DUP1 MLOAD PUSH2 0x4406 DUP2 PUSH2 0x288 DUP2 PUSH1 0x4 DUP9 ADD PUSH2 0x2D91 JUMP JUMPDEST PUSH1 0x80 DUP7 ADD MSTORE MLOAD DUP1 SWAP7 DUP2 SWAP4 ADD PUSH2 0x365C JUMP JUMPDEST SWAP1 DUP1 MLOAD PUSH1 0x1 DUP1 PUSH1 0xA0 SHL SUB DUP1 DUP3 MLOAD AND PUSH1 0x1 PUSH1 0x1 PUSH1 0x60 SHL SUB PUSH1 0xA0 SHL DUP6 SLOAD AND OR DUP5 SSTORE PUSH1 0x20 SWAP1 PUSH2 0x44EA PUSH2 0x160 DUP4 DUP6 ADD MLOAD SWAP5 PUSH2 0x4451 PUSH1 0x1 SWAP7 DUP8 DUP11 ADD PUSH2 0x3714 JUMP JUMPDEST PUSH1 0x40 DUP2 ADD MLOAD PUSH1 0x2 DUP10 ADD SSTORE PUSH1 0x60 DUP2 ADD MLOAD PUSH1 0x3 DUP10 ADD SSTORE PUSH2 0x4476 PUSH1 0x80 DUP3 ADD MLOAD PUSH1 0x4 DUP11 ADD PUSH2 0x3714 JUMP JUMPDEST PUSH2 0x4487 PUSH1 0xA0 DUP3 ADD MLOAD PUSH1 0x5 DUP11 ADD PUSH2 0x3714 JUMP JUMPDEST PUSH2 0x4498 PUSH1 0xC0 DUP3 ADD MLOAD PUSH1 0x6 DUP11 ADD PUSH2 0x3714 JUMP JUMPDEST PUSH2 0x44A9 PUSH1 0xE0 DUP3 ADD MLOAD PUSH1 0x7 DUP11 ADD PUSH2 0x3714 JUMP JUMPDEST PUSH2 0x44BB PUSH2 0x100 DUP3 ADD MLOAD PUSH1 0x8 DUP11 ADD PUSH2 0x3714 JUMP JUMPDEST PUSH2 0x44CD PUSH2 0x120 DUP3 ADD MLOAD PUSH1 0x9 DUP11 ADD PUSH2 0x3714 JUMP JUMPDEST PUSH2 0x44DF PUSH2 0x140 DUP3 ADD MLOAD PUSH1 0xA DUP11 ADD PUSH2 0x3714 JUMP JUMPDEST ADD MLOAD PUSH1 0xB DUP8 ADD PUSH2 0x3714 JUMP JUMPDEST PUSH1 0xC DUP6 ADD SWAP1 DUP3 DUP6 ADD MLOAD SWAP3 DUP4 MLOAD SWAP4 PUSH1 0x1 PUSH1 0x1 PUSH1 0x40 SHL SUB DUP6 GT PUSH2 0x15F6 JUMPI DUP2 SWAP1 PUSH2 0x4511 DUP7 DUP7 PUSH2 0x3818 JUMP JUMPDEST ADD SWAP3 PUSH1 0x0 MSTORE DUP1 PUSH1 0x0 KECCAK256 SWAP2 PUSH1 0x0 JUMPDEST DUP6 DUP2 LT PUSH2 0x4538 JUMPI POP POP POP POP POP POP POP PUSH1 0x40 PUSH1 0xD SWAP2 ADD MLOAD SWAP2 ADD SSTORE JUMP JUMPDEST DUP5 MLOAD DUP3 AND DUP5 DUP3 ADD SSTORE SWAP4 DUP3 ADD SWAP4 DUP7 ADD PUSH2 0x451E JUMP JUMPDEST SWAP1 PUSH1 0x40 MLOAD PUSH2 0x4558 DUP2 PUSH2 0x2E42 JUMP JUMPDEST PUSH1 0x40 PUSH1 0xD DUP3 SWAP5 PUSH2 0x4567 DUP2 PUSH2 0x3217 JUMP JUMPDEST DUP5 MSTORE DUP3 MLOAD PUSH2 0x457C DUP2 PUSH2 0x288 DUP2 PUSH1 0xC DUP7 ADD PUSH2 0x365C JUMP JUMPDEST PUSH1 0x20 DUP6 ADD MSTORE ADD SLOAD SWAP2 ADD MSTORE JUMP JUMPDEST SWAP1 PUSH1 0x1 DUP3 ADD DUP1 SWAP3 GT PUSH2 0x1E50 JUMPI JUMP INVALID LOG2 PUSH5 0x6970667358 0x22 SLT KECCAK256 SHR 0x4F PUSH15 0x26F3278511EA43648CC1C9B02DDEFB DUP12 0xBB 0xD4 EXTCODECOPY JUMP REVERT 0x4B SLOAD DUP16 SELFBALANCE 0xBC DUP12 LOG4 0x23 PUSH5 0x736F6C6343 STOP ADDMOD GT STOP CALLER "
		},
		"gasEstimates": {
			"creation": {
				"codeDepositCost": "3573600",
				"executionCost": "infinite",
				"totalCost": "infinite"
			},
			"external": {
				"addCandidate(string,uint256,uint256,string,string,string,string,string,string,string,string,string,string)": "infinite",
				"addFaqComment(address,string,string)": "infinite",
				"addFaqs(string,string,string,string)": "infinite",
				"addParty(string,uint256,string,string)": "infinite",
				"addSelectedCandidates((address,string,string)[],string)": "infinite",
				"addVoter(string,uint256,uint256,string,string,string,string,string,string,string,string)": "infinite",
				"adminAddress()": "3159",
				"candidateList(uint256)": "infinite",
				"candidateNames(uint256)": "infinite",
				"candidates(address)": "infinite",
				"createElection(string,string,string,string,string,string[])": "infinite",
				"electionList(uint256)": "infinite",
				"elections(string)": "infinite",
				"faqList(uint256)": "infinite",
				"faqs(address)": "infinite",
				"gender_list(uint256)": "infinite",
				"getAllCandidates()": "infinite",
				"getAllElections()": "infinite",
				"getAllFAQs()": "infinite",
				"getAllParties()": "infinite",
				"getAllVoters()": "infinite",
				"getCandidateDetails(address)": "infinite",
				"getPartyDetails(address)": "infinite",
				"getVoterDetails(address)": "infinite",
				"isAdmin(address)": "2521",
				"parties(address)": "infinite",
				"partyList(uint256)": "infinite",
				"partyNames(uint256)": "infinite",
				"totalCandidate()": "2346",
				"totalElection()": "2830",
				"totalFemaleVoters()": "2742",
				"totalMaleVoters()": "2302",
				"totalOtherVoters()": "2324",
				"totalParty()": "3116",
				"totalVoter()": "2610",
				"updateCounter(string)": "infinite",
				"vote(address,string)": "infinite",
				"voteCount()": "3028",
				"voterList(uint256)": "infinite",
				"voterNames(uint256)": "infinite",
				"voters(address)": "infinite"
			}
		},
		"methodIdentifiers": {
			"addCandidate(string,uint256,uint256,string,string,string,string,string,string,string,string,string,string)": "2d23c735",
			"addFaqComment(address,string,string)": "e9af3fc0",
			"addFaqs(string,string,string,string)": "69d2bca1",
			"addParty(string,uint256,string,string)": "1d50384b",
			"addSelectedCandidates((address,string,string)[],string)": "6c9abccb",
			"addVoter(string,uint256,uint256,string,string,string,string,string,string,string,string)": "9eda74cf",
			"adminAddress()": "fc6f9468",
			"candidateList(uint256)": "b13c744b",
			"candidateNames(uint256)": "8287e42f",
			"candidates(address)": "8ab66a90",
			"createElection(string,string,string,string,string,string[])": "71c693eb",
			"electionList(uint256)": "defb908f",
			"elections(string)": "4a3ccc96",
			"faqList(uint256)": "9682f9b3",
			"faqs(address)": "0273d66e",
			"gender_list(uint256)": "6394a8fa",
			"getAllCandidates()": "2e6997fe",
			"getAllElections()": "7fd5f268",
			"getAllFAQs()": "2526e05d",
			"getAllParties()": "b867bfcc",
			"getAllVoters()": "35bbe70e",
			"getCandidateDetails(address)": "53ac5dc3",
			"getPartyDetails(address)": "00da7228",
			"getVoterDetails(address)": "ba71bef0",
			"isAdmin(address)": "24d7806c",
			"parties(address)": "4f235207",
			"partyList(uint256)": "640e79b7",
			"partyNames(uint256)": "f3845166",
			"totalCandidate()": "1812dab4",
			"totalElection()": "8d0371ff",
			"totalFemaleVoters()": "7c054c54",
			"totalMaleVoters()": "029c21bd",
			"totalOtherVoters()": "0983f185",
			"totalParty()": "f7c4c25a",
			"totalVoter()": "6332abc9",
			"updateCounter(string)": "b0a4ec42",
			"vote(address,string)": "1bf533a4",
			"voteCount()": "c6384071",
			"voterList(uint256)": "50e2e8af",
			"voterNames(uint256)": "a96278ae",
			"voters(address)": "a3ec138d"
		}
	},
	"abi": [
		{
			"anonymous": false,
			"inputs": [
				{
					"components": [
						{
							"components": [
								{
									"internalType": "address",
									"name": "_id",
									"type": "address"
								},
								{
									"internalType": "string",
									"name": "fullName",
									"type": "string"
								},
								{
									"internalType": "uint256",
									"name": "citizenshipNumber",
									"type": "uint256"
								},
								{
									"internalType": "uint256",
									"name": "age",
									"type": "uint256"
								},
								{
									"internalType": "string",
									"name": "gender",
									"type": "string"
								},
								{
									"internalType": "string",
									"name": "dob",
									"type": "string"
								},
								{
									"internalType": "string",
									"name": "email",
									"type": "string"
								},
								{
									"internalType": "string",
									"name": "profile",
									"type": "string"
								},
								{
									"internalType": "string",
									"name": "province",
									"type": "string"
								},
								{
									"internalType": "string",
									"name": "district",
									"type": "string"
								},
								{
									"internalType": "string",
									"name": "municipality",
									"type": "string"
								},
								{
									"internalType": "string",
									"name": "ward",
									"type": "string"
								}
							],
							"internalType": "struct Structure.User",
							"name": "user",
							"type": "tuple"
						},
						{
							"internalType": "string",
							"name": "partyName",
							"type": "string"
						},
						{
							"internalType": "string",
							"name": "position",
							"type": "string"
						},
						{
							"internalType": "string",
							"name": "votingBooth",
							"type": "string"
						},
						{
							"internalType": "string",
							"name": "agenda",
							"type": "string"
						},
						{
							"internalType": "uint256",
							"name": "voteCount",
							"type": "uint256"
						},
						{
							"internalType": "address[]",
							"name": "votedVoterLists",
							"type": "address[]"
						}
					],
					"indexed": false,
					"internalType": "struct Structure.Candidate",
					"name": "candidate",
					"type": "tuple"
				}
			],
			"name": "CandidateCreated",
			"type": "event"
		},
		{
			"anonymous": false,
			"inputs": [
				{
					"components": [
						{
							"internalType": "address",
							"name": "_id",
							"type": "address"
						},
						{
							"internalType": "string",
							"name": "title",
							"type": "string"
						},
						{
							"internalType": "string",
							"name": "description",
							"type": "string"
						},
						{
							"internalType": "string",
							"name": "fileUrl",
							"type": "string"
						},
						{
							"internalType": "string",
							"name": "createdAt",
							"type": "string"
						},
						{
							"components": [
								{
									"internalType": "address",
									"name": "userId",
									"type": "address"
								},
								{
									"internalType": "string",
									"name": "replyMsg",
									"type": "string"
								},
								{
									"internalType": "string",
									"name": "createdAt",
									"type": "string"
								}
							],
							"internalType": "struct Structure.ReplyComment[]",
							"name": "comments",
							"type": "tuple[]"
						}
					],
					"indexed": false,
					"internalType": "struct Structure.FAQ",
					"name": "faq",
					"type": "tuple"
				}
			],
			"name": "NewFaqAdded",
			"type": "event"
		},
		{
			"anonymous": false,
			"inputs": [
				{
					"components": [
						{
							"internalType": "address",
							"name": "owner",
							"type": "address"
						},
						{
							"internalType": "string",
							"name": "name",
							"type": "string"
						},
						{
							"internalType": "uint256",
							"name": "totalMember",
							"type": "uint256"
						},
						{
							"internalType": "string",
							"name": "agenda",
							"type": "string"
						},
						{
							"internalType": "string",
							"name": "logoUrl",
							"type": "string"
						},
						{
							"internalType": "address[]",
							"name": "members",
							"type": "address[]"
						}
					],
					"indexed": false,
					"internalType": "struct Structure.Party",
					"name": "party",
					"type": "tuple"
				}
			],
			"name": "PartyCreated",
			"type": "event"
		},
		{
			"anonymous": false,
			"inputs": [
				{
					"components": [
						{
							"components": [
								{
									"internalType": "address",
									"name": "_id",
									"type": "address"
								},
								{
									"internalType": "string",
									"name": "fullName",
									"type": "string"
								},
								{
									"internalType": "uint256",
									"name": "citizenshipNumber",
									"type": "uint256"
								},
								{
									"internalType": "uint256",
									"name": "age",
									"type": "uint256"
								},
								{
									"internalType": "string",
									"name": "gender",
									"type": "string"
								},
								{
									"internalType": "string",
									"name": "dob",
									"type": "string"
								},
								{
									"internalType": "string",
									"name": "email",
									"type": "string"
								},
								{
									"internalType": "string",
									"name": "profile",
									"type": "string"
								},
								{
									"internalType": "string",
									"name": "province",
									"type": "string"
								},
								{
									"internalType": "string",
									"name": "district",
									"type": "string"
								},
								{
									"internalType": "string",
									"name": "municipality",
									"type": "string"
								},
								{
									"internalType": "string",
									"name": "ward",
									"type": "string"
								}
							],
							"internalType": "struct Structure.User",
							"name": "user",
							"type": "tuple"
						},
						{
							"internalType": "string",
							"name": "partyName",
							"type": "string"
						},
						{
							"internalType": "string",
							"name": "position",
							"type": "string"
						},
						{
							"internalType": "string",
							"name": "votingBooth",
							"type": "string"
						},
						{
							"internalType": "string",
							"name": "agenda",
							"type": "string"
						},
						{
							"internalType": "uint256",
							"name": "voteCount",
							"type": "uint256"
						},
						{
							"internalType": "address[]",
							"name": "votedVoterLists",
							"type": "address[]"
						}
					],
					"indexed": false,
					"internalType": "struct Structure.Candidate",
					"name": "candidate",
					"type": "tuple"
				}
			],
			"name": "VoteCast",
			"type": "event"
		},
		{
			"anonymous": false,
			"inputs": [
				{
					"components": [
						{
							"components": [
								{
									"internalType": "address",
									"name": "_id",
									"type": "address"
								},
								{
									"internalType": "string",
									"name": "fullName",
									"type": "string"
								},
								{
									"internalType": "uint256",
									"name": "citizenshipNumber",
									"type": "uint256"
								},
								{
									"internalType": "uint256",
									"name": "age",
									"type": "uint256"
								},
								{
									"internalType": "string",
									"name": "gender",
									"type": "string"
								},
								{
									"internalType": "string",
									"name": "dob",
									"type": "string"
								},
								{
									"internalType": "string",
									"name": "email",
									"type": "string"
								},
								{
									"internalType": "string",
									"name": "profile",
									"type": "string"
								},
								{
									"internalType": "string",
									"name": "province",
									"type": "string"
								},
								{
									"internalType": "string",
									"name": "district",
									"type": "string"
								},
								{
									"internalType": "string",
									"name": "municipality",
									"type": "string"
								},
								{
									"internalType": "string",
									"name": "ward",
									"type": "string"
								}
							],
							"internalType": "struct Structure.User",
							"name": "user",
							"type": "tuple"
						},
						{
							"internalType": "address[]",
							"name": "votedCandidateList",
							"type": "address[]"
						},
						{
							"internalType": "uint256",
							"name": "voteLimitCount",
							"type": "uint256"
						}
					],
					"indexed": false,
					"internalType": "struct Structure.Voter",
					"name": "voter",
					"type": "tuple"
				}
			],
			"name": "VoterCreated",
			"type": "event"
		},
		{
			"anonymous": false,
			"inputs": [
				{
					"components": [
						{
							"internalType": "string",
							"name": "title",
							"type": "string"
						},
						{
							"internalType": "string",
							"name": "description",
							"type": "string"
						},
						{
							"internalType": "string",
							"name": "startDate",
							"type": "string"
						},
						{
							"internalType": "string",
							"name": "endDate",
							"type": "string"
						},
						{
							"internalType": "string",
							"name": "electionType",
							"type": "string"
						},
						{
							"components": [
								{
									"components": [
										{
											"internalType": "address",
											"name": "_id",
											"type": "address"
										},
										{
											"internalType": "string",
											"name": "fullName",
											"type": "string"
										},
										{
											"internalType": "uint256",
											"name": "citizenshipNumber",
											"type": "uint256"
										},
										{
											"internalType": "uint256",
											"name": "age",
											"type": "uint256"
										},
										{
											"internalType": "string",
											"name": "gender",
											"type": "string"
										},
										{
											"internalType": "string",
											"name": "dob",
											"type": "string"
										},
										{
											"internalType": "string",
											"name": "email",
											"type": "string"
										},
										{
											"internalType": "string",
											"name": "profile",
											"type": "string"
										},
										{
											"internalType": "string",
											"name": "province",
											"type": "string"
										},
										{
											"internalType": "string",
											"name": "district",
											"type": "string"
										},
										{
											"internalType": "string",
											"name": "municipality",
											"type": "string"
										},
										{
											"internalType": "string",
											"name": "ward",
											"type": "string"
										}
									],
									"internalType": "struct Structure.User",
									"name": "user",
									"type": "tuple"
								},
								{
									"internalType": "string",
									"name": "partyName",
									"type": "string"
								},
								{
									"internalType": "string",
									"name": "position",
									"type": "string"
								},
								{
									"internalType": "string",
									"name": "votingBooth",
									"type": "string"
								},
								{
									"internalType": "string",
									"name": "agenda",
									"type": "string"
								},
								{
									"internalType": "uint256",
									"name": "voteCount",
									"type": "uint256"
								},
								{
									"internalType": "address[]",
									"name": "votedVoterLists",
									"type": "address[]"
								}
							],
							"internalType": "struct Structure.Candidate[]",
							"name": "candidates",
							"type": "tuple[]"
						},
						{
							"internalType": "string[]",
							"name": "galleryImagesUrl",
							"type": "string[]"
						}
					],
					"indexed": false,
					"internalType": "struct Structure.Election",
					"name": "election",
					"type": "tuple"
				}
			],
			"name": "electionStart",
			"type": "event"
		},
		{
			"inputs": [
				{
					"internalType": "string",
					"name": "_name",
					"type": "string"
				},
				{
					"internalType": "uint256",
					"name": "_citizenshipNo",
					"type": "uint256"
				},
				{
					"internalType": "uint256",
					"name": "_age",
					"type": "uint256"
				},
				{
					"internalType": "string",
					"name": "_agenda",
					"type": "string"
				},
				{
					"internalType": "string",
					"name": "_dob",
					"type": "string"
				},
				{
					"internalType": "string",
					"name": "_email",
					"type": "string"
				},
				{
					"internalType": "string",
					"name": "_profile",
					"type": "string"
				},
				{
					"internalType": "string",
					"name": "_partyName",
					"type": "string"
				},
				{
					"internalType": "string",
					"name": "_province",
					"type": "string"
				},
				{
					"internalType": "string",
					"name": "_district",
					"type": "string"
				},
				{
					"internalType": "string",
					"name": "_municipality",
					"type": "string"
				},
				{
					"internalType": "string",
					"name": "_ward",
					"type": "string"
				},
				{
					"internalType": "string",
					"name": "_gender",
					"type": "string"
				}
			],
			"name": "addCandidate",
			"outputs": [],
			"stateMutability": "payable",
			"type": "function"
		},
		{
			"inputs": [
				{
					"internalType": "address",
					"name": "faqId",
					"type": "address"
				},
				{
					"internalType": "string",
					"name": "replyMsg",
					"type": "string"
				},
				{
					"internalType": "string",
					"name": "createdAt",
					"type": "string"
				}
			],
			"name": "addFaqComment",
			"outputs": [],
			"stateMutability": "payable",
			"type": "function"
		},
		{
			"inputs": [
				{
					"internalType": "string",
					"name": "title",
					"type": "string"
				},
				{
					"internalType": "string",
					"name": "description",
					"type": "string"
				},
				{
					"internalType": "string",
					"name": "fileUrl",
					"type": "string"
				},
				{
					"internalType": "string",
					"name": "createdAt",
					"type": "string"
				}
			],
			"name": "addFaqs",
			"outputs": [],
			"stateMutability": "payable",
			"type": "function"
		},
		{
			"inputs": [
				{
					"internalType": "string",
					"name": "_name",
					"type": "string"
				},
				{
					"internalType": "uint256",
					"name": "_totalMember",
					"type": "uint256"
				},
				{
					"internalType": "string",
					"name": "_agenda",
					"type": "string"
				},
				{
					"internalType": "string",
					"name": "_logoUrl",
					"type": "string"
				}
			],
			"name": "addParty",
			"outputs": [],
			"stateMutability": "payable",
			"type": "function"
		},
		{
			"inputs": [
				{
					"components": [
						{
							"internalType": "address",
							"name": "_id",
							"type": "address"
						},
						{
							"internalType": "string",
							"name": "position",
							"type": "string"
						},
						{
							"internalType": "string",
							"name": "votingBooth",
							"type": "string"
						}
					],
					"internalType": "struct Structure.SelectedCandidatePayload[]",
					"name": "_selectedCandidates",
					"type": "tuple[]"
				},
				{
					"internalType": "string",
					"name": "electionAddress",
					"type": "string"
				}
			],
			"name": "addSelectedCandidates",
			"outputs": [],
			"stateMutability": "payable",
			"type": "function"
		},
		{
			"inputs": [
				{
					"internalType": "string",
					"name": "_name",
					"type": "string"
				},
				{
					"internalType": "uint256",
					"name": "_citizenshipNo",
					"type": "uint256"
				},
				{
					"internalType": "uint256",
					"name": "_age",
					"type": "uint256"
				},
				{
					"internalType": "string",
					"name": "_dob",
					"type": "string"
				},
				{
					"internalType": "string",
					"name": "_email",
					"type": "string"
				},
				{
					"internalType": "string",
					"name": "_profile",
					"type": "string"
				},
				{
					"internalType": "string",
					"name": "_province",
					"type": "string"
				},
				{
					"internalType": "string",
					"name": "_district",
					"type": "string"
				},
				{
					"internalType": "string",
					"name": "_municipality",
					"type": "string"
				},
				{
					"internalType": "string",
					"name": "_ward",
					"type": "string"
				},
				{
					"internalType": "string",
					"name": "_gender",
					"type": "string"
				}
			],
			"name": "addVoter",
			"outputs": [],
			"stateMutability": "payable",
			"type": "function"
		},
		{
			"inputs": [],
			"name": "adminAddress",
			"outputs": [
				{
					"internalType": "address",
					"name": "",
					"type": "address"
				}
			],
			"stateMutability": "view",
			"type": "function"
		},
		{
			"inputs": [
				{
					"internalType": "uint256",
					"name": "",
					"type": "uint256"
				}
			],
			"name": "candidateList",
			"outputs": [
				{
					"components": [
						{
							"internalType": "address",
							"name": "_id",
							"type": "address"
						},
						{
							"internalType": "string",
							"name": "fullName",
							"type": "string"
						},
						{
							"internalType": "uint256",
							"name": "citizenshipNumber",
							"type": "uint256"
						},
						{
							"internalType": "uint256",
							"name": "age",
							"type": "uint256"
						},
						{
							"internalType": "string",
							"name": "gender",
							"type": "string"
						},
						{
							"internalType": "string",
							"name": "dob",
							"type": "string"
						},
						{
							"internalType": "string",
							"name": "email",
							"type": "string"
						},
						{
							"internalType": "string",
							"name": "profile",
							"type": "string"
						},
						{
							"internalType": "string",
							"name": "province",
							"type": "string"
						},
						{
							"internalType": "string",
							"name": "district",
							"type": "string"
						},
						{
							"internalType": "string",
							"name": "municipality",
							"type": "string"
						},
						{
							"internalType": "string",
							"name": "ward",
							"type": "string"
						}
					],
					"internalType": "struct Structure.User",
					"name": "user",
					"type": "tuple"
				},
				{
					"internalType": "string",
					"name": "partyName",
					"type": "string"
				},
				{
					"internalType": "string",
					"name": "position",
					"type": "string"
				},
				{
					"internalType": "string",
					"name": "votingBooth",
					"type": "string"
				},
				{
					"internalType": "string",
					"name": "agenda",
					"type": "string"
				},
				{
					"internalType": "uint256",
					"name": "voteCount",
					"type": "uint256"
				}
			],
			"stateMutability": "view",
			"type": "function"
		},
		{
			"inputs": [
				{
					"internalType": "uint256",
					"name": "",
					"type": "uint256"
				}
			],
			"name": "candidateNames",
			"outputs": [
				{
					"internalType": "string",
					"name": "",
					"type": "string"
				}
			],
			"stateMutability": "view",
			"type": "function"
		},
		{
			"inputs": [
				{
					"internalType": "address",
					"name": "",
					"type": "address"
				}
			],
			"name": "candidates",
			"outputs": [
				{
					"components": [
						{
							"internalType": "address",
							"name": "_id",
							"type": "address"
						},
						{
							"internalType": "string",
							"name": "fullName",
							"type": "string"
						},
						{
							"internalType": "uint256",
							"name": "citizenshipNumber",
							"type": "uint256"
						},
						{
							"internalType": "uint256",
							"name": "age",
							"type": "uint256"
						},
						{
							"internalType": "string",
							"name": "gender",
							"type": "string"
						},
						{
							"internalType": "string",
							"name": "dob",
							"type": "string"
						},
						{
							"internalType": "string",
							"name": "email",
							"type": "string"
						},
						{
							"internalType": "string",
							"name": "profile",
							"type": "string"
						},
						{
							"internalType": "string",
							"name": "province",
							"type": "string"
						},
						{
							"internalType": "string",
							"name": "district",
							"type": "string"
						},
						{
							"internalType": "string",
							"name": "municipality",
							"type": "string"
						},
						{
							"internalType": "string",
							"name": "ward",
							"type": "string"
						}
					],
					"internalType": "struct Structure.User",
					"name": "user",
					"type": "tuple"
				},
				{
					"internalType": "string",
					"name": "partyName",
					"type": "string"
				},
				{
					"internalType": "string",
					"name": "position",
					"type": "string"
				},
				{
					"internalType": "string",
					"name": "votingBooth",
					"type": "string"
				},
				{
					"internalType": "string",
					"name": "agenda",
					"type": "string"
				},
				{
					"internalType": "uint256",
					"name": "voteCount",
					"type": "uint256"
				}
			],
			"stateMutability": "view",
			"type": "function"
		},
		{
			"inputs": [
				{
					"internalType": "string",
					"name": "_title",
					"type": "string"
				},
				{
					"internalType": "string",
					"name": "_description",
					"type": "string"
				},
				{
					"internalType": "string",
					"name": "_startDate",
					"type": "string"
				},
				{
					"internalType": "string",
					"name": "_endDate",
					"type": "string"
				},
				{
					"internalType": "string",
					"name": "_electionType",
					"type": "string"
				},
				{
					"internalType": "string[]",
					"name": "galleryImagesUrl",
					"type": "string[]"
				}
			],
			"name": "createElection",
			"outputs": [],
			"stateMutability": "payable",
			"type": "function"
		},
		{
			"inputs": [
				{
					"internalType": "uint256",
					"name": "",
					"type": "uint256"
				}
			],
			"name": "electionList",
			"outputs": [
				{
					"internalType": "string",
					"name": "title",
					"type": "string"
				},
				{
					"internalType": "string",
					"name": "description",
					"type": "string"
				},
				{
					"internalType": "string",
					"name": "startDate",
					"type": "string"
				},
				{
					"internalType": "string",
					"name": "endDate",
					"type": "string"
				},
				{
					"internalType": "string",
					"name": "electionType",
					"type": "string"
				}
			],
			"stateMutability": "view",
			"type": "function"
		},
		{
			"inputs": [
				{
					"internalType": "string",
					"name": "",
					"type": "string"
				}
			],
			"name": "elections",
			"outputs": [
				{
					"internalType": "string",
					"name": "title",
					"type": "string"
				},
				{
					"internalType": "string",
					"name": "description",
					"type": "string"
				},
				{
					"internalType": "string",
					"name": "startDate",
					"type": "string"
				},
				{
					"internalType": "string",
					"name": "endDate",
					"type": "string"
				},
				{
					"internalType": "string",
					"name": "electionType",
					"type": "string"
				}
			],
			"stateMutability": "view",
			"type": "function"
		},
		{
			"inputs": [
				{
					"internalType": "uint256",
					"name": "",
					"type": "uint256"
				}
			],
			"name": "faqList",
			"outputs": [
				{
					"internalType": "address",
					"name": "_id",
					"type": "address"
				},
				{
					"internalType": "string",
					"name": "title",
					"type": "string"
				},
				{
					"internalType": "string",
					"name": "description",
					"type": "string"
				},
				{
					"internalType": "string",
					"name": "fileUrl",
					"type": "string"
				},
				{
					"internalType": "string",
					"name": "createdAt",
					"type": "string"
				}
			],
			"stateMutability": "view",
			"type": "function"
		},
		{
			"inputs": [
				{
					"internalType": "address",
					"name": "",
					"type": "address"
				}
			],
			"name": "faqs",
			"outputs": [
				{
					"internalType": "address",
					"name": "_id",
					"type": "address"
				},
				{
					"internalType": "string",
					"name": "title",
					"type": "string"
				},
				{
					"internalType": "string",
					"name": "description",
					"type": "string"
				},
				{
					"internalType": "string",
					"name": "fileUrl",
					"type": "string"
				},
				{
					"internalType": "string",
					"name": "createdAt",
					"type": "string"
				}
			],
			"stateMutability": "view",
			"type": "function"
		},
		{
			"inputs": [
				{
					"internalType": "uint256",
					"name": "",
					"type": "uint256"
				}
			],
			"name": "gender_list",
			"outputs": [
				{
					"internalType": "string",
					"name": "",
					"type": "string"
				}
			],
			"stateMutability": "view",
			"type": "function"
		},
		{
			"inputs": [],
			"name": "getAllCandidates",
			"outputs": [
				{
					"components": [
						{
							"components": [
								{
									"internalType": "address",
									"name": "_id",
									"type": "address"
								},
								{
									"internalType": "string",
									"name": "fullName",
									"type": "string"
								},
								{
									"internalType": "uint256",
									"name": "citizenshipNumber",
									"type": "uint256"
								},
								{
									"internalType": "uint256",
									"name": "age",
									"type": "uint256"
								},
								{
									"internalType": "string",
									"name": "gender",
									"type": "string"
								},
								{
									"internalType": "string",
									"name": "dob",
									"type": "string"
								},
								{
									"internalType": "string",
									"name": "email",
									"type": "string"
								},
								{
									"internalType": "string",
									"name": "profile",
									"type": "string"
								},
								{
									"internalType": "string",
									"name": "province",
									"type": "string"
								},
								{
									"internalType": "string",
									"name": "district",
									"type": "string"
								},
								{
									"internalType": "string",
									"name": "municipality",
									"type": "string"
								},
								{
									"internalType": "string",
									"name": "ward",
									"type": "string"
								}
							],
							"internalType": "struct Structure.User",
							"name": "user",
							"type": "tuple"
						},
						{
							"internalType": "string",
							"name": "partyName",
							"type": "string"
						},
						{
							"internalType": "string",
							"name": "position",
							"type": "string"
						},
						{
							"internalType": "string",
							"name": "votingBooth",
							"type": "string"
						},
						{
							"internalType": "string",
							"name": "agenda",
							"type": "string"
						},
						{
							"internalType": "uint256",
							"name": "voteCount",
							"type": "uint256"
						},
						{
							"internalType": "address[]",
							"name": "votedVoterLists",
							"type": "address[]"
						}
					],
					"internalType": "struct Structure.Candidate[]",
					"name": "",
					"type": "tuple[]"
				}
			],
			"stateMutability": "view",
			"type": "function"
		},
		{
			"inputs": [],
			"name": "getAllElections",
			"outputs": [
				{
					"components": [
						{
							"internalType": "string",
							"name": "title",
							"type": "string"
						},
						{
							"internalType": "string",
							"name": "description",
							"type": "string"
						},
						{
							"internalType": "string",
							"name": "startDate",
							"type": "string"
						},
						{
							"internalType": "string",
							"name": "endDate",
							"type": "string"
						},
						{
							"internalType": "string",
							"name": "electionType",
							"type": "string"
						},
						{
							"components": [
								{
									"components": [
										{
											"internalType": "address",
											"name": "_id",
											"type": "address"
										},
										{
											"internalType": "string",
											"name": "fullName",
											"type": "string"
										},
										{
											"internalType": "uint256",
											"name": "citizenshipNumber",
											"type": "uint256"
										},
										{
											"internalType": "uint256",
											"name": "age",
											"type": "uint256"
										},
										{
											"internalType": "string",
											"name": "gender",
											"type": "string"
										},
										{
											"internalType": "string",
											"name": "dob",
											"type": "string"
										},
										{
											"internalType": "string",
											"name": "email",
											"type": "string"
										},
										{
											"internalType": "string",
											"name": "profile",
											"type": "string"
										},
										{
											"internalType": "string",
											"name": "province",
											"type": "string"
										},
										{
											"internalType": "string",
											"name": "district",
											"type": "string"
										},
										{
											"internalType": "string",
											"name": "municipality",
											"type": "string"
										},
										{
											"internalType": "string",
											"name": "ward",
											"type": "string"
										}
									],
									"internalType": "struct Structure.User",
									"name": "user",
									"type": "tuple"
								},
								{
									"internalType": "string",
									"name": "partyName",
									"type": "string"
								},
								{
									"internalType": "string",
									"name": "position",
									"type": "string"
								},
								{
									"internalType": "string",
									"name": "votingBooth",
									"type": "string"
								},
								{
									"internalType": "string",
									"name": "agenda",
									"type": "string"
								},
								{
									"internalType": "uint256",
									"name": "voteCount",
									"type": "uint256"
								},
								{
									"internalType": "address[]",
									"name": "votedVoterLists",
									"type": "address[]"
								}
							],
							"internalType": "struct Structure.Candidate[]",
							"name": "candidates",
							"type": "tuple[]"
						},
						{
							"internalType": "string[]",
							"name": "galleryImagesUrl",
							"type": "string[]"
						}
					],
					"internalType": "struct Structure.Election[]",
					"name": "",
					"type": "tuple[]"
				}
			],
			"stateMutability": "view",
			"type": "function"
		},
		{
			"inputs": [],
			"name": "getAllFAQs",
			"outputs": [
				{
					"components": [
						{
							"internalType": "address",
							"name": "_id",
							"type": "address"
						},
						{
							"internalType": "string",
							"name": "title",
							"type": "string"
						},
						{
							"internalType": "string",
							"name": "description",
							"type": "string"
						},
						{
							"internalType": "string",
							"name": "fileUrl",
							"type": "string"
						},
						{
							"internalType": "string",
							"name": "createdAt",
							"type": "string"
						},
						{
							"components": [
								{
									"internalType": "address",
									"name": "userId",
									"type": "address"
								},
								{
									"internalType": "string",
									"name": "replyMsg",
									"type": "string"
								},
								{
									"internalType": "string",
									"name": "createdAt",
									"type": "string"
								}
							],
							"internalType": "struct Structure.ReplyComment[]",
							"name": "comments",
							"type": "tuple[]"
						}
					],
					"internalType": "struct Structure.FAQ[]",
					"name": "",
					"type": "tuple[]"
				}
			],
			"stateMutability": "view",
			"type": "function"
		},
		{
			"inputs": [],
			"name": "getAllParties",
			"outputs": [
				{
					"components": [
						{
							"internalType": "address",
							"name": "owner",
							"type": "address"
						},
						{
							"internalType": "string",
							"name": "name",
							"type": "string"
						},
						{
							"internalType": "uint256",
							"name": "totalMember",
							"type": "uint256"
						},
						{
							"internalType": "string",
							"name": "agenda",
							"type": "string"
						},
						{
							"internalType": "string",
							"name": "logoUrl",
							"type": "string"
						},
						{
							"internalType": "address[]",
							"name": "members",
							"type": "address[]"
						}
					],
					"internalType": "struct Structure.Party[]",
					"name": "",
					"type": "tuple[]"
				}
			],
			"stateMutability": "view",
			"type": "function"
		},
		{
			"inputs": [],
			"name": "getAllVoters",
			"outputs": [
				{
					"components": [
						{
							"components": [
								{
									"internalType": "address",
									"name": "_id",
									"type": "address"
								},
								{
									"internalType": "string",
									"name": "fullName",
									"type": "string"
								},
								{
									"internalType": "uint256",
									"name": "citizenshipNumber",
									"type": "uint256"
								},
								{
									"internalType": "uint256",
									"name": "age",
									"type": "uint256"
								},
								{
									"internalType": "string",
									"name": "gender",
									"type": "string"
								},
								{
									"internalType": "string",
									"name": "dob",
									"type": "string"
								},
								{
									"internalType": "string",
									"name": "email",
									"type": "string"
								},
								{
									"internalType": "string",
									"name": "profile",
									"type": "string"
								},
								{
									"internalType": "string",
									"name": "province",
									"type": "string"
								},
								{
									"internalType": "string",
									"name": "district",
									"type": "string"
								},
								{
									"internalType": "string",
									"name": "municipality",
									"type": "string"
								},
								{
									"internalType": "string",
									"name": "ward",
									"type": "string"
								}
							],
							"internalType": "struct Structure.User",
							"name": "user",
							"type": "tuple"
						},
						{
							"internalType": "address[]",
							"name": "votedCandidateList",
							"type": "address[]"
						},
						{
							"internalType": "uint256",
							"name": "voteLimitCount",
							"type": "uint256"
						}
					],
					"internalType": "struct Structure.Voter[]",
					"name": "",
					"type": "tuple[]"
				}
			],
			"stateMutability": "view",
			"type": "function"
		},
		{
			"inputs": [
				{
					"internalType": "address",
					"name": "_id",
					"type": "address"
				}
			],
			"name": "getCandidateDetails",
			"outputs": [
				{
					"components": [
						{
							"components": [
								{
									"internalType": "address",
									"name": "_id",
									"type": "address"
								},
								{
									"internalType": "string",
									"name": "fullName",
									"type": "string"
								},
								{
									"internalType": "uint256",
									"name": "citizenshipNumber",
									"type": "uint256"
								},
								{
									"internalType": "uint256",
									"name": "age",
									"type": "uint256"
								},
								{
									"internalType": "string",
									"name": "gender",
									"type": "string"
								},
								{
									"internalType": "string",
									"name": "dob",
									"type": "string"
								},
								{
									"internalType": "string",
									"name": "email",
									"type": "string"
								},
								{
									"internalType": "string",
									"name": "profile",
									"type": "string"
								},
								{
									"internalType": "string",
									"name": "province",
									"type": "string"
								},
								{
									"internalType": "string",
									"name": "district",
									"type": "string"
								},
								{
									"internalType": "string",
									"name": "municipality",
									"type": "string"
								},
								{
									"internalType": "string",
									"name": "ward",
									"type": "string"
								}
							],
							"internalType": "struct Structure.User",
							"name": "user",
							"type": "tuple"
						},
						{
							"internalType": "string",
							"name": "partyName",
							"type": "string"
						},
						{
							"internalType": "string",
							"name": "position",
							"type": "string"
						},
						{
							"internalType": "string",
							"name": "votingBooth",
							"type": "string"
						},
						{
							"internalType": "string",
							"name": "agenda",
							"type": "string"
						},
						{
							"internalType": "uint256",
							"name": "voteCount",
							"type": "uint256"
						},
						{
							"internalType": "address[]",
							"name": "votedVoterLists",
							"type": "address[]"
						}
					],
					"internalType": "struct Structure.Candidate",
					"name": "",
					"type": "tuple"
				}
			],
			"stateMutability": "view",
			"type": "function"
		},
		{
			"inputs": [
				{
					"internalType": "address",
					"name": "owner",
					"type": "address"
				}
			],
			"name": "getPartyDetails",
			"outputs": [
				{
					"components": [
						{
							"internalType": "address",
							"name": "owner",
							"type": "address"
						},
						{
							"internalType": "string",
							"name": "name",
							"type": "string"
						},
						{
							"internalType": "uint256",
							"name": "totalMember",
							"type": "uint256"
						},
						{
							"internalType": "string",
							"name": "agenda",
							"type": "string"
						},
						{
							"internalType": "string",
							"name": "logoUrl",
							"type": "string"
						},
						{
							"internalType": "address[]",
							"name": "members",
							"type": "address[]"
						}
					],
					"internalType": "struct Structure.Party",
					"name": "",
					"type": "tuple"
				}
			],
			"stateMutability": "view",
			"type": "function"
		},
		{
			"inputs": [
				{
					"internalType": "address",
					"name": "_id",
					"type": "address"
				}
			],
			"name": "getVoterDetails",
			"outputs": [
				{
					"components": [
						{
							"components": [
								{
									"internalType": "address",
									"name": "_id",
									"type": "address"
								},
								{
									"internalType": "string",
									"name": "fullName",
									"type": "string"
								},
								{
									"internalType": "uint256",
									"name": "citizenshipNumber",
									"type": "uint256"
								},
								{
									"internalType": "uint256",
									"name": "age",
									"type": "uint256"
								},
								{
									"internalType": "string",
									"name": "gender",
									"type": "string"
								},
								{
									"internalType": "string",
									"name": "dob",
									"type": "string"
								},
								{
									"internalType": "string",
									"name": "email",
									"type": "string"
								},
								{
									"internalType": "string",
									"name": "profile",
									"type": "string"
								},
								{
									"internalType": "string",
									"name": "province",
									"type": "string"
								},
								{
									"internalType": "string",
									"name": "district",
									"type": "string"
								},
								{
									"internalType": "string",
									"name": "municipality",
									"type": "string"
								},
								{
									"internalType": "string",
									"name": "ward",
									"type": "string"
								}
							],
							"internalType": "struct Structure.User",
							"name": "user",
							"type": "tuple"
						},
						{
							"internalType": "address[]",
							"name": "votedCandidateList",
							"type": "address[]"
						},
						{
							"internalType": "uint256",
							"name": "voteLimitCount",
							"type": "uint256"
						}
					],
					"internalType": "struct Structure.Voter",
					"name": "",
					"type": "tuple"
				}
			],
			"stateMutability": "view",
			"type": "function"
		},
		{
			"inputs": [
				{
					"internalType": "address",
					"name": "_id",
					"type": "address"
				}
			],
			"name": "isAdmin",
			"outputs": [
				{
					"internalType": "bool",
					"name": "",
					"type": "bool"
				}
			],
			"stateMutability": "view",
			"type": "function"
		},
		{
			"inputs": [
				{
					"internalType": "address",
					"name": "",
					"type": "address"
				}
			],
			"name": "parties",
			"outputs": [
				{
					"internalType": "address",
					"name": "owner",
					"type": "address"
				},
				{
					"internalType": "string",
					"name": "name",
					"type": "string"
				},
				{
					"internalType": "uint256",
					"name": "totalMember",
					"type": "uint256"
				},
				{
					"internalType": "string",
					"name": "agenda",
					"type": "string"
				},
				{
					"internalType": "string",
					"name": "logoUrl",
					"type": "string"
				}
			],
			"stateMutability": "view",
			"type": "function"
		},
		{
			"inputs": [
				{
					"internalType": "uint256",
					"name": "",
					"type": "uint256"
				}
			],
			"name": "partyList",
			"outputs": [
				{
					"internalType": "address",
					"name": "owner",
					"type": "address"
				},
				{
					"internalType": "string",
					"name": "name",
					"type": "string"
				},
				{
					"internalType": "uint256",
					"name": "totalMember",
					"type": "uint256"
				},
				{
					"internalType": "string",
					"name": "agenda",
					"type": "string"
				},
				{
					"internalType": "string",
					"name": "logoUrl",
					"type": "string"
				}
			],
			"stateMutability": "view",
			"type": "function"
		},
		{
			"inputs": [
				{
					"internalType": "uint256",
					"name": "",
					"type": "uint256"
				}
			],
			"name": "partyNames",
			"outputs": [
				{
					"internalType": "string",
					"name": "",
					"type": "string"
				}
			],
			"stateMutability": "view",
			"type": "function"
		},
		{
			"inputs": [],
			"name": "totalCandidate",
			"outputs": [
				{
					"internalType": "uint256",
					"name": "",
					"type": "uint256"
				}
			],
			"stateMutability": "view",
			"type": "function"
		},
		{
			"inputs": [],
			"name": "totalElection",
			"outputs": [
				{
					"internalType": "uint256",
					"name": "",
					"type": "uint256"
				}
			],
			"stateMutability": "view",
			"type": "function"
		},
		{
			"inputs": [],
			"name": "totalFemaleVoters",
			"outputs": [
				{
					"internalType": "uint256",
					"name": "",
					"type": "uint256"
				}
			],
			"stateMutability": "view",
			"type": "function"
		},
		{
			"inputs": [],
			"name": "totalMaleVoters",
			"outputs": [
				{
					"internalType": "uint256",
					"name": "",
					"type": "uint256"
				}
			],
			"stateMutability": "view",
			"type": "function"
		},
		{
			"inputs": [],
			"name": "totalOtherVoters",
			"outputs": [
				{
					"internalType": "uint256",
					"name": "",
					"type": "uint256"
				}
			],
			"stateMutability": "view",
			"type": "function"
		},
		{
			"inputs": [],
			"name": "totalParty",
			"outputs": [
				{
					"internalType": "uint256",
					"name": "",
					"type": "uint256"
				}
			],
			"stateMutability": "view",
			"type": "function"
		},
		{
			"inputs": [],
			"name": "totalVoter",
			"outputs": [
				{
					"internalType": "uint256",
					"name": "",
					"type": "uint256"
				}
			],
			"stateMutability": "view",
			"type": "function"
		},
		{
			"inputs": [
				{
					"internalType": "string",
					"name": "_gender",
					"type": "string"
				}
			],
			"name": "updateCounter",
			"outputs": [],
			"stateMutability": "nonpayable",
			"type": "function"
		},
		{
			"inputs": [
				{
					"internalType": "address",
					"name": "_candidateId",
					"type": "address"
				},
				{
					"internalType": "string",
					"name": "electionAddress",
					"type": "string"
				}
			],
			"name": "vote",
			"outputs": [],
			"stateMutability": "payable",
			"type": "function"
		},
		{
			"inputs": [],
			"name": "voteCount",
			"outputs": [
				{
					"internalType": "uint256",
					"name": "",
					"type": "uint256"
				}
			],
			"stateMutability": "view",
			"type": "function"
		},
		{
			"inputs": [
				{
					"internalType": "uint256",
					"name": "",
					"type": "uint256"
				}
			],
			"name": "voterList",
			"outputs": [
				{
					"components": [
						{
							"internalType": "address",
							"name": "_id",
							"type": "address"
						},
						{
							"internalType": "string",
							"name": "fullName",
							"type": "string"
						},
						{
							"internalType": "uint256",
							"name": "citizenshipNumber",
							"type": "uint256"
						},
						{
							"internalType": "uint256",
							"name": "age",
							"type": "uint256"
						},
						{
							"internalType": "string",
							"name": "gender",
							"type": "string"
						},
						{
							"internalType": "string",
							"name": "dob",
							"type": "string"
						},
						{
							"internalType": "string",
							"name": "email",
							"type": "string"
						},
						{
							"internalType": "string",
							"name": "profile",
							"type": "string"
						},
						{
							"internalType": "string",
							"name": "province",
							"type": "string"
						},
						{
							"internalType": "string",
							"name": "district",
							"type": "string"
						},
						{
							"internalType": "string",
							"name": "municipality",
							"type": "string"
						},
						{
							"internalType": "string",
							"name": "ward",
							"type": "string"
						}
					],
					"internalType": "struct Structure.User",
					"name": "user",
					"type": "tuple"
				},
				{
					"internalType": "uint256",
					"name": "voteLimitCount",
					"type": "uint256"
				}
			],
			"stateMutability": "view",
			"type": "function"
		},
		{
			"inputs": [
				{
					"internalType": "uint256",
					"name": "",
					"type": "uint256"
				}
			],
			"name": "voterNames",
			"outputs": [
				{
					"internalType": "string",
					"name": "",
					"type": "string"
				}
			],
			"stateMutability": "view",
			"type": "function"
		},
		{
			"inputs": [
				{
					"internalType": "address",
					"name": "",
					"type": "address"
				}
			],
			"name": "voters",
			"outputs": [
				{
					"components": [
						{
							"internalType": "address",
							"name": "_id",
							"type": "address"
						},
						{
							"internalType": "string",
							"name": "fullName",
							"type": "string"
						},
						{
							"internalType": "uint256",
							"name": "citizenshipNumber",
							"type": "uint256"
						},
						{
							"internalType": "uint256",
							"name": "age",
							"type": "uint256"
						},
						{
							"internalType": "string",
							"name": "gender",
							"type": "string"
						},
						{
							"internalType": "string",
							"name": "dob",
							"type": "string"
						},
						{
							"internalType": "string",
							"name": "email",
							"type": "string"
						},
						{
							"internalType": "string",
							"name": "profile",
							"type": "string"
						},
						{
							"internalType": "string",
							"name": "province",
							"type": "string"
						},
						{
							"internalType": "string",
							"name": "district",
							"type": "string"
						},
						{
							"internalType": "string",
							"name": "municipality",
							"type": "string"
						},
						{
							"internalType": "string",
							"name": "ward",
							"type": "string"
						}
					],
					"internalType": "struct Structure.User",
					"name": "user",
					"type": "tuple"
				},
				{
					"internalType": "uint256",
					"name": "voteLimitCount",
					"type": "uint256"
				}
			],
			"stateMutability": "view",
			"type": "function"
		}
	]
}