{
	"data": {
		"bytecode": {
			"linkReferences": {},
			"object": "608034620002a8576001600160401b03606082018181118382101762000292576040526200002c620002ad565b600490818152602090634d414c4560e01b8282015284526200004d620002ad565b600681526546454d414c4560d01b82820152818501526200006d620002ad565b60068152654f544845525360d01b82820152604085015260009283549460039586865580871062000215575b5084805282852085915b878310620000ea57868087818b8160025555553360018060a01b031960015416176001558060085580600c5580600d55806015556016556040516145489081620003248239f35b80518051908582116200020257908691620001068554620002cd565b90601f91828111620001c7575b50839183116001146200015c579180600195928695948d9262000150575b5050600019828e1b1c191690841b1785555b01920192019190620000a3565b01519050388062000131565b858b52838b209190601f1984168c5b818110620001ae575091600196939185889796941062000195575b505050831b8301855562000143565b0151600019838f1b60f8161c1916905538808062000186565b8284015185558b9660019095019493840193016200016b565b620001f190878d52858d20600585808801821c830193898910620001f8575b01901c01906200030a565b3862000113565b93508293620001e6565b634e487b7160e01b895260418852602489fd5b8580528684872091820191015b81811062000231575062000099565b806200024060019254620002cd565b806200024f575b500162000222565b601f908181118414620002695750508781555b3862000247565b836200028492848c52898c20920160051c820191016200030a565b878681208183555562000262565b634e487b7160e01b600052604160045260246000fd5b600080fd5b60408051919082016001600160401b038111838210176200029257604052565b90600182811c92168015620002ff575b6020831014620002e957565b634e487b7160e01b600052602260045260246000fd5b91607f1691620002dd565b81811062000316575050565b600081556001016200030a56fe608080604052600436101561001357600080fd5b60003560e01c908162da72281461294e575080630273d66e146128d4578063029c21bd146128b65780630983f185146128985780631812dab41461287a5780631bf533a4146122375780631d50384b1461203957806324d7806c146120045780632526e05d14611d125780632d23c735146119775780632e6997fe146118df57806335bbe70e146117f55780634a3ccc961461174c5780634f235207146116e157806350e2e8af1461166b57806353ac5dc3146115f05780636332abc9146115d25780636394a8fa14611578578063640e79b71461146657806369d2bca11461135157806371c693eb1461113c5780637c054c541461111e5780637fd5f26814610ef15780638287e42f14610e965780638ab66a9014610e2f5780638d0371ff14610e115780639682f9b314610cf05780639eda74cf146109e1578063a3ec138d14610983578063a96278ae14610928578063b0a4ec42146108f0578063b13c744b14610804578063b867bfcc1461071a578063ba71bef0146106ab578063c63840711461068d578063defb908f14610540578063e9af3fc01461046f578063ef53c6ab146102a7578063f38451661461022d578063f7c4c25a1461020f5763fc6f9468146101e157600080fd5b3461020a57600036600319011261020a576001546040516001600160a01b039091168152602090f35b600080fd5b3461020a57600036600319011261020a576020601554604051908152f35b3461020a57602036600319011261020a5760043560105481101561020a5761028861028f6102a3926010600052604051928380927f1b6847dc741a1b0cd08d278845f9d819d87b734759afb55fe2de5cb82a9ae67201612b0f565b0382612c2d565b604051918291602083526020830190612a00565b0390f35b604036600319011261020a576004356001600160401b0380821161020a573660238301121561020a5781600401356102de816130de565b916102ec6040519384612c2d565b8183526020938484016024600594851b8301019136831161020a57602401905b8282106104505750505060243590811161020a579161033084933690600401612ca5565b9060018060a01b0390600193849361034c8486541633146133c7565b8087016000865b6103f9575b506000955b61036357005b6013548610156103b25785610384600261037d8a99613251565b50016132db565b89815191012083518320146103a25761039c9061328c565b9561035d565b929394959150506000905b6103b4575b005b83518110156103b2576103f3906103ee6103cd84613251565b50876103d98489613aa1565b5116600052858a528560406000209101613bfa565b61328c565b856103ad565b845181101561044b57610445906103ee856040518c81885161041c81838b6129dd565b810160118152030190200188610432848a613aa1565b5116600052868c52604060002090613bfa565b86610353565b610358565b81356001600160a01b038116810361020a57815290860190860161030c565b606036600319011261020a576104836129c7565b6001600160401b0360243581811161020a576104a3903690600401612ca5565b9060443590811161020a576104bc903690600401612ca5565b604051916104c983612bc0565b3383526020830152604082015260018060a01b038092168060005260126020526005906104fc8383604060002001613ea1565b60005b6014548110156103b2578185610514836130a3565b5054161461052a576105259061328c565b6104ff565b6103b2945061053991506130a3565b5001613ea1565b3461020a57602036600319011261020a5760043560135481101561020a5760079060136000520260405161059a8161028881857f66de8ffda797e3de9c05e8fc57b3bf0ec28a930d40b0d285d93c06501cf6a09001612b0f565b6102a37f66de8ffda797e3de9c05e8fc57b3bf0ec28a930d40b0d285d93c06501cf6a094604051936105f9856105f2817f66de8ffda797e3de9c05e8fc57b3bf0ec28a930d40b0d285d93c06501cf6a0918501612b0f565b0386612c2d565b60405161062c81610288817f66de8ffda797e3de9c05e8fc57b3bf0ec28a930d40b0d285d93c06501cf6a0928601612b0f565b6106816040519261066a84610663817f66de8ffda797e3de9c05e8fc57b3bf0ec28a930d40b0d285d93c06501cf6a0938501612b0f565b0385612c2d565b61067a6040518096819301612b0f565b0384612c2d565b60405195869586612ed5565b3461020a57600036600319011261020a576020600d54604051908152f35b3461020a57602036600319011261020a576106c46129c7565b6000604080516106d381612bc0565b6106db6142b3565b815260606020820152015260018060a01b031660005260096020526102a361070660406000206144c7565b604051918291602083526020830190612ea0565b3461020a57600036600319011261020a57600f54610737816130de565b906107456040519283612c2d565b8082526020908183019081600f6000527f8d1108e10bcb7c27dddfc02ed9d693a074039d026cf4ea4240b40f7d581ac8026000915b8383106107e15750505050604051918083019381845251809452604083019360408160051b85010192916000955b8287106107b55785850386f35b9091929382806107d1600193603f198a82030186528851612a62565b96019201960195929190926107a8565b6006866001926107f3859a999a61430f565b81520192019201919095949561077a565b3461020a57602036600319011261020a5760043560065481101561020a57600660005260041b610855817ff652222313e28459528d920b65115c16c04f3efc82aaedc97be59f3f377c0d3f01612f7d565b6102a36040519261088c84610663817ff652222313e28459528d920b65115c16c04f3efc82aaedc97be59f3f377c0d4b8501612b0f565b7ff652222313e28459528d920b65115c16c04f3efc82aaedc97be59f3f377c0d4d604051916108e18361067a817ff652222313e28459528d920b65115c16c04f3efc82aaedc97be59f3f377c0d4c8501612b0f565b015490604051948594856131d8565b3461020a57602036600319011261020a576004356001600160401b03811161020a576109236103b2913690600401612ca5565b613f41565b3461020a57602036600319011261020a57600435600b5481101561020a5761028861028f6102a392600b600052604051928380927f0175b7a638427703f0dbe7bb9bbf987a2551717b34e79f33b5b1008d1fa01db901612b0f565b3461020a57602036600319011261020a576001600160a01b036109a46129c7565b1660005260096020526109d76040600020600d6109c082612f7d565b910154604051928392604084526040840190612cfb565b9060208301520390f35b6101608060031936011261020a576001600160401b0360043581811161020a57610a0f903690600401612ca5565b9060643581811161020a57610a28903690600401612ca5565b9160843582811161020a57610a41903690600401612ca5565b9160a43581811161020a57610a5a903690600401612ca5565b9460c43582811161020a57610a73903690600401612ca5565b60e43583811161020a57610a8b903690600401612ca5565b6101043584811161020a57610aa4903690600401612ca5565b916101243585811161020a57610abe903690600401612ca5565b946101443590811161020a57610ad8903690600401612ca5565b983360005260209760098952600260406000200154610cab57610afa8b613f41565b60405199610b078b612bdb565b338b52888a8c015260249b8c3560408d015260443560608d015260808c015260a08b015260c08a015260e089015261010088015261012087015261014086015284015260405192610b5784612bc0565b8352606082840152600060408401523360005260098252610b7c836040600020614392565b600b54600160401b9182821015610c96576001820180600b55821015610c8157610bcc91600b6000527f0175b7a638427703f0dbe7bb9bbf987a2551717b34e79f33b5b1008d1fa01db90161347e565b600a5490811015610c6c57806001610be79201600a55612f42565b610c575782610bf591614392565b600c5460018101809111610c42577ff59a1b8573db02cf501c11c9d7d88b5365a59bdf0555cfd387db21cfcaccf4da9350600c55610c3d604051928284938452830190612ea0565b0390a1005b83634e487b7160e01b60005260116004526000fd5b83634e487b7160e01b60005260006004526000fd5b83634e487b7160e01b60005260416004526000fd5b85634e487b7160e01b60005260326004526000fd5b85634e487b7160e01b60005260416004526000fd5b60405162461bcd60e51b8152600481018a9052601a60248201527f566f74657220616c7265616479207265676973746572656420210000000000006044820152606490fd5b3461020a57602036600319011261020a5760043560145481101561020a5760069060146000520260018060a01b03817fce6d7b5282bd9a3661ae061feed1dbda4e52ab073b1f9285be6e155d9c38d4ec0154166102a37fce6d7b5282bd9a3661ae061feed1dbda4e52ab073b1f9285be6e155d9c38d4f060405193610d9b856105f2817fce6d7b5282bd9a3661ae061feed1dbda4e52ab073b1f9285be6e155d9c38d4ed8501612b0f565b604051610dce81610288817fce6d7b5282bd9a3661ae061feed1dbda4e52ab073b1f9285be6e155d9c38d4ee8601612b0f565b610e056040519261066a84610663817fce6d7b5282bd9a3661ae061feed1dbda4e52ab073b1f9285be6e155d9c38d4ef8501612b0f565b60405195869586612c4e565b3461020a57600036600319011261020a576020601654604051908152f35b3461020a57602036600319011261020a576001600160a01b03610e506129c7565b1660005260056020526040600020610e6781612f7d565b6102a360405192610e7f8461066381600c8501612b0f565b600e604051916108e18361067a81600d8501612b0f565b3461020a57602036600319011261020a5760043560075481101561020a5761028861028f6102a3926007600052604051928380927fa66cc928b5edb82af9bd49922954155ab7b0942694bea4ce44661d9a8736c68801612b0f565b3461020a57600036600319011261020a57601354610f0e816130de565b90610f1c6040519283612c2d565b80825260208201908160136000527f66de8ffda797e3de9c05e8fc57b3bf0ec28a930d40b0d285d93c06501cf6a0906000915b838310610fbd57848660405191829160208301906020845251809152604083019060408160051b85010192916000905b828210610f8e57505050500390f35b91936001919395506020610fad8192603f198a820301865288516130f5565b9601920192018594939192610f7f565b604051610fc981612c12565b604051610fda816102888187612b0f565b8152604051610ff0816102888160018801612b0f565b6020820152604051611009816102888160028801612b0f565b6040820152604051611022816102888160038801612b0f565b606082015260405161103b816102888160048801612b0f565b608082015260058301805461104f816130de565b9161105d6040519384612c2d565b81835260208301906000526020600020906000905b838210611100575050505060a0820152600683018054611091816130de565b9161109f6040519384612c2d565b81835260208301906000526020600020906000905b8382106110db57505050506001928260209260c06007950152815201920192019190610f4f565b6001602081926040516110f281610288818a612b0f565b8152019301910190916110b4565b6010602060019261111086613ed4565b815201930191019091611072565b3461020a57600036600319011261020a576020600354604051908152f35b60c036600319011261020a576001600160401b0360043581811161020a57611168903690600401612ca5565b602491823581811161020a57611182903690600401612ca5565b9160443582811161020a5761119b903690600401612ca5565b60643583811161020a576111b3903690600401612ca5565b60843584811161020a576111cb903690600401612ca5565b60a4359185831161020a573660238401121561020a578260040135926111f0846130de565b936111fe6040519586612c2d565b8085526020978a8987019260051b8401019236841161020a5790818c8b9998979695949301925b848410611318578d8d8b6112a38e611294838f8f8f8f61125060018060a01b036001541633146133c7565b604051998a9761125f89612c12565b88528588015283604088015260608701526080860152606060a086015260c085015281604051938285809451938492016129dd565b810160118152030190206137cf565b601354600160401b811015610c6c578060016112c29201601355613251565b610c5757826112d0916137cf565b60165460018101809111610c42577fe23b65f5c9310b5b270b9d96e225be290d906fdbd35ec3efd3a8a9c3189320cd9350601655610c3d6040519282849384528301906130f5565b90919280949596979899503583811161020a578b9161133e8f9284933691870101612ca5565b815201930191908a989796959493611225565b608036600319011261020a576001600160401b0360043581811161020a5761137d903690600401612ca5565b9060243581811161020a57611396903690600401612ca5565b9060443581811161020a576113af903690600401612ca5565b9060643590811161020a576113c8903690600401612ca5565b91604051936113d685612ba5565b3385526020850152604084015260608301526080820152606060a082015233600052601260205261140b816040600020613d6c565b601454600160401b8110156114505780600161142a92016014556130a3565b91909161143a576103b291613d6c565b634e487b7160e01b600052600060045260246000fd5b634e487b7160e01b600052604160045260246000fd5b3461020a57602036600319011261020a57600435600f5481101561020a57600690600f6000520260018060a01b03817f8d1108e10bcb7c27dddfc02ed9d693a074039d026cf4ea4240b40f7d581ac8020154166102a37f8d1108e10bcb7c27dddfc02ed9d693a074039d026cf4ea4240b40f7d581ac80660405193611511856105f2817f8d1108e10bcb7c27dddfc02ed9d693a074039d026cf4ea4240b40f7d581ac8038501612b0f565b7f8d1108e10bcb7c27dddfc02ed9d693a074039d026cf4ea4240b40f7d581ac80481015461156c6040519261066a84610663817f8d1108e10bcb7c27dddfc02ed9d693a074039d026cf4ea4240b40f7d581ac8058501612b0f565b60405195869586612f06565b3461020a57602036600319011261020a5760043560005481101561020a5761028861028f6102a39260008052604051928380927f290decd9548b62a8d60345a988386fc84ba6bc95484008f6362f93160ef3e56301612b0f565b3461020a57600036600319011261020a576020600c54604051908152f35b3461020a57602036600319011261020a576116096129c7565b6060608060405161161981612bf7565b6116216142b3565b8152826020820152826040820152600083820152015260018060a01b031660005260056020526102a36116576040600020613ed4565b604051918291602083526020830190612de6565b3461020a57602036600319011261020a57600435600a5481101561020a57600e6109d791600a600052027fc65a7bb8d6351c1cf70c95a316cc6a92839c986682d98bc35f958f4883f9d2b56109c0827fc65a7bb8d6351c1cf70c95a316cc6a92839c986682d98bc35f958f4883f9d2a801612f7d565b3461020a57602036600319011261020a576001600160a01b03806117036129c7565b16600052600e6020526040600020908154166102a360046040519361172f856105f28160018501612b0f565b600281015461156c6040519261066a846106638160038501612b0f565b3461020a57602036600319011261020a576004356001600160401b03811161020a576020611781611794923690600401612ca5565b81604051938285809451938492016129dd565b810160118152030190206040516117af816102888185612b0f565b6102a36004604051936117c9856105f28160018501612b0f565b6040516117dd816102888160028601612b0f565b6106816040519261066a846106638160038501612b0f565b3461020a57600036600319011261020a57600a54611812816130de565b906118206040519283612c2d565b8082526020908183019081600a6000527fc65a7bb8d6351c1cf70c95a316cc6a92839c986682d98bc35f958f4883f9d2a86000915b8383106118bc5750505050604051918083019381845251809452604083019360408160051b85010192916000955b8287106118905785850386f35b9091929382806118ac600193603f198a82030186528851612ea0565b9601920196019592919092611883565b600e866001926118ce859a999a6144c7565b815201920192019190959495611855565b3461020a57600036600319011261020a576006546118fc816130de565b9061190a6040519283612c2d565b80825260209081830160066000527ff652222313e28459528d920b65115c16c04f3efc82aaedc97be59f3f377c0d3f836000925b84841061195857604051828152806102a38185018a612e44565b60019160109161196785613ed4565b815201920192019190849061193e565b6101a036600319011261020a576001600160401b0360043581811161020a576119a4903690600401612ca5565b60643582811161020a576119bc903690600401612ca5565b60843583811161020a576119d4903690600401612ca5565b9260a43581811161020a576119ed903690600401612ca5565b9060c43581811161020a57611a06903690600401612ca5565b9160e43582811161020a57611a1f903690600401612ca5565b926101043583811161020a57611a39903690600401612ca5565b6101243584811161020a57611a52903690600401612ca5565b916101443585811161020a57611a6c903690600401612ca5565b936101643586811161020a57611a86903690600401612ca5565b956101843590811161020a57611aa0903690600401612ca5565b9933600052600560205260243560026040600020015414611ca757336000818152600560205260409020546001600160a01b031614611c6257611ae28b613f41565b6040519a611aef8c612bdb565b338c528a60208d015260243560408d015260443560608d015260808c015260a08b015260c08a015260e089015261010088015261012087015261014086015261016085015260405193611b4185612bf7565b8452602084015260408301526000606083015260606080830152336000526005602052611b7282604060002061367b565b600754600160401b9182821015611450576001820180600755821015611c4c57611bc29160076000527fa66cc928b5edb82af9bd49922954155ab7b0942694bea4ce44661d9a8736c6880161347e565b6006549081101561145057806001611bdd92016006556131fb565b61143a5781611beb9161367b565b60085460018101809111611c36577faa865f867abaa68b8cba3e6df5b4cc018184c6e7fff1d03843d27c69a973e3b091610c3d91600855604051918291602083526020830190612de6565b634e487b7160e01b600052601160045260246000fd5b634e487b7160e01b600052603260045260246000fd5b60405162461bcd60e51b815260206004820152601e60248201527f43616e64696461746520616c72656164792072656769737465726564202100006044820152606490fd5b60405162461bcd60e51b815260206004820152603960248201527f43616e646964617465207769746820676976656e20436974697a656e7368697060448201527f204e6f2e20616c726561647920726567697374657265642021000000000000006064820152608490fd5b3461020a57600036600319011261020a57601454611d2f816130de565b90611d3d6040519283612c2d565b80825260208201908160146000527fce6d7b5282bd9a3661ae061feed1dbda4e52ab073b1f9285be6e155d9c38d4ec6000915b838310611ed05784866040519182916020830190602084525180915260408301906005604082821b86010193926000915b838310611dae5786860387f35b919395509193603f1987820301835285519060018060a01b0390818351168152611dfb611de9602085015160c0806020860152840190612a00565b60408501518382036040850152612a00565b90611e28611e156060938487015184820386860152612a00565b6080808701519084830390850152612a00565b9060a08095015194818303910152835190818152602081019260208084891b8401019601946000915b848310611e77575050505050505060208060019297019301930190928695949293611da1565b90919293949596602080611ec1600193601f19898203018b528b51908782511681526040611eb085840151898785015289840190612a00565b920151906040818403910152612a00565b99019701959493019190611e51565b604051611edc81612ba5565b82546001600160a01b03168152604051611efd816102888160018801612b0f565b6020820152604051611f16816102888160028801612b0f565b6040820152604051611f2f816102888160038801612b0f565b6060820152604051611f48816102888160048801612b0f565b60808201526005830154611f5b816130de565b90611f696040519283612c2d565b80825260208201600586016000526020600020906000905b838210611fa857505050506001928260209260a06006950152815201920192019190611d70565b60036020600192604051611fbb81612bc0565b848060a01b038754168152604051611fd98161028881898c01612b0f565b83820152604051611ff1816102888160028c01612b0f565b6040820152815201930191019091611f81565b3461020a57602036600319011261020a57602061201f6129c7565b6001546040516001600160a01b0392831691909216148152f35b608036600319011261020a576001600160401b0360043581811161020a57612065903690600401612ca5565b9060443581811161020a5761207e903690600401612ca5565b9060643590811161020a57612097903690600401612ca5565b6001549092906001600160a01b03166120b13382146133c7565b604051936120be85612ba5565b8185528260208601526024938435604087015260608601526080850152606060a0850152600052600e6020526120f8836040600020613579565b60105490600160401b9182811015610c6c576001810180601055811015612222579061214a9160106000527f1b6847dc741a1b0cd08d278845f9d819d87b734759afb55fe2de5cb82a9ae6720161347e565b600f549081101561220d576001810180600f558110156121f85782600661219892600f600052027f8d1108e10bcb7c27dddfc02ed9d693a074039d026cf4ea4240b40f7d581ac80201613579565b60155490600182018092116121e4577fa9842a716bc2513f613d9faf736ca365fe3689a18ea2c3ef8bb9402c98a060c1610c3d8484601555604051918291602083526020830190612a62565b634e487b7160e01b60009081526011600452fd5b50634e487b7160e01b60009081526032600452fd5b50634e487b7160e01b60009081526041600452fd5b83634e487b7160e01b60005260326004526000fd5b604036600319011261020a5761224b6129c7565b6024356001600160401b03811161020a5761226a903690600401612ca5565b9060018060a01b03600154163314612836573360005260096020526003600d60406000200154116127e35760005b6001600160a01b0382166000908152600560205260409020600f9081015482101561233857816122cd9160406000200161308b565b905460039190911b1c6001600160a01b031633146122f3576122ee9061328c565b612298565b60405162461bcd60e51b815260206004820152601860248201527f596f75206861766520616c726561647920766f746564202100000000000000006044820152606490fd5b50506000805b6001600160a01b0383166000908152600560205260409020600f908101548210156123b357816123739160406000200161308b565b905460039190911b1c6001600160a01b039081169084161461239e575b6123999061328c565b61233e565b906123ab6123999161328c565b919050612390565b505060011061279e5760018060a01b03811660005260056020526123de33600f60406000200161329b565b3360005260096020526123f881600c60406000200161329b565b6001600160a01b0381166000908152600560205260409020600e015461241d90614504565b6001600160a01b0382166000908152600560205260409020600e0155600d5461244590614504565b600d5560005b60135481101561254d57612463600261037d83613251565b602081519101208351602085012014612485575b6124809061328c565b61244b565b9160005b600561249485613251565b50015481101561254657806124b86124d19260056124b188613251565b5001613235565b50546001600160a01b038581169116146124d65761328c565b612489565b6124f36124e88260056124b189613251565b50600f33910161329b565b61252d600e612525836005604051602081816125158c838151938492016129dd565b8101601181520301902001613235565b500154614504565b600e61253e8360056124b18a613251565b50015561328c565b5091612477565b5060005b6006548110156125925780612568612581926131fb565b50546001600160a01b038481169116146125865761328c565b612551565b6103ee6124e8826131fb565b5060005b600a548110156125de57806125ad6125c392612f42565b50546001600160a01b031633146125c85761328c565b612596565b6103ee83600c6125d784612f42565b500161329b565b503360005260096020526125f9600d60406000200154614504565b336000526009602052600d6040600020015560018060a01b031660005260056020527f34acf85a95a1dc89bfc38e95c6d8d0e8e5d4544c49e9103ed7882d205ed151f8610c3d60406000206040519182916020835260a0602084015260018060a01b0381541660c0840152600f6127538461273f61272b6127176127036126ef6101808060e08801526126dc6126c861269a8c60016102408c019101612b0f565b60028d01546101008b015260038d01546101208b015260bf19996101408b8284030191015260048d01612b0f565b8d810389016101608f015260058c01612b0f565b90878d830301908d015260068a01612b0f565b858b8203016101a08c015260078901612b0f565b848a8203016101c08b015260088801612b0f565b83898203016101e08a015260098701612b0f565b8288820301610200890152600a8601612b0f565b9086820301610220870152600b8401612b0f565b91612784612771601f199485888203016040890152600c8401612b0f565b84878203016060880152600d8301612b0f565b92600e82015460808701528584030160a086015201613381565b60405162461bcd60e51b815260206004820152601f60248201527f43616e646964617465206f6e6c7920766f7465206f6e652074696d65732021006044820152606490fd5b60405162461bcd60e51b815260206004820152602560248201527f596f752068617665206578636565642074686520766f7465206361737465206c60448201526434b6b4ba1760d91b6064820152608490fd5b606460405162461bcd60e51b815260206004820152602060248201527f41646d696e20697320726573747269637420746f20636173746520766f74652e6044820152fd5b3461020a57600036600319011261020a576020600854604051908152f35b3461020a57600036600319011261020a576020600454604051908152f35b3461020a57600036600319011261020a576020600254604051908152f35b3461020a57602036600319011261020a576001600160a01b03806128f66129c7565b1660005260126020526040600020908154166102a3600460405193612922856105f28160018501612b0f565b604051612936816102888160028601612b0f565b610e056040519261066a846106638160038501612b0f565b3461020a57602036600319011261020a57606060a061296b6129c7565b9261297581612ba5565b60008152826020820152600060408201528280820152826080820152015260018060a01b0316600052600e6020526102a36129b3604060002061430f565b604051918291602083526020830190612a62565b600435906001600160a01b038216820361020a57565b60005b8381106129f05750506000910152565b81810151838201526020016129e0565b90602091612a19815180928185528580860191016129dd565b601f01601f1916010190565b90815180825260208080930193019160005b828110612a45575050505090565b83516001600160a01b031685529381019392810192600101612a37565b612ad29160018060a01b03825116815260a0612ac1612aaf612a93602086015160c0602087015260c0860190612a00565b6040860151604086015260608601518582036060870152612a00565b60808501518482036080860152612a00565b9201519060a0818403910152612a25565b90565b90600182811c92168015612b05575b6020831014612aef57565b634e487b7160e01b600052602260045260246000fd5b91607f1691612ae4565b9060009291805491612b2083612ad5565b918282526001938481169081600014612b825750600114612b42575b50505050565b90919394506000526020928360002092846000945b838610612b6e575050505001019038808080612b3c565b805485870183015294019385908201612b57565b9294505050602093945060ff191683830152151560051b01019038808080612b3c565b60c081019081106001600160401b0382111761145057604052565b606081019081106001600160401b0382111761145057604052565b61018081019081106001600160401b0382111761145057604052565b60a081019081106001600160401b0382111761145057604052565b60e081019081106001600160401b0382111761145057604052565b90601f801991011681019081106001600160401b0382111761145057604052565b9390612ad29593612c7b612c9794612c899360018060a01b0316885260a0602089015260a0880190612a00565b908682036040880152612a00565b908482036060860152612a00565b916080818403910152612a00565b81601f8201121561020a578035906001600160401b0382116114505760405192612cd9601f8401601f191660200185612c2d565b8284526020838301011161020a57816000926020809301838601378301015290565b90612ad29160018060a01b038151168252612dd2612dbe612daa612d96612d84612d72612d60612d3a60208901516101808060208d01528b0190612a00565b604089015160408b0152606089015160608b015260808901518a820360808c0152612a00565b60a088015189820360a08b0152612a00565b60c087015188820360c08a0152612a00565b60e086015187820360e0890152612a00565b610100808601519087830390880152612a00565b610120808501519086830390870152612a00565b610140808401519085830390860152612a00565b916101608092015191818403910152612a00565b612ad2916080612e29612e17612e05855160a0865260a0860190612cfb565b60208601518582036020870152612a00565b60408501518482036040860152612a00565b92606081015160608401520151906080818403910152612a25565b908082519081815260208091019281808460051b8301019501936000915b848310612e725750505050505090565b9091929394958480612e90600193601f198682030187528a51612de6565b9801930193019194939290612e62565b90604080612ecc612eba8551606086526060860190612cfb565b60208601518582036020870152612a25565b93015191015290565b9390612ad29593612c7b612c9794612ef8612c899460a08a5260a08a0190612a00565b9088820360208a0152612a00565b93612f2f612c9793612ad297959360018060a01b0316875260a0602088015260a0870190612a00565b9160408601528482036060860152612a00565b600a54811015611c4c57600e90600a600052027fc65a7bb8d6351c1cf70c95a316cc6a92839c986682d98bc35f958f4883f9d2a80190600090565b90600b610160604093613087855191612f9583612bdb565b61067a839760018060a01b0383541685528051612fb9816102888160018801612b0f565b6020860152600283015481860152600383015460608601528051612fe4816102888160048801612b0f565b60808601528051612ffc816102888160058801612b0f565b60a08601528051613014816102888160068801612b0f565b60c0860152805161302c816102888160078801612b0f565b60e08601528051613044816102888160088801612b0f565b610100860152805161305d816102888160098801612b0f565b61012086015280516130768161028881600a8801612b0f565b610140860152518096819301612b0f565b0152565b8054821015611c4c5760005260206000200190600090565b601454811015611c4c576006906014600052027fce6d7b5282bd9a3661ae061feed1dbda4e52ab073b1f9285be6e155d9c38d4ec0190600090565b6001600160401b0381116114505760051b60200190565b613108815160e0845260e0840190612a00565b60c061317461316261315061313e61312c602096878901518a8203898c0152612a00565b604088015189820360408b0152612a00565b606087015188820360608a0152612a00565b60808601518782036080890152612a00565b60a085015186820360a0880152612e44565b9201519260c08184039101528251908183528083019281808460051b8301019501936000915b8483106131aa5750505050505090565b90919293949584806131c8600193601f198682030187528a51612a00565b980193019301919493929061319a565b949392612c7b606093612ef86131f69460808a5260808a0190612cfb565b930152565b600654811015611c4c57600660005260041b7ff652222313e28459528d920b65115c16c04f3efc82aaedc97be59f3f377c0d3f0190600090565b8054821015611c4c5760005260206000209060041b0190600090565b601354811015611c4c576007906013600052027f66de8ffda797e3de9c05e8fc57b3bf0ec28a930d40b0d285d93c06501cf6a0900190600090565b6000198114611c365760010190565b8054600160401b811015611450576132b89160018201815561308b565b819291549060031b9160018060a01b039283811b93849216901b16911916179055565b90604051918260008254926132ef84612ad5565b90818452600194858116908160001461335e575060011461331b575b505061331992500383612c2d565b565b9093915060005260209081600020936000915b8183106133465750506133199350820101388061330b565b8554888401850152948501948794509183019161332e565b91505061331994506020925060ff191682840152151560051b820101388061330b565b90815480825260208092019260005281600020916000905b8282106133a7575050505090565b83546001600160a01b031685529384019360019384019390910190613399565b156133ce57565b60405162461bcd60e51b815260206004820152602660248201527f4f6e6c792061646d696e2063616e20696e766f6b6520746869732066756e6374604482015265696f6e73202160d01b6064820152608490fd5b81811061342d575050565b60008155600101613422565b9190601f811161344857505050565b613319926000526020600020906020601f840160051c83019310613474575b601f0160051c0190613422565b9091508190613467565b91909182516001600160401b038111611450576134a58161349f8454612ad5565b84613439565b602080601f83116001146134e15750819293946000926134d6575b50508160011b916000199060031b1c1916179055565b0151905038806134c0565b90601f198316958460005282600020926000905b88821061352d57505083600195969710613514575b505050811b019055565b015160001960f88460031b161c1916905538808061350a565b806001859682949686015181550195019301906134f5565b90600160401b81116114505781549080835581811061356357505050565b6133199260005260206000209182019101613422565b9060018060a01b0390818151166001600160601b0360a01b84541617835560209160a0600584840151956135b160019788830161347e565b604085015160028201556135cc60608601516003830161347e565b6135dd60808601516004830161347e565b01920151928351936001600160401b0385116114505781906135ff8686613545565b0192600052806000209160005b85811061361c5750505050505050565b845182168482015593820193860161360c565b6136398154612ad5565b9081613643575050565b81601f60009311600114613655575055565b8183526020832061367191601f0160051c810190600101613422565b8160208120915555565b81519160018060a01b03808451166001600160601b0360a01b8454161783556080600f60209461375261016087890151986136ba60019a8b860161347e565b60408101516002850155606081015160038501556136de868201516004860161347e565b6136ef60a08201516005860161347e565b61370060c08201516006860161347e565b61371160e08201516007860161347e565b6137236101008201516008860161347e565b6137356101208201516009860161347e565b613747610140820151600a860161347e565b0151600b830161347e565b61376286860151600c830161347e565b6137736040860151600d830161347e565b6060850151600e82015501920151928351936001600160401b03851161145057819061379f8686613545565b0192600052806000209160005b8581106137bc5750505050505050565b84518216848201559382019386016137ac565b91906137dc81518461347e565b60209283820151936137f260019586840161347e565b60408301519261380660029485850161347e565b60608101519261381a60039485830161347e565b60808201519061382e60049283830161347e565b6005958682019560a085015190815192600160401b998a8511613a8c5790889392918a5492868c5583871061393b575b505050500160009687528587208a8789935b85851061391d57505050505050600660c0910192015190815195861161390a5750829082548684558087106138d5575b5091845282842091015b8484106138ba5750505050509050565b8683826138c98394518661347e565b019201930192906138aa565b838652888784882092830192015b8281106138f15750506138a0565b90919293506138ff8161362f565b0190888593926138e3565b634e487b7160e01b855260419052602484fd5b908161392c601093518661367b565b01920192019190878c91613870565b93945091929091906001600160fc1b038085168503613a775786168603613a6257908d918a9594936000938d8552878520958b1b860195898c1b01905b8682106139875750505061385e565b859697985061399f906010939495968355820161362f565b858382015585848201556139b48b820161362f565b6139bf85820161362f565b6139cb6006820161362f565b6139d76007820161362f565b6139e36008820161362f565b6139ef6009820161362f565b6139fb600a820161362f565b613a07600b820161362f565b613a13600c820161362f565b613a1f600d820161362f565b85600e820155600f81018d81549088835581613a49575b50505001908f918c979695949392613978565b613a5a928952882090810190613422565b38808e613a36565b601188634e487b7160e01b6000525260246000fd5b601189634e487b7160e01b6000525260246000fd5b604187634e487b7160e01b6000525260246000fd5b8051821015611c4c5760209160051b010190565b90808214613b8d57613ac78154612ad5565b906001600160401b038211611450578190613aec82613ae68654612ad5565b86613439565b600090601f8311600114613b2257600092613b175750508160011b916000199060031b1c1916179055565b0154905038806134c0565b81526020808220858352818320935090601f1985169083905b828210613b74575050908460019594939210613b5b57505050811b019055565b015460001960f88460031b161c1916905538808061350a565b8495819295850154815560018091019601940190613b3b565b5050565b818114613b8d578154916001600160401b03831161145057613bb38383613545565b60005260206000209060005260206000208154916000925b848410613bd9575050505050565b600191820180546001600160a01b0390921684860155939091019290613bcb565b8054600160401b81101561145057613c1791600182018155613235565b61143a57818114159182613c2a57505050565b600f809161331994613c69575b613c47600c8201600c8601613ab5565b613c57600d8201600d8601613ab5565b600e810154600e850155019101613b91565b805484546001600160a01b0319166001600160a01b0391909116178455613c966001828101908601613ab5565b6002810154600285015560038101546003850155613cba6004820160048601613ab5565b613cca6005820160058601613ab5565b613cda6006820160068601613ab5565b613cea6007820160078601613ab5565b613cfa6008820160088601613ab5565b613d0a6009820160098601613ab5565b613d1a600a8201600a8601613ab5565b613d2a600b8201600b8601613ab5565b613c37565b600260406133199360018060a01b038151166001600160601b0360a01b855416178455613d6360208201516001860161347e565b0151910161347e565b60018060a01b038251166001600160601b0360a01b8254161781556020908183015192613d9d60019485840161347e565b604081015192613db160029485850161347e565b60a06005606084015194613dc960039687830161347e565b613dda60808601516004830161347e565b0192015193845194600160401b86116114505783548685558392818810613e36575b50500191600052806000206000925b858410613e1b5750505050505050565b848382613e2a8a945186613d2f565b01920193019290613e0b565b908092935086029186830403611c36578686028681048803611c36576000868152858120869594810193928991015b848110613e7457505050613dfc565b90918093949596508155613e898b820161362f565b613e9484820161362f565b0190878695949392613e65565b908154600160401b8110156114505760018101808455811015611c4c576133199260005260036020600020910201613d2f565b90600f6080604051613ee581612bf7565b6130878195613ef381612f7d565b8352604051613f098161028881600c8601612b0f565b6020840152604051613f228161028881600d8601612b0f565b6040840152600e810154606084015261067a6040518096819301613381565b80519060209182820190812090600092835492831561429f579085929185805260405186907f290decd9548b62a8d60345a988386fc84ba6bc95484008f6362f93160ef3e56381815493613f9485612ad5565b928383528983019560019d8e82169182600014614281575050600114614226575b50613fc292500382612c2d565b51902003613ff55750505050600254918201809211613fe15750600255565b634e487b7160e01b81526011600452602490fd5b8051822084871015614212578580528660405187817f290decd9548b62a8d60345a988386fc84ba6bc95484008f6362f93160ef3e5649182549261403884612ad5565b938484528a80850197821691826000146141f4575050600114614199575b5061406392500382612c2d565b519020036140825750505050600354918201809211613fe15750600355565b5190209160021015614185578280526040518391817f290decd9548b62a8d60345a988386fc84ba6bc95484008f6362f93160ef3e565938454946140c586612ad5565b90818452848401968a81169081600014614167575060011461410f575b50506140f092500382612c2d565b519020146140fc575050565b600454918201809211613fe15750600455565b8852879150887f63d75db57ae45c3799740c3cd8dcee96a498324843d79ae390adc81d74b52f135b82841061415057505050916140f09282010138806140e2565b8054878501870152869450928501928a9101614137565b9150506140f094925060ff19168652151560051b82010138806140e2565b634e487b7160e01b83526032600452602483fd5b8b5250829050878a8c7f6c13d8c1c5df666ea9ca2a428504a3776c8ca01021c3a1524ca7d765f600979a5b8583106141db575050614063935082010138614056565b80919294505483858801015201910188908c85936141c4565b60ff1916885261406395151560051b85010192503891506140569050565b634e487b7160e01b86526032600452602486fd5b8b5250829050878a8c7f510e4e770828ddbf7f7b00ab00a9f6adaf81c0dc9cc85f1f8249c256942d61d95b858310614268575050613fc2935082010138613fb5565b80919294505483858801015201910188908c8593614251565b60ff19168852613fc295151560051b8501019250389150613fb59050565b634e487b7160e01b85526032600452602485fd5b604051906142c082612bdb565b8160008152610160606091826020820152600060408201526000838201528260808201528260a08201528260c08201528260e08201528261010082015282610120820152826101408201520152565b90600560a060409361308785519161432683612ba5565b61067a8397600180871b0383541685528051614349816102888160018801612b0f565b6020860152600283015481860152805161436a816102888160038801612b0f565b60608601528051614382816102888160048801612b0f565b6080860152518096819301613381565b90805160018060a01b03808251166001600160601b0360a01b85541617845560209061446661016083850151946143cd600196878a0161347e565b60408101516002890155606081015160038901556143f2608082015160048a0161347e565b61440360a082015160058a0161347e565b61441460c082015160068a0161347e565b61442560e082015160078a0161347e565b61443761010082015160088a0161347e565b61444961012082015160098a0161347e565b61445b610140820151600a8a0161347e565b0151600b870161347e565b600c85019082850151928351936001600160401b03851161145057819061448d8686613545565b0192600052806000209160005b8581106144b457505050505050506040600d910151910155565b845182168482015593820193860161449a565b906040516144d481612bc0565b6040600d82946144e381612f7d565b845282516144f88161028881600c8601613381565b60208501520154910152565b9060018201809211611c365756fea2646970667358221220a5fd2955888b3eb20884c17e39a0319a0f1e596a32cb6d577c1694dfa119d6eb64736f6c63430008110033",
			"opcodes": "PUSH1 0x80 CALLVALUE PUSH3 0x2A8 JUMPI PUSH1 0x1 PUSH1 0x1 PUSH1 0x40 SHL SUB PUSH1 0x60 DUP3 ADD DUP2 DUP2 GT DUP4 DUP3 LT OR PUSH3 0x292 JUMPI PUSH1 0x40 MSTORE PUSH3 0x2C PUSH3 0x2AD JUMP JUMPDEST PUSH1 0x4 SWAP1 DUP2 DUP2 MSTORE PUSH1 0x20 SWAP1 PUSH4 0x4D414C45 PUSH1 0xE0 SHL DUP3 DUP3 ADD MSTORE DUP5 MSTORE PUSH3 0x4D PUSH3 0x2AD JUMP JUMPDEST PUSH1 0x6 DUP2 MSTORE PUSH6 0x46454D414C45 PUSH1 0xD0 SHL DUP3 DUP3 ADD MSTORE DUP2 DUP6 ADD MSTORE PUSH3 0x6D PUSH3 0x2AD JUMP JUMPDEST PUSH1 0x6 DUP2 MSTORE PUSH6 0x4F5448455253 PUSH1 0xD0 SHL DUP3 DUP3 ADD MSTORE PUSH1 0x40 DUP6 ADD MSTORE PUSH1 0x0 SWAP3 DUP4 SLOAD SWAP5 PUSH1 0x3 SWAP6 DUP7 DUP7 SSTORE DUP1 DUP8 LT PUSH3 0x215 JUMPI JUMPDEST POP DUP5 DUP1 MSTORE DUP3 DUP6 KECCAK256 DUP6 SWAP2 JUMPDEST DUP8 DUP4 LT PUSH3 0xEA JUMPI DUP7 DUP1 DUP8 DUP2 DUP12 DUP2 PUSH1 0x2 SSTORE SSTORE SSTORE CALLER PUSH1 0x1 DUP1 PUSH1 0xA0 SHL SUB NOT PUSH1 0x1 SLOAD AND OR PUSH1 0x1 SSTORE DUP1 PUSH1 0x8 SSTORE DUP1 PUSH1 0xC SSTORE DUP1 PUSH1 0xD SSTORE DUP1 PUSH1 0x15 SSTORE PUSH1 0x16 SSTORE PUSH1 0x40 MLOAD PUSH2 0x4548 SWAP1 DUP2 PUSH3 0x324 DUP3 CODECOPY RETURN JUMPDEST DUP1 MLOAD DUP1 MLOAD SWAP1 DUP6 DUP3 GT PUSH3 0x202 JUMPI SWAP1 DUP7 SWAP2 PUSH3 0x106 DUP6 SLOAD PUSH3 0x2CD JUMP JUMPDEST SWAP1 PUSH1 0x1F SWAP2 DUP3 DUP2 GT PUSH3 0x1C7 JUMPI JUMPDEST POP DUP4 SWAP2 DUP4 GT PUSH1 0x1 EQ PUSH3 0x15C JUMPI SWAP2 DUP1 PUSH1 0x1 SWAP6 SWAP3 DUP7 SWAP6 SWAP5 DUP14 SWAP3 PUSH3 0x150 JUMPI JUMPDEST POP POP PUSH1 0x0 NOT DUP3 DUP15 SHL SHR NOT AND SWAP1 DUP5 SHL OR DUP6 SSTORE JUMPDEST ADD SWAP3 ADD SWAP3 ADD SWAP2 SWAP1 PUSH3 0xA3 JUMP JUMPDEST ADD MLOAD SWAP1 POP CODESIZE DUP1 PUSH3 0x131 JUMP JUMPDEST DUP6 DUP12 MSTORE DUP4 DUP12 KECCAK256 SWAP2 SWAP1 PUSH1 0x1F NOT DUP5 AND DUP13 JUMPDEST DUP2 DUP2 LT PUSH3 0x1AE JUMPI POP SWAP2 PUSH1 0x1 SWAP7 SWAP4 SWAP2 DUP6 DUP9 SWAP8 SWAP7 SWAP5 LT PUSH3 0x195 JUMPI JUMPDEST POP POP POP DUP4 SHL DUP4 ADD DUP6 SSTORE PUSH3 0x143 JUMP JUMPDEST ADD MLOAD PUSH1 0x0 NOT DUP4 DUP16 SHL PUSH1 0xF8 AND SHR NOT AND SWAP1 SSTORE CODESIZE DUP1 DUP1 PUSH3 0x186 JUMP JUMPDEST DUP3 DUP5 ADD MLOAD DUP6 SSTORE DUP12 SWAP7 PUSH1 0x1 SWAP1 SWAP6 ADD SWAP5 SWAP4 DUP5 ADD SWAP4 ADD PUSH3 0x16B JUMP JUMPDEST PUSH3 0x1F1 SWAP1 DUP8 DUP14 MSTORE DUP6 DUP14 KECCAK256 PUSH1 0x5 DUP6 DUP1 DUP9 ADD DUP3 SHR DUP4 ADD SWAP4 DUP10 DUP10 LT PUSH3 0x1F8 JUMPI JUMPDEST ADD SWAP1 SHR ADD SWAP1 PUSH3 0x30A JUMP JUMPDEST CODESIZE PUSH3 0x113 JUMP JUMPDEST SWAP4 POP DUP3 SWAP4 PUSH3 0x1E6 JUMP JUMPDEST PUSH4 0x4E487B71 PUSH1 0xE0 SHL DUP10 MSTORE PUSH1 0x41 DUP9 MSTORE PUSH1 0x24 DUP10 REVERT JUMPDEST DUP6 DUP1 MSTORE DUP7 DUP5 DUP8 KECCAK256 SWAP2 DUP3 ADD SWAP2 ADD JUMPDEST DUP2 DUP2 LT PUSH3 0x231 JUMPI POP PUSH3 0x99 JUMP JUMPDEST DUP1 PUSH3 0x240 PUSH1 0x1 SWAP3 SLOAD PUSH3 0x2CD JUMP JUMPDEST DUP1 PUSH3 0x24F JUMPI JUMPDEST POP ADD PUSH3 0x222 JUMP JUMPDEST PUSH1 0x1F SWAP1 DUP2 DUP2 GT DUP5 EQ PUSH3 0x269 JUMPI POP POP DUP8 DUP2 SSTORE JUMPDEST CODESIZE PUSH3 0x247 JUMP JUMPDEST DUP4 PUSH3 0x284 SWAP3 DUP5 DUP13 MSTORE DUP10 DUP13 KECCAK256 SWAP3 ADD PUSH1 0x5 SHR DUP3 ADD SWAP2 ADD PUSH3 0x30A JUMP JUMPDEST DUP8 DUP7 DUP2 KECCAK256 DUP2 DUP4 SSTORE SSTORE PUSH3 0x262 JUMP JUMPDEST PUSH4 0x4E487B71 PUSH1 0xE0 SHL PUSH1 0x0 MSTORE PUSH1 0x41 PUSH1 0x4 MSTORE PUSH1 0x24 PUSH1 0x0 REVERT JUMPDEST PUSH1 0x0 DUP1 REVERT JUMPDEST PUSH1 0x40 DUP1 MLOAD SWAP2 SWAP1 DUP3 ADD PUSH1 0x1 PUSH1 0x1 PUSH1 0x40 SHL SUB DUP2 GT DUP4 DUP3 LT OR PUSH3 0x292 JUMPI PUSH1 0x40 MSTORE JUMP JUMPDEST SWAP1 PUSH1 0x1 DUP3 DUP2 SHR SWAP3 AND DUP1 ISZERO PUSH3 0x2FF JUMPI JUMPDEST PUSH1 0x20 DUP4 LT EQ PUSH3 0x2E9 JUMPI JUMP JUMPDEST PUSH4 0x4E487B71 PUSH1 0xE0 SHL PUSH1 0x0 MSTORE PUSH1 0x22 PUSH1 0x4 MSTORE PUSH1 0x24 PUSH1 0x0 REVERT JUMPDEST SWAP2 PUSH1 0x7F AND SWAP2 PUSH3 0x2DD JUMP JUMPDEST DUP2 DUP2 LT PUSH3 0x316 JUMPI POP POP JUMP JUMPDEST PUSH1 0x0 DUP2 SSTORE PUSH1 0x1 ADD PUSH3 0x30A JUMP INVALID PUSH1 0x80 DUP1 PUSH1 0x40 MSTORE PUSH1 0x4 CALLDATASIZE LT ISZERO PUSH2 0x13 JUMPI PUSH1 0x0 DUP1 REVERT JUMPDEST PUSH1 0x0 CALLDATALOAD PUSH1 0xE0 SHR SWAP1 DUP2 PUSH3 0xDA7228 EQ PUSH2 0x294E JUMPI POP DUP1 PUSH4 0x273D66E EQ PUSH2 0x28D4 JUMPI DUP1 PUSH4 0x29C21BD EQ PUSH2 0x28B6 JUMPI DUP1 PUSH4 0x983F185 EQ PUSH2 0x2898 JUMPI DUP1 PUSH4 0x1812DAB4 EQ PUSH2 0x287A JUMPI DUP1 PUSH4 0x1BF533A4 EQ PUSH2 0x2237 JUMPI DUP1 PUSH4 0x1D50384B EQ PUSH2 0x2039 JUMPI DUP1 PUSH4 0x24D7806C EQ PUSH2 0x2004 JUMPI DUP1 PUSH4 0x2526E05D EQ PUSH2 0x1D12 JUMPI DUP1 PUSH4 0x2D23C735 EQ PUSH2 0x1977 JUMPI DUP1 PUSH4 0x2E6997FE EQ PUSH2 0x18DF JUMPI DUP1 PUSH4 0x35BBE70E EQ PUSH2 0x17F5 JUMPI DUP1 PUSH4 0x4A3CCC96 EQ PUSH2 0x174C JUMPI DUP1 PUSH4 0x4F235207 EQ PUSH2 0x16E1 JUMPI DUP1 PUSH4 0x50E2E8AF EQ PUSH2 0x166B JUMPI DUP1 PUSH4 0x53AC5DC3 EQ PUSH2 0x15F0 JUMPI DUP1 PUSH4 0x6332ABC9 EQ PUSH2 0x15D2 JUMPI DUP1 PUSH4 0x6394A8FA EQ PUSH2 0x1578 JUMPI DUP1 PUSH4 0x640E79B7 EQ PUSH2 0x1466 JUMPI DUP1 PUSH4 0x69D2BCA1 EQ PUSH2 0x1351 JUMPI DUP1 PUSH4 0x71C693EB EQ PUSH2 0x113C JUMPI DUP1 PUSH4 0x7C054C54 EQ PUSH2 0x111E JUMPI DUP1 PUSH4 0x7FD5F268 EQ PUSH2 0xEF1 JUMPI DUP1 PUSH4 0x8287E42F EQ PUSH2 0xE96 JUMPI DUP1 PUSH4 0x8AB66A90 EQ PUSH2 0xE2F JUMPI DUP1 PUSH4 0x8D0371FF EQ PUSH2 0xE11 JUMPI DUP1 PUSH4 0x9682F9B3 EQ PUSH2 0xCF0 JUMPI DUP1 PUSH4 0x9EDA74CF EQ PUSH2 0x9E1 JUMPI DUP1 PUSH4 0xA3EC138D EQ PUSH2 0x983 JUMPI DUP1 PUSH4 0xA96278AE EQ PUSH2 0x928 JUMPI DUP1 PUSH4 0xB0A4EC42 EQ PUSH2 0x8F0 JUMPI DUP1 PUSH4 0xB13C744B EQ PUSH2 0x804 JUMPI DUP1 PUSH4 0xB867BFCC EQ PUSH2 0x71A JUMPI DUP1 PUSH4 0xBA71BEF0 EQ PUSH2 0x6AB JUMPI DUP1 PUSH4 0xC6384071 EQ PUSH2 0x68D JUMPI DUP1 PUSH4 0xDEFB908F EQ PUSH2 0x540 JUMPI DUP1 PUSH4 0xE9AF3FC0 EQ PUSH2 0x46F JUMPI DUP1 PUSH4 0xEF53C6AB EQ PUSH2 0x2A7 JUMPI DUP1 PUSH4 0xF3845166 EQ PUSH2 0x22D JUMPI DUP1 PUSH4 0xF7C4C25A EQ PUSH2 0x20F JUMPI PUSH4 0xFC6F9468 EQ PUSH2 0x1E1 JUMPI PUSH1 0x0 DUP1 REVERT JUMPDEST CALLVALUE PUSH2 0x20A JUMPI PUSH1 0x0 CALLDATASIZE PUSH1 0x3 NOT ADD SLT PUSH2 0x20A JUMPI PUSH1 0x1 SLOAD PUSH1 0x40 MLOAD PUSH1 0x1 PUSH1 0x1 PUSH1 0xA0 SHL SUB SWAP1 SWAP2 AND DUP2 MSTORE PUSH1 0x20 SWAP1 RETURN JUMPDEST PUSH1 0x0 DUP1 REVERT JUMPDEST CALLVALUE PUSH2 0x20A JUMPI PUSH1 0x0 CALLDATASIZE PUSH1 0x3 NOT ADD SLT PUSH2 0x20A JUMPI PUSH1 0x20 PUSH1 0x15 SLOAD PUSH1 0x40 MLOAD SWAP1 DUP2 MSTORE RETURN JUMPDEST CALLVALUE PUSH2 0x20A JUMPI PUSH1 0x20 CALLDATASIZE PUSH1 0x3 NOT ADD SLT PUSH2 0x20A JUMPI PUSH1 0x4 CALLDATALOAD PUSH1 0x10 SLOAD DUP2 LT ISZERO PUSH2 0x20A JUMPI PUSH2 0x288 PUSH2 0x28F PUSH2 0x2A3 SWAP3 PUSH1 0x10 PUSH1 0x0 MSTORE PUSH1 0x40 MLOAD SWAP3 DUP4 DUP1 SWAP3 PUSH32 0x1B6847DC741A1B0CD08D278845F9D819D87B734759AFB55FE2DE5CB82A9AE672 ADD PUSH2 0x2B0F JUMP JUMPDEST SUB DUP3 PUSH2 0x2C2D JUMP JUMPDEST PUSH1 0x40 MLOAD SWAP2 DUP3 SWAP2 PUSH1 0x20 DUP4 MSTORE PUSH1 0x20 DUP4 ADD SWAP1 PUSH2 0x2A00 JUMP JUMPDEST SUB SWAP1 RETURN JUMPDEST PUSH1 0x40 CALLDATASIZE PUSH1 0x3 NOT ADD SLT PUSH2 0x20A JUMPI PUSH1 0x4 CALLDATALOAD PUSH1 0x1 PUSH1 0x1 PUSH1 0x40 SHL SUB DUP1 DUP3 GT PUSH2 0x20A JUMPI CALLDATASIZE PUSH1 0x23 DUP4 ADD SLT ISZERO PUSH2 0x20A JUMPI DUP2 PUSH1 0x4 ADD CALLDATALOAD PUSH2 0x2DE DUP2 PUSH2 0x30DE JUMP JUMPDEST SWAP2 PUSH2 0x2EC PUSH1 0x40 MLOAD SWAP4 DUP5 PUSH2 0x2C2D JUMP JUMPDEST DUP2 DUP4 MSTORE PUSH1 0x20 SWAP4 DUP5 DUP5 ADD PUSH1 0x24 PUSH1 0x5 SWAP5 DUP6 SHL DUP4 ADD ADD SWAP2 CALLDATASIZE DUP4 GT PUSH2 0x20A JUMPI PUSH1 0x24 ADD SWAP1 JUMPDEST DUP3 DUP3 LT PUSH2 0x450 JUMPI POP POP POP PUSH1 0x24 CALLDATALOAD SWAP1 DUP2 GT PUSH2 0x20A JUMPI SWAP2 PUSH2 0x330 DUP5 SWAP4 CALLDATASIZE SWAP1 PUSH1 0x4 ADD PUSH2 0x2CA5 JUMP JUMPDEST SWAP1 PUSH1 0x1 DUP1 PUSH1 0xA0 SHL SUB SWAP1 PUSH1 0x1 SWAP4 DUP5 SWAP4 PUSH2 0x34C DUP5 DUP7 SLOAD AND CALLER EQ PUSH2 0x33C7 JUMP JUMPDEST DUP1 DUP8 ADD PUSH1 0x0 DUP7 JUMPDEST PUSH2 0x3F9 JUMPI JUMPDEST POP PUSH1 0x0 SWAP6 JUMPDEST PUSH2 0x363 JUMPI STOP JUMPDEST PUSH1 0x13 SLOAD DUP7 LT ISZERO PUSH2 0x3B2 JUMPI DUP6 PUSH2 0x384 PUSH1 0x2 PUSH2 0x37D DUP11 SWAP10 PUSH2 0x3251 JUMP JUMPDEST POP ADD PUSH2 0x32DB JUMP JUMPDEST DUP10 DUP2 MLOAD SWAP2 ADD KECCAK256 DUP4 MLOAD DUP4 KECCAK256 EQ PUSH2 0x3A2 JUMPI PUSH2 0x39C SWAP1 PUSH2 0x328C JUMP JUMPDEST SWAP6 PUSH2 0x35D JUMP JUMPDEST SWAP3 SWAP4 SWAP5 SWAP6 SWAP2 POP POP PUSH1 0x0 SWAP1 JUMPDEST PUSH2 0x3B4 JUMPI JUMPDEST STOP JUMPDEST DUP4 MLOAD DUP2 LT ISZERO PUSH2 0x3B2 JUMPI PUSH2 0x3F3 SWAP1 PUSH2 0x3EE PUSH2 0x3CD DUP5 PUSH2 0x3251 JUMP JUMPDEST POP DUP8 PUSH2 0x3D9 DUP5 DUP10 PUSH2 0x3AA1 JUMP JUMPDEST MLOAD AND PUSH1 0x0 MSTORE DUP6 DUP11 MSTORE DUP6 PUSH1 0x40 PUSH1 0x0 KECCAK256 SWAP2 ADD PUSH2 0x3BFA JUMP JUMPDEST PUSH2 0x328C JUMP JUMPDEST DUP6 PUSH2 0x3AD JUMP JUMPDEST DUP5 MLOAD DUP2 LT ISZERO PUSH2 0x44B JUMPI PUSH2 0x445 SWAP1 PUSH2 0x3EE DUP6 PUSH1 0x40 MLOAD DUP13 DUP2 DUP9 MLOAD PUSH2 0x41C DUP2 DUP4 DUP12 PUSH2 0x29DD JUMP JUMPDEST DUP2 ADD PUSH1 0x11 DUP2 MSTORE SUB ADD SWAP1 KECCAK256 ADD DUP9 PUSH2 0x432 DUP5 DUP11 PUSH2 0x3AA1 JUMP JUMPDEST MLOAD AND PUSH1 0x0 MSTORE DUP7 DUP13 MSTORE PUSH1 0x40 PUSH1 0x0 KECCAK256 SWAP1 PUSH2 0x3BFA JUMP JUMPDEST DUP7 PUSH2 0x353 JUMP JUMPDEST PUSH2 0x358 JUMP JUMPDEST DUP2 CALLDATALOAD PUSH1 0x1 PUSH1 0x1 PUSH1 0xA0 SHL SUB DUP2 AND DUP2 SUB PUSH2 0x20A JUMPI DUP2 MSTORE SWAP1 DUP7 ADD SWAP1 DUP7 ADD PUSH2 0x30C JUMP JUMPDEST PUSH1 0x60 CALLDATASIZE PUSH1 0x3 NOT ADD SLT PUSH2 0x20A JUMPI PUSH2 0x483 PUSH2 0x29C7 JUMP JUMPDEST PUSH1 0x1 PUSH1 0x1 PUSH1 0x40 SHL SUB PUSH1 0x24 CALLDATALOAD DUP2 DUP2 GT PUSH2 0x20A JUMPI PUSH2 0x4A3 SWAP1 CALLDATASIZE SWAP1 PUSH1 0x4 ADD PUSH2 0x2CA5 JUMP JUMPDEST SWAP1 PUSH1 0x44 CALLDATALOAD SWAP1 DUP2 GT PUSH2 0x20A JUMPI PUSH2 0x4BC SWAP1 CALLDATASIZE SWAP1 PUSH1 0x4 ADD PUSH2 0x2CA5 JUMP JUMPDEST PUSH1 0x40 MLOAD SWAP2 PUSH2 0x4C9 DUP4 PUSH2 0x2BC0 JUMP JUMPDEST CALLER DUP4 MSTORE PUSH1 0x20 DUP4 ADD MSTORE PUSH1 0x40 DUP3 ADD MSTORE PUSH1 0x1 DUP1 PUSH1 0xA0 SHL SUB DUP1 SWAP3 AND DUP1 PUSH1 0x0 MSTORE PUSH1 0x12 PUSH1 0x20 MSTORE PUSH1 0x5 SWAP1 PUSH2 0x4FC DUP4 DUP4 PUSH1 0x40 PUSH1 0x0 KECCAK256 ADD PUSH2 0x3EA1 JUMP JUMPDEST PUSH1 0x0 JUMPDEST PUSH1 0x14 SLOAD DUP2 LT ISZERO PUSH2 0x3B2 JUMPI DUP2 DUP6 PUSH2 0x514 DUP4 PUSH2 0x30A3 JUMP JUMPDEST POP SLOAD AND EQ PUSH2 0x52A JUMPI PUSH2 0x525 SWAP1 PUSH2 0x328C JUMP JUMPDEST PUSH2 0x4FF JUMP JUMPDEST PUSH2 0x3B2 SWAP5 POP PUSH2 0x539 SWAP2 POP PUSH2 0x30A3 JUMP JUMPDEST POP ADD PUSH2 0x3EA1 JUMP JUMPDEST CALLVALUE PUSH2 0x20A JUMPI PUSH1 0x20 CALLDATASIZE PUSH1 0x3 NOT ADD SLT PUSH2 0x20A JUMPI PUSH1 0x4 CALLDATALOAD PUSH1 0x13 SLOAD DUP2 LT ISZERO PUSH2 0x20A JUMPI PUSH1 0x7 SWAP1 PUSH1 0x13 PUSH1 0x0 MSTORE MUL PUSH1 0x40 MLOAD PUSH2 0x59A DUP2 PUSH2 0x288 DUP2 DUP6 PUSH32 0x66DE8FFDA797E3DE9C05E8FC57B3BF0EC28A930D40B0D285D93C06501CF6A090 ADD PUSH2 0x2B0F JUMP JUMPDEST PUSH2 0x2A3 PUSH32 0x66DE8FFDA797E3DE9C05E8FC57B3BF0EC28A930D40B0D285D93C06501CF6A094 PUSH1 0x40 MLOAD SWAP4 PUSH2 0x5F9 DUP6 PUSH2 0x5F2 DUP2 PUSH32 0x66DE8FFDA797E3DE9C05E8FC57B3BF0EC28A930D40B0D285D93C06501CF6A091 DUP6 ADD PUSH2 0x2B0F JUMP JUMPDEST SUB DUP7 PUSH2 0x2C2D JUMP JUMPDEST PUSH1 0x40 MLOAD PUSH2 0x62C DUP2 PUSH2 0x288 DUP2 PUSH32 0x66DE8FFDA797E3DE9C05E8FC57B3BF0EC28A930D40B0D285D93C06501CF6A092 DUP7 ADD PUSH2 0x2B0F JUMP JUMPDEST PUSH2 0x681 PUSH1 0x40 MLOAD SWAP3 PUSH2 0x66A DUP5 PUSH2 0x663 DUP2 PUSH32 0x66DE8FFDA797E3DE9C05E8FC57B3BF0EC28A930D40B0D285D93C06501CF6A093 DUP6 ADD PUSH2 0x2B0F JUMP JUMPDEST SUB DUP6 PUSH2 0x2C2D JUMP JUMPDEST PUSH2 0x67A PUSH1 0x40 MLOAD DUP1 SWAP7 DUP2 SWAP4 ADD PUSH2 0x2B0F JUMP JUMPDEST SUB DUP5 PUSH2 0x2C2D JUMP JUMPDEST PUSH1 0x40 MLOAD SWAP6 DUP7 SWAP6 DUP7 PUSH2 0x2ED5 JUMP JUMPDEST CALLVALUE PUSH2 0x20A JUMPI PUSH1 0x0 CALLDATASIZE PUSH1 0x3 NOT ADD SLT PUSH2 0x20A JUMPI PUSH1 0x20 PUSH1 0xD SLOAD PUSH1 0x40 MLOAD SWAP1 DUP2 MSTORE RETURN JUMPDEST CALLVALUE PUSH2 0x20A JUMPI PUSH1 0x20 CALLDATASIZE PUSH1 0x3 NOT ADD SLT PUSH2 0x20A JUMPI PUSH2 0x6C4 PUSH2 0x29C7 JUMP JUMPDEST PUSH1 0x0 PUSH1 0x40 DUP1 MLOAD PUSH2 0x6D3 DUP2 PUSH2 0x2BC0 JUMP JUMPDEST PUSH2 0x6DB PUSH2 0x42B3 JUMP JUMPDEST DUP2 MSTORE PUSH1 0x60 PUSH1 0x20 DUP3 ADD MSTORE ADD MSTORE PUSH1 0x1 DUP1 PUSH1 0xA0 SHL SUB AND PUSH1 0x0 MSTORE PUSH1 0x9 PUSH1 0x20 MSTORE PUSH2 0x2A3 PUSH2 0x706 PUSH1 0x40 PUSH1 0x0 KECCAK256 PUSH2 0x44C7 JUMP JUMPDEST PUSH1 0x40 MLOAD SWAP2 DUP3 SWAP2 PUSH1 0x20 DUP4 MSTORE PUSH1 0x20 DUP4 ADD SWAP1 PUSH2 0x2EA0 JUMP JUMPDEST CALLVALUE PUSH2 0x20A JUMPI PUSH1 0x0 CALLDATASIZE PUSH1 0x3 NOT ADD SLT PUSH2 0x20A JUMPI PUSH1 0xF SLOAD PUSH2 0x737 DUP2 PUSH2 0x30DE JUMP JUMPDEST SWAP1 PUSH2 0x745 PUSH1 0x40 MLOAD SWAP3 DUP4 PUSH2 0x2C2D JUMP JUMPDEST DUP1 DUP3 MSTORE PUSH1 0x20 SWAP1 DUP2 DUP4 ADD SWAP1 DUP2 PUSH1 0xF PUSH1 0x0 MSTORE PUSH32 0x8D1108E10BCB7C27DDDFC02ED9D693A074039D026CF4EA4240B40F7D581AC802 PUSH1 0x0 SWAP2 JUMPDEST DUP4 DUP4 LT PUSH2 0x7E1 JUMPI POP POP POP POP PUSH1 0x40 MLOAD SWAP2 DUP1 DUP4 ADD SWAP4 DUP2 DUP5 MSTORE MLOAD DUP1 SWAP5 MSTORE PUSH1 0x40 DUP4 ADD SWAP4 PUSH1 0x40 DUP2 PUSH1 0x5 SHL DUP6 ADD ADD SWAP3 SWAP2 PUSH1 0x0 SWAP6 JUMPDEST DUP3 DUP8 LT PUSH2 0x7B5 JUMPI DUP6 DUP6 SUB DUP7 RETURN JUMPDEST SWAP1 SWAP2 SWAP3 SWAP4 DUP3 DUP1 PUSH2 0x7D1 PUSH1 0x1 SWAP4 PUSH1 0x3F NOT DUP11 DUP3 SUB ADD DUP7 MSTORE DUP9 MLOAD PUSH2 0x2A62 JUMP JUMPDEST SWAP7 ADD SWAP3 ADD SWAP7 ADD SWAP6 SWAP3 SWAP2 SWAP1 SWAP3 PUSH2 0x7A8 JUMP JUMPDEST PUSH1 0x6 DUP7 PUSH1 0x1 SWAP3 PUSH2 0x7F3 DUP6 SWAP11 SWAP10 SWAP11 PUSH2 0x430F JUMP JUMPDEST DUP2 MSTORE ADD SWAP3 ADD SWAP3 ADD SWAP2 SWAP1 SWAP6 SWAP5 SWAP6 PUSH2 0x77A JUMP JUMPDEST CALLVALUE PUSH2 0x20A JUMPI PUSH1 0x20 CALLDATASIZE PUSH1 0x3 NOT ADD SLT PUSH2 0x20A JUMPI PUSH1 0x4 CALLDATALOAD PUSH1 0x6 SLOAD DUP2 LT ISZERO PUSH2 0x20A JUMPI PUSH1 0x6 PUSH1 0x0 MSTORE PUSH1 0x4 SHL PUSH2 0x855 DUP2 PUSH32 0xF652222313E28459528D920B65115C16C04F3EFC82AAEDC97BE59F3F377C0D3F ADD PUSH2 0x2F7D JUMP JUMPDEST PUSH2 0x2A3 PUSH1 0x40 MLOAD SWAP3 PUSH2 0x88C DUP5 PUSH2 0x663 DUP2 PUSH32 0xF652222313E28459528D920B65115C16C04F3EFC82AAEDC97BE59F3F377C0D4B DUP6 ADD PUSH2 0x2B0F JUMP JUMPDEST PUSH32 0xF652222313E28459528D920B65115C16C04F3EFC82AAEDC97BE59F3F377C0D4D PUSH1 0x40 MLOAD SWAP2 PUSH2 0x8E1 DUP4 PUSH2 0x67A DUP2 PUSH32 0xF652222313E28459528D920B65115C16C04F3EFC82AAEDC97BE59F3F377C0D4C DUP6 ADD PUSH2 0x2B0F JUMP JUMPDEST ADD SLOAD SWAP1 PUSH1 0x40 MLOAD SWAP5 DUP6 SWAP5 DUP6 PUSH2 0x31D8 JUMP JUMPDEST CALLVALUE PUSH2 0x20A JUMPI PUSH1 0x20 CALLDATASIZE PUSH1 0x3 NOT ADD SLT PUSH2 0x20A JUMPI PUSH1 0x4 CALLDATALOAD PUSH1 0x1 PUSH1 0x1 PUSH1 0x40 SHL SUB DUP2 GT PUSH2 0x20A JUMPI PUSH2 0x923 PUSH2 0x3B2 SWAP2 CALLDATASIZE SWAP1 PUSH1 0x4 ADD PUSH2 0x2CA5 JUMP JUMPDEST PUSH2 0x3F41 JUMP JUMPDEST CALLVALUE PUSH2 0x20A JUMPI PUSH1 0x20 CALLDATASIZE PUSH1 0x3 NOT ADD SLT PUSH2 0x20A JUMPI PUSH1 0x4 CALLDATALOAD PUSH1 0xB SLOAD DUP2 LT ISZERO PUSH2 0x20A JUMPI PUSH2 0x288 PUSH2 0x28F PUSH2 0x2A3 SWAP3 PUSH1 0xB PUSH1 0x0 MSTORE PUSH1 0x40 MLOAD SWAP3 DUP4 DUP1 SWAP3 PUSH32 0x175B7A638427703F0DBE7BB9BBF987A2551717B34E79F33B5B1008D1FA01DB9 ADD PUSH2 0x2B0F JUMP JUMPDEST CALLVALUE PUSH2 0x20A JUMPI PUSH1 0x20 CALLDATASIZE PUSH1 0x3 NOT ADD SLT PUSH2 0x20A JUMPI PUSH1 0x1 PUSH1 0x1 PUSH1 0xA0 SHL SUB PUSH2 0x9A4 PUSH2 0x29C7 JUMP JUMPDEST AND PUSH1 0x0 MSTORE PUSH1 0x9 PUSH1 0x20 MSTORE PUSH2 0x9D7 PUSH1 0x40 PUSH1 0x0 KECCAK256 PUSH1 0xD PUSH2 0x9C0 DUP3 PUSH2 0x2F7D JUMP JUMPDEST SWAP2 ADD SLOAD PUSH1 0x40 MLOAD SWAP3 DUP4 SWAP3 PUSH1 0x40 DUP5 MSTORE PUSH1 0x40 DUP5 ADD SWAP1 PUSH2 0x2CFB JUMP JUMPDEST SWAP1 PUSH1 0x20 DUP4 ADD MSTORE SUB SWAP1 RETURN JUMPDEST PUSH2 0x160 DUP1 PUSH1 0x3 NOT CALLDATASIZE ADD SLT PUSH2 0x20A JUMPI PUSH1 0x1 PUSH1 0x1 PUSH1 0x40 SHL SUB PUSH1 0x4 CALLDATALOAD DUP2 DUP2 GT PUSH2 0x20A JUMPI PUSH2 0xA0F SWAP1 CALLDATASIZE SWAP1 PUSH1 0x4 ADD PUSH2 0x2CA5 JUMP JUMPDEST SWAP1 PUSH1 0x64 CALLDATALOAD DUP2 DUP2 GT PUSH2 0x20A JUMPI PUSH2 0xA28 SWAP1 CALLDATASIZE SWAP1 PUSH1 0x4 ADD PUSH2 0x2CA5 JUMP JUMPDEST SWAP2 PUSH1 0x84 CALLDATALOAD DUP3 DUP2 GT PUSH2 0x20A JUMPI PUSH2 0xA41 SWAP1 CALLDATASIZE SWAP1 PUSH1 0x4 ADD PUSH2 0x2CA5 JUMP JUMPDEST SWAP2 PUSH1 0xA4 CALLDATALOAD DUP2 DUP2 GT PUSH2 0x20A JUMPI PUSH2 0xA5A SWAP1 CALLDATASIZE SWAP1 PUSH1 0x4 ADD PUSH2 0x2CA5 JUMP JUMPDEST SWAP5 PUSH1 0xC4 CALLDATALOAD DUP3 DUP2 GT PUSH2 0x20A JUMPI PUSH2 0xA73 SWAP1 CALLDATASIZE SWAP1 PUSH1 0x4 ADD PUSH2 0x2CA5 JUMP JUMPDEST PUSH1 0xE4 CALLDATALOAD DUP4 DUP2 GT PUSH2 0x20A JUMPI PUSH2 0xA8B SWAP1 CALLDATASIZE SWAP1 PUSH1 0x4 ADD PUSH2 0x2CA5 JUMP JUMPDEST PUSH2 0x104 CALLDATALOAD DUP5 DUP2 GT PUSH2 0x20A JUMPI PUSH2 0xAA4 SWAP1 CALLDATASIZE SWAP1 PUSH1 0x4 ADD PUSH2 0x2CA5 JUMP JUMPDEST SWAP2 PUSH2 0x124 CALLDATALOAD DUP6 DUP2 GT PUSH2 0x20A JUMPI PUSH2 0xABE SWAP1 CALLDATASIZE SWAP1 PUSH1 0x4 ADD PUSH2 0x2CA5 JUMP JUMPDEST SWAP5 PUSH2 0x144 CALLDATALOAD SWAP1 DUP2 GT PUSH2 0x20A JUMPI PUSH2 0xAD8 SWAP1 CALLDATASIZE SWAP1 PUSH1 0x4 ADD PUSH2 0x2CA5 JUMP JUMPDEST SWAP9 CALLER PUSH1 0x0 MSTORE PUSH1 0x20 SWAP8 PUSH1 0x9 DUP10 MSTORE PUSH1 0x2 PUSH1 0x40 PUSH1 0x0 KECCAK256 ADD SLOAD PUSH2 0xCAB JUMPI PUSH2 0xAFA DUP12 PUSH2 0x3F41 JUMP JUMPDEST PUSH1 0x40 MLOAD SWAP10 PUSH2 0xB07 DUP12 PUSH2 0x2BDB JUMP JUMPDEST CALLER DUP12 MSTORE DUP9 DUP11 DUP13 ADD MSTORE PUSH1 0x24 SWAP12 DUP13 CALLDATALOAD PUSH1 0x40 DUP14 ADD MSTORE PUSH1 0x44 CALLDATALOAD PUSH1 0x60 DUP14 ADD MSTORE PUSH1 0x80 DUP13 ADD MSTORE PUSH1 0xA0 DUP12 ADD MSTORE PUSH1 0xC0 DUP11 ADD MSTORE PUSH1 0xE0 DUP10 ADD MSTORE PUSH2 0x100 DUP9 ADD MSTORE PUSH2 0x120 DUP8 ADD MSTORE PUSH2 0x140 DUP7 ADD MSTORE DUP5 ADD MSTORE PUSH1 0x40 MLOAD SWAP3 PUSH2 0xB57 DUP5 PUSH2 0x2BC0 JUMP JUMPDEST DUP4 MSTORE PUSH1 0x60 DUP3 DUP5 ADD MSTORE PUSH1 0x0 PUSH1 0x40 DUP5 ADD MSTORE CALLER PUSH1 0x0 MSTORE PUSH1 0x9 DUP3 MSTORE PUSH2 0xB7C DUP4 PUSH1 0x40 PUSH1 0x0 KECCAK256 PUSH2 0x4392 JUMP JUMPDEST PUSH1 0xB SLOAD PUSH1 0x1 PUSH1 0x40 SHL SWAP2 DUP3 DUP3 LT ISZERO PUSH2 0xC96 JUMPI PUSH1 0x1 DUP3 ADD DUP1 PUSH1 0xB SSTORE DUP3 LT ISZERO PUSH2 0xC81 JUMPI PUSH2 0xBCC SWAP2 PUSH1 0xB PUSH1 0x0 MSTORE PUSH32 0x175B7A638427703F0DBE7BB9BBF987A2551717B34E79F33B5B1008D1FA01DB9 ADD PUSH2 0x347E JUMP JUMPDEST PUSH1 0xA SLOAD SWAP1 DUP2 LT ISZERO PUSH2 0xC6C JUMPI DUP1 PUSH1 0x1 PUSH2 0xBE7 SWAP3 ADD PUSH1 0xA SSTORE PUSH2 0x2F42 JUMP JUMPDEST PUSH2 0xC57 JUMPI DUP3 PUSH2 0xBF5 SWAP2 PUSH2 0x4392 JUMP JUMPDEST PUSH1 0xC SLOAD PUSH1 0x1 DUP2 ADD DUP1 SWAP2 GT PUSH2 0xC42 JUMPI PUSH32 0xF59A1B8573DB02CF501C11C9D7D88B5365A59BDF0555CFD387DB21CFCACCF4DA SWAP4 POP PUSH1 0xC SSTORE PUSH2 0xC3D PUSH1 0x40 MLOAD SWAP3 DUP3 DUP5 SWAP4 DUP5 MSTORE DUP4 ADD SWAP1 PUSH2 0x2EA0 JUMP JUMPDEST SUB SWAP1 LOG1 STOP JUMPDEST DUP4 PUSH4 0x4E487B71 PUSH1 0xE0 SHL PUSH1 0x0 MSTORE PUSH1 0x11 PUSH1 0x4 MSTORE PUSH1 0x0 REVERT JUMPDEST DUP4 PUSH4 0x4E487B71 PUSH1 0xE0 SHL PUSH1 0x0 MSTORE PUSH1 0x0 PUSH1 0x4 MSTORE PUSH1 0x0 REVERT JUMPDEST DUP4 PUSH4 0x4E487B71 PUSH1 0xE0 SHL PUSH1 0x0 MSTORE PUSH1 0x41 PUSH1 0x4 MSTORE PUSH1 0x0 REVERT JUMPDEST DUP6 PUSH4 0x4E487B71 PUSH1 0xE0 SHL PUSH1 0x0 MSTORE PUSH1 0x32 PUSH1 0x4 MSTORE PUSH1 0x0 REVERT JUMPDEST DUP6 PUSH4 0x4E487B71 PUSH1 0xE0 SHL PUSH1 0x0 MSTORE PUSH1 0x41 PUSH1 0x4 MSTORE PUSH1 0x0 REVERT JUMPDEST PUSH1 0x40 MLOAD PUSH3 0x461BCD PUSH1 0xE5 SHL DUP2 MSTORE PUSH1 0x4 DUP2 ADD DUP11 SWAP1 MSTORE PUSH1 0x1A PUSH1 0x24 DUP3 ADD MSTORE PUSH32 0x566F74657220616C726561647920726567697374657265642021000000000000 PUSH1 0x44 DUP3 ADD MSTORE PUSH1 0x64 SWAP1 REVERT JUMPDEST CALLVALUE PUSH2 0x20A JUMPI PUSH1 0x20 CALLDATASIZE PUSH1 0x3 NOT ADD SLT PUSH2 0x20A JUMPI PUSH1 0x4 CALLDATALOAD PUSH1 0x14 SLOAD DUP2 LT ISZERO PUSH2 0x20A JUMPI PUSH1 0x6 SWAP1 PUSH1 0x14 PUSH1 0x0 MSTORE MUL PUSH1 0x1 DUP1 PUSH1 0xA0 SHL SUB DUP2 PUSH32 0xCE6D7B5282BD9A3661AE061FEED1DBDA4E52AB073B1F9285BE6E155D9C38D4EC ADD SLOAD AND PUSH2 0x2A3 PUSH32 0xCE6D7B5282BD9A3661AE061FEED1DBDA4E52AB073B1F9285BE6E155D9C38D4F0 PUSH1 0x40 MLOAD SWAP4 PUSH2 0xD9B DUP6 PUSH2 0x5F2 DUP2 PUSH32 0xCE6D7B5282BD9A3661AE061FEED1DBDA4E52AB073B1F9285BE6E155D9C38D4ED DUP6 ADD PUSH2 0x2B0F JUMP JUMPDEST PUSH1 0x40 MLOAD PUSH2 0xDCE DUP2 PUSH2 0x288 DUP2 PUSH32 0xCE6D7B5282BD9A3661AE061FEED1DBDA4E52AB073B1F9285BE6E155D9C38D4EE DUP7 ADD PUSH2 0x2B0F JUMP JUMPDEST PUSH2 0xE05 PUSH1 0x40 MLOAD SWAP3 PUSH2 0x66A DUP5 PUSH2 0x663 DUP2 PUSH32 0xCE6D7B5282BD9A3661AE061FEED1DBDA4E52AB073B1F9285BE6E155D9C38D4EF DUP6 ADD PUSH2 0x2B0F JUMP JUMPDEST PUSH1 0x40 MLOAD SWAP6 DUP7 SWAP6 DUP7 PUSH2 0x2C4E JUMP JUMPDEST CALLVALUE PUSH2 0x20A JUMPI PUSH1 0x0 CALLDATASIZE PUSH1 0x3 NOT ADD SLT PUSH2 0x20A JUMPI PUSH1 0x20 PUSH1 0x16 SLOAD PUSH1 0x40 MLOAD SWAP1 DUP2 MSTORE RETURN JUMPDEST CALLVALUE PUSH2 0x20A JUMPI PUSH1 0x20 CALLDATASIZE PUSH1 0x3 NOT ADD SLT PUSH2 0x20A JUMPI PUSH1 0x1 PUSH1 0x1 PUSH1 0xA0 SHL SUB PUSH2 0xE50 PUSH2 0x29C7 JUMP JUMPDEST AND PUSH1 0x0 MSTORE PUSH1 0x5 PUSH1 0x20 MSTORE PUSH1 0x40 PUSH1 0x0 KECCAK256 PUSH2 0xE67 DUP2 PUSH2 0x2F7D JUMP JUMPDEST PUSH2 0x2A3 PUSH1 0x40 MLOAD SWAP3 PUSH2 0xE7F DUP5 PUSH2 0x663 DUP2 PUSH1 0xC DUP6 ADD PUSH2 0x2B0F JUMP JUMPDEST PUSH1 0xE PUSH1 0x40 MLOAD SWAP2 PUSH2 0x8E1 DUP4 PUSH2 0x67A DUP2 PUSH1 0xD DUP6 ADD PUSH2 0x2B0F JUMP JUMPDEST CALLVALUE PUSH2 0x20A JUMPI PUSH1 0x20 CALLDATASIZE PUSH1 0x3 NOT ADD SLT PUSH2 0x20A JUMPI PUSH1 0x4 CALLDATALOAD PUSH1 0x7 SLOAD DUP2 LT ISZERO PUSH2 0x20A JUMPI PUSH2 0x288 PUSH2 0x28F PUSH2 0x2A3 SWAP3 PUSH1 0x7 PUSH1 0x0 MSTORE PUSH1 0x40 MLOAD SWAP3 DUP4 DUP1 SWAP3 PUSH32 0xA66CC928B5EDB82AF9BD49922954155AB7B0942694BEA4CE44661D9A8736C688 ADD PUSH2 0x2B0F JUMP JUMPDEST CALLVALUE PUSH2 0x20A JUMPI PUSH1 0x0 CALLDATASIZE PUSH1 0x3 NOT ADD SLT PUSH2 0x20A JUMPI PUSH1 0x13 SLOAD PUSH2 0xF0E DUP2 PUSH2 0x30DE JUMP JUMPDEST SWAP1 PUSH2 0xF1C PUSH1 0x40 MLOAD SWAP3 DUP4 PUSH2 0x2C2D JUMP JUMPDEST DUP1 DUP3 MSTORE PUSH1 0x20 DUP3 ADD SWAP1 DUP2 PUSH1 0x13 PUSH1 0x0 MSTORE PUSH32 0x66DE8FFDA797E3DE9C05E8FC57B3BF0EC28A930D40B0D285D93C06501CF6A090 PUSH1 0x0 SWAP2 JUMPDEST DUP4 DUP4 LT PUSH2 0xFBD JUMPI DUP5 DUP7 PUSH1 0x40 MLOAD SWAP2 DUP3 SWAP2 PUSH1 0x20 DUP4 ADD SWAP1 PUSH1 0x20 DUP5 MSTORE MLOAD DUP1 SWAP2 MSTORE PUSH1 0x40 DUP4 ADD SWAP1 PUSH1 0x40 DUP2 PUSH1 0x5 SHL DUP6 ADD ADD SWAP3 SWAP2 PUSH1 0x0 SWAP1 JUMPDEST DUP3 DUP3 LT PUSH2 0xF8E JUMPI POP POP POP POP SUB SWAP1 RETURN JUMPDEST SWAP2 SWAP4 PUSH1 0x1 SWAP2 SWAP4 SWAP6 POP PUSH1 0x20 PUSH2 0xFAD DUP2 SWAP3 PUSH1 0x3F NOT DUP11 DUP3 SUB ADD DUP7 MSTORE DUP9 MLOAD PUSH2 0x30F5 JUMP JUMPDEST SWAP7 ADD SWAP3 ADD SWAP3 ADD DUP6 SWAP5 SWAP4 SWAP2 SWAP3 PUSH2 0xF7F JUMP JUMPDEST PUSH1 0x40 MLOAD PUSH2 0xFC9 DUP2 PUSH2 0x2C12 JUMP JUMPDEST PUSH1 0x40 MLOAD PUSH2 0xFDA DUP2 PUSH2 0x288 DUP2 DUP8 PUSH2 0x2B0F JUMP JUMPDEST DUP2 MSTORE PUSH1 0x40 MLOAD PUSH2 0xFF0 DUP2 PUSH2 0x288 DUP2 PUSH1 0x1 DUP9 ADD PUSH2 0x2B0F JUMP JUMPDEST PUSH1 0x20 DUP3 ADD MSTORE PUSH1 0x40 MLOAD PUSH2 0x1009 DUP2 PUSH2 0x288 DUP2 PUSH1 0x2 DUP9 ADD PUSH2 0x2B0F JUMP JUMPDEST PUSH1 0x40 DUP3 ADD MSTORE PUSH1 0x40 MLOAD PUSH2 0x1022 DUP2 PUSH2 0x288 DUP2 PUSH1 0x3 DUP9 ADD PUSH2 0x2B0F JUMP JUMPDEST PUSH1 0x60 DUP3 ADD MSTORE PUSH1 0x40 MLOAD PUSH2 0x103B DUP2 PUSH2 0x288 DUP2 PUSH1 0x4 DUP9 ADD PUSH2 0x2B0F JUMP JUMPDEST PUSH1 0x80 DUP3 ADD MSTORE PUSH1 0x5 DUP4 ADD DUP1 SLOAD PUSH2 0x104F DUP2 PUSH2 0x30DE JUMP JUMPDEST SWAP2 PUSH2 0x105D PUSH1 0x40 MLOAD SWAP4 DUP5 PUSH2 0x2C2D JUMP JUMPDEST DUP2 DUP4 MSTORE PUSH1 0x20 DUP4 ADD SWAP1 PUSH1 0x0 MSTORE PUSH1 0x20 PUSH1 0x0 KECCAK256 SWAP1 PUSH1 0x0 SWAP1 JUMPDEST DUP4 DUP3 LT PUSH2 0x1100 JUMPI POP POP POP POP PUSH1 0xA0 DUP3 ADD MSTORE PUSH1 0x6 DUP4 ADD DUP1 SLOAD PUSH2 0x1091 DUP2 PUSH2 0x30DE JUMP JUMPDEST SWAP2 PUSH2 0x109F PUSH1 0x40 MLOAD SWAP4 DUP5 PUSH2 0x2C2D JUMP JUMPDEST DUP2 DUP4 MSTORE PUSH1 0x20 DUP4 ADD SWAP1 PUSH1 0x0 MSTORE PUSH1 0x20 PUSH1 0x0 KECCAK256 SWAP1 PUSH1 0x0 SWAP1 JUMPDEST DUP4 DUP3 LT PUSH2 0x10DB JUMPI POP POP POP POP PUSH1 0x1 SWAP3 DUP3 PUSH1 0x20 SWAP3 PUSH1 0xC0 PUSH1 0x7 SWAP6 ADD MSTORE DUP2 MSTORE ADD SWAP3 ADD SWAP3 ADD SWAP2 SWAP1 PUSH2 0xF4F JUMP JUMPDEST PUSH1 0x1 PUSH1 0x20 DUP2 SWAP3 PUSH1 0x40 MLOAD PUSH2 0x10F2 DUP2 PUSH2 0x288 DUP2 DUP11 PUSH2 0x2B0F JUMP JUMPDEST DUP2 MSTORE ADD SWAP4 ADD SWAP2 ADD SWAP1 SWAP2 PUSH2 0x10B4 JUMP JUMPDEST PUSH1 0x10 PUSH1 0x20 PUSH1 0x1 SWAP3 PUSH2 0x1110 DUP7 PUSH2 0x3ED4 JUMP JUMPDEST DUP2 MSTORE ADD SWAP4 ADD SWAP2 ADD SWAP1 SWAP2 PUSH2 0x1072 JUMP JUMPDEST CALLVALUE PUSH2 0x20A JUMPI PUSH1 0x0 CALLDATASIZE PUSH1 0x3 NOT ADD SLT PUSH2 0x20A JUMPI PUSH1 0x20 PUSH1 0x3 SLOAD PUSH1 0x40 MLOAD SWAP1 DUP2 MSTORE RETURN JUMPDEST PUSH1 0xC0 CALLDATASIZE PUSH1 0x3 NOT ADD SLT PUSH2 0x20A JUMPI PUSH1 0x1 PUSH1 0x1 PUSH1 0x40 SHL SUB PUSH1 0x4 CALLDATALOAD DUP2 DUP2 GT PUSH2 0x20A JUMPI PUSH2 0x1168 SWAP1 CALLDATASIZE SWAP1 PUSH1 0x4 ADD PUSH2 0x2CA5 JUMP JUMPDEST PUSH1 0x24 SWAP2 DUP3 CALLDATALOAD DUP2 DUP2 GT PUSH2 0x20A JUMPI PUSH2 0x1182 SWAP1 CALLDATASIZE SWAP1 PUSH1 0x4 ADD PUSH2 0x2CA5 JUMP JUMPDEST SWAP2 PUSH1 0x44 CALLDATALOAD DUP3 DUP2 GT PUSH2 0x20A JUMPI PUSH2 0x119B SWAP1 CALLDATASIZE SWAP1 PUSH1 0x4 ADD PUSH2 0x2CA5 JUMP JUMPDEST PUSH1 0x64 CALLDATALOAD DUP4 DUP2 GT PUSH2 0x20A JUMPI PUSH2 0x11B3 SWAP1 CALLDATASIZE SWAP1 PUSH1 0x4 ADD PUSH2 0x2CA5 JUMP JUMPDEST PUSH1 0x84 CALLDATALOAD DUP5 DUP2 GT PUSH2 0x20A JUMPI PUSH2 0x11CB SWAP1 CALLDATASIZE SWAP1 PUSH1 0x4 ADD PUSH2 0x2CA5 JUMP JUMPDEST PUSH1 0xA4 CALLDATALOAD SWAP2 DUP6 DUP4 GT PUSH2 0x20A JUMPI CALLDATASIZE PUSH1 0x23 DUP5 ADD SLT ISZERO PUSH2 0x20A JUMPI DUP3 PUSH1 0x4 ADD CALLDATALOAD SWAP3 PUSH2 0x11F0 DUP5 PUSH2 0x30DE JUMP JUMPDEST SWAP4 PUSH2 0x11FE PUSH1 0x40 MLOAD SWAP6 DUP7 PUSH2 0x2C2D JUMP JUMPDEST DUP1 DUP6 MSTORE PUSH1 0x20 SWAP8 DUP11 DUP10 DUP8 ADD SWAP3 PUSH1 0x5 SHL DUP5 ADD ADD SWAP3 CALLDATASIZE DUP5 GT PUSH2 0x20A JUMPI SWAP1 DUP2 DUP13 DUP12 SWAP10 SWAP9 SWAP8 SWAP7 SWAP6 SWAP5 SWAP4 ADD SWAP3 JUMPDEST DUP5 DUP5 LT PUSH2 0x1318 JUMPI DUP14 DUP14 DUP12 PUSH2 0x12A3 DUP15 PUSH2 0x1294 DUP4 DUP16 DUP16 DUP16 DUP16 PUSH2 0x1250 PUSH1 0x1 DUP1 PUSH1 0xA0 SHL SUB PUSH1 0x1 SLOAD AND CALLER EQ PUSH2 0x33C7 JUMP JUMPDEST PUSH1 0x40 MLOAD SWAP10 DUP11 SWAP8 PUSH2 0x125F DUP10 PUSH2 0x2C12 JUMP JUMPDEST DUP9 MSTORE DUP6 DUP9 ADD MSTORE DUP4 PUSH1 0x40 DUP9 ADD MSTORE PUSH1 0x60 DUP8 ADD MSTORE PUSH1 0x80 DUP7 ADD MSTORE PUSH1 0x60 PUSH1 0xA0 DUP7 ADD MSTORE PUSH1 0xC0 DUP6 ADD MSTORE DUP2 PUSH1 0x40 MLOAD SWAP4 DUP3 DUP6 DUP1 SWAP5 MLOAD SWAP4 DUP5 SWAP3 ADD PUSH2 0x29DD JUMP JUMPDEST DUP2 ADD PUSH1 0x11 DUP2 MSTORE SUB ADD SWAP1 KECCAK256 PUSH2 0x37CF JUMP JUMPDEST PUSH1 0x13 SLOAD PUSH1 0x1 PUSH1 0x40 SHL DUP2 LT ISZERO PUSH2 0xC6C JUMPI DUP1 PUSH1 0x1 PUSH2 0x12C2 SWAP3 ADD PUSH1 0x13 SSTORE PUSH2 0x3251 JUMP JUMPDEST PUSH2 0xC57 JUMPI DUP3 PUSH2 0x12D0 SWAP2 PUSH2 0x37CF JUMP JUMPDEST PUSH1 0x16 SLOAD PUSH1 0x1 DUP2 ADD DUP1 SWAP2 GT PUSH2 0xC42 JUMPI PUSH32 0xE23B65F5C9310B5B270B9D96E225BE290D906FDBD35EC3EFD3A8A9C3189320CD SWAP4 POP PUSH1 0x16 SSTORE PUSH2 0xC3D PUSH1 0x40 MLOAD SWAP3 DUP3 DUP5 SWAP4 DUP5 MSTORE DUP4 ADD SWAP1 PUSH2 0x30F5 JUMP JUMPDEST SWAP1 SWAP2 SWAP3 DUP1 SWAP5 SWAP6 SWAP7 SWAP8 SWAP9 SWAP10 POP CALLDATALOAD DUP4 DUP2 GT PUSH2 0x20A JUMPI DUP12 SWAP2 PUSH2 0x133E DUP16 SWAP3 DUP5 SWAP4 CALLDATASIZE SWAP2 DUP8 ADD ADD PUSH2 0x2CA5 JUMP JUMPDEST DUP2 MSTORE ADD SWAP4 ADD SWAP2 SWAP1 DUP11 SWAP9 SWAP8 SWAP7 SWAP6 SWAP5 SWAP4 PUSH2 0x1225 JUMP JUMPDEST PUSH1 0x80 CALLDATASIZE PUSH1 0x3 NOT ADD SLT PUSH2 0x20A JUMPI PUSH1 0x1 PUSH1 0x1 PUSH1 0x40 SHL SUB PUSH1 0x4 CALLDATALOAD DUP2 DUP2 GT PUSH2 0x20A JUMPI PUSH2 0x137D SWAP1 CALLDATASIZE SWAP1 PUSH1 0x4 ADD PUSH2 0x2CA5 JUMP JUMPDEST SWAP1 PUSH1 0x24 CALLDATALOAD DUP2 DUP2 GT PUSH2 0x20A JUMPI PUSH2 0x1396 SWAP1 CALLDATASIZE SWAP1 PUSH1 0x4 ADD PUSH2 0x2CA5 JUMP JUMPDEST SWAP1 PUSH1 0x44 CALLDATALOAD DUP2 DUP2 GT PUSH2 0x20A JUMPI PUSH2 0x13AF SWAP1 CALLDATASIZE SWAP1 PUSH1 0x4 ADD PUSH2 0x2CA5 JUMP JUMPDEST SWAP1 PUSH1 0x64 CALLDATALOAD SWAP1 DUP2 GT PUSH2 0x20A JUMPI PUSH2 0x13C8 SWAP1 CALLDATASIZE SWAP1 PUSH1 0x4 ADD PUSH2 0x2CA5 JUMP JUMPDEST SWAP2 PUSH1 0x40 MLOAD SWAP4 PUSH2 0x13D6 DUP6 PUSH2 0x2BA5 JUMP JUMPDEST CALLER DUP6 MSTORE PUSH1 0x20 DUP6 ADD MSTORE PUSH1 0x40 DUP5 ADD MSTORE PUSH1 0x60 DUP4 ADD MSTORE PUSH1 0x80 DUP3 ADD MSTORE PUSH1 0x60 PUSH1 0xA0 DUP3 ADD MSTORE CALLER PUSH1 0x0 MSTORE PUSH1 0x12 PUSH1 0x20 MSTORE PUSH2 0x140B DUP2 PUSH1 0x40 PUSH1 0x0 KECCAK256 PUSH2 0x3D6C JUMP JUMPDEST PUSH1 0x14 SLOAD PUSH1 0x1 PUSH1 0x40 SHL DUP2 LT ISZERO PUSH2 0x1450 JUMPI DUP1 PUSH1 0x1 PUSH2 0x142A SWAP3 ADD PUSH1 0x14 SSTORE PUSH2 0x30A3 JUMP JUMPDEST SWAP2 SWAP1 SWAP2 PUSH2 0x143A JUMPI PUSH2 0x3B2 SWAP2 PUSH2 0x3D6C JUMP JUMPDEST PUSH4 0x4E487B71 PUSH1 0xE0 SHL PUSH1 0x0 MSTORE PUSH1 0x0 PUSH1 0x4 MSTORE PUSH1 0x24 PUSH1 0x0 REVERT JUMPDEST PUSH4 0x4E487B71 PUSH1 0xE0 SHL PUSH1 0x0 MSTORE PUSH1 0x41 PUSH1 0x4 MSTORE PUSH1 0x24 PUSH1 0x0 REVERT JUMPDEST CALLVALUE PUSH2 0x20A JUMPI PUSH1 0x20 CALLDATASIZE PUSH1 0x3 NOT ADD SLT PUSH2 0x20A JUMPI PUSH1 0x4 CALLDATALOAD PUSH1 0xF SLOAD DUP2 LT ISZERO PUSH2 0x20A JUMPI PUSH1 0x6 SWAP1 PUSH1 0xF PUSH1 0x0 MSTORE MUL PUSH1 0x1 DUP1 PUSH1 0xA0 SHL SUB DUP2 PUSH32 0x8D1108E10BCB7C27DDDFC02ED9D693A074039D026CF4EA4240B40F7D581AC802 ADD SLOAD AND PUSH2 0x2A3 PUSH32 0x8D1108E10BCB7C27DDDFC02ED9D693A074039D026CF4EA4240B40F7D581AC806 PUSH1 0x40 MLOAD SWAP4 PUSH2 0x1511 DUP6 PUSH2 0x5F2 DUP2 PUSH32 0x8D1108E10BCB7C27DDDFC02ED9D693A074039D026CF4EA4240B40F7D581AC803 DUP6 ADD PUSH2 0x2B0F JUMP JUMPDEST PUSH32 0x8D1108E10BCB7C27DDDFC02ED9D693A074039D026CF4EA4240B40F7D581AC804 DUP2 ADD SLOAD PUSH2 0x156C PUSH1 0x40 MLOAD SWAP3 PUSH2 0x66A DUP5 PUSH2 0x663 DUP2 PUSH32 0x8D1108E10BCB7C27DDDFC02ED9D693A074039D026CF4EA4240B40F7D581AC805 DUP6 ADD PUSH2 0x2B0F JUMP JUMPDEST PUSH1 0x40 MLOAD SWAP6 DUP7 SWAP6 DUP7 PUSH2 0x2F06 JUMP JUMPDEST CALLVALUE PUSH2 0x20A JUMPI PUSH1 0x20 CALLDATASIZE PUSH1 0x3 NOT ADD SLT PUSH2 0x20A JUMPI PUSH1 0x4 CALLDATALOAD PUSH1 0x0 SLOAD DUP2 LT ISZERO PUSH2 0x20A JUMPI PUSH2 0x288 PUSH2 0x28F PUSH2 0x2A3 SWAP3 PUSH1 0x0 DUP1 MSTORE PUSH1 0x40 MLOAD SWAP3 DUP4 DUP1 SWAP3 PUSH32 0x290DECD9548B62A8D60345A988386FC84BA6BC95484008F6362F93160EF3E563 ADD PUSH2 0x2B0F JUMP JUMPDEST CALLVALUE PUSH2 0x20A JUMPI PUSH1 0x0 CALLDATASIZE PUSH1 0x3 NOT ADD SLT PUSH2 0x20A JUMPI PUSH1 0x20 PUSH1 0xC SLOAD PUSH1 0x40 MLOAD SWAP1 DUP2 MSTORE RETURN JUMPDEST CALLVALUE PUSH2 0x20A JUMPI PUSH1 0x20 CALLDATASIZE PUSH1 0x3 NOT ADD SLT PUSH2 0x20A JUMPI PUSH2 0x1609 PUSH2 0x29C7 JUMP JUMPDEST PUSH1 0x60 PUSH1 0x80 PUSH1 0x40 MLOAD PUSH2 0x1619 DUP2 PUSH2 0x2BF7 JUMP JUMPDEST PUSH2 0x1621 PUSH2 0x42B3 JUMP JUMPDEST DUP2 MSTORE DUP3 PUSH1 0x20 DUP3 ADD MSTORE DUP3 PUSH1 0x40 DUP3 ADD MSTORE PUSH1 0x0 DUP4 DUP3 ADD MSTORE ADD MSTORE PUSH1 0x1 DUP1 PUSH1 0xA0 SHL SUB AND PUSH1 0x0 MSTORE PUSH1 0x5 PUSH1 0x20 MSTORE PUSH2 0x2A3 PUSH2 0x1657 PUSH1 0x40 PUSH1 0x0 KECCAK256 PUSH2 0x3ED4 JUMP JUMPDEST PUSH1 0x40 MLOAD SWAP2 DUP3 SWAP2 PUSH1 0x20 DUP4 MSTORE PUSH1 0x20 DUP4 ADD SWAP1 PUSH2 0x2DE6 JUMP JUMPDEST CALLVALUE PUSH2 0x20A JUMPI PUSH1 0x20 CALLDATASIZE PUSH1 0x3 NOT ADD SLT PUSH2 0x20A JUMPI PUSH1 0x4 CALLDATALOAD PUSH1 0xA SLOAD DUP2 LT ISZERO PUSH2 0x20A JUMPI PUSH1 0xE PUSH2 0x9D7 SWAP2 PUSH1 0xA PUSH1 0x0 MSTORE MUL PUSH32 0xC65A7BB8D6351C1CF70C95A316CC6A92839C986682D98BC35F958F4883F9D2B5 PUSH2 0x9C0 DUP3 PUSH32 0xC65A7BB8D6351C1CF70C95A316CC6A92839C986682D98BC35F958F4883F9D2A8 ADD PUSH2 0x2F7D JUMP JUMPDEST CALLVALUE PUSH2 0x20A JUMPI PUSH1 0x20 CALLDATASIZE PUSH1 0x3 NOT ADD SLT PUSH2 0x20A JUMPI PUSH1 0x1 PUSH1 0x1 PUSH1 0xA0 SHL SUB DUP1 PUSH2 0x1703 PUSH2 0x29C7 JUMP JUMPDEST AND PUSH1 0x0 MSTORE PUSH1 0xE PUSH1 0x20 MSTORE PUSH1 0x40 PUSH1 0x0 KECCAK256 SWAP1 DUP2 SLOAD AND PUSH2 0x2A3 PUSH1 0x4 PUSH1 0x40 MLOAD SWAP4 PUSH2 0x172F DUP6 PUSH2 0x5F2 DUP2 PUSH1 0x1 DUP6 ADD PUSH2 0x2B0F JUMP JUMPDEST PUSH1 0x2 DUP2 ADD SLOAD PUSH2 0x156C PUSH1 0x40 MLOAD SWAP3 PUSH2 0x66A DUP5 PUSH2 0x663 DUP2 PUSH1 0x3 DUP6 ADD PUSH2 0x2B0F JUMP JUMPDEST CALLVALUE PUSH2 0x20A JUMPI PUSH1 0x20 CALLDATASIZE PUSH1 0x3 NOT ADD SLT PUSH2 0x20A JUMPI PUSH1 0x4 CALLDATALOAD PUSH1 0x1 PUSH1 0x1 PUSH1 0x40 SHL SUB DUP2 GT PUSH2 0x20A JUMPI PUSH1 0x20 PUSH2 0x1781 PUSH2 0x1794 SWAP3 CALLDATASIZE SWAP1 PUSH1 0x4 ADD PUSH2 0x2CA5 JUMP JUMPDEST DUP2 PUSH1 0x40 MLOAD SWAP4 DUP3 DUP6 DUP1 SWAP5 MLOAD SWAP4 DUP5 SWAP3 ADD PUSH2 0x29DD JUMP JUMPDEST DUP2 ADD PUSH1 0x11 DUP2 MSTORE SUB ADD SWAP1 KECCAK256 PUSH1 0x40 MLOAD PUSH2 0x17AF DUP2 PUSH2 0x288 DUP2 DUP6 PUSH2 0x2B0F JUMP JUMPDEST PUSH2 0x2A3 PUSH1 0x4 PUSH1 0x40 MLOAD SWAP4 PUSH2 0x17C9 DUP6 PUSH2 0x5F2 DUP2 PUSH1 0x1 DUP6 ADD PUSH2 0x2B0F JUMP JUMPDEST PUSH1 0x40 MLOAD PUSH2 0x17DD DUP2 PUSH2 0x288 DUP2 PUSH1 0x2 DUP7 ADD PUSH2 0x2B0F JUMP JUMPDEST PUSH2 0x681 PUSH1 0x40 MLOAD SWAP3 PUSH2 0x66A DUP5 PUSH2 0x663 DUP2 PUSH1 0x3 DUP6 ADD PUSH2 0x2B0F JUMP JUMPDEST CALLVALUE PUSH2 0x20A JUMPI PUSH1 0x0 CALLDATASIZE PUSH1 0x3 NOT ADD SLT PUSH2 0x20A JUMPI PUSH1 0xA SLOAD PUSH2 0x1812 DUP2 PUSH2 0x30DE JUMP JUMPDEST SWAP1 PUSH2 0x1820 PUSH1 0x40 MLOAD SWAP3 DUP4 PUSH2 0x2C2D JUMP JUMPDEST DUP1 DUP3 MSTORE PUSH1 0x20 SWAP1 DUP2 DUP4 ADD SWAP1 DUP2 PUSH1 0xA PUSH1 0x0 MSTORE PUSH32 0xC65A7BB8D6351C1CF70C95A316CC6A92839C986682D98BC35F958F4883F9D2A8 PUSH1 0x0 SWAP2 JUMPDEST DUP4 DUP4 LT PUSH2 0x18BC JUMPI POP POP POP POP PUSH1 0x40 MLOAD SWAP2 DUP1 DUP4 ADD SWAP4 DUP2 DUP5 MSTORE MLOAD DUP1 SWAP5 MSTORE PUSH1 0x40 DUP4 ADD SWAP4 PUSH1 0x40 DUP2 PUSH1 0x5 SHL DUP6 ADD ADD SWAP3 SWAP2 PUSH1 0x0 SWAP6 JUMPDEST DUP3 DUP8 LT PUSH2 0x1890 JUMPI DUP6 DUP6 SUB DUP7 RETURN JUMPDEST SWAP1 SWAP2 SWAP3 SWAP4 DUP3 DUP1 PUSH2 0x18AC PUSH1 0x1 SWAP4 PUSH1 0x3F NOT DUP11 DUP3 SUB ADD DUP7 MSTORE DUP9 MLOAD PUSH2 0x2EA0 JUMP JUMPDEST SWAP7 ADD SWAP3 ADD SWAP7 ADD SWAP6 SWAP3 SWAP2 SWAP1 SWAP3 PUSH2 0x1883 JUMP JUMPDEST PUSH1 0xE DUP7 PUSH1 0x1 SWAP3 PUSH2 0x18CE DUP6 SWAP11 SWAP10 SWAP11 PUSH2 0x44C7 JUMP JUMPDEST DUP2 MSTORE ADD SWAP3 ADD SWAP3 ADD SWAP2 SWAP1 SWAP6 SWAP5 SWAP6 PUSH2 0x1855 JUMP JUMPDEST CALLVALUE PUSH2 0x20A JUMPI PUSH1 0x0 CALLDATASIZE PUSH1 0x3 NOT ADD SLT PUSH2 0x20A JUMPI PUSH1 0x6 SLOAD PUSH2 0x18FC DUP2 PUSH2 0x30DE JUMP JUMPDEST SWAP1 PUSH2 0x190A PUSH1 0x40 MLOAD SWAP3 DUP4 PUSH2 0x2C2D JUMP JUMPDEST DUP1 DUP3 MSTORE PUSH1 0x20 SWAP1 DUP2 DUP4 ADD PUSH1 0x6 PUSH1 0x0 MSTORE PUSH32 0xF652222313E28459528D920B65115C16C04F3EFC82AAEDC97BE59F3F377C0D3F DUP4 PUSH1 0x0 SWAP3 JUMPDEST DUP5 DUP5 LT PUSH2 0x1958 JUMPI PUSH1 0x40 MLOAD DUP3 DUP2 MSTORE DUP1 PUSH2 0x2A3 DUP2 DUP6 ADD DUP11 PUSH2 0x2E44 JUMP JUMPDEST PUSH1 0x1 SWAP2 PUSH1 0x10 SWAP2 PUSH2 0x1967 DUP6 PUSH2 0x3ED4 JUMP JUMPDEST DUP2 MSTORE ADD SWAP3 ADD SWAP3 ADD SWAP2 SWAP1 DUP5 SWAP1 PUSH2 0x193E JUMP JUMPDEST PUSH2 0x1A0 CALLDATASIZE PUSH1 0x3 NOT ADD SLT PUSH2 0x20A JUMPI PUSH1 0x1 PUSH1 0x1 PUSH1 0x40 SHL SUB PUSH1 0x4 CALLDATALOAD DUP2 DUP2 GT PUSH2 0x20A JUMPI PUSH2 0x19A4 SWAP1 CALLDATASIZE SWAP1 PUSH1 0x4 ADD PUSH2 0x2CA5 JUMP JUMPDEST PUSH1 0x64 CALLDATALOAD DUP3 DUP2 GT PUSH2 0x20A JUMPI PUSH2 0x19BC SWAP1 CALLDATASIZE SWAP1 PUSH1 0x4 ADD PUSH2 0x2CA5 JUMP JUMPDEST PUSH1 0x84 CALLDATALOAD DUP4 DUP2 GT PUSH2 0x20A JUMPI PUSH2 0x19D4 SWAP1 CALLDATASIZE SWAP1 PUSH1 0x4 ADD PUSH2 0x2CA5 JUMP JUMPDEST SWAP3 PUSH1 0xA4 CALLDATALOAD DUP2 DUP2 GT PUSH2 0x20A JUMPI PUSH2 0x19ED SWAP1 CALLDATASIZE SWAP1 PUSH1 0x4 ADD PUSH2 0x2CA5 JUMP JUMPDEST SWAP1 PUSH1 0xC4 CALLDATALOAD DUP2 DUP2 GT PUSH2 0x20A JUMPI PUSH2 0x1A06 SWAP1 CALLDATASIZE SWAP1 PUSH1 0x4 ADD PUSH2 0x2CA5 JUMP JUMPDEST SWAP2 PUSH1 0xE4 CALLDATALOAD DUP3 DUP2 GT PUSH2 0x20A JUMPI PUSH2 0x1A1F SWAP1 CALLDATASIZE SWAP1 PUSH1 0x4 ADD PUSH2 0x2CA5 JUMP JUMPDEST SWAP3 PUSH2 0x104 CALLDATALOAD DUP4 DUP2 GT PUSH2 0x20A JUMPI PUSH2 0x1A39 SWAP1 CALLDATASIZE SWAP1 PUSH1 0x4 ADD PUSH2 0x2CA5 JUMP JUMPDEST PUSH2 0x124 CALLDATALOAD DUP5 DUP2 GT PUSH2 0x20A JUMPI PUSH2 0x1A52 SWAP1 CALLDATASIZE SWAP1 PUSH1 0x4 ADD PUSH2 0x2CA5 JUMP JUMPDEST SWAP2 PUSH2 0x144 CALLDATALOAD DUP6 DUP2 GT PUSH2 0x20A JUMPI PUSH2 0x1A6C SWAP1 CALLDATASIZE SWAP1 PUSH1 0x4 ADD PUSH2 0x2CA5 JUMP JUMPDEST SWAP4 PUSH2 0x164 CALLDATALOAD DUP7 DUP2 GT PUSH2 0x20A JUMPI PUSH2 0x1A86 SWAP1 CALLDATASIZE SWAP1 PUSH1 0x4 ADD PUSH2 0x2CA5 JUMP JUMPDEST SWAP6 PUSH2 0x184 CALLDATALOAD SWAP1 DUP2 GT PUSH2 0x20A JUMPI PUSH2 0x1AA0 SWAP1 CALLDATASIZE SWAP1 PUSH1 0x4 ADD PUSH2 0x2CA5 JUMP JUMPDEST SWAP10 CALLER PUSH1 0x0 MSTORE PUSH1 0x5 PUSH1 0x20 MSTORE PUSH1 0x24 CALLDATALOAD PUSH1 0x2 PUSH1 0x40 PUSH1 0x0 KECCAK256 ADD SLOAD EQ PUSH2 0x1CA7 JUMPI CALLER PUSH1 0x0 DUP2 DUP2 MSTORE PUSH1 0x5 PUSH1 0x20 MSTORE PUSH1 0x40 SWAP1 KECCAK256 SLOAD PUSH1 0x1 PUSH1 0x1 PUSH1 0xA0 SHL SUB AND EQ PUSH2 0x1C62 JUMPI PUSH2 0x1AE2 DUP12 PUSH2 0x3F41 JUMP JUMPDEST PUSH1 0x40 MLOAD SWAP11 PUSH2 0x1AEF DUP13 PUSH2 0x2BDB JUMP JUMPDEST CALLER DUP13 MSTORE DUP11 PUSH1 0x20 DUP14 ADD MSTORE PUSH1 0x24 CALLDATALOAD PUSH1 0x40 DUP14 ADD MSTORE PUSH1 0x44 CALLDATALOAD PUSH1 0x60 DUP14 ADD MSTORE PUSH1 0x80 DUP13 ADD MSTORE PUSH1 0xA0 DUP12 ADD MSTORE PUSH1 0xC0 DUP11 ADD MSTORE PUSH1 0xE0 DUP10 ADD MSTORE PUSH2 0x100 DUP9 ADD MSTORE PUSH2 0x120 DUP8 ADD MSTORE PUSH2 0x140 DUP7 ADD MSTORE PUSH2 0x160 DUP6 ADD MSTORE PUSH1 0x40 MLOAD SWAP4 PUSH2 0x1B41 DUP6 PUSH2 0x2BF7 JUMP JUMPDEST DUP5 MSTORE PUSH1 0x20 DUP5 ADD MSTORE PUSH1 0x40 DUP4 ADD MSTORE PUSH1 0x0 PUSH1 0x60 DUP4 ADD MSTORE PUSH1 0x60 PUSH1 0x80 DUP4 ADD MSTORE CALLER PUSH1 0x0 MSTORE PUSH1 0x5 PUSH1 0x20 MSTORE PUSH2 0x1B72 DUP3 PUSH1 0x40 PUSH1 0x0 KECCAK256 PUSH2 0x367B JUMP JUMPDEST PUSH1 0x7 SLOAD PUSH1 0x1 PUSH1 0x40 SHL SWAP2 DUP3 DUP3 LT ISZERO PUSH2 0x1450 JUMPI PUSH1 0x1 DUP3 ADD DUP1 PUSH1 0x7 SSTORE DUP3 LT ISZERO PUSH2 0x1C4C JUMPI PUSH2 0x1BC2 SWAP2 PUSH1 0x7 PUSH1 0x0 MSTORE PUSH32 0xA66CC928B5EDB82AF9BD49922954155AB7B0942694BEA4CE44661D9A8736C688 ADD PUSH2 0x347E JUMP JUMPDEST PUSH1 0x6 SLOAD SWAP1 DUP2 LT ISZERO PUSH2 0x1450 JUMPI DUP1 PUSH1 0x1 PUSH2 0x1BDD SWAP3 ADD PUSH1 0x6 SSTORE PUSH2 0x31FB JUMP JUMPDEST PUSH2 0x143A JUMPI DUP2 PUSH2 0x1BEB SWAP2 PUSH2 0x367B JUMP JUMPDEST PUSH1 0x8 SLOAD PUSH1 0x1 DUP2 ADD DUP1 SWAP2 GT PUSH2 0x1C36 JUMPI PUSH32 0xAA865F867ABAA68B8CBA3E6DF5B4CC018184C6E7FFF1D03843D27C69A973E3B0 SWAP2 PUSH2 0xC3D SWAP2 PUSH1 0x8 SSTORE PUSH1 0x40 MLOAD SWAP2 DUP3 SWAP2 PUSH1 0x20 DUP4 MSTORE PUSH1 0x20 DUP4 ADD SWAP1 PUSH2 0x2DE6 JUMP JUMPDEST PUSH4 0x4E487B71 PUSH1 0xE0 SHL PUSH1 0x0 MSTORE PUSH1 0x11 PUSH1 0x4 MSTORE PUSH1 0x24 PUSH1 0x0 REVERT JUMPDEST PUSH4 0x4E487B71 PUSH1 0xE0 SHL PUSH1 0x0 MSTORE PUSH1 0x32 PUSH1 0x4 MSTORE PUSH1 0x24 PUSH1 0x0 REVERT JUMPDEST PUSH1 0x40 MLOAD PUSH3 0x461BCD PUSH1 0xE5 SHL DUP2 MSTORE PUSH1 0x20 PUSH1 0x4 DUP3 ADD MSTORE PUSH1 0x1E PUSH1 0x24 DUP3 ADD MSTORE PUSH32 0x43616E64696461746520616C7265616479207265676973746572656420210000 PUSH1 0x44 DUP3 ADD MSTORE PUSH1 0x64 SWAP1 REVERT JUMPDEST PUSH1 0x40 MLOAD PUSH3 0x461BCD PUSH1 0xE5 SHL DUP2 MSTORE PUSH1 0x20 PUSH1 0x4 DUP3 ADD MSTORE PUSH1 0x39 PUSH1 0x24 DUP3 ADD MSTORE PUSH32 0x43616E646964617465207769746820676976656E20436974697A656E73686970 PUSH1 0x44 DUP3 ADD MSTORE PUSH32 0x204E6F2E20616C72656164792072656769737465726564202100000000000000 PUSH1 0x64 DUP3 ADD MSTORE PUSH1 0x84 SWAP1 REVERT JUMPDEST CALLVALUE PUSH2 0x20A JUMPI PUSH1 0x0 CALLDATASIZE PUSH1 0x3 NOT ADD SLT PUSH2 0x20A JUMPI PUSH1 0x14 SLOAD PUSH2 0x1D2F DUP2 PUSH2 0x30DE JUMP JUMPDEST SWAP1 PUSH2 0x1D3D PUSH1 0x40 MLOAD SWAP3 DUP4 PUSH2 0x2C2D JUMP JUMPDEST DUP1 DUP3 MSTORE PUSH1 0x20 DUP3 ADD SWAP1 DUP2 PUSH1 0x14 PUSH1 0x0 MSTORE PUSH32 0xCE6D7B5282BD9A3661AE061FEED1DBDA4E52AB073B1F9285BE6E155D9C38D4EC PUSH1 0x0 SWAP2 JUMPDEST DUP4 DUP4 LT PUSH2 0x1ED0 JUMPI DUP5 DUP7 PUSH1 0x40 MLOAD SWAP2 DUP3 SWAP2 PUSH1 0x20 DUP4 ADD SWAP1 PUSH1 0x20 DUP5 MSTORE MLOAD DUP1 SWAP2 MSTORE PUSH1 0x40 DUP4 ADD SWAP1 PUSH1 0x5 PUSH1 0x40 DUP3 DUP3 SHL DUP7 ADD ADD SWAP4 SWAP3 PUSH1 0x0 SWAP2 JUMPDEST DUP4 DUP4 LT PUSH2 0x1DAE JUMPI DUP7 DUP7 SUB DUP8 RETURN JUMPDEST SWAP2 SWAP4 SWAP6 POP SWAP2 SWAP4 PUSH1 0x3F NOT DUP8 DUP3 SUB ADD DUP4 MSTORE DUP6 MLOAD SWAP1 PUSH1 0x1 DUP1 PUSH1 0xA0 SHL SUB SWAP1 DUP2 DUP4 MLOAD AND DUP2 MSTORE PUSH2 0x1DFB PUSH2 0x1DE9 PUSH1 0x20 DUP6 ADD MLOAD PUSH1 0xC0 DUP1 PUSH1 0x20 DUP7 ADD MSTORE DUP5 ADD SWAP1 PUSH2 0x2A00 JUMP JUMPDEST PUSH1 0x40 DUP6 ADD MLOAD DUP4 DUP3 SUB PUSH1 0x40 DUP6 ADD MSTORE PUSH2 0x2A00 JUMP JUMPDEST SWAP1 PUSH2 0x1E28 PUSH2 0x1E15 PUSH1 0x60 SWAP4 DUP5 DUP8 ADD MLOAD DUP5 DUP3 SUB DUP7 DUP7 ADD MSTORE PUSH2 0x2A00 JUMP JUMPDEST PUSH1 0x80 DUP1 DUP8 ADD MLOAD SWAP1 DUP5 DUP4 SUB SWAP1 DUP6 ADD MSTORE PUSH2 0x2A00 JUMP JUMPDEST SWAP1 PUSH1 0xA0 DUP1 SWAP6 ADD MLOAD SWAP5 DUP2 DUP4 SUB SWAP2 ADD MSTORE DUP4 MLOAD SWAP1 DUP2 DUP2 MSTORE PUSH1 0x20 DUP2 ADD SWAP3 PUSH1 0x20 DUP1 DUP5 DUP10 SHL DUP5 ADD ADD SWAP7 ADD SWAP5 PUSH1 0x0 SWAP2 JUMPDEST DUP5 DUP4 LT PUSH2 0x1E77 JUMPI POP POP POP POP POP POP POP PUSH1 0x20 DUP1 PUSH1 0x1 SWAP3 SWAP8 ADD SWAP4 ADD SWAP4 ADD SWAP1 SWAP3 DUP7 SWAP6 SWAP5 SWAP3 SWAP4 PUSH2 0x1DA1 JUMP JUMPDEST SWAP1 SWAP2 SWAP3 SWAP4 SWAP5 SWAP6 SWAP7 PUSH1 0x20 DUP1 PUSH2 0x1EC1 PUSH1 0x1 SWAP4 PUSH1 0x1F NOT DUP10 DUP3 SUB ADD DUP12 MSTORE DUP12 MLOAD SWAP1 DUP8 DUP3 MLOAD AND DUP2 MSTORE PUSH1 0x40 PUSH2 0x1EB0 DUP6 DUP5 ADD MLOAD DUP10 DUP8 DUP6 ADD MSTORE DUP10 DUP5 ADD SWAP1 PUSH2 0x2A00 JUMP JUMPDEST SWAP3 ADD MLOAD SWAP1 PUSH1 0x40 DUP2 DUP5 SUB SWAP2 ADD MSTORE PUSH2 0x2A00 JUMP JUMPDEST SWAP10 ADD SWAP8 ADD SWAP6 SWAP5 SWAP4 ADD SWAP2 SWAP1 PUSH2 0x1E51 JUMP JUMPDEST PUSH1 0x40 MLOAD PUSH2 0x1EDC DUP2 PUSH2 0x2BA5 JUMP JUMPDEST DUP3 SLOAD PUSH1 0x1 PUSH1 0x1 PUSH1 0xA0 SHL SUB AND DUP2 MSTORE PUSH1 0x40 MLOAD PUSH2 0x1EFD DUP2 PUSH2 0x288 DUP2 PUSH1 0x1 DUP9 ADD PUSH2 0x2B0F JUMP JUMPDEST PUSH1 0x20 DUP3 ADD MSTORE PUSH1 0x40 MLOAD PUSH2 0x1F16 DUP2 PUSH2 0x288 DUP2 PUSH1 0x2 DUP9 ADD PUSH2 0x2B0F JUMP JUMPDEST PUSH1 0x40 DUP3 ADD MSTORE PUSH1 0x40 MLOAD PUSH2 0x1F2F DUP2 PUSH2 0x288 DUP2 PUSH1 0x3 DUP9 ADD PUSH2 0x2B0F JUMP JUMPDEST PUSH1 0x60 DUP3 ADD MSTORE PUSH1 0x40 MLOAD PUSH2 0x1F48 DUP2 PUSH2 0x288 DUP2 PUSH1 0x4 DUP9 ADD PUSH2 0x2B0F JUMP JUMPDEST PUSH1 0x80 DUP3 ADD MSTORE PUSH1 0x5 DUP4 ADD SLOAD PUSH2 0x1F5B DUP2 PUSH2 0x30DE JUMP JUMPDEST SWAP1 PUSH2 0x1F69 PUSH1 0x40 MLOAD SWAP3 DUP4 PUSH2 0x2C2D JUMP JUMPDEST DUP1 DUP3 MSTORE PUSH1 0x20 DUP3 ADD PUSH1 0x5 DUP7 ADD PUSH1 0x0 MSTORE PUSH1 0x20 PUSH1 0x0 KECCAK256 SWAP1 PUSH1 0x0 SWAP1 JUMPDEST DUP4 DUP3 LT PUSH2 0x1FA8 JUMPI POP POP POP POP PUSH1 0x1 SWAP3 DUP3 PUSH1 0x20 SWAP3 PUSH1 0xA0 PUSH1 0x6 SWAP6 ADD MSTORE DUP2 MSTORE ADD SWAP3 ADD SWAP3 ADD SWAP2 SWAP1 PUSH2 0x1D70 JUMP JUMPDEST PUSH1 0x3 PUSH1 0x20 PUSH1 0x1 SWAP3 PUSH1 0x40 MLOAD PUSH2 0x1FBB DUP2 PUSH2 0x2BC0 JUMP JUMPDEST DUP5 DUP1 PUSH1 0xA0 SHL SUB DUP8 SLOAD AND DUP2 MSTORE PUSH1 0x40 MLOAD PUSH2 0x1FD9 DUP2 PUSH2 0x288 DUP2 DUP10 DUP13 ADD PUSH2 0x2B0F JUMP JUMPDEST DUP4 DUP3 ADD MSTORE PUSH1 0x40 MLOAD PUSH2 0x1FF1 DUP2 PUSH2 0x288 DUP2 PUSH1 0x2 DUP13 ADD PUSH2 0x2B0F JUMP JUMPDEST PUSH1 0x40 DUP3 ADD MSTORE DUP2 MSTORE ADD SWAP4 ADD SWAP2 ADD SWAP1 SWAP2 PUSH2 0x1F81 JUMP JUMPDEST CALLVALUE PUSH2 0x20A JUMPI PUSH1 0x20 CALLDATASIZE PUSH1 0x3 NOT ADD SLT PUSH2 0x20A JUMPI PUSH1 0x20 PUSH2 0x201F PUSH2 0x29C7 JUMP JUMPDEST PUSH1 0x1 SLOAD PUSH1 0x40 MLOAD PUSH1 0x1 PUSH1 0x1 PUSH1 0xA0 SHL SUB SWAP3 DUP4 AND SWAP2 SWAP1 SWAP3 AND EQ DUP2 MSTORE RETURN JUMPDEST PUSH1 0x80 CALLDATASIZE PUSH1 0x3 NOT ADD SLT PUSH2 0x20A JUMPI PUSH1 0x1 PUSH1 0x1 PUSH1 0x40 SHL SUB PUSH1 0x4 CALLDATALOAD DUP2 DUP2 GT PUSH2 0x20A JUMPI PUSH2 0x2065 SWAP1 CALLDATASIZE SWAP1 PUSH1 0x4 ADD PUSH2 0x2CA5 JUMP JUMPDEST SWAP1 PUSH1 0x44 CALLDATALOAD DUP2 DUP2 GT PUSH2 0x20A JUMPI PUSH2 0x207E SWAP1 CALLDATASIZE SWAP1 PUSH1 0x4 ADD PUSH2 0x2CA5 JUMP JUMPDEST SWAP1 PUSH1 0x64 CALLDATALOAD SWAP1 DUP2 GT PUSH2 0x20A JUMPI PUSH2 0x2097 SWAP1 CALLDATASIZE SWAP1 PUSH1 0x4 ADD PUSH2 0x2CA5 JUMP JUMPDEST PUSH1 0x1 SLOAD SWAP1 SWAP3 SWAP1 PUSH1 0x1 PUSH1 0x1 PUSH1 0xA0 SHL SUB AND PUSH2 0x20B1 CALLER DUP3 EQ PUSH2 0x33C7 JUMP JUMPDEST PUSH1 0x40 MLOAD SWAP4 PUSH2 0x20BE DUP6 PUSH2 0x2BA5 JUMP JUMPDEST DUP2 DUP6 MSTORE DUP3 PUSH1 0x20 DUP7 ADD MSTORE PUSH1 0x24 SWAP4 DUP5 CALLDATALOAD PUSH1 0x40 DUP8 ADD MSTORE PUSH1 0x60 DUP7 ADD MSTORE PUSH1 0x80 DUP6 ADD MSTORE PUSH1 0x60 PUSH1 0xA0 DUP6 ADD MSTORE PUSH1 0x0 MSTORE PUSH1 0xE PUSH1 0x20 MSTORE PUSH2 0x20F8 DUP4 PUSH1 0x40 PUSH1 0x0 KECCAK256 PUSH2 0x3579 JUMP JUMPDEST PUSH1 0x10 SLOAD SWAP1 PUSH1 0x1 PUSH1 0x40 SHL SWAP2 DUP3 DUP2 LT ISZERO PUSH2 0xC6C JUMPI PUSH1 0x1 DUP2 ADD DUP1 PUSH1 0x10 SSTORE DUP2 LT ISZERO PUSH2 0x2222 JUMPI SWAP1 PUSH2 0x214A SWAP2 PUSH1 0x10 PUSH1 0x0 MSTORE PUSH32 0x1B6847DC741A1B0CD08D278845F9D819D87B734759AFB55FE2DE5CB82A9AE672 ADD PUSH2 0x347E JUMP JUMPDEST PUSH1 0xF SLOAD SWAP1 DUP2 LT ISZERO PUSH2 0x220D JUMPI PUSH1 0x1 DUP2 ADD DUP1 PUSH1 0xF SSTORE DUP2 LT ISZERO PUSH2 0x21F8 JUMPI DUP3 PUSH1 0x6 PUSH2 0x2198 SWAP3 PUSH1 0xF PUSH1 0x0 MSTORE MUL PUSH32 0x8D1108E10BCB7C27DDDFC02ED9D693A074039D026CF4EA4240B40F7D581AC802 ADD PUSH2 0x3579 JUMP JUMPDEST PUSH1 0x15 SLOAD SWAP1 PUSH1 0x1 DUP3 ADD DUP1 SWAP3 GT PUSH2 0x21E4 JUMPI PUSH32 0xA9842A716BC2513F613D9FAF736CA365FE3689A18EA2C3EF8BB9402C98A060C1 PUSH2 0xC3D DUP5 DUP5 PUSH1 0x15 SSTORE PUSH1 0x40 MLOAD SWAP2 DUP3 SWAP2 PUSH1 0x20 DUP4 MSTORE PUSH1 0x20 DUP4 ADD SWAP1 PUSH2 0x2A62 JUMP JUMPDEST PUSH4 0x4E487B71 PUSH1 0xE0 SHL PUSH1 0x0 SWAP1 DUP2 MSTORE PUSH1 0x11 PUSH1 0x4 MSTORE REVERT JUMPDEST POP PUSH4 0x4E487B71 PUSH1 0xE0 SHL PUSH1 0x0 SWAP1 DUP2 MSTORE PUSH1 0x32 PUSH1 0x4 MSTORE REVERT JUMPDEST POP PUSH4 0x4E487B71 PUSH1 0xE0 SHL PUSH1 0x0 SWAP1 DUP2 MSTORE PUSH1 0x41 PUSH1 0x4 MSTORE REVERT JUMPDEST DUP4 PUSH4 0x4E487B71 PUSH1 0xE0 SHL PUSH1 0x0 MSTORE PUSH1 0x32 PUSH1 0x4 MSTORE PUSH1 0x0 REVERT JUMPDEST PUSH1 0x40 CALLDATASIZE PUSH1 0x3 NOT ADD SLT PUSH2 0x20A JUMPI PUSH2 0x224B PUSH2 0x29C7 JUMP JUMPDEST PUSH1 0x24 CALLDATALOAD PUSH1 0x1 PUSH1 0x1 PUSH1 0x40 SHL SUB DUP2 GT PUSH2 0x20A JUMPI PUSH2 0x226A SWAP1 CALLDATASIZE SWAP1 PUSH1 0x4 ADD PUSH2 0x2CA5 JUMP JUMPDEST SWAP1 PUSH1 0x1 DUP1 PUSH1 0xA0 SHL SUB PUSH1 0x1 SLOAD AND CALLER EQ PUSH2 0x2836 JUMPI CALLER PUSH1 0x0 MSTORE PUSH1 0x9 PUSH1 0x20 MSTORE PUSH1 0x3 PUSH1 0xD PUSH1 0x40 PUSH1 0x0 KECCAK256 ADD SLOAD GT PUSH2 0x27E3 JUMPI PUSH1 0x0 JUMPDEST PUSH1 0x1 PUSH1 0x1 PUSH1 0xA0 SHL SUB DUP3 AND PUSH1 0x0 SWAP1 DUP2 MSTORE PUSH1 0x5 PUSH1 0x20 MSTORE PUSH1 0x40 SWAP1 KECCAK256 PUSH1 0xF SWAP1 DUP2 ADD SLOAD DUP3 LT ISZERO PUSH2 0x2338 JUMPI DUP2 PUSH2 0x22CD SWAP2 PUSH1 0x40 PUSH1 0x0 KECCAK256 ADD PUSH2 0x308B JUMP JUMPDEST SWAP1 SLOAD PUSH1 0x3 SWAP2 SWAP1 SWAP2 SHL SHR PUSH1 0x1 PUSH1 0x1 PUSH1 0xA0 SHL SUB AND CALLER EQ PUSH2 0x22F3 JUMPI PUSH2 0x22EE SWAP1 PUSH2 0x328C JUMP JUMPDEST PUSH2 0x2298 JUMP JUMPDEST PUSH1 0x40 MLOAD PUSH3 0x461BCD PUSH1 0xE5 SHL DUP2 MSTORE PUSH1 0x20 PUSH1 0x4 DUP3 ADD MSTORE PUSH1 0x18 PUSH1 0x24 DUP3 ADD MSTORE PUSH32 0x596F75206861766520616C726561647920766F74656420210000000000000000 PUSH1 0x44 DUP3 ADD MSTORE PUSH1 0x64 SWAP1 REVERT JUMPDEST POP POP PUSH1 0x0 DUP1 JUMPDEST PUSH1 0x1 PUSH1 0x1 PUSH1 0xA0 SHL SUB DUP4 AND PUSH1 0x0 SWAP1 DUP2 MSTORE PUSH1 0x5 PUSH1 0x20 MSTORE PUSH1 0x40 SWAP1 KECCAK256 PUSH1 0xF SWAP1 DUP2 ADD SLOAD DUP3 LT ISZERO PUSH2 0x23B3 JUMPI DUP2 PUSH2 0x2373 SWAP2 PUSH1 0x40 PUSH1 0x0 KECCAK256 ADD PUSH2 0x308B JUMP JUMPDEST SWAP1 SLOAD PUSH1 0x3 SWAP2 SWAP1 SWAP2 SHL SHR PUSH1 0x1 PUSH1 0x1 PUSH1 0xA0 SHL SUB SWAP1 DUP2 AND SWAP1 DUP5 AND EQ PUSH2 0x239E JUMPI JUMPDEST PUSH2 0x2399 SWAP1 PUSH2 0x328C JUMP JUMPDEST PUSH2 0x233E JUMP JUMPDEST SWAP1 PUSH2 0x23AB PUSH2 0x2399 SWAP2 PUSH2 0x328C JUMP JUMPDEST SWAP2 SWAP1 POP PUSH2 0x2390 JUMP JUMPDEST POP POP PUSH1 0x1 LT PUSH2 0x279E JUMPI PUSH1 0x1 DUP1 PUSH1 0xA0 SHL SUB DUP2 AND PUSH1 0x0 MSTORE PUSH1 0x5 PUSH1 0x20 MSTORE PUSH2 0x23DE CALLER PUSH1 0xF PUSH1 0x40 PUSH1 0x0 KECCAK256 ADD PUSH2 0x329B JUMP JUMPDEST CALLER PUSH1 0x0 MSTORE PUSH1 0x9 PUSH1 0x20 MSTORE PUSH2 0x23F8 DUP2 PUSH1 0xC PUSH1 0x40 PUSH1 0x0 KECCAK256 ADD PUSH2 0x329B JUMP JUMPDEST PUSH1 0x1 PUSH1 0x1 PUSH1 0xA0 SHL SUB DUP2 AND PUSH1 0x0 SWAP1 DUP2 MSTORE PUSH1 0x5 PUSH1 0x20 MSTORE PUSH1 0x40 SWAP1 KECCAK256 PUSH1 0xE ADD SLOAD PUSH2 0x241D SWAP1 PUSH2 0x4504 JUMP JUMPDEST PUSH1 0x1 PUSH1 0x1 PUSH1 0xA0 SHL SUB DUP3 AND PUSH1 0x0 SWAP1 DUP2 MSTORE PUSH1 0x5 PUSH1 0x20 MSTORE PUSH1 0x40 SWAP1 KECCAK256 PUSH1 0xE ADD SSTORE PUSH1 0xD SLOAD PUSH2 0x2445 SWAP1 PUSH2 0x4504 JUMP JUMPDEST PUSH1 0xD SSTORE PUSH1 0x0 JUMPDEST PUSH1 0x13 SLOAD DUP2 LT ISZERO PUSH2 0x254D JUMPI PUSH2 0x2463 PUSH1 0x2 PUSH2 0x37D DUP4 PUSH2 0x3251 JUMP JUMPDEST PUSH1 0x20 DUP2 MLOAD SWAP2 ADD KECCAK256 DUP4 MLOAD PUSH1 0x20 DUP6 ADD KECCAK256 EQ PUSH2 0x2485 JUMPI JUMPDEST PUSH2 0x2480 SWAP1 PUSH2 0x328C JUMP JUMPDEST PUSH2 0x244B JUMP JUMPDEST SWAP2 PUSH1 0x0 JUMPDEST PUSH1 0x5 PUSH2 0x2494 DUP6 PUSH2 0x3251 JUMP JUMPDEST POP ADD SLOAD DUP2 LT ISZERO PUSH2 0x2546 JUMPI DUP1 PUSH2 0x24B8 PUSH2 0x24D1 SWAP3 PUSH1 0x5 PUSH2 0x24B1 DUP9 PUSH2 0x3251 JUMP JUMPDEST POP ADD PUSH2 0x3235 JUMP JUMPDEST POP SLOAD PUSH1 0x1 PUSH1 0x1 PUSH1 0xA0 SHL SUB DUP6 DUP2 AND SWAP2 AND EQ PUSH2 0x24D6 JUMPI PUSH2 0x328C JUMP JUMPDEST PUSH2 0x2489 JUMP JUMPDEST PUSH2 0x24F3 PUSH2 0x24E8 DUP3 PUSH1 0x5 PUSH2 0x24B1 DUP10 PUSH2 0x3251 JUMP JUMPDEST POP PUSH1 0xF CALLER SWAP2 ADD PUSH2 0x329B JUMP JUMPDEST PUSH2 0x252D PUSH1 0xE PUSH2 0x2525 DUP4 PUSH1 0x5 PUSH1 0x40 MLOAD PUSH1 0x20 DUP2 DUP2 PUSH2 0x2515 DUP13 DUP4 DUP2 MLOAD SWAP4 DUP5 SWAP3 ADD PUSH2 0x29DD JUMP JUMPDEST DUP2 ADD PUSH1 0x11 DUP2 MSTORE SUB ADD SWAP1 KECCAK256 ADD PUSH2 0x3235 JUMP JUMPDEST POP ADD SLOAD PUSH2 0x4504 JUMP JUMPDEST PUSH1 0xE PUSH2 0x253E DUP4 PUSH1 0x5 PUSH2 0x24B1 DUP11 PUSH2 0x3251 JUMP JUMPDEST POP ADD SSTORE PUSH2 0x328C JUMP JUMPDEST POP SWAP2 PUSH2 0x2477 JUMP JUMPDEST POP PUSH1 0x0 JUMPDEST PUSH1 0x6 SLOAD DUP2 LT ISZERO PUSH2 0x2592 JUMPI DUP1 PUSH2 0x2568 PUSH2 0x2581 SWAP3 PUSH2 0x31FB JUMP JUMPDEST POP SLOAD PUSH1 0x1 PUSH1 0x1 PUSH1 0xA0 SHL SUB DUP5 DUP2 AND SWAP2 AND EQ PUSH2 0x2586 JUMPI PUSH2 0x328C JUMP JUMPDEST PUSH2 0x2551 JUMP JUMPDEST PUSH2 0x3EE PUSH2 0x24E8 DUP3 PUSH2 0x31FB JUMP JUMPDEST POP PUSH1 0x0 JUMPDEST PUSH1 0xA SLOAD DUP2 LT ISZERO PUSH2 0x25DE JUMPI DUP1 PUSH2 0x25AD PUSH2 0x25C3 SWAP3 PUSH2 0x2F42 JUMP JUMPDEST POP SLOAD PUSH1 0x1 PUSH1 0x1 PUSH1 0xA0 SHL SUB AND CALLER EQ PUSH2 0x25C8 JUMPI PUSH2 0x328C JUMP JUMPDEST PUSH2 0x2596 JUMP JUMPDEST PUSH2 0x3EE DUP4 PUSH1 0xC PUSH2 0x25D7 DUP5 PUSH2 0x2F42 JUMP JUMPDEST POP ADD PUSH2 0x329B JUMP JUMPDEST POP CALLER PUSH1 0x0 MSTORE PUSH1 0x9 PUSH1 0x20 MSTORE PUSH2 0x25F9 PUSH1 0xD PUSH1 0x40 PUSH1 0x0 KECCAK256 ADD SLOAD PUSH2 0x4504 JUMP JUMPDEST CALLER PUSH1 0x0 MSTORE PUSH1 0x9 PUSH1 0x20 MSTORE PUSH1 0xD PUSH1 0x40 PUSH1 0x0 KECCAK256 ADD SSTORE PUSH1 0x1 DUP1 PUSH1 0xA0 SHL SUB AND PUSH1 0x0 MSTORE PUSH1 0x5 PUSH1 0x20 MSTORE PUSH32 0x34ACF85A95A1DC89BFC38E95C6D8D0E8E5D4544C49E9103ED7882D205ED151F8 PUSH2 0xC3D PUSH1 0x40 PUSH1 0x0 KECCAK256 PUSH1 0x40 MLOAD SWAP2 DUP3 SWAP2 PUSH1 0x20 DUP4 MSTORE PUSH1 0xA0 PUSH1 0x20 DUP5 ADD MSTORE PUSH1 0x1 DUP1 PUSH1 0xA0 SHL SUB DUP2 SLOAD AND PUSH1 0xC0 DUP5 ADD MSTORE PUSH1 0xF PUSH2 0x2753 DUP5 PUSH2 0x273F PUSH2 0x272B PUSH2 0x2717 PUSH2 0x2703 PUSH2 0x26EF PUSH2 0x180 DUP1 PUSH1 0xE0 DUP9 ADD MSTORE PUSH2 0x26DC PUSH2 0x26C8 PUSH2 0x269A DUP13 PUSH1 0x1 PUSH2 0x240 DUP13 ADD SWAP2 ADD PUSH2 0x2B0F JUMP JUMPDEST PUSH1 0x2 DUP14 ADD SLOAD PUSH2 0x100 DUP12 ADD MSTORE PUSH1 0x3 DUP14 ADD SLOAD PUSH2 0x120 DUP12 ADD MSTORE PUSH1 0xBF NOT SWAP10 PUSH2 0x140 DUP12 DUP3 DUP5 SUB ADD SWAP2 ADD MSTORE PUSH1 0x4 DUP14 ADD PUSH2 0x2B0F JUMP JUMPDEST DUP14 DUP2 SUB DUP10 ADD PUSH2 0x160 DUP16 ADD MSTORE PUSH1 0x5 DUP13 ADD PUSH2 0x2B0F JUMP JUMPDEST SWAP1 DUP8 DUP14 DUP4 SUB ADD SWAP1 DUP14 ADD MSTORE PUSH1 0x6 DUP11 ADD PUSH2 0x2B0F JUMP JUMPDEST DUP6 DUP12 DUP3 SUB ADD PUSH2 0x1A0 DUP13 ADD MSTORE PUSH1 0x7 DUP10 ADD PUSH2 0x2B0F JUMP JUMPDEST DUP5 DUP11 DUP3 SUB ADD PUSH2 0x1C0 DUP12 ADD MSTORE PUSH1 0x8 DUP9 ADD PUSH2 0x2B0F JUMP JUMPDEST DUP4 DUP10 DUP3 SUB ADD PUSH2 0x1E0 DUP11 ADD MSTORE PUSH1 0x9 DUP8 ADD PUSH2 0x2B0F JUMP JUMPDEST DUP3 DUP9 DUP3 SUB ADD PUSH2 0x200 DUP10 ADD MSTORE PUSH1 0xA DUP7 ADD PUSH2 0x2B0F JUMP JUMPDEST SWAP1 DUP7 DUP3 SUB ADD PUSH2 0x220 DUP8 ADD MSTORE PUSH1 0xB DUP5 ADD PUSH2 0x2B0F JUMP JUMPDEST SWAP2 PUSH2 0x2784 PUSH2 0x2771 PUSH1 0x1F NOT SWAP5 DUP6 DUP9 DUP3 SUB ADD PUSH1 0x40 DUP10 ADD MSTORE PUSH1 0xC DUP5 ADD PUSH2 0x2B0F JUMP JUMPDEST DUP5 DUP8 DUP3 SUB ADD PUSH1 0x60 DUP9 ADD MSTORE PUSH1 0xD DUP4 ADD PUSH2 0x2B0F JUMP JUMPDEST SWAP3 PUSH1 0xE DUP3 ADD SLOAD PUSH1 0x80 DUP8 ADD MSTORE DUP6 DUP5 SUB ADD PUSH1 0xA0 DUP7 ADD MSTORE ADD PUSH2 0x3381 JUMP JUMPDEST PUSH1 0x40 MLOAD PUSH3 0x461BCD PUSH1 0xE5 SHL DUP2 MSTORE PUSH1 0x20 PUSH1 0x4 DUP3 ADD MSTORE PUSH1 0x1F PUSH1 0x24 DUP3 ADD MSTORE PUSH32 0x43616E646964617465206F6E6C7920766F7465206F6E652074696D6573202100 PUSH1 0x44 DUP3 ADD MSTORE PUSH1 0x64 SWAP1 REVERT JUMPDEST PUSH1 0x40 MLOAD PUSH3 0x461BCD PUSH1 0xE5 SHL DUP2 MSTORE PUSH1 0x20 PUSH1 0x4 DUP3 ADD MSTORE PUSH1 0x25 PUSH1 0x24 DUP3 ADD MSTORE PUSH32 0x596F752068617665206578636565642074686520766F7465206361737465206C PUSH1 0x44 DUP3 ADD MSTORE PUSH5 0x34B6B4BA17 PUSH1 0xD9 SHL PUSH1 0x64 DUP3 ADD MSTORE PUSH1 0x84 SWAP1 REVERT JUMPDEST PUSH1 0x64 PUSH1 0x40 MLOAD PUSH3 0x461BCD PUSH1 0xE5 SHL DUP2 MSTORE PUSH1 0x20 PUSH1 0x4 DUP3 ADD MSTORE PUSH1 0x20 PUSH1 0x24 DUP3 ADD MSTORE PUSH32 0x41646D696E20697320726573747269637420746F20636173746520766F74652E PUSH1 0x44 DUP3 ADD MSTORE REVERT JUMPDEST CALLVALUE PUSH2 0x20A JUMPI PUSH1 0x0 CALLDATASIZE PUSH1 0x3 NOT ADD SLT PUSH2 0x20A JUMPI PUSH1 0x20 PUSH1 0x8 SLOAD PUSH1 0x40 MLOAD SWAP1 DUP2 MSTORE RETURN JUMPDEST CALLVALUE PUSH2 0x20A JUMPI PUSH1 0x0 CALLDATASIZE PUSH1 0x3 NOT ADD SLT PUSH2 0x20A JUMPI PUSH1 0x20 PUSH1 0x4 SLOAD PUSH1 0x40 MLOAD SWAP1 DUP2 MSTORE RETURN JUMPDEST CALLVALUE PUSH2 0x20A JUMPI PUSH1 0x0 CALLDATASIZE PUSH1 0x3 NOT ADD SLT PUSH2 0x20A JUMPI PUSH1 0x20 PUSH1 0x2 SLOAD PUSH1 0x40 MLOAD SWAP1 DUP2 MSTORE RETURN JUMPDEST CALLVALUE PUSH2 0x20A JUMPI PUSH1 0x20 CALLDATASIZE PUSH1 0x3 NOT ADD SLT PUSH2 0x20A JUMPI PUSH1 0x1 PUSH1 0x1 PUSH1 0xA0 SHL SUB DUP1 PUSH2 0x28F6 PUSH2 0x29C7 JUMP JUMPDEST AND PUSH1 0x0 MSTORE PUSH1 0x12 PUSH1 0x20 MSTORE PUSH1 0x40 PUSH1 0x0 KECCAK256 SWAP1 DUP2 SLOAD AND PUSH2 0x2A3 PUSH1 0x4 PUSH1 0x40 MLOAD SWAP4 PUSH2 0x2922 DUP6 PUSH2 0x5F2 DUP2 PUSH1 0x1 DUP6 ADD PUSH2 0x2B0F JUMP JUMPDEST PUSH1 0x40 MLOAD PUSH2 0x2936 DUP2 PUSH2 0x288 DUP2 PUSH1 0x2 DUP7 ADD PUSH2 0x2B0F JUMP JUMPDEST PUSH2 0xE05 PUSH1 0x40 MLOAD SWAP3 PUSH2 0x66A DUP5 PUSH2 0x663 DUP2 PUSH1 0x3 DUP6 ADD PUSH2 0x2B0F JUMP JUMPDEST CALLVALUE PUSH2 0x20A JUMPI PUSH1 0x20 CALLDATASIZE PUSH1 0x3 NOT ADD SLT PUSH2 0x20A JUMPI PUSH1 0x60 PUSH1 0xA0 PUSH2 0x296B PUSH2 0x29C7 JUMP JUMPDEST SWAP3 PUSH2 0x2975 DUP2 PUSH2 0x2BA5 JUMP JUMPDEST PUSH1 0x0 DUP2 MSTORE DUP3 PUSH1 0x20 DUP3 ADD MSTORE PUSH1 0x0 PUSH1 0x40 DUP3 ADD MSTORE DUP3 DUP1 DUP3 ADD MSTORE DUP3 PUSH1 0x80 DUP3 ADD MSTORE ADD MSTORE PUSH1 0x1 DUP1 PUSH1 0xA0 SHL SUB AND PUSH1 0x0 MSTORE PUSH1 0xE PUSH1 0x20 MSTORE PUSH2 0x2A3 PUSH2 0x29B3 PUSH1 0x40 PUSH1 0x0 KECCAK256 PUSH2 0x430F JUMP JUMPDEST PUSH1 0x40 MLOAD SWAP2 DUP3 SWAP2 PUSH1 0x20 DUP4 MSTORE PUSH1 0x20 DUP4 ADD SWAP1 PUSH2 0x2A62 JUMP JUMPDEST PUSH1 0x4 CALLDATALOAD SWAP1 PUSH1 0x1 PUSH1 0x1 PUSH1 0xA0 SHL SUB DUP3 AND DUP3 SUB PUSH2 0x20A JUMPI JUMP JUMPDEST PUSH1 0x0 JUMPDEST DUP4 DUP2 LT PUSH2 0x29F0 JUMPI POP POP PUSH1 0x0 SWAP2 ADD MSTORE JUMP JUMPDEST DUP2 DUP2 ADD MLOAD DUP4 DUP3 ADD MSTORE PUSH1 0x20 ADD PUSH2 0x29E0 JUMP JUMPDEST SWAP1 PUSH1 0x20 SWAP2 PUSH2 0x2A19 DUP2 MLOAD DUP1 SWAP3 DUP2 DUP6 MSTORE DUP6 DUP1 DUP7 ADD SWAP2 ADD PUSH2 0x29DD JUMP JUMPDEST PUSH1 0x1F ADD PUSH1 0x1F NOT AND ADD ADD SWAP1 JUMP JUMPDEST SWAP1 DUP2 MLOAD DUP1 DUP3 MSTORE PUSH1 0x20 DUP1 DUP1 SWAP4 ADD SWAP4 ADD SWAP2 PUSH1 0x0 JUMPDEST DUP3 DUP2 LT PUSH2 0x2A45 JUMPI POP POP POP POP SWAP1 JUMP JUMPDEST DUP4 MLOAD PUSH1 0x1 PUSH1 0x1 PUSH1 0xA0 SHL SUB AND DUP6 MSTORE SWAP4 DUP2 ADD SWAP4 SWAP3 DUP2 ADD SWAP3 PUSH1 0x1 ADD PUSH2 0x2A37 JUMP JUMPDEST PUSH2 0x2AD2 SWAP2 PUSH1 0x1 DUP1 PUSH1 0xA0 SHL SUB DUP3 MLOAD AND DUP2 MSTORE PUSH1 0xA0 PUSH2 0x2AC1 PUSH2 0x2AAF PUSH2 0x2A93 PUSH1 0x20 DUP7 ADD MLOAD PUSH1 0xC0 PUSH1 0x20 DUP8 ADD MSTORE PUSH1 0xC0 DUP7 ADD SWAP1 PUSH2 0x2A00 JUMP JUMPDEST PUSH1 0x40 DUP7 ADD MLOAD PUSH1 0x40 DUP7 ADD MSTORE PUSH1 0x60 DUP7 ADD MLOAD DUP6 DUP3 SUB PUSH1 0x60 DUP8 ADD MSTORE PUSH2 0x2A00 JUMP JUMPDEST PUSH1 0x80 DUP6 ADD MLOAD DUP5 DUP3 SUB PUSH1 0x80 DUP7 ADD MSTORE PUSH2 0x2A00 JUMP JUMPDEST SWAP3 ADD MLOAD SWAP1 PUSH1 0xA0 DUP2 DUP5 SUB SWAP2 ADD MSTORE PUSH2 0x2A25 JUMP JUMPDEST SWAP1 JUMP JUMPDEST SWAP1 PUSH1 0x1 DUP3 DUP2 SHR SWAP3 AND DUP1 ISZERO PUSH2 0x2B05 JUMPI JUMPDEST PUSH1 0x20 DUP4 LT EQ PUSH2 0x2AEF JUMPI JUMP JUMPDEST PUSH4 0x4E487B71 PUSH1 0xE0 SHL PUSH1 0x0 MSTORE PUSH1 0x22 PUSH1 0x4 MSTORE PUSH1 0x24 PUSH1 0x0 REVERT JUMPDEST SWAP2 PUSH1 0x7F AND SWAP2 PUSH2 0x2AE4 JUMP JUMPDEST SWAP1 PUSH1 0x0 SWAP3 SWAP2 DUP1 SLOAD SWAP2 PUSH2 0x2B20 DUP4 PUSH2 0x2AD5 JUMP JUMPDEST SWAP2 DUP3 DUP3 MSTORE PUSH1 0x1 SWAP4 DUP5 DUP2 AND SWAP1 DUP2 PUSH1 0x0 EQ PUSH2 0x2B82 JUMPI POP PUSH1 0x1 EQ PUSH2 0x2B42 JUMPI JUMPDEST POP POP POP POP JUMP JUMPDEST SWAP1 SWAP2 SWAP4 SWAP5 POP PUSH1 0x0 MSTORE PUSH1 0x20 SWAP3 DUP4 PUSH1 0x0 KECCAK256 SWAP3 DUP5 PUSH1 0x0 SWAP5 JUMPDEST DUP4 DUP7 LT PUSH2 0x2B6E JUMPI POP POP POP POP ADD ADD SWAP1 CODESIZE DUP1 DUP1 DUP1 PUSH2 0x2B3C JUMP JUMPDEST DUP1 SLOAD DUP6 DUP8 ADD DUP4 ADD MSTORE SWAP5 ADD SWAP4 DUP6 SWAP1 DUP3 ADD PUSH2 0x2B57 JUMP JUMPDEST SWAP3 SWAP5 POP POP POP PUSH1 0x20 SWAP4 SWAP5 POP PUSH1 0xFF NOT AND DUP4 DUP4 ADD MSTORE ISZERO ISZERO PUSH1 0x5 SHL ADD ADD SWAP1 CODESIZE DUP1 DUP1 DUP1 PUSH2 0x2B3C JUMP JUMPDEST PUSH1 0xC0 DUP2 ADD SWAP1 DUP2 LT PUSH1 0x1 PUSH1 0x1 PUSH1 0x40 SHL SUB DUP3 GT OR PUSH2 0x1450 JUMPI PUSH1 0x40 MSTORE JUMP JUMPDEST PUSH1 0x60 DUP2 ADD SWAP1 DUP2 LT PUSH1 0x1 PUSH1 0x1 PUSH1 0x40 SHL SUB DUP3 GT OR PUSH2 0x1450 JUMPI PUSH1 0x40 MSTORE JUMP JUMPDEST PUSH2 0x180 DUP2 ADD SWAP1 DUP2 LT PUSH1 0x1 PUSH1 0x1 PUSH1 0x40 SHL SUB DUP3 GT OR PUSH2 0x1450 JUMPI PUSH1 0x40 MSTORE JUMP JUMPDEST PUSH1 0xA0 DUP2 ADD SWAP1 DUP2 LT PUSH1 0x1 PUSH1 0x1 PUSH1 0x40 SHL SUB DUP3 GT OR PUSH2 0x1450 JUMPI PUSH1 0x40 MSTORE JUMP JUMPDEST PUSH1 0xE0 DUP2 ADD SWAP1 DUP2 LT PUSH1 0x1 PUSH1 0x1 PUSH1 0x40 SHL SUB DUP3 GT OR PUSH2 0x1450 JUMPI PUSH1 0x40 MSTORE JUMP JUMPDEST SWAP1 PUSH1 0x1F DUP1 NOT SWAP2 ADD AND DUP2 ADD SWAP1 DUP2 LT PUSH1 0x1 PUSH1 0x1 PUSH1 0x40 SHL SUB DUP3 GT OR PUSH2 0x1450 JUMPI PUSH1 0x40 MSTORE JUMP JUMPDEST SWAP4 SWAP1 PUSH2 0x2AD2 SWAP6 SWAP4 PUSH2 0x2C7B PUSH2 0x2C97 SWAP5 PUSH2 0x2C89 SWAP4 PUSH1 0x1 DUP1 PUSH1 0xA0 SHL SUB AND DUP9 MSTORE PUSH1 0xA0 PUSH1 0x20 DUP10 ADD MSTORE PUSH1 0xA0 DUP9 ADD SWAP1 PUSH2 0x2A00 JUMP JUMPDEST SWAP1 DUP7 DUP3 SUB PUSH1 0x40 DUP9 ADD MSTORE PUSH2 0x2A00 JUMP JUMPDEST SWAP1 DUP5 DUP3 SUB PUSH1 0x60 DUP7 ADD MSTORE PUSH2 0x2A00 JUMP JUMPDEST SWAP2 PUSH1 0x80 DUP2 DUP5 SUB SWAP2 ADD MSTORE PUSH2 0x2A00 JUMP JUMPDEST DUP2 PUSH1 0x1F DUP3 ADD SLT ISZERO PUSH2 0x20A JUMPI DUP1 CALLDATALOAD SWAP1 PUSH1 0x1 PUSH1 0x1 PUSH1 0x40 SHL SUB DUP3 GT PUSH2 0x1450 JUMPI PUSH1 0x40 MLOAD SWAP3 PUSH2 0x2CD9 PUSH1 0x1F DUP5 ADD PUSH1 0x1F NOT AND PUSH1 0x20 ADD DUP6 PUSH2 0x2C2D JUMP JUMPDEST DUP3 DUP5 MSTORE PUSH1 0x20 DUP4 DUP4 ADD ADD GT PUSH2 0x20A JUMPI DUP2 PUSH1 0x0 SWAP3 PUSH1 0x20 DUP1 SWAP4 ADD DUP4 DUP7 ADD CALLDATACOPY DUP4 ADD ADD MSTORE SWAP1 JUMP JUMPDEST SWAP1 PUSH2 0x2AD2 SWAP2 PUSH1 0x1 DUP1 PUSH1 0xA0 SHL SUB DUP2 MLOAD AND DUP3 MSTORE PUSH2 0x2DD2 PUSH2 0x2DBE PUSH2 0x2DAA PUSH2 0x2D96 PUSH2 0x2D84 PUSH2 0x2D72 PUSH2 0x2D60 PUSH2 0x2D3A PUSH1 0x20 DUP10 ADD MLOAD PUSH2 0x180 DUP1 PUSH1 0x20 DUP14 ADD MSTORE DUP12 ADD SWAP1 PUSH2 0x2A00 JUMP JUMPDEST PUSH1 0x40 DUP10 ADD MLOAD PUSH1 0x40 DUP12 ADD MSTORE PUSH1 0x60 DUP10 ADD MLOAD PUSH1 0x60 DUP12 ADD MSTORE PUSH1 0x80 DUP10 ADD MLOAD DUP11 DUP3 SUB PUSH1 0x80 DUP13 ADD MSTORE PUSH2 0x2A00 JUMP JUMPDEST PUSH1 0xA0 DUP9 ADD MLOAD DUP10 DUP3 SUB PUSH1 0xA0 DUP12 ADD MSTORE PUSH2 0x2A00 JUMP JUMPDEST PUSH1 0xC0 DUP8 ADD MLOAD DUP9 DUP3 SUB PUSH1 0xC0 DUP11 ADD MSTORE PUSH2 0x2A00 JUMP JUMPDEST PUSH1 0xE0 DUP7 ADD MLOAD DUP8 DUP3 SUB PUSH1 0xE0 DUP10 ADD MSTORE PUSH2 0x2A00 JUMP JUMPDEST PUSH2 0x100 DUP1 DUP7 ADD MLOAD SWAP1 DUP8 DUP4 SUB SWAP1 DUP9 ADD MSTORE PUSH2 0x2A00 JUMP JUMPDEST PUSH2 0x120 DUP1 DUP6 ADD MLOAD SWAP1 DUP7 DUP4 SUB SWAP1 DUP8 ADD MSTORE PUSH2 0x2A00 JUMP JUMPDEST PUSH2 0x140 DUP1 DUP5 ADD MLOAD SWAP1 DUP6 DUP4 SUB SWAP1 DUP7 ADD MSTORE PUSH2 0x2A00 JUMP JUMPDEST SWAP2 PUSH2 0x160 DUP1 SWAP3 ADD MLOAD SWAP2 DUP2 DUP5 SUB SWAP2 ADD MSTORE PUSH2 0x2A00 JUMP JUMPDEST PUSH2 0x2AD2 SWAP2 PUSH1 0x80 PUSH2 0x2E29 PUSH2 0x2E17 PUSH2 0x2E05 DUP6 MLOAD PUSH1 0xA0 DUP7 MSTORE PUSH1 0xA0 DUP7 ADD SWAP1 PUSH2 0x2CFB JUMP JUMPDEST PUSH1 0x20 DUP7 ADD MLOAD DUP6 DUP3 SUB PUSH1 0x20 DUP8 ADD MSTORE PUSH2 0x2A00 JUMP JUMPDEST PUSH1 0x40 DUP6 ADD MLOAD DUP5 DUP3 SUB PUSH1 0x40 DUP7 ADD MSTORE PUSH2 0x2A00 JUMP JUMPDEST SWAP3 PUSH1 0x60 DUP2 ADD MLOAD PUSH1 0x60 DUP5 ADD MSTORE ADD MLOAD SWAP1 PUSH1 0x80 DUP2 DUP5 SUB SWAP2 ADD MSTORE PUSH2 0x2A25 JUMP JUMPDEST SWAP1 DUP1 DUP3 MLOAD SWAP1 DUP2 DUP2 MSTORE PUSH1 0x20 DUP1 SWAP2 ADD SWAP3 DUP2 DUP1 DUP5 PUSH1 0x5 SHL DUP4 ADD ADD SWAP6 ADD SWAP4 PUSH1 0x0 SWAP2 JUMPDEST DUP5 DUP4 LT PUSH2 0x2E72 JUMPI POP POP POP POP POP POP SWAP1 JUMP JUMPDEST SWAP1 SWAP2 SWAP3 SWAP4 SWAP5 SWAP6 DUP5 DUP1 PUSH2 0x2E90 PUSH1 0x1 SWAP4 PUSH1 0x1F NOT DUP7 DUP3 SUB ADD DUP8 MSTORE DUP11 MLOAD PUSH2 0x2DE6 JUMP JUMPDEST SWAP9 ADD SWAP4 ADD SWAP4 ADD SWAP2 SWAP5 SWAP4 SWAP3 SWAP1 PUSH2 0x2E62 JUMP JUMPDEST SWAP1 PUSH1 0x40 DUP1 PUSH2 0x2ECC PUSH2 0x2EBA DUP6 MLOAD PUSH1 0x60 DUP7 MSTORE PUSH1 0x60 DUP7 ADD SWAP1 PUSH2 0x2CFB JUMP JUMPDEST PUSH1 0x20 DUP7 ADD MLOAD DUP6 DUP3 SUB PUSH1 0x20 DUP8 ADD MSTORE PUSH2 0x2A25 JUMP JUMPDEST SWAP4 ADD MLOAD SWAP2 ADD MSTORE SWAP1 JUMP JUMPDEST SWAP4 SWAP1 PUSH2 0x2AD2 SWAP6 SWAP4 PUSH2 0x2C7B PUSH2 0x2C97 SWAP5 PUSH2 0x2EF8 PUSH2 0x2C89 SWAP5 PUSH1 0xA0 DUP11 MSTORE PUSH1 0xA0 DUP11 ADD SWAP1 PUSH2 0x2A00 JUMP JUMPDEST SWAP1 DUP9 DUP3 SUB PUSH1 0x20 DUP11 ADD MSTORE PUSH2 0x2A00 JUMP JUMPDEST SWAP4 PUSH2 0x2F2F PUSH2 0x2C97 SWAP4 PUSH2 0x2AD2 SWAP8 SWAP6 SWAP4 PUSH1 0x1 DUP1 PUSH1 0xA0 SHL SUB AND DUP8 MSTORE PUSH1 0xA0 PUSH1 0x20 DUP9 ADD MSTORE PUSH1 0xA0 DUP8 ADD SWAP1 PUSH2 0x2A00 JUMP JUMPDEST SWAP2 PUSH1 0x40 DUP7 ADD MSTORE DUP5 DUP3 SUB PUSH1 0x60 DUP7 ADD MSTORE PUSH2 0x2A00 JUMP JUMPDEST PUSH1 0xA SLOAD DUP2 LT ISZERO PUSH2 0x1C4C JUMPI PUSH1 0xE SWAP1 PUSH1 0xA PUSH1 0x0 MSTORE MUL PUSH32 0xC65A7BB8D6351C1CF70C95A316CC6A92839C986682D98BC35F958F4883F9D2A8 ADD SWAP1 PUSH1 0x0 SWAP1 JUMP JUMPDEST SWAP1 PUSH1 0xB PUSH2 0x160 PUSH1 0x40 SWAP4 PUSH2 0x3087 DUP6 MLOAD SWAP2 PUSH2 0x2F95 DUP4 PUSH2 0x2BDB JUMP JUMPDEST PUSH2 0x67A DUP4 SWAP8 PUSH1 0x1 DUP1 PUSH1 0xA0 SHL SUB DUP4 SLOAD AND DUP6 MSTORE DUP1 MLOAD PUSH2 0x2FB9 DUP2 PUSH2 0x288 DUP2 PUSH1 0x1 DUP9 ADD PUSH2 0x2B0F JUMP JUMPDEST PUSH1 0x20 DUP7 ADD MSTORE PUSH1 0x2 DUP4 ADD SLOAD DUP2 DUP7 ADD MSTORE PUSH1 0x3 DUP4 ADD SLOAD PUSH1 0x60 DUP7 ADD MSTORE DUP1 MLOAD PUSH2 0x2FE4 DUP2 PUSH2 0x288 DUP2 PUSH1 0x4 DUP9 ADD PUSH2 0x2B0F JUMP JUMPDEST PUSH1 0x80 DUP7 ADD MSTORE DUP1 MLOAD PUSH2 0x2FFC DUP2 PUSH2 0x288 DUP2 PUSH1 0x5 DUP9 ADD PUSH2 0x2B0F JUMP JUMPDEST PUSH1 0xA0 DUP7 ADD MSTORE DUP1 MLOAD PUSH2 0x3014 DUP2 PUSH2 0x288 DUP2 PUSH1 0x6 DUP9 ADD PUSH2 0x2B0F JUMP JUMPDEST PUSH1 0xC0 DUP7 ADD MSTORE DUP1 MLOAD PUSH2 0x302C DUP2 PUSH2 0x288 DUP2 PUSH1 0x7 DUP9 ADD PUSH2 0x2B0F JUMP JUMPDEST PUSH1 0xE0 DUP7 ADD MSTORE DUP1 MLOAD PUSH2 0x3044 DUP2 PUSH2 0x288 DUP2 PUSH1 0x8 DUP9 ADD PUSH2 0x2B0F JUMP JUMPDEST PUSH2 0x100 DUP7 ADD MSTORE DUP1 MLOAD PUSH2 0x305D DUP2 PUSH2 0x288 DUP2 PUSH1 0x9 DUP9 ADD PUSH2 0x2B0F JUMP JUMPDEST PUSH2 0x120 DUP7 ADD MSTORE DUP1 MLOAD PUSH2 0x3076 DUP2 PUSH2 0x288 DUP2 PUSH1 0xA DUP9 ADD PUSH2 0x2B0F JUMP JUMPDEST PUSH2 0x140 DUP7 ADD MSTORE MLOAD DUP1 SWAP7 DUP2 SWAP4 ADD PUSH2 0x2B0F JUMP JUMPDEST ADD MSTORE JUMP JUMPDEST DUP1 SLOAD DUP3 LT ISZERO PUSH2 0x1C4C JUMPI PUSH1 0x0 MSTORE PUSH1 0x20 PUSH1 0x0 KECCAK256 ADD SWAP1 PUSH1 0x0 SWAP1 JUMP JUMPDEST PUSH1 0x14 SLOAD DUP2 LT ISZERO PUSH2 0x1C4C JUMPI PUSH1 0x6 SWAP1 PUSH1 0x14 PUSH1 0x0 MSTORE MUL PUSH32 0xCE6D7B5282BD9A3661AE061FEED1DBDA4E52AB073B1F9285BE6E155D9C38D4EC ADD SWAP1 PUSH1 0x0 SWAP1 JUMP JUMPDEST PUSH1 0x1 PUSH1 0x1 PUSH1 0x40 SHL SUB DUP2 GT PUSH2 0x1450 JUMPI PUSH1 0x5 SHL PUSH1 0x20 ADD SWAP1 JUMP JUMPDEST PUSH2 0x3108 DUP2 MLOAD PUSH1 0xE0 DUP5 MSTORE PUSH1 0xE0 DUP5 ADD SWAP1 PUSH2 0x2A00 JUMP JUMPDEST PUSH1 0xC0 PUSH2 0x3174 PUSH2 0x3162 PUSH2 0x3150 PUSH2 0x313E PUSH2 0x312C PUSH1 0x20 SWAP7 DUP8 DUP10 ADD MLOAD DUP11 DUP3 SUB DUP10 DUP13 ADD MSTORE PUSH2 0x2A00 JUMP JUMPDEST PUSH1 0x40 DUP9 ADD MLOAD DUP10 DUP3 SUB PUSH1 0x40 DUP12 ADD MSTORE PUSH2 0x2A00 JUMP JUMPDEST PUSH1 0x60 DUP8 ADD MLOAD DUP9 DUP3 SUB PUSH1 0x60 DUP11 ADD MSTORE PUSH2 0x2A00 JUMP JUMPDEST PUSH1 0x80 DUP7 ADD MLOAD DUP8 DUP3 SUB PUSH1 0x80 DUP10 ADD MSTORE PUSH2 0x2A00 JUMP JUMPDEST PUSH1 0xA0 DUP6 ADD MLOAD DUP7 DUP3 SUB PUSH1 0xA0 DUP9 ADD MSTORE PUSH2 0x2E44 JUMP JUMPDEST SWAP3 ADD MLOAD SWAP3 PUSH1 0xC0 DUP2 DUP5 SUB SWAP2 ADD MSTORE DUP3 MLOAD SWAP1 DUP2 DUP4 MSTORE DUP1 DUP4 ADD SWAP3 DUP2 DUP1 DUP5 PUSH1 0x5 SHL DUP4 ADD ADD SWAP6 ADD SWAP4 PUSH1 0x0 SWAP2 JUMPDEST DUP5 DUP4 LT PUSH2 0x31AA JUMPI POP POP POP POP POP POP SWAP1 JUMP JUMPDEST SWAP1 SWAP2 SWAP3 SWAP4 SWAP5 SWAP6 DUP5 DUP1 PUSH2 0x31C8 PUSH1 0x1 SWAP4 PUSH1 0x1F NOT DUP7 DUP3 SUB ADD DUP8 MSTORE DUP11 MLOAD PUSH2 0x2A00 JUMP JUMPDEST SWAP9 ADD SWAP4 ADD SWAP4 ADD SWAP2 SWAP5 SWAP4 SWAP3 SWAP1 PUSH2 0x319A JUMP JUMPDEST SWAP5 SWAP4 SWAP3 PUSH2 0x2C7B PUSH1 0x60 SWAP4 PUSH2 0x2EF8 PUSH2 0x31F6 SWAP5 PUSH1 0x80 DUP11 MSTORE PUSH1 0x80 DUP11 ADD SWAP1 PUSH2 0x2CFB JUMP JUMPDEST SWAP4 ADD MSTORE JUMP JUMPDEST PUSH1 0x6 SLOAD DUP2 LT ISZERO PUSH2 0x1C4C JUMPI PUSH1 0x6 PUSH1 0x0 MSTORE PUSH1 0x4 SHL PUSH32 0xF652222313E28459528D920B65115C16C04F3EFC82AAEDC97BE59F3F377C0D3F ADD SWAP1 PUSH1 0x0 SWAP1 JUMP JUMPDEST DUP1 SLOAD DUP3 LT ISZERO PUSH2 0x1C4C JUMPI PUSH1 0x0 MSTORE PUSH1 0x20 PUSH1 0x0 KECCAK256 SWAP1 PUSH1 0x4 SHL ADD SWAP1 PUSH1 0x0 SWAP1 JUMP JUMPDEST PUSH1 0x13 SLOAD DUP2 LT ISZERO PUSH2 0x1C4C JUMPI PUSH1 0x7 SWAP1 PUSH1 0x13 PUSH1 0x0 MSTORE MUL PUSH32 0x66DE8FFDA797E3DE9C05E8FC57B3BF0EC28A930D40B0D285D93C06501CF6A090 ADD SWAP1 PUSH1 0x0 SWAP1 JUMP JUMPDEST PUSH1 0x0 NOT DUP2 EQ PUSH2 0x1C36 JUMPI PUSH1 0x1 ADD SWAP1 JUMP JUMPDEST DUP1 SLOAD PUSH1 0x1 PUSH1 0x40 SHL DUP2 LT ISZERO PUSH2 0x1450 JUMPI PUSH2 0x32B8 SWAP2 PUSH1 0x1 DUP3 ADD DUP2 SSTORE PUSH2 0x308B JUMP JUMPDEST DUP2 SWAP3 SWAP2 SLOAD SWAP1 PUSH1 0x3 SHL SWAP2 PUSH1 0x1 DUP1 PUSH1 0xA0 SHL SUB SWAP3 DUP4 DUP2 SHL SWAP4 DUP5 SWAP3 AND SWAP1 SHL AND SWAP2 NOT AND OR SWAP1 SSTORE JUMP JUMPDEST SWAP1 PUSH1 0x40 MLOAD SWAP2 DUP3 PUSH1 0x0 DUP3 SLOAD SWAP3 PUSH2 0x32EF DUP5 PUSH2 0x2AD5 JUMP JUMPDEST SWAP1 DUP2 DUP5 MSTORE PUSH1 0x1 SWAP5 DUP6 DUP2 AND SWAP1 DUP2 PUSH1 0x0 EQ PUSH2 0x335E JUMPI POP PUSH1 0x1 EQ PUSH2 0x331B JUMPI JUMPDEST POP POP PUSH2 0x3319 SWAP3 POP SUB DUP4 PUSH2 0x2C2D JUMP JUMPDEST JUMP JUMPDEST SWAP1 SWAP4 SWAP2 POP PUSH1 0x0 MSTORE PUSH1 0x20 SWAP1 DUP2 PUSH1 0x0 KECCAK256 SWAP4 PUSH1 0x0 SWAP2 JUMPDEST DUP2 DUP4 LT PUSH2 0x3346 JUMPI POP POP PUSH2 0x3319 SWAP4 POP DUP3 ADD ADD CODESIZE DUP1 PUSH2 0x330B JUMP JUMPDEST DUP6 SLOAD DUP9 DUP5 ADD DUP6 ADD MSTORE SWAP5 DUP6 ADD SWAP5 DUP8 SWAP5 POP SWAP2 DUP4 ADD SWAP2 PUSH2 0x332E JUMP JUMPDEST SWAP2 POP POP PUSH2 0x3319 SWAP5 POP PUSH1 0x20 SWAP3 POP PUSH1 0xFF NOT AND DUP3 DUP5 ADD MSTORE ISZERO ISZERO PUSH1 0x5 SHL DUP3 ADD ADD CODESIZE DUP1 PUSH2 0x330B JUMP JUMPDEST SWAP1 DUP2 SLOAD DUP1 DUP3 MSTORE PUSH1 0x20 DUP1 SWAP3 ADD SWAP3 PUSH1 0x0 MSTORE DUP2 PUSH1 0x0 KECCAK256 SWAP2 PUSH1 0x0 SWAP1 JUMPDEST DUP3 DUP3 LT PUSH2 0x33A7 JUMPI POP POP POP POP SWAP1 JUMP JUMPDEST DUP4 SLOAD PUSH1 0x1 PUSH1 0x1 PUSH1 0xA0 SHL SUB AND DUP6 MSTORE SWAP4 DUP5 ADD SWAP4 PUSH1 0x1 SWAP4 DUP5 ADD SWAP4 SWAP1 SWAP2 ADD SWAP1 PUSH2 0x3399 JUMP JUMPDEST ISZERO PUSH2 0x33CE JUMPI JUMP JUMPDEST PUSH1 0x40 MLOAD PUSH3 0x461BCD PUSH1 0xE5 SHL DUP2 MSTORE PUSH1 0x20 PUSH1 0x4 DUP3 ADD MSTORE PUSH1 0x26 PUSH1 0x24 DUP3 ADD MSTORE PUSH32 0x4F6E6C792061646D696E2063616E20696E766F6B6520746869732066756E6374 PUSH1 0x44 DUP3 ADD MSTORE PUSH6 0x696F6E732021 PUSH1 0xD0 SHL PUSH1 0x64 DUP3 ADD MSTORE PUSH1 0x84 SWAP1 REVERT JUMPDEST DUP2 DUP2 LT PUSH2 0x342D JUMPI POP POP JUMP JUMPDEST PUSH1 0x0 DUP2 SSTORE PUSH1 0x1 ADD PUSH2 0x3422 JUMP JUMPDEST SWAP2 SWAP1 PUSH1 0x1F DUP2 GT PUSH2 0x3448 JUMPI POP POP POP JUMP JUMPDEST PUSH2 0x3319 SWAP3 PUSH1 0x0 MSTORE PUSH1 0x20 PUSH1 0x0 KECCAK256 SWAP1 PUSH1 0x20 PUSH1 0x1F DUP5 ADD PUSH1 0x5 SHR DUP4 ADD SWAP4 LT PUSH2 0x3474 JUMPI JUMPDEST PUSH1 0x1F ADD PUSH1 0x5 SHR ADD SWAP1 PUSH2 0x3422 JUMP JUMPDEST SWAP1 SWAP2 POP DUP2 SWAP1 PUSH2 0x3467 JUMP JUMPDEST SWAP2 SWAP1 SWAP2 DUP3 MLOAD PUSH1 0x1 PUSH1 0x1 PUSH1 0x40 SHL SUB DUP2 GT PUSH2 0x1450 JUMPI PUSH2 0x34A5 DUP2 PUSH2 0x349F DUP5 SLOAD PUSH2 0x2AD5 JUMP JUMPDEST DUP5 PUSH2 0x3439 JUMP JUMPDEST PUSH1 0x20 DUP1 PUSH1 0x1F DUP4 GT PUSH1 0x1 EQ PUSH2 0x34E1 JUMPI POP DUP2 SWAP3 SWAP4 SWAP5 PUSH1 0x0 SWAP3 PUSH2 0x34D6 JUMPI JUMPDEST POP POP DUP2 PUSH1 0x1 SHL SWAP2 PUSH1 0x0 NOT SWAP1 PUSH1 0x3 SHL SHR NOT AND OR SWAP1 SSTORE JUMP JUMPDEST ADD MLOAD SWAP1 POP CODESIZE DUP1 PUSH2 0x34C0 JUMP JUMPDEST SWAP1 PUSH1 0x1F NOT DUP4 AND SWAP6 DUP5 PUSH1 0x0 MSTORE DUP3 PUSH1 0x0 KECCAK256 SWAP3 PUSH1 0x0 SWAP1 JUMPDEST DUP9 DUP3 LT PUSH2 0x352D JUMPI POP POP DUP4 PUSH1 0x1 SWAP6 SWAP7 SWAP8 LT PUSH2 0x3514 JUMPI JUMPDEST POP POP POP DUP2 SHL ADD SWAP1 SSTORE JUMP JUMPDEST ADD MLOAD PUSH1 0x0 NOT PUSH1 0xF8 DUP5 PUSH1 0x3 SHL AND SHR NOT AND SWAP1 SSTORE CODESIZE DUP1 DUP1 PUSH2 0x350A JUMP JUMPDEST DUP1 PUSH1 0x1 DUP6 SWAP7 DUP3 SWAP5 SWAP7 DUP7 ADD MLOAD DUP2 SSTORE ADD SWAP6 ADD SWAP4 ADD SWAP1 PUSH2 0x34F5 JUMP JUMPDEST SWAP1 PUSH1 0x1 PUSH1 0x40 SHL DUP2 GT PUSH2 0x1450 JUMPI DUP2 SLOAD SWAP1 DUP1 DUP4 SSTORE DUP2 DUP2 LT PUSH2 0x3563 JUMPI POP POP POP JUMP JUMPDEST PUSH2 0x3319 SWAP3 PUSH1 0x0 MSTORE PUSH1 0x20 PUSH1 0x0 KECCAK256 SWAP2 DUP3 ADD SWAP2 ADD PUSH2 0x3422 JUMP JUMPDEST SWAP1 PUSH1 0x1 DUP1 PUSH1 0xA0 SHL SUB SWAP1 DUP2 DUP2 MLOAD AND PUSH1 0x1 PUSH1 0x1 PUSH1 0x60 SHL SUB PUSH1 0xA0 SHL DUP5 SLOAD AND OR DUP4 SSTORE PUSH1 0x20 SWAP2 PUSH1 0xA0 PUSH1 0x5 DUP5 DUP5 ADD MLOAD SWAP6 PUSH2 0x35B1 PUSH1 0x1 SWAP8 DUP9 DUP4 ADD PUSH2 0x347E JUMP JUMPDEST PUSH1 0x40 DUP6 ADD MLOAD PUSH1 0x2 DUP3 ADD SSTORE PUSH2 0x35CC PUSH1 0x60 DUP7 ADD MLOAD PUSH1 0x3 DUP4 ADD PUSH2 0x347E JUMP JUMPDEST PUSH2 0x35DD PUSH1 0x80 DUP7 ADD MLOAD PUSH1 0x4 DUP4 ADD PUSH2 0x347E JUMP JUMPDEST ADD SWAP3 ADD MLOAD SWAP3 DUP4 MLOAD SWAP4 PUSH1 0x1 PUSH1 0x1 PUSH1 0x40 SHL SUB DUP6 GT PUSH2 0x1450 JUMPI DUP2 SWAP1 PUSH2 0x35FF DUP7 DUP7 PUSH2 0x3545 JUMP JUMPDEST ADD SWAP3 PUSH1 0x0 MSTORE DUP1 PUSH1 0x0 KECCAK256 SWAP2 PUSH1 0x0 JUMPDEST DUP6 DUP2 LT PUSH2 0x361C JUMPI POP POP POP POP POP POP POP JUMP JUMPDEST DUP5 MLOAD DUP3 AND DUP5 DUP3 ADD SSTORE SWAP4 DUP3 ADD SWAP4 DUP7 ADD PUSH2 0x360C JUMP JUMPDEST PUSH2 0x3639 DUP2 SLOAD PUSH2 0x2AD5 JUMP JUMPDEST SWAP1 DUP2 PUSH2 0x3643 JUMPI POP POP JUMP JUMPDEST DUP2 PUSH1 0x1F PUSH1 0x0 SWAP4 GT PUSH1 0x1 EQ PUSH2 0x3655 JUMPI POP SSTORE JUMP JUMPDEST DUP2 DUP4 MSTORE PUSH1 0x20 DUP4 KECCAK256 PUSH2 0x3671 SWAP2 PUSH1 0x1F ADD PUSH1 0x5 SHR DUP2 ADD SWAP1 PUSH1 0x1 ADD PUSH2 0x3422 JUMP JUMPDEST DUP2 PUSH1 0x20 DUP2 KECCAK256 SWAP2 SSTORE SSTORE JUMP JUMPDEST DUP2 MLOAD SWAP2 PUSH1 0x1 DUP1 PUSH1 0xA0 SHL SUB DUP1 DUP5 MLOAD AND PUSH1 0x1 PUSH1 0x1 PUSH1 0x60 SHL SUB PUSH1 0xA0 SHL DUP5 SLOAD AND OR DUP4 SSTORE PUSH1 0x80 PUSH1 0xF PUSH1 0x20 SWAP5 PUSH2 0x3752 PUSH2 0x160 DUP8 DUP10 ADD MLOAD SWAP9 PUSH2 0x36BA PUSH1 0x1 SWAP11 DUP12 DUP7 ADD PUSH2 0x347E JUMP JUMPDEST PUSH1 0x40 DUP2 ADD MLOAD PUSH1 0x2 DUP6 ADD SSTORE PUSH1 0x60 DUP2 ADD MLOAD PUSH1 0x3 DUP6 ADD SSTORE PUSH2 0x36DE DUP7 DUP3 ADD MLOAD PUSH1 0x4 DUP7 ADD PUSH2 0x347E JUMP JUMPDEST PUSH2 0x36EF PUSH1 0xA0 DUP3 ADD MLOAD PUSH1 0x5 DUP7 ADD PUSH2 0x347E JUMP JUMPDEST PUSH2 0x3700 PUSH1 0xC0 DUP3 ADD MLOAD PUSH1 0x6 DUP7 ADD PUSH2 0x347E JUMP JUMPDEST PUSH2 0x3711 PUSH1 0xE0 DUP3 ADD MLOAD PUSH1 0x7 DUP7 ADD PUSH2 0x347E JUMP JUMPDEST PUSH2 0x3723 PUSH2 0x100 DUP3 ADD MLOAD PUSH1 0x8 DUP7 ADD PUSH2 0x347E JUMP JUMPDEST PUSH2 0x3735 PUSH2 0x120 DUP3 ADD MLOAD PUSH1 0x9 DUP7 ADD PUSH2 0x347E JUMP JUMPDEST PUSH2 0x3747 PUSH2 0x140 DUP3 ADD MLOAD PUSH1 0xA DUP7 ADD PUSH2 0x347E JUMP JUMPDEST ADD MLOAD PUSH1 0xB DUP4 ADD PUSH2 0x347E JUMP JUMPDEST PUSH2 0x3762 DUP7 DUP7 ADD MLOAD PUSH1 0xC DUP4 ADD PUSH2 0x347E JUMP JUMPDEST PUSH2 0x3773 PUSH1 0x40 DUP7 ADD MLOAD PUSH1 0xD DUP4 ADD PUSH2 0x347E JUMP JUMPDEST PUSH1 0x60 DUP6 ADD MLOAD PUSH1 0xE DUP3 ADD SSTORE ADD SWAP3 ADD MLOAD SWAP3 DUP4 MLOAD SWAP4 PUSH1 0x1 PUSH1 0x1 PUSH1 0x40 SHL SUB DUP6 GT PUSH2 0x1450 JUMPI DUP2 SWAP1 PUSH2 0x379F DUP7 DUP7 PUSH2 0x3545 JUMP JUMPDEST ADD SWAP3 PUSH1 0x0 MSTORE DUP1 PUSH1 0x0 KECCAK256 SWAP2 PUSH1 0x0 JUMPDEST DUP6 DUP2 LT PUSH2 0x37BC JUMPI POP POP POP POP POP POP POP JUMP JUMPDEST DUP5 MLOAD DUP3 AND DUP5 DUP3 ADD SSTORE SWAP4 DUP3 ADD SWAP4 DUP7 ADD PUSH2 0x37AC JUMP JUMPDEST SWAP2 SWAP1 PUSH2 0x37DC DUP2 MLOAD DUP5 PUSH2 0x347E JUMP JUMPDEST PUSH1 0x20 SWAP3 DUP4 DUP3 ADD MLOAD SWAP4 PUSH2 0x37F2 PUSH1 0x1 SWAP6 DUP7 DUP5 ADD PUSH2 0x347E JUMP JUMPDEST PUSH1 0x40 DUP4 ADD MLOAD SWAP3 PUSH2 0x3806 PUSH1 0x2 SWAP5 DUP6 DUP6 ADD PUSH2 0x347E JUMP JUMPDEST PUSH1 0x60 DUP2 ADD MLOAD SWAP3 PUSH2 0x381A PUSH1 0x3 SWAP5 DUP6 DUP4 ADD PUSH2 0x347E JUMP JUMPDEST PUSH1 0x80 DUP3 ADD MLOAD SWAP1 PUSH2 0x382E PUSH1 0x4 SWAP3 DUP4 DUP4 ADD PUSH2 0x347E JUMP JUMPDEST PUSH1 0x5 SWAP6 DUP7 DUP3 ADD SWAP6 PUSH1 0xA0 DUP6 ADD MLOAD SWAP1 DUP2 MLOAD SWAP3 PUSH1 0x1 PUSH1 0x40 SHL SWAP10 DUP11 DUP6 GT PUSH2 0x3A8C JUMPI SWAP1 DUP9 SWAP4 SWAP3 SWAP2 DUP11 SLOAD SWAP3 DUP7 DUP13 SSTORE DUP4 DUP8 LT PUSH2 0x393B JUMPI JUMPDEST POP POP POP POP ADD PUSH1 0x0 SWAP7 DUP8 MSTORE DUP6 DUP8 KECCAK256 DUP11 DUP8 DUP10 SWAP4 JUMPDEST DUP6 DUP6 LT PUSH2 0x391D JUMPI POP POP POP POP POP POP PUSH1 0x6 PUSH1 0xC0 SWAP2 ADD SWAP3 ADD MLOAD SWAP1 DUP2 MLOAD SWAP6 DUP7 GT PUSH2 0x390A JUMPI POP DUP3 SWAP1 DUP3 SLOAD DUP7 DUP5 SSTORE DUP1 DUP8 LT PUSH2 0x38D5 JUMPI JUMPDEST POP SWAP2 DUP5 MSTORE DUP3 DUP5 KECCAK256 SWAP2 ADD JUMPDEST DUP5 DUP5 LT PUSH2 0x38BA JUMPI POP POP POP POP POP SWAP1 POP JUMP JUMPDEST DUP7 DUP4 DUP3 PUSH2 0x38C9 DUP4 SWAP5 MLOAD DUP7 PUSH2 0x347E JUMP JUMPDEST ADD SWAP3 ADD SWAP4 ADD SWAP3 SWAP1 PUSH2 0x38AA JUMP JUMPDEST DUP4 DUP7 MSTORE DUP9 DUP8 DUP5 DUP9 KECCAK256 SWAP3 DUP4 ADD SWAP3 ADD JUMPDEST DUP3 DUP2 LT PUSH2 0x38F1 JUMPI POP POP PUSH2 0x38A0 JUMP JUMPDEST SWAP1 SWAP2 SWAP3 SWAP4 POP PUSH2 0x38FF DUP2 PUSH2 0x362F JUMP JUMPDEST ADD SWAP1 DUP9 DUP6 SWAP4 SWAP3 PUSH2 0x38E3 JUMP JUMPDEST PUSH4 0x4E487B71 PUSH1 0xE0 SHL DUP6 MSTORE PUSH1 0x41 SWAP1 MSTORE PUSH1 0x24 DUP5 REVERT JUMPDEST SWAP1 DUP2 PUSH2 0x392C PUSH1 0x10 SWAP4 MLOAD DUP7 PUSH2 0x367B JUMP JUMPDEST ADD SWAP3 ADD SWAP3 ADD SWAP2 SWAP1 DUP8 DUP13 SWAP2 PUSH2 0x3870 JUMP JUMPDEST SWAP4 SWAP5 POP SWAP2 SWAP3 SWAP1 SWAP2 SWAP1 PUSH1 0x1 PUSH1 0x1 PUSH1 0xFC SHL SUB DUP1 DUP6 AND DUP6 SUB PUSH2 0x3A77 JUMPI DUP7 AND DUP7 SUB PUSH2 0x3A62 JUMPI SWAP1 DUP14 SWAP2 DUP11 SWAP6 SWAP5 SWAP4 PUSH1 0x0 SWAP4 DUP14 DUP6 MSTORE DUP8 DUP6 KECCAK256 SWAP6 DUP12 SHL DUP7 ADD SWAP6 DUP10 DUP13 SHL ADD SWAP1 JUMPDEST DUP7 DUP3 LT PUSH2 0x3987 JUMPI POP POP POP PUSH2 0x385E JUMP JUMPDEST DUP6 SWAP7 SWAP8 SWAP9 POP PUSH2 0x399F SWAP1 PUSH1 0x10 SWAP4 SWAP5 SWAP6 SWAP7 DUP4 SSTORE DUP3 ADD PUSH2 0x362F JUMP JUMPDEST DUP6 DUP4 DUP3 ADD SSTORE DUP6 DUP5 DUP3 ADD SSTORE PUSH2 0x39B4 DUP12 DUP3 ADD PUSH2 0x362F JUMP JUMPDEST PUSH2 0x39BF DUP6 DUP3 ADD PUSH2 0x362F JUMP JUMPDEST PUSH2 0x39CB PUSH1 0x6 DUP3 ADD PUSH2 0x362F JUMP JUMPDEST PUSH2 0x39D7 PUSH1 0x7 DUP3 ADD PUSH2 0x362F JUMP JUMPDEST PUSH2 0x39E3 PUSH1 0x8 DUP3 ADD PUSH2 0x362F JUMP JUMPDEST PUSH2 0x39EF PUSH1 0x9 DUP3 ADD PUSH2 0x362F JUMP JUMPDEST PUSH2 0x39FB PUSH1 0xA DUP3 ADD PUSH2 0x362F JUMP JUMPDEST PUSH2 0x3A07 PUSH1 0xB DUP3 ADD PUSH2 0x362F JUMP JUMPDEST PUSH2 0x3A13 PUSH1 0xC DUP3 ADD PUSH2 0x362F JUMP JUMPDEST PUSH2 0x3A1F PUSH1 0xD DUP3 ADD PUSH2 0x362F JUMP JUMPDEST DUP6 PUSH1 0xE DUP3 ADD SSTORE PUSH1 0xF DUP2 ADD DUP14 DUP2 SLOAD SWAP1 DUP9 DUP4 SSTORE DUP2 PUSH2 0x3A49 JUMPI JUMPDEST POP POP POP ADD SWAP1 DUP16 SWAP2 DUP13 SWAP8 SWAP7 SWAP6 SWAP5 SWAP4 SWAP3 PUSH2 0x3978 JUMP JUMPDEST PUSH2 0x3A5A SWAP3 DUP10 MSTORE DUP9 KECCAK256 SWAP1 DUP2 ADD SWAP1 PUSH2 0x3422 JUMP JUMPDEST CODESIZE DUP1 DUP15 PUSH2 0x3A36 JUMP JUMPDEST PUSH1 0x11 DUP9 PUSH4 0x4E487B71 PUSH1 0xE0 SHL PUSH1 0x0 MSTORE MSTORE PUSH1 0x24 PUSH1 0x0 REVERT JUMPDEST PUSH1 0x11 DUP10 PUSH4 0x4E487B71 PUSH1 0xE0 SHL PUSH1 0x0 MSTORE MSTORE PUSH1 0x24 PUSH1 0x0 REVERT JUMPDEST PUSH1 0x41 DUP8 PUSH4 0x4E487B71 PUSH1 0xE0 SHL PUSH1 0x0 MSTORE MSTORE PUSH1 0x24 PUSH1 0x0 REVERT JUMPDEST DUP1 MLOAD DUP3 LT ISZERO PUSH2 0x1C4C JUMPI PUSH1 0x20 SWAP2 PUSH1 0x5 SHL ADD ADD SWAP1 JUMP JUMPDEST SWAP1 DUP1 DUP3 EQ PUSH2 0x3B8D JUMPI PUSH2 0x3AC7 DUP2 SLOAD PUSH2 0x2AD5 JUMP JUMPDEST SWAP1 PUSH1 0x1 PUSH1 0x1 PUSH1 0x40 SHL SUB DUP3 GT PUSH2 0x1450 JUMPI DUP2 SWAP1 PUSH2 0x3AEC DUP3 PUSH2 0x3AE6 DUP7 SLOAD PUSH2 0x2AD5 JUMP JUMPDEST DUP7 PUSH2 0x3439 JUMP JUMPDEST PUSH1 0x0 SWAP1 PUSH1 0x1F DUP4 GT PUSH1 0x1 EQ PUSH2 0x3B22 JUMPI PUSH1 0x0 SWAP3 PUSH2 0x3B17 JUMPI POP POP DUP2 PUSH1 0x1 SHL SWAP2 PUSH1 0x0 NOT SWAP1 PUSH1 0x3 SHL SHR NOT AND OR SWAP1 SSTORE JUMP JUMPDEST ADD SLOAD SWAP1 POP CODESIZE DUP1 PUSH2 0x34C0 JUMP JUMPDEST DUP2 MSTORE PUSH1 0x20 DUP1 DUP3 KECCAK256 DUP6 DUP4 MSTORE DUP2 DUP4 KECCAK256 SWAP4 POP SWAP1 PUSH1 0x1F NOT DUP6 AND SWAP1 DUP4 SWAP1 JUMPDEST DUP3 DUP3 LT PUSH2 0x3B74 JUMPI POP POP SWAP1 DUP5 PUSH1 0x1 SWAP6 SWAP5 SWAP4 SWAP3 LT PUSH2 0x3B5B JUMPI POP POP POP DUP2 SHL ADD SWAP1 SSTORE JUMP JUMPDEST ADD SLOAD PUSH1 0x0 NOT PUSH1 0xF8 DUP5 PUSH1 0x3 SHL AND SHR NOT AND SWAP1 SSTORE CODESIZE DUP1 DUP1 PUSH2 0x350A JUMP JUMPDEST DUP5 SWAP6 DUP2 SWAP3 SWAP6 DUP6 ADD SLOAD DUP2 SSTORE PUSH1 0x1 DUP1 SWAP2 ADD SWAP7 ADD SWAP5 ADD SWAP1 PUSH2 0x3B3B JUMP JUMPDEST POP POP JUMP JUMPDEST DUP2 DUP2 EQ PUSH2 0x3B8D JUMPI DUP2 SLOAD SWAP2 PUSH1 0x1 PUSH1 0x1 PUSH1 0x40 SHL SUB DUP4 GT PUSH2 0x1450 JUMPI PUSH2 0x3BB3 DUP4 DUP4 PUSH2 0x3545 JUMP JUMPDEST PUSH1 0x0 MSTORE PUSH1 0x20 PUSH1 0x0 KECCAK256 SWAP1 PUSH1 0x0 MSTORE PUSH1 0x20 PUSH1 0x0 KECCAK256 DUP2 SLOAD SWAP2 PUSH1 0x0 SWAP3 JUMPDEST DUP5 DUP5 LT PUSH2 0x3BD9 JUMPI POP POP POP POP POP JUMP JUMPDEST PUSH1 0x1 SWAP2 DUP3 ADD DUP1 SLOAD PUSH1 0x1 PUSH1 0x1 PUSH1 0xA0 SHL SUB SWAP1 SWAP3 AND DUP5 DUP7 ADD SSTORE SWAP4 SWAP1 SWAP2 ADD SWAP3 SWAP1 PUSH2 0x3BCB JUMP JUMPDEST DUP1 SLOAD PUSH1 0x1 PUSH1 0x40 SHL DUP2 LT ISZERO PUSH2 0x1450 JUMPI PUSH2 0x3C17 SWAP2 PUSH1 0x1 DUP3 ADD DUP2 SSTORE PUSH2 0x3235 JUMP JUMPDEST PUSH2 0x143A JUMPI DUP2 DUP2 EQ ISZERO SWAP2 DUP3 PUSH2 0x3C2A JUMPI POP POP POP JUMP JUMPDEST PUSH1 0xF DUP1 SWAP2 PUSH2 0x3319 SWAP5 PUSH2 0x3C69 JUMPI JUMPDEST PUSH2 0x3C47 PUSH1 0xC DUP3 ADD PUSH1 0xC DUP7 ADD PUSH2 0x3AB5 JUMP JUMPDEST PUSH2 0x3C57 PUSH1 0xD DUP3 ADD PUSH1 0xD DUP7 ADD PUSH2 0x3AB5 JUMP JUMPDEST PUSH1 0xE DUP2 ADD SLOAD PUSH1 0xE DUP6 ADD SSTORE ADD SWAP2 ADD PUSH2 0x3B91 JUMP JUMPDEST DUP1 SLOAD DUP5 SLOAD PUSH1 0x1 PUSH1 0x1 PUSH1 0xA0 SHL SUB NOT AND PUSH1 0x1 PUSH1 0x1 PUSH1 0xA0 SHL SUB SWAP2 SWAP1 SWAP2 AND OR DUP5 SSTORE PUSH2 0x3C96 PUSH1 0x1 DUP3 DUP2 ADD SWAP1 DUP7 ADD PUSH2 0x3AB5 JUMP JUMPDEST PUSH1 0x2 DUP2 ADD SLOAD PUSH1 0x2 DUP6 ADD SSTORE PUSH1 0x3 DUP2 ADD SLOAD PUSH1 0x3 DUP6 ADD SSTORE PUSH2 0x3CBA PUSH1 0x4 DUP3 ADD PUSH1 0x4 DUP7 ADD PUSH2 0x3AB5 JUMP JUMPDEST PUSH2 0x3CCA PUSH1 0x5 DUP3 ADD PUSH1 0x5 DUP7 ADD PUSH2 0x3AB5 JUMP JUMPDEST PUSH2 0x3CDA PUSH1 0x6 DUP3 ADD PUSH1 0x6 DUP7 ADD PUSH2 0x3AB5 JUMP JUMPDEST PUSH2 0x3CEA PUSH1 0x7 DUP3 ADD PUSH1 0x7 DUP7 ADD PUSH2 0x3AB5 JUMP JUMPDEST PUSH2 0x3CFA PUSH1 0x8 DUP3 ADD PUSH1 0x8 DUP7 ADD PUSH2 0x3AB5 JUMP JUMPDEST PUSH2 0x3D0A PUSH1 0x9 DUP3 ADD PUSH1 0x9 DUP7 ADD PUSH2 0x3AB5 JUMP JUMPDEST PUSH2 0x3D1A PUSH1 0xA DUP3 ADD PUSH1 0xA DUP7 ADD PUSH2 0x3AB5 JUMP JUMPDEST PUSH2 0x3D2A PUSH1 0xB DUP3 ADD PUSH1 0xB DUP7 ADD PUSH2 0x3AB5 JUMP JUMPDEST PUSH2 0x3C37 JUMP JUMPDEST PUSH1 0x2 PUSH1 0x40 PUSH2 0x3319 SWAP4 PUSH1 0x1 DUP1 PUSH1 0xA0 SHL SUB DUP2 MLOAD AND PUSH1 0x1 PUSH1 0x1 PUSH1 0x60 SHL SUB PUSH1 0xA0 SHL DUP6 SLOAD AND OR DUP5 SSTORE PUSH2 0x3D63 PUSH1 0x20 DUP3 ADD MLOAD PUSH1 0x1 DUP7 ADD PUSH2 0x347E JUMP JUMPDEST ADD MLOAD SWAP2 ADD PUSH2 0x347E JUMP JUMPDEST PUSH1 0x1 DUP1 PUSH1 0xA0 SHL SUB DUP3 MLOAD AND PUSH1 0x1 PUSH1 0x1 PUSH1 0x60 SHL SUB PUSH1 0xA0 SHL DUP3 SLOAD AND OR DUP2 SSTORE PUSH1 0x20 SWAP1 DUP2 DUP4 ADD MLOAD SWAP3 PUSH2 0x3D9D PUSH1 0x1 SWAP5 DUP6 DUP5 ADD PUSH2 0x347E JUMP JUMPDEST PUSH1 0x40 DUP2 ADD MLOAD SWAP3 PUSH2 0x3DB1 PUSH1 0x2 SWAP5 DUP6 DUP6 ADD PUSH2 0x347E JUMP JUMPDEST PUSH1 0xA0 PUSH1 0x5 PUSH1 0x60 DUP5 ADD MLOAD SWAP5 PUSH2 0x3DC9 PUSH1 0x3 SWAP7 DUP8 DUP4 ADD PUSH2 0x347E JUMP JUMPDEST PUSH2 0x3DDA PUSH1 0x80 DUP7 ADD MLOAD PUSH1 0x4 DUP4 ADD PUSH2 0x347E JUMP JUMPDEST ADD SWAP3 ADD MLOAD SWAP4 DUP5 MLOAD SWAP5 PUSH1 0x1 PUSH1 0x40 SHL DUP7 GT PUSH2 0x1450 JUMPI DUP4 SLOAD DUP7 DUP6 SSTORE DUP4 SWAP3 DUP2 DUP9 LT PUSH2 0x3E36 JUMPI JUMPDEST POP POP ADD SWAP2 PUSH1 0x0 MSTORE DUP1 PUSH1 0x0 KECCAK256 PUSH1 0x0 SWAP3 JUMPDEST DUP6 DUP5 LT PUSH2 0x3E1B JUMPI POP POP POP POP POP POP POP JUMP JUMPDEST DUP5 DUP4 DUP3 PUSH2 0x3E2A DUP11 SWAP5 MLOAD DUP7 PUSH2 0x3D2F JUMP JUMPDEST ADD SWAP3 ADD SWAP4 ADD SWAP3 SWAP1 PUSH2 0x3E0B JUMP JUMPDEST SWAP1 DUP1 SWAP3 SWAP4 POP DUP7 MUL SWAP2 DUP7 DUP4 DIV SUB PUSH2 0x1C36 JUMPI DUP7 DUP7 MUL DUP7 DUP2 DIV DUP9 SUB PUSH2 0x1C36 JUMPI PUSH1 0x0 DUP7 DUP2 MSTORE DUP6 DUP2 KECCAK256 DUP7 SWAP6 SWAP5 DUP2 ADD SWAP4 SWAP3 DUP10 SWAP2 ADD JUMPDEST DUP5 DUP2 LT PUSH2 0x3E74 JUMPI POP POP POP PUSH2 0x3DFC JUMP JUMPDEST SWAP1 SWAP2 DUP1 SWAP4 SWAP5 SWAP6 SWAP7 POP DUP2 SSTORE PUSH2 0x3E89 DUP12 DUP3 ADD PUSH2 0x362F JUMP JUMPDEST PUSH2 0x3E94 DUP5 DUP3 ADD PUSH2 0x362F JUMP JUMPDEST ADD SWAP1 DUP8 DUP7 SWAP6 SWAP5 SWAP4 SWAP3 PUSH2 0x3E65 JUMP JUMPDEST SWAP1 DUP2 SLOAD PUSH1 0x1 PUSH1 0x40 SHL DUP2 LT ISZERO PUSH2 0x1450 JUMPI PUSH1 0x1 DUP2 ADD DUP1 DUP5 SSTORE DUP2 LT ISZERO PUSH2 0x1C4C JUMPI PUSH2 0x3319 SWAP3 PUSH1 0x0 MSTORE PUSH1 0x3 PUSH1 0x20 PUSH1 0x0 KECCAK256 SWAP2 MUL ADD PUSH2 0x3D2F JUMP JUMPDEST SWAP1 PUSH1 0xF PUSH1 0x80 PUSH1 0x40 MLOAD PUSH2 0x3EE5 DUP2 PUSH2 0x2BF7 JUMP JUMPDEST PUSH2 0x3087 DUP2 SWAP6 PUSH2 0x3EF3 DUP2 PUSH2 0x2F7D JUMP JUMPDEST DUP4 MSTORE PUSH1 0x40 MLOAD PUSH2 0x3F09 DUP2 PUSH2 0x288 DUP2 PUSH1 0xC DUP7 ADD PUSH2 0x2B0F JUMP JUMPDEST PUSH1 0x20 DUP5 ADD MSTORE PUSH1 0x40 MLOAD PUSH2 0x3F22 DUP2 PUSH2 0x288 DUP2 PUSH1 0xD DUP7 ADD PUSH2 0x2B0F JUMP JUMPDEST PUSH1 0x40 DUP5 ADD MSTORE PUSH1 0xE DUP2 ADD SLOAD PUSH1 0x60 DUP5 ADD MSTORE PUSH2 0x67A PUSH1 0x40 MLOAD DUP1 SWAP7 DUP2 SWAP4 ADD PUSH2 0x3381 JUMP JUMPDEST DUP1 MLOAD SWAP1 PUSH1 0x20 SWAP2 DUP3 DUP3 ADD SWAP1 DUP2 KECCAK256 SWAP1 PUSH1 0x0 SWAP3 DUP4 SLOAD SWAP3 DUP4 ISZERO PUSH2 0x429F JUMPI SWAP1 DUP6 SWAP3 SWAP2 DUP6 DUP1 MSTORE PUSH1 0x40 MLOAD DUP7 SWAP1 PUSH32 0x290DECD9548B62A8D60345A988386FC84BA6BC95484008F6362F93160EF3E563 DUP2 DUP2 SLOAD SWAP4 PUSH2 0x3F94 DUP6 PUSH2 0x2AD5 JUMP JUMPDEST SWAP3 DUP4 DUP4 MSTORE DUP10 DUP4 ADD SWAP6 PUSH1 0x1 SWAP14 DUP15 DUP3 AND SWAP2 DUP3 PUSH1 0x0 EQ PUSH2 0x4281 JUMPI POP POP PUSH1 0x1 EQ PUSH2 0x4226 JUMPI JUMPDEST POP PUSH2 0x3FC2 SWAP3 POP SUB DUP3 PUSH2 0x2C2D JUMP JUMPDEST MLOAD SWAP1 KECCAK256 SUB PUSH2 0x3FF5 JUMPI POP POP POP POP PUSH1 0x2 SLOAD SWAP2 DUP3 ADD DUP1 SWAP3 GT PUSH2 0x3FE1 JUMPI POP PUSH1 0x2 SSTORE JUMP JUMPDEST PUSH4 0x4E487B71 PUSH1 0xE0 SHL DUP2 MSTORE PUSH1 0x11 PUSH1 0x4 MSTORE PUSH1 0x24 SWAP1 REVERT JUMPDEST DUP1 MLOAD DUP3 KECCAK256 DUP5 DUP8 LT ISZERO PUSH2 0x4212 JUMPI DUP6 DUP1 MSTORE DUP7 PUSH1 0x40 MLOAD DUP8 DUP2 PUSH32 0x290DECD9548B62A8D60345A988386FC84BA6BC95484008F6362F93160EF3E564 SWAP2 DUP3 SLOAD SWAP3 PUSH2 0x4038 DUP5 PUSH2 0x2AD5 JUMP JUMPDEST SWAP4 DUP5 DUP5 MSTORE DUP11 DUP1 DUP6 ADD SWAP8 DUP3 AND SWAP2 DUP3 PUSH1 0x0 EQ PUSH2 0x41F4 JUMPI POP POP PUSH1 0x1 EQ PUSH2 0x4199 JUMPI JUMPDEST POP PUSH2 0x4063 SWAP3 POP SUB DUP3 PUSH2 0x2C2D JUMP JUMPDEST MLOAD SWAP1 KECCAK256 SUB PUSH2 0x4082 JUMPI POP POP POP POP PUSH1 0x3 SLOAD SWAP2 DUP3 ADD DUP1 SWAP3 GT PUSH2 0x3FE1 JUMPI POP PUSH1 0x3 SSTORE JUMP JUMPDEST MLOAD SWAP1 KECCAK256 SWAP2 PUSH1 0x2 LT ISZERO PUSH2 0x4185 JUMPI DUP3 DUP1 MSTORE PUSH1 0x40 MLOAD DUP4 SWAP2 DUP2 PUSH32 0x290DECD9548B62A8D60345A988386FC84BA6BC95484008F6362F93160EF3E565 SWAP4 DUP5 SLOAD SWAP5 PUSH2 0x40C5 DUP7 PUSH2 0x2AD5 JUMP JUMPDEST SWAP1 DUP2 DUP5 MSTORE DUP5 DUP5 ADD SWAP7 DUP11 DUP2 AND SWAP1 DUP2 PUSH1 0x0 EQ PUSH2 0x4167 JUMPI POP PUSH1 0x1 EQ PUSH2 0x410F JUMPI JUMPDEST POP POP PUSH2 0x40F0 SWAP3 POP SUB DUP3 PUSH2 0x2C2D JUMP JUMPDEST MLOAD SWAP1 KECCAK256 EQ PUSH2 0x40FC JUMPI POP POP JUMP JUMPDEST PUSH1 0x4 SLOAD SWAP2 DUP3 ADD DUP1 SWAP3 GT PUSH2 0x3FE1 JUMPI POP PUSH1 0x4 SSTORE JUMP JUMPDEST DUP9 MSTORE DUP8 SWAP2 POP DUP9 PUSH32 0x63D75DB57AE45C3799740C3CD8DCEE96A498324843D79AE390ADC81D74B52F13 JUMPDEST DUP3 DUP5 LT PUSH2 0x4150 JUMPI POP POP POP SWAP2 PUSH2 0x40F0 SWAP3 DUP3 ADD ADD CODESIZE DUP1 PUSH2 0x40E2 JUMP JUMPDEST DUP1 SLOAD DUP8 DUP6 ADD DUP8 ADD MSTORE DUP7 SWAP5 POP SWAP3 DUP6 ADD SWAP3 DUP11 SWAP2 ADD PUSH2 0x4137 JUMP JUMPDEST SWAP2 POP POP PUSH2 0x40F0 SWAP5 SWAP3 POP PUSH1 0xFF NOT AND DUP7 MSTORE ISZERO ISZERO PUSH1 0x5 SHL DUP3 ADD ADD CODESIZE DUP1 PUSH2 0x40E2 JUMP JUMPDEST PUSH4 0x4E487B71 PUSH1 0xE0 SHL DUP4 MSTORE PUSH1 0x32 PUSH1 0x4 MSTORE PUSH1 0x24 DUP4 REVERT JUMPDEST DUP12 MSTORE POP DUP3 SWAP1 POP DUP8 DUP11 DUP13 PUSH32 0x6C13D8C1C5DF666EA9CA2A428504A3776C8CA01021C3A1524CA7D765F600979A JUMPDEST DUP6 DUP4 LT PUSH2 0x41DB JUMPI POP POP PUSH2 0x4063 SWAP4 POP DUP3 ADD ADD CODESIZE PUSH2 0x4056 JUMP JUMPDEST DUP1 SWAP2 SWAP3 SWAP5 POP SLOAD DUP4 DUP6 DUP9 ADD ADD MSTORE ADD SWAP2 ADD DUP9 SWAP1 DUP13 DUP6 SWAP4 PUSH2 0x41C4 JUMP JUMPDEST PUSH1 0xFF NOT AND DUP9 MSTORE PUSH2 0x4063 SWAP6 ISZERO ISZERO PUSH1 0x5 SHL DUP6 ADD ADD SWAP3 POP CODESIZE SWAP2 POP PUSH2 0x4056 SWAP1 POP JUMP JUMPDEST PUSH4 0x4E487B71 PUSH1 0xE0 SHL DUP7 MSTORE PUSH1 0x32 PUSH1 0x4 MSTORE PUSH1 0x24 DUP7 REVERT JUMPDEST DUP12 MSTORE POP DUP3 SWAP1 POP DUP8 DUP11 DUP13 PUSH32 0x510E4E770828DDBF7F7B00AB00A9F6ADAF81C0DC9CC85F1F8249C256942D61D9 JUMPDEST DUP6 DUP4 LT PUSH2 0x4268 JUMPI POP POP PUSH2 0x3FC2 SWAP4 POP DUP3 ADD ADD CODESIZE PUSH2 0x3FB5 JUMP JUMPDEST DUP1 SWAP2 SWAP3 SWAP5 POP SLOAD DUP4 DUP6 DUP9 ADD ADD MSTORE ADD SWAP2 ADD DUP9 SWAP1 DUP13 DUP6 SWAP4 PUSH2 0x4251 JUMP JUMPDEST PUSH1 0xFF NOT AND DUP9 MSTORE PUSH2 0x3FC2 SWAP6 ISZERO ISZERO PUSH1 0x5 SHL DUP6 ADD ADD SWAP3 POP CODESIZE SWAP2 POP PUSH2 0x3FB5 SWAP1 POP JUMP JUMPDEST PUSH4 0x4E487B71 PUSH1 0xE0 SHL DUP6 MSTORE PUSH1 0x32 PUSH1 0x4 MSTORE PUSH1 0x24 DUP6 REVERT JUMPDEST PUSH1 0x40 MLOAD SWAP1 PUSH2 0x42C0 DUP3 PUSH2 0x2BDB JUMP JUMPDEST DUP2 PUSH1 0x0 DUP2 MSTORE PUSH2 0x160 PUSH1 0x60 SWAP2 DUP3 PUSH1 0x20 DUP3 ADD MSTORE PUSH1 0x0 PUSH1 0x40 DUP3 ADD MSTORE PUSH1 0x0 DUP4 DUP3 ADD MSTORE DUP3 PUSH1 0x80 DUP3 ADD MSTORE DUP3 PUSH1 0xA0 DUP3 ADD MSTORE DUP3 PUSH1 0xC0 DUP3 ADD MSTORE DUP3 PUSH1 0xE0 DUP3 ADD MSTORE DUP3 PUSH2 0x100 DUP3 ADD MSTORE DUP3 PUSH2 0x120 DUP3 ADD MSTORE DUP3 PUSH2 0x140 DUP3 ADD MSTORE ADD MSTORE JUMP JUMPDEST SWAP1 PUSH1 0x5 PUSH1 0xA0 PUSH1 0x40 SWAP4 PUSH2 0x3087 DUP6 MLOAD SWAP2 PUSH2 0x4326 DUP4 PUSH2 0x2BA5 JUMP JUMPDEST PUSH2 0x67A DUP4 SWAP8 PUSH1 0x1 DUP1 DUP8 SHL SUB DUP4 SLOAD AND DUP6 MSTORE DUP1 MLOAD PUSH2 0x4349 DUP2 PUSH2 0x288 DUP2 PUSH1 0x1 DUP9 ADD PUSH2 0x2B0F JUMP JUMPDEST PUSH1 0x20 DUP7 ADD MSTORE PUSH1 0x2 DUP4 ADD SLOAD DUP2 DUP7 ADD MSTORE DUP1 MLOAD PUSH2 0x436A DUP2 PUSH2 0x288 DUP2 PUSH1 0x3 DUP9 ADD PUSH2 0x2B0F JUMP JUMPDEST PUSH1 0x60 DUP7 ADD MSTORE DUP1 MLOAD PUSH2 0x4382 DUP2 PUSH2 0x288 DUP2 PUSH1 0x4 DUP9 ADD PUSH2 0x2B0F JUMP JUMPDEST PUSH1 0x80 DUP7 ADD MSTORE MLOAD DUP1 SWAP7 DUP2 SWAP4 ADD PUSH2 0x3381 JUMP JUMPDEST SWAP1 DUP1 MLOAD PUSH1 0x1 DUP1 PUSH1 0xA0 SHL SUB DUP1 DUP3 MLOAD AND PUSH1 0x1 PUSH1 0x1 PUSH1 0x60 SHL SUB PUSH1 0xA0 SHL DUP6 SLOAD AND OR DUP5 SSTORE PUSH1 0x20 SWAP1 PUSH2 0x4466 PUSH2 0x160 DUP4 DUP6 ADD MLOAD SWAP5 PUSH2 0x43CD PUSH1 0x1 SWAP7 DUP8 DUP11 ADD PUSH2 0x347E JUMP JUMPDEST PUSH1 0x40 DUP2 ADD MLOAD PUSH1 0x2 DUP10 ADD SSTORE PUSH1 0x60 DUP2 ADD MLOAD PUSH1 0x3 DUP10 ADD SSTORE PUSH2 0x43F2 PUSH1 0x80 DUP3 ADD MLOAD PUSH1 0x4 DUP11 ADD PUSH2 0x347E JUMP JUMPDEST PUSH2 0x4403 PUSH1 0xA0 DUP3 ADD MLOAD PUSH1 0x5 DUP11 ADD PUSH2 0x347E JUMP JUMPDEST PUSH2 0x4414 PUSH1 0xC0 DUP3 ADD MLOAD PUSH1 0x6 DUP11 ADD PUSH2 0x347E JUMP JUMPDEST PUSH2 0x4425 PUSH1 0xE0 DUP3 ADD MLOAD PUSH1 0x7 DUP11 ADD PUSH2 0x347E JUMP JUMPDEST PUSH2 0x4437 PUSH2 0x100 DUP3 ADD MLOAD PUSH1 0x8 DUP11 ADD PUSH2 0x347E JUMP JUMPDEST PUSH2 0x4449 PUSH2 0x120 DUP3 ADD MLOAD PUSH1 0x9 DUP11 ADD PUSH2 0x347E JUMP JUMPDEST PUSH2 0x445B PUSH2 0x140 DUP3 ADD MLOAD PUSH1 0xA DUP11 ADD PUSH2 0x347E JUMP JUMPDEST ADD MLOAD PUSH1 0xB DUP8 ADD PUSH2 0x347E JUMP JUMPDEST PUSH1 0xC DUP6 ADD SWAP1 DUP3 DUP6 ADD MLOAD SWAP3 DUP4 MLOAD SWAP4 PUSH1 0x1 PUSH1 0x1 PUSH1 0x40 SHL SUB DUP6 GT PUSH2 0x1450 JUMPI DUP2 SWAP1 PUSH2 0x448D DUP7 DUP7 PUSH2 0x3545 JUMP JUMPDEST ADD SWAP3 PUSH1 0x0 MSTORE DUP1 PUSH1 0x0 KECCAK256 SWAP2 PUSH1 0x0 JUMPDEST DUP6 DUP2 LT PUSH2 0x44B4 JUMPI POP POP POP POP POP POP POP PUSH1 0x40 PUSH1 0xD SWAP2 ADD MLOAD SWAP2 ADD SSTORE JUMP JUMPDEST DUP5 MLOAD DUP3 AND DUP5 DUP3 ADD SSTORE SWAP4 DUP3 ADD SWAP4 DUP7 ADD PUSH2 0x449A JUMP JUMPDEST SWAP1 PUSH1 0x40 MLOAD PUSH2 0x44D4 DUP2 PUSH2 0x2BC0 JUMP JUMPDEST PUSH1 0x40 PUSH1 0xD DUP3 SWAP5 PUSH2 0x44E3 DUP2 PUSH2 0x2F7D JUMP JUMPDEST DUP5 MSTORE DUP3 MLOAD PUSH2 0x44F8 DUP2 PUSH2 0x288 DUP2 PUSH1 0xC DUP7 ADD PUSH2 0x3381 JUMP JUMPDEST PUSH1 0x20 DUP6 ADD MSTORE ADD SLOAD SWAP2 ADD MSTORE JUMP JUMPDEST SWAP1 PUSH1 0x1 DUP3 ADD DUP1 SWAP3 GT PUSH2 0x1C36 JUMPI JUMP INVALID LOG2 PUSH5 0x6970667358 0x22 SLT KECCAK256 0xA5 REVERT 0x29 SSTORE DUP9 DUP12 RETURNDATACOPY 0xB2 ADDMOD DUP5 0xC1 PUSH31 0x39A0319A0F1E596A32CB6D577C1694DFA119D6EB64736F6C63430008110033 "
		},
		"gasEstimates": {
			"creation": {
				"codeDepositCost": "3547200",
				"executionCost": "infinite",
				"totalCost": "infinite"
			},
			"external": {
				"addCandidate(string,uint256,uint256,string,string,string,string,string,string,string,string,string,string)": "infinite",
				"addFaqComment(address,string,string)": "infinite",
				"addFaqs(string,string,string,string)": "infinite",
				"addParty(string,uint256,string,string)": "infinite",
				"addSelectedCandidates(address[],string)": "infinite",
				"addVoter(string,uint256,uint256,string,string,string,string,string,string,string,string)": "infinite",
				"adminAddress()": "3159",
				"candidateList(uint256)": "infinite",
				"candidateNames(uint256)": "infinite",
				"candidates(address)": "infinite",
				"createElection(string,string,string,string,string,string[])": "infinite",
				"electionList(uint256)": "infinite",
				"elections(string)": "infinite",
				"faqList(uint256)": "infinite",
				"faqs(address)": "infinite",
				"gender_list(uint256)": "infinite",
				"getAllCandidates()": "infinite",
				"getAllElections()": "infinite",
				"getAllFAQs()": "infinite",
				"getAllParties()": "infinite",
				"getAllVoters()": "infinite",
				"getCandidateDetails(address)": "infinite",
				"getPartyDetails(address)": "infinite",
				"getVoterDetails(address)": "infinite",
				"isAdmin(address)": "2521",
				"parties(address)": "infinite",
				"partyList(uint256)": "infinite",
				"partyNames(uint256)": "infinite",
				"totalCandidate()": "2346",
				"totalElection()": "2808",
				"totalFemaleVoters()": "2720",
				"totalMaleVoters()": "2302",
				"totalOtherVoters()": "2324",
				"totalParty()": "3116",
				"totalVoter()": "2610",
				"updateCounter(string)": "infinite",
				"vote(address,string)": "infinite",
				"voteCount()": "3006",
				"voterList(uint256)": "infinite",
				"voterNames(uint256)": "infinite",
				"voters(address)": "infinite"
			}
		},
		"methodIdentifiers": {
			"addCandidate(string,uint256,uint256,string,string,string,string,string,string,string,string,string,string)": "2d23c735",
			"addFaqComment(address,string,string)": "e9af3fc0",
			"addFaqs(string,string,string,string)": "69d2bca1",
			"addParty(string,uint256,string,string)": "1d50384b",
			"addSelectedCandidates(address[],string)": "ef53c6ab",
			"addVoter(string,uint256,uint256,string,string,string,string,string,string,string,string)": "9eda74cf",
			"adminAddress()": "fc6f9468",
			"candidateList(uint256)": "b13c744b",
			"candidateNames(uint256)": "8287e42f",
			"candidates(address)": "8ab66a90",
			"createElection(string,string,string,string,string,string[])": "71c693eb",
			"electionList(uint256)": "defb908f",
			"elections(string)": "4a3ccc96",
			"faqList(uint256)": "9682f9b3",
			"faqs(address)": "0273d66e",
			"gender_list(uint256)": "6394a8fa",
			"getAllCandidates()": "2e6997fe",
			"getAllElections()": "7fd5f268",
			"getAllFAQs()": "2526e05d",
			"getAllParties()": "b867bfcc",
			"getAllVoters()": "35bbe70e",
			"getCandidateDetails(address)": "53ac5dc3",
			"getPartyDetails(address)": "00da7228",
			"getVoterDetails(address)": "ba71bef0",
			"isAdmin(address)": "24d7806c",
			"parties(address)": "4f235207",
			"partyList(uint256)": "640e79b7",
			"partyNames(uint256)": "f3845166",
			"totalCandidate()": "1812dab4",
			"totalElection()": "8d0371ff",
			"totalFemaleVoters()": "7c054c54",
			"totalMaleVoters()": "029c21bd",
			"totalOtherVoters()": "0983f185",
			"totalParty()": "f7c4c25a",
			"totalVoter()": "6332abc9",
			"updateCounter(string)": "b0a4ec42",
			"vote(address,string)": "1bf533a4",
			"voteCount()": "c6384071",
			"voterList(uint256)": "50e2e8af",
			"voterNames(uint256)": "a96278ae",
			"voters(address)": "a3ec138d"
		}
	},
	"abi": [
		{
			"anonymous": false,
			"inputs": [
				{
					"components": [
						{
							"components": [
								{
									"internalType": "address",
									"name": "_id",
									"type": "address"
								},
								{
									"internalType": "string",
									"name": "fullName",
									"type": "string"
								},
								{
									"internalType": "uint256",
									"name": "citizenshipNumber",
									"type": "uint256"
								},
								{
									"internalType": "uint256",
									"name": "age",
									"type": "uint256"
								},
								{
									"internalType": "string",
									"name": "gender",
									"type": "string"
								},
								{
									"internalType": "string",
									"name": "dob",
									"type": "string"
								},
								{
									"internalType": "string",
									"name": "email",
									"type": "string"
								},
								{
									"internalType": "string",
									"name": "profile",
									"type": "string"
								},
								{
									"internalType": "string",
									"name": "province",
									"type": "string"
								},
								{
									"internalType": "string",
									"name": "district",
									"type": "string"
								},
								{
									"internalType": "string",
									"name": "municipality",
									"type": "string"
								},
								{
									"internalType": "string",
									"name": "ward",
									"type": "string"
								}
							],
							"internalType": "struct Structure.User",
							"name": "user",
							"type": "tuple"
						},
						{
							"internalType": "string",
							"name": "partyName",
							"type": "string"
						},
						{
							"internalType": "string",
							"name": "agenda",
							"type": "string"
						},
						{
							"internalType": "uint256",
							"name": "voteCount",
							"type": "uint256"
						},
						{
							"internalType": "address[]",
							"name": "votedVoterLists",
							"type": "address[]"
						}
					],
					"indexed": false,
					"internalType": "struct Structure.Candidate",
					"name": "candidate",
					"type": "tuple"
				}
			],
			"name": "CandidateCreated",
			"type": "event"
		},
		{
			"anonymous": false,
			"inputs": [
				{
					"components": [
						{
							"internalType": "address",
							"name": "_id",
							"type": "address"
						},
						{
							"internalType": "string",
							"name": "title",
							"type": "string"
						},
						{
							"internalType": "string",
							"name": "description",
							"type": "string"
						},
						{
							"internalType": "string",
							"name": "fileUrl",
							"type": "string"
						},
						{
							"internalType": "string",
							"name": "createdAt",
							"type": "string"
						},
						{
							"components": [
								{
									"internalType": "address",
									"name": "userId",
									"type": "address"
								},
								{
									"internalType": "string",
									"name": "replyMsg",
									"type": "string"
								},
								{
									"internalType": "string",
									"name": "createdAt",
									"type": "string"
								}
							],
							"internalType": "struct Structure.ReplyComment[]",
							"name": "comments",
							"type": "tuple[]"
						}
					],
					"indexed": false,
					"internalType": "struct Structure.FAQ",
					"name": "faq",
					"type": "tuple"
				}
			],
			"name": "NewFaqAdded",
			"type": "event"
		},
		{
			"anonymous": false,
			"inputs": [
				{
					"components": [
						{
							"internalType": "address",
							"name": "owner",
							"type": "address"
						},
						{
							"internalType": "string",
							"name": "name",
							"type": "string"
						},
						{
							"internalType": "uint256",
							"name": "totalMember",
							"type": "uint256"
						},
						{
							"internalType": "string",
							"name": "agenda",
							"type": "string"
						},
						{
							"internalType": "string",
							"name": "logoUrl",
							"type": "string"
						},
						{
							"internalType": "address[]",
							"name": "members",
							"type": "address[]"
						}
					],
					"indexed": false,
					"internalType": "struct Structure.Party",
					"name": "party",
					"type": "tuple"
				}
			],
			"name": "PartyCreated",
			"type": "event"
		},
		{
			"anonymous": false,
			"inputs": [
				{
					"components": [
						{
							"components": [
								{
									"internalType": "address",
									"name": "_id",
									"type": "address"
								},
								{
									"internalType": "string",
									"name": "fullName",
									"type": "string"
								},
								{
									"internalType": "uint256",
									"name": "citizenshipNumber",
									"type": "uint256"
								},
								{
									"internalType": "uint256",
									"name": "age",
									"type": "uint256"
								},
								{
									"internalType": "string",
									"name": "gender",
									"type": "string"
								},
								{
									"internalType": "string",
									"name": "dob",
									"type": "string"
								},
								{
									"internalType": "string",
									"name": "email",
									"type": "string"
								},
								{
									"internalType": "string",
									"name": "profile",
									"type": "string"
								},
								{
									"internalType": "string",
									"name": "province",
									"type": "string"
								},
								{
									"internalType": "string",
									"name": "district",
									"type": "string"
								},
								{
									"internalType": "string",
									"name": "municipality",
									"type": "string"
								},
								{
									"internalType": "string",
									"name": "ward",
									"type": "string"
								}
							],
							"internalType": "struct Structure.User",
							"name": "user",
							"type": "tuple"
						},
						{
							"internalType": "string",
							"name": "partyName",
							"type": "string"
						},
						{
							"internalType": "string",
							"name": "agenda",
							"type": "string"
						},
						{
							"internalType": "uint256",
							"name": "voteCount",
							"type": "uint256"
						},
						{
							"internalType": "address[]",
							"name": "votedVoterLists",
							"type": "address[]"
						}
					],
					"indexed": false,
					"internalType": "struct Structure.Candidate",
					"name": "candidate",
					"type": "tuple"
				}
			],
			"name": "VoteCast",
			"type": "event"
		},
		{
			"anonymous": false,
			"inputs": [
				{
					"components": [
						{
							"components": [
								{
									"internalType": "address",
									"name": "_id",
									"type": "address"
								},
								{
									"internalType": "string",
									"name": "fullName",
									"type": "string"
								},
								{
									"internalType": "uint256",
									"name": "citizenshipNumber",
									"type": "uint256"
								},
								{
									"internalType": "uint256",
									"name": "age",
									"type": "uint256"
								},
								{
									"internalType": "string",
									"name": "gender",
									"type": "string"
								},
								{
									"internalType": "string",
									"name": "dob",
									"type": "string"
								},
								{
									"internalType": "string",
									"name": "email",
									"type": "string"
								},
								{
									"internalType": "string",
									"name": "profile",
									"type": "string"
								},
								{
									"internalType": "string",
									"name": "province",
									"type": "string"
								},
								{
									"internalType": "string",
									"name": "district",
									"type": "string"
								},
								{
									"internalType": "string",
									"name": "municipality",
									"type": "string"
								},
								{
									"internalType": "string",
									"name": "ward",
									"type": "string"
								}
							],
							"internalType": "struct Structure.User",
							"name": "user",
							"type": "tuple"
						},
						{
							"internalType": "address[]",
							"name": "votedCandidateList",
							"type": "address[]"
						},
						{
							"internalType": "uint256",
							"name": "voteLimitCount",
							"type": "uint256"
						}
					],
					"indexed": false,
					"internalType": "struct Structure.Voter",
					"name": "voter",
					"type": "tuple"
				}
			],
			"name": "VoterCreated",
			"type": "event"
		},
		{
			"anonymous": false,
			"inputs": [
				{
					"components": [
						{
							"internalType": "string",
							"name": "title",
							"type": "string"
						},
						{
							"internalType": "string",
							"name": "description",
							"type": "string"
						},
						{
							"internalType": "string",
							"name": "startDate",
							"type": "string"
						},
						{
							"internalType": "string",
							"name": "endDate",
							"type": "string"
						},
						{
							"internalType": "string",
							"name": "electionType",
							"type": "string"
						},
						{
							"components": [
								{
									"components": [
										{
											"internalType": "address",
											"name": "_id",
											"type": "address"
										},
										{
											"internalType": "string",
											"name": "fullName",
											"type": "string"
										},
										{
											"internalType": "uint256",
											"name": "citizenshipNumber",
											"type": "uint256"
										},
										{
											"internalType": "uint256",
											"name": "age",
											"type": "uint256"
										},
										{
											"internalType": "string",
											"name": "gender",
											"type": "string"
										},
										{
											"internalType": "string",
											"name": "dob",
											"type": "string"
										},
										{
											"internalType": "string",
											"name": "email",
											"type": "string"
										},
										{
											"internalType": "string",
											"name": "profile",
											"type": "string"
										},
										{
											"internalType": "string",
											"name": "province",
											"type": "string"
										},
										{
											"internalType": "string",
											"name": "district",
											"type": "string"
										},
										{
											"internalType": "string",
											"name": "municipality",
											"type": "string"
										},
										{
											"internalType": "string",
											"name": "ward",
											"type": "string"
										}
									],
									"internalType": "struct Structure.User",
									"name": "user",
									"type": "tuple"
								},
								{
									"internalType": "string",
									"name": "partyName",
									"type": "string"
								},
								{
									"internalType": "string",
									"name": "agenda",
									"type": "string"
								},
								{
									"internalType": "uint256",
									"name": "voteCount",
									"type": "uint256"
								},
								{
									"internalType": "address[]",
									"name": "votedVoterLists",
									"type": "address[]"
								}
							],
							"internalType": "struct Structure.Candidate[]",
							"name": "candidates",
							"type": "tuple[]"
						},
						{
							"internalType": "string[]",
							"name": "galleryImagesUrl",
							"type": "string[]"
						}
					],
					"indexed": false,
					"internalType": "struct Structure.Election",
					"name": "election",
					"type": "tuple"
				}
			],
			"name": "electionStart",
			"type": "event"
		},
		{
			"inputs": [
				{
					"internalType": "string",
					"name": "_name",
					"type": "string"
				},
				{
					"internalType": "uint256",
					"name": "_citizenshipNo",
					"type": "uint256"
				},
				{
					"internalType": "uint256",
					"name": "_age",
					"type": "uint256"
				},
				{
					"internalType": "string",
					"name": "_agenda",
					"type": "string"
				},
				{
					"internalType": "string",
					"name": "_dob",
					"type": "string"
				},
				{
					"internalType": "string",
					"name": "_email",
					"type": "string"
				},
				{
					"internalType": "string",
					"name": "_profile",
					"type": "string"
				},
				{
					"internalType": "string",
					"name": "_partyName",
					"type": "string"
				},
				{
					"internalType": "string",
					"name": "_province",
					"type": "string"
				},
				{
					"internalType": "string",
					"name": "_district",
					"type": "string"
				},
				{
					"internalType": "string",
					"name": "_municipality",
					"type": "string"
				},
				{
					"internalType": "string",
					"name": "_ward",
					"type": "string"
				},
				{
					"internalType": "string",
					"name": "_gender",
					"type": "string"
				}
			],
			"name": "addCandidate",
			"outputs": [],
			"stateMutability": "payable",
			"type": "function"
		},
		{
			"inputs": [
				{
					"internalType": "address",
					"name": "faqId",
					"type": "address"
				},
				{
					"internalType": "string",
					"name": "replyMsg",
					"type": "string"
				},
				{
					"internalType": "string",
					"name": "createdAt",
					"type": "string"
				}
			],
			"name": "addFaqComment",
			"outputs": [],
			"stateMutability": "payable",
			"type": "function"
		},
		{
			"inputs": [
				{
					"internalType": "string",
					"name": "title",
					"type": "string"
				},
				{
					"internalType": "string",
					"name": "description",
					"type": "string"
				},
				{
					"internalType": "string",
					"name": "fileUrl",
					"type": "string"
				},
				{
					"internalType": "string",
					"name": "createdAt",
					"type": "string"
				}
			],
			"name": "addFaqs",
			"outputs": [],
			"stateMutability": "payable",
			"type": "function"
		},
		{
			"inputs": [
				{
					"internalType": "string",
					"name": "_name",
					"type": "string"
				},
				{
					"internalType": "uint256",
					"name": "_totalMember",
					"type": "uint256"
				},
				{
					"internalType": "string",
					"name": "_agenda",
					"type": "string"
				},
				{
					"internalType": "string",
					"name": "_logoUrl",
					"type": "string"
				}
			],
			"name": "addParty",
			"outputs": [],
			"stateMutability": "payable",
			"type": "function"
		},
		{
			"inputs": [
				{
					"internalType": "address[]",
					"name": "_selectedCandidates",
					"type": "address[]"
				},
				{
					"internalType": "string",
					"name": "electionAddress",
					"type": "string"
				}
			],
			"name": "addSelectedCandidates",
			"outputs": [],
			"stateMutability": "payable",
			"type": "function"
		},
		{
			"inputs": [
				{
					"internalType": "string",
					"name": "_name",
					"type": "string"
				},
				{
					"internalType": "uint256",
					"name": "_citizenshipNo",
					"type": "uint256"
				},
				{
					"internalType": "uint256",
					"name": "_age",
					"type": "uint256"
				},
				{
					"internalType": "string",
					"name": "_dob",
					"type": "string"
				},
				{
					"internalType": "string",
					"name": "_email",
					"type": "string"
				},
				{
					"internalType": "string",
					"name": "_profile",
					"type": "string"
				},
				{
					"internalType": "string",
					"name": "_province",
					"type": "string"
				},
				{
					"internalType": "string",
					"name": "_district",
					"type": "string"
				},
				{
					"internalType": "string",
					"name": "_municipality",
					"type": "string"
				},
				{
					"internalType": "string",
					"name": "_ward",
					"type": "string"
				},
				{
					"internalType": "string",
					"name": "_gender",
					"type": "string"
				}
			],
			"name": "addVoter",
			"outputs": [],
			"stateMutability": "payable",
			"type": "function"
		},
		{
			"inputs": [],
			"name": "adminAddress",
			"outputs": [
				{
					"internalType": "address",
					"name": "",
					"type": "address"
				}
			],
			"stateMutability": "view",
			"type": "function"
		},
		{
			"inputs": [
				{
					"internalType": "uint256",
					"name": "",
					"type": "uint256"
				}
			],
			"name": "candidateList",
			"outputs": [
				{
					"components": [
						{
							"internalType": "address",
							"name": "_id",
							"type": "address"
						},
						{
							"internalType": "string",
							"name": "fullName",
							"type": "string"
						},
						{
							"internalType": "uint256",
							"name": "citizenshipNumber",
							"type": "uint256"
						},
						{
							"internalType": "uint256",
							"name": "age",
							"type": "uint256"
						},
						{
							"internalType": "string",
							"name": "gender",
							"type": "string"
						},
						{
							"internalType": "string",
							"name": "dob",
							"type": "string"
						},
						{
							"internalType": "string",
							"name": "email",
							"type": "string"
						},
						{
							"internalType": "string",
							"name": "profile",
							"type": "string"
						},
						{
							"internalType": "string",
							"name": "province",
							"type": "string"
						},
						{
							"internalType": "string",
							"name": "district",
							"type": "string"
						},
						{
							"internalType": "string",
							"name": "municipality",
							"type": "string"
						},
						{
							"internalType": "string",
							"name": "ward",
							"type": "string"
						}
					],
					"internalType": "struct Structure.User",
					"name": "user",
					"type": "tuple"
				},
				{
					"internalType": "string",
					"name": "partyName",
					"type": "string"
				},
				{
					"internalType": "string",
					"name": "agenda",
					"type": "string"
				},
				{
					"internalType": "uint256",
					"name": "voteCount",
					"type": "uint256"
				}
			],
			"stateMutability": "view",
			"type": "function"
		},
		{
			"inputs": [
				{
					"internalType": "uint256",
					"name": "",
					"type": "uint256"
				}
			],
			"name": "candidateNames",
			"outputs": [
				{
					"internalType": "string",
					"name": "",
					"type": "string"
				}
			],
			"stateMutability": "view",
			"type": "function"
		},
		{
			"inputs": [
				{
					"internalType": "address",
					"name": "",
					"type": "address"
				}
			],
			"name": "candidates",
			"outputs": [
				{
					"components": [
						{
							"internalType": "address",
							"name": "_id",
							"type": "address"
						},
						{
							"internalType": "string",
							"name": "fullName",
							"type": "string"
						},
						{
							"internalType": "uint256",
							"name": "citizenshipNumber",
							"type": "uint256"
						},
						{
							"internalType": "uint256",
							"name": "age",
							"type": "uint256"
						},
						{
							"internalType": "string",
							"name": "gender",
							"type": "string"
						},
						{
							"internalType": "string",
							"name": "dob",
							"type": "string"
						},
						{
							"internalType": "string",
							"name": "email",
							"type": "string"
						},
						{
							"internalType": "string",
							"name": "profile",
							"type": "string"
						},
						{
							"internalType": "string",
							"name": "province",
							"type": "string"
						},
						{
							"internalType": "string",
							"name": "district",
							"type": "string"
						},
						{
							"internalType": "string",
							"name": "municipality",
							"type": "string"
						},
						{
							"internalType": "string",
							"name": "ward",
							"type": "string"
						}
					],
					"internalType": "struct Structure.User",
					"name": "user",
					"type": "tuple"
				},
				{
					"internalType": "string",
					"name": "partyName",
					"type": "string"
				},
				{
					"internalType": "string",
					"name": "agenda",
					"type": "string"
				},
				{
					"internalType": "uint256",
					"name": "voteCount",
					"type": "uint256"
				}
			],
			"stateMutability": "view",
			"type": "function"
		},
		{
			"inputs": [
				{
					"internalType": "string",
					"name": "_title",
					"type": "string"
				},
				{
					"internalType": "string",
					"name": "_description",
					"type": "string"
				},
				{
					"internalType": "string",
					"name": "_startDate",
					"type": "string"
				},
				{
					"internalType": "string",
					"name": "_endDate",
					"type": "string"
				},
				{
					"internalType": "string",
					"name": "_electionType",
					"type": "string"
				},
				{
					"internalType": "string[]",
					"name": "galleryImagesUrl",
					"type": "string[]"
				}
			],
			"name": "createElection",
			"outputs": [],
			"stateMutability": "payable",
			"type": "function"
		},
		{
			"inputs": [
				{
					"internalType": "uint256",
					"name": "",
					"type": "uint256"
				}
			],
			"name": "electionList",
			"outputs": [
				{
					"internalType": "string",
					"name": "title",
					"type": "string"
				},
				{
					"internalType": "string",
					"name": "description",
					"type": "string"
				},
				{
					"internalType": "string",
					"name": "startDate",
					"type": "string"
				},
				{
					"internalType": "string",
					"name": "endDate",
					"type": "string"
				},
				{
					"internalType": "string",
					"name": "electionType",
					"type": "string"
				}
			],
			"stateMutability": "view",
			"type": "function"
		},
		{
			"inputs": [
				{
					"internalType": "string",
					"name": "",
					"type": "string"
				}
			],
			"name": "elections",
			"outputs": [
				{
					"internalType": "string",
					"name": "title",
					"type": "string"
				},
				{
					"internalType": "string",
					"name": "description",
					"type": "string"
				},
				{
					"internalType": "string",
					"name": "startDate",
					"type": "string"
				},
				{
					"internalType": "string",
					"name": "endDate",
					"type": "string"
				},
				{
					"internalType": "string",
					"name": "electionType",
					"type": "string"
				}
			],
			"stateMutability": "view",
			"type": "function"
		},
		{
			"inputs": [
				{
					"internalType": "uint256",
					"name": "",
					"type": "uint256"
				}
			],
			"name": "faqList",
			"outputs": [
				{
					"internalType": "address",
					"name": "_id",
					"type": "address"
				},
				{
					"internalType": "string",
					"name": "title",
					"type": "string"
				},
				{
					"internalType": "string",
					"name": "description",
					"type": "string"
				},
				{
					"internalType": "string",
					"name": "fileUrl",
					"type": "string"
				},
				{
					"internalType": "string",
					"name": "createdAt",
					"type": "string"
				}
			],
			"stateMutability": "view",
			"type": "function"
		},
		{
			"inputs": [
				{
					"internalType": "address",
					"name": "",
					"type": "address"
				}
			],
			"name": "faqs",
			"outputs": [
				{
					"internalType": "address",
					"name": "_id",
					"type": "address"
				},
				{
					"internalType": "string",
					"name": "title",
					"type": "string"
				},
				{
					"internalType": "string",
					"name": "description",
					"type": "string"
				},
				{
					"internalType": "string",
					"name": "fileUrl",
					"type": "string"
				},
				{
					"internalType": "string",
					"name": "createdAt",
					"type": "string"
				}
			],
			"stateMutability": "view",
			"type": "function"
		},
		{
			"inputs": [
				{
					"internalType": "uint256",
					"name": "",
					"type": "uint256"
				}
			],
			"name": "gender_list",
			"outputs": [
				{
					"internalType": "string",
					"name": "",
					"type": "string"
				}
			],
			"stateMutability": "view",
			"type": "function"
		},
		{
			"inputs": [],
			"name": "getAllCandidates",
			"outputs": [
				{
					"components": [
						{
							"components": [
								{
									"internalType": "address",
									"name": "_id",
									"type": "address"
								},
								{
									"internalType": "string",
									"name": "fullName",
									"type": "string"
								},
								{
									"internalType": "uint256",
									"name": "citizenshipNumber",
									"type": "uint256"
								},
								{
									"internalType": "uint256",
									"name": "age",
									"type": "uint256"
								},
								{
									"internalType": "string",
									"name": "gender",
									"type": "string"
								},
								{
									"internalType": "string",
									"name": "dob",
									"type": "string"
								},
								{
									"internalType": "string",
									"name": "email",
									"type": "string"
								},
								{
									"internalType": "string",
									"name": "profile",
									"type": "string"
								},
								{
									"internalType": "string",
									"name": "province",
									"type": "string"
								},
								{
									"internalType": "string",
									"name": "district",
									"type": "string"
								},
								{
									"internalType": "string",
									"name": "municipality",
									"type": "string"
								},
								{
									"internalType": "string",
									"name": "ward",
									"type": "string"
								}
							],
							"internalType": "struct Structure.User",
							"name": "user",
							"type": "tuple"
						},
						{
							"internalType": "string",
							"name": "partyName",
							"type": "string"
						},
						{
							"internalType": "string",
							"name": "agenda",
							"type": "string"
						},
						{
							"internalType": "uint256",
							"name": "voteCount",
							"type": "uint256"
						},
						{
							"internalType": "address[]",
							"name": "votedVoterLists",
							"type": "address[]"
						}
					],
					"internalType": "struct Structure.Candidate[]",
					"name": "",
					"type": "tuple[]"
				}
			],
			"stateMutability": "view",
			"type": "function"
		},
		{
			"inputs": [],
			"name": "getAllElections",
			"outputs": [
				{
					"components": [
						{
							"internalType": "string",
							"name": "title",
							"type": "string"
						},
						{
							"internalType": "string",
							"name": "description",
							"type": "string"
						},
						{
							"internalType": "string",
							"name": "startDate",
							"type": "string"
						},
						{
							"internalType": "string",
							"name": "endDate",
							"type": "string"
						},
						{
							"internalType": "string",
							"name": "electionType",
							"type": "string"
						},
						{
							"components": [
								{
									"components": [
										{
											"internalType": "address",
											"name": "_id",
											"type": "address"
										},
										{
											"internalType": "string",
											"name": "fullName",
											"type": "string"
										},
										{
											"internalType": "uint256",
											"name": "citizenshipNumber",
											"type": "uint256"
										},
										{
											"internalType": "uint256",
											"name": "age",
											"type": "uint256"
										},
										{
											"internalType": "string",
											"name": "gender",
											"type": "string"
										},
										{
											"internalType": "string",
											"name": "dob",
											"type": "string"
										},
										{
											"internalType": "string",
											"name": "email",
											"type": "string"
										},
										{
											"internalType": "string",
											"name": "profile",
											"type": "string"
										},
										{
											"internalType": "string",
											"name": "province",
											"type": "string"
										},
										{
											"internalType": "string",
											"name": "district",
											"type": "string"
										},
										{
											"internalType": "string",
											"name": "municipality",
											"type": "string"
										},
										{
											"internalType": "string",
											"name": "ward",
											"type": "string"
										}
									],
									"internalType": "struct Structure.User",
									"name": "user",
									"type": "tuple"
								},
								{
									"internalType": "string",
									"name": "partyName",
									"type": "string"
								},
								{
									"internalType": "string",
									"name": "agenda",
									"type": "string"
								},
								{
									"internalType": "uint256",
									"name": "voteCount",
									"type": "uint256"
								},
								{
									"internalType": "address[]",
									"name": "votedVoterLists",
									"type": "address[]"
								}
							],
							"internalType": "struct Structure.Candidate[]",
							"name": "candidates",
							"type": "tuple[]"
						},
						{
							"internalType": "string[]",
							"name": "galleryImagesUrl",
							"type": "string[]"
						}
					],
					"internalType": "struct Structure.Election[]",
					"name": "",
					"type": "tuple[]"
				}
			],
			"stateMutability": "view",
			"type": "function"
		},
		{
			"inputs": [],
			"name": "getAllFAQs",
			"outputs": [
				{
					"components": [
						{
							"internalType": "address",
							"name": "_id",
							"type": "address"
						},
						{
							"internalType": "string",
							"name": "title",
							"type": "string"
						},
						{
							"internalType": "string",
							"name": "description",
							"type": "string"
						},
						{
							"internalType": "string",
							"name": "fileUrl",
							"type": "string"
						},
						{
							"internalType": "string",
							"name": "createdAt",
							"type": "string"
						},
						{
							"components": [
								{
									"internalType": "address",
									"name": "userId",
									"type": "address"
								},
								{
									"internalType": "string",
									"name": "replyMsg",
									"type": "string"
								},
								{
									"internalType": "string",
									"name": "createdAt",
									"type": "string"
								}
							],
							"internalType": "struct Structure.ReplyComment[]",
							"name": "comments",
							"type": "tuple[]"
						}
					],
					"internalType": "struct Structure.FAQ[]",
					"name": "",
					"type": "tuple[]"
				}
			],
			"stateMutability": "view",
			"type": "function"
		},
		{
			"inputs": [],
			"name": "getAllParties",
			"outputs": [
				{
					"components": [
						{
							"internalType": "address",
							"name": "owner",
							"type": "address"
						},
						{
							"internalType": "string",
							"name": "name",
							"type": "string"
						},
						{
							"internalType": "uint256",
							"name": "totalMember",
							"type": "uint256"
						},
						{
							"internalType": "string",
							"name": "agenda",
							"type": "string"
						},
						{
							"internalType": "string",
							"name": "logoUrl",
							"type": "string"
						},
						{
							"internalType": "address[]",
							"name": "members",
							"type": "address[]"
						}
					],
					"internalType": "struct Structure.Party[]",
					"name": "",
					"type": "tuple[]"
				}
			],
			"stateMutability": "view",
			"type": "function"
		},
		{
			"inputs": [],
			"name": "getAllVoters",
			"outputs": [
				{
					"components": [
						{
							"components": [
								{
									"internalType": "address",
									"name": "_id",
									"type": "address"
								},
								{
									"internalType": "string",
									"name": "fullName",
									"type": "string"
								},
								{
									"internalType": "uint256",
									"name": "citizenshipNumber",
									"type": "uint256"
								},
								{
									"internalType": "uint256",
									"name": "age",
									"type": "uint256"
								},
								{
									"internalType": "string",
									"name": "gender",
									"type": "string"
								},
								{
									"internalType": "string",
									"name": "dob",
									"type": "string"
								},
								{
									"internalType": "string",
									"name": "email",
									"type": "string"
								},
								{
									"internalType": "string",
									"name": "profile",
									"type": "string"
								},
								{
									"internalType": "string",
									"name": "province",
									"type": "string"
								},
								{
									"internalType": "string",
									"name": "district",
									"type": "string"
								},
								{
									"internalType": "string",
									"name": "municipality",
									"type": "string"
								},
								{
									"internalType": "string",
									"name": "ward",
									"type": "string"
								}
							],
							"internalType": "struct Structure.User",
							"name": "user",
							"type": "tuple"
						},
						{
							"internalType": "address[]",
							"name": "votedCandidateList",
							"type": "address[]"
						},
						{
							"internalType": "uint256",
							"name": "voteLimitCount",
							"type": "uint256"
						}
					],
					"internalType": "struct Structure.Voter[]",
					"name": "",
					"type": "tuple[]"
				}
			],
			"stateMutability": "view",
			"type": "function"
		},
		{
			"inputs": [
				{
					"internalType": "address",
					"name": "_id",
					"type": "address"
				}
			],
			"name": "getCandidateDetails",
			"outputs": [
				{
					"components": [
						{
							"components": [
								{
									"internalType": "address",
									"name": "_id",
									"type": "address"
								},
								{
									"internalType": "string",
									"name": "fullName",
									"type": "string"
								},
								{
									"internalType": "uint256",
									"name": "citizenshipNumber",
									"type": "uint256"
								},
								{
									"internalType": "uint256",
									"name": "age",
									"type": "uint256"
								},
								{
									"internalType": "string",
									"name": "gender",
									"type": "string"
								},
								{
									"internalType": "string",
									"name": "dob",
									"type": "string"
								},
								{
									"internalType": "string",
									"name": "email",
									"type": "string"
								},
								{
									"internalType": "string",
									"name": "profile",
									"type": "string"
								},
								{
									"internalType": "string",
									"name": "province",
									"type": "string"
								},
								{
									"internalType": "string",
									"name": "district",
									"type": "string"
								},
								{
									"internalType": "string",
									"name": "municipality",
									"type": "string"
								},
								{
									"internalType": "string",
									"name": "ward",
									"type": "string"
								}
							],
							"internalType": "struct Structure.User",
							"name": "user",
							"type": "tuple"
						},
						{
							"internalType": "string",
							"name": "partyName",
							"type": "string"
						},
						{
							"internalType": "string",
							"name": "agenda",
							"type": "string"
						},
						{
							"internalType": "uint256",
							"name": "voteCount",
							"type": "uint256"
						},
						{
							"internalType": "address[]",
							"name": "votedVoterLists",
							"type": "address[]"
						}
					],
					"internalType": "struct Structure.Candidate",
					"name": "",
					"type": "tuple"
				}
			],
			"stateMutability": "view",
			"type": "function"
		},
		{
			"inputs": [
				{
					"internalType": "address",
					"name": "owner",
					"type": "address"
				}
			],
			"name": "getPartyDetails",
			"outputs": [
				{
					"components": [
						{
							"internalType": "address",
							"name": "owner",
							"type": "address"
						},
						{
							"internalType": "string",
							"name": "name",
							"type": "string"
						},
						{
							"internalType": "uint256",
							"name": "totalMember",
							"type": "uint256"
						},
						{
							"internalType": "string",
							"name": "agenda",
							"type": "string"
						},
						{
							"internalType": "string",
							"name": "logoUrl",
							"type": "string"
						},
						{
							"internalType": "address[]",
							"name": "members",
							"type": "address[]"
						}
					],
					"internalType": "struct Structure.Party",
					"name": "",
					"type": "tuple"
				}
			],
			"stateMutability": "view",
			"type": "function"
		},
		{
			"inputs": [
				{
					"internalType": "address",
					"name": "_id",
					"type": "address"
				}
			],
			"name": "getVoterDetails",
			"outputs": [
				{
					"components": [
						{
							"components": [
								{
									"internalType": "address",
									"name": "_id",
									"type": "address"
								},
								{
									"internalType": "string",
									"name": "fullName",
									"type": "string"
								},
								{
									"internalType": "uint256",
									"name": "citizenshipNumber",
									"type": "uint256"
								},
								{
									"internalType": "uint256",
									"name": "age",
									"type": "uint256"
								},
								{
									"internalType": "string",
									"name": "gender",
									"type": "string"
								},
								{
									"internalType": "string",
									"name": "dob",
									"type": "string"
								},
								{
									"internalType": "string",
									"name": "email",
									"type": "string"
								},
								{
									"internalType": "string",
									"name": "profile",
									"type": "string"
								},
								{
									"internalType": "string",
									"name": "province",
									"type": "string"
								},
								{
									"internalType": "string",
									"name": "district",
									"type": "string"
								},
								{
									"internalType": "string",
									"name": "municipality",
									"type": "string"
								},
								{
									"internalType": "string",
									"name": "ward",
									"type": "string"
								}
							],
							"internalType": "struct Structure.User",
							"name": "user",
							"type": "tuple"
						},
						{
							"internalType": "address[]",
							"name": "votedCandidateList",
							"type": "address[]"
						},
						{
							"internalType": "uint256",
							"name": "voteLimitCount",
							"type": "uint256"
						}
					],
					"internalType": "struct Structure.Voter",
					"name": "",
					"type": "tuple"
				}
			],
			"stateMutability": "view",
			"type": "function"
		},
		{
			"inputs": [
				{
					"internalType": "address",
					"name": "_id",
					"type": "address"
				}
			],
			"name": "isAdmin",
			"outputs": [
				{
					"internalType": "bool",
					"name": "",
					"type": "bool"
				}
			],
			"stateMutability": "view",
			"type": "function"
		},
		{
			"inputs": [
				{
					"internalType": "address",
					"name": "",
					"type": "address"
				}
			],
			"name": "parties",
			"outputs": [
				{
					"internalType": "address",
					"name": "owner",
					"type": "address"
				},
				{
					"internalType": "string",
					"name": "name",
					"type": "string"
				},
				{
					"internalType": "uint256",
					"name": "totalMember",
					"type": "uint256"
				},
				{
					"internalType": "string",
					"name": "agenda",
					"type": "string"
				},
				{
					"internalType": "string",
					"name": "logoUrl",
					"type": "string"
				}
			],
			"stateMutability": "view",
			"type": "function"
		},
		{
			"inputs": [
				{
					"internalType": "uint256",
					"name": "",
					"type": "uint256"
				}
			],
			"name": "partyList",
			"outputs": [
				{
					"internalType": "address",
					"name": "owner",
					"type": "address"
				},
				{
					"internalType": "string",
					"name": "name",
					"type": "string"
				},
				{
					"internalType": "uint256",
					"name": "totalMember",
					"type": "uint256"
				},
				{
					"internalType": "string",
					"name": "agenda",
					"type": "string"
				},
				{
					"internalType": "string",
					"name": "logoUrl",
					"type": "string"
				}
			],
			"stateMutability": "view",
			"type": "function"
		},
		{
			"inputs": [
				{
					"internalType": "uint256",
					"name": "",
					"type": "uint256"
				}
			],
			"name": "partyNames",
			"outputs": [
				{
					"internalType": "string",
					"name": "",
					"type": "string"
				}
			],
			"stateMutability": "view",
			"type": "function"
		},
		{
			"inputs": [],
			"name": "totalCandidate",
			"outputs": [
				{
					"internalType": "uint256",
					"name": "",
					"type": "uint256"
				}
			],
			"stateMutability": "view",
			"type": "function"
		},
		{
			"inputs": [],
			"name": "totalElection",
			"outputs": [
				{
					"internalType": "uint256",
					"name": "",
					"type": "uint256"
				}
			],
			"stateMutability": "view",
			"type": "function"
		},
		{
			"inputs": [],
			"name": "totalFemaleVoters",
			"outputs": [
				{
					"internalType": "uint256",
					"name": "",
					"type": "uint256"
				}
			],
			"stateMutability": "view",
			"type": "function"
		},
		{
			"inputs": [],
			"name": "totalMaleVoters",
			"outputs": [
				{
					"internalType": "uint256",
					"name": "",
					"type": "uint256"
				}
			],
			"stateMutability": "view",
			"type": "function"
		},
		{
			"inputs": [],
			"name": "totalOtherVoters",
			"outputs": [
				{
					"internalType": "uint256",
					"name": "",
					"type": "uint256"
				}
			],
			"stateMutability": "view",
			"type": "function"
		},
		{
			"inputs": [],
			"name": "totalParty",
			"outputs": [
				{
					"internalType": "uint256",
					"name": "",
					"type": "uint256"
				}
			],
			"stateMutability": "view",
			"type": "function"
		},
		{
			"inputs": [],
			"name": "totalVoter",
			"outputs": [
				{
					"internalType": "uint256",
					"name": "",
					"type": "uint256"
				}
			],
			"stateMutability": "view",
			"type": "function"
		},
		{
			"inputs": [
				{
					"internalType": "string",
					"name": "_gender",
					"type": "string"
				}
			],
			"name": "updateCounter",
			"outputs": [],
			"stateMutability": "nonpayable",
			"type": "function"
		},
		{
			"inputs": [
				{
					"internalType": "address",
					"name": "_candidateId",
					"type": "address"
				},
				{
					"internalType": "string",
					"name": "electionAddress",
					"type": "string"
				}
			],
			"name": "vote",
			"outputs": [],
			"stateMutability": "payable",
			"type": "function"
		},
		{
			"inputs": [],
			"name": "voteCount",
			"outputs": [
				{
					"internalType": "uint256",
					"name": "",
					"type": "uint256"
				}
			],
			"stateMutability": "view",
			"type": "function"
		},
		{
			"inputs": [
				{
					"internalType": "uint256",
					"name": "",
					"type": "uint256"
				}
			],
			"name": "voterList",
			"outputs": [
				{
					"components": [
						{
							"internalType": "address",
							"name": "_id",
							"type": "address"
						},
						{
							"internalType": "string",
							"name": "fullName",
							"type": "string"
						},
						{
							"internalType": "uint256",
							"name": "citizenshipNumber",
							"type": "uint256"
						},
						{
							"internalType": "uint256",
							"name": "age",
							"type": "uint256"
						},
						{
							"internalType": "string",
							"name": "gender",
							"type": "string"
						},
						{
							"internalType": "string",
							"name": "dob",
							"type": "string"
						},
						{
							"internalType": "string",
							"name": "email",
							"type": "string"
						},
						{
							"internalType": "string",
							"name": "profile",
							"type": "string"
						},
						{
							"internalType": "string",
							"name": "province",
							"type": "string"
						},
						{
							"internalType": "string",
							"name": "district",
							"type": "string"
						},
						{
							"internalType": "string",
							"name": "municipality",
							"type": "string"
						},
						{
							"internalType": "string",
							"name": "ward",
							"type": "string"
						}
					],
					"internalType": "struct Structure.User",
					"name": "user",
					"type": "tuple"
				},
				{
					"internalType": "uint256",
					"name": "voteLimitCount",
					"type": "uint256"
				}
			],
			"stateMutability": "view",
			"type": "function"
		},
		{
			"inputs": [
				{
					"internalType": "uint256",
					"name": "",
					"type": "uint256"
				}
			],
			"name": "voterNames",
			"outputs": [
				{
					"internalType": "string",
					"name": "",
					"type": "string"
				}
			],
			"stateMutability": "view",
			"type": "function"
		},
		{
			"inputs": [
				{
					"internalType": "address",
					"name": "",
					"type": "address"
				}
			],
			"name": "voters",
			"outputs": [
				{
					"components": [
						{
							"internalType": "address",
							"name": "_id",
							"type": "address"
						},
						{
							"internalType": "string",
							"name": "fullName",
							"type": "string"
						},
						{
							"internalType": "uint256",
							"name": "citizenshipNumber",
							"type": "uint256"
						},
						{
							"internalType": "uint256",
							"name": "age",
							"type": "uint256"
						},
						{
							"internalType": "string",
							"name": "gender",
							"type": "string"
						},
						{
							"internalType": "string",
							"name": "dob",
							"type": "string"
						},
						{
							"internalType": "string",
							"name": "email",
							"type": "string"
						},
						{
							"internalType": "string",
							"name": "profile",
							"type": "string"
						},
						{
							"internalType": "string",
							"name": "province",
							"type": "string"
						},
						{
							"internalType": "string",
							"name": "district",
							"type": "string"
						},
						{
							"internalType": "string",
							"name": "municipality",
							"type": "string"
						},
						{
							"internalType": "string",
							"name": "ward",
							"type": "string"
						}
					],
					"internalType": "struct Structure.User",
					"name": "user",
					"type": "tuple"
				},
				{
					"internalType": "uint256",
					"name": "voteLimitCount",
					"type": "uint256"
				}
			],
			"stateMutability": "view",
			"type": "function"
		}
	]
}