{
	"data": {
		"bytecode": {
			"linkReferences": {},
			"object": "608034620002ac576001600160401b0390606081018281118282101762000296576040526200002d620002b1565b600491828252602091634d414c4560e01b8382015281526200004e620002b1565b600681526546454d414c4560d01b83820152828201526200006e620002b1565b60068152654f544845525360d01b838201526040820152600390815482805580831062000216575b506000948286528386209086925b848410620000e55760058890556006889055600788905586546001600160a01b03191633178755600b889055600c889055604051611ca29081620003288239f35b80518051908382116200020357908791620001018654620002d1565b908b601f9285848211620001c8575b5050508b849284116001146200015c57926001959281928796959262000150575b5050600019828b1b1c191690841b1786555b01930193019291620000a4565b01519050388062000131565b50868c52838c209190601f1984168d5b818110620001af575091600196939185889796941062000196575b505050831b8301865562000143565b0151600019838c1b60f8161c1916905538808062000187565b8284015185558c9660019095019493840193016200016c565b828a620001f0945220600585808801821c830193898910620001f9575b01901c01906200030e565b8b388562000110565b93508293620001e5565b634e487b7160e01b8a526041895260248afd5b60008381528385822092830192015b8281106200023557505062000096565b806200024460019254620002d1565b8062000253575b500162000225565b601f9081811184146200026d5750508281555b386200024b565b8362000288928487528a8720920160051c820191016200030e565b828781208183555562000266565b634e487b7160e01b600052604160045260246000fd5b600080fd5b60408051919082016001600160401b038111838210176200029657604052565b90600182811c9216801562000303575b6020831014620002ed57565b634e487b7160e01b600052602260045260246000fd5b91607f1691620002e1565b8181106200031a575050565b600081556001016200030e56fe6080604081815260048036101561001557600080fd5b600092833560e01c908163029c21bd14610ef9575080630983f18514610eda57806324d7806c14610ea45780632e6997fe14610dba57806335bbe70e14610cd757806350e2e8af14610c6557806353ac5dc314610bed5780636332abc914610bce5780636394a8fa14610b755780636dd7d8ea146107d15780637c054c54146107b25780638287e42f146107595780638ab66a90146106f25780639eda74cf146103ce578063a3ec138d14610372578063a96278ae14610300578063b0a4ec42146102c4578063b13c744b146101c9578063ba71bef014610157578063c6384071146101345763fc6f94681461010a57600080fd5b346101305782600319360112610130575490516001600160a01b03909116815260209150f35b8280fd5b505034610153578160031936011261015357602090600c549051908152f35b5080fd5b503461013057602036600319011261013057356001600160a01b038116908190036101305781836101b2926101c59583805161019281611283565b61019a611576565b81526060602082015201528152600860205220611c21565b90519182916020835260208301906110de565b0390f35b50829034610153576020366003190112610153578035916001548310156102c157600190521b906101c561021e837fb10e2d527612073b26eecdfd717e6a320cf44b4afac2b0732d9fcbe2b7fa0cf6016112c1565b9180519361025985610252817fb10e2d527612073b26eecdfd717e6a320cf44b4afac2b0732d9fcbe2b7fa0d02850161119e565b038661129f565b7fb10e2d527612073b26eecdfd717e6a320cf44b4afac2b0732d9fcbe2b7fa0d048251916102b4836102ad817fb10e2d527612073b26eecdfd717e6a320cf44b4afac2b0732d9fcbe2b7fa0d03850161119e565b038461129f565b01549151948594856113d6565b80fd5b83823461015357602036600319011261015357803567ffffffffffffffff8111610130576102fd916102f891369101611415565b6115d2565b80f35b50346101305760203660031901126101305735600a54811015610130579061036061035992600a6101c595528251938480927fc65a7bb8d6351c1cf70c95a316cc6a92839c986682d98bc35f958f4883f9d2a80161119e565b038361129f565b51918291602083526020830190610f15565b503461013057602036600319011261013057356001600160a01b0381169081900361013057918192815260086020522090600d6103ae836112c1565b9201546103c48251938385948552840190610f55565b9060208301520390f35b509161016092836003193601126101535767ffffffffffffffff9381358581116106ee576103ff9036908401611415565b906064358681116106ea576104179036908501611415565b906084358781116106e65761042f9036908601611415565b60a4358881116106e2576104469036908701611415565b60c4358981116106de5761045d9036908801611415565b60e4358a81116106da576104749036908901611415565b91610104358b81116106d65761048d9036908a01611415565b93610124358c81116106d2576104a69036908b01611415565b96610144359c8d116106d2578a60028d9e9d6104c960089e9f8e90369101611415565b9233815260209e8f5220015461068e57918b9a9997959391838f9a9896946104f0906115d2565b898b519e8f6104fe81611266565b33815201528d60249b8c359101528d60443560608201526080015260a08d015260c08c015260e08b01526101008a015261012089015261014088015286015286519461054986611283565b855283850160609052858786015233865260088452848787209061056c91611aba565b600a5490600160401b918281101561067c576001810180600a5581101561066a57906105bd91600a89527fc65a7bb8d6351c1cf70c95a316cc6a92839c986682d98bc35f958f4883f9d2a8016119b5565b60095490811015610658578060016105d89201600955611113565b61064757846105e691611aba565b600b5491600183018093116106365750507ff59a1b8573db02cf501c11c9d7d88b5365a59bdf0555cfd387db21cfcaccf4da939461063091600b55519282849384528301906110de565b0390a180f35b634e487b7160e01b86526011905284fd5b50634e487b7160e01b855284825284fd5b50634e487b7160e01b85526041825284fd5b634e487b7160e01b8852603285528388fd5b634e487b7160e01b8852604185528388fd5b508c5162461bcd60e51b8152808b018c9052601a60248201527f566f74657220616c7265616479207265676973746572656420210000000000006044820152606490fd5b8a80fd5b8980fd5b8880fd5b8780fd5b8680fd5b8580fd5b8480fd5b8380fd5b503461013057602036600319011261013057356001600160a01b038116908190036101305791819281528060205220906101c561072e836112c1565b918051936107438561025281600c850161119e565b600e8251916102b4836102ad81600d850161119e565b5034610130576020366003190112610130573560025481101561013057906103606103599260026101c595528251938480927f405787fa12a823e0f2b7631cc41b3ba8828b3321ca811111fa75cd3aa3bb5ace0161119e565b5050346101535781600319360112610153576020906006549051908152f35b5090602090816003193601126106ee576001600160a01b039280358481168082036106e257858354163314610b3457338752600885526003600d858920015411610ae357808752868552600f9261082c3385878b2001611932565b33885260088652600c916108448484888c2001611932565b808952888752600e868a20015493600194858101809111610ad057828b528a8952600e888c2001556108768454611c5e565b8455848a815b610a8a575b50908a825b610a3f575b50505033895260088752858920600d01546108a590611c5e565b338a5260088852868a20600d01558852878652848820928551978789988952880160a0905284541660c0880152610180908160e08901526102408801908501906108ee9161119e565b6002850154610100890152600385015461012089015260bf199283898303016101408a015285019061091f9161119e565b8781038301610160890152610937906005860161119e565b90828883030190880152600684019061094f9161119e565b86810382016101a0880152610967906007850161119e565b86810382016101c088015261097f906008850161119e565b86810382016101e0880152610997906009850161119e565b86810382016102008801526109af90600a850161119e565b9086820301610220870152600b8301906109c89161119e565b90601f19948587840301908701528201906109e29161119e565b848103840160608601526109f990600d830161119e565b92600e82015460808601528484030160a08501520190610a18916114c3565b037f34acf85a95a1dc89bfc38e95c6d8d0e8e5d4544c49e9103ed7882d205ed151f891a180f35b600954811015610a855780610a56610a6592611113565b50548c163314610a6b57611979565b82610886565b610a808388610a7984611113565b5001611932565b611979565b61088b565b8154811015610acb5780848c610aa2610aaf94611471565b50541614610ab557611979565b8161087c565b610a80610ac182611471565b508a339101611932565b610881565b634e487b7160e01b8b526011845260248bfd5b835162461bcd60e51b8152808401869052602560248201527f596f752068617665206578636565642074686520766f7465206361737465206c60448201526434b6b4ba1760d91b6064820152608490fd5b606483868087519262461bcd60e51b845283015260248201527f41646d696e20697320726573747269637420746f20636173746520766f74652e6044820152fd5b5034610130576020366003190112610130573560035481101561013057906103606103599260036101c595528251938480927fc2575a0e9e593c00f959f8c92f12db2869c3395a3b0502d05e2516446f71f85b0161119e565b505034610153578160031936011261015357602090600b549051908152f35b503461013057602036600319011261013057356001600160a01b0381169081900361013057816101c593610c5292606060808451610c2a81611234565b610c32611576565b815282602082015282868201528483820152015281528060205220611509565b9051918291602083526020830190611080565b50346101305760203660031901126101305735600954811015610130576009600e92935202907f6e1540171b6c0c960b71a7020d9f60077f6af931a8bbf590da0223dacf75c7bc6103ae837f6e1540171b6c0c960b71a7020d9f60077f6af931a8bbf590da0223dacf75c7af016112c1565b8284346102c157806003193601126102c157600954610cf5816114ab565b91610d028451938461129f565b8183526009815260209283810192827f6e1540171b6c0c960b71a7020d9f60077f6af931a8bbf590da0223dacf75c7af855b838310610d9557505050508451938085019181865251809252858501958260051b8601019392955b828710610d695785850386f35b909192938280610d85600193603f198a820301865288516110de565b9601920196019592919092610d5c565b600e88600192610da8859b98999b611c21565b81520192019201919096949396610d34565b8284346102c157806003193601126102c157906001805492610ddb846114ab565b610de78451918261129f565b848152828252602080820195837fb10e2d527612073b26eecdfd717e6a320cf44b4afac2b0732d9fcbe2b7fa0cf6885b838310610e7957505050508451948186019282875251809352808601908360051b8701019693905b838210610e4c5786880387f35b90919293948380610e68839a603f198b82030186528951611080565b999701959493919091019101610e3f565b96601085829b99610e8e859c98999a9c611509565b8152019201920191909896989795949397610e17565b5034610130576020366003190112610130576001600160a01b03813581811692908390036106ea57602094505416149051908152f35b5050346101535781600319360112610153576020906007549051908152f35b8490346101535781600319360112610153576020906005548152f35b919082519283825260005b848110610f41575050826000602080949584010152601f8019910116010190565b602081830181015184830182015201610f20565b906110409160018060a01b03815116825261102c611018611004610ff0610fde610fcc610fba610f9460208901516101808060208d01528b0190610f15565b604089015160408b0152606089015160608b015260808901518a820360808c0152610f15565b60a088015189820360a08b0152610f15565b60c087015188820360c08a0152610f15565b60e086015187820360e0890152610f15565b610100808601519087830390880152610f15565b610120808501519086830390870152610f15565b610140808401519085830390860152610f15565b916101608092015191818403910152610f15565b90565b90815180825260208080930193019160005b828110611063575050505090565b83516001600160a01b031685529381019392810192600101611055565b6110409160806110c36110b161109f855160a0865260a0860190610f55565b60208601518582036020870152610f15565b60408501518482036040860152610f15565b92606081015160608401520151906080818403910152611043565b9060408061110a6110f88551606086526060860190610f55565b60208601518582036020870152611043565b93015191015290565b60095481101561114e57600e906009600052027f6e1540171b6c0c960b71a7020d9f60077f6af931a8bbf590da0223dacf75c7af0190600090565b634e487b7160e01b600052603260045260246000fd5b90600182811c92168015611194575b602083101461117e57565b634e487b7160e01b600052602260045260246000fd5b91607f1691611173565b90600092918054916111af83611164565b91828252600193848116908160001461121157506001146111d1575b50505050565b90919394506000526020928360002092846000945b8386106111fd5750505050010190388080806111cb565b8054858701830152940193859082016111e6565b9294505050602093945060ff191683830152151560051b010190388080806111cb565b60a0810190811067ffffffffffffffff82111761125057604052565b634e487b7160e01b600052604160045260246000fd5b610180810190811067ffffffffffffffff82111761125057604052565b6060810190811067ffffffffffffffff82111761125057604052565b90601f8019910116810190811067ffffffffffffffff82111761125057604052565b90600b6101606040936113d28551916112d983611266565b6102ad839760018060a01b0383541685528051611304816112fd816001880161119e565b038261129f565b602086015260028301548186015260038301546060860152805161132f816112fd816004880161119e565b60808601528051611347816112fd816005880161119e565b60a0860152805161135f816112fd816006880161119e565b60c08601528051611377816112fd816007880161119e565b60e0860152805161138f816112fd816008880161119e565b61010086015280516113a8816112fd816009880161119e565b61012086015280516113c1816112fd81600a880161119e565b61014086015251809681930161119e565b0152565b9493926114026060936113f46114109460808a5260808a0190610f55565b9088820360208a0152610f15565b908682036040880152610f15565b930152565b81601f8201121561146c5780359067ffffffffffffffff8211611250576040519261144a601f8401601f19166020018561129f565b8284526020838301011161146c57816000926020809301838601378301015290565b600080fd5b60015481101561114e57600160005260041b7fb10e2d527612073b26eecdfd717e6a320cf44b4afac2b0732d9fcbe2b7fa0cf60190600090565b67ffffffffffffffff81116112505760051b60200190565b90815480825260208092019260005281600020916000905b8282106114e9575050505090565b83546001600160a01b0316855293840193600193840193909101906114db565b90600f608060405161151a81611234565b6113d28195611528816112c1565b835260405161153e816112fd81600c860161119e565b6020840152604051611557816112fd81600d860161119e565b6040840152600e81015460608401526102ad60405180968193016114c3565b6040519061158382611266565b8160008152610160606091826020820152600060408201526000838201528260808201528260a08201528260c08201528260e08201528261010082015282610120820152826101408201520152565b8051906020918282019081209160035491821561114e5784916000946003865260405186907fc2575a0e9e593c00f959f8c92f12db2869c3395a3b0502d05e2516446f71f85b8181549361162585611164565b928383528983019560019d8e821691826000146119145750506001146118b9575b506116539250038261129f565b5190200361168657505050506005549182018092116116725750600555565b634e487b7160e01b81526011600452602490fd5b80518220848710156118a557600386528660405187817fc2575a0e9e593c00f959f8c92f12db2869c3395a3b0502d05e2516446f71f85c918254926116ca84611164565b938484528a808501978216918260001461188757505060011461182c575b506116f59250038261129f565b5190200361171457505050506006549182018092116116725750600655565b519020916002101561181857600383526040518391817fc2575a0e9e593c00f959f8c92f12db2869c3395a3b0502d05e2516446f71f85d9384549461175886611164565b90818452848401968a811690816000146117fa57506001146117a2575b50506117839250038261129f565b5190201461178f575050565b6007549182018092116116725750600755565b8852879150887f3f8a9ffd58db029f2bac46056dbc53052839d91105f501f2db6ecb9566ee68325b8284106117e35750505091611783928201013880611775565b8054878501870152869450928501928a91016117ca565b91505061178394925060ff19168652151560051b8201013880611775565b634e487b7160e01b83526032600452602483fd5b8b5250829050878a8c7f1f1d267ea1a86dfdb3c46b45b174495d9d2a0eb5937172d25a0ddb440647b7755b85831061186e5750506116f59350820101386116e8565b80919294505483858801015201910188908c8593611857565b60ff191688526116f595151560051b85010192503891506116e89050565b634e487b7160e01b86526032600452602486fd5b8b5250829050878a8c7f2584db4a68aa8b172f70bc04e2e74541617c003374de6eb4b295e823e5beab015b8583106118fb575050611653935082010138611646565b80919294505483858801015201910188908c85936118e4565b60ff1916885261165395151560051b85010192503891506116469050565b805490600160401b821015611250576001820180825582101561114e576000526020600020019060018060a01b03166bffffffffffffffffffffffff60a01b825416179055565b60001981146119885760010190565b634e487b7160e01b600052601160045260246000fd5b8181106119a9575050565b6000815560010161199e565b919091825167ffffffffffffffff8111611250576119d38254611164565b601f8111611a7d575b50602080601f8311600114611a19575081929394600092611a0e575b50508160011b916000199060031b1c1916179055565b0151905038806119f8565b90601f198316958460005282600020926000905b888210611a6557505083600195969710611a4c575b505050811b019055565b015160001960f88460031b161c19169055388080611a42565b80600185968294968601518155019501930190611a2d565b611aaa90836000526020600020601f840160051c81019160208510611ab0575b601f0160051c019061199e565b386119dc565b9091508190611a9d565b90805160018060a01b03808251166bffffffffffffffffffffffff60a01b855416178455602090611b936101608385015194611afa600196878a016119b5565b6040810151600289015560608101516003890155611b1f608082015160048a016119b5565b611b3060a082015160058a016119b5565b611b4160c082015160068a016119b5565b611b5260e082015160078a016119b5565b611b6461010082015160088a016119b5565b611b7661012082015160098a016119b5565b611b88610140820151600a8a016119b5565b0151600b87016119b5565b600c850190828501519283519367ffffffffffffffff851161125057600160401b85116112505781908454868655808710611c04575b500192600052806000209160005b858110611bf157505050505050506040600d910151910155565b8451821684820155938201938601611bd7565b611c1b90866000528784600020918201910161199e565b38611bc9565b90604051611c2e81611283565b6040600d8294611c3d816112c1565b84528251611c52816112fd81600c86016114c3565b60208501520154910152565b90600182018092116119885756fea2646970667358221220356d723f7a30e7f43548a51486738dfee08d389e153145da795a1ec46b4c9cd564736f6c63430008110033",
			"opcodes": "PUSH1 0x80 CALLVALUE PUSH3 0x2AC JUMPI PUSH1 0x1 PUSH1 0x1 PUSH1 0x40 SHL SUB SWAP1 PUSH1 0x60 DUP2 ADD DUP3 DUP2 GT DUP3 DUP3 LT OR PUSH3 0x296 JUMPI PUSH1 0x40 MSTORE PUSH3 0x2D PUSH3 0x2B1 JUMP JUMPDEST PUSH1 0x4 SWAP2 DUP3 DUP3 MSTORE PUSH1 0x20 SWAP2 PUSH4 0x4D414C45 PUSH1 0xE0 SHL DUP4 DUP3 ADD MSTORE DUP2 MSTORE PUSH3 0x4E PUSH3 0x2B1 JUMP JUMPDEST PUSH1 0x6 DUP2 MSTORE PUSH6 0x46454D414C45 PUSH1 0xD0 SHL DUP4 DUP3 ADD MSTORE DUP3 DUP3 ADD MSTORE PUSH3 0x6E PUSH3 0x2B1 JUMP JUMPDEST PUSH1 0x6 DUP2 MSTORE PUSH6 0x4F5448455253 PUSH1 0xD0 SHL DUP4 DUP3 ADD MSTORE PUSH1 0x40 DUP3 ADD MSTORE PUSH1 0x3 SWAP1 DUP2 SLOAD DUP3 DUP1 SSTORE DUP1 DUP4 LT PUSH3 0x216 JUMPI JUMPDEST POP PUSH1 0x0 SWAP5 DUP3 DUP7 MSTORE DUP4 DUP7 KECCAK256 SWAP1 DUP7 SWAP3 JUMPDEST DUP5 DUP5 LT PUSH3 0xE5 JUMPI PUSH1 0x5 DUP9 SWAP1 SSTORE PUSH1 0x6 DUP9 SWAP1 SSTORE PUSH1 0x7 DUP9 SWAP1 SSTORE DUP7 SLOAD PUSH1 0x1 PUSH1 0x1 PUSH1 0xA0 SHL SUB NOT AND CALLER OR DUP8 SSTORE PUSH1 0xB DUP9 SWAP1 SSTORE PUSH1 0xC DUP9 SWAP1 SSTORE PUSH1 0x40 MLOAD PUSH2 0x1CA2 SWAP1 DUP2 PUSH3 0x328 DUP3 CODECOPY RETURN JUMPDEST DUP1 MLOAD DUP1 MLOAD SWAP1 DUP4 DUP3 GT PUSH3 0x203 JUMPI SWAP1 DUP8 SWAP2 PUSH3 0x101 DUP7 SLOAD PUSH3 0x2D1 JUMP JUMPDEST SWAP1 DUP12 PUSH1 0x1F SWAP3 DUP6 DUP5 DUP3 GT PUSH3 0x1C8 JUMPI JUMPDEST POP POP POP DUP12 DUP5 SWAP3 DUP5 GT PUSH1 0x1 EQ PUSH3 0x15C JUMPI SWAP3 PUSH1 0x1 SWAP6 SWAP3 DUP2 SWAP3 DUP8 SWAP7 SWAP6 SWAP3 PUSH3 0x150 JUMPI JUMPDEST POP POP PUSH1 0x0 NOT DUP3 DUP12 SHL SHR NOT AND SWAP1 DUP5 SHL OR DUP7 SSTORE JUMPDEST ADD SWAP4 ADD SWAP4 ADD SWAP3 SWAP2 PUSH3 0xA4 JUMP JUMPDEST ADD MLOAD SWAP1 POP CODESIZE DUP1 PUSH3 0x131 JUMP JUMPDEST POP DUP7 DUP13 MSTORE DUP4 DUP13 KECCAK256 SWAP2 SWAP1 PUSH1 0x1F NOT DUP5 AND DUP14 JUMPDEST DUP2 DUP2 LT PUSH3 0x1AF JUMPI POP SWAP2 PUSH1 0x1 SWAP7 SWAP4 SWAP2 DUP6 DUP9 SWAP8 SWAP7 SWAP5 LT PUSH3 0x196 JUMPI JUMPDEST POP POP POP DUP4 SHL DUP4 ADD DUP7 SSTORE PUSH3 0x143 JUMP JUMPDEST ADD MLOAD PUSH1 0x0 NOT DUP4 DUP13 SHL PUSH1 0xF8 AND SHR NOT AND SWAP1 SSTORE CODESIZE DUP1 DUP1 PUSH3 0x187 JUMP JUMPDEST DUP3 DUP5 ADD MLOAD DUP6 SSTORE DUP13 SWAP7 PUSH1 0x1 SWAP1 SWAP6 ADD SWAP5 SWAP4 DUP5 ADD SWAP4 ADD PUSH3 0x16C JUMP JUMPDEST DUP3 DUP11 PUSH3 0x1F0 SWAP5 MSTORE KECCAK256 PUSH1 0x5 DUP6 DUP1 DUP9 ADD DUP3 SHR DUP4 ADD SWAP4 DUP10 DUP10 LT PUSH3 0x1F9 JUMPI JUMPDEST ADD SWAP1 SHR ADD SWAP1 PUSH3 0x30E JUMP JUMPDEST DUP12 CODESIZE DUP6 PUSH3 0x110 JUMP JUMPDEST SWAP4 POP DUP3 SWAP4 PUSH3 0x1E5 JUMP JUMPDEST PUSH4 0x4E487B71 PUSH1 0xE0 SHL DUP11 MSTORE PUSH1 0x41 DUP10 MSTORE PUSH1 0x24 DUP11 REVERT JUMPDEST PUSH1 0x0 DUP4 DUP2 MSTORE DUP4 DUP6 DUP3 KECCAK256 SWAP3 DUP4 ADD SWAP3 ADD JUMPDEST DUP3 DUP2 LT PUSH3 0x235 JUMPI POP POP PUSH3 0x96 JUMP JUMPDEST DUP1 PUSH3 0x244 PUSH1 0x1 SWAP3 SLOAD PUSH3 0x2D1 JUMP JUMPDEST DUP1 PUSH3 0x253 JUMPI JUMPDEST POP ADD PUSH3 0x225 JUMP JUMPDEST PUSH1 0x1F SWAP1 DUP2 DUP2 GT DUP5 EQ PUSH3 0x26D JUMPI POP POP DUP3 DUP2 SSTORE JUMPDEST CODESIZE PUSH3 0x24B JUMP JUMPDEST DUP4 PUSH3 0x288 SWAP3 DUP5 DUP8 MSTORE DUP11 DUP8 KECCAK256 SWAP3 ADD PUSH1 0x5 SHR DUP3 ADD SWAP2 ADD PUSH3 0x30E JUMP JUMPDEST DUP3 DUP8 DUP2 KECCAK256 DUP2 DUP4 SSTORE SSTORE PUSH3 0x266 JUMP JUMPDEST PUSH4 0x4E487B71 PUSH1 0xE0 SHL PUSH1 0x0 MSTORE PUSH1 0x41 PUSH1 0x4 MSTORE PUSH1 0x24 PUSH1 0x0 REVERT JUMPDEST PUSH1 0x0 DUP1 REVERT JUMPDEST PUSH1 0x40 DUP1 MLOAD SWAP2 SWAP1 DUP3 ADD PUSH1 0x1 PUSH1 0x1 PUSH1 0x40 SHL SUB DUP2 GT DUP4 DUP3 LT OR PUSH3 0x296 JUMPI PUSH1 0x40 MSTORE JUMP JUMPDEST SWAP1 PUSH1 0x1 DUP3 DUP2 SHR SWAP3 AND DUP1 ISZERO PUSH3 0x303 JUMPI JUMPDEST PUSH1 0x20 DUP4 LT EQ PUSH3 0x2ED JUMPI JUMP JUMPDEST PUSH4 0x4E487B71 PUSH1 0xE0 SHL PUSH1 0x0 MSTORE PUSH1 0x22 PUSH1 0x4 MSTORE PUSH1 0x24 PUSH1 0x0 REVERT JUMPDEST SWAP2 PUSH1 0x7F AND SWAP2 PUSH3 0x2E1 JUMP JUMPDEST DUP2 DUP2 LT PUSH3 0x31A JUMPI POP POP JUMP JUMPDEST PUSH1 0x0 DUP2 SSTORE PUSH1 0x1 ADD PUSH3 0x30E JUMP INVALID PUSH1 0x80 PUSH1 0x40 DUP2 DUP2 MSTORE PUSH1 0x4 DUP1 CALLDATASIZE LT ISZERO PUSH2 0x15 JUMPI PUSH1 0x0 DUP1 REVERT JUMPDEST PUSH1 0x0 SWAP3 DUP4 CALLDATALOAD PUSH1 0xE0 SHR SWAP1 DUP2 PUSH4 0x29C21BD EQ PUSH2 0xEF9 JUMPI POP DUP1 PUSH4 0x983F185 EQ PUSH2 0xEDA JUMPI DUP1 PUSH4 0x24D7806C EQ PUSH2 0xEA4 JUMPI DUP1 PUSH4 0x2E6997FE EQ PUSH2 0xDBA JUMPI DUP1 PUSH4 0x35BBE70E EQ PUSH2 0xCD7 JUMPI DUP1 PUSH4 0x50E2E8AF EQ PUSH2 0xC65 JUMPI DUP1 PUSH4 0x53AC5DC3 EQ PUSH2 0xBED JUMPI DUP1 PUSH4 0x6332ABC9 EQ PUSH2 0xBCE JUMPI DUP1 PUSH4 0x6394A8FA EQ PUSH2 0xB75 JUMPI DUP1 PUSH4 0x6DD7D8EA EQ PUSH2 0x7D1 JUMPI DUP1 PUSH4 0x7C054C54 EQ PUSH2 0x7B2 JUMPI DUP1 PUSH4 0x8287E42F EQ PUSH2 0x759 JUMPI DUP1 PUSH4 0x8AB66A90 EQ PUSH2 0x6F2 JUMPI DUP1 PUSH4 0x9EDA74CF EQ PUSH2 0x3CE JUMPI DUP1 PUSH4 0xA3EC138D EQ PUSH2 0x372 JUMPI DUP1 PUSH4 0xA96278AE EQ PUSH2 0x300 JUMPI DUP1 PUSH4 0xB0A4EC42 EQ PUSH2 0x2C4 JUMPI DUP1 PUSH4 0xB13C744B EQ PUSH2 0x1C9 JUMPI DUP1 PUSH4 0xBA71BEF0 EQ PUSH2 0x157 JUMPI DUP1 PUSH4 0xC6384071 EQ PUSH2 0x134 JUMPI PUSH4 0xFC6F9468 EQ PUSH2 0x10A JUMPI PUSH1 0x0 DUP1 REVERT JUMPDEST CALLVALUE PUSH2 0x130 JUMPI DUP3 PUSH1 0x3 NOT CALLDATASIZE ADD SLT PUSH2 0x130 JUMPI SLOAD SWAP1 MLOAD PUSH1 0x1 PUSH1 0x1 PUSH1 0xA0 SHL SUB SWAP1 SWAP2 AND DUP2 MSTORE PUSH1 0x20 SWAP2 POP RETURN JUMPDEST DUP3 DUP1 REVERT JUMPDEST POP POP CALLVALUE PUSH2 0x153 JUMPI DUP2 PUSH1 0x3 NOT CALLDATASIZE ADD SLT PUSH2 0x153 JUMPI PUSH1 0x20 SWAP1 PUSH1 0xC SLOAD SWAP1 MLOAD SWAP1 DUP2 MSTORE RETURN JUMPDEST POP DUP1 REVERT JUMPDEST POP CALLVALUE PUSH2 0x130 JUMPI PUSH1 0x20 CALLDATASIZE PUSH1 0x3 NOT ADD SLT PUSH2 0x130 JUMPI CALLDATALOAD PUSH1 0x1 PUSH1 0x1 PUSH1 0xA0 SHL SUB DUP2 AND SWAP1 DUP2 SWAP1 SUB PUSH2 0x130 JUMPI DUP2 DUP4 PUSH2 0x1B2 SWAP3 PUSH2 0x1C5 SWAP6 DUP4 DUP1 MLOAD PUSH2 0x192 DUP2 PUSH2 0x1283 JUMP JUMPDEST PUSH2 0x19A PUSH2 0x1576 JUMP JUMPDEST DUP2 MSTORE PUSH1 0x60 PUSH1 0x20 DUP3 ADD MSTORE ADD MSTORE DUP2 MSTORE PUSH1 0x8 PUSH1 0x20 MSTORE KECCAK256 PUSH2 0x1C21 JUMP JUMPDEST SWAP1 MLOAD SWAP2 DUP3 SWAP2 PUSH1 0x20 DUP4 MSTORE PUSH1 0x20 DUP4 ADD SWAP1 PUSH2 0x10DE JUMP JUMPDEST SUB SWAP1 RETURN JUMPDEST POP DUP3 SWAP1 CALLVALUE PUSH2 0x153 JUMPI PUSH1 0x20 CALLDATASIZE PUSH1 0x3 NOT ADD SLT PUSH2 0x153 JUMPI DUP1 CALLDATALOAD SWAP2 PUSH1 0x1 SLOAD DUP4 LT ISZERO PUSH2 0x2C1 JUMPI PUSH1 0x1 SWAP1 MSTORE SHL SWAP1 PUSH2 0x1C5 PUSH2 0x21E DUP4 PUSH32 0xB10E2D527612073B26EECDFD717E6A320CF44B4AFAC2B0732D9FCBE2B7FA0CF6 ADD PUSH2 0x12C1 JUMP JUMPDEST SWAP2 DUP1 MLOAD SWAP4 PUSH2 0x259 DUP6 PUSH2 0x252 DUP2 PUSH32 0xB10E2D527612073B26EECDFD717E6A320CF44B4AFAC2B0732D9FCBE2B7FA0D02 DUP6 ADD PUSH2 0x119E JUMP JUMPDEST SUB DUP7 PUSH2 0x129F JUMP JUMPDEST PUSH32 0xB10E2D527612073B26EECDFD717E6A320CF44B4AFAC2B0732D9FCBE2B7FA0D04 DUP3 MLOAD SWAP2 PUSH2 0x2B4 DUP4 PUSH2 0x2AD DUP2 PUSH32 0xB10E2D527612073B26EECDFD717E6A320CF44B4AFAC2B0732D9FCBE2B7FA0D03 DUP6 ADD PUSH2 0x119E JUMP JUMPDEST SUB DUP5 PUSH2 0x129F JUMP JUMPDEST ADD SLOAD SWAP2 MLOAD SWAP5 DUP6 SWAP5 DUP6 PUSH2 0x13D6 JUMP JUMPDEST DUP1 REVERT JUMPDEST DUP4 DUP3 CALLVALUE PUSH2 0x153 JUMPI PUSH1 0x20 CALLDATASIZE PUSH1 0x3 NOT ADD SLT PUSH2 0x153 JUMPI DUP1 CALLDATALOAD PUSH8 0xFFFFFFFFFFFFFFFF DUP2 GT PUSH2 0x130 JUMPI PUSH2 0x2FD SWAP2 PUSH2 0x2F8 SWAP2 CALLDATASIZE SWAP2 ADD PUSH2 0x1415 JUMP JUMPDEST PUSH2 0x15D2 JUMP JUMPDEST DUP1 RETURN JUMPDEST POP CALLVALUE PUSH2 0x130 JUMPI PUSH1 0x20 CALLDATASIZE PUSH1 0x3 NOT ADD SLT PUSH2 0x130 JUMPI CALLDATALOAD PUSH1 0xA SLOAD DUP2 LT ISZERO PUSH2 0x130 JUMPI SWAP1 PUSH2 0x360 PUSH2 0x359 SWAP3 PUSH1 0xA PUSH2 0x1C5 SWAP6 MSTORE DUP3 MLOAD SWAP4 DUP5 DUP1 SWAP3 PUSH32 0xC65A7BB8D6351C1CF70C95A316CC6A92839C986682D98BC35F958F4883F9D2A8 ADD PUSH2 0x119E JUMP JUMPDEST SUB DUP4 PUSH2 0x129F JUMP JUMPDEST MLOAD SWAP2 DUP3 SWAP2 PUSH1 0x20 DUP4 MSTORE PUSH1 0x20 DUP4 ADD SWAP1 PUSH2 0xF15 JUMP JUMPDEST POP CALLVALUE PUSH2 0x130 JUMPI PUSH1 0x20 CALLDATASIZE PUSH1 0x3 NOT ADD SLT PUSH2 0x130 JUMPI CALLDATALOAD PUSH1 0x1 PUSH1 0x1 PUSH1 0xA0 SHL SUB DUP2 AND SWAP1 DUP2 SWAP1 SUB PUSH2 0x130 JUMPI SWAP2 DUP2 SWAP3 DUP2 MSTORE PUSH1 0x8 PUSH1 0x20 MSTORE KECCAK256 SWAP1 PUSH1 0xD PUSH2 0x3AE DUP4 PUSH2 0x12C1 JUMP JUMPDEST SWAP3 ADD SLOAD PUSH2 0x3C4 DUP3 MLOAD SWAP4 DUP4 DUP6 SWAP5 DUP6 MSTORE DUP5 ADD SWAP1 PUSH2 0xF55 JUMP JUMPDEST SWAP1 PUSH1 0x20 DUP4 ADD MSTORE SUB SWAP1 RETURN JUMPDEST POP SWAP2 PUSH2 0x160 SWAP3 DUP4 PUSH1 0x3 NOT CALLDATASIZE ADD SLT PUSH2 0x153 JUMPI PUSH8 0xFFFFFFFFFFFFFFFF SWAP4 DUP2 CALLDATALOAD DUP6 DUP2 GT PUSH2 0x6EE JUMPI PUSH2 0x3FF SWAP1 CALLDATASIZE SWAP1 DUP5 ADD PUSH2 0x1415 JUMP JUMPDEST SWAP1 PUSH1 0x64 CALLDATALOAD DUP7 DUP2 GT PUSH2 0x6EA JUMPI PUSH2 0x417 SWAP1 CALLDATASIZE SWAP1 DUP6 ADD PUSH2 0x1415 JUMP JUMPDEST SWAP1 PUSH1 0x84 CALLDATALOAD DUP8 DUP2 GT PUSH2 0x6E6 JUMPI PUSH2 0x42F SWAP1 CALLDATASIZE SWAP1 DUP7 ADD PUSH2 0x1415 JUMP JUMPDEST PUSH1 0xA4 CALLDATALOAD DUP9 DUP2 GT PUSH2 0x6E2 JUMPI PUSH2 0x446 SWAP1 CALLDATASIZE SWAP1 DUP8 ADD PUSH2 0x1415 JUMP JUMPDEST PUSH1 0xC4 CALLDATALOAD DUP10 DUP2 GT PUSH2 0x6DE JUMPI PUSH2 0x45D SWAP1 CALLDATASIZE SWAP1 DUP9 ADD PUSH2 0x1415 JUMP JUMPDEST PUSH1 0xE4 CALLDATALOAD DUP11 DUP2 GT PUSH2 0x6DA JUMPI PUSH2 0x474 SWAP1 CALLDATASIZE SWAP1 DUP10 ADD PUSH2 0x1415 JUMP JUMPDEST SWAP2 PUSH2 0x104 CALLDATALOAD DUP12 DUP2 GT PUSH2 0x6D6 JUMPI PUSH2 0x48D SWAP1 CALLDATASIZE SWAP1 DUP11 ADD PUSH2 0x1415 JUMP JUMPDEST SWAP4 PUSH2 0x124 CALLDATALOAD DUP13 DUP2 GT PUSH2 0x6D2 JUMPI PUSH2 0x4A6 SWAP1 CALLDATASIZE SWAP1 DUP12 ADD PUSH2 0x1415 JUMP JUMPDEST SWAP7 PUSH2 0x144 CALLDATALOAD SWAP13 DUP14 GT PUSH2 0x6D2 JUMPI DUP11 PUSH1 0x2 DUP14 SWAP15 SWAP14 PUSH2 0x4C9 PUSH1 0x8 SWAP15 SWAP16 DUP15 SWAP1 CALLDATASIZE SWAP2 ADD PUSH2 0x1415 JUMP JUMPDEST SWAP3 CALLER DUP2 MSTORE PUSH1 0x20 SWAP15 DUP16 MSTORE KECCAK256 ADD SLOAD PUSH2 0x68E JUMPI SWAP2 DUP12 SWAP11 SWAP10 SWAP8 SWAP6 SWAP4 SWAP2 DUP4 DUP16 SWAP11 SWAP9 SWAP7 SWAP5 PUSH2 0x4F0 SWAP1 PUSH2 0x15D2 JUMP JUMPDEST DUP10 DUP12 MLOAD SWAP15 DUP16 PUSH2 0x4FE DUP2 PUSH2 0x1266 JUMP JUMPDEST CALLER DUP2 MSTORE ADD MSTORE DUP14 PUSH1 0x24 SWAP12 DUP13 CALLDATALOAD SWAP2 ADD MSTORE DUP14 PUSH1 0x44 CALLDATALOAD PUSH1 0x60 DUP3 ADD MSTORE PUSH1 0x80 ADD MSTORE PUSH1 0xA0 DUP14 ADD MSTORE PUSH1 0xC0 DUP13 ADD MSTORE PUSH1 0xE0 DUP12 ADD MSTORE PUSH2 0x100 DUP11 ADD MSTORE PUSH2 0x120 DUP10 ADD MSTORE PUSH2 0x140 DUP9 ADD MSTORE DUP7 ADD MSTORE DUP7 MLOAD SWAP5 PUSH2 0x549 DUP7 PUSH2 0x1283 JUMP JUMPDEST DUP6 MSTORE DUP4 DUP6 ADD PUSH1 0x60 SWAP1 MSTORE DUP6 DUP8 DUP7 ADD MSTORE CALLER DUP7 MSTORE PUSH1 0x8 DUP5 MSTORE DUP5 DUP8 DUP8 KECCAK256 SWAP1 PUSH2 0x56C SWAP2 PUSH2 0x1ABA JUMP JUMPDEST PUSH1 0xA SLOAD SWAP1 PUSH1 0x1 PUSH1 0x40 SHL SWAP2 DUP3 DUP2 LT ISZERO PUSH2 0x67C JUMPI PUSH1 0x1 DUP2 ADD DUP1 PUSH1 0xA SSTORE DUP2 LT ISZERO PUSH2 0x66A JUMPI SWAP1 PUSH2 0x5BD SWAP2 PUSH1 0xA DUP10 MSTORE PUSH32 0xC65A7BB8D6351C1CF70C95A316CC6A92839C986682D98BC35F958F4883F9D2A8 ADD PUSH2 0x19B5 JUMP JUMPDEST PUSH1 0x9 SLOAD SWAP1 DUP2 LT ISZERO PUSH2 0x658 JUMPI DUP1 PUSH1 0x1 PUSH2 0x5D8 SWAP3 ADD PUSH1 0x9 SSTORE PUSH2 0x1113 JUMP JUMPDEST PUSH2 0x647 JUMPI DUP5 PUSH2 0x5E6 SWAP2 PUSH2 0x1ABA JUMP JUMPDEST PUSH1 0xB SLOAD SWAP2 PUSH1 0x1 DUP4 ADD DUP1 SWAP4 GT PUSH2 0x636 JUMPI POP POP PUSH32 0xF59A1B8573DB02CF501C11C9D7D88B5365A59BDF0555CFD387DB21CFCACCF4DA SWAP4 SWAP5 PUSH2 0x630 SWAP2 PUSH1 0xB SSTORE MLOAD SWAP3 DUP3 DUP5 SWAP4 DUP5 MSTORE DUP4 ADD SWAP1 PUSH2 0x10DE JUMP JUMPDEST SUB SWAP1 LOG1 DUP1 RETURN JUMPDEST PUSH4 0x4E487B71 PUSH1 0xE0 SHL DUP7 MSTORE PUSH1 0x11 SWAP1 MSTORE DUP5 REVERT JUMPDEST POP PUSH4 0x4E487B71 PUSH1 0xE0 SHL DUP6 MSTORE DUP5 DUP3 MSTORE DUP5 REVERT JUMPDEST POP PUSH4 0x4E487B71 PUSH1 0xE0 SHL DUP6 MSTORE PUSH1 0x41 DUP3 MSTORE DUP5 REVERT JUMPDEST PUSH4 0x4E487B71 PUSH1 0xE0 SHL DUP9 MSTORE PUSH1 0x32 DUP6 MSTORE DUP4 DUP9 REVERT JUMPDEST PUSH4 0x4E487B71 PUSH1 0xE0 SHL DUP9 MSTORE PUSH1 0x41 DUP6 MSTORE DUP4 DUP9 REVERT JUMPDEST POP DUP13 MLOAD PUSH3 0x461BCD PUSH1 0xE5 SHL DUP2 MSTORE DUP1 DUP12 ADD DUP13 SWAP1 MSTORE PUSH1 0x1A PUSH1 0x24 DUP3 ADD MSTORE PUSH32 0x566F74657220616C726561647920726567697374657265642021000000000000 PUSH1 0x44 DUP3 ADD MSTORE PUSH1 0x64 SWAP1 REVERT JUMPDEST DUP11 DUP1 REVERT JUMPDEST DUP10 DUP1 REVERT JUMPDEST DUP9 DUP1 REVERT JUMPDEST DUP8 DUP1 REVERT JUMPDEST DUP7 DUP1 REVERT JUMPDEST DUP6 DUP1 REVERT JUMPDEST DUP5 DUP1 REVERT JUMPDEST DUP4 DUP1 REVERT JUMPDEST POP CALLVALUE PUSH2 0x130 JUMPI PUSH1 0x20 CALLDATASIZE PUSH1 0x3 NOT ADD SLT PUSH2 0x130 JUMPI CALLDATALOAD PUSH1 0x1 PUSH1 0x1 PUSH1 0xA0 SHL SUB DUP2 AND SWAP1 DUP2 SWAP1 SUB PUSH2 0x130 JUMPI SWAP2 DUP2 SWAP3 DUP2 MSTORE DUP1 PUSH1 0x20 MSTORE KECCAK256 SWAP1 PUSH2 0x1C5 PUSH2 0x72E DUP4 PUSH2 0x12C1 JUMP JUMPDEST SWAP2 DUP1 MLOAD SWAP4 PUSH2 0x743 DUP6 PUSH2 0x252 DUP2 PUSH1 0xC DUP6 ADD PUSH2 0x119E JUMP JUMPDEST PUSH1 0xE DUP3 MLOAD SWAP2 PUSH2 0x2B4 DUP4 PUSH2 0x2AD DUP2 PUSH1 0xD DUP6 ADD PUSH2 0x119E JUMP JUMPDEST POP CALLVALUE PUSH2 0x130 JUMPI PUSH1 0x20 CALLDATASIZE PUSH1 0x3 NOT ADD SLT PUSH2 0x130 JUMPI CALLDATALOAD PUSH1 0x2 SLOAD DUP2 LT ISZERO PUSH2 0x130 JUMPI SWAP1 PUSH2 0x360 PUSH2 0x359 SWAP3 PUSH1 0x2 PUSH2 0x1C5 SWAP6 MSTORE DUP3 MLOAD SWAP4 DUP5 DUP1 SWAP3 PUSH32 0x405787FA12A823E0F2B7631CC41B3BA8828B3321CA811111FA75CD3AA3BB5ACE ADD PUSH2 0x119E JUMP JUMPDEST POP POP CALLVALUE PUSH2 0x153 JUMPI DUP2 PUSH1 0x3 NOT CALLDATASIZE ADD SLT PUSH2 0x153 JUMPI PUSH1 0x20 SWAP1 PUSH1 0x6 SLOAD SWAP1 MLOAD SWAP1 DUP2 MSTORE RETURN JUMPDEST POP SWAP1 PUSH1 0x20 SWAP1 DUP2 PUSH1 0x3 NOT CALLDATASIZE ADD SLT PUSH2 0x6EE JUMPI PUSH1 0x1 PUSH1 0x1 PUSH1 0xA0 SHL SUB SWAP3 DUP1 CALLDATALOAD DUP5 DUP2 AND DUP1 DUP3 SUB PUSH2 0x6E2 JUMPI DUP6 DUP4 SLOAD AND CALLER EQ PUSH2 0xB34 JUMPI CALLER DUP8 MSTORE PUSH1 0x8 DUP6 MSTORE PUSH1 0x3 PUSH1 0xD DUP6 DUP10 KECCAK256 ADD SLOAD GT PUSH2 0xAE3 JUMPI DUP1 DUP8 MSTORE DUP7 DUP6 MSTORE PUSH1 0xF SWAP3 PUSH2 0x82C CALLER DUP6 DUP8 DUP12 KECCAK256 ADD PUSH2 0x1932 JUMP JUMPDEST CALLER DUP9 MSTORE PUSH1 0x8 DUP7 MSTORE PUSH1 0xC SWAP2 PUSH2 0x844 DUP5 DUP5 DUP9 DUP13 KECCAK256 ADD PUSH2 0x1932 JUMP JUMPDEST DUP1 DUP10 MSTORE DUP9 DUP8 MSTORE PUSH1 0xE DUP7 DUP11 KECCAK256 ADD SLOAD SWAP4 PUSH1 0x1 SWAP5 DUP6 DUP2 ADD DUP1 SWAP2 GT PUSH2 0xAD0 JUMPI DUP3 DUP12 MSTORE DUP11 DUP10 MSTORE PUSH1 0xE DUP9 DUP13 KECCAK256 ADD SSTORE PUSH2 0x876 DUP5 SLOAD PUSH2 0x1C5E JUMP JUMPDEST DUP5 SSTORE DUP5 DUP11 DUP2 JUMPDEST PUSH2 0xA8A JUMPI JUMPDEST POP SWAP1 DUP11 DUP3 JUMPDEST PUSH2 0xA3F JUMPI JUMPDEST POP POP POP CALLER DUP10 MSTORE PUSH1 0x8 DUP8 MSTORE DUP6 DUP10 KECCAK256 PUSH1 0xD ADD SLOAD PUSH2 0x8A5 SWAP1 PUSH2 0x1C5E JUMP JUMPDEST CALLER DUP11 MSTORE PUSH1 0x8 DUP9 MSTORE DUP7 DUP11 KECCAK256 PUSH1 0xD ADD SSTORE DUP9 MSTORE DUP8 DUP7 MSTORE DUP5 DUP9 KECCAK256 SWAP3 DUP6 MLOAD SWAP8 DUP8 DUP10 SWAP9 DUP10 MSTORE DUP9 ADD PUSH1 0xA0 SWAP1 MSTORE DUP5 SLOAD AND PUSH1 0xC0 DUP9 ADD MSTORE PUSH2 0x180 SWAP1 DUP2 PUSH1 0xE0 DUP10 ADD MSTORE PUSH2 0x240 DUP9 ADD SWAP1 DUP6 ADD SWAP1 PUSH2 0x8EE SWAP2 PUSH2 0x119E JUMP JUMPDEST PUSH1 0x2 DUP6 ADD SLOAD PUSH2 0x100 DUP10 ADD MSTORE PUSH1 0x3 DUP6 ADD SLOAD PUSH2 0x120 DUP10 ADD MSTORE PUSH1 0xBF NOT SWAP3 DUP4 DUP10 DUP4 SUB ADD PUSH2 0x140 DUP11 ADD MSTORE DUP6 ADD SWAP1 PUSH2 0x91F SWAP2 PUSH2 0x119E JUMP JUMPDEST DUP8 DUP2 SUB DUP4 ADD PUSH2 0x160 DUP10 ADD MSTORE PUSH2 0x937 SWAP1 PUSH1 0x5 DUP7 ADD PUSH2 0x119E JUMP JUMPDEST SWAP1 DUP3 DUP9 DUP4 SUB ADD SWAP1 DUP9 ADD MSTORE PUSH1 0x6 DUP5 ADD SWAP1 PUSH2 0x94F SWAP2 PUSH2 0x119E JUMP JUMPDEST DUP7 DUP2 SUB DUP3 ADD PUSH2 0x1A0 DUP9 ADD MSTORE PUSH2 0x967 SWAP1 PUSH1 0x7 DUP6 ADD PUSH2 0x119E JUMP JUMPDEST DUP7 DUP2 SUB DUP3 ADD PUSH2 0x1C0 DUP9 ADD MSTORE PUSH2 0x97F SWAP1 PUSH1 0x8 DUP6 ADD PUSH2 0x119E JUMP JUMPDEST DUP7 DUP2 SUB DUP3 ADD PUSH2 0x1E0 DUP9 ADD MSTORE PUSH2 0x997 SWAP1 PUSH1 0x9 DUP6 ADD PUSH2 0x119E JUMP JUMPDEST DUP7 DUP2 SUB DUP3 ADD PUSH2 0x200 DUP9 ADD MSTORE PUSH2 0x9AF SWAP1 PUSH1 0xA DUP6 ADD PUSH2 0x119E JUMP JUMPDEST SWAP1 DUP7 DUP3 SUB ADD PUSH2 0x220 DUP8 ADD MSTORE PUSH1 0xB DUP4 ADD SWAP1 PUSH2 0x9C8 SWAP2 PUSH2 0x119E JUMP JUMPDEST SWAP1 PUSH1 0x1F NOT SWAP5 DUP6 DUP8 DUP5 SUB ADD SWAP1 DUP8 ADD MSTORE DUP3 ADD SWAP1 PUSH2 0x9E2 SWAP2 PUSH2 0x119E JUMP JUMPDEST DUP5 DUP2 SUB DUP5 ADD PUSH1 0x60 DUP7 ADD MSTORE PUSH2 0x9F9 SWAP1 PUSH1 0xD DUP4 ADD PUSH2 0x119E JUMP JUMPDEST SWAP3 PUSH1 0xE DUP3 ADD SLOAD PUSH1 0x80 DUP7 ADD MSTORE DUP5 DUP5 SUB ADD PUSH1 0xA0 DUP6 ADD MSTORE ADD SWAP1 PUSH2 0xA18 SWAP2 PUSH2 0x14C3 JUMP JUMPDEST SUB PUSH32 0x34ACF85A95A1DC89BFC38E95C6D8D0E8E5D4544C49E9103ED7882D205ED151F8 SWAP2 LOG1 DUP1 RETURN JUMPDEST PUSH1 0x9 SLOAD DUP2 LT ISZERO PUSH2 0xA85 JUMPI DUP1 PUSH2 0xA56 PUSH2 0xA65 SWAP3 PUSH2 0x1113 JUMP JUMPDEST POP SLOAD DUP13 AND CALLER EQ PUSH2 0xA6B JUMPI PUSH2 0x1979 JUMP JUMPDEST DUP3 PUSH2 0x886 JUMP JUMPDEST PUSH2 0xA80 DUP4 DUP9 PUSH2 0xA79 DUP5 PUSH2 0x1113 JUMP JUMPDEST POP ADD PUSH2 0x1932 JUMP JUMPDEST PUSH2 0x1979 JUMP JUMPDEST PUSH2 0x88B JUMP JUMPDEST DUP2 SLOAD DUP2 LT ISZERO PUSH2 0xACB JUMPI DUP1 DUP5 DUP13 PUSH2 0xAA2 PUSH2 0xAAF SWAP5 PUSH2 0x1471 JUMP JUMPDEST POP SLOAD AND EQ PUSH2 0xAB5 JUMPI PUSH2 0x1979 JUMP JUMPDEST DUP2 PUSH2 0x87C JUMP JUMPDEST PUSH2 0xA80 PUSH2 0xAC1 DUP3 PUSH2 0x1471 JUMP JUMPDEST POP DUP11 CALLER SWAP2 ADD PUSH2 0x1932 JUMP JUMPDEST PUSH2 0x881 JUMP JUMPDEST PUSH4 0x4E487B71 PUSH1 0xE0 SHL DUP12 MSTORE PUSH1 0x11 DUP5 MSTORE PUSH1 0x24 DUP12 REVERT JUMPDEST DUP4 MLOAD PUSH3 0x461BCD PUSH1 0xE5 SHL DUP2 MSTORE DUP1 DUP5 ADD DUP7 SWAP1 MSTORE PUSH1 0x25 PUSH1 0x24 DUP3 ADD MSTORE PUSH32 0x596F752068617665206578636565642074686520766F7465206361737465206C PUSH1 0x44 DUP3 ADD MSTORE PUSH5 0x34B6B4BA17 PUSH1 0xD9 SHL PUSH1 0x64 DUP3 ADD MSTORE PUSH1 0x84 SWAP1 REVERT JUMPDEST PUSH1 0x64 DUP4 DUP7 DUP1 DUP8 MLOAD SWAP3 PUSH3 0x461BCD PUSH1 0xE5 SHL DUP5 MSTORE DUP4 ADD MSTORE PUSH1 0x24 DUP3 ADD MSTORE PUSH32 0x41646D696E20697320726573747269637420746F20636173746520766F74652E PUSH1 0x44 DUP3 ADD MSTORE REVERT JUMPDEST POP CALLVALUE PUSH2 0x130 JUMPI PUSH1 0x20 CALLDATASIZE PUSH1 0x3 NOT ADD SLT PUSH2 0x130 JUMPI CALLDATALOAD PUSH1 0x3 SLOAD DUP2 LT ISZERO PUSH2 0x130 JUMPI SWAP1 PUSH2 0x360 PUSH2 0x359 SWAP3 PUSH1 0x3 PUSH2 0x1C5 SWAP6 MSTORE DUP3 MLOAD SWAP4 DUP5 DUP1 SWAP3 PUSH32 0xC2575A0E9E593C00F959F8C92F12DB2869C3395A3B0502D05E2516446F71F85B ADD PUSH2 0x119E JUMP JUMPDEST POP POP CALLVALUE PUSH2 0x153 JUMPI DUP2 PUSH1 0x3 NOT CALLDATASIZE ADD SLT PUSH2 0x153 JUMPI PUSH1 0x20 SWAP1 PUSH1 0xB SLOAD SWAP1 MLOAD SWAP1 DUP2 MSTORE RETURN JUMPDEST POP CALLVALUE PUSH2 0x130 JUMPI PUSH1 0x20 CALLDATASIZE PUSH1 0x3 NOT ADD SLT PUSH2 0x130 JUMPI CALLDATALOAD PUSH1 0x1 PUSH1 0x1 PUSH1 0xA0 SHL SUB DUP2 AND SWAP1 DUP2 SWAP1 SUB PUSH2 0x130 JUMPI DUP2 PUSH2 0x1C5 SWAP4 PUSH2 0xC52 SWAP3 PUSH1 0x60 PUSH1 0x80 DUP5 MLOAD PUSH2 0xC2A DUP2 PUSH2 0x1234 JUMP JUMPDEST PUSH2 0xC32 PUSH2 0x1576 JUMP JUMPDEST DUP2 MSTORE DUP3 PUSH1 0x20 DUP3 ADD MSTORE DUP3 DUP7 DUP3 ADD MSTORE DUP5 DUP4 DUP3 ADD MSTORE ADD MSTORE DUP2 MSTORE DUP1 PUSH1 0x20 MSTORE KECCAK256 PUSH2 0x1509 JUMP JUMPDEST SWAP1 MLOAD SWAP2 DUP3 SWAP2 PUSH1 0x20 DUP4 MSTORE PUSH1 0x20 DUP4 ADD SWAP1 PUSH2 0x1080 JUMP JUMPDEST POP CALLVALUE PUSH2 0x130 JUMPI PUSH1 0x20 CALLDATASIZE PUSH1 0x3 NOT ADD SLT PUSH2 0x130 JUMPI CALLDATALOAD PUSH1 0x9 SLOAD DUP2 LT ISZERO PUSH2 0x130 JUMPI PUSH1 0x9 PUSH1 0xE SWAP3 SWAP4 MSTORE MUL SWAP1 PUSH32 0x6E1540171B6C0C960B71A7020D9F60077F6AF931A8BBF590DA0223DACF75C7BC PUSH2 0x3AE DUP4 PUSH32 0x6E1540171B6C0C960B71A7020D9F60077F6AF931A8BBF590DA0223DACF75C7AF ADD PUSH2 0x12C1 JUMP JUMPDEST DUP3 DUP5 CALLVALUE PUSH2 0x2C1 JUMPI DUP1 PUSH1 0x3 NOT CALLDATASIZE ADD SLT PUSH2 0x2C1 JUMPI PUSH1 0x9 SLOAD PUSH2 0xCF5 DUP2 PUSH2 0x14AB JUMP JUMPDEST SWAP2 PUSH2 0xD02 DUP5 MLOAD SWAP4 DUP5 PUSH2 0x129F JUMP JUMPDEST DUP2 DUP4 MSTORE PUSH1 0x9 DUP2 MSTORE PUSH1 0x20 SWAP3 DUP4 DUP2 ADD SWAP3 DUP3 PUSH32 0x6E1540171B6C0C960B71A7020D9F60077F6AF931A8BBF590DA0223DACF75C7AF DUP6 JUMPDEST DUP4 DUP4 LT PUSH2 0xD95 JUMPI POP POP POP POP DUP5 MLOAD SWAP4 DUP1 DUP6 ADD SWAP2 DUP2 DUP7 MSTORE MLOAD DUP1 SWAP3 MSTORE DUP6 DUP6 ADD SWAP6 DUP3 PUSH1 0x5 SHL DUP7 ADD ADD SWAP4 SWAP3 SWAP6 JUMPDEST DUP3 DUP8 LT PUSH2 0xD69 JUMPI DUP6 DUP6 SUB DUP7 RETURN JUMPDEST SWAP1 SWAP2 SWAP3 SWAP4 DUP3 DUP1 PUSH2 0xD85 PUSH1 0x1 SWAP4 PUSH1 0x3F NOT DUP11 DUP3 SUB ADD DUP7 MSTORE DUP9 MLOAD PUSH2 0x10DE JUMP JUMPDEST SWAP7 ADD SWAP3 ADD SWAP7 ADD SWAP6 SWAP3 SWAP2 SWAP1 SWAP3 PUSH2 0xD5C JUMP JUMPDEST PUSH1 0xE DUP9 PUSH1 0x1 SWAP3 PUSH2 0xDA8 DUP6 SWAP12 SWAP9 SWAP10 SWAP12 PUSH2 0x1C21 JUMP JUMPDEST DUP2 MSTORE ADD SWAP3 ADD SWAP3 ADD SWAP2 SWAP1 SWAP7 SWAP5 SWAP4 SWAP7 PUSH2 0xD34 JUMP JUMPDEST DUP3 DUP5 CALLVALUE PUSH2 0x2C1 JUMPI DUP1 PUSH1 0x3 NOT CALLDATASIZE ADD SLT PUSH2 0x2C1 JUMPI SWAP1 PUSH1 0x1 DUP1 SLOAD SWAP3 PUSH2 0xDDB DUP5 PUSH2 0x14AB JUMP JUMPDEST PUSH2 0xDE7 DUP5 MLOAD SWAP2 DUP3 PUSH2 0x129F JUMP JUMPDEST DUP5 DUP2 MSTORE DUP3 DUP3 MSTORE PUSH1 0x20 DUP1 DUP3 ADD SWAP6 DUP4 PUSH32 0xB10E2D527612073B26EECDFD717E6A320CF44B4AFAC2B0732D9FCBE2B7FA0CF6 DUP9 JUMPDEST DUP4 DUP4 LT PUSH2 0xE79 JUMPI POP POP POP POP DUP5 MLOAD SWAP5 DUP2 DUP7 ADD SWAP3 DUP3 DUP8 MSTORE MLOAD DUP1 SWAP4 MSTORE DUP1 DUP7 ADD SWAP1 DUP4 PUSH1 0x5 SHL DUP8 ADD ADD SWAP7 SWAP4 SWAP1 JUMPDEST DUP4 DUP3 LT PUSH2 0xE4C JUMPI DUP7 DUP9 SUB DUP8 RETURN JUMPDEST SWAP1 SWAP2 SWAP3 SWAP4 SWAP5 DUP4 DUP1 PUSH2 0xE68 DUP4 SWAP11 PUSH1 0x3F NOT DUP12 DUP3 SUB ADD DUP7 MSTORE DUP10 MLOAD PUSH2 0x1080 JUMP JUMPDEST SWAP10 SWAP8 ADD SWAP6 SWAP5 SWAP4 SWAP2 SWAP1 SWAP2 ADD SWAP2 ADD PUSH2 0xE3F JUMP JUMPDEST SWAP7 PUSH1 0x10 DUP6 DUP3 SWAP12 SWAP10 PUSH2 0xE8E DUP6 SWAP13 SWAP9 SWAP10 SWAP11 SWAP13 PUSH2 0x1509 JUMP JUMPDEST DUP2 MSTORE ADD SWAP3 ADD SWAP3 ADD SWAP2 SWAP1 SWAP9 SWAP7 SWAP9 SWAP8 SWAP6 SWAP5 SWAP4 SWAP8 PUSH2 0xE17 JUMP JUMPDEST POP CALLVALUE PUSH2 0x130 JUMPI PUSH1 0x20 CALLDATASIZE PUSH1 0x3 NOT ADD SLT PUSH2 0x130 JUMPI PUSH1 0x1 PUSH1 0x1 PUSH1 0xA0 SHL SUB DUP2 CALLDATALOAD DUP2 DUP2 AND SWAP3 SWAP1 DUP4 SWAP1 SUB PUSH2 0x6EA JUMPI PUSH1 0x20 SWAP5 POP SLOAD AND EQ SWAP1 MLOAD SWAP1 DUP2 MSTORE RETURN JUMPDEST POP POP CALLVALUE PUSH2 0x153 JUMPI DUP2 PUSH1 0x3 NOT CALLDATASIZE ADD SLT PUSH2 0x153 JUMPI PUSH1 0x20 SWAP1 PUSH1 0x7 SLOAD SWAP1 MLOAD SWAP1 DUP2 MSTORE RETURN JUMPDEST DUP5 SWAP1 CALLVALUE PUSH2 0x153 JUMPI DUP2 PUSH1 0x3 NOT CALLDATASIZE ADD SLT PUSH2 0x153 JUMPI PUSH1 0x20 SWAP1 PUSH1 0x5 SLOAD DUP2 MSTORE RETURN JUMPDEST SWAP2 SWAP1 DUP3 MLOAD SWAP3 DUP4 DUP3 MSTORE PUSH1 0x0 JUMPDEST DUP5 DUP2 LT PUSH2 0xF41 JUMPI POP POP DUP3 PUSH1 0x0 PUSH1 0x20 DUP1 SWAP5 SWAP6 DUP5 ADD ADD MSTORE PUSH1 0x1F DUP1 NOT SWAP2 ADD AND ADD ADD SWAP1 JUMP JUMPDEST PUSH1 0x20 DUP2 DUP4 ADD DUP2 ADD MLOAD DUP5 DUP4 ADD DUP3 ADD MSTORE ADD PUSH2 0xF20 JUMP JUMPDEST SWAP1 PUSH2 0x1040 SWAP2 PUSH1 0x1 DUP1 PUSH1 0xA0 SHL SUB DUP2 MLOAD AND DUP3 MSTORE PUSH2 0x102C PUSH2 0x1018 PUSH2 0x1004 PUSH2 0xFF0 PUSH2 0xFDE PUSH2 0xFCC PUSH2 0xFBA PUSH2 0xF94 PUSH1 0x20 DUP10 ADD MLOAD PUSH2 0x180 DUP1 PUSH1 0x20 DUP14 ADD MSTORE DUP12 ADD SWAP1 PUSH2 0xF15 JUMP JUMPDEST PUSH1 0x40 DUP10 ADD MLOAD PUSH1 0x40 DUP12 ADD MSTORE PUSH1 0x60 DUP10 ADD MLOAD PUSH1 0x60 DUP12 ADD MSTORE PUSH1 0x80 DUP10 ADD MLOAD DUP11 DUP3 SUB PUSH1 0x80 DUP13 ADD MSTORE PUSH2 0xF15 JUMP JUMPDEST PUSH1 0xA0 DUP9 ADD MLOAD DUP10 DUP3 SUB PUSH1 0xA0 DUP12 ADD MSTORE PUSH2 0xF15 JUMP JUMPDEST PUSH1 0xC0 DUP8 ADD MLOAD DUP9 DUP3 SUB PUSH1 0xC0 DUP11 ADD MSTORE PUSH2 0xF15 JUMP JUMPDEST PUSH1 0xE0 DUP7 ADD MLOAD DUP8 DUP3 SUB PUSH1 0xE0 DUP10 ADD MSTORE PUSH2 0xF15 JUMP JUMPDEST PUSH2 0x100 DUP1 DUP7 ADD MLOAD SWAP1 DUP8 DUP4 SUB SWAP1 DUP9 ADD MSTORE PUSH2 0xF15 JUMP JUMPDEST PUSH2 0x120 DUP1 DUP6 ADD MLOAD SWAP1 DUP7 DUP4 SUB SWAP1 DUP8 ADD MSTORE PUSH2 0xF15 JUMP JUMPDEST PUSH2 0x140 DUP1 DUP5 ADD MLOAD SWAP1 DUP6 DUP4 SUB SWAP1 DUP7 ADD MSTORE PUSH2 0xF15 JUMP JUMPDEST SWAP2 PUSH2 0x160 DUP1 SWAP3 ADD MLOAD SWAP2 DUP2 DUP5 SUB SWAP2 ADD MSTORE PUSH2 0xF15 JUMP JUMPDEST SWAP1 JUMP JUMPDEST SWAP1 DUP2 MLOAD DUP1 DUP3 MSTORE PUSH1 0x20 DUP1 DUP1 SWAP4 ADD SWAP4 ADD SWAP2 PUSH1 0x0 JUMPDEST DUP3 DUP2 LT PUSH2 0x1063 JUMPI POP POP POP POP SWAP1 JUMP JUMPDEST DUP4 MLOAD PUSH1 0x1 PUSH1 0x1 PUSH1 0xA0 SHL SUB AND DUP6 MSTORE SWAP4 DUP2 ADD SWAP4 SWAP3 DUP2 ADD SWAP3 PUSH1 0x1 ADD PUSH2 0x1055 JUMP JUMPDEST PUSH2 0x1040 SWAP2 PUSH1 0x80 PUSH2 0x10C3 PUSH2 0x10B1 PUSH2 0x109F DUP6 MLOAD PUSH1 0xA0 DUP7 MSTORE PUSH1 0xA0 DUP7 ADD SWAP1 PUSH2 0xF55 JUMP JUMPDEST PUSH1 0x20 DUP7 ADD MLOAD DUP6 DUP3 SUB PUSH1 0x20 DUP8 ADD MSTORE PUSH2 0xF15 JUMP JUMPDEST PUSH1 0x40 DUP6 ADD MLOAD DUP5 DUP3 SUB PUSH1 0x40 DUP7 ADD MSTORE PUSH2 0xF15 JUMP JUMPDEST SWAP3 PUSH1 0x60 DUP2 ADD MLOAD PUSH1 0x60 DUP5 ADD MSTORE ADD MLOAD SWAP1 PUSH1 0x80 DUP2 DUP5 SUB SWAP2 ADD MSTORE PUSH2 0x1043 JUMP JUMPDEST SWAP1 PUSH1 0x40 DUP1 PUSH2 0x110A PUSH2 0x10F8 DUP6 MLOAD PUSH1 0x60 DUP7 MSTORE PUSH1 0x60 DUP7 ADD SWAP1 PUSH2 0xF55 JUMP JUMPDEST PUSH1 0x20 DUP7 ADD MLOAD DUP6 DUP3 SUB PUSH1 0x20 DUP8 ADD MSTORE PUSH2 0x1043 JUMP JUMPDEST SWAP4 ADD MLOAD SWAP2 ADD MSTORE SWAP1 JUMP JUMPDEST PUSH1 0x9 SLOAD DUP2 LT ISZERO PUSH2 0x114E JUMPI PUSH1 0xE SWAP1 PUSH1 0x9 PUSH1 0x0 MSTORE MUL PUSH32 0x6E1540171B6C0C960B71A7020D9F60077F6AF931A8BBF590DA0223DACF75C7AF ADD SWAP1 PUSH1 0x0 SWAP1 JUMP JUMPDEST PUSH4 0x4E487B71 PUSH1 0xE0 SHL PUSH1 0x0 MSTORE PUSH1 0x32 PUSH1 0x4 MSTORE PUSH1 0x24 PUSH1 0x0 REVERT JUMPDEST SWAP1 PUSH1 0x1 DUP3 DUP2 SHR SWAP3 AND DUP1 ISZERO PUSH2 0x1194 JUMPI JUMPDEST PUSH1 0x20 DUP4 LT EQ PUSH2 0x117E JUMPI JUMP JUMPDEST PUSH4 0x4E487B71 PUSH1 0xE0 SHL PUSH1 0x0 MSTORE PUSH1 0x22 PUSH1 0x4 MSTORE PUSH1 0x24 PUSH1 0x0 REVERT JUMPDEST SWAP2 PUSH1 0x7F AND SWAP2 PUSH2 0x1173 JUMP JUMPDEST SWAP1 PUSH1 0x0 SWAP3 SWAP2 DUP1 SLOAD SWAP2 PUSH2 0x11AF DUP4 PUSH2 0x1164 JUMP JUMPDEST SWAP2 DUP3 DUP3 MSTORE PUSH1 0x1 SWAP4 DUP5 DUP2 AND SWAP1 DUP2 PUSH1 0x0 EQ PUSH2 0x1211 JUMPI POP PUSH1 0x1 EQ PUSH2 0x11D1 JUMPI JUMPDEST POP POP POP POP JUMP JUMPDEST SWAP1 SWAP2 SWAP4 SWAP5 POP PUSH1 0x0 MSTORE PUSH1 0x20 SWAP3 DUP4 PUSH1 0x0 KECCAK256 SWAP3 DUP5 PUSH1 0x0 SWAP5 JUMPDEST DUP4 DUP7 LT PUSH2 0x11FD JUMPI POP POP POP POP ADD ADD SWAP1 CODESIZE DUP1 DUP1 DUP1 PUSH2 0x11CB JUMP JUMPDEST DUP1 SLOAD DUP6 DUP8 ADD DUP4 ADD MSTORE SWAP5 ADD SWAP4 DUP6 SWAP1 DUP3 ADD PUSH2 0x11E6 JUMP JUMPDEST SWAP3 SWAP5 POP POP POP PUSH1 0x20 SWAP4 SWAP5 POP PUSH1 0xFF NOT AND DUP4 DUP4 ADD MSTORE ISZERO ISZERO PUSH1 0x5 SHL ADD ADD SWAP1 CODESIZE DUP1 DUP1 DUP1 PUSH2 0x11CB JUMP JUMPDEST PUSH1 0xA0 DUP2 ADD SWAP1 DUP2 LT PUSH8 0xFFFFFFFFFFFFFFFF DUP3 GT OR PUSH2 0x1250 JUMPI PUSH1 0x40 MSTORE JUMP JUMPDEST PUSH4 0x4E487B71 PUSH1 0xE0 SHL PUSH1 0x0 MSTORE PUSH1 0x41 PUSH1 0x4 MSTORE PUSH1 0x24 PUSH1 0x0 REVERT JUMPDEST PUSH2 0x180 DUP2 ADD SWAP1 DUP2 LT PUSH8 0xFFFFFFFFFFFFFFFF DUP3 GT OR PUSH2 0x1250 JUMPI PUSH1 0x40 MSTORE JUMP JUMPDEST PUSH1 0x60 DUP2 ADD SWAP1 DUP2 LT PUSH8 0xFFFFFFFFFFFFFFFF DUP3 GT OR PUSH2 0x1250 JUMPI PUSH1 0x40 MSTORE JUMP JUMPDEST SWAP1 PUSH1 0x1F DUP1 NOT SWAP2 ADD AND DUP2 ADD SWAP1 DUP2 LT PUSH8 0xFFFFFFFFFFFFFFFF DUP3 GT OR PUSH2 0x1250 JUMPI PUSH1 0x40 MSTORE JUMP JUMPDEST SWAP1 PUSH1 0xB PUSH2 0x160 PUSH1 0x40 SWAP4 PUSH2 0x13D2 DUP6 MLOAD SWAP2 PUSH2 0x12D9 DUP4 PUSH2 0x1266 JUMP JUMPDEST PUSH2 0x2AD DUP4 SWAP8 PUSH1 0x1 DUP1 PUSH1 0xA0 SHL SUB DUP4 SLOAD AND DUP6 MSTORE DUP1 MLOAD PUSH2 0x1304 DUP2 PUSH2 0x12FD DUP2 PUSH1 0x1 DUP9 ADD PUSH2 0x119E JUMP JUMPDEST SUB DUP3 PUSH2 0x129F JUMP JUMPDEST PUSH1 0x20 DUP7 ADD MSTORE PUSH1 0x2 DUP4 ADD SLOAD DUP2 DUP7 ADD MSTORE PUSH1 0x3 DUP4 ADD SLOAD PUSH1 0x60 DUP7 ADD MSTORE DUP1 MLOAD PUSH2 0x132F DUP2 PUSH2 0x12FD DUP2 PUSH1 0x4 DUP9 ADD PUSH2 0x119E JUMP JUMPDEST PUSH1 0x80 DUP7 ADD MSTORE DUP1 MLOAD PUSH2 0x1347 DUP2 PUSH2 0x12FD DUP2 PUSH1 0x5 DUP9 ADD PUSH2 0x119E JUMP JUMPDEST PUSH1 0xA0 DUP7 ADD MSTORE DUP1 MLOAD PUSH2 0x135F DUP2 PUSH2 0x12FD DUP2 PUSH1 0x6 DUP9 ADD PUSH2 0x119E JUMP JUMPDEST PUSH1 0xC0 DUP7 ADD MSTORE DUP1 MLOAD PUSH2 0x1377 DUP2 PUSH2 0x12FD DUP2 PUSH1 0x7 DUP9 ADD PUSH2 0x119E JUMP JUMPDEST PUSH1 0xE0 DUP7 ADD MSTORE DUP1 MLOAD PUSH2 0x138F DUP2 PUSH2 0x12FD DUP2 PUSH1 0x8 DUP9 ADD PUSH2 0x119E JUMP JUMPDEST PUSH2 0x100 DUP7 ADD MSTORE DUP1 MLOAD PUSH2 0x13A8 DUP2 PUSH2 0x12FD DUP2 PUSH1 0x9 DUP9 ADD PUSH2 0x119E JUMP JUMPDEST PUSH2 0x120 DUP7 ADD MSTORE DUP1 MLOAD PUSH2 0x13C1 DUP2 PUSH2 0x12FD DUP2 PUSH1 0xA DUP9 ADD PUSH2 0x119E JUMP JUMPDEST PUSH2 0x140 DUP7 ADD MSTORE MLOAD DUP1 SWAP7 DUP2 SWAP4 ADD PUSH2 0x119E JUMP JUMPDEST ADD MSTORE JUMP JUMPDEST SWAP5 SWAP4 SWAP3 PUSH2 0x1402 PUSH1 0x60 SWAP4 PUSH2 0x13F4 PUSH2 0x1410 SWAP5 PUSH1 0x80 DUP11 MSTORE PUSH1 0x80 DUP11 ADD SWAP1 PUSH2 0xF55 JUMP JUMPDEST SWAP1 DUP9 DUP3 SUB PUSH1 0x20 DUP11 ADD MSTORE PUSH2 0xF15 JUMP JUMPDEST SWAP1 DUP7 DUP3 SUB PUSH1 0x40 DUP9 ADD MSTORE PUSH2 0xF15 JUMP JUMPDEST SWAP4 ADD MSTORE JUMP JUMPDEST DUP2 PUSH1 0x1F DUP3 ADD SLT ISZERO PUSH2 0x146C JUMPI DUP1 CALLDATALOAD SWAP1 PUSH8 0xFFFFFFFFFFFFFFFF DUP3 GT PUSH2 0x1250 JUMPI PUSH1 0x40 MLOAD SWAP3 PUSH2 0x144A PUSH1 0x1F DUP5 ADD PUSH1 0x1F NOT AND PUSH1 0x20 ADD DUP6 PUSH2 0x129F JUMP JUMPDEST DUP3 DUP5 MSTORE PUSH1 0x20 DUP4 DUP4 ADD ADD GT PUSH2 0x146C JUMPI DUP2 PUSH1 0x0 SWAP3 PUSH1 0x20 DUP1 SWAP4 ADD DUP4 DUP7 ADD CALLDATACOPY DUP4 ADD ADD MSTORE SWAP1 JUMP JUMPDEST PUSH1 0x0 DUP1 REVERT JUMPDEST PUSH1 0x1 SLOAD DUP2 LT ISZERO PUSH2 0x114E JUMPI PUSH1 0x1 PUSH1 0x0 MSTORE PUSH1 0x4 SHL PUSH32 0xB10E2D527612073B26EECDFD717E6A320CF44B4AFAC2B0732D9FCBE2B7FA0CF6 ADD SWAP1 PUSH1 0x0 SWAP1 JUMP JUMPDEST PUSH8 0xFFFFFFFFFFFFFFFF DUP2 GT PUSH2 0x1250 JUMPI PUSH1 0x5 SHL PUSH1 0x20 ADD SWAP1 JUMP JUMPDEST SWAP1 DUP2 SLOAD DUP1 DUP3 MSTORE PUSH1 0x20 DUP1 SWAP3 ADD SWAP3 PUSH1 0x0 MSTORE DUP2 PUSH1 0x0 KECCAK256 SWAP2 PUSH1 0x0 SWAP1 JUMPDEST DUP3 DUP3 LT PUSH2 0x14E9 JUMPI POP POP POP POP SWAP1 JUMP JUMPDEST DUP4 SLOAD PUSH1 0x1 PUSH1 0x1 PUSH1 0xA0 SHL SUB AND DUP6 MSTORE SWAP4 DUP5 ADD SWAP4 PUSH1 0x1 SWAP4 DUP5 ADD SWAP4 SWAP1 SWAP2 ADD SWAP1 PUSH2 0x14DB JUMP JUMPDEST SWAP1 PUSH1 0xF PUSH1 0x80 PUSH1 0x40 MLOAD PUSH2 0x151A DUP2 PUSH2 0x1234 JUMP JUMPDEST PUSH2 0x13D2 DUP2 SWAP6 PUSH2 0x1528 DUP2 PUSH2 0x12C1 JUMP JUMPDEST DUP4 MSTORE PUSH1 0x40 MLOAD PUSH2 0x153E DUP2 PUSH2 0x12FD DUP2 PUSH1 0xC DUP7 ADD PUSH2 0x119E JUMP JUMPDEST PUSH1 0x20 DUP5 ADD MSTORE PUSH1 0x40 MLOAD PUSH2 0x1557 DUP2 PUSH2 0x12FD DUP2 PUSH1 0xD DUP7 ADD PUSH2 0x119E JUMP JUMPDEST PUSH1 0x40 DUP5 ADD MSTORE PUSH1 0xE DUP2 ADD SLOAD PUSH1 0x60 DUP5 ADD MSTORE PUSH2 0x2AD PUSH1 0x40 MLOAD DUP1 SWAP7 DUP2 SWAP4 ADD PUSH2 0x14C3 JUMP JUMPDEST PUSH1 0x40 MLOAD SWAP1 PUSH2 0x1583 DUP3 PUSH2 0x1266 JUMP JUMPDEST DUP2 PUSH1 0x0 DUP2 MSTORE PUSH2 0x160 PUSH1 0x60 SWAP2 DUP3 PUSH1 0x20 DUP3 ADD MSTORE PUSH1 0x0 PUSH1 0x40 DUP3 ADD MSTORE PUSH1 0x0 DUP4 DUP3 ADD MSTORE DUP3 PUSH1 0x80 DUP3 ADD MSTORE DUP3 PUSH1 0xA0 DUP3 ADD MSTORE DUP3 PUSH1 0xC0 DUP3 ADD MSTORE DUP3 PUSH1 0xE0 DUP3 ADD MSTORE DUP3 PUSH2 0x100 DUP3 ADD MSTORE DUP3 PUSH2 0x120 DUP3 ADD MSTORE DUP3 PUSH2 0x140 DUP3 ADD MSTORE ADD MSTORE JUMP JUMPDEST DUP1 MLOAD SWAP1 PUSH1 0x20 SWAP2 DUP3 DUP3 ADD SWAP1 DUP2 KECCAK256 SWAP2 PUSH1 0x3 SLOAD SWAP2 DUP3 ISZERO PUSH2 0x114E JUMPI DUP5 SWAP2 PUSH1 0x0 SWAP5 PUSH1 0x3 DUP7 MSTORE PUSH1 0x40 MLOAD DUP7 SWAP1 PUSH32 0xC2575A0E9E593C00F959F8C92F12DB2869C3395A3B0502D05E2516446F71F85B DUP2 DUP2 SLOAD SWAP4 PUSH2 0x1625 DUP6 PUSH2 0x1164 JUMP JUMPDEST SWAP3 DUP4 DUP4 MSTORE DUP10 DUP4 ADD SWAP6 PUSH1 0x1 SWAP14 DUP15 DUP3 AND SWAP2 DUP3 PUSH1 0x0 EQ PUSH2 0x1914 JUMPI POP POP PUSH1 0x1 EQ PUSH2 0x18B9 JUMPI JUMPDEST POP PUSH2 0x1653 SWAP3 POP SUB DUP3 PUSH2 0x129F JUMP JUMPDEST MLOAD SWAP1 KECCAK256 SUB PUSH2 0x1686 JUMPI POP POP POP POP PUSH1 0x5 SLOAD SWAP2 DUP3 ADD DUP1 SWAP3 GT PUSH2 0x1672 JUMPI POP PUSH1 0x5 SSTORE JUMP JUMPDEST PUSH4 0x4E487B71 PUSH1 0xE0 SHL DUP2 MSTORE PUSH1 0x11 PUSH1 0x4 MSTORE PUSH1 0x24 SWAP1 REVERT JUMPDEST DUP1 MLOAD DUP3 KECCAK256 DUP5 DUP8 LT ISZERO PUSH2 0x18A5 JUMPI PUSH1 0x3 DUP7 MSTORE DUP7 PUSH1 0x40 MLOAD DUP8 DUP2 PUSH32 0xC2575A0E9E593C00F959F8C92F12DB2869C3395A3B0502D05E2516446F71F85C SWAP2 DUP3 SLOAD SWAP3 PUSH2 0x16CA DUP5 PUSH2 0x1164 JUMP JUMPDEST SWAP4 DUP5 DUP5 MSTORE DUP11 DUP1 DUP6 ADD SWAP8 DUP3 AND SWAP2 DUP3 PUSH1 0x0 EQ PUSH2 0x1887 JUMPI POP POP PUSH1 0x1 EQ PUSH2 0x182C JUMPI JUMPDEST POP PUSH2 0x16F5 SWAP3 POP SUB DUP3 PUSH2 0x129F JUMP JUMPDEST MLOAD SWAP1 KECCAK256 SUB PUSH2 0x1714 JUMPI POP POP POP POP PUSH1 0x6 SLOAD SWAP2 DUP3 ADD DUP1 SWAP3 GT PUSH2 0x1672 JUMPI POP PUSH1 0x6 SSTORE JUMP JUMPDEST MLOAD SWAP1 KECCAK256 SWAP2 PUSH1 0x2 LT ISZERO PUSH2 0x1818 JUMPI PUSH1 0x3 DUP4 MSTORE PUSH1 0x40 MLOAD DUP4 SWAP2 DUP2 PUSH32 0xC2575A0E9E593C00F959F8C92F12DB2869C3395A3B0502D05E2516446F71F85D SWAP4 DUP5 SLOAD SWAP5 PUSH2 0x1758 DUP7 PUSH2 0x1164 JUMP JUMPDEST SWAP1 DUP2 DUP5 MSTORE DUP5 DUP5 ADD SWAP7 DUP11 DUP2 AND SWAP1 DUP2 PUSH1 0x0 EQ PUSH2 0x17FA JUMPI POP PUSH1 0x1 EQ PUSH2 0x17A2 JUMPI JUMPDEST POP POP PUSH2 0x1783 SWAP3 POP SUB DUP3 PUSH2 0x129F JUMP JUMPDEST MLOAD SWAP1 KECCAK256 EQ PUSH2 0x178F JUMPI POP POP JUMP JUMPDEST PUSH1 0x7 SLOAD SWAP2 DUP3 ADD DUP1 SWAP3 GT PUSH2 0x1672 JUMPI POP PUSH1 0x7 SSTORE JUMP JUMPDEST DUP9 MSTORE DUP8 SWAP2 POP DUP9 PUSH32 0x3F8A9FFD58DB029F2BAC46056DBC53052839D91105F501F2DB6ECB9566EE6832 JUMPDEST DUP3 DUP5 LT PUSH2 0x17E3 JUMPI POP POP POP SWAP2 PUSH2 0x1783 SWAP3 DUP3 ADD ADD CODESIZE DUP1 PUSH2 0x1775 JUMP JUMPDEST DUP1 SLOAD DUP8 DUP6 ADD DUP8 ADD MSTORE DUP7 SWAP5 POP SWAP3 DUP6 ADD SWAP3 DUP11 SWAP2 ADD PUSH2 0x17CA JUMP JUMPDEST SWAP2 POP POP PUSH2 0x1783 SWAP5 SWAP3 POP PUSH1 0xFF NOT AND DUP7 MSTORE ISZERO ISZERO PUSH1 0x5 SHL DUP3 ADD ADD CODESIZE DUP1 PUSH2 0x1775 JUMP JUMPDEST PUSH4 0x4E487B71 PUSH1 0xE0 SHL DUP4 MSTORE PUSH1 0x32 PUSH1 0x4 MSTORE PUSH1 0x24 DUP4 REVERT JUMPDEST DUP12 MSTORE POP DUP3 SWAP1 POP DUP8 DUP11 DUP13 PUSH32 0x1F1D267EA1A86DFDB3C46B45B174495D9D2A0EB5937172D25A0DDB440647B775 JUMPDEST DUP6 DUP4 LT PUSH2 0x186E JUMPI POP POP PUSH2 0x16F5 SWAP4 POP DUP3 ADD ADD CODESIZE PUSH2 0x16E8 JUMP JUMPDEST DUP1 SWAP2 SWAP3 SWAP5 POP SLOAD DUP4 DUP6 DUP9 ADD ADD MSTORE ADD SWAP2 ADD DUP9 SWAP1 DUP13 DUP6 SWAP4 PUSH2 0x1857 JUMP JUMPDEST PUSH1 0xFF NOT AND DUP9 MSTORE PUSH2 0x16F5 SWAP6 ISZERO ISZERO PUSH1 0x5 SHL DUP6 ADD ADD SWAP3 POP CODESIZE SWAP2 POP PUSH2 0x16E8 SWAP1 POP JUMP JUMPDEST PUSH4 0x4E487B71 PUSH1 0xE0 SHL DUP7 MSTORE PUSH1 0x32 PUSH1 0x4 MSTORE PUSH1 0x24 DUP7 REVERT JUMPDEST DUP12 MSTORE POP DUP3 SWAP1 POP DUP8 DUP11 DUP13 PUSH32 0x2584DB4A68AA8B172F70BC04E2E74541617C003374DE6EB4B295E823E5BEAB01 JUMPDEST DUP6 DUP4 LT PUSH2 0x18FB JUMPI POP POP PUSH2 0x1653 SWAP4 POP DUP3 ADD ADD CODESIZE PUSH2 0x1646 JUMP JUMPDEST DUP1 SWAP2 SWAP3 SWAP5 POP SLOAD DUP4 DUP6 DUP9 ADD ADD MSTORE ADD SWAP2 ADD DUP9 SWAP1 DUP13 DUP6 SWAP4 PUSH2 0x18E4 JUMP JUMPDEST PUSH1 0xFF NOT AND DUP9 MSTORE PUSH2 0x1653 SWAP6 ISZERO ISZERO PUSH1 0x5 SHL DUP6 ADD ADD SWAP3 POP CODESIZE SWAP2 POP PUSH2 0x1646 SWAP1 POP JUMP JUMPDEST DUP1 SLOAD SWAP1 PUSH1 0x1 PUSH1 0x40 SHL DUP3 LT ISZERO PUSH2 0x1250 JUMPI PUSH1 0x1 DUP3 ADD DUP1 DUP3 SSTORE DUP3 LT ISZERO PUSH2 0x114E JUMPI PUSH1 0x0 MSTORE PUSH1 0x20 PUSH1 0x0 KECCAK256 ADD SWAP1 PUSH1 0x1 DUP1 PUSH1 0xA0 SHL SUB AND PUSH12 0xFFFFFFFFFFFFFFFFFFFFFFFF PUSH1 0xA0 SHL DUP3 SLOAD AND OR SWAP1 SSTORE JUMP JUMPDEST PUSH1 0x0 NOT DUP2 EQ PUSH2 0x1988 JUMPI PUSH1 0x1 ADD SWAP1 JUMP JUMPDEST PUSH4 0x4E487B71 PUSH1 0xE0 SHL PUSH1 0x0 MSTORE PUSH1 0x11 PUSH1 0x4 MSTORE PUSH1 0x24 PUSH1 0x0 REVERT JUMPDEST DUP2 DUP2 LT PUSH2 0x19A9 JUMPI POP POP JUMP JUMPDEST PUSH1 0x0 DUP2 SSTORE PUSH1 0x1 ADD PUSH2 0x199E JUMP JUMPDEST SWAP2 SWAP1 SWAP2 DUP3 MLOAD PUSH8 0xFFFFFFFFFFFFFFFF DUP2 GT PUSH2 0x1250 JUMPI PUSH2 0x19D3 DUP3 SLOAD PUSH2 0x1164 JUMP JUMPDEST PUSH1 0x1F DUP2 GT PUSH2 0x1A7D JUMPI JUMPDEST POP PUSH1 0x20 DUP1 PUSH1 0x1F DUP4 GT PUSH1 0x1 EQ PUSH2 0x1A19 JUMPI POP DUP2 SWAP3 SWAP4 SWAP5 PUSH1 0x0 SWAP3 PUSH2 0x1A0E JUMPI JUMPDEST POP POP DUP2 PUSH1 0x1 SHL SWAP2 PUSH1 0x0 NOT SWAP1 PUSH1 0x3 SHL SHR NOT AND OR SWAP1 SSTORE JUMP JUMPDEST ADD MLOAD SWAP1 POP CODESIZE DUP1 PUSH2 0x19F8 JUMP JUMPDEST SWAP1 PUSH1 0x1F NOT DUP4 AND SWAP6 DUP5 PUSH1 0x0 MSTORE DUP3 PUSH1 0x0 KECCAK256 SWAP3 PUSH1 0x0 SWAP1 JUMPDEST DUP9 DUP3 LT PUSH2 0x1A65 JUMPI POP POP DUP4 PUSH1 0x1 SWAP6 SWAP7 SWAP8 LT PUSH2 0x1A4C JUMPI JUMPDEST POP POP POP DUP2 SHL ADD SWAP1 SSTORE JUMP JUMPDEST ADD MLOAD PUSH1 0x0 NOT PUSH1 0xF8 DUP5 PUSH1 0x3 SHL AND SHR NOT AND SWAP1 SSTORE CODESIZE DUP1 DUP1 PUSH2 0x1A42 JUMP JUMPDEST DUP1 PUSH1 0x1 DUP6 SWAP7 DUP3 SWAP5 SWAP7 DUP7 ADD MLOAD DUP2 SSTORE ADD SWAP6 ADD SWAP4 ADD SWAP1 PUSH2 0x1A2D JUMP JUMPDEST PUSH2 0x1AAA SWAP1 DUP4 PUSH1 0x0 MSTORE PUSH1 0x20 PUSH1 0x0 KECCAK256 PUSH1 0x1F DUP5 ADD PUSH1 0x5 SHR DUP2 ADD SWAP2 PUSH1 0x20 DUP6 LT PUSH2 0x1AB0 JUMPI JUMPDEST PUSH1 0x1F ADD PUSH1 0x5 SHR ADD SWAP1 PUSH2 0x199E JUMP JUMPDEST CODESIZE PUSH2 0x19DC JUMP JUMPDEST SWAP1 SWAP2 POP DUP2 SWAP1 PUSH2 0x1A9D JUMP JUMPDEST SWAP1 DUP1 MLOAD PUSH1 0x1 DUP1 PUSH1 0xA0 SHL SUB DUP1 DUP3 MLOAD AND PUSH12 0xFFFFFFFFFFFFFFFFFFFFFFFF PUSH1 0xA0 SHL DUP6 SLOAD AND OR DUP5 SSTORE PUSH1 0x20 SWAP1 PUSH2 0x1B93 PUSH2 0x160 DUP4 DUP6 ADD MLOAD SWAP5 PUSH2 0x1AFA PUSH1 0x1 SWAP7 DUP8 DUP11 ADD PUSH2 0x19B5 JUMP JUMPDEST PUSH1 0x40 DUP2 ADD MLOAD PUSH1 0x2 DUP10 ADD SSTORE PUSH1 0x60 DUP2 ADD MLOAD PUSH1 0x3 DUP10 ADD SSTORE PUSH2 0x1B1F PUSH1 0x80 DUP3 ADD MLOAD PUSH1 0x4 DUP11 ADD PUSH2 0x19B5 JUMP JUMPDEST PUSH2 0x1B30 PUSH1 0xA0 DUP3 ADD MLOAD PUSH1 0x5 DUP11 ADD PUSH2 0x19B5 JUMP JUMPDEST PUSH2 0x1B41 PUSH1 0xC0 DUP3 ADD MLOAD PUSH1 0x6 DUP11 ADD PUSH2 0x19B5 JUMP JUMPDEST PUSH2 0x1B52 PUSH1 0xE0 DUP3 ADD MLOAD PUSH1 0x7 DUP11 ADD PUSH2 0x19B5 JUMP JUMPDEST PUSH2 0x1B64 PUSH2 0x100 DUP3 ADD MLOAD PUSH1 0x8 DUP11 ADD PUSH2 0x19B5 JUMP JUMPDEST PUSH2 0x1B76 PUSH2 0x120 DUP3 ADD MLOAD PUSH1 0x9 DUP11 ADD PUSH2 0x19B5 JUMP JUMPDEST PUSH2 0x1B88 PUSH2 0x140 DUP3 ADD MLOAD PUSH1 0xA DUP11 ADD PUSH2 0x19B5 JUMP JUMPDEST ADD MLOAD PUSH1 0xB DUP8 ADD PUSH2 0x19B5 JUMP JUMPDEST PUSH1 0xC DUP6 ADD SWAP1 DUP3 DUP6 ADD MLOAD SWAP3 DUP4 MLOAD SWAP4 PUSH8 0xFFFFFFFFFFFFFFFF DUP6 GT PUSH2 0x1250 JUMPI PUSH1 0x1 PUSH1 0x40 SHL DUP6 GT PUSH2 0x1250 JUMPI DUP2 SWAP1 DUP5 SLOAD DUP7 DUP7 SSTORE DUP1 DUP8 LT PUSH2 0x1C04 JUMPI JUMPDEST POP ADD SWAP3 PUSH1 0x0 MSTORE DUP1 PUSH1 0x0 KECCAK256 SWAP2 PUSH1 0x0 JUMPDEST DUP6 DUP2 LT PUSH2 0x1BF1 JUMPI POP POP POP POP POP POP POP PUSH1 0x40 PUSH1 0xD SWAP2 ADD MLOAD SWAP2 ADD SSTORE JUMP JUMPDEST DUP5 MLOAD DUP3 AND DUP5 DUP3 ADD SSTORE SWAP4 DUP3 ADD SWAP4 DUP7 ADD PUSH2 0x1BD7 JUMP JUMPDEST PUSH2 0x1C1B SWAP1 DUP7 PUSH1 0x0 MSTORE DUP8 DUP5 PUSH1 0x0 KECCAK256 SWAP2 DUP3 ADD SWAP2 ADD PUSH2 0x199E JUMP JUMPDEST CODESIZE PUSH2 0x1BC9 JUMP JUMPDEST SWAP1 PUSH1 0x40 MLOAD PUSH2 0x1C2E DUP2 PUSH2 0x1283 JUMP JUMPDEST PUSH1 0x40 PUSH1 0xD DUP3 SWAP5 PUSH2 0x1C3D DUP2 PUSH2 0x12C1 JUMP JUMPDEST DUP5 MSTORE DUP3 MLOAD PUSH2 0x1C52 DUP2 PUSH2 0x12FD DUP2 PUSH1 0xC DUP7 ADD PUSH2 0x14C3 JUMP JUMPDEST PUSH1 0x20 DUP6 ADD MSTORE ADD SLOAD SWAP2 ADD MSTORE JUMP JUMPDEST SWAP1 PUSH1 0x1 DUP3 ADD DUP1 SWAP3 GT PUSH2 0x1988 JUMPI JUMP INVALID LOG2 PUSH5 0x6970667358 0x22 SLT KECCAK256 CALLDATALOAD PUSH14 0x723F7A30E7F43548A51486738DFE 0xE0 DUP14 CODESIZE SWAP15 ISZERO BALANCE GASLIMIT 0xDA PUSH26 0x5A1EC46B4C9CD564736F6C634300081100330000000000000000 "
		},
		"gasEstimates": {
			"creation": {
				"codeDepositCost": "1466000",
				"executionCost": "infinite",
				"totalCost": "infinite"
			},
			"external": {
				"addVoter(string,uint256,uint256,string,string,string,string,string,string,string,string)": "infinite",
				"adminAddress()": "2730",
				"candidateList(uint256)": "infinite",
				"candidateNames(uint256)": "infinite",
				"candidates(address)": "infinite",
				"gender_list(uint256)": "infinite",
				"getAllCandidates()": "infinite",
				"getAllVoters()": "infinite",
				"getCandidateDetails(address)": "infinite",
				"getVoterDetails(address)": "infinite",
				"isAdmin(address)": "2382",
				"totalFemaleVoters()": "2497",
				"totalMaleVoters()": "2268",
				"totalOtherVoters()": "2299",
				"totalVoter()": "2431",
				"updateCounter(string)": "infinite",
				"vote(address)": "infinite",
				"voteCount()": "2695",
				"voterList(uint256)": "infinite",
				"voterNames(uint256)": "infinite",
				"voters(address)": "infinite"
			}
		},
		"methodIdentifiers": {
			"addVoter(string,uint256,uint256,string,string,string,string,string,string,string,string)": "9eda74cf",
			"adminAddress()": "fc6f9468",
			"candidateList(uint256)": "b13c744b",
			"candidateNames(uint256)": "8287e42f",
			"candidates(address)": "8ab66a90",
			"gender_list(uint256)": "6394a8fa",
			"getAllCandidates()": "2e6997fe",
			"getAllVoters()": "35bbe70e",
			"getCandidateDetails(address)": "53ac5dc3",
			"getVoterDetails(address)": "ba71bef0",
			"isAdmin(address)": "24d7806c",
			"totalFemaleVoters()": "7c054c54",
			"totalMaleVoters()": "029c21bd",
			"totalOtherVoters()": "0983f185",
			"totalVoter()": "6332abc9",
			"updateCounter(string)": "b0a4ec42",
			"vote(address)": "6dd7d8ea",
			"voteCount()": "c6384071",
			"voterList(uint256)": "50e2e8af",
			"voterNames(uint256)": "a96278ae",
			"voters(address)": "a3ec138d"
		}
	},
	"abi": [
		{
			"anonymous": false,
			"inputs": [
				{
					"components": [
						{
							"components": [
								{
									"internalType": "address",
									"name": "_id",
									"type": "address"
								},
								{
									"internalType": "string",
									"name": "fullName",
									"type": "string"
								},
								{
									"internalType": "uint256",
									"name": "citizenshipNumber",
									"type": "uint256"
								},
								{
									"internalType": "uint256",
									"name": "age",
									"type": "uint256"
								},
								{
									"internalType": "string",
									"name": "gender",
									"type": "string"
								},
								{
									"internalType": "string",
									"name": "dob",
									"type": "string"
								},
								{
									"internalType": "string",
									"name": "email",
									"type": "string"
								},
								{
									"internalType": "string",
									"name": "profile",
									"type": "string"
								},
								{
									"internalType": "string",
									"name": "province",
									"type": "string"
								},
								{
									"internalType": "string",
									"name": "district",
									"type": "string"
								},
								{
									"internalType": "string",
									"name": "municipality",
									"type": "string"
								},
								{
									"internalType": "string",
									"name": "ward",
									"type": "string"
								}
							],
							"internalType": "struct Structure.User",
							"name": "user",
							"type": "tuple"
						},
						{
							"internalType": "string",
							"name": "partyName",
							"type": "string"
						},
						{
							"internalType": "string",
							"name": "agenda",
							"type": "string"
						},
						{
							"internalType": "uint256",
							"name": "voteCount",
							"type": "uint256"
						},
						{
							"internalType": "address[]",
							"name": "votedVoterLists",
							"type": "address[]"
						}
					],
					"indexed": false,
					"internalType": "struct Structure.Candidate",
					"name": "candidate",
					"type": "tuple"
				}
			],
			"name": "VoteCast",
			"type": "event"
		},
		{
			"anonymous": false,
			"inputs": [
				{
					"components": [
						{
							"components": [
								{
									"internalType": "address",
									"name": "_id",
									"type": "address"
								},
								{
									"internalType": "string",
									"name": "fullName",
									"type": "string"
								},
								{
									"internalType": "uint256",
									"name": "citizenshipNumber",
									"type": "uint256"
								},
								{
									"internalType": "uint256",
									"name": "age",
									"type": "uint256"
								},
								{
									"internalType": "string",
									"name": "gender",
									"type": "string"
								},
								{
									"internalType": "string",
									"name": "dob",
									"type": "string"
								},
								{
									"internalType": "string",
									"name": "email",
									"type": "string"
								},
								{
									"internalType": "string",
									"name": "profile",
									"type": "string"
								},
								{
									"internalType": "string",
									"name": "province",
									"type": "string"
								},
								{
									"internalType": "string",
									"name": "district",
									"type": "string"
								},
								{
									"internalType": "string",
									"name": "municipality",
									"type": "string"
								},
								{
									"internalType": "string",
									"name": "ward",
									"type": "string"
								}
							],
							"internalType": "struct Structure.User",
							"name": "user",
							"type": "tuple"
						},
						{
							"internalType": "address[]",
							"name": "votedCandidateList",
							"type": "address[]"
						},
						{
							"internalType": "uint256",
							"name": "voteLimitCount",
							"type": "uint256"
						}
					],
					"indexed": false,
					"internalType": "struct Structure.Voter",
					"name": "voter",
					"type": "tuple"
				}
			],
			"name": "VoterCreated",
			"type": "event"
		},
		{
			"inputs": [
				{
					"internalType": "string",
					"name": "_name",
					"type": "string"
				},
				{
					"internalType": "uint256",
					"name": "_citizenshipNo",
					"type": "uint256"
				},
				{
					"internalType": "uint256",
					"name": "_age",
					"type": "uint256"
				},
				{
					"internalType": "string",
					"name": "_dob",
					"type": "string"
				},
				{
					"internalType": "string",
					"name": "_email",
					"type": "string"
				},
				{
					"internalType": "string",
					"name": "_profile",
					"type": "string"
				},
				{
					"internalType": "string",
					"name": "_province",
					"type": "string"
				},
				{
					"internalType": "string",
					"name": "_district",
					"type": "string"
				},
				{
					"internalType": "string",
					"name": "_municipality",
					"type": "string"
				},
				{
					"internalType": "string",
					"name": "_ward",
					"type": "string"
				},
				{
					"internalType": "string",
					"name": "_gender",
					"type": "string"
				}
			],
			"name": "addVoter",
			"outputs": [],
			"stateMutability": "payable",
			"type": "function"
		},
		{
			"inputs": [],
			"name": "adminAddress",
			"outputs": [
				{
					"internalType": "address",
					"name": "",
					"type": "address"
				}
			],
			"stateMutability": "view",
			"type": "function"
		},
		{
			"inputs": [
				{
					"internalType": "uint256",
					"name": "",
					"type": "uint256"
				}
			],
			"name": "candidateList",
			"outputs": [
				{
					"components": [
						{
							"internalType": "address",
							"name": "_id",
							"type": "address"
						},
						{
							"internalType": "string",
							"name": "fullName",
							"type": "string"
						},
						{
							"internalType": "uint256",
							"name": "citizenshipNumber",
							"type": "uint256"
						},
						{
							"internalType": "uint256",
							"name": "age",
							"type": "uint256"
						},
						{
							"internalType": "string",
							"name": "gender",
							"type": "string"
						},
						{
							"internalType": "string",
							"name": "dob",
							"type": "string"
						},
						{
							"internalType": "string",
							"name": "email",
							"type": "string"
						},
						{
							"internalType": "string",
							"name": "profile",
							"type": "string"
						},
						{
							"internalType": "string",
							"name": "province",
							"type": "string"
						},
						{
							"internalType": "string",
							"name": "district",
							"type": "string"
						},
						{
							"internalType": "string",
							"name": "municipality",
							"type": "string"
						},
						{
							"internalType": "string",
							"name": "ward",
							"type": "string"
						}
					],
					"internalType": "struct Structure.User",
					"name": "user",
					"type": "tuple"
				},
				{
					"internalType": "string",
					"name": "partyName",
					"type": "string"
				},
				{
					"internalType": "string",
					"name": "agenda",
					"type": "string"
				},
				{
					"internalType": "uint256",
					"name": "voteCount",
					"type": "uint256"
				}
			],
			"stateMutability": "view",
			"type": "function"
		},
		{
			"inputs": [
				{
					"internalType": "uint256",
					"name": "",
					"type": "uint256"
				}
			],
			"name": "candidateNames",
			"outputs": [
				{
					"internalType": "string",
					"name": "",
					"type": "string"
				}
			],
			"stateMutability": "view",
			"type": "function"
		},
		{
			"inputs": [
				{
					"internalType": "address",
					"name": "",
					"type": "address"
				}
			],
			"name": "candidates",
			"outputs": [
				{
					"components": [
						{
							"internalType": "address",
							"name": "_id",
							"type": "address"
						},
						{
							"internalType": "string",
							"name": "fullName",
							"type": "string"
						},
						{
							"internalType": "uint256",
							"name": "citizenshipNumber",
							"type": "uint256"
						},
						{
							"internalType": "uint256",
							"name": "age",
							"type": "uint256"
						},
						{
							"internalType": "string",
							"name": "gender",
							"type": "string"
						},
						{
							"internalType": "string",
							"name": "dob",
							"type": "string"
						},
						{
							"internalType": "string",
							"name": "email",
							"type": "string"
						},
						{
							"internalType": "string",
							"name": "profile",
							"type": "string"
						},
						{
							"internalType": "string",
							"name": "province",
							"type": "string"
						},
						{
							"internalType": "string",
							"name": "district",
							"type": "string"
						},
						{
							"internalType": "string",
							"name": "municipality",
							"type": "string"
						},
						{
							"internalType": "string",
							"name": "ward",
							"type": "string"
						}
					],
					"internalType": "struct Structure.User",
					"name": "user",
					"type": "tuple"
				},
				{
					"internalType": "string",
					"name": "partyName",
					"type": "string"
				},
				{
					"internalType": "string",
					"name": "agenda",
					"type": "string"
				},
				{
					"internalType": "uint256",
					"name": "voteCount",
					"type": "uint256"
				}
			],
			"stateMutability": "view",
			"type": "function"
		},
		{
			"inputs": [
				{
					"internalType": "uint256",
					"name": "",
					"type": "uint256"
				}
			],
			"name": "gender_list",
			"outputs": [
				{
					"internalType": "string",
					"name": "",
					"type": "string"
				}
			],
			"stateMutability": "view",
			"type": "function"
		},
		{
			"inputs": [],
			"name": "getAllCandidates",
			"outputs": [
				{
					"components": [
						{
							"components": [
								{
									"internalType": "address",
									"name": "_id",
									"type": "address"
								},
								{
									"internalType": "string",
									"name": "fullName",
									"type": "string"
								},
								{
									"internalType": "uint256",
									"name": "citizenshipNumber",
									"type": "uint256"
								},
								{
									"internalType": "uint256",
									"name": "age",
									"type": "uint256"
								},
								{
									"internalType": "string",
									"name": "gender",
									"type": "string"
								},
								{
									"internalType": "string",
									"name": "dob",
									"type": "string"
								},
								{
									"internalType": "string",
									"name": "email",
									"type": "string"
								},
								{
									"internalType": "string",
									"name": "profile",
									"type": "string"
								},
								{
									"internalType": "string",
									"name": "province",
									"type": "string"
								},
								{
									"internalType": "string",
									"name": "district",
									"type": "string"
								},
								{
									"internalType": "string",
									"name": "municipality",
									"type": "string"
								},
								{
									"internalType": "string",
									"name": "ward",
									"type": "string"
								}
							],
							"internalType": "struct Structure.User",
							"name": "user",
							"type": "tuple"
						},
						{
							"internalType": "string",
							"name": "partyName",
							"type": "string"
						},
						{
							"internalType": "string",
							"name": "agenda",
							"type": "string"
						},
						{
							"internalType": "uint256",
							"name": "voteCount",
							"type": "uint256"
						},
						{
							"internalType": "address[]",
							"name": "votedVoterLists",
							"type": "address[]"
						}
					],
					"internalType": "struct Structure.Candidate[]",
					"name": "",
					"type": "tuple[]"
				}
			],
			"stateMutability": "view",
			"type": "function"
		},
		{
			"inputs": [],
			"name": "getAllVoters",
			"outputs": [
				{
					"components": [
						{
							"components": [
								{
									"internalType": "address",
									"name": "_id",
									"type": "address"
								},
								{
									"internalType": "string",
									"name": "fullName",
									"type": "string"
								},
								{
									"internalType": "uint256",
									"name": "citizenshipNumber",
									"type": "uint256"
								},
								{
									"internalType": "uint256",
									"name": "age",
									"type": "uint256"
								},
								{
									"internalType": "string",
									"name": "gender",
									"type": "string"
								},
								{
									"internalType": "string",
									"name": "dob",
									"type": "string"
								},
								{
									"internalType": "string",
									"name": "email",
									"type": "string"
								},
								{
									"internalType": "string",
									"name": "profile",
									"type": "string"
								},
								{
									"internalType": "string",
									"name": "province",
									"type": "string"
								},
								{
									"internalType": "string",
									"name": "district",
									"type": "string"
								},
								{
									"internalType": "string",
									"name": "municipality",
									"type": "string"
								},
								{
									"internalType": "string",
									"name": "ward",
									"type": "string"
								}
							],
							"internalType": "struct Structure.User",
							"name": "user",
							"type": "tuple"
						},
						{
							"internalType": "address[]",
							"name": "votedCandidateList",
							"type": "address[]"
						},
						{
							"internalType": "uint256",
							"name": "voteLimitCount",
							"type": "uint256"
						}
					],
					"internalType": "struct Structure.Voter[]",
					"name": "",
					"type": "tuple[]"
				}
			],
			"stateMutability": "view",
			"type": "function"
		},
		{
			"inputs": [
				{
					"internalType": "address",
					"name": "_id",
					"type": "address"
				}
			],
			"name": "getCandidateDetails",
			"outputs": [
				{
					"components": [
						{
							"components": [
								{
									"internalType": "address",
									"name": "_id",
									"type": "address"
								},
								{
									"internalType": "string",
									"name": "fullName",
									"type": "string"
								},
								{
									"internalType": "uint256",
									"name": "citizenshipNumber",
									"type": "uint256"
								},
								{
									"internalType": "uint256",
									"name": "age",
									"type": "uint256"
								},
								{
									"internalType": "string",
									"name": "gender",
									"type": "string"
								},
								{
									"internalType": "string",
									"name": "dob",
									"type": "string"
								},
								{
									"internalType": "string",
									"name": "email",
									"type": "string"
								},
								{
									"internalType": "string",
									"name": "profile",
									"type": "string"
								},
								{
									"internalType": "string",
									"name": "province",
									"type": "string"
								},
								{
									"internalType": "string",
									"name": "district",
									"type": "string"
								},
								{
									"internalType": "string",
									"name": "municipality",
									"type": "string"
								},
								{
									"internalType": "string",
									"name": "ward",
									"type": "string"
								}
							],
							"internalType": "struct Structure.User",
							"name": "user",
							"type": "tuple"
						},
						{
							"internalType": "string",
							"name": "partyName",
							"type": "string"
						},
						{
							"internalType": "string",
							"name": "agenda",
							"type": "string"
						},
						{
							"internalType": "uint256",
							"name": "voteCount",
							"type": "uint256"
						},
						{
							"internalType": "address[]",
							"name": "votedVoterLists",
							"type": "address[]"
						}
					],
					"internalType": "struct Structure.Candidate",
					"name": "",
					"type": "tuple"
				}
			],
			"stateMutability": "view",
			"type": "function"
		},
		{
			"inputs": [
				{
					"internalType": "address",
					"name": "_id",
					"type": "address"
				}
			],
			"name": "getVoterDetails",
			"outputs": [
				{
					"components": [
						{
							"components": [
								{
									"internalType": "address",
									"name": "_id",
									"type": "address"
								},
								{
									"internalType": "string",
									"name": "fullName",
									"type": "string"
								},
								{
									"internalType": "uint256",
									"name": "citizenshipNumber",
									"type": "uint256"
								},
								{
									"internalType": "uint256",
									"name": "age",
									"type": "uint256"
								},
								{
									"internalType": "string",
									"name": "gender",
									"type": "string"
								},
								{
									"internalType": "string",
									"name": "dob",
									"type": "string"
								},
								{
									"internalType": "string",
									"name": "email",
									"type": "string"
								},
								{
									"internalType": "string",
									"name": "profile",
									"type": "string"
								},
								{
									"internalType": "string",
									"name": "province",
									"type": "string"
								},
								{
									"internalType": "string",
									"name": "district",
									"type": "string"
								},
								{
									"internalType": "string",
									"name": "municipality",
									"type": "string"
								},
								{
									"internalType": "string",
									"name": "ward",
									"type": "string"
								}
							],
							"internalType": "struct Structure.User",
							"name": "user",
							"type": "tuple"
						},
						{
							"internalType": "address[]",
							"name": "votedCandidateList",
							"type": "address[]"
						},
						{
							"internalType": "uint256",
							"name": "voteLimitCount",
							"type": "uint256"
						}
					],
					"internalType": "struct Structure.Voter",
					"name": "",
					"type": "tuple"
				}
			],
			"stateMutability": "view",
			"type": "function"
		},
		{
			"inputs": [
				{
					"internalType": "address",
					"name": "_id",
					"type": "address"
				}
			],
			"name": "isAdmin",
			"outputs": [
				{
					"internalType": "bool",
					"name": "",
					"type": "bool"
				}
			],
			"stateMutability": "view",
			"type": "function"
		},
		{
			"inputs": [],
			"name": "totalFemaleVoters",
			"outputs": [
				{
					"internalType": "uint256",
					"name": "",
					"type": "uint256"
				}
			],
			"stateMutability": "view",
			"type": "function"
		},
		{
			"inputs": [],
			"name": "totalMaleVoters",
			"outputs": [
				{
					"internalType": "uint256",
					"name": "",
					"type": "uint256"
				}
			],
			"stateMutability": "view",
			"type": "function"
		},
		{
			"inputs": [],
			"name": "totalOtherVoters",
			"outputs": [
				{
					"internalType": "uint256",
					"name": "",
					"type": "uint256"
				}
			],
			"stateMutability": "view",
			"type": "function"
		},
		{
			"inputs": [],
			"name": "totalVoter",
			"outputs": [
				{
					"internalType": "uint256",
					"name": "",
					"type": "uint256"
				}
			],
			"stateMutability": "view",
			"type": "function"
		},
		{
			"inputs": [
				{
					"internalType": "string",
					"name": "_gender",
					"type": "string"
				}
			],
			"name": "updateCounter",
			"outputs": [],
			"stateMutability": "nonpayable",
			"type": "function"
		},
		{
			"inputs": [
				{
					"internalType": "address",
					"name": "_candidateId",
					"type": "address"
				}
			],
			"name": "vote",
			"outputs": [],
			"stateMutability": "payable",
			"type": "function"
		},
		{
			"inputs": [],
			"name": "voteCount",
			"outputs": [
				{
					"internalType": "uint256",
					"name": "",
					"type": "uint256"
				}
			],
			"stateMutability": "view",
			"type": "function"
		},
		{
			"inputs": [
				{
					"internalType": "uint256",
					"name": "",
					"type": "uint256"
				}
			],
			"name": "voterList",
			"outputs": [
				{
					"components": [
						{
							"internalType": "address",
							"name": "_id",
							"type": "address"
						},
						{
							"internalType": "string",
							"name": "fullName",
							"type": "string"
						},
						{
							"internalType": "uint256",
							"name": "citizenshipNumber",
							"type": "uint256"
						},
						{
							"internalType": "uint256",
							"name": "age",
							"type": "uint256"
						},
						{
							"internalType": "string",
							"name": "gender",
							"type": "string"
						},
						{
							"internalType": "string",
							"name": "dob",
							"type": "string"
						},
						{
							"internalType": "string",
							"name": "email",
							"type": "string"
						},
						{
							"internalType": "string",
							"name": "profile",
							"type": "string"
						},
						{
							"internalType": "string",
							"name": "province",
							"type": "string"
						},
						{
							"internalType": "string",
							"name": "district",
							"type": "string"
						},
						{
							"internalType": "string",
							"name": "municipality",
							"type": "string"
						},
						{
							"internalType": "string",
							"name": "ward",
							"type": "string"
						}
					],
					"internalType": "struct Structure.User",
					"name": "user",
					"type": "tuple"
				},
				{
					"internalType": "uint256",
					"name": "voteLimitCount",
					"type": "uint256"
				}
			],
			"stateMutability": "view",
			"type": "function"
		},
		{
			"inputs": [
				{
					"internalType": "uint256",
					"name": "",
					"type": "uint256"
				}
			],
			"name": "voterNames",
			"outputs": [
				{
					"internalType": "string",
					"name": "",
					"type": "string"
				}
			],
			"stateMutability": "view",
			"type": "function"
		},
		{
			"inputs": [
				{
					"internalType": "address",
					"name": "",
					"type": "address"
				}
			],
			"name": "voters",
			"outputs": [
				{
					"components": [
						{
							"internalType": "address",
							"name": "_id",
							"type": "address"
						},
						{
							"internalType": "string",
							"name": "fullName",
							"type": "string"
						},
						{
							"internalType": "uint256",
							"name": "citizenshipNumber",
							"type": "uint256"
						},
						{
							"internalType": "uint256",
							"name": "age",
							"type": "uint256"
						},
						{
							"internalType": "string",
							"name": "gender",
							"type": "string"
						},
						{
							"internalType": "string",
							"name": "dob",
							"type": "string"
						},
						{
							"internalType": "string",
							"name": "email",
							"type": "string"
						},
						{
							"internalType": "string",
							"name": "profile",
							"type": "string"
						},
						{
							"internalType": "string",
							"name": "province",
							"type": "string"
						},
						{
							"internalType": "string",
							"name": "district",
							"type": "string"
						},
						{
							"internalType": "string",
							"name": "municipality",
							"type": "string"
						},
						{
							"internalType": "string",
							"name": "ward",
							"type": "string"
						}
					],
					"internalType": "struct Structure.User",
					"name": "user",
					"type": "tuple"
				},
				{
					"internalType": "uint256",
					"name": "voteLimitCount",
					"type": "uint256"
				}
			],
			"stateMutability": "view",
			"type": "function"
		}
	]
}