{
	"Contract/src/components/Candidate.sol": {
		"Candidate": {
			"abi": [
				{
					"anonymous": false,
					"inputs": [
						{
							"components": [
								{
									"components": [
										{
											"internalType": "address",
											"name": "_id",
											"type": "address"
										},
										{
											"internalType": "string",
											"name": "fullName",
											"type": "string"
										},
										{
											"internalType": "uint256",
											"name": "citizenshipNumber",
											"type": "uint256"
										},
										{
											"internalType": "uint256",
											"name": "age",
											"type": "uint256"
										},
										{
											"internalType": "string",
											"name": "gender",
											"type": "string"
										},
										{
											"internalType": "string",
											"name": "dob",
											"type": "string"
										},
										{
											"internalType": "string",
											"name": "email",
											"type": "string"
										},
										{
											"internalType": "string",
											"name": "profile",
											"type": "string"
										},
										{
											"internalType": "string",
											"name": "province",
											"type": "string"
										},
										{
											"internalType": "string",
											"name": "district",
											"type": "string"
										},
										{
											"internalType": "string",
											"name": "municipality",
											"type": "string"
										},
										{
											"internalType": "string",
											"name": "ward",
											"type": "string"
										}
									],
									"internalType": "struct Structure.User",
									"name": "user",
									"type": "tuple"
								},
								{
									"internalType": "string",
									"name": "partyName",
									"type": "string"
								},
								{
									"internalType": "string",
									"name": "position",
									"type": "string"
								},
								{
									"internalType": "string",
									"name": "agenda",
									"type": "string"
								},
								{
									"internalType": "uint256",
									"name": "voteCount",
									"type": "uint256"
								},
								{
									"internalType": "address[]",
									"name": "votedVoterLists",
									"type": "address[]"
								}
							],
							"indexed": false,
							"internalType": "struct Structure.Candidate",
							"name": "candidate",
							"type": "tuple"
						}
					],
					"name": "CandidateCreated",
					"type": "event"
				},
				{
					"inputs": [
						{
							"internalType": "string",
							"name": "_name",
							"type": "string"
						},
						{
							"internalType": "uint256",
							"name": "_citizenshipNo",
							"type": "uint256"
						},
						{
							"internalType": "uint256",
							"name": "_age",
							"type": "uint256"
						},
						{
							"internalType": "string",
							"name": "_agenda",
							"type": "string"
						},
						{
							"internalType": "string",
							"name": "_dob",
							"type": "string"
						},
						{
							"internalType": "string",
							"name": "_email",
							"type": "string"
						},
						{
							"internalType": "string",
							"name": "_profile",
							"type": "string"
						},
						{
							"internalType": "string",
							"name": "_partyName",
							"type": "string"
						},
						{
							"internalType": "string",
							"name": "_province",
							"type": "string"
						},
						{
							"internalType": "string",
							"name": "_district",
							"type": "string"
						},
						{
							"internalType": "string",
							"name": "_municipality",
							"type": "string"
						},
						{
							"internalType": "string",
							"name": "_ward",
							"type": "string"
						},
						{
							"internalType": "string",
							"name": "_gender",
							"type": "string"
						}
					],
					"name": "addCandidate",
					"outputs": [],
					"stateMutability": "payable",
					"type": "function"
				},
				{
					"inputs": [],
					"name": "adminAddress",
					"outputs": [
						{
							"internalType": "address",
							"name": "",
							"type": "address"
						}
					],
					"stateMutability": "view",
					"type": "function"
				},
				{
					"inputs": [
						{
							"internalType": "uint256",
							"name": "",
							"type": "uint256"
						}
					],
					"name": "candidateList",
					"outputs": [
						{
							"components": [
								{
									"internalType": "address",
									"name": "_id",
									"type": "address"
								},
								{
									"internalType": "string",
									"name": "fullName",
									"type": "string"
								},
								{
									"internalType": "uint256",
									"name": "citizenshipNumber",
									"type": "uint256"
								},
								{
									"internalType": "uint256",
									"name": "age",
									"type": "uint256"
								},
								{
									"internalType": "string",
									"name": "gender",
									"type": "string"
								},
								{
									"internalType": "string",
									"name": "dob",
									"type": "string"
								},
								{
									"internalType": "string",
									"name": "email",
									"type": "string"
								},
								{
									"internalType": "string",
									"name": "profile",
									"type": "string"
								},
								{
									"internalType": "string",
									"name": "province",
									"type": "string"
								},
								{
									"internalType": "string",
									"name": "district",
									"type": "string"
								},
								{
									"internalType": "string",
									"name": "municipality",
									"type": "string"
								},
								{
									"internalType": "string",
									"name": "ward",
									"type": "string"
								}
							],
							"internalType": "struct Structure.User",
							"name": "user",
							"type": "tuple"
						},
						{
							"internalType": "string",
							"name": "partyName",
							"type": "string"
						},
						{
							"internalType": "string",
							"name": "position",
							"type": "string"
						},
						{
							"internalType": "string",
							"name": "agenda",
							"type": "string"
						},
						{
							"internalType": "uint256",
							"name": "voteCount",
							"type": "uint256"
						}
					],
					"stateMutability": "view",
					"type": "function"
				},
				{
					"inputs": [
						{
							"internalType": "uint256",
							"name": "",
							"type": "uint256"
						}
					],
					"name": "candidateNames",
					"outputs": [
						{
							"internalType": "string",
							"name": "",
							"type": "string"
						}
					],
					"stateMutability": "view",
					"type": "function"
				},
				{
					"inputs": [
						{
							"internalType": "address",
							"name": "",
							"type": "address"
						}
					],
					"name": "candidates",
					"outputs": [
						{
							"components": [
								{
									"internalType": "address",
									"name": "_id",
									"type": "address"
								},
								{
									"internalType": "string",
									"name": "fullName",
									"type": "string"
								},
								{
									"internalType": "uint256",
									"name": "citizenshipNumber",
									"type": "uint256"
								},
								{
									"internalType": "uint256",
									"name": "age",
									"type": "uint256"
								},
								{
									"internalType": "string",
									"name": "gender",
									"type": "string"
								},
								{
									"internalType": "string",
									"name": "dob",
									"type": "string"
								},
								{
									"internalType": "string",
									"name": "email",
									"type": "string"
								},
								{
									"internalType": "string",
									"name": "profile",
									"type": "string"
								},
								{
									"internalType": "string",
									"name": "province",
									"type": "string"
								},
								{
									"internalType": "string",
									"name": "district",
									"type": "string"
								},
								{
									"internalType": "string",
									"name": "municipality",
									"type": "string"
								},
								{
									"internalType": "string",
									"name": "ward",
									"type": "string"
								}
							],
							"internalType": "struct Structure.User",
							"name": "user",
							"type": "tuple"
						},
						{
							"internalType": "string",
							"name": "partyName",
							"type": "string"
						},
						{
							"internalType": "string",
							"name": "position",
							"type": "string"
						},
						{
							"internalType": "string",
							"name": "agenda",
							"type": "string"
						},
						{
							"internalType": "uint256",
							"name": "voteCount",
							"type": "uint256"
						}
					],
					"stateMutability": "view",
					"type": "function"
				},
				{
					"inputs": [
						{
							"internalType": "uint256",
							"name": "",
							"type": "uint256"
						}
					],
					"name": "gender_list",
					"outputs": [
						{
							"internalType": "string",
							"name": "",
							"type": "string"
						}
					],
					"stateMutability": "view",
					"type": "function"
				},
				{
					"inputs": [],
					"name": "getAllCandidates",
					"outputs": [
						{
							"components": [
								{
									"components": [
										{
											"internalType": "address",
											"name": "_id",
											"type": "address"
										},
										{
											"internalType": "string",
											"name": "fullName",
											"type": "string"
										},
										{
											"internalType": "uint256",
											"name": "citizenshipNumber",
											"type": "uint256"
										},
										{
											"internalType": "uint256",
											"name": "age",
											"type": "uint256"
										},
										{
											"internalType": "string",
											"name": "gender",
											"type": "string"
										},
										{
											"internalType": "string",
											"name": "dob",
											"type": "string"
										},
										{
											"internalType": "string",
											"name": "email",
											"type": "string"
										},
										{
											"internalType": "string",
											"name": "profile",
											"type": "string"
										},
										{
											"internalType": "string",
											"name": "province",
											"type": "string"
										},
										{
											"internalType": "string",
											"name": "district",
											"type": "string"
										},
										{
											"internalType": "string",
											"name": "municipality",
											"type": "string"
										},
										{
											"internalType": "string",
											"name": "ward",
											"type": "string"
										}
									],
									"internalType": "struct Structure.User",
									"name": "user",
									"type": "tuple"
								},
								{
									"internalType": "string",
									"name": "partyName",
									"type": "string"
								},
								{
									"internalType": "string",
									"name": "position",
									"type": "string"
								},
								{
									"internalType": "string",
									"name": "agenda",
									"type": "string"
								},
								{
									"internalType": "uint256",
									"name": "voteCount",
									"type": "uint256"
								},
								{
									"internalType": "address[]",
									"name": "votedVoterLists",
									"type": "address[]"
								}
							],
							"internalType": "struct Structure.Candidate[]",
							"name": "",
							"type": "tuple[]"
						}
					],
					"stateMutability": "view",
					"type": "function"
				},
				{
					"inputs": [
						{
							"internalType": "address",
							"name": "_id",
							"type": "address"
						}
					],
					"name": "getCandidateDetails",
					"outputs": [
						{
							"components": [
								{
									"components": [
										{
											"internalType": "address",
											"name": "_id",
											"type": "address"
										},
										{
											"internalType": "string",
											"name": "fullName",
											"type": "string"
										},
										{
											"internalType": "uint256",
											"name": "citizenshipNumber",
											"type": "uint256"
										},
										{
											"internalType": "uint256",
											"name": "age",
											"type": "uint256"
										},
										{
											"internalType": "string",
											"name": "gender",
											"type": "string"
										},
										{
											"internalType": "string",
											"name": "dob",
											"type": "string"
										},
										{
											"internalType": "string",
											"name": "email",
											"type": "string"
										},
										{
											"internalType": "string",
											"name": "profile",
											"type": "string"
										},
										{
											"internalType": "string",
											"name": "province",
											"type": "string"
										},
										{
											"internalType": "string",
											"name": "district",
											"type": "string"
										},
										{
											"internalType": "string",
											"name": "municipality",
											"type": "string"
										},
										{
											"internalType": "string",
											"name": "ward",
											"type": "string"
										}
									],
									"internalType": "struct Structure.User",
									"name": "user",
									"type": "tuple"
								},
								{
									"internalType": "string",
									"name": "partyName",
									"type": "string"
								},
								{
									"internalType": "string",
									"name": "position",
									"type": "string"
								},
								{
									"internalType": "string",
									"name": "agenda",
									"type": "string"
								},
								{
									"internalType": "uint256",
									"name": "voteCount",
									"type": "uint256"
								},
								{
									"internalType": "address[]",
									"name": "votedVoterLists",
									"type": "address[]"
								}
							],
							"internalType": "struct Structure.Candidate",
							"name": "",
							"type": "tuple"
						}
					],
					"stateMutability": "view",
					"type": "function"
				},
				{
					"inputs": [
						{
							"internalType": "address",
							"name": "_id",
							"type": "address"
						}
					],
					"name": "isAdmin",
					"outputs": [
						{
							"internalType": "bool",
							"name": "",
							"type": "bool"
						}
					],
					"stateMutability": "view",
					"type": "function"
				},
				{
					"inputs": [],
					"name": "totalCandidate",
					"outputs": [
						{
							"internalType": "uint256",
							"name": "",
							"type": "uint256"
						}
					],
					"stateMutability": "view",
					"type": "function"
				},
				{
					"inputs": [],
					"name": "totalFemaleVoters",
					"outputs": [
						{
							"internalType": "uint256",
							"name": "",
							"type": "uint256"
						}
					],
					"stateMutability": "view",
					"type": "function"
				},
				{
					"inputs": [],
					"name": "totalMaleVoters",
					"outputs": [
						{
							"internalType": "uint256",
							"name": "",
							"type": "uint256"
						}
					],
					"stateMutability": "view",
					"type": "function"
				},
				{
					"inputs": [],
					"name": "totalOtherVoters",
					"outputs": [
						{
							"internalType": "uint256",
							"name": "",
							"type": "uint256"
						}
					],
					"stateMutability": "view",
					"type": "function"
				},
				{
					"inputs": [
						{
							"internalType": "string",
							"name": "_gender",
							"type": "string"
						}
					],
					"name": "updateCounter",
					"outputs": [],
					"stateMutability": "nonpayable",
					"type": "function"
				}
			],
			"devdoc": {
				"kind": "dev",
				"methods": {},
				"version": 1
			},
			"evm": {
				"assembly": "    /* \"Contract/src/components/Candidate.sol\":121:2151  contract Candidate is Structure, Utils{... */\n  0x80\n  jumpi(tag_4, callvalue)\n  sub(shl(0x40, 0x01), 0x01)\n  0x60\n  dup3\n  add\n  dup2\n  dup2\n  gt\n  dup4\n  dup3\n  lt\n  or\n  tag_6\n  jumpi\n  0x40\n  mstore\n  tag_8\n  tag_1\n  jump\t// in\ntag_8:\n  0x04\n  swap1\n  dup2\n  dup2\n  mstore\n  0x20\n  swap1\n  shl(0xe0, 0x4d414c45)\n  dup3\n  dup3\n  add\n  mstore\n  dup5\n  mstore\n  tag_9\n  tag_1\n  jump\t// in\ntag_9:\n  0x06\n  dup2\n  mstore\n  shl(0xd0, 0x46454d414c45)\n  dup3\n  dup3\n  add\n  mstore\n    /* \"Contract/src/common/Constants.sol\":154:180  [\"MALE\",\"FEMALE\",\"OTHERS\"] */\n  dup2\n  dup6\n  add\n    /* \"Contract/src/components/Candidate.sol\":121:2151  contract Candidate is Structure, Utils{... */\n  mstore\n  tag_10\n  tag_1\n  jump\t// in\ntag_10:\n  0x06\n  dup2\n  mstore\n  shl(0xd0, 0x4f5448455253)\n  dup3\n  dup3\n  add\n  mstore\n  0x40\n    /* \"Contract/src/common/Constants.sol\":154:180  [\"MALE\",\"FEMALE\",\"OTHERS\"] */\n  dup6\n  add\n    /* \"Contract/src/components/Candidate.sol\":121:2151  contract Candidate is Structure, Utils{... */\n  mstore\n  0x00\n  swap3\n  dup4\n  sload\n    /* \"Contract/src/common/Constants.sol\":154:180  [\"MALE\",\"FEMALE\",\"OTHERS\"] */\n  swap5\n  0x03\n    /* \"Contract/src/components/Candidate.sol\":121:2151  contract Candidate is Structure, Utils{... */\n  swap6\n  dup7\n  dup7\n  sstore\n  dup1\n  dup8\n  lt\n  tag_11\n  jumpi\ntag_12:\n  pop\n  dup5\n  dup1\n  mstore\n  dup3\n  dup6\n  keccak256\n  dup6\n  swap2\ntag_13:\n  dup8\n  dup4\n  lt\n  tag_14\n  jumpi\n    /* \"Contract/src/common/Utils.sol\":319:320  0 */\n  0x02\n    /* \"Contract/src/components/Candidate.sol\":121:2151  contract Candidate is Structure, Utils{... */\n  dup8\n  swap1\n  sstore\n  dup7\n  dup9\n  sstore\n  dup7\n  dup7\n  sstore\n  0x01\n  dup1\n  sload\n  not(sub(shl(0xa0, 0x01), 0x01))\n  and\n    /* \"Contract/src/common/Utils.sol\":446:456  msg.sender */\n  caller\n    /* \"Contract/src/components/Candidate.sol\":121:2151  contract Candidate is Structure, Utils{... */\n  or\n  swap1\n  sstore\n    /* \"Contract/src/components/Candidate.sol\":410:411  0 */\n  0x08\n    /* \"Contract/src/components/Candidate.sol\":121:2151  contract Candidate is Structure, Utils{... */\n  dup8\n  swap1\n  sstore\n  mload(0x40)\n  dataSize(sub_0)\n  swap1\n  dup2\n  dataOffset(sub_0)\n  dup3\n  codecopy\n  return\ntag_14:\n  dup1\n  mload\n  dup1\n  mload\n  swap1\n  dup6\n  dup3\n  gt\n  tag_16\n  jumpi\n  swap1\n  dup7\n  swap2\n  tag_18\n  dup6\n  sload\n  tag_2\n  jump\t// in\ntag_18:\n  swap1\n  0x1f\n  swap2\n  dup3\n  dup2\n  gt\n  tag_19\n  jumpi\ntag_20:\n  pop\n  dup4\n  swap2\n  dup4\n  gt\n  0x01\n  eq\n  tag_21\n  jumpi\n  swap2\n  dup1\n  0x01\n  swap6\n  swap3\n  dup7\n  swap6\n  swap5\n  dup14\n  swap3\n  tag_23\n  jumpi\ntag_24:\n  pop\n  pop\n  not(0x00)\n  dup3\n  dup15\n  shl\n  shr\n  not\n  and\n  swap1\n  dup5\n  shl\n  or\n  dup6\n  sstore\ntag_25:\n  add\n  swap3\n  add\n  swap3\n  add\n  swap2\n  swap1\n  jump(tag_13)\ntag_23:\n  add\n  mload\n  swap1\n  pop\n  codesize\n  dup1\n  jump(tag_24)\ntag_21:\n  dup6\n  dup12\n  mstore\n  dup4\n  dup12\n  keccak256\n  swap2\n  swap1\n  not(0x1f)\n  dup5\n  and\n  dup13\ntag_26:\n  dup2\n  dup2\n  lt\n  tag_27\n  jumpi\n  pop\n  swap2\n  0x01\n  swap7\n  swap4\n  swap2\n  dup6\n  dup9\n  swap8\n  swap7\n  swap5\n  lt\n  tag_29\n  jumpi\ntag_30:\n  pop\n  pop\n  pop\n  dup4\n  shl\n  dup4\n  add\n  dup6\n  sstore\n  jump(tag_25)\ntag_29:\n  add\n  mload\n  not(0x00)\n  dup4\n  dup16\n  shl\n  0xf8\n  and\n  shr\n  not\n  and\n  swap1\n  sstore\n  codesize\n  dup1\n  dup1\n  jump(tag_30)\ntag_27:\n  dup3\n  dup5\n  add\n  mload\n  dup6\n  sstore\n  dup12\n  swap7\n  0x01\n  swap1\n  swap6\n  add\n  swap5\n  swap4\n  dup5\n  add\n  swap4\n  add\n  jump(tag_26)\ntag_19:\n  tag_31\n  swap1\n  dup8\n  dup14\n  mstore\n  dup6\n  dup14\n  keccak256\n  0x05\n  dup6\n  dup1\n  dup9\n  add\n  dup3\n  shr\n  dup4\n  add\n  swap4\n  dup10\n  dup10\n  lt\n  tag_32\n  jumpi\ntag_33:\n  add\n  swap1\n  shr\n  add\n  swap1\n  tag_3\n  jump\t// in\ntag_31:\n  codesize\n  jump(tag_20)\ntag_32:\n  swap4\n  pop\n  dup3\n  swap4\n  jump(tag_33)\ntag_16:\n  shl(0xe0, 0x4e487b71)\n  dup10\n  mstore\n  0x41\n  dup9\n  mstore\n  0x24\n  dup10\n  revert\ntag_11:\n  dup6\n  dup1\n  mstore\n  dup7\n  dup5\n  dup8\n  keccak256\n  swap2\n  dup3\n  add\n  swap2\n  add\ntag_34:\n  dup2\n  dup2\n  lt\n  tag_35\n  jumpi\n  pop\n  jump(tag_12)\ntag_35:\n  dup1\n  tag_37\n  0x01\n  swap3\n  sload\n  tag_2\n  jump\t// in\ntag_37:\n  dup1\n  tag_38\n  jumpi\ntag_39:\n  pop\n  add\n  jump(tag_34)\ntag_38:\n  0x1f\n  swap1\n  dup2\n  dup2\n  gt\n  dup5\n  eq\n  tag_40\n  jumpi\n  pop\n  pop\n  dup8\n  dup2\n  sstore\ntag_42:\n  codesize\n  jump(tag_39)\ntag_40:\n  dup4\n  tag_43\n  swap3\n  dup5\n  dup13\n  mstore\n  dup10\n  dup13\n  keccak256\n  swap3\n  add\n  0x05\n  shr\n  dup3\n  add\n  swap2\n  add\n  tag_3\n  jump\t// in\ntag_43:\n  dup8\n  dup7\n  dup2\n  keccak256\n  dup2\n  dup4\n  sstore\n  sstore\n  jump(tag_42)\ntag_6:\n  mstore(0x00, shl(0xe0, 0x4e487b71))\n  mstore(0x04, 0x41)\n  revert(0x00, 0x24)\ntag_4:\n  0x00\n  dup1\n  revert\ntag_1:\n  0x40\n  dup1\n  mload\n  swap2\n  swap1\n  dup3\n  add\n  sub(shl(0x40, 0x01), 0x01)\n  dup2\n  gt\n  dup4\n  dup3\n  lt\n  or\n  tag_6\n  jumpi\n  0x40\n  mstore\n  jump\t// out\ntag_2:\n  swap1\n  0x01\n  dup3\n  dup2\n  shr\n  swap3\n  and\n  dup1\n  iszero\n  tag_46\n  jumpi\ntag_47:\n  0x20\n  dup4\n  lt\n  eq\n  tag_48\n  jumpi\n  jump\t// out\ntag_48:\n  mstore(0x00, shl(0xe0, 0x4e487b71))\n  mstore(0x04, 0x22)\n  revert(0x00, 0x24)\ntag_46:\n  swap2\n  0x7f\n  and\n  swap2\n  jump(tag_47)\ntag_3:\n  dup2\n  dup2\n  lt\n  tag_51\n  jumpi\n  pop\n  pop\n  jump\t// out\ntag_51:\n  0x00\n  dup2\n  sstore\n  0x01\n  add\n  jump(tag_3)\nstop\n\nsub_0: assembly {\n        /* \"Contract/src/components/Candidate.sol\":121:2151  contract Candidate is Structure, Utils{... */\n      0x80\n      dup1\n      0x40\n      mstore\n      jumpi(tag_18, iszero(lt(calldatasize, 0x04)))\n      0x00\n      dup1\n      revert\n    tag_18:\n      shr(0xe0, calldataload(0x00))\n      swap1\n      dup2\n      0x029c21bd\n      eq\n      tag_20\n      jumpi\n      pop\n      dup1\n      0x0983f185\n      eq\n      tag_22\n      jumpi\n      dup1\n      0x1812dab4\n      eq\n      tag_24\n      jumpi\n      dup1\n      0x24d7806c\n      eq\n      tag_26\n      jumpi\n      dup1\n      0x2d23c735\n      eq\n      tag_28\n      jumpi\n      dup1\n      0x2e6997fe\n      eq\n      tag_30\n      jumpi\n      dup1\n      0x53ac5dc3\n      eq\n      tag_32\n      jumpi\n      dup1\n      0x6394a8fa\n      eq\n      tag_34\n      jumpi\n      dup1\n      0x7c054c54\n      eq\n      tag_36\n      jumpi\n      dup1\n      0x8287e42f\n      eq\n      tag_38\n      jumpi\n      dup1\n      0x8ab66a90\n      eq\n      tag_40\n      jumpi\n      dup1\n      0xb0a4ec42\n      eq\n      tag_42\n      jumpi\n      dup1\n      0xb13c744b\n      eq\n      tag_44\n      jumpi\n      0xfc6f9468\n      eq\n      tag_46\n      jumpi\n      0x00\n      dup1\n      revert\n    tag_46:\n      jumpi(tag_50, callvalue)\n      jumpi(tag_50, slt(add(not(0x03), calldatasize), 0x00))\n      sload(0x01)\n      mload(0x40)\n      sub(shl(0xa0, 0x01), 0x01)\n      swap1\n      swap2\n      and\n      dup2\n      mstore\n      0x20\n      swap1\n      return\n    tag_50:\n      0x00\n      dup1\n      revert\n    tag_44:\n      jumpi(tag_50, callvalue)\n      jumpi(tag_50, slt(add(not(0x03), calldatasize), 0x20))\n      calldataload(0x04)\n        /* \"Contract/src/components/Candidate.sol\":280:312  Candidate[] public candidateList */\n      0x06\n        /* \"Contract/src/components/Candidate.sol\":121:2151  contract Candidate is Structure, Utils{... */\n      sload\n        /* \"Contract/src/components/Candidate.sol\":280:312  Candidate[] public candidateList */\n      dup2\n      lt\n      iszero\n      tag_50\n      jumpi\n      0x06\n        /* \"Contract/src/components/Candidate.sol\":121:2151  contract Candidate is Structure, Utils{... */\n      0x00\n      mstore\n      0x11\n      mul\n        /* \"Contract/src/components/Candidate.sol\":280:312  Candidate[] public candidateList */\n      tag_58\n        /* \"Contract/src/components/Candidate.sol\":121:2151  contract Candidate is Structure, Utils{... */\n      0xf652222313e28459528d920b65115c16c04f3efc82aaedc97be59f3f377c0d3f\n      dup3\n      add\n        /* \"Contract/src/components/Candidate.sol\":280:312  Candidate[] public candidateList */\n      tag_10\n      jump\t// in\n    tag_58:\n        /* \"Contract/src/components/Candidate.sol\":121:2151  contract Candidate is Structure, Utils{... */\n      tag_59\n      mload(0x40)\n        /* \"Contract/src/components/Candidate.sol\":280:312  Candidate[] public candidateList */\n      swap3\n        /* \"Contract/src/components/Candidate.sol\":121:2151  contract Candidate is Structure, Utils{... */\n      tag_60\n        /* \"Contract/src/components/Candidate.sol\":280:312  Candidate[] public candidateList */\n      dup5\n        /* \"Contract/src/components/Candidate.sol\":121:2151  contract Candidate is Structure, Utils{... */\n      tag_61\n        /* \"Contract/src/components/Candidate.sol\":280:312  Candidate[] public candidateList */\n      dup2\n      0xf652222313e28459528d920b65115c16c04f3efc82aaedc97be59f3f377c0d4b\n      dup6\n      add\n        /* \"Contract/src/components/Candidate.sol\":121:2151  contract Candidate is Structure, Utils{... */\n      tag_9\n      jump\t// in\n    tag_61:\n      sub\n      dup6\n      tag_3\n      jump\t// in\n    tag_60:\n      mload(0x40)\n        /* \"Contract/src/components/Candidate.sol\":280:312  Candidate[] public candidateList */\n      swap1\n        /* \"Contract/src/components/Candidate.sol\":121:2151  contract Candidate is Structure, Utils{... */\n      tag_62\n        /* \"Contract/src/components/Candidate.sol\":280:312  Candidate[] public candidateList */\n      dup3\n        /* \"Contract/src/components/Candidate.sol\":121:2151  contract Candidate is Structure, Utils{... */\n      tag_63\n        /* \"Contract/src/components/Candidate.sol\":280:312  Candidate[] public candidateList */\n      dup2\n      0xf652222313e28459528d920b65115c16c04f3efc82aaedc97be59f3f377c0d4c\n      dup6\n      add\n        /* \"Contract/src/components/Candidate.sol\":121:2151  contract Candidate is Structure, Utils{... */\n      tag_9\n      jump\t// in\n    tag_63:\n      sub\n      dup4\n      tag_3\n      jump\t// in\n    tag_62:\n        /* \"Contract/src/components/Candidate.sol\":280:312  Candidate[] public candidateList */\n      0xf652222313e28459528d920b65115c16c04f3efc82aaedc97be59f3f377c0d4e\n        /* \"Contract/src/components/Candidate.sol\":121:2151  contract Candidate is Structure, Utils{... */\n      mload(0x40)\n        /* \"Contract/src/components/Candidate.sol\":280:312  Candidate[] public candidateList */\n      swap2\n        /* \"Contract/src/components/Candidate.sol\":121:2151  contract Candidate is Structure, Utils{... */\n      tag_64\n        /* \"Contract/src/components/Candidate.sol\":280:312  Candidate[] public candidateList */\n      dup4\n        /* \"Contract/src/components/Candidate.sol\":121:2151  contract Candidate is Structure, Utils{... */\n      tag_65\n        /* \"Contract/src/components/Candidate.sol\":280:312  Candidate[] public candidateList */\n      dup2\n      0xf652222313e28459528d920b65115c16c04f3efc82aaedc97be59f3f377c0d4d\n      dup6\n      add\n        /* \"Contract/src/components/Candidate.sol\":121:2151  contract Candidate is Structure, Utils{... */\n      tag_9\n      jump\t// in\n    tag_65:\n      sub\n      dup5\n      tag_3\n      jump\t// in\n    tag_64:\n        /* \"Contract/src/components/Candidate.sol\":280:312  Candidate[] public candidateList */\n      add\n        /* \"Contract/src/components/Candidate.sol\":121:2151  contract Candidate is Structure, Utils{... */\n      sload\n      swap2\n      mload(0x40)\n      swap6\n      dup7\n      swap6\n      dup7\n      tag_11\n      jump\t// in\n    tag_59:\n      sub\n      swap1\n      return\n    tag_42:\n      jumpi(tag_50, callvalue)\n      jumpi(tag_50, slt(add(not(0x03), calldatasize), 0x20))\n      calldataload(0x04)\n      sub(shl(0x40, 0x01), 0x01)\n      dup2\n      gt\n      tag_50\n      jumpi\n      tag_72\n      tag_73\n      swap2\n      calldatasize\n      swap1\n      0x04\n      add\n      tag_4\n      jump\t// in\n    tag_72:\n      tag_13\n      jump\t// in\n    tag_73:\n      stop\n    tag_40:\n      jumpi(tag_50, callvalue)\n      jumpi(tag_50, slt(add(not(0x03), calldatasize), 0x20))\n      calldataload(0x04)\n      sub(shl(0xa0, 0x01), 0x01)\n      dup2\n      and\n      swap1\n      dup2\n      swap1\n      sub\n      tag_50\n      jumpi\n      0x00\n      mstore\n        /* \"Contract/src/components/Candidate.sol\":211:259  mapping (address => Candidate) public candidates */\n      0x05\n        /* \"Contract/src/components/Candidate.sol\":121:2151  contract Candidate is Structure, Utils{... */\n      0x20\n      mstore\n      keccak256(0x00, 0x40)\n        /* \"Contract/src/components/Candidate.sol\":211:259  mapping (address => Candidate) public candidates */\n      tag_80\n      dup2\n      tag_10\n      jump\t// in\n    tag_80:\n        /* \"Contract/src/components/Candidate.sol\":121:2151  contract Candidate is Structure, Utils{... */\n      tag_59\n      mload(0x40)\n        /* \"Contract/src/components/Candidate.sol\":211:259  mapping (address => Candidate) public candidates */\n      swap3\n        /* \"Contract/src/components/Candidate.sol\":121:2151  contract Candidate is Structure, Utils{... */\n      tag_82\n        /* \"Contract/src/components/Candidate.sol\":211:259  mapping (address => Candidate) public candidates */\n      dup5\n        /* \"Contract/src/components/Candidate.sol\":121:2151  contract Candidate is Structure, Utils{... */\n      tag_61\n        /* \"Contract/src/components/Candidate.sol\":211:259  mapping (address => Candidate) public candidates */\n      dup2\n      0x0c\n      dup6\n      add\n        /* \"Contract/src/components/Candidate.sol\":121:2151  contract Candidate is Structure, Utils{... */\n      tag_9\n      jump\t// in\n    tag_82:\n      mload(0x40)\n        /* \"Contract/src/components/Candidate.sol\":211:259  mapping (address => Candidate) public candidates */\n      swap1\n        /* \"Contract/src/components/Candidate.sol\":121:2151  contract Candidate is Structure, Utils{... */\n      tag_84\n        /* \"Contract/src/components/Candidate.sol\":211:259  mapping (address => Candidate) public candidates */\n      dup3\n        /* \"Contract/src/components/Candidate.sol\":121:2151  contract Candidate is Structure, Utils{... */\n      tag_63\n        /* \"Contract/src/components/Candidate.sol\":211:259  mapping (address => Candidate) public candidates */\n      dup2\n      0x0d\n      dup6\n      add\n        /* \"Contract/src/components/Candidate.sol\":121:2151  contract Candidate is Structure, Utils{... */\n      tag_9\n      jump\t// in\n    tag_84:\n        /* \"Contract/src/components/Candidate.sol\":211:259  mapping (address => Candidate) public candidates */\n      0x0f\n        /* \"Contract/src/components/Candidate.sol\":121:2151  contract Candidate is Structure, Utils{... */\n      mload(0x40)\n        /* \"Contract/src/components/Candidate.sol\":211:259  mapping (address => Candidate) public candidates */\n      swap2\n        /* \"Contract/src/components/Candidate.sol\":121:2151  contract Candidate is Structure, Utils{... */\n      tag_64\n        /* \"Contract/src/components/Candidate.sol\":211:259  mapping (address => Candidate) public candidates */\n      dup4\n        /* \"Contract/src/components/Candidate.sol\":121:2151  contract Candidate is Structure, Utils{... */\n      tag_65\n        /* \"Contract/src/components/Candidate.sol\":211:259  mapping (address => Candidate) public candidates */\n      dup2\n      0x0e\n      dup6\n      add\n        /* \"Contract/src/components/Candidate.sol\":121:2151  contract Candidate is Structure, Utils{... */\n      tag_9\n      jump\t// in\n    tag_38:\n      jumpi(tag_50, callvalue)\n      jumpi(tag_50, slt(add(not(0x03), calldatasize), 0x20))\n      calldataload(0x04)\n        /* \"Contract/src/components/Candidate.sol\":318:348  string[] public candidateNames */\n      0x07\n        /* \"Contract/src/components/Candidate.sol\":121:2151  contract Candidate is Structure, Utils{... */\n      sload\n        /* \"Contract/src/components/Candidate.sol\":318:348  string[] public candidateNames */\n      dup2\n      lt\n      iszero\n      tag_50\n      jumpi\n        /* \"Contract/src/components/Candidate.sol\":121:2151  contract Candidate is Structure, Utils{... */\n      tag_94\n      tag_95\n      tag_59\n      swap3\n        /* \"Contract/src/components/Candidate.sol\":318:348  string[] public candidateNames */\n      0x07\n        /* \"Contract/src/components/Candidate.sol\":121:2151  contract Candidate is Structure, Utils{... */\n      0x00\n      mstore\n      mload(0x40)\n      swap3\n      dup4\n      dup1\n      swap3\n      0xa66cc928b5edb82af9bd49922954155ab7b0942694bea4ce44661d9a8736c688\n      add\n      tag_9\n      jump\t// in\n    tag_94:\n      sub\n      dup3\n      tag_3\n      jump\t// in\n    tag_95:\n      mload(0x40)\n      swap2\n      dup3\n      swap2\n      0x20\n      dup4\n      mstore\n      0x20\n      dup4\n      add\n      swap1\n      tag_5\n      jump\t// in\n    tag_36:\n      jumpi(tag_50, callvalue)\n      jumpi(tag_50, slt(add(not(0x03), calldatasize), 0x00))\n      0x20\n      sload(0x03)\n      mload(0x40)\n      swap1\n      dup2\n      mstore\n      return\n    tag_34:\n      jumpi(tag_50, callvalue)\n      jumpi(tag_50, slt(add(not(0x03), calldatasize), 0x20))\n      calldataload(0x04)\n      sload(0x00)\n        /* \"Contract/src/common/Constants.sol\":83:110  string[] public gender_list */\n      dup2\n      lt\n      iszero\n      tag_50\n      jumpi\n        /* \"Contract/src/components/Candidate.sol\":121:2151  contract Candidate is Structure, Utils{... */\n      tag_94\n      tag_95\n      tag_59\n      swap3\n      0x00\n      dup1\n      mstore\n      mload(0x40)\n      swap3\n      dup4\n      dup1\n      swap3\n      0x290decd9548b62a8d60345a988386fc84ba6bc95484008f6362f93160ef3e563\n      add\n      tag_9\n      jump\t// in\n    tag_32:\n      jumpi(tag_50, callvalue)\n      0x20\n      dup1\n      add(calldatasize, not(0x03))\n      slt\n      tag_50\n      jumpi\n      calldataload(0x04)\n      sub(shl(0xa0, 0x01), 0x01)\n      dup2\n      and\n      swap1\n      dup2\n      swap1\n      sub\n      tag_50\n      jumpi\n      mload(0x40)\n      tag_116\n      dup2\n      tag_2\n      jump\t// in\n    tag_116:\n      0xa0\n      mload(0x40)\n      swap2\n      tag_117\n      dup4\n      tag_1\n      jump\t// in\n    tag_117:\n      0x00\n      dup4\n      mstore\n      0x60\n      swap3\n      dup4\n      dup7\n      dup3\n      add\n      mstore\n      0x00\n      0x40\n      dup3\n      add\n      mstore\n      0x00\n      dup5\n      dup3\n      add\n      mstore\n      dup4\n      0x80\n      dup3\n      add\n      mstore\n      dup4\n      dup4\n      dup3\n      add\n      mstore\n      dup4\n      0xc0\n      dup3\n      add\n      mstore\n      dup4\n      0xe0\n      dup3\n      add\n      mstore\n      dup4\n      0x0100\n      dup3\n      add\n      mstore\n      dup4\n      0x0120\n      dup3\n      add\n      mstore\n      dup4\n      0x0140\n      dup3\n      add\n      mstore\n      dup4\n      0x0160\n      dup3\n      add\n      mstore\n      dup2\n      mstore\n      dup3\n      dup6\n      dup3\n      add\n      mstore\n      dup3\n      0x40\n      dup3\n      add\n      mstore\n      dup3\n      dup1\n      dup3\n      add\n      mstore\n      0x00\n      0x80\n      dup3\n      add\n      mstore\n      add\n      mstore\n      0x00\n      mstore\n        /* \"Contract/src/components/Candidate.sol\":2127:2137  candidates */\n      0x05\n        /* \"Contract/src/components/Candidate.sol\":121:2151  contract Candidate is Structure, Utils{... */\n      dup2\n      mstore\n      tag_118\n      keccak256(0x00, 0x40)\n      tag_17\n      jump\t// in\n    tag_118:\n      swap1\n      tag_59\n      mload(0x40)\n      swap3\n      dup3\n      dup5\n      swap4\n      dup5\n      mstore\n      dup4\n      add\n      swap1\n      tag_7\n      jump\t// in\n    tag_30:\n      jumpi(tag_50, callvalue)\n      jumpi(tag_50, slt(add(not(0x03), calldatasize), 0x00))\n        /* \"Contract/src/components/Candidate.sol\":2005:2018  candidateList */\n      0x06\n        /* \"Contract/src/components/Candidate.sol\":121:2151  contract Candidate is Structure, Utils{... */\n      sload\n      sub(shl(0x40, 0x01), 0x01)\n      dup2\n      gt\n      tag_124\n      jumpi\n      mload(0x40)\n      swap1\n      0x20\n      swap1\n      tag_126\n      dup3\n      dup3\n      0x05\n      shl\n      add\n      dup5\n      tag_3\n      jump\t// in\n    tag_126:\n      dup1\n      dup4\n      mstore\n      dup2\n      dup4\n      add\n      swap1\n      dup2\n        /* \"Contract/src/components/Candidate.sol\":2005:2018  candidateList */\n      0x06\n        /* \"Contract/src/components/Candidate.sol\":121:2151  contract Candidate is Structure, Utils{... */\n      0x00\n      mstore\n      0xf652222313e28459528d920b65115c16c04f3efc82aaedc97be59f3f377c0d3f\n      0x00\n      swap2\n    tag_127:\n      dup4\n      dup4\n      lt\n      tag_128\n      jumpi\n      pop\n      pop\n      pop\n      pop\n      mload(0x40)\n      swap2\n      dup1\n      dup4\n      add\n      swap4\n      dup2\n      dup5\n      mstore\n      mload\n      dup1\n      swap5\n      mstore\n      0x40\n      dup4\n      add\n      swap4\n      0x40\n      dup2\n      0x05\n      shl\n      dup6\n      add\n      add\n      swap3\n      swap2\n      0x00\n      swap6\n    tag_130:\n      dup3\n      dup8\n      lt\n      tag_131\n      jumpi\n      dup6\n      dup6\n      sub\n      dup7\n      return\n    tag_131:\n      swap1\n      swap2\n      swap3\n      swap4\n      dup3\n      dup1\n      tag_133\n      0x01\n      swap4\n      not(0x3f)\n      dup11\n      dup3\n      sub\n      add\n      dup7\n      mstore\n      dup9\n      mload\n      tag_7\n      jump\t// in\n    tag_133:\n      swap7\n      add\n      swap3\n      add\n      swap7\n      add\n      swap6\n      swap3\n      swap2\n      swap1\n      swap3\n      jump(tag_130)\n    tag_128:\n      0x11\n      dup7\n      0x01\n      swap3\n      tag_134\n      dup6\n      swap11\n      swap10\n      swap11\n      tag_17\n      jump\t// in\n    tag_134:\n      dup2\n      mstore\n      add\n      swap3\n      add\n      swap3\n      add\n      swap2\n      swap1\n      swap6\n      swap5\n      swap6\n      jump(tag_127)\n    tag_124:\n      mstore(0x00, shl(0xe0, 0x4e487b71))\n      mstore(0x04, 0x41)\n      revert(0x00, 0x24)\n    tag_28:\n      jumpi(tag_50, slt(add(not(0x03), calldatasize), 0x01a0))\n      calldataload(0x04)\n      sub(shl(0x40, 0x01), 0x01)\n      dup2\n      gt\n      tag_50\n      jumpi\n      tag_139\n      swap1\n      calldatasize\n      swap1\n      0x04\n      add\n      tag_4\n      jump\t// in\n    tag_139:\n      calldataload(0x64)\n      sub(shl(0x40, 0x01), 0x01)\n      dup2\n      gt\n      tag_50\n      jumpi\n      tag_142\n      swap1\n      calldatasize\n      swap1\n      0x04\n      add\n      tag_4\n      jump\t// in\n    tag_142:\n      swap1\n      calldataload(0x84)\n      sub(shl(0x40, 0x01), 0x01)\n      dup2\n      gt\n      tag_50\n      jumpi\n      tag_145\n      swap1\n      calldatasize\n      swap1\n      0x04\n      add\n      tag_4\n      jump\t// in\n    tag_145:\n      swap2\n      calldataload(0xa4)\n      sub(shl(0x40, 0x01), 0x01)\n      dup2\n      gt\n      tag_50\n      jumpi\n      tag_148\n      swap1\n      calldatasize\n      swap1\n      0x04\n      add\n      tag_4\n      jump\t// in\n    tag_148:\n      calldataload(0xc4)\n      sub(shl(0x40, 0x01), 0x01)\n      dup2\n      gt\n      tag_50\n      jumpi\n      tag_151\n      swap1\n      calldatasize\n      swap1\n      0x04\n      add\n      tag_4\n      jump\t// in\n    tag_151:\n      swap1\n      calldataload(0xe4)\n      sub(shl(0x40, 0x01), 0x01)\n      dup2\n      gt\n      tag_50\n      jumpi\n      tag_154\n      swap1\n      calldatasize\n      swap1\n      0x04\n      add\n      tag_4\n      jump\t// in\n    tag_154:\n      swap2\n      calldataload(0x0104)\n      sub(shl(0x40, 0x01), 0x01)\n      dup2\n      gt\n      tag_50\n      jumpi\n      tag_157\n      swap1\n      calldatasize\n      swap1\n      0x04\n      add\n      tag_4\n      jump\t// in\n    tag_157:\n      calldataload(0x0124)\n      sub(shl(0x40, 0x01), 0x01)\n      dup2\n      gt\n      tag_50\n      jumpi\n      tag_160\n      swap1\n      calldatasize\n      swap1\n      0x04\n      add\n      tag_4\n      jump\t// in\n    tag_160:\n      swap1\n      calldataload(0x0144)\n      sub(shl(0x40, 0x01), 0x01)\n      dup2\n      gt\n      tag_50\n      jumpi\n      tag_163\n      swap1\n      calldatasize\n      swap1\n      0x04\n      add\n      tag_4\n      jump\t// in\n    tag_163:\n      swap3\n      calldataload(0x0164)\n      sub(shl(0x40, 0x01), 0x01)\n      dup2\n      gt\n      tag_50\n      jumpi\n      tag_166\n      swap1\n      calldatasize\n      swap1\n      0x04\n      add\n      tag_4\n      jump\t// in\n    tag_166:\n      swap5\n      jumpi(tag_50, gt(calldataload(0x0184), sub(shl(0x40, 0x01), 0x01)))\n      tag_169\n      calldatasize\n      add(0x04, calldataload(0x0184))\n      tag_4\n      jump\t// in\n    tag_169:\n        /* \"Contract/src/components/Candidate.sol\":884:894  msg.sender */\n      caller\n        /* \"Contract/src/components/Candidate.sol\":121:2151  contract Candidate is Structure, Utils{... */\n      0x00\n      dup2\n      dup2\n      mstore\n        /* \"Contract/src/components/Candidate.sol\":954:964  candidates */\n      0x05\n        /* \"Contract/src/components/Candidate.sol\":121:2151  contract Candidate is Structure, Utils{... */\n      0x20\n      mstore\n      0x40\n      swap1\n      keccak256\n      sload\n        /* \"Contract/src/components/Candidate.sol\":884:894  msg.sender */\n      swap2\n      swap12\n      swap2\n      sub(shl(0xa0, 0x01), 0x01)\n        /* \"Contract/src/components/Candidate.sol\":121:2151  contract Candidate is Structure, Utils{... */\n      and\n        /* \"Contract/src/components/Candidate.sol\":954:985  candidates[_id].user._id != _id */\n      eq\n        /* \"Contract/src/components/Candidate.sol\":121:2151  contract Candidate is Structure, Utils{... */\n      tag_170\n      jumpi\n        /* \"Contract/src/components/Candidate.sol\":1100:1113  candidateList */\n      0x06\n        /* \"Contract/src/components/Candidate.sol\":121:2151  contract Candidate is Structure, Utils{... */\n      sload\n      0x00\n        /* \"Contract/src/components/Candidate.sol\":1098:1120  i<candidateList.length */\n    tag_172:\n      dup2\n      dup2\n      lt\n      tag_173\n      jumpi\n        /* \"Contract/src/components/Candidate.sol\":1449:1456  _gender */\n      pop\n      pop\n      tag_175\n      dup12\n      tag_13\n      jump\t// in\n    tag_175:\n        /* \"Contract/src/components/Candidate.sol\":121:2151  contract Candidate is Structure, Utils{... */\n      mload(0x40)\n      swap11\n      tag_176\n      dup13\n      tag_1\n      jump\t// in\n    tag_176:\n        /* \"Contract/src/components/Candidate.sol\":884:894  msg.sender */\n      caller\n        /* \"Contract/src/components/Candidate.sol\":121:2151  contract Candidate is Structure, Utils{... */\n      dup13\n      mstore\n        /* \"Contract/src/components/Candidate.sol\":1520:1635  User(_id, _name, _citizenshipNo, _age, _gender, _dob, _email, _profile, _province, _district, _municipality, _ward) */\n      dup11\n        /* \"Contract/src/components/Candidate.sol\":121:2151  contract Candidate is Structure, Utils{... */\n      0x20\n        /* \"Contract/src/components/Candidate.sol\":1520:1635  User(_id, _name, _citizenshipNo, _age, _gender, _dob, _email, _profile, _province, _district, _municipality, _ward) */\n      dup14\n      add\n        /* \"Contract/src/components/Candidate.sol\":121:2151  contract Candidate is Structure, Utils{... */\n      mstore\n      calldataload(0x24)\n      0x40\n        /* \"Contract/src/components/Candidate.sol\":1520:1635  User(_id, _name, _citizenshipNo, _age, _gender, _dob, _email, _profile, _province, _district, _municipality, _ward) */\n      dup14\n      add\n        /* \"Contract/src/components/Candidate.sol\":121:2151  contract Candidate is Structure, Utils{... */\n      mstore\n      calldataload(0x44)\n      0x60\n        /* \"Contract/src/components/Candidate.sol\":1520:1635  User(_id, _name, _citizenshipNo, _age, _gender, _dob, _email, _profile, _province, _district, _municipality, _ward) */\n      dup14\n      add\n        /* \"Contract/src/components/Candidate.sol\":121:2151  contract Candidate is Structure, Utils{... */\n      mstore\n      0x80\n        /* \"Contract/src/components/Candidate.sol\":1520:1635  User(_id, _name, _citizenshipNo, _age, _gender, _dob, _email, _profile, _province, _district, _municipality, _ward) */\n      dup13\n      add\n        /* \"Contract/src/components/Candidate.sol\":121:2151  contract Candidate is Structure, Utils{... */\n      mstore\n      0xa0\n        /* \"Contract/src/components/Candidate.sol\":1520:1635  User(_id, _name, _citizenshipNo, _age, _gender, _dob, _email, _profile, _province, _district, _municipality, _ward) */\n      dup12\n      add\n        /* \"Contract/src/components/Candidate.sol\":121:2151  contract Candidate is Structure, Utils{... */\n      mstore\n      0xc0\n        /* \"Contract/src/components/Candidate.sol\":1520:1635  User(_id, _name, _citizenshipNo, _age, _gender, _dob, _email, _profile, _province, _district, _municipality, _ward) */\n      dup11\n      add\n        /* \"Contract/src/components/Candidate.sol\":121:2151  contract Candidate is Structure, Utils{... */\n      mstore\n      0xe0\n        /* \"Contract/src/components/Candidate.sol\":1520:1635  User(_id, _name, _citizenshipNo, _age, _gender, _dob, _email, _profile, _province, _district, _municipality, _ward) */\n      dup10\n      add\n        /* \"Contract/src/components/Candidate.sol\":121:2151  contract Candidate is Structure, Utils{... */\n      mstore\n      0x0100\n        /* \"Contract/src/components/Candidate.sol\":1520:1635  User(_id, _name, _citizenshipNo, _age, _gender, _dob, _email, _profile, _province, _district, _municipality, _ward) */\n      dup9\n      add\n        /* \"Contract/src/components/Candidate.sol\":121:2151  contract Candidate is Structure, Utils{... */\n      mstore\n      0x0120\n        /* \"Contract/src/components/Candidate.sol\":1520:1635  User(_id, _name, _citizenshipNo, _age, _gender, _dob, _email, _profile, _province, _district, _municipality, _ward) */\n      dup8\n      add\n        /* \"Contract/src/components/Candidate.sol\":121:2151  contract Candidate is Structure, Utils{... */\n      mstore\n      0x0140\n        /* \"Contract/src/components/Candidate.sol\":1520:1635  User(_id, _name, _citizenshipNo, _age, _gender, _dob, _email, _profile, _province, _district, _municipality, _ward) */\n      dup7\n      add\n        /* \"Contract/src/components/Candidate.sol\":121:2151  contract Candidate is Structure, Utils{... */\n      mstore\n      0x0160\n        /* \"Contract/src/components/Candidate.sol\":1520:1635  User(_id, _name, _citizenshipNo, _age, _gender, _dob, _email, _profile, _province, _district, _municipality, _ward) */\n      dup6\n      add\n        /* \"Contract/src/components/Candidate.sol\":121:2151  contract Candidate is Structure, Utils{... */\n      mstore\n      mload(0x40)\n      swap4\n      tag_177\n      dup6\n      tag_2\n      jump\t// in\n    tag_177:\n      dup5\n      mstore\n      0x20\n        /* \"Contract/src/components/Candidate.sol\":1497:1703  Candidate(... */\n      dup5\n      add\n        /* \"Contract/src/components/Candidate.sol\":121:2151  contract Candidate is Structure, Utils{... */\n      mstore\n      mload(0x40)\n      0x20\n      dup2\n      add\n      dup2\n      dup2\n      lt\n      sub(shl(0x40, 0x01), 0x01)\n      dup3\n      gt\n      or\n      tag_124\n      jumpi\n      0x40\n      mstore\n      0x00\n      dup2\n      mstore\n      0x40\n        /* \"Contract/src/components/Candidate.sol\":1497:1703  Candidate(... */\n      dup5\n      add\n        /* \"Contract/src/components/Candidate.sol\":121:2151  contract Candidate is Structure, Utils{... */\n      mstore\n      0x60\n        /* \"Contract/src/components/Candidate.sol\":1497:1703  Candidate(... */\n      dup4\n      add\n        /* \"Contract/src/components/Candidate.sol\":121:2151  contract Candidate is Structure, Utils{... */\n      mstore\n      0x00\n      0x80\n        /* \"Contract/src/components/Candidate.sol\":1497:1703  Candidate(... */\n      dup4\n      add\n        /* \"Contract/src/components/Candidate.sol\":121:2151  contract Candidate is Structure, Utils{... */\n      mstore\n      0x60\n      0xa0\n        /* \"Contract/src/components/Candidate.sol\":1497:1703  Candidate(... */\n      dup4\n      add\n        /* \"Contract/src/components/Candidate.sol\":121:2151  contract Candidate is Structure, Utils{... */\n      mstore\n        /* \"Contract/src/components/Candidate.sol\":884:894  msg.sender */\n      caller\n        /* \"Contract/src/components/Candidate.sol\":121:2151  contract Candidate is Structure, Utils{... */\n      0x00\n      mstore\n        /* \"Contract/src/components/Candidate.sol\":954:964  candidates */\n      0x05\n        /* \"Contract/src/components/Candidate.sol\":121:2151  contract Candidate is Structure, Utils{... */\n      0x20\n      mstore\n      tag_180\n      dup3\n      keccak256(0x00, 0x40)\n      tag_16\n      jump\t// in\n    tag_180:\n        /* \"Contract/src/components/Candidate.sol\":1751:1765  candidateNames */\n      0x07\n        /* \"Contract/src/components/Candidate.sol\":121:2151  contract Candidate is Structure, Utils{... */\n      sload\n      shl(0x40, 0x01)\n      swap2\n      dup3\n      dup3\n      lt\n      iszero\n      tag_124\n      jumpi\n      0x01\n      dup3\n      add\n      dup1\n        /* \"Contract/src/components/Candidate.sol\":1751:1765  candidateNames */\n      0x07\n        /* \"Contract/src/components/Candidate.sol\":121:2151  contract Candidate is Structure, Utils{... */\n      sstore\n      dup3\n      lt\n      iszero\n      tag_183\n      jumpi\n      tag_185\n      swap2\n        /* \"Contract/src/components/Candidate.sol\":1751:1765  candidateNames */\n      0x07\n        /* \"Contract/src/components/Candidate.sol\":121:2151  contract Candidate is Structure, Utils{... */\n      0x00\n      mstore\n      0xa66cc928b5edb82af9bd49922954155ab7b0942694bea4ce44661d9a8736c688\n      add\n      tag_15\n      jump\t// in\n    tag_185:\n        /* \"Contract/src/components/Candidate.sol\":1100:1113  candidateList */\n      0x06\n        /* \"Contract/src/components/Candidate.sol\":121:2151  contract Candidate is Structure, Utils{... */\n      sload\n      swap1\n      dup2\n      lt\n      iszero\n      tag_124\n      jumpi\n      dup1\n      0x01\n      tag_188\n      swap3\n      add\n        /* \"Contract/src/components/Candidate.sol\":1100:1113  candidateList */\n      0x06\n        /* \"Contract/src/components/Candidate.sol\":121:2151  contract Candidate is Structure, Utils{... */\n      sstore\n      tag_12\n      jump\t// in\n    tag_188:\n      tag_189\n      jumpi\n      dup2\n      tag_191\n      swap2\n      tag_16\n      jump\t// in\n    tag_191:\n        /* \"Contract/src/components/Candidate.sol\":1843:1857  totalCandidate */\n      0x08\n        /* \"Contract/src/components/Candidate.sol\":121:2151  contract Candidate is Structure, Utils{... */\n      sload\n      0x01\n      dup2\n      add\n      dup1\n      swap2\n      gt\n      tag_192\n      jumpi\n        /* \"Contract/src/components/Candidate.sol\":1880:1907  CandidateCreated(candidate) */\n      0xbf1d941749175298e0113ebc8fa72ce74383c54a041e91cee69a167d13b3dfe8\n        /* \"Contract/src/components/Candidate.sol\":121:2151  contract Candidate is Structure, Utils{... */\n      swap2\n      tag_194\n      swap2\n        /* \"Contract/src/components/Candidate.sol\":1843:1857  totalCandidate */\n      0x08\n        /* \"Contract/src/components/Candidate.sol\":121:2151  contract Candidate is Structure, Utils{... */\n      sstore\n      mload(0x40)\n      swap2\n      dup3\n      swap2\n      0x20\n      dup4\n      mstore\n      0x20\n      dup4\n      add\n      swap1\n      tag_7\n      jump\t// in\n    tag_194:\n        /* \"Contract/src/components/Candidate.sol\":1880:1907  CandidateCreated(candidate) */\n      sub\n      swap1\n      log1\n        /* \"Contract/src/components/Candidate.sol\":121:2151  contract Candidate is Structure, Utils{... */\n      stop\n    tag_192:\n      mstore(0x00, shl(0xe0, 0x4e487b71))\n      mstore(0x04, 0x11)\n      revert(0x00, 0x24)\n    tag_189:\n      mstore(0x00, shl(0xe0, 0x4e487b71))\n      mstore(0x04, 0x00)\n      revert(0x00, 0x24)\n    tag_183:\n      mstore(0x00, shl(0xe0, 0x4e487b71))\n      mstore(0x04, 0x32)\n      revert(0x00, 0x24)\n        /* \"Contract/src/components/Candidate.sol\":1121:1124  i++ */\n    tag_173:\n        /* \"Contract/src/components/Candidate.sol\":1147:1163  candidateList[i] */\n      tag_195\n      dup2\n      tag_12\n      jump\t// in\n    tag_195:\n      pop\n        /* \"Contract/src/components/Candidate.sol\":1147:1186  candidateList[i].user.citizenshipNumber */\n      0x02\n      add\n        /* \"Contract/src/components/Candidate.sol\":121:2151  contract Candidate is Structure, Utils{... */\n      sload\n      calldataload(0x24)\n        /* \"Contract/src/components/Candidate.sol\":1147:1204  candidateList[i].user.citizenshipNumber != _citizenshipNo */\n      eq\n        /* \"Contract/src/components/Candidate.sol\":121:2151  contract Candidate is Structure, Utils{... */\n      tag_196\n      jumpi\n        /* \"Contract/src/components/Candidate.sol\":1100:1113  candidateList */\n      0x06\n        /* \"Contract/src/components/Candidate.sol\":121:2151  contract Candidate is Structure, Utils{... */\n      tag_198\n        /* \"Contract/src/components/Candidate.sol\":1305:1321  candidateList[i] */\n      tag_199\n      dup4\n      tag_12\n      jump\t// in\n    tag_199:\n        /* \"Contract/src/components/Candidate.sol\":121:2151  contract Candidate is Structure, Utils{... */\n      pop\n      tag_94\n      mload(0x40)\n        /* \"Contract/src/components/Candidate.sol\":1305:1332  candidateList[i].user.email */\n      dup1\n      swap5\n      dup2\n      swap4\n      add\n        /* \"Contract/src/components/Candidate.sol\":121:2151  contract Candidate is Structure, Utils{... */\n      tag_9\n      jump\t// in\n    tag_198:\n      0x20\n      dup2\n      mload\n      swap2\n      add\n        /* \"Contract/src/components/Candidate.sol\":1289:1334  keccak256(bytes(candidateList[i].user.email)) */\n      keccak256\n        /* \"Contract/src/components/Candidate.sol\":121:2151  contract Candidate is Structure, Utils{... */\n      dup5\n      mload\n      0x20\n      dup7\n      add\n        /* \"Contract/src/components/Candidate.sol\":1338:1362  keccak256(bytes(_email)) */\n      keccak256\n        /* \"Contract/src/components/Candidate.sol\":1289:1362  keccak256(bytes(candidateList[i].user.email)) != keccak256(bytes(_email)) */\n      eq\n        /* \"Contract/src/components/Candidate.sol\":121:2151  contract Candidate is Structure, Utils{... */\n      tag_201\n      jumpi\n      not(0x00)\n      dup2\n      eq\n      tag_192\n      jumpi\n      0x01\n      add\n        /* \"Contract/src/components/Candidate.sol\":1089:1097  uint i=0 */\n      jump(tag_172)\n        /* \"Contract/src/components/Candidate.sol\":121:2151  contract Candidate is Structure, Utils{... */\n    tag_201:\n      mload(0x40)\n      shl(0xe5, 0x461bcd)\n      dup2\n      mstore\n      0x20\n      0x04\n      dup3\n      add\n      mstore\n      0x2f\n      0x24\n      dup3\n      add\n      mstore\n      0x43616e646964617465207769746820676976656e20656d61696c20616c726561\n      0x44\n      dup3\n      add\n      mstore\n      shl(0x88, 0x647920726567697374657265642021)\n      0x64\n      dup3\n      add\n      mstore\n      0x84\n      swap1\n      revert\n    tag_196:\n      mload(0x40)\n      shl(0xe5, 0x461bcd)\n      dup2\n      mstore\n      0x20\n      0x04\n      dup3\n      add\n      mstore\n      0x39\n      0x24\n      dup3\n      add\n      mstore\n      0x43616e646964617465207769746820676976656e20436974697a656e73686970\n      0x44\n      dup3\n      add\n      mstore\n      0x204e6f2e20616c72656164792072656769737465726564202100000000000000\n      0x64\n      dup3\n      add\n      mstore\n      0x84\n      swap1\n      revert\n    tag_170:\n      mload(0x40)\n      shl(0xe5, 0x461bcd)\n      dup2\n      mstore\n      0x20\n      0x04\n      dup3\n      add\n      mstore\n      0x1e\n      0x24\n      dup3\n      add\n      mstore\n      0x43616e64696461746520616c7265616479207265676973746572656420210000\n      0x44\n      dup3\n      add\n      mstore\n      0x64\n      swap1\n      revert\n    tag_26:\n      jumpi(tag_50, callvalue)\n      jumpi(tag_50, slt(add(not(0x03), calldatasize), 0x20))\n      sub(shl(0xa0, 0x01), 0x01)\n      calldataload(0x04)\n      dup2\n      dup2\n      and\n      swap1\n      dup2\n      swap1\n      sub\n      tag_50\n      jumpi\n      0x20\n      swap2\n      sload(0x01)\n      and\n        /* \"Contract/src/common/Utils.sol\":542:561  _id == adminAddress */\n      eq\n        /* \"Contract/src/components/Candidate.sol\":121:2151  contract Candidate is Structure, Utils{... */\n      mload(0x40)\n      swap1\n      dup2\n      mstore\n      return\n    tag_24:\n      jumpi(tag_50, callvalue)\n      jumpi(tag_50, slt(add(not(0x03), calldatasize), 0x00))\n      0x20\n        /* \"Contract/src/components/Candidate.sol\":381:411  uint public totalCandidate = 0 */\n      0x08\n        /* \"Contract/src/components/Candidate.sol\":121:2151  contract Candidate is Structure, Utils{... */\n      sload\n      mload(0x40)\n      swap1\n      dup2\n      mstore\n      return\n    tag_22:\n      jumpi(tag_50, callvalue)\n      jumpi(tag_50, slt(add(not(0x03), calldatasize), 0x00))\n      0x20\n      sload(0x04)\n      mload(0x40)\n      swap1\n      dup2\n      mstore\n      return\n    tag_20:\n      jumpi(tag_50, callvalue)\n      jumpi(tag_50, slt(add(not(0x03), calldatasize), 0x00))\n      0x20\n      swap1\n        /* \"Contract/src/common/Utils.sol\":289:320  uint public totalMaleVoters = 0 */\n      0x02\n        /* \"Contract/src/components/Candidate.sol\":121:2151  contract Candidate is Structure, Utils{... */\n      sload\n      dup2\n      mstore\n      return\n    tag_1:\n      0x0180\n      dup2\n      add\n      swap1\n      dup2\n      lt\n      sub(shl(0x40, 0x01), 0x01)\n      dup3\n      gt\n      or\n      tag_124\n      jumpi\n      0x40\n      mstore\n      jump\t// out\n    tag_2:\n      0xc0\n      dup2\n      add\n      swap1\n      dup2\n      lt\n      sub(shl(0x40, 0x01), 0x01)\n      dup3\n      gt\n      or\n      tag_124\n      jumpi\n      0x40\n      mstore\n      jump\t// out\n    tag_3:\n      swap1\n      0x1f\n      dup1\n      not\n      swap2\n      add\n      and\n      dup2\n      add\n      swap1\n      dup2\n      lt\n      sub(shl(0x40, 0x01), 0x01)\n      dup3\n      gt\n      or\n      tag_124\n      jumpi\n      0x40\n      mstore\n      jump\t// out\n    tag_4:\n      dup2\n      0x1f\n      dup3\n      add\n      slt\n      iszero\n      tag_50\n      jumpi\n      dup1\n      calldataload\n      swap1\n      sub(shl(0x40, 0x01), 0x01)\n      dup3\n      gt\n      tag_124\n      jumpi\n      mload(0x40)\n      swap3\n      tag_233\n      0x1f\n      dup5\n      add\n      not(0x1f)\n      and\n      0x20\n      add\n      dup6\n      tag_3\n      jump\t// in\n    tag_233:\n      dup3\n      dup5\n      mstore\n      0x20\n      dup4\n      dup4\n      add\n      add\n      gt\n      tag_50\n      jumpi\n      dup2\n      0x00\n      swap3\n      0x20\n      dup1\n      swap4\n      add\n      dup4\n      dup7\n      add\n      calldatacopy\n      dup4\n      add\n      add\n      mstore\n      swap1\n      jump\t// out\n    tag_5:\n      swap2\n      swap1\n      dup3\n      mload\n      swap3\n      dup4\n      dup3\n      mstore\n      0x00\n    tag_236:\n      dup5\n      dup2\n      lt\n      tag_237\n      jumpi\n      pop\n      pop\n      dup3\n      0x00\n      0x20\n      dup1\n      swap5\n      swap6\n      dup5\n      add\n      add\n      mstore\n      0x1f\n      dup1\n      not\n      swap2\n      add\n      and\n      add\n      add\n      swap1\n      jump\t// out\n    tag_237:\n      0x20\n      dup2\n      dup4\n      add\n      dup2\n      add\n      mload\n      dup5\n      dup4\n      add\n      dup3\n      add\n      mstore\n      add\n      jump(tag_236)\n    tag_6:\n      swap1\n      tag_239\n      swap2\n      0x01\n      dup1\n      0xa0\n      shl\n      sub\n      dup2\n      mload\n      and\n      dup3\n      mstore\n      tag_240\n      tag_241\n      tag_242\n      tag_243\n      tag_244\n      tag_245\n      tag_246\n      tag_247\n      0x20\n      dup10\n      add\n      mload\n      0x0180\n      dup1\n      0x20\n      dup14\n      add\n      mstore\n      dup12\n      add\n      swap1\n      tag_5\n      jump\t// in\n    tag_247:\n      0x40\n      dup10\n      add\n      mload\n      0x40\n      dup12\n      add\n      mstore\n      0x60\n      dup10\n      add\n      mload\n      0x60\n      dup12\n      add\n      mstore\n      0x80\n      dup10\n      add\n      mload\n      dup11\n      dup3\n      sub\n      0x80\n      dup13\n      add\n      mstore\n      tag_5\n      jump\t// in\n    tag_246:\n      0xa0\n      dup9\n      add\n      mload\n      dup10\n      dup3\n      sub\n      0xa0\n      dup12\n      add\n      mstore\n      tag_5\n      jump\t// in\n    tag_245:\n      0xc0\n      dup8\n      add\n      mload\n      dup9\n      dup3\n      sub\n      0xc0\n      dup11\n      add\n      mstore\n      tag_5\n      jump\t// in\n    tag_244:\n      0xe0\n      dup7\n      add\n      mload\n      dup8\n      dup3\n      sub\n      0xe0\n      dup10\n      add\n      mstore\n      tag_5\n      jump\t// in\n    tag_243:\n      0x0100\n      dup1\n      dup7\n      add\n      mload\n      swap1\n      dup8\n      dup4\n      sub\n      swap1\n      dup9\n      add\n      mstore\n      tag_5\n      jump\t// in\n    tag_242:\n      0x0120\n      dup1\n      dup6\n      add\n      mload\n      swap1\n      dup7\n      dup4\n      sub\n      swap1\n      dup8\n      add\n      mstore\n      tag_5\n      jump\t// in\n    tag_241:\n      0x0140\n      dup1\n      dup5\n      add\n      mload\n      swap1\n      dup6\n      dup4\n      sub\n      swap1\n      dup7\n      add\n      mstore\n      tag_5\n      jump\t// in\n    tag_240:\n      swap2\n      0x0160\n      dup1\n      swap3\n      add\n      mload\n      swap2\n      dup2\n      dup5\n      sub\n      swap2\n      add\n      mstore\n      tag_5\n      jump\t// in\n    tag_239:\n      swap1\n      jump\t// out\n    tag_7:\n      tag_248\n      dup2\n      mload\n      0xc0\n      dup5\n      mstore\n      0xc0\n      dup5\n      add\n      swap1\n      tag_6\n      jump\t// in\n    tag_248:\n      swap1\n      0xa0\n      tag_249\n      tag_250\n      tag_251\n      0x20\n      swap6\n      dup7\n      dup7\n      add\n      mload\n      dup9\n      dup3\n      sub\n      dup9\n      dup11\n      add\n      mstore\n      tag_5\n      jump\t// in\n    tag_251:\n      0x40\n      dup6\n      add\n      mload\n      dup8\n      dup3\n      sub\n      0x40\n      dup10\n      add\n      mstore\n      tag_5\n      jump\t// in\n    tag_250:\n      0x60\n      dup5\n      add\n      mload\n      dup7\n      dup3\n      sub\n      0x60\n      dup9\n      add\n      mstore\n      tag_5\n      jump\t// in\n    tag_249:\n      swap2\n      0x80\n      dup2\n      add\n      mload\n      0x80\n      dup7\n      add\n      mstore\n      add\n      mload\n      swap3\n      0xa0\n      dup2\n      dup4\n      sub\n      swap2\n      add\n      mstore\n      dup2\n      dup1\n      dup5\n      mload\n      swap3\n      dup4\n      dup2\n      mstore\n      add\n      swap4\n      add\n      swap2\n      0x00\n    tag_252:\n      dup3\n      dup2\n      lt\n      tag_253\n      jumpi\n      pop\n      pop\n      pop\n      pop\n      swap1\n      jump\t// out\n    tag_253:\n      dup4\n      mload\n      sub(shl(0xa0, 0x01), 0x01)\n      and\n      dup6\n      mstore\n      swap4\n      dup2\n      add\n      swap4\n      swap3\n      dup2\n      add\n      swap3\n      0x01\n      add\n      jump(tag_252)\n    tag_8:\n      swap1\n      0x01\n      dup3\n      dup2\n      shr\n      swap3\n      and\n      dup1\n      iszero\n      tag_255\n      jumpi\n    tag_256:\n      0x20\n      dup4\n      lt\n      eq\n      tag_257\n      jumpi\n      jump\t// out\n    tag_257:\n      mstore(0x00, shl(0xe0, 0x4e487b71))\n      mstore(0x04, 0x22)\n      revert(0x00, 0x24)\n    tag_255:\n      swap2\n      0x7f\n      and\n      swap2\n      jump(tag_256)\n    tag_9:\n      swap1\n      0x00\n      swap3\n      swap2\n      dup1\n      sload\n      swap2\n      tag_259\n      dup4\n      tag_8\n      jump\t// in\n    tag_259:\n      swap2\n      dup3\n      dup3\n      mstore\n      0x01\n      swap4\n      dup5\n      dup2\n      and\n      swap1\n      dup2\n      0x00\n      eq\n      tag_260\n      jumpi\n      pop\n      0x01\n      eq\n      tag_262\n      jumpi\n    tag_263:\n      pop\n      pop\n      pop\n      pop\n      jump\t// out\n    tag_262:\n      swap1\n      swap2\n      swap4\n      swap5\n      pop\n      0x00\n      mstore\n      0x20\n      swap3\n      dup4\n      0x00\n      keccak256\n      swap3\n      dup5\n      0x00\n      swap5\n    tag_264:\n      dup4\n      dup7\n      lt\n      tag_265\n      jumpi\n      pop\n      pop\n      pop\n      pop\n      add\n      add\n      swap1\n      codesize\n      dup1\n      dup1\n      dup1\n      jump(tag_263)\n    tag_265:\n      dup1\n      sload\n      dup6\n      dup8\n      add\n      dup4\n      add\n      mstore\n      swap5\n      add\n      swap4\n      dup6\n      swap1\n      dup3\n      add\n      jump(tag_264)\n    tag_260:\n      swap3\n      swap5\n      pop\n      pop\n      pop\n      0x20\n      swap4\n      swap5\n      pop\n      not(0xff)\n      and\n      dup4\n      dup4\n      add\n      mstore\n      iszero\n      iszero\n      0x05\n      shl\n      add\n      add\n      swap1\n      codesize\n      dup1\n      dup1\n      dup1\n      jump(tag_263)\n    tag_10:\n      swap1\n      0x0b\n      0x0160\n      0x40\n      swap4\n      tag_267\n      dup6\n      mload\n      swap2\n      tag_268\n      dup4\n      tag_1\n      jump\t// in\n    tag_268:\n      tag_65\n      dup4\n      swap8\n      0x01\n      dup1\n      0xa0\n      shl\n      sub\n      dup4\n      sload\n      and\n      dup6\n      mstore\n      dup1\n      mload\n      tag_270\n      dup2\n      tag_94\n      dup2\n      0x01\n      dup9\n      add\n      tag_9\n      jump\t// in\n    tag_270:\n      0x20\n      dup7\n      add\n      mstore\n      0x02\n      dup4\n      add\n      sload\n      dup2\n      dup7\n      add\n      mstore\n      0x03\n      dup4\n      add\n      sload\n      0x60\n      dup7\n      add\n      mstore\n      dup1\n      mload\n      tag_272\n      dup2\n      tag_94\n      dup2\n      0x04\n      dup9\n      add\n      tag_9\n      jump\t// in\n    tag_272:\n      0x80\n      dup7\n      add\n      mstore\n      dup1\n      mload\n      tag_274\n      dup2\n      tag_94\n      dup2\n      0x05\n      dup9\n      add\n      tag_9\n      jump\t// in\n    tag_274:\n      0xa0\n      dup7\n      add\n      mstore\n      dup1\n      mload\n      tag_276\n      dup2\n      tag_94\n      dup2\n      0x06\n      dup9\n      add\n      tag_9\n      jump\t// in\n    tag_276:\n      0xc0\n      dup7\n      add\n      mstore\n      dup1\n      mload\n      tag_278\n      dup2\n      tag_94\n      dup2\n      0x07\n      dup9\n      add\n      tag_9\n      jump\t// in\n    tag_278:\n      0xe0\n      dup7\n      add\n      mstore\n      dup1\n      mload\n      tag_280\n      dup2\n      tag_94\n      dup2\n      0x08\n      dup9\n      add\n      tag_9\n      jump\t// in\n    tag_280:\n      0x0100\n      dup7\n      add\n      mstore\n      dup1\n      mload\n      tag_282\n      dup2\n      tag_94\n      dup2\n      0x09\n      dup9\n      add\n      tag_9\n      jump\t// in\n    tag_282:\n      0x0120\n      dup7\n      add\n      mstore\n      dup1\n      mload\n      tag_284\n      dup2\n      tag_94\n      dup2\n      0x0a\n      dup9\n      add\n      tag_9\n      jump\t// in\n    tag_284:\n      0x0140\n      dup7\n      add\n      mstore\n      mload\n      dup1\n      swap7\n      dup2\n      swap4\n      add\n      tag_9\n      jump\t// in\n    tag_267:\n      add\n      mstore\n      jump\t// out\n    tag_11:\n      swap6\n      swap5\n      swap4\n      swap1\n      0x80\n      swap4\n      tag_286\n      tag_287\n      swap5\n      tag_288\n      tag_289\n      swap5\n      0xa0\n      dup13\n      mstore\n      0xa0\n      dup13\n      add\n      swap1\n      tag_6\n      jump\t// in\n    tag_288:\n      swap1\n      dup11\n      dup3\n      sub\n      0x20\n      dup13\n      add\n      mstore\n      tag_5\n      jump\t// in\n    tag_286:\n      swap1\n      dup9\n      dup3\n      sub\n      0x40\n      dup11\n      add\n      mstore\n      tag_5\n      jump\t// in\n    tag_289:\n      swap1\n      dup7\n      dup3\n      sub\n      0x60\n      dup9\n      add\n      mstore\n      tag_5\n      jump\t// in\n    tag_287:\n      swap4\n      add\n      mstore\n      jump\t// out\n    tag_12:\n        /* \"Contract/src/components/Candidate.sol\":1100:1113  candidateList */\n      0x06\n        /* \"Contract/src/components/Candidate.sol\":121:2151  contract Candidate is Structure, Utils{... */\n      sload\n      dup2\n      lt\n      iszero\n      tag_183\n      jumpi\n      0x11\n      swap1\n        /* \"Contract/src/components/Candidate.sol\":1100:1113  candidateList */\n      0x06\n      0x00\n        /* \"Contract/src/components/Candidate.sol\":121:2151  contract Candidate is Structure, Utils{... */\n      mstore\n      mul\n      0xf652222313e28459528d920b65115c16c04f3efc82aaedc97be59f3f377c0d3f\n      add\n      swap1\n      0x00\n      swap1\n      jump\t// out\n        /* \"Contract/src/common/Utils.sol\":849:1324  function updateCounter(string memory _gender) public {... */\n    tag_13:\n        /* \"Contract/src/components/Candidate.sol\":121:2151  contract Candidate is Structure, Utils{... */\n      dup1\n      mload\n      swap1\n      0x20\n      swap2\n      dup3\n      dup3\n      add\n        /* \"Contract/src/common/Utils.sol\":915:940  keccak256(bytes(_gender)) */\n      swap1\n      dup2\n      keccak256\n      swap1\n      0x00\n        /* \"Contract/src/components/Candidate.sol\":121:2151  contract Candidate is Structure, Utils{... */\n      swap3\n      dup4\n      sload\n      swap3\n      dup4\n      iszero\n      tag_292\n      jumpi\n      swap1\n      dup6\n      swap3\n      swap2\n      dup6\n      dup1\n      mstore\n      mload(0x40)\n      dup7\n      swap1\n      0x290decd9548b62a8d60345a988386fc84ba6bc95484008f6362f93160ef3e563\n      dup2\n      dup2\n      sload\n      swap4\n      tag_294\n      dup6\n      tag_8\n      jump\t// in\n    tag_294:\n      swap3\n      dup4\n      dup4\n      mstore\n      dup10\n      dup4\n      add\n      swap6\n      0x01\n      swap14\n      dup15\n      dup3\n      and\n      swap2\n      dup3\n      0x00\n      eq\n      tag_295\n      jumpi\n      pop\n      pop\n      0x01\n      eq\n      tag_297\n      jumpi\n    tag_298:\n      pop\n      tag_299\n      swap3\n      pop\n      sub\n      dup3\n      tag_3\n      jump\t// in\n    tag_299:\n      mload\n        /* \"Contract/src/common/Utils.sol\":944:976  keccak256(bytes(gender_list[0])) */\n      swap1\n      keccak256\n        /* \"Contract/src/common/Utils.sol\":915:976  keccak256(bytes(_gender)) == keccak256(bytes(gender_list[0])) */\n      sub\n        /* \"Contract/src/common/Utils.sol\":944:976  keccak256(bytes(gender_list[0])) */\n      tag_300\n      jumpi\n        /* \"Contract/src/components/Candidate.sol\":121:2151  contract Candidate is Structure, Utils{... */\n      pop\n      pop\n      pop\n      pop\n        /* \"Contract/src/common/Utils.sol\":1009:1024  totalMaleVoters */\n      0x02\n        /* \"Contract/src/components/Candidate.sol\":121:2151  contract Candidate is Structure, Utils{... */\n      sload\n      swap2\n      dup3\n      add\n      dup1\n      swap3\n      gt\n      tag_302\n      jumpi\n      pop\n        /* \"Contract/src/common/Utils.sol\":1009:1024  totalMaleVoters */\n      0x02\n        /* \"Contract/src/components/Candidate.sol\":121:2151  contract Candidate is Structure, Utils{... */\n      sstore\n        /* \"Contract/src/common/Utils.sol\":849:1324  function updateCounter(string memory _gender) public {... */\n      jump\t// out\n        /* \"Contract/src/components/Candidate.sol\":121:2151  contract Candidate is Structure, Utils{... */\n    tag_302:\n      shl(0xe0, 0x4e487b71)\n      dup2\n      mstore\n      mstore(0x04, 0x11)\n      0x24\n      swap1\n      revert\n        /* \"Contract/src/common/Utils.sol\":912:1318  if(keccak256(bytes(_gender)) == keccak256(bytes(gender_list[0]))){... */\n    tag_300:\n        /* \"Contract/src/components/Candidate.sol\":121:2151  contract Candidate is Structure, Utils{... */\n      dup1\n      mload\n        /* \"Contract/src/common/Utils.sol\":1050:1075  keccak256(bytes(_gender)) */\n      dup3\n      keccak256\n        /* \"Contract/src/components/Candidate.sol\":121:2151  contract Candidate is Structure, Utils{... */\n      dup5\n      dup8\n      lt\n      iszero\n      tag_305\n      jumpi\n      dup6\n      dup1\n      mstore\n      dup7\n      mload(0x40)\n      dup8\n      dup2\n      0x290decd9548b62a8d60345a988386fc84ba6bc95484008f6362f93160ef3e564\n      swap2\n      dup3\n      sload\n      swap3\n      tag_307\n      dup5\n      tag_8\n      jump\t// in\n    tag_307:\n      swap4\n      dup5\n      dup5\n      mstore\n      dup11\n      dup1\n      dup6\n      add\n      swap8\n      dup3\n      and\n      swap2\n      dup3\n      0x00\n      eq\n      tag_308\n      jumpi\n      pop\n      pop\n      0x01\n      eq\n      tag_310\n      jumpi\n    tag_311:\n      pop\n      tag_312\n      swap3\n      pop\n      sub\n      dup3\n      tag_3\n      jump\t// in\n    tag_312:\n      mload\n        /* \"Contract/src/common/Utils.sol\":1079:1111  keccak256(bytes(gender_list[1])) */\n      swap1\n      keccak256\n        /* \"Contract/src/common/Utils.sol\":1050:1111  keccak256(bytes(_gender)) == keccak256(bytes(gender_list[1])) */\n      sub\n        /* \"Contract/src/common/Utils.sol\":1079:1111  keccak256(bytes(gender_list[1])) */\n      tag_313\n      jumpi\n        /* \"Contract/src/components/Candidate.sol\":121:2151  contract Candidate is Structure, Utils{... */\n      pop\n      pop\n      pop\n      pop\n        /* \"Contract/src/common/Utils.sol\":1146:1163  totalFemaleVoters */\n      0x03\n        /* \"Contract/src/components/Candidate.sol\":121:2151  contract Candidate is Structure, Utils{... */\n      sload\n      swap2\n      dup3\n      add\n      dup1\n      swap3\n      gt\n      tag_302\n      jumpi\n      pop\n        /* \"Contract/src/common/Utils.sol\":1146:1163  totalFemaleVoters */\n      0x03\n        /* \"Contract/src/components/Candidate.sol\":121:2151  contract Candidate is Structure, Utils{... */\n      sstore\n        /* \"Contract/src/common/Utils.sol\":849:1324  function updateCounter(string memory _gender) public {... */\n      jump\t// out\n        /* \"Contract/src/common/Utils.sol\":1047:1318  if(keccak256(bytes(_gender)) == keccak256(bytes(gender_list[1]))){... */\n    tag_313:\n        /* \"Contract/src/components/Candidate.sol\":121:2151  contract Candidate is Structure, Utils{... */\n      mload\n        /* \"Contract/src/common/Utils.sol\":1189:1214  keccak256(bytes(_gender)) */\n      swap1\n      keccak256\n        /* \"Contract/src/components/Candidate.sol\":121:2151  contract Candidate is Structure, Utils{... */\n      swap2\n        /* \"Contract/src/common/Utils.sol\":1246:1247  2 */\n      0x02\n        /* \"Contract/src/components/Candidate.sol\":121:2151  contract Candidate is Structure, Utils{... */\n      lt\n      iszero\n      tag_318\n      jumpi\n      dup3\n      dup1\n      mstore\n      mload(0x40)\n      dup4\n      swap2\n      dup2\n      0x290decd9548b62a8d60345a988386fc84ba6bc95484008f6362f93160ef3e565\n      swap4\n      dup5\n      sload\n      swap5\n      tag_320\n      dup7\n      tag_8\n      jump\t// in\n    tag_320:\n      swap1\n      dup2\n      dup5\n      mstore\n      dup5\n      dup5\n      add\n      swap7\n      dup11\n      dup2\n      and\n      swap1\n      dup2\n      0x00\n      eq\n      tag_321\n      jumpi\n      pop\n      0x01\n      eq\n      tag_323\n      jumpi\n    tag_324:\n      pop\n      pop\n      tag_325\n      swap3\n      pop\n      sub\n      dup3\n      tag_3\n      jump\t// in\n    tag_325:\n      mload\n        /* \"Contract/src/common/Utils.sol\":1218:1250  keccak256(bytes(gender_list[2])) */\n      swap1\n      keccak256\n        /* \"Contract/src/common/Utils.sol\":1189:1250  keccak256(bytes(_gender)) == keccak256(bytes(gender_list[2])) */\n      eq\n        /* \"Contract/src/common/Utils.sol\":1186:1318  if(keccak256(bytes(_gender)) == keccak256(bytes(gender_list[2]))){... */\n      tag_326\n      jumpi\n        /* \"Contract/src/common/Utils.sol\":1047:1318  if(keccak256(bytes(_gender)) == keccak256(bytes(gender_list[1]))){... */\n      pop\n      pop\n        /* \"Contract/src/common/Utils.sol\":849:1324  function updateCounter(string memory _gender) public {... */\n      jump\t// out\n        /* \"Contract/src/common/Utils.sol\":1186:1318  if(keccak256(bytes(_gender)) == keccak256(bytes(gender_list[2]))){... */\n    tag_326:\n        /* \"Contract/src/common/Utils.sol\":1284:1300  totalOtherVoters */\n      0x04\n        /* \"Contract/src/components/Candidate.sol\":121:2151  contract Candidate is Structure, Utils{... */\n      sload\n      swap2\n      dup3\n      add\n      dup1\n      swap3\n      gt\n      tag_302\n      jumpi\n      pop\n        /* \"Contract/src/common/Utils.sol\":1284:1300  totalOtherVoters */\n      0x04\n        /* \"Contract/src/components/Candidate.sol\":121:2151  contract Candidate is Structure, Utils{... */\n      sstore\n        /* \"Contract/src/common/Utils.sol\":849:1324  function updateCounter(string memory _gender) public {... */\n      jump\t// out\n        /* \"Contract/src/components/Candidate.sol\":121:2151  contract Candidate is Structure, Utils{... */\n    tag_323:\n      dup9\n      mstore\n      dup8\n      swap2\n      pop\n      dup9\n      0x63d75db57ae45c3799740c3cd8dcee96a498324843d79ae390adc81d74b52f13\n    tag_330:\n      dup3\n      dup5\n      lt\n      tag_331\n      jumpi\n      pop\n      pop\n      pop\n      swap2\n      tag_325\n      swap3\n      dup3\n      add\n      add\n      codesize\n      dup1\n      jump(tag_324)\n    tag_331:\n      dup1\n      sload\n      dup8\n      dup6\n      add\n      dup8\n      add\n      mstore\n      dup7\n      swap5\n      pop\n      swap3\n      dup6\n      add\n      swap3\n      dup11\n      swap2\n      add\n      jump(tag_330)\n    tag_321:\n      swap2\n      pop\n      pop\n      tag_325\n      swap5\n      swap3\n      pop\n      not(0xff)\n      and\n      dup7\n      mstore\n      iszero\n      iszero\n      0x05\n      shl\n      dup3\n      add\n      add\n      codesize\n      dup1\n      jump(tag_324)\n    tag_318:\n      shl(0xe0, 0x4e487b71)\n      dup4\n      mstore\n      mstore(0x04, 0x32)\n      0x24\n      dup4\n      revert\n    tag_310:\n      dup12\n      mstore\n      pop\n      dup3\n      swap1\n      pop\n      dup8\n      dup11\n      dup13\n      0x6c13d8c1c5df666ea9ca2a428504a3776c8ca01021c3a1524ca7d765f600979a\n    tag_333:\n      dup6\n      dup4\n      lt\n      tag_334\n      jumpi\n      pop\n      pop\n      tag_312\n      swap4\n      pop\n      dup3\n      add\n      add\n      codesize\n      jump(tag_311)\n    tag_334:\n      dup1\n      swap2\n      swap3\n      swap5\n      pop\n      sload\n      dup4\n      dup6\n      dup9\n      add\n      add\n      mstore\n      add\n      swap2\n      add\n      dup9\n      swap1\n      dup13\n      dup6\n      swap4\n      jump(tag_333)\n    tag_308:\n      not(0xff)\n      and\n      dup9\n      mstore\n      tag_312\n      swap6\n      iszero\n      iszero\n      0x05\n      shl\n      dup6\n      add\n      add\n      swap3\n      pop\n      codesize\n      swap2\n      pop\n      tag_311\n      swap1\n      pop\n      jump\n    tag_305:\n      shl(0xe0, 0x4e487b71)\n      dup7\n      mstore\n      mstore(0x04, 0x32)\n      0x24\n      dup7\n      revert\n    tag_297:\n      dup12\n      mstore\n      pop\n      dup3\n      swap1\n      pop\n      dup8\n      dup11\n      dup13\n      0x510e4e770828ddbf7f7b00ab00a9f6adaf81c0dc9cc85f1f8249c256942d61d9\n    tag_336:\n      dup6\n      dup4\n      lt\n      tag_337\n      jumpi\n      pop\n      pop\n      tag_299\n      swap4\n      pop\n      dup3\n      add\n      add\n      codesize\n      jump(tag_298)\n    tag_337:\n      dup1\n      swap2\n      swap3\n      swap5\n      pop\n      sload\n      dup4\n      dup6\n      dup9\n      add\n      add\n      mstore\n      add\n      swap2\n      add\n      dup9\n      swap1\n      dup13\n      dup6\n      swap4\n      jump(tag_336)\n    tag_295:\n      not(0xff)\n      and\n      dup9\n      mstore\n      tag_299\n      swap6\n      iszero\n      iszero\n      0x05\n      shl\n      dup6\n      add\n      add\n      swap3\n      pop\n      codesize\n      swap2\n      pop\n      tag_298\n      swap1\n      pop\n      jump\n    tag_292:\n      shl(0xe0, 0x4e487b71)\n      dup6\n      mstore\n      mstore(0x04, 0x32)\n      0x24\n      dup6\n      revert\n    tag_14:\n      dup2\n      dup2\n      lt\n      tag_340\n      jumpi\n      pop\n      pop\n      jump\t// out\n    tag_340:\n      0x00\n      dup2\n      sstore\n      0x01\n      add\n      jump(tag_14)\n    tag_15:\n      swap2\n      swap1\n      swap2\n      dup3\n      mload\n      sub(shl(0x40, 0x01), 0x01)\n      dup2\n      gt\n      tag_124\n      jumpi\n      tag_344\n      dup3\n      sload\n      tag_8\n      jump\t// in\n    tag_344:\n      0x1f\n      dup2\n      gt\n      tag_345\n      jumpi\n    tag_346:\n      pop\n      0x20\n      dup1\n      0x1f\n      dup4\n      gt\n      0x01\n      eq\n      tag_347\n      jumpi\n      pop\n      dup2\n      swap3\n      swap4\n      swap5\n      0x00\n      swap3\n      tag_349\n      jumpi\n    tag_350:\n      pop\n      pop\n      dup2\n      0x01\n      shl\n      swap2\n      not(0x00)\n      swap1\n      0x03\n      shl\n      shr\n      not\n      and\n      or\n      swap1\n      sstore\n      jump\t// out\n    tag_349:\n      add\n      mload\n      swap1\n      pop\n      codesize\n      dup1\n      jump(tag_350)\n    tag_347:\n      swap1\n      not(0x1f)\n      dup4\n      and\n      swap6\n      dup5\n      0x00\n      mstore\n      dup3\n      0x00\n      keccak256\n      swap3\n      0x00\n      swap1\n    tag_352:\n      dup9\n      dup3\n      lt\n      tag_353\n      jumpi\n      pop\n      pop\n      dup4\n      0x01\n      swap6\n      swap7\n      swap8\n      lt\n      tag_355\n      jumpi\n    tag_356:\n      pop\n      pop\n      pop\n      dup2\n      shl\n      add\n      swap1\n      sstore\n      jump\t// out\n    tag_355:\n      add\n      mload\n      not(0x00)\n      0xf8\n      dup5\n      0x03\n      shl\n      and\n      shr\n      not\n      and\n      swap1\n      sstore\n      codesize\n      dup1\n      dup1\n      jump(tag_356)\n    tag_353:\n      dup1\n      0x01\n      dup6\n      swap7\n      dup3\n      swap5\n      swap7\n      dup7\n      add\n      mload\n      dup2\n      sstore\n      add\n      swap6\n      add\n      swap4\n      add\n      swap1\n      jump(tag_352)\n    tag_345:\n      tag_357\n      swap1\n      dup4\n      0x00\n      mstore\n      keccak256(0x00, 0x20)\n      0x1f\n      dup5\n      add\n      0x05\n      shr\n      dup2\n      add\n      swap2\n      0x20\n      dup6\n      lt\n      tag_358\n      jumpi\n    tag_359:\n      0x1f\n      add\n      0x05\n      shr\n      add\n      swap1\n      tag_14\n      jump\t// in\n    tag_357:\n      codesize\n      jump(tag_346)\n    tag_358:\n      swap1\n      swap2\n      pop\n      dup2\n      swap1\n      jump(tag_359)\n    tag_16:\n      dup2\n      mload\n      swap2\n      0x01\n      dup1\n      0xa0\n      shl\n      sub\n      dup1\n      dup5\n      mload\n      and\n      shl(0xa0, 0xffffffffffffffffffffffff)\n      dup5\n      sload\n      and\n      or\n      dup4\n      sstore\n      0xa0\n      0x10\n      0x20\n      swap5\n      tag_360\n      0x0160\n      dup8\n      dup10\n      add\n      mload\n      swap9\n      tag_361\n      0x01\n      swap11\n      dup12\n      dup7\n      add\n      tag_15\n      jump\t// in\n    tag_361:\n      0x40\n      dup2\n      add\n      mload\n      0x02\n      dup6\n      add\n      sstore\n      0x60\n      dup2\n      add\n      mload\n      0x03\n      dup6\n      add\n      sstore\n      tag_362\n      0x80\n      dup3\n      add\n      mload\n      0x04\n      dup7\n      add\n      tag_15\n      jump\t// in\n    tag_362:\n      tag_363\n      dup7\n      dup3\n      add\n      mload\n      0x05\n      dup7\n      add\n      tag_15\n      jump\t// in\n    tag_363:\n      tag_364\n      0xc0\n      dup3\n      add\n      mload\n      0x06\n      dup7\n      add\n      tag_15\n      jump\t// in\n    tag_364:\n      tag_365\n      0xe0\n      dup3\n      add\n      mload\n      0x07\n      dup7\n      add\n      tag_15\n      jump\t// in\n    tag_365:\n      tag_366\n      0x0100\n      dup3\n      add\n      mload\n      0x08\n      dup7\n      add\n      tag_15\n      jump\t// in\n    tag_366:\n      tag_367\n      0x0120\n      dup3\n      add\n      mload\n      0x09\n      dup7\n      add\n      tag_15\n      jump\t// in\n    tag_367:\n      tag_368\n      0x0140\n      dup3\n      add\n      mload\n      0x0a\n      dup7\n      add\n      tag_15\n      jump\t// in\n    tag_368:\n      add\n      mload\n      0x0b\n      dup4\n      add\n      tag_15\n      jump\t// in\n    tag_360:\n      tag_369\n      dup7\n      dup7\n      add\n      mload\n      0x0c\n      dup4\n      add\n      tag_15\n      jump\t// in\n    tag_369:\n      tag_370\n      0x40\n      dup7\n      add\n      mload\n      0x0d\n      dup4\n      add\n      tag_15\n      jump\t// in\n    tag_370:\n      tag_371\n      0x60\n      dup7\n      add\n      mload\n      0x0e\n      dup4\n      add\n      tag_15\n      jump\t// in\n    tag_371:\n      0x80\n      dup6\n      add\n      mload\n      0x0f\n      dup3\n      add\n      sstore\n      add\n      swap3\n      add\n      mload\n      swap3\n      dup4\n      mload\n      swap4\n      sub(shl(0x40, 0x01), 0x01)\n      dup6\n      gt\n      tag_124\n      jumpi\n      shl(0x40, 0x01)\n      dup6\n      gt\n      tag_124\n      jumpi\n      dup2\n      swap1\n      dup5\n      sload\n      dup7\n      dup7\n      sstore\n      dup1\n      dup8\n      lt\n      tag_376\n      jumpi\n    tag_377:\n      pop\n      add\n      swap3\n      0x00\n      mstore\n      dup1\n      0x00\n      keccak256\n      swap2\n      0x00\n    tag_378:\n      dup6\n      dup2\n      lt\n      tag_379\n      jumpi\n      pop\n      pop\n      pop\n      pop\n      pop\n      pop\n      pop\n      jump\t// out\n    tag_379:\n      dup5\n      mload\n      dup3\n      and\n      dup5\n      dup3\n      add\n      sstore\n      swap4\n      dup3\n      add\n      swap4\n      dup7\n      add\n      jump(tag_378)\n    tag_376:\n      tag_381\n      swap1\n      dup7\n      0x00\n      mstore\n      dup8\n      dup5\n      0x00\n      keccak256\n      swap2\n      dup3\n      add\n      swap2\n      add\n      tag_14\n      jump\t// in\n    tag_381:\n      codesize\n      jump(tag_377)\n    tag_17:\n      swap1\n      0x40\n      swap2\n      dup3\n      mload\n      swap3\n      tag_382\n      dup5\n      tag_2\n      jump\t// in\n    tag_382:\n      dup4\n      tag_383\n      dup4\n      tag_10\n      jump\t// in\n    tag_383:\n      dup2\n      mstore\n      0x10\n      dup3\n      mload\n      swap4\n      tag_384\n      dup6\n      tag_385\n      dup2\n      0x0c\n      dup6\n      add\n      tag_9\n      jump\t// in\n    tag_385:\n      sub\n      dup7\n      tag_3\n      jump\t// in\n    tag_384:\n      0x20\n      swap5\n      dup6\n      dup5\n      add\n      mstore\n      dup4\n      mload\n      tag_386\n      dup2\n      tag_94\n      dup2\n      0x0d\n      dup7\n      add\n      tag_9\n      jump\t// in\n    tag_386:\n      dup5\n      dup5\n      add\n      mstore\n      dup4\n      mload\n      tag_388\n      dup2\n      tag_94\n      dup2\n      0x0e\n      dup7\n      add\n      tag_9\n      jump\t// in\n    tag_388:\n      0x60\n      dup5\n      add\n      mstore\n      0x0f\n      dup2\n      add\n      sload\n      0x80\n      dup5\n      add\n      mstore\n      add\n      swap2\n      mload\n      dup1\n      swap4\n      dup5\n      swap2\n      dup2\n      dup6\n      sload\n      swap2\n      dup3\n      dup2\n      mstore\n      add\n      swap5\n      0x00\n      mstore\n      dup2\n      0x00\n      keccak256\n      swap2\n      0x00\n      swap1\n    tag_390:\n      dup3\n      dup3\n      lt\n      tag_391\n      jumpi\n      pop\n      pop\n      pop\n      pop\n      tag_267\n      swap1\n      0xa0\n      swap4\n      sub\n      dup5\n      tag_3\n      jump\t// in\n    tag_391:\n      dup4\n      sload\n      sub(shl(0xa0, 0x01), 0x01)\n      and\n      dup8\n      mstore\n      swap6\n      dup7\n      add\n      swap6\n      dup8\n      swap5\n      pop\n      0x01\n      swap4\n      dup5\n      add\n      swap4\n      swap1\n      swap2\n      add\n      swap1\n      jump(tag_390)\n\n    auxdata: 0xa264697066735822122054f212579484d8407ad27ce60530b46167ee39dbfa893d38c6929d90c4eb82fc64736f6c63430008110033\n}\n",
				"bytecode": {
					"linkReferences": {},
					"object": "6080346200029b576001600160401b03606082018181118382101762000285576040526200002c620002a0565b600490818152602090634d414c4560e01b8282015284526200004d620002a0565b600681526546454d414c4560d01b82820152818501526200006d620002a0565b60068152654f544845525360d01b82820152604085015260009283549460039586865580871062000208575b5084805282852085915b878310620000dd576002879055868855868655600180546001600160a01b0319163317905560088790556040516117179081620003178239f35b8051805190858211620001f557908691620000f98554620002c0565b90601f91828111620001ba575b50839183116001146200014f579180600195928695948d9262000143575b5050600019828e1b1c191690841b1785555b01920192019190620000a3565b01519050388062000124565b858b52838b209190601f1984168c5b818110620001a1575091600196939185889796941062000188575b505050831b8301855562000136565b0151600019838f1b60f8161c1916905538808062000179565b8284015185558b9660019095019493840193016200015e565b620001e490878d52858d20600585808801821c830193898910620001eb575b01901c0190620002fd565b3862000106565b93508293620001d9565b634e487b7160e01b895260418852602489fd5b8580528684872091820191015b81811062000224575062000099565b806200023360019254620002c0565b8062000242575b500162000215565b601f9081811184146200025c5750508781555b386200023a565b836200027792848c52898c20920160051c82019101620002fd565b878681208183555562000255565b634e487b7160e01b600052604160045260246000fd5b600080fd5b60408051919082016001600160401b038111838210176200028557604052565b90600182811c92168015620002f2575b6020831014620002dc57565b634e487b7160e01b600052602260045260246000fd5b91607f1691620002d0565b81811062000309575050565b60008155600101620002fd56fe608080604052600436101561001357600080fd5b60003560e01c908163029c21bd14610ae5575080630983f18514610ac75780631812dab414610aa957806324d7806c14610a725780632d23c735146105a45780632e6997fe1461049a57806353ac5dc3146103c85780636394a8fa1461036e5780637c054c54146103505780638287e42f146102da5780638ab66a901461025a578063b0a4ec4214610220578063b13c744b146100e75763fc6f9468146100b957600080fd5b346100e25760003660031901126100e2576001546040516001600160a01b039091168152602090f35b600080fd5b346100e25760203660031901126100e2576004356006548110156100e25760066000526011026101387ff652222313e28459528d920b65115c16c04f3efc82aaedc97be59f3f377c0d3f8201610e52565b61021c604051926101768461016f817ff652222313e28459528d920b65115c16c04f3efc82aaedc97be59f3f377c0d4b8501610dbc565b0385610b37565b604051906101b1826101aa817ff652222313e28459528d920b65115c16c04f3efc82aaedc97be59f3f377c0d4c8501610dbc565b0383610b37565b7ff652222313e28459528d920b65115c16c04f3efc82aaedc97be59f3f377c0d4e6040519161020d83610206817ff652222313e28459528d920b65115c16c04f3efc82aaedc97be59f3f377c0d4d8501610dbc565b0384610b37565b01549160405195869586610f60565b0390f35b346100e25760203660031901126100e2576004356001600160401b0381116100e257610253610258913690600401610b58565b610fed565b005b346100e25760203660031901126100e2576004356001600160a01b038116908190036100e2576000526005602052604060002061029681610e52565b61021c604051926102ae8461016f81600c8501610dbc565b604051906102c3826101aa81600d8501610dbc565b600f6040519161020d8361020681600e8501610dbc565b346100e25760203660031901126100e2576004356007548110156100e25761033561033c61021c926007600052604051928380927fa66cc928b5edb82af9bd49922954155ab7b0942694bea4ce44661d9a8736c68801610dbc565b0382610b37565b604051918291602083526020830190610bae565b346100e25760003660031901126100e2576020600354604051908152f35b346100e25760203660031901126100e2576004356000548110156100e25761033561033c61021c9260008052604051928380927f290decd9548b62a8d60345a988386fc84ba6bc95484008f6362f93160ef3e56301610dbc565b346100e2576020806003193601126100e2576004356001600160a01b038116908190036100e2576040516103fb81610b1c565b60a06040519161040a83610b00565b6000835260609283868201526000604082015260008482015283608082015283838201528360c08201528360e082015283610100820152836101208201528361014082015283610160820152815282858201528260408201528280820152600060808201520152600052600581526104856040600020611610565b9061021c604051928284938452830190610cdc565b346100e25760003660031901126100e2576006546001600160401b03811161058e57604051906020906104d2828260051b0184610b37565b808352818301908160066000527ff652222313e28459528d920b65115c16c04f3efc82aaedc97be59f3f377c0d3f6000915b83831061056b5750505050604051918083019381845251809452604083019360408160051b85010192916000955b82871061053f5785850386f35b90919293828061055b600193603f198a82030186528851610cdc565b9601920196019592919092610532565b60118660019261057d859a999a611610565b815201920192019190959495610504565b634e487b7160e01b600052604160045260246000fd5b6101a03660031901126100e2576004356001600160401b0381116100e2576105d0903690600401610b58565b6064356001600160401b0381116100e2576105ef903690600401610b58565b906084356001600160401b0381116100e25761060f903690600401610b58565b9160a4356001600160401b0381116100e25761062f903690600401610b58565b60c4356001600160401b0381116100e25761064e903690600401610b58565b9060e4356001600160401b0381116100e25761066e903690600401610b58565b91610104356001600160401b0381116100e25761068f903690600401610b58565b610124356001600160401b0381116100e2576106af903690600401610b58565b90610144356001600160401b0381116100e2576106d0903690600401610b58565b92610164356001600160401b0381116100e2576106f1903690600401610b58565b946001600160401b0361018435116100e2576107133661018435600401610b58565b33600081815260056020526040902054919b916001600160a01b031614610a2d5760065460005b81811061090c57505061074c8b610fed565b6040519a6107598c610b00565b338c528a60208d015260243560408d015260443560608d015260808c015260a08b015260c08a015260e0890152610100880152610120870152610140860152610160850152604051936107ab85610b1c565b84526020840152604051602081018181106001600160401b0382111761058e57604052600081526040840152606083015260006080830152606060a083015233600052600560205261080182604060002061147a565b600754600160401b918282101561058e5760018201806007558210156108f6576108519160076000527fa66cc928b5edb82af9bd49922954155ab7b0942694bea4ce44661d9a8736c68801611376565b6006549081101561058e5780600161086c9201600655610fb2565b6108e0578161087a9161147a565b600854600181018091116108ca577fbf1d941749175298e0113ebc8fa72ce74383c54a041e91cee69a167d13b3dfe8916108c591600855604051918291602083526020830190610cdc565b0390a1005b634e487b7160e01b600052601160045260246000fd5b634e487b7160e01b600052600060045260246000fd5b634e487b7160e01b600052603260045260246000fd5b61091581610fb2565b5060020154602435146109c257600661094161093083610fb2565b506103356040518094819301610dbc565b6020815191012084516020860120146109655760001981146108ca5760010161073a565b60405162461bcd60e51b815260206004820152602f60248201527f43616e646964617465207769746820676976656e20656d61696c20616c72656160448201526e64792072656769737465726564202160881b6064820152608490fd5b60405162461bcd60e51b815260206004820152603960248201527f43616e646964617465207769746820676976656e20436974697a656e7368697060448201527f204e6f2e20616c726561647920726567697374657265642021000000000000006064820152608490fd5b60405162461bcd60e51b815260206004820152601e60248201527f43616e64696461746520616c72656164792072656769737465726564202100006044820152606490fd5b346100e25760203660031901126100e2576001600160a01b03600435818116908190036100e2576020916001541614604051908152f35b346100e25760003660031901126100e2576020600854604051908152f35b346100e25760003660031901126100e2576020600454604051908152f35b346100e25760003660031901126100e2576020906002548152f35b61018081019081106001600160401b0382111761058e57604052565b60c081019081106001600160401b0382111761058e57604052565b90601f801991011681019081106001600160401b0382111761058e57604052565b81601f820112156100e2578035906001600160401b03821161058e5760405192610b8c601f8401601f191660200185610b37565b828452602083830101116100e257816000926020809301838601378301015290565b919082519283825260005b848110610bda575050826000602080949584010152601f8019910116010190565b602081830181015184830182015201610bb9565b90610cd99160018060a01b038151168252610cc5610cb1610c9d610c89610c77610c65610c53610c2d60208901516101808060208d01528b0190610bae565b604089015160408b0152606089015160608b015260808901518a820360808c0152610bae565b60a088015189820360a08b0152610bae565b60c087015188820360c08a0152610bae565b60e086015187820360e0890152610bae565b610100808601519087830390880152610bae565b610120808501519086830390870152610bae565b610140808401519085830390860152610bae565b916101608092015191818403910152610bae565b90565b610cef815160c0845260c0840190610bee565b9060a0610d32610d20610d0e60209586860151888203888a0152610bae565b60408501518782036040890152610bae565b60608401518682036060880152610bae565b916080810151608086015201519260a081830391015281808451928381520193019160005b828110610d65575050505090565b83516001600160a01b031685529381019392810192600101610d57565b90600182811c92168015610db2575b6020831014610d9c57565b634e487b7160e01b600052602260045260246000fd5b91607f1691610d91565b9060009291805491610dcd83610d82565b918282526001938481169081600014610e2f5750600114610def575b50505050565b90919394506000526020928360002092846000945b838610610e1b575050505001019038808080610de9565b805485870183015294019385908201610e04565b9294505050602093945060ff191683830152151560051b01019038808080610de9565b90600b610160604093610f5c855191610e6a83610b00565b610206839760018060a01b0383541685528051610e8e816103358160018801610dbc565b6020860152600283015481860152600383015460608601528051610eb9816103358160048801610dbc565b60808601528051610ed1816103358160058801610dbc565b60a08601528051610ee9816103358160068801610dbc565b60c08601528051610f01816103358160078801610dbc565b60e08601528051610f19816103358160088801610dbc565b6101008601528051610f32816103358160098801610dbc565b6101208601528051610f4b8161033581600a8801610dbc565b610140860152518096819301610dbc565b0152565b95949390608093610f91610fad94610f83610f9f9460a08c5260a08c0190610bee565b908a820360208c0152610bae565b9088820360408a0152610bae565b908682036060880152610bae565b930152565b6006548110156108f6576011906006600052027ff652222313e28459528d920b65115c16c04f3efc82aaedc97be59f3f377c0d3f0190600090565b80519060209182820190812090600092835492831561134b579085929185805260405186907f290decd9548b62a8d60345a988386fc84ba6bc95484008f6362f93160ef3e5638181549361104085610d82565b928383528983019560019d8e8216918260001461132d5750506001146112d2575b5061106e92500382610b37565b519020036110a1575050505060025491820180921161108d5750600255565b634e487b7160e01b81526011600452602490fd5b80518220848710156112be578580528660405187817f290decd9548b62a8d60345a988386fc84ba6bc95484008f6362f93160ef3e564918254926110e484610d82565b938484528a80850197821691826000146112a0575050600114611245575b5061110f92500382610b37565b5190200361112e575050505060035491820180921161108d5750600355565b5190209160021015611231578280526040518391817f290decd9548b62a8d60345a988386fc84ba6bc95484008f6362f93160ef3e5659384549461117186610d82565b90818452848401968a8116908160001461121357506001146111bb575b505061119c92500382610b37565b519020146111a8575050565b60045491820180921161108d5750600455565b8852879150887f63d75db57ae45c3799740c3cd8dcee96a498324843d79ae390adc81d74b52f135b8284106111fc575050509161119c92820101388061118e565b8054878501870152869450928501928a91016111e3565b91505061119c94925060ff19168652151560051b820101388061118e565b634e487b7160e01b83526032600452602483fd5b8b5250829050878a8c7f6c13d8c1c5df666ea9ca2a428504a3776c8ca01021c3a1524ca7d765f600979a5b85831061128757505061110f935082010138611102565b80919294505483858801015201910188908c8593611270565b60ff1916885261110f95151560051b85010192503891506111029050565b634e487b7160e01b86526032600452602486fd5b8b5250829050878a8c7f510e4e770828ddbf7f7b00ab00a9f6adaf81c0dc9cc85f1f8249c256942d61d95b85831061131457505061106e935082010138611061565b80919294505483858801015201910188908c85936112fd565b60ff1916885261106e95151560051b85010192503891506110619050565b634e487b7160e01b85526032600452602485fd5b81811061136a575050565b6000815560010161135f565b91909182516001600160401b03811161058e576113938254610d82565b601f811161143d575b50602080601f83116001146113d95750819293946000926113ce575b50508160011b916000199060031b1c1916179055565b0151905038806113b8565b90601f198316958460005282600020926000905b8882106114255750508360019596971061140c575b505050811b019055565b015160001960f88460031b161c19169055388080611402565b806001859682949686015181550195019301906113ed565b61146a90836000526020600020601f840160051c81019160208510611470575b601f0160051c019061135f565b3861139c565b909150819061145d565b81519160018060a01b03808451166bffffffffffffffffffffffff60a01b84541617835560a0601060209461155661016087890151986114be60019a8b8601611376565b60408101516002850155606081015160038501556114e3608082015160048601611376565b6114f38682015160058601611376565b61150460c082015160068601611376565b61151560e082015160078601611376565b61152761010082015160088601611376565b61153961012082015160098601611376565b61154b610140820151600a8601611376565b0151600b8301611376565b61156686860151600c8301611376565b6115776040860151600d8301611376565b6115886060860151600e8301611376565b6080850151600f82015501920151928351936001600160401b03851161058e57600160401b851161058e57819084548686558087106115f3575b500192600052806000209160005b8581106115e05750505050505050565b84518216848201559382019386016115d0565b61160a90866000528784600020918201910161135f565b386115c2565b9060409182519261162084610b1c565b8361162a83610e52565b815260108251936116498561164281600c8501610dbc565b0386610b37565b6020948584015283516116638161033581600d8601610dbc565b84840152835161167a8161033581600e8601610dbc565b6060840152600f81015460808401520191518093849181855491828152019460005281600020916000905b8282106116be5750505050610f5c9060a0930384610b37565b83546001600160a01b0316875295860195879450600193840193909101906116a556fea264697066735822122054f212579484d8407ad27ce60530b46167ee39dbfa893d38c6929d90c4eb82fc64736f6c63430008110033",
					"opcodes": "PUSH1 0x80 CALLVALUE PUSH3 0x29B JUMPI PUSH1 0x1 PUSH1 0x1 PUSH1 0x40 SHL SUB PUSH1 0x60 DUP3 ADD DUP2 DUP2 GT DUP4 DUP3 LT OR PUSH3 0x285 JUMPI PUSH1 0x40 MSTORE PUSH3 0x2C PUSH3 0x2A0 JUMP JUMPDEST PUSH1 0x4 SWAP1 DUP2 DUP2 MSTORE PUSH1 0x20 SWAP1 PUSH4 0x4D414C45 PUSH1 0xE0 SHL DUP3 DUP3 ADD MSTORE DUP5 MSTORE PUSH3 0x4D PUSH3 0x2A0 JUMP JUMPDEST PUSH1 0x6 DUP2 MSTORE PUSH6 0x46454D414C45 PUSH1 0xD0 SHL DUP3 DUP3 ADD MSTORE DUP2 DUP6 ADD MSTORE PUSH3 0x6D PUSH3 0x2A0 JUMP JUMPDEST PUSH1 0x6 DUP2 MSTORE PUSH6 0x4F5448455253 PUSH1 0xD0 SHL DUP3 DUP3 ADD MSTORE PUSH1 0x40 DUP6 ADD MSTORE PUSH1 0x0 SWAP3 DUP4 SLOAD SWAP5 PUSH1 0x3 SWAP6 DUP7 DUP7 SSTORE DUP1 DUP8 LT PUSH3 0x208 JUMPI JUMPDEST POP DUP5 DUP1 MSTORE DUP3 DUP6 KECCAK256 DUP6 SWAP2 JUMPDEST DUP8 DUP4 LT PUSH3 0xDD JUMPI PUSH1 0x2 DUP8 SWAP1 SSTORE DUP7 DUP9 SSTORE DUP7 DUP7 SSTORE PUSH1 0x1 DUP1 SLOAD PUSH1 0x1 PUSH1 0x1 PUSH1 0xA0 SHL SUB NOT AND CALLER OR SWAP1 SSTORE PUSH1 0x8 DUP8 SWAP1 SSTORE PUSH1 0x40 MLOAD PUSH2 0x1717 SWAP1 DUP2 PUSH3 0x317 DUP3 CODECOPY RETURN JUMPDEST DUP1 MLOAD DUP1 MLOAD SWAP1 DUP6 DUP3 GT PUSH3 0x1F5 JUMPI SWAP1 DUP7 SWAP2 PUSH3 0xF9 DUP6 SLOAD PUSH3 0x2C0 JUMP JUMPDEST SWAP1 PUSH1 0x1F SWAP2 DUP3 DUP2 GT PUSH3 0x1BA JUMPI JUMPDEST POP DUP4 SWAP2 DUP4 GT PUSH1 0x1 EQ PUSH3 0x14F JUMPI SWAP2 DUP1 PUSH1 0x1 SWAP6 SWAP3 DUP7 SWAP6 SWAP5 DUP14 SWAP3 PUSH3 0x143 JUMPI JUMPDEST POP POP PUSH1 0x0 NOT DUP3 DUP15 SHL SHR NOT AND SWAP1 DUP5 SHL OR DUP6 SSTORE JUMPDEST ADD SWAP3 ADD SWAP3 ADD SWAP2 SWAP1 PUSH3 0xA3 JUMP JUMPDEST ADD MLOAD SWAP1 POP CODESIZE DUP1 PUSH3 0x124 JUMP JUMPDEST DUP6 DUP12 MSTORE DUP4 DUP12 KECCAK256 SWAP2 SWAP1 PUSH1 0x1F NOT DUP5 AND DUP13 JUMPDEST DUP2 DUP2 LT PUSH3 0x1A1 JUMPI POP SWAP2 PUSH1 0x1 SWAP7 SWAP4 SWAP2 DUP6 DUP9 SWAP8 SWAP7 SWAP5 LT PUSH3 0x188 JUMPI JUMPDEST POP POP POP DUP4 SHL DUP4 ADD DUP6 SSTORE PUSH3 0x136 JUMP JUMPDEST ADD MLOAD PUSH1 0x0 NOT DUP4 DUP16 SHL PUSH1 0xF8 AND SHR NOT AND SWAP1 SSTORE CODESIZE DUP1 DUP1 PUSH3 0x179 JUMP JUMPDEST DUP3 DUP5 ADD MLOAD DUP6 SSTORE DUP12 SWAP7 PUSH1 0x1 SWAP1 SWAP6 ADD SWAP5 SWAP4 DUP5 ADD SWAP4 ADD PUSH3 0x15E JUMP JUMPDEST PUSH3 0x1E4 SWAP1 DUP8 DUP14 MSTORE DUP6 DUP14 KECCAK256 PUSH1 0x5 DUP6 DUP1 DUP9 ADD DUP3 SHR DUP4 ADD SWAP4 DUP10 DUP10 LT PUSH3 0x1EB JUMPI JUMPDEST ADD SWAP1 SHR ADD SWAP1 PUSH3 0x2FD JUMP JUMPDEST CODESIZE PUSH3 0x106 JUMP JUMPDEST SWAP4 POP DUP3 SWAP4 PUSH3 0x1D9 JUMP JUMPDEST PUSH4 0x4E487B71 PUSH1 0xE0 SHL DUP10 MSTORE PUSH1 0x41 DUP9 MSTORE PUSH1 0x24 DUP10 REVERT JUMPDEST DUP6 DUP1 MSTORE DUP7 DUP5 DUP8 KECCAK256 SWAP2 DUP3 ADD SWAP2 ADD JUMPDEST DUP2 DUP2 LT PUSH3 0x224 JUMPI POP PUSH3 0x99 JUMP JUMPDEST DUP1 PUSH3 0x233 PUSH1 0x1 SWAP3 SLOAD PUSH3 0x2C0 JUMP JUMPDEST DUP1 PUSH3 0x242 JUMPI JUMPDEST POP ADD PUSH3 0x215 JUMP JUMPDEST PUSH1 0x1F SWAP1 DUP2 DUP2 GT DUP5 EQ PUSH3 0x25C JUMPI POP POP DUP8 DUP2 SSTORE JUMPDEST CODESIZE PUSH3 0x23A JUMP JUMPDEST DUP4 PUSH3 0x277 SWAP3 DUP5 DUP13 MSTORE DUP10 DUP13 KECCAK256 SWAP3 ADD PUSH1 0x5 SHR DUP3 ADD SWAP2 ADD PUSH3 0x2FD JUMP JUMPDEST DUP8 DUP7 DUP2 KECCAK256 DUP2 DUP4 SSTORE SSTORE PUSH3 0x255 JUMP JUMPDEST PUSH4 0x4E487B71 PUSH1 0xE0 SHL PUSH1 0x0 MSTORE PUSH1 0x41 PUSH1 0x4 MSTORE PUSH1 0x24 PUSH1 0x0 REVERT JUMPDEST PUSH1 0x0 DUP1 REVERT JUMPDEST PUSH1 0x40 DUP1 MLOAD SWAP2 SWAP1 DUP3 ADD PUSH1 0x1 PUSH1 0x1 PUSH1 0x40 SHL SUB DUP2 GT DUP4 DUP3 LT OR PUSH3 0x285 JUMPI PUSH1 0x40 MSTORE JUMP JUMPDEST SWAP1 PUSH1 0x1 DUP3 DUP2 SHR SWAP3 AND DUP1 ISZERO PUSH3 0x2F2 JUMPI JUMPDEST PUSH1 0x20 DUP4 LT EQ PUSH3 0x2DC JUMPI JUMP JUMPDEST PUSH4 0x4E487B71 PUSH1 0xE0 SHL PUSH1 0x0 MSTORE PUSH1 0x22 PUSH1 0x4 MSTORE PUSH1 0x24 PUSH1 0x0 REVERT JUMPDEST SWAP2 PUSH1 0x7F AND SWAP2 PUSH3 0x2D0 JUMP JUMPDEST DUP2 DUP2 LT PUSH3 0x309 JUMPI POP POP JUMP JUMPDEST PUSH1 0x0 DUP2 SSTORE PUSH1 0x1 ADD PUSH3 0x2FD JUMP INVALID PUSH1 0x80 DUP1 PUSH1 0x40 MSTORE PUSH1 0x4 CALLDATASIZE LT ISZERO PUSH2 0x13 JUMPI PUSH1 0x0 DUP1 REVERT JUMPDEST PUSH1 0x0 CALLDATALOAD PUSH1 0xE0 SHR SWAP1 DUP2 PUSH4 0x29C21BD EQ PUSH2 0xAE5 JUMPI POP DUP1 PUSH4 0x983F185 EQ PUSH2 0xAC7 JUMPI DUP1 PUSH4 0x1812DAB4 EQ PUSH2 0xAA9 JUMPI DUP1 PUSH4 0x24D7806C EQ PUSH2 0xA72 JUMPI DUP1 PUSH4 0x2D23C735 EQ PUSH2 0x5A4 JUMPI DUP1 PUSH4 0x2E6997FE EQ PUSH2 0x49A JUMPI DUP1 PUSH4 0x53AC5DC3 EQ PUSH2 0x3C8 JUMPI DUP1 PUSH4 0x6394A8FA EQ PUSH2 0x36E JUMPI DUP1 PUSH4 0x7C054C54 EQ PUSH2 0x350 JUMPI DUP1 PUSH4 0x8287E42F EQ PUSH2 0x2DA JUMPI DUP1 PUSH4 0x8AB66A90 EQ PUSH2 0x25A JUMPI DUP1 PUSH4 0xB0A4EC42 EQ PUSH2 0x220 JUMPI DUP1 PUSH4 0xB13C744B EQ PUSH2 0xE7 JUMPI PUSH4 0xFC6F9468 EQ PUSH2 0xB9 JUMPI PUSH1 0x0 DUP1 REVERT JUMPDEST CALLVALUE PUSH2 0xE2 JUMPI PUSH1 0x0 CALLDATASIZE PUSH1 0x3 NOT ADD SLT PUSH2 0xE2 JUMPI PUSH1 0x1 SLOAD PUSH1 0x40 MLOAD PUSH1 0x1 PUSH1 0x1 PUSH1 0xA0 SHL SUB SWAP1 SWAP2 AND DUP2 MSTORE PUSH1 0x20 SWAP1 RETURN JUMPDEST PUSH1 0x0 DUP1 REVERT JUMPDEST CALLVALUE PUSH2 0xE2 JUMPI PUSH1 0x20 CALLDATASIZE PUSH1 0x3 NOT ADD SLT PUSH2 0xE2 JUMPI PUSH1 0x4 CALLDATALOAD PUSH1 0x6 SLOAD DUP2 LT ISZERO PUSH2 0xE2 JUMPI PUSH1 0x6 PUSH1 0x0 MSTORE PUSH1 0x11 MUL PUSH2 0x138 PUSH32 0xF652222313E28459528D920B65115C16C04F3EFC82AAEDC97BE59F3F377C0D3F DUP3 ADD PUSH2 0xE52 JUMP JUMPDEST PUSH2 0x21C PUSH1 0x40 MLOAD SWAP3 PUSH2 0x176 DUP5 PUSH2 0x16F DUP2 PUSH32 0xF652222313E28459528D920B65115C16C04F3EFC82AAEDC97BE59F3F377C0D4B DUP6 ADD PUSH2 0xDBC JUMP JUMPDEST SUB DUP6 PUSH2 0xB37 JUMP JUMPDEST PUSH1 0x40 MLOAD SWAP1 PUSH2 0x1B1 DUP3 PUSH2 0x1AA DUP2 PUSH32 0xF652222313E28459528D920B65115C16C04F3EFC82AAEDC97BE59F3F377C0D4C DUP6 ADD PUSH2 0xDBC JUMP JUMPDEST SUB DUP4 PUSH2 0xB37 JUMP JUMPDEST PUSH32 0xF652222313E28459528D920B65115C16C04F3EFC82AAEDC97BE59F3F377C0D4E PUSH1 0x40 MLOAD SWAP2 PUSH2 0x20D DUP4 PUSH2 0x206 DUP2 PUSH32 0xF652222313E28459528D920B65115C16C04F3EFC82AAEDC97BE59F3F377C0D4D DUP6 ADD PUSH2 0xDBC JUMP JUMPDEST SUB DUP5 PUSH2 0xB37 JUMP JUMPDEST ADD SLOAD SWAP2 PUSH1 0x40 MLOAD SWAP6 DUP7 SWAP6 DUP7 PUSH2 0xF60 JUMP JUMPDEST SUB SWAP1 RETURN JUMPDEST CALLVALUE PUSH2 0xE2 JUMPI PUSH1 0x20 CALLDATASIZE PUSH1 0x3 NOT ADD SLT PUSH2 0xE2 JUMPI PUSH1 0x4 CALLDATALOAD PUSH1 0x1 PUSH1 0x1 PUSH1 0x40 SHL SUB DUP2 GT PUSH2 0xE2 JUMPI PUSH2 0x253 PUSH2 0x258 SWAP2 CALLDATASIZE SWAP1 PUSH1 0x4 ADD PUSH2 0xB58 JUMP JUMPDEST PUSH2 0xFED JUMP JUMPDEST STOP JUMPDEST CALLVALUE PUSH2 0xE2 JUMPI PUSH1 0x20 CALLDATASIZE PUSH1 0x3 NOT ADD SLT PUSH2 0xE2 JUMPI PUSH1 0x4 CALLDATALOAD PUSH1 0x1 PUSH1 0x1 PUSH1 0xA0 SHL SUB DUP2 AND SWAP1 DUP2 SWAP1 SUB PUSH2 0xE2 JUMPI PUSH1 0x0 MSTORE PUSH1 0x5 PUSH1 0x20 MSTORE PUSH1 0x40 PUSH1 0x0 KECCAK256 PUSH2 0x296 DUP2 PUSH2 0xE52 JUMP JUMPDEST PUSH2 0x21C PUSH1 0x40 MLOAD SWAP3 PUSH2 0x2AE DUP5 PUSH2 0x16F DUP2 PUSH1 0xC DUP6 ADD PUSH2 0xDBC JUMP JUMPDEST PUSH1 0x40 MLOAD SWAP1 PUSH2 0x2C3 DUP3 PUSH2 0x1AA DUP2 PUSH1 0xD DUP6 ADD PUSH2 0xDBC JUMP JUMPDEST PUSH1 0xF PUSH1 0x40 MLOAD SWAP2 PUSH2 0x20D DUP4 PUSH2 0x206 DUP2 PUSH1 0xE DUP6 ADD PUSH2 0xDBC JUMP JUMPDEST CALLVALUE PUSH2 0xE2 JUMPI PUSH1 0x20 CALLDATASIZE PUSH1 0x3 NOT ADD SLT PUSH2 0xE2 JUMPI PUSH1 0x4 CALLDATALOAD PUSH1 0x7 SLOAD DUP2 LT ISZERO PUSH2 0xE2 JUMPI PUSH2 0x335 PUSH2 0x33C PUSH2 0x21C SWAP3 PUSH1 0x7 PUSH1 0x0 MSTORE PUSH1 0x40 MLOAD SWAP3 DUP4 DUP1 SWAP3 PUSH32 0xA66CC928B5EDB82AF9BD49922954155AB7B0942694BEA4CE44661D9A8736C688 ADD PUSH2 0xDBC JUMP JUMPDEST SUB DUP3 PUSH2 0xB37 JUMP JUMPDEST PUSH1 0x40 MLOAD SWAP2 DUP3 SWAP2 PUSH1 0x20 DUP4 MSTORE PUSH1 0x20 DUP4 ADD SWAP1 PUSH2 0xBAE JUMP JUMPDEST CALLVALUE PUSH2 0xE2 JUMPI PUSH1 0x0 CALLDATASIZE PUSH1 0x3 NOT ADD SLT PUSH2 0xE2 JUMPI PUSH1 0x20 PUSH1 0x3 SLOAD PUSH1 0x40 MLOAD SWAP1 DUP2 MSTORE RETURN JUMPDEST CALLVALUE PUSH2 0xE2 JUMPI PUSH1 0x20 CALLDATASIZE PUSH1 0x3 NOT ADD SLT PUSH2 0xE2 JUMPI PUSH1 0x4 CALLDATALOAD PUSH1 0x0 SLOAD DUP2 LT ISZERO PUSH2 0xE2 JUMPI PUSH2 0x335 PUSH2 0x33C PUSH2 0x21C SWAP3 PUSH1 0x0 DUP1 MSTORE PUSH1 0x40 MLOAD SWAP3 DUP4 DUP1 SWAP3 PUSH32 0x290DECD9548B62A8D60345A988386FC84BA6BC95484008F6362F93160EF3E563 ADD PUSH2 0xDBC JUMP JUMPDEST CALLVALUE PUSH2 0xE2 JUMPI PUSH1 0x20 DUP1 PUSH1 0x3 NOT CALLDATASIZE ADD SLT PUSH2 0xE2 JUMPI PUSH1 0x4 CALLDATALOAD PUSH1 0x1 PUSH1 0x1 PUSH1 0xA0 SHL SUB DUP2 AND SWAP1 DUP2 SWAP1 SUB PUSH2 0xE2 JUMPI PUSH1 0x40 MLOAD PUSH2 0x3FB DUP2 PUSH2 0xB1C JUMP JUMPDEST PUSH1 0xA0 PUSH1 0x40 MLOAD SWAP2 PUSH2 0x40A DUP4 PUSH2 0xB00 JUMP JUMPDEST PUSH1 0x0 DUP4 MSTORE PUSH1 0x60 SWAP3 DUP4 DUP7 DUP3 ADD MSTORE PUSH1 0x0 PUSH1 0x40 DUP3 ADD MSTORE PUSH1 0x0 DUP5 DUP3 ADD MSTORE DUP4 PUSH1 0x80 DUP3 ADD MSTORE DUP4 DUP4 DUP3 ADD MSTORE DUP4 PUSH1 0xC0 DUP3 ADD MSTORE DUP4 PUSH1 0xE0 DUP3 ADD MSTORE DUP4 PUSH2 0x100 DUP3 ADD MSTORE DUP4 PUSH2 0x120 DUP3 ADD MSTORE DUP4 PUSH2 0x140 DUP3 ADD MSTORE DUP4 PUSH2 0x160 DUP3 ADD MSTORE DUP2 MSTORE DUP3 DUP6 DUP3 ADD MSTORE DUP3 PUSH1 0x40 DUP3 ADD MSTORE DUP3 DUP1 DUP3 ADD MSTORE PUSH1 0x0 PUSH1 0x80 DUP3 ADD MSTORE ADD MSTORE PUSH1 0x0 MSTORE PUSH1 0x5 DUP2 MSTORE PUSH2 0x485 PUSH1 0x40 PUSH1 0x0 KECCAK256 PUSH2 0x1610 JUMP JUMPDEST SWAP1 PUSH2 0x21C PUSH1 0x40 MLOAD SWAP3 DUP3 DUP5 SWAP4 DUP5 MSTORE DUP4 ADD SWAP1 PUSH2 0xCDC JUMP JUMPDEST CALLVALUE PUSH2 0xE2 JUMPI PUSH1 0x0 CALLDATASIZE PUSH1 0x3 NOT ADD SLT PUSH2 0xE2 JUMPI PUSH1 0x6 SLOAD PUSH1 0x1 PUSH1 0x1 PUSH1 0x40 SHL SUB DUP2 GT PUSH2 0x58E JUMPI PUSH1 0x40 MLOAD SWAP1 PUSH1 0x20 SWAP1 PUSH2 0x4D2 DUP3 DUP3 PUSH1 0x5 SHL ADD DUP5 PUSH2 0xB37 JUMP JUMPDEST DUP1 DUP4 MSTORE DUP2 DUP4 ADD SWAP1 DUP2 PUSH1 0x6 PUSH1 0x0 MSTORE PUSH32 0xF652222313E28459528D920B65115C16C04F3EFC82AAEDC97BE59F3F377C0D3F PUSH1 0x0 SWAP2 JUMPDEST DUP4 DUP4 LT PUSH2 0x56B JUMPI POP POP POP POP PUSH1 0x40 MLOAD SWAP2 DUP1 DUP4 ADD SWAP4 DUP2 DUP5 MSTORE MLOAD DUP1 SWAP5 MSTORE PUSH1 0x40 DUP4 ADD SWAP4 PUSH1 0x40 DUP2 PUSH1 0x5 SHL DUP6 ADD ADD SWAP3 SWAP2 PUSH1 0x0 SWAP6 JUMPDEST DUP3 DUP8 LT PUSH2 0x53F JUMPI DUP6 DUP6 SUB DUP7 RETURN JUMPDEST SWAP1 SWAP2 SWAP3 SWAP4 DUP3 DUP1 PUSH2 0x55B PUSH1 0x1 SWAP4 PUSH1 0x3F NOT DUP11 DUP3 SUB ADD DUP7 MSTORE DUP9 MLOAD PUSH2 0xCDC JUMP JUMPDEST SWAP7 ADD SWAP3 ADD SWAP7 ADD SWAP6 SWAP3 SWAP2 SWAP1 SWAP3 PUSH2 0x532 JUMP JUMPDEST PUSH1 0x11 DUP7 PUSH1 0x1 SWAP3 PUSH2 0x57D DUP6 SWAP11 SWAP10 SWAP11 PUSH2 0x1610 JUMP JUMPDEST DUP2 MSTORE ADD SWAP3 ADD SWAP3 ADD SWAP2 SWAP1 SWAP6 SWAP5 SWAP6 PUSH2 0x504 JUMP JUMPDEST PUSH4 0x4E487B71 PUSH1 0xE0 SHL PUSH1 0x0 MSTORE PUSH1 0x41 PUSH1 0x4 MSTORE PUSH1 0x24 PUSH1 0x0 REVERT JUMPDEST PUSH2 0x1A0 CALLDATASIZE PUSH1 0x3 NOT ADD SLT PUSH2 0xE2 JUMPI PUSH1 0x4 CALLDATALOAD PUSH1 0x1 PUSH1 0x1 PUSH1 0x40 SHL SUB DUP2 GT PUSH2 0xE2 JUMPI PUSH2 0x5D0 SWAP1 CALLDATASIZE SWAP1 PUSH1 0x4 ADD PUSH2 0xB58 JUMP JUMPDEST PUSH1 0x64 CALLDATALOAD PUSH1 0x1 PUSH1 0x1 PUSH1 0x40 SHL SUB DUP2 GT PUSH2 0xE2 JUMPI PUSH2 0x5EF SWAP1 CALLDATASIZE SWAP1 PUSH1 0x4 ADD PUSH2 0xB58 JUMP JUMPDEST SWAP1 PUSH1 0x84 CALLDATALOAD PUSH1 0x1 PUSH1 0x1 PUSH1 0x40 SHL SUB DUP2 GT PUSH2 0xE2 JUMPI PUSH2 0x60F SWAP1 CALLDATASIZE SWAP1 PUSH1 0x4 ADD PUSH2 0xB58 JUMP JUMPDEST SWAP2 PUSH1 0xA4 CALLDATALOAD PUSH1 0x1 PUSH1 0x1 PUSH1 0x40 SHL SUB DUP2 GT PUSH2 0xE2 JUMPI PUSH2 0x62F SWAP1 CALLDATASIZE SWAP1 PUSH1 0x4 ADD PUSH2 0xB58 JUMP JUMPDEST PUSH1 0xC4 CALLDATALOAD PUSH1 0x1 PUSH1 0x1 PUSH1 0x40 SHL SUB DUP2 GT PUSH2 0xE2 JUMPI PUSH2 0x64E SWAP1 CALLDATASIZE SWAP1 PUSH1 0x4 ADD PUSH2 0xB58 JUMP JUMPDEST SWAP1 PUSH1 0xE4 CALLDATALOAD PUSH1 0x1 PUSH1 0x1 PUSH1 0x40 SHL SUB DUP2 GT PUSH2 0xE2 JUMPI PUSH2 0x66E SWAP1 CALLDATASIZE SWAP1 PUSH1 0x4 ADD PUSH2 0xB58 JUMP JUMPDEST SWAP2 PUSH2 0x104 CALLDATALOAD PUSH1 0x1 PUSH1 0x1 PUSH1 0x40 SHL SUB DUP2 GT PUSH2 0xE2 JUMPI PUSH2 0x68F SWAP1 CALLDATASIZE SWAP1 PUSH1 0x4 ADD PUSH2 0xB58 JUMP JUMPDEST PUSH2 0x124 CALLDATALOAD PUSH1 0x1 PUSH1 0x1 PUSH1 0x40 SHL SUB DUP2 GT PUSH2 0xE2 JUMPI PUSH2 0x6AF SWAP1 CALLDATASIZE SWAP1 PUSH1 0x4 ADD PUSH2 0xB58 JUMP JUMPDEST SWAP1 PUSH2 0x144 CALLDATALOAD PUSH1 0x1 PUSH1 0x1 PUSH1 0x40 SHL SUB DUP2 GT PUSH2 0xE2 JUMPI PUSH2 0x6D0 SWAP1 CALLDATASIZE SWAP1 PUSH1 0x4 ADD PUSH2 0xB58 JUMP JUMPDEST SWAP3 PUSH2 0x164 CALLDATALOAD PUSH1 0x1 PUSH1 0x1 PUSH1 0x40 SHL SUB DUP2 GT PUSH2 0xE2 JUMPI PUSH2 0x6F1 SWAP1 CALLDATASIZE SWAP1 PUSH1 0x4 ADD PUSH2 0xB58 JUMP JUMPDEST SWAP5 PUSH1 0x1 PUSH1 0x1 PUSH1 0x40 SHL SUB PUSH2 0x184 CALLDATALOAD GT PUSH2 0xE2 JUMPI PUSH2 0x713 CALLDATASIZE PUSH2 0x184 CALLDATALOAD PUSH1 0x4 ADD PUSH2 0xB58 JUMP JUMPDEST CALLER PUSH1 0x0 DUP2 DUP2 MSTORE PUSH1 0x5 PUSH1 0x20 MSTORE PUSH1 0x40 SWAP1 KECCAK256 SLOAD SWAP2 SWAP12 SWAP2 PUSH1 0x1 PUSH1 0x1 PUSH1 0xA0 SHL SUB AND EQ PUSH2 0xA2D JUMPI PUSH1 0x6 SLOAD PUSH1 0x0 JUMPDEST DUP2 DUP2 LT PUSH2 0x90C JUMPI POP POP PUSH2 0x74C DUP12 PUSH2 0xFED JUMP JUMPDEST PUSH1 0x40 MLOAD SWAP11 PUSH2 0x759 DUP13 PUSH2 0xB00 JUMP JUMPDEST CALLER DUP13 MSTORE DUP11 PUSH1 0x20 DUP14 ADD MSTORE PUSH1 0x24 CALLDATALOAD PUSH1 0x40 DUP14 ADD MSTORE PUSH1 0x44 CALLDATALOAD PUSH1 0x60 DUP14 ADD MSTORE PUSH1 0x80 DUP13 ADD MSTORE PUSH1 0xA0 DUP12 ADD MSTORE PUSH1 0xC0 DUP11 ADD MSTORE PUSH1 0xE0 DUP10 ADD MSTORE PUSH2 0x100 DUP9 ADD MSTORE PUSH2 0x120 DUP8 ADD MSTORE PUSH2 0x140 DUP7 ADD MSTORE PUSH2 0x160 DUP6 ADD MSTORE PUSH1 0x40 MLOAD SWAP4 PUSH2 0x7AB DUP6 PUSH2 0xB1C JUMP JUMPDEST DUP5 MSTORE PUSH1 0x20 DUP5 ADD MSTORE PUSH1 0x40 MLOAD PUSH1 0x20 DUP2 ADD DUP2 DUP2 LT PUSH1 0x1 PUSH1 0x1 PUSH1 0x40 SHL SUB DUP3 GT OR PUSH2 0x58E JUMPI PUSH1 0x40 MSTORE PUSH1 0x0 DUP2 MSTORE PUSH1 0x40 DUP5 ADD MSTORE PUSH1 0x60 DUP4 ADD MSTORE PUSH1 0x0 PUSH1 0x80 DUP4 ADD MSTORE PUSH1 0x60 PUSH1 0xA0 DUP4 ADD MSTORE CALLER PUSH1 0x0 MSTORE PUSH1 0x5 PUSH1 0x20 MSTORE PUSH2 0x801 DUP3 PUSH1 0x40 PUSH1 0x0 KECCAK256 PUSH2 0x147A JUMP JUMPDEST PUSH1 0x7 SLOAD PUSH1 0x1 PUSH1 0x40 SHL SWAP2 DUP3 DUP3 LT ISZERO PUSH2 0x58E JUMPI PUSH1 0x1 DUP3 ADD DUP1 PUSH1 0x7 SSTORE DUP3 LT ISZERO PUSH2 0x8F6 JUMPI PUSH2 0x851 SWAP2 PUSH1 0x7 PUSH1 0x0 MSTORE PUSH32 0xA66CC928B5EDB82AF9BD49922954155AB7B0942694BEA4CE44661D9A8736C688 ADD PUSH2 0x1376 JUMP JUMPDEST PUSH1 0x6 SLOAD SWAP1 DUP2 LT ISZERO PUSH2 0x58E JUMPI DUP1 PUSH1 0x1 PUSH2 0x86C SWAP3 ADD PUSH1 0x6 SSTORE PUSH2 0xFB2 JUMP JUMPDEST PUSH2 0x8E0 JUMPI DUP2 PUSH2 0x87A SWAP2 PUSH2 0x147A JUMP JUMPDEST PUSH1 0x8 SLOAD PUSH1 0x1 DUP2 ADD DUP1 SWAP2 GT PUSH2 0x8CA JUMPI PUSH32 0xBF1D941749175298E0113EBC8FA72CE74383C54A041E91CEE69A167D13B3DFE8 SWAP2 PUSH2 0x8C5 SWAP2 PUSH1 0x8 SSTORE PUSH1 0x40 MLOAD SWAP2 DUP3 SWAP2 PUSH1 0x20 DUP4 MSTORE PUSH1 0x20 DUP4 ADD SWAP1 PUSH2 0xCDC JUMP JUMPDEST SUB SWAP1 LOG1 STOP JUMPDEST PUSH4 0x4E487B71 PUSH1 0xE0 SHL PUSH1 0x0 MSTORE PUSH1 0x11 PUSH1 0x4 MSTORE PUSH1 0x24 PUSH1 0x0 REVERT JUMPDEST PUSH4 0x4E487B71 PUSH1 0xE0 SHL PUSH1 0x0 MSTORE PUSH1 0x0 PUSH1 0x4 MSTORE PUSH1 0x24 PUSH1 0x0 REVERT JUMPDEST PUSH4 0x4E487B71 PUSH1 0xE0 SHL PUSH1 0x0 MSTORE PUSH1 0x32 PUSH1 0x4 MSTORE PUSH1 0x24 PUSH1 0x0 REVERT JUMPDEST PUSH2 0x915 DUP2 PUSH2 0xFB2 JUMP JUMPDEST POP PUSH1 0x2 ADD SLOAD PUSH1 0x24 CALLDATALOAD EQ PUSH2 0x9C2 JUMPI PUSH1 0x6 PUSH2 0x941 PUSH2 0x930 DUP4 PUSH2 0xFB2 JUMP JUMPDEST POP PUSH2 0x335 PUSH1 0x40 MLOAD DUP1 SWAP5 DUP2 SWAP4 ADD PUSH2 0xDBC JUMP JUMPDEST PUSH1 0x20 DUP2 MLOAD SWAP2 ADD KECCAK256 DUP5 MLOAD PUSH1 0x20 DUP7 ADD KECCAK256 EQ PUSH2 0x965 JUMPI PUSH1 0x0 NOT DUP2 EQ PUSH2 0x8CA JUMPI PUSH1 0x1 ADD PUSH2 0x73A JUMP JUMPDEST PUSH1 0x40 MLOAD PUSH3 0x461BCD PUSH1 0xE5 SHL DUP2 MSTORE PUSH1 0x20 PUSH1 0x4 DUP3 ADD MSTORE PUSH1 0x2F PUSH1 0x24 DUP3 ADD MSTORE PUSH32 0x43616E646964617465207769746820676976656E20656D61696C20616C726561 PUSH1 0x44 DUP3 ADD MSTORE PUSH15 0x647920726567697374657265642021 PUSH1 0x88 SHL PUSH1 0x64 DUP3 ADD MSTORE PUSH1 0x84 SWAP1 REVERT JUMPDEST PUSH1 0x40 MLOAD PUSH3 0x461BCD PUSH1 0xE5 SHL DUP2 MSTORE PUSH1 0x20 PUSH1 0x4 DUP3 ADD MSTORE PUSH1 0x39 PUSH1 0x24 DUP3 ADD MSTORE PUSH32 0x43616E646964617465207769746820676976656E20436974697A656E73686970 PUSH1 0x44 DUP3 ADD MSTORE PUSH32 0x204E6F2E20616C72656164792072656769737465726564202100000000000000 PUSH1 0x64 DUP3 ADD MSTORE PUSH1 0x84 SWAP1 REVERT JUMPDEST PUSH1 0x40 MLOAD PUSH3 0x461BCD PUSH1 0xE5 SHL DUP2 MSTORE PUSH1 0x20 PUSH1 0x4 DUP3 ADD MSTORE PUSH1 0x1E PUSH1 0x24 DUP3 ADD MSTORE PUSH32 0x43616E64696461746520616C7265616479207265676973746572656420210000 PUSH1 0x44 DUP3 ADD MSTORE PUSH1 0x64 SWAP1 REVERT JUMPDEST CALLVALUE PUSH2 0xE2 JUMPI PUSH1 0x20 CALLDATASIZE PUSH1 0x3 NOT ADD SLT PUSH2 0xE2 JUMPI PUSH1 0x1 PUSH1 0x1 PUSH1 0xA0 SHL SUB PUSH1 0x4 CALLDATALOAD DUP2 DUP2 AND SWAP1 DUP2 SWAP1 SUB PUSH2 0xE2 JUMPI PUSH1 0x20 SWAP2 PUSH1 0x1 SLOAD AND EQ PUSH1 0x40 MLOAD SWAP1 DUP2 MSTORE RETURN JUMPDEST CALLVALUE PUSH2 0xE2 JUMPI PUSH1 0x0 CALLDATASIZE PUSH1 0x3 NOT ADD SLT PUSH2 0xE2 JUMPI PUSH1 0x20 PUSH1 0x8 SLOAD PUSH1 0x40 MLOAD SWAP1 DUP2 MSTORE RETURN JUMPDEST CALLVALUE PUSH2 0xE2 JUMPI PUSH1 0x0 CALLDATASIZE PUSH1 0x3 NOT ADD SLT PUSH2 0xE2 JUMPI PUSH1 0x20 PUSH1 0x4 SLOAD PUSH1 0x40 MLOAD SWAP1 DUP2 MSTORE RETURN JUMPDEST CALLVALUE PUSH2 0xE2 JUMPI PUSH1 0x0 CALLDATASIZE PUSH1 0x3 NOT ADD SLT PUSH2 0xE2 JUMPI PUSH1 0x20 SWAP1 PUSH1 0x2 SLOAD DUP2 MSTORE RETURN JUMPDEST PUSH2 0x180 DUP2 ADD SWAP1 DUP2 LT PUSH1 0x1 PUSH1 0x1 PUSH1 0x40 SHL SUB DUP3 GT OR PUSH2 0x58E JUMPI PUSH1 0x40 MSTORE JUMP JUMPDEST PUSH1 0xC0 DUP2 ADD SWAP1 DUP2 LT PUSH1 0x1 PUSH1 0x1 PUSH1 0x40 SHL SUB DUP3 GT OR PUSH2 0x58E JUMPI PUSH1 0x40 MSTORE JUMP JUMPDEST SWAP1 PUSH1 0x1F DUP1 NOT SWAP2 ADD AND DUP2 ADD SWAP1 DUP2 LT PUSH1 0x1 PUSH1 0x1 PUSH1 0x40 SHL SUB DUP3 GT OR PUSH2 0x58E JUMPI PUSH1 0x40 MSTORE JUMP JUMPDEST DUP2 PUSH1 0x1F DUP3 ADD SLT ISZERO PUSH2 0xE2 JUMPI DUP1 CALLDATALOAD SWAP1 PUSH1 0x1 PUSH1 0x1 PUSH1 0x40 SHL SUB DUP3 GT PUSH2 0x58E JUMPI PUSH1 0x40 MLOAD SWAP3 PUSH2 0xB8C PUSH1 0x1F DUP5 ADD PUSH1 0x1F NOT AND PUSH1 0x20 ADD DUP6 PUSH2 0xB37 JUMP JUMPDEST DUP3 DUP5 MSTORE PUSH1 0x20 DUP4 DUP4 ADD ADD GT PUSH2 0xE2 JUMPI DUP2 PUSH1 0x0 SWAP3 PUSH1 0x20 DUP1 SWAP4 ADD DUP4 DUP7 ADD CALLDATACOPY DUP4 ADD ADD MSTORE SWAP1 JUMP JUMPDEST SWAP2 SWAP1 DUP3 MLOAD SWAP3 DUP4 DUP3 MSTORE PUSH1 0x0 JUMPDEST DUP5 DUP2 LT PUSH2 0xBDA JUMPI POP POP DUP3 PUSH1 0x0 PUSH1 0x20 DUP1 SWAP5 SWAP6 DUP5 ADD ADD MSTORE PUSH1 0x1F DUP1 NOT SWAP2 ADD AND ADD ADD SWAP1 JUMP JUMPDEST PUSH1 0x20 DUP2 DUP4 ADD DUP2 ADD MLOAD DUP5 DUP4 ADD DUP3 ADD MSTORE ADD PUSH2 0xBB9 JUMP JUMPDEST SWAP1 PUSH2 0xCD9 SWAP2 PUSH1 0x1 DUP1 PUSH1 0xA0 SHL SUB DUP2 MLOAD AND DUP3 MSTORE PUSH2 0xCC5 PUSH2 0xCB1 PUSH2 0xC9D PUSH2 0xC89 PUSH2 0xC77 PUSH2 0xC65 PUSH2 0xC53 PUSH2 0xC2D PUSH1 0x20 DUP10 ADD MLOAD PUSH2 0x180 DUP1 PUSH1 0x20 DUP14 ADD MSTORE DUP12 ADD SWAP1 PUSH2 0xBAE JUMP JUMPDEST PUSH1 0x40 DUP10 ADD MLOAD PUSH1 0x40 DUP12 ADD MSTORE PUSH1 0x60 DUP10 ADD MLOAD PUSH1 0x60 DUP12 ADD MSTORE PUSH1 0x80 DUP10 ADD MLOAD DUP11 DUP3 SUB PUSH1 0x80 DUP13 ADD MSTORE PUSH2 0xBAE JUMP JUMPDEST PUSH1 0xA0 DUP9 ADD MLOAD DUP10 DUP3 SUB PUSH1 0xA0 DUP12 ADD MSTORE PUSH2 0xBAE JUMP JUMPDEST PUSH1 0xC0 DUP8 ADD MLOAD DUP9 DUP3 SUB PUSH1 0xC0 DUP11 ADD MSTORE PUSH2 0xBAE JUMP JUMPDEST PUSH1 0xE0 DUP7 ADD MLOAD DUP8 DUP3 SUB PUSH1 0xE0 DUP10 ADD MSTORE PUSH2 0xBAE JUMP JUMPDEST PUSH2 0x100 DUP1 DUP7 ADD MLOAD SWAP1 DUP8 DUP4 SUB SWAP1 DUP9 ADD MSTORE PUSH2 0xBAE JUMP JUMPDEST PUSH2 0x120 DUP1 DUP6 ADD MLOAD SWAP1 DUP7 DUP4 SUB SWAP1 DUP8 ADD MSTORE PUSH2 0xBAE JUMP JUMPDEST PUSH2 0x140 DUP1 DUP5 ADD MLOAD SWAP1 DUP6 DUP4 SUB SWAP1 DUP7 ADD MSTORE PUSH2 0xBAE JUMP JUMPDEST SWAP2 PUSH2 0x160 DUP1 SWAP3 ADD MLOAD SWAP2 DUP2 DUP5 SUB SWAP2 ADD MSTORE PUSH2 0xBAE JUMP JUMPDEST SWAP1 JUMP JUMPDEST PUSH2 0xCEF DUP2 MLOAD PUSH1 0xC0 DUP5 MSTORE PUSH1 0xC0 DUP5 ADD SWAP1 PUSH2 0xBEE JUMP JUMPDEST SWAP1 PUSH1 0xA0 PUSH2 0xD32 PUSH2 0xD20 PUSH2 0xD0E PUSH1 0x20 SWAP6 DUP7 DUP7 ADD MLOAD DUP9 DUP3 SUB DUP9 DUP11 ADD MSTORE PUSH2 0xBAE JUMP JUMPDEST PUSH1 0x40 DUP6 ADD MLOAD DUP8 DUP3 SUB PUSH1 0x40 DUP10 ADD MSTORE PUSH2 0xBAE JUMP JUMPDEST PUSH1 0x60 DUP5 ADD MLOAD DUP7 DUP3 SUB PUSH1 0x60 DUP9 ADD MSTORE PUSH2 0xBAE JUMP JUMPDEST SWAP2 PUSH1 0x80 DUP2 ADD MLOAD PUSH1 0x80 DUP7 ADD MSTORE ADD MLOAD SWAP3 PUSH1 0xA0 DUP2 DUP4 SUB SWAP2 ADD MSTORE DUP2 DUP1 DUP5 MLOAD SWAP3 DUP4 DUP2 MSTORE ADD SWAP4 ADD SWAP2 PUSH1 0x0 JUMPDEST DUP3 DUP2 LT PUSH2 0xD65 JUMPI POP POP POP POP SWAP1 JUMP JUMPDEST DUP4 MLOAD PUSH1 0x1 PUSH1 0x1 PUSH1 0xA0 SHL SUB AND DUP6 MSTORE SWAP4 DUP2 ADD SWAP4 SWAP3 DUP2 ADD SWAP3 PUSH1 0x1 ADD PUSH2 0xD57 JUMP JUMPDEST SWAP1 PUSH1 0x1 DUP3 DUP2 SHR SWAP3 AND DUP1 ISZERO PUSH2 0xDB2 JUMPI JUMPDEST PUSH1 0x20 DUP4 LT EQ PUSH2 0xD9C JUMPI JUMP JUMPDEST PUSH4 0x4E487B71 PUSH1 0xE0 SHL PUSH1 0x0 MSTORE PUSH1 0x22 PUSH1 0x4 MSTORE PUSH1 0x24 PUSH1 0x0 REVERT JUMPDEST SWAP2 PUSH1 0x7F AND SWAP2 PUSH2 0xD91 JUMP JUMPDEST SWAP1 PUSH1 0x0 SWAP3 SWAP2 DUP1 SLOAD SWAP2 PUSH2 0xDCD DUP4 PUSH2 0xD82 JUMP JUMPDEST SWAP2 DUP3 DUP3 MSTORE PUSH1 0x1 SWAP4 DUP5 DUP2 AND SWAP1 DUP2 PUSH1 0x0 EQ PUSH2 0xE2F JUMPI POP PUSH1 0x1 EQ PUSH2 0xDEF JUMPI JUMPDEST POP POP POP POP JUMP JUMPDEST SWAP1 SWAP2 SWAP4 SWAP5 POP PUSH1 0x0 MSTORE PUSH1 0x20 SWAP3 DUP4 PUSH1 0x0 KECCAK256 SWAP3 DUP5 PUSH1 0x0 SWAP5 JUMPDEST DUP4 DUP7 LT PUSH2 0xE1B JUMPI POP POP POP POP ADD ADD SWAP1 CODESIZE DUP1 DUP1 DUP1 PUSH2 0xDE9 JUMP JUMPDEST DUP1 SLOAD DUP6 DUP8 ADD DUP4 ADD MSTORE SWAP5 ADD SWAP4 DUP6 SWAP1 DUP3 ADD PUSH2 0xE04 JUMP JUMPDEST SWAP3 SWAP5 POP POP POP PUSH1 0x20 SWAP4 SWAP5 POP PUSH1 0xFF NOT AND DUP4 DUP4 ADD MSTORE ISZERO ISZERO PUSH1 0x5 SHL ADD ADD SWAP1 CODESIZE DUP1 DUP1 DUP1 PUSH2 0xDE9 JUMP JUMPDEST SWAP1 PUSH1 0xB PUSH2 0x160 PUSH1 0x40 SWAP4 PUSH2 0xF5C DUP6 MLOAD SWAP2 PUSH2 0xE6A DUP4 PUSH2 0xB00 JUMP JUMPDEST PUSH2 0x206 DUP4 SWAP8 PUSH1 0x1 DUP1 PUSH1 0xA0 SHL SUB DUP4 SLOAD AND DUP6 MSTORE DUP1 MLOAD PUSH2 0xE8E DUP2 PUSH2 0x335 DUP2 PUSH1 0x1 DUP9 ADD PUSH2 0xDBC JUMP JUMPDEST PUSH1 0x20 DUP7 ADD MSTORE PUSH1 0x2 DUP4 ADD SLOAD DUP2 DUP7 ADD MSTORE PUSH1 0x3 DUP4 ADD SLOAD PUSH1 0x60 DUP7 ADD MSTORE DUP1 MLOAD PUSH2 0xEB9 DUP2 PUSH2 0x335 DUP2 PUSH1 0x4 DUP9 ADD PUSH2 0xDBC JUMP JUMPDEST PUSH1 0x80 DUP7 ADD MSTORE DUP1 MLOAD PUSH2 0xED1 DUP2 PUSH2 0x335 DUP2 PUSH1 0x5 DUP9 ADD PUSH2 0xDBC JUMP JUMPDEST PUSH1 0xA0 DUP7 ADD MSTORE DUP1 MLOAD PUSH2 0xEE9 DUP2 PUSH2 0x335 DUP2 PUSH1 0x6 DUP9 ADD PUSH2 0xDBC JUMP JUMPDEST PUSH1 0xC0 DUP7 ADD MSTORE DUP1 MLOAD PUSH2 0xF01 DUP2 PUSH2 0x335 DUP2 PUSH1 0x7 DUP9 ADD PUSH2 0xDBC JUMP JUMPDEST PUSH1 0xE0 DUP7 ADD MSTORE DUP1 MLOAD PUSH2 0xF19 DUP2 PUSH2 0x335 DUP2 PUSH1 0x8 DUP9 ADD PUSH2 0xDBC JUMP JUMPDEST PUSH2 0x100 DUP7 ADD MSTORE DUP1 MLOAD PUSH2 0xF32 DUP2 PUSH2 0x335 DUP2 PUSH1 0x9 DUP9 ADD PUSH2 0xDBC JUMP JUMPDEST PUSH2 0x120 DUP7 ADD MSTORE DUP1 MLOAD PUSH2 0xF4B DUP2 PUSH2 0x335 DUP2 PUSH1 0xA DUP9 ADD PUSH2 0xDBC JUMP JUMPDEST PUSH2 0x140 DUP7 ADD MSTORE MLOAD DUP1 SWAP7 DUP2 SWAP4 ADD PUSH2 0xDBC JUMP JUMPDEST ADD MSTORE JUMP JUMPDEST SWAP6 SWAP5 SWAP4 SWAP1 PUSH1 0x80 SWAP4 PUSH2 0xF91 PUSH2 0xFAD SWAP5 PUSH2 0xF83 PUSH2 0xF9F SWAP5 PUSH1 0xA0 DUP13 MSTORE PUSH1 0xA0 DUP13 ADD SWAP1 PUSH2 0xBEE JUMP JUMPDEST SWAP1 DUP11 DUP3 SUB PUSH1 0x20 DUP13 ADD MSTORE PUSH2 0xBAE JUMP JUMPDEST SWAP1 DUP9 DUP3 SUB PUSH1 0x40 DUP11 ADD MSTORE PUSH2 0xBAE JUMP JUMPDEST SWAP1 DUP7 DUP3 SUB PUSH1 0x60 DUP9 ADD MSTORE PUSH2 0xBAE JUMP JUMPDEST SWAP4 ADD MSTORE JUMP JUMPDEST PUSH1 0x6 SLOAD DUP2 LT ISZERO PUSH2 0x8F6 JUMPI PUSH1 0x11 SWAP1 PUSH1 0x6 PUSH1 0x0 MSTORE MUL PUSH32 0xF652222313E28459528D920B65115C16C04F3EFC82AAEDC97BE59F3F377C0D3F ADD SWAP1 PUSH1 0x0 SWAP1 JUMP JUMPDEST DUP1 MLOAD SWAP1 PUSH1 0x20 SWAP2 DUP3 DUP3 ADD SWAP1 DUP2 KECCAK256 SWAP1 PUSH1 0x0 SWAP3 DUP4 SLOAD SWAP3 DUP4 ISZERO PUSH2 0x134B JUMPI SWAP1 DUP6 SWAP3 SWAP2 DUP6 DUP1 MSTORE PUSH1 0x40 MLOAD DUP7 SWAP1 PUSH32 0x290DECD9548B62A8D60345A988386FC84BA6BC95484008F6362F93160EF3E563 DUP2 DUP2 SLOAD SWAP4 PUSH2 0x1040 DUP6 PUSH2 0xD82 JUMP JUMPDEST SWAP3 DUP4 DUP4 MSTORE DUP10 DUP4 ADD SWAP6 PUSH1 0x1 SWAP14 DUP15 DUP3 AND SWAP2 DUP3 PUSH1 0x0 EQ PUSH2 0x132D JUMPI POP POP PUSH1 0x1 EQ PUSH2 0x12D2 JUMPI JUMPDEST POP PUSH2 0x106E SWAP3 POP SUB DUP3 PUSH2 0xB37 JUMP JUMPDEST MLOAD SWAP1 KECCAK256 SUB PUSH2 0x10A1 JUMPI POP POP POP POP PUSH1 0x2 SLOAD SWAP2 DUP3 ADD DUP1 SWAP3 GT PUSH2 0x108D JUMPI POP PUSH1 0x2 SSTORE JUMP JUMPDEST PUSH4 0x4E487B71 PUSH1 0xE0 SHL DUP2 MSTORE PUSH1 0x11 PUSH1 0x4 MSTORE PUSH1 0x24 SWAP1 REVERT JUMPDEST DUP1 MLOAD DUP3 KECCAK256 DUP5 DUP8 LT ISZERO PUSH2 0x12BE JUMPI DUP6 DUP1 MSTORE DUP7 PUSH1 0x40 MLOAD DUP8 DUP2 PUSH32 0x290DECD9548B62A8D60345A988386FC84BA6BC95484008F6362F93160EF3E564 SWAP2 DUP3 SLOAD SWAP3 PUSH2 0x10E4 DUP5 PUSH2 0xD82 JUMP JUMPDEST SWAP4 DUP5 DUP5 MSTORE DUP11 DUP1 DUP6 ADD SWAP8 DUP3 AND SWAP2 DUP3 PUSH1 0x0 EQ PUSH2 0x12A0 JUMPI POP POP PUSH1 0x1 EQ PUSH2 0x1245 JUMPI JUMPDEST POP PUSH2 0x110F SWAP3 POP SUB DUP3 PUSH2 0xB37 JUMP JUMPDEST MLOAD SWAP1 KECCAK256 SUB PUSH2 0x112E JUMPI POP POP POP POP PUSH1 0x3 SLOAD SWAP2 DUP3 ADD DUP1 SWAP3 GT PUSH2 0x108D JUMPI POP PUSH1 0x3 SSTORE JUMP JUMPDEST MLOAD SWAP1 KECCAK256 SWAP2 PUSH1 0x2 LT ISZERO PUSH2 0x1231 JUMPI DUP3 DUP1 MSTORE PUSH1 0x40 MLOAD DUP4 SWAP2 DUP2 PUSH32 0x290DECD9548B62A8D60345A988386FC84BA6BC95484008F6362F93160EF3E565 SWAP4 DUP5 SLOAD SWAP5 PUSH2 0x1171 DUP7 PUSH2 0xD82 JUMP JUMPDEST SWAP1 DUP2 DUP5 MSTORE DUP5 DUP5 ADD SWAP7 DUP11 DUP2 AND SWAP1 DUP2 PUSH1 0x0 EQ PUSH2 0x1213 JUMPI POP PUSH1 0x1 EQ PUSH2 0x11BB JUMPI JUMPDEST POP POP PUSH2 0x119C SWAP3 POP SUB DUP3 PUSH2 0xB37 JUMP JUMPDEST MLOAD SWAP1 KECCAK256 EQ PUSH2 0x11A8 JUMPI POP POP JUMP JUMPDEST PUSH1 0x4 SLOAD SWAP2 DUP3 ADD DUP1 SWAP3 GT PUSH2 0x108D JUMPI POP PUSH1 0x4 SSTORE JUMP JUMPDEST DUP9 MSTORE DUP8 SWAP2 POP DUP9 PUSH32 0x63D75DB57AE45C3799740C3CD8DCEE96A498324843D79AE390ADC81D74B52F13 JUMPDEST DUP3 DUP5 LT PUSH2 0x11FC JUMPI POP POP POP SWAP2 PUSH2 0x119C SWAP3 DUP3 ADD ADD CODESIZE DUP1 PUSH2 0x118E JUMP JUMPDEST DUP1 SLOAD DUP8 DUP6 ADD DUP8 ADD MSTORE DUP7 SWAP5 POP SWAP3 DUP6 ADD SWAP3 DUP11 SWAP2 ADD PUSH2 0x11E3 JUMP JUMPDEST SWAP2 POP POP PUSH2 0x119C SWAP5 SWAP3 POP PUSH1 0xFF NOT AND DUP7 MSTORE ISZERO ISZERO PUSH1 0x5 SHL DUP3 ADD ADD CODESIZE DUP1 PUSH2 0x118E JUMP JUMPDEST PUSH4 0x4E487B71 PUSH1 0xE0 SHL DUP4 MSTORE PUSH1 0x32 PUSH1 0x4 MSTORE PUSH1 0x24 DUP4 REVERT JUMPDEST DUP12 MSTORE POP DUP3 SWAP1 POP DUP8 DUP11 DUP13 PUSH32 0x6C13D8C1C5DF666EA9CA2A428504A3776C8CA01021C3A1524CA7D765F600979A JUMPDEST DUP6 DUP4 LT PUSH2 0x1287 JUMPI POP POP PUSH2 0x110F SWAP4 POP DUP3 ADD ADD CODESIZE PUSH2 0x1102 JUMP JUMPDEST DUP1 SWAP2 SWAP3 SWAP5 POP SLOAD DUP4 DUP6 DUP9 ADD ADD MSTORE ADD SWAP2 ADD DUP9 SWAP1 DUP13 DUP6 SWAP4 PUSH2 0x1270 JUMP JUMPDEST PUSH1 0xFF NOT AND DUP9 MSTORE PUSH2 0x110F SWAP6 ISZERO ISZERO PUSH1 0x5 SHL DUP6 ADD ADD SWAP3 POP CODESIZE SWAP2 POP PUSH2 0x1102 SWAP1 POP JUMP JUMPDEST PUSH4 0x4E487B71 PUSH1 0xE0 SHL DUP7 MSTORE PUSH1 0x32 PUSH1 0x4 MSTORE PUSH1 0x24 DUP7 REVERT JUMPDEST DUP12 MSTORE POP DUP3 SWAP1 POP DUP8 DUP11 DUP13 PUSH32 0x510E4E770828DDBF7F7B00AB00A9F6ADAF81C0DC9CC85F1F8249C256942D61D9 JUMPDEST DUP6 DUP4 LT PUSH2 0x1314 JUMPI POP POP PUSH2 0x106E SWAP4 POP DUP3 ADD ADD CODESIZE PUSH2 0x1061 JUMP JUMPDEST DUP1 SWAP2 SWAP3 SWAP5 POP SLOAD DUP4 DUP6 DUP9 ADD ADD MSTORE ADD SWAP2 ADD DUP9 SWAP1 DUP13 DUP6 SWAP4 PUSH2 0x12FD JUMP JUMPDEST PUSH1 0xFF NOT AND DUP9 MSTORE PUSH2 0x106E SWAP6 ISZERO ISZERO PUSH1 0x5 SHL DUP6 ADD ADD SWAP3 POP CODESIZE SWAP2 POP PUSH2 0x1061 SWAP1 POP JUMP JUMPDEST PUSH4 0x4E487B71 PUSH1 0xE0 SHL DUP6 MSTORE PUSH1 0x32 PUSH1 0x4 MSTORE PUSH1 0x24 DUP6 REVERT JUMPDEST DUP2 DUP2 LT PUSH2 0x136A JUMPI POP POP JUMP JUMPDEST PUSH1 0x0 DUP2 SSTORE PUSH1 0x1 ADD PUSH2 0x135F JUMP JUMPDEST SWAP2 SWAP1 SWAP2 DUP3 MLOAD PUSH1 0x1 PUSH1 0x1 PUSH1 0x40 SHL SUB DUP2 GT PUSH2 0x58E JUMPI PUSH2 0x1393 DUP3 SLOAD PUSH2 0xD82 JUMP JUMPDEST PUSH1 0x1F DUP2 GT PUSH2 0x143D JUMPI JUMPDEST POP PUSH1 0x20 DUP1 PUSH1 0x1F DUP4 GT PUSH1 0x1 EQ PUSH2 0x13D9 JUMPI POP DUP2 SWAP3 SWAP4 SWAP5 PUSH1 0x0 SWAP3 PUSH2 0x13CE JUMPI JUMPDEST POP POP DUP2 PUSH1 0x1 SHL SWAP2 PUSH1 0x0 NOT SWAP1 PUSH1 0x3 SHL SHR NOT AND OR SWAP1 SSTORE JUMP JUMPDEST ADD MLOAD SWAP1 POP CODESIZE DUP1 PUSH2 0x13B8 JUMP JUMPDEST SWAP1 PUSH1 0x1F NOT DUP4 AND SWAP6 DUP5 PUSH1 0x0 MSTORE DUP3 PUSH1 0x0 KECCAK256 SWAP3 PUSH1 0x0 SWAP1 JUMPDEST DUP9 DUP3 LT PUSH2 0x1425 JUMPI POP POP DUP4 PUSH1 0x1 SWAP6 SWAP7 SWAP8 LT PUSH2 0x140C JUMPI JUMPDEST POP POP POP DUP2 SHL ADD SWAP1 SSTORE JUMP JUMPDEST ADD MLOAD PUSH1 0x0 NOT PUSH1 0xF8 DUP5 PUSH1 0x3 SHL AND SHR NOT AND SWAP1 SSTORE CODESIZE DUP1 DUP1 PUSH2 0x1402 JUMP JUMPDEST DUP1 PUSH1 0x1 DUP6 SWAP7 DUP3 SWAP5 SWAP7 DUP7 ADD MLOAD DUP2 SSTORE ADD SWAP6 ADD SWAP4 ADD SWAP1 PUSH2 0x13ED JUMP JUMPDEST PUSH2 0x146A SWAP1 DUP4 PUSH1 0x0 MSTORE PUSH1 0x20 PUSH1 0x0 KECCAK256 PUSH1 0x1F DUP5 ADD PUSH1 0x5 SHR DUP2 ADD SWAP2 PUSH1 0x20 DUP6 LT PUSH2 0x1470 JUMPI JUMPDEST PUSH1 0x1F ADD PUSH1 0x5 SHR ADD SWAP1 PUSH2 0x135F JUMP JUMPDEST CODESIZE PUSH2 0x139C JUMP JUMPDEST SWAP1 SWAP2 POP DUP2 SWAP1 PUSH2 0x145D JUMP JUMPDEST DUP2 MLOAD SWAP2 PUSH1 0x1 DUP1 PUSH1 0xA0 SHL SUB DUP1 DUP5 MLOAD AND PUSH12 0xFFFFFFFFFFFFFFFFFFFFFFFF PUSH1 0xA0 SHL DUP5 SLOAD AND OR DUP4 SSTORE PUSH1 0xA0 PUSH1 0x10 PUSH1 0x20 SWAP5 PUSH2 0x1556 PUSH2 0x160 DUP8 DUP10 ADD MLOAD SWAP9 PUSH2 0x14BE PUSH1 0x1 SWAP11 DUP12 DUP7 ADD PUSH2 0x1376 JUMP JUMPDEST PUSH1 0x40 DUP2 ADD MLOAD PUSH1 0x2 DUP6 ADD SSTORE PUSH1 0x60 DUP2 ADD MLOAD PUSH1 0x3 DUP6 ADD SSTORE PUSH2 0x14E3 PUSH1 0x80 DUP3 ADD MLOAD PUSH1 0x4 DUP7 ADD PUSH2 0x1376 JUMP JUMPDEST PUSH2 0x14F3 DUP7 DUP3 ADD MLOAD PUSH1 0x5 DUP7 ADD PUSH2 0x1376 JUMP JUMPDEST PUSH2 0x1504 PUSH1 0xC0 DUP3 ADD MLOAD PUSH1 0x6 DUP7 ADD PUSH2 0x1376 JUMP JUMPDEST PUSH2 0x1515 PUSH1 0xE0 DUP3 ADD MLOAD PUSH1 0x7 DUP7 ADD PUSH2 0x1376 JUMP JUMPDEST PUSH2 0x1527 PUSH2 0x100 DUP3 ADD MLOAD PUSH1 0x8 DUP7 ADD PUSH2 0x1376 JUMP JUMPDEST PUSH2 0x1539 PUSH2 0x120 DUP3 ADD MLOAD PUSH1 0x9 DUP7 ADD PUSH2 0x1376 JUMP JUMPDEST PUSH2 0x154B PUSH2 0x140 DUP3 ADD MLOAD PUSH1 0xA DUP7 ADD PUSH2 0x1376 JUMP JUMPDEST ADD MLOAD PUSH1 0xB DUP4 ADD PUSH2 0x1376 JUMP JUMPDEST PUSH2 0x1566 DUP7 DUP7 ADD MLOAD PUSH1 0xC DUP4 ADD PUSH2 0x1376 JUMP JUMPDEST PUSH2 0x1577 PUSH1 0x40 DUP7 ADD MLOAD PUSH1 0xD DUP4 ADD PUSH2 0x1376 JUMP JUMPDEST PUSH2 0x1588 PUSH1 0x60 DUP7 ADD MLOAD PUSH1 0xE DUP4 ADD PUSH2 0x1376 JUMP JUMPDEST PUSH1 0x80 DUP6 ADD MLOAD PUSH1 0xF DUP3 ADD SSTORE ADD SWAP3 ADD MLOAD SWAP3 DUP4 MLOAD SWAP4 PUSH1 0x1 PUSH1 0x1 PUSH1 0x40 SHL SUB DUP6 GT PUSH2 0x58E JUMPI PUSH1 0x1 PUSH1 0x40 SHL DUP6 GT PUSH2 0x58E JUMPI DUP2 SWAP1 DUP5 SLOAD DUP7 DUP7 SSTORE DUP1 DUP8 LT PUSH2 0x15F3 JUMPI JUMPDEST POP ADD SWAP3 PUSH1 0x0 MSTORE DUP1 PUSH1 0x0 KECCAK256 SWAP2 PUSH1 0x0 JUMPDEST DUP6 DUP2 LT PUSH2 0x15E0 JUMPI POP POP POP POP POP POP POP JUMP JUMPDEST DUP5 MLOAD DUP3 AND DUP5 DUP3 ADD SSTORE SWAP4 DUP3 ADD SWAP4 DUP7 ADD PUSH2 0x15D0 JUMP JUMPDEST PUSH2 0x160A SWAP1 DUP7 PUSH1 0x0 MSTORE DUP8 DUP5 PUSH1 0x0 KECCAK256 SWAP2 DUP3 ADD SWAP2 ADD PUSH2 0x135F JUMP JUMPDEST CODESIZE PUSH2 0x15C2 JUMP JUMPDEST SWAP1 PUSH1 0x40 SWAP2 DUP3 MLOAD SWAP3 PUSH2 0x1620 DUP5 PUSH2 0xB1C JUMP JUMPDEST DUP4 PUSH2 0x162A DUP4 PUSH2 0xE52 JUMP JUMPDEST DUP2 MSTORE PUSH1 0x10 DUP3 MLOAD SWAP4 PUSH2 0x1649 DUP6 PUSH2 0x1642 DUP2 PUSH1 0xC DUP6 ADD PUSH2 0xDBC JUMP JUMPDEST SUB DUP7 PUSH2 0xB37 JUMP JUMPDEST PUSH1 0x20 SWAP5 DUP6 DUP5 ADD MSTORE DUP4 MLOAD PUSH2 0x1663 DUP2 PUSH2 0x335 DUP2 PUSH1 0xD DUP7 ADD PUSH2 0xDBC JUMP JUMPDEST DUP5 DUP5 ADD MSTORE DUP4 MLOAD PUSH2 0x167A DUP2 PUSH2 0x335 DUP2 PUSH1 0xE DUP7 ADD PUSH2 0xDBC JUMP JUMPDEST PUSH1 0x60 DUP5 ADD MSTORE PUSH1 0xF DUP2 ADD SLOAD PUSH1 0x80 DUP5 ADD MSTORE ADD SWAP2 MLOAD DUP1 SWAP4 DUP5 SWAP2 DUP2 DUP6 SLOAD SWAP2 DUP3 DUP2 MSTORE ADD SWAP5 PUSH1 0x0 MSTORE DUP2 PUSH1 0x0 KECCAK256 SWAP2 PUSH1 0x0 SWAP1 JUMPDEST DUP3 DUP3 LT PUSH2 0x16BE JUMPI POP POP POP POP PUSH2 0xF5C SWAP1 PUSH1 0xA0 SWAP4 SUB DUP5 PUSH2 0xB37 JUMP JUMPDEST DUP4 SLOAD PUSH1 0x1 PUSH1 0x1 PUSH1 0xA0 SHL SUB AND DUP8 MSTORE SWAP6 DUP7 ADD SWAP6 DUP8 SWAP5 POP PUSH1 0x1 SWAP4 DUP5 ADD SWAP4 SWAP1 SWAP2 ADD SWAP1 PUSH2 0x16A5 JUMP INVALID LOG2 PUSH5 0x6970667358 0x22 SLT KECCAK256 SLOAD CALLCODE SLT JUMPI SWAP5 DUP5 0xD8 BLOCKHASH PUSH27 0xD27CE60530B46167EE39DBFA893D38C6929D90C4EB82FC64736F6C PUSH4 0x43000811 STOP CALLER "
				},
				"gasEstimates": {
					"creation": {
						"codeDepositCost": "1182200",
						"executionCost": "infinite",
						"totalCost": "infinite"
					},
					"external": {
						"addCandidate(string,uint256,uint256,string,string,string,string,string,string,string,string,string,string)": "infinite",
						"adminAddress()": "2565",
						"candidateList(uint256)": "infinite",
						"candidateNames(uint256)": "infinite",
						"candidates(address)": "infinite",
						"gender_list(uint256)": "infinite",
						"getAllCandidates()": "infinite",
						"getCandidateDetails(address)": "infinite",
						"isAdmin(address)": "2388",
						"totalCandidate()": "2302",
						"totalFemaleVoters()": "2434",
						"totalMaleVoters()": "2250",
						"totalOtherVoters()": "2280",
						"updateCounter(string)": "infinite"
					}
				},
				"methodIdentifiers": {
					"addCandidate(string,uint256,uint256,string,string,string,string,string,string,string,string,string,string)": "2d23c735",
					"adminAddress()": "fc6f9468",
					"candidateList(uint256)": "b13c744b",
					"candidateNames(uint256)": "8287e42f",
					"candidates(address)": "8ab66a90",
					"gender_list(uint256)": "6394a8fa",
					"getAllCandidates()": "2e6997fe",
					"getCandidateDetails(address)": "53ac5dc3",
					"isAdmin(address)": "24d7806c",
					"totalCandidate()": "1812dab4",
					"totalFemaleVoters()": "7c054c54",
					"totalMaleVoters()": "029c21bd",
					"totalOtherVoters()": "0983f185",
					"updateCounter(string)": "b0a4ec42"
				}
			},
			"storageLayout": {
				"storage": [
					{
						"astId": 4,
						"contract": "Contract/src/components/Candidate.sol:Candidate",
						"label": "gender_list",
						"offset": 0,
						"slot": "0",
						"type": "t_array(t_string_storage)dyn_storage"
					},
					{
						"astId": 138,
						"contract": "Contract/src/components/Candidate.sol:Candidate",
						"label": "adminAddress",
						"offset": 0,
						"slot": "1",
						"type": "t_address"
					},
					{
						"astId": 141,
						"contract": "Contract/src/components/Candidate.sol:Candidate",
						"label": "totalMaleVoters",
						"offset": 0,
						"slot": "2",
						"type": "t_uint256"
					},
					{
						"astId": 144,
						"contract": "Contract/src/components/Candidate.sol:Candidate",
						"label": "totalFemaleVoters",
						"offset": 0,
						"slot": "3",
						"type": "t_uint256"
					},
					{
						"astId": 147,
						"contract": "Contract/src/components/Candidate.sol:Candidate",
						"label": "totalOtherVoters",
						"offset": 0,
						"slot": "4",
						"type": "t_uint256"
					},
					{
						"astId": 288,
						"contract": "Contract/src/components/Candidate.sol:Candidate",
						"label": "candidates",
						"offset": 0,
						"slot": "5",
						"type": "t_mapping(t_address,t_struct(Candidate)74_storage)"
					},
					{
						"astId": 292,
						"contract": "Contract/src/components/Candidate.sol:Candidate",
						"label": "candidateList",
						"offset": 0,
						"slot": "6",
						"type": "t_array(t_struct(Candidate)74_storage)dyn_storage"
					},
					{
						"astId": 295,
						"contract": "Contract/src/components/Candidate.sol:Candidate",
						"label": "candidateNames",
						"offset": 0,
						"slot": "7",
						"type": "t_array(t_string_storage)dyn_storage"
					},
					{
						"astId": 298,
						"contract": "Contract/src/components/Candidate.sol:Candidate",
						"label": "totalCandidate",
						"offset": 0,
						"slot": "8",
						"type": "t_uint256"
					}
				],
				"types": {
					"t_address": {
						"encoding": "inplace",
						"label": "address",
						"numberOfBytes": "20"
					},
					"t_array(t_address)dyn_storage": {
						"base": "t_address",
						"encoding": "dynamic_array",
						"label": "address[]",
						"numberOfBytes": "32"
					},
					"t_array(t_string_storage)dyn_storage": {
						"base": "t_string_storage",
						"encoding": "dynamic_array",
						"label": "string[]",
						"numberOfBytes": "32"
					},
					"t_array(t_struct(Candidate)74_storage)dyn_storage": {
						"base": "t_struct(Candidate)74_storage",
						"encoding": "dynamic_array",
						"label": "struct Structure.Candidate[]",
						"numberOfBytes": "32"
					},
					"t_mapping(t_address,t_struct(Candidate)74_storage)": {
						"encoding": "mapping",
						"key": "t_address",
						"label": "mapping(address => struct Structure.Candidate)",
						"numberOfBytes": "32",
						"value": "t_struct(Candidate)74_storage"
					},
					"t_string_storage": {
						"encoding": "bytes",
						"label": "string",
						"numberOfBytes": "32"
					},
					"t_struct(Candidate)74_storage": {
						"encoding": "inplace",
						"label": "struct Structure.Candidate",
						"members": [
							{
								"astId": 62,
								"contract": "Contract/src/components/Candidate.sol:Candidate",
								"label": "user",
								"offset": 0,
								"slot": "0",
								"type": "t_struct(User)43_storage"
							},
							{
								"astId": 64,
								"contract": "Contract/src/components/Candidate.sol:Candidate",
								"label": "partyName",
								"offset": 0,
								"slot": "12",
								"type": "t_string_storage"
							},
							{
								"astId": 66,
								"contract": "Contract/src/components/Candidate.sol:Candidate",
								"label": "position",
								"offset": 0,
								"slot": "13",
								"type": "t_string_storage"
							},
							{
								"astId": 68,
								"contract": "Contract/src/components/Candidate.sol:Candidate",
								"label": "agenda",
								"offset": 0,
								"slot": "14",
								"type": "t_string_storage"
							},
							{
								"astId": 70,
								"contract": "Contract/src/components/Candidate.sol:Candidate",
								"label": "voteCount",
								"offset": 0,
								"slot": "15",
								"type": "t_uint256"
							},
							{
								"astId": 73,
								"contract": "Contract/src/components/Candidate.sol:Candidate",
								"label": "votedVoterLists",
								"offset": 0,
								"slot": "16",
								"type": "t_array(t_address)dyn_storage"
							}
						],
						"numberOfBytes": "544"
					},
					"t_struct(User)43_storage": {
						"encoding": "inplace",
						"label": "struct Structure.User",
						"members": [
							{
								"astId": 20,
								"contract": "Contract/src/components/Candidate.sol:Candidate",
								"label": "_id",
								"offset": 0,
								"slot": "0",
								"type": "t_address"
							},
							{
								"astId": 22,
								"contract": "Contract/src/components/Candidate.sol:Candidate",
								"label": "fullName",
								"offset": 0,
								"slot": "1",
								"type": "t_string_storage"
							},
							{
								"astId": 24,
								"contract": "Contract/src/components/Candidate.sol:Candidate",
								"label": "citizenshipNumber",
								"offset": 0,
								"slot": "2",
								"type": "t_uint256"
							},
							{
								"astId": 26,
								"contract": "Contract/src/components/Candidate.sol:Candidate",
								"label": "age",
								"offset": 0,
								"slot": "3",
								"type": "t_uint256"
							},
							{
								"astId": 28,
								"contract": "Contract/src/components/Candidate.sol:Candidate",
								"label": "gender",
								"offset": 0,
								"slot": "4",
								"type": "t_string_storage"
							},
							{
								"astId": 30,
								"contract": "Contract/src/components/Candidate.sol:Candidate",
								"label": "dob",
								"offset": 0,
								"slot": "5",
								"type": "t_string_storage"
							},
							{
								"astId": 32,
								"contract": "Contract/src/components/Candidate.sol:Candidate",
								"label": "email",
								"offset": 0,
								"slot": "6",
								"type": "t_string_storage"
							},
							{
								"astId": 34,
								"contract": "Contract/src/components/Candidate.sol:Candidate",
								"label": "profile",
								"offset": 0,
								"slot": "7",
								"type": "t_string_storage"
							},
							{
								"astId": 36,
								"contract": "Contract/src/components/Candidate.sol:Candidate",
								"label": "province",
								"offset": 0,
								"slot": "8",
								"type": "t_string_storage"
							},
							{
								"astId": 38,
								"contract": "Contract/src/components/Candidate.sol:Candidate",
								"label": "district",
								"offset": 0,
								"slot": "9",
								"type": "t_string_storage"
							},
							{
								"astId": 40,
								"contract": "Contract/src/components/Candidate.sol:Candidate",
								"label": "municipality",
								"offset": 0,
								"slot": "10",
								"type": "t_string_storage"
							},
							{
								"astId": 42,
								"contract": "Contract/src/components/Candidate.sol:Candidate",
								"label": "ward",
								"offset": 0,
								"slot": "11",
								"type": "t_string_storage"
							}
						],
						"numberOfBytes": "384"
					},
					"t_uint256": {
						"encoding": "inplace",
						"label": "uint256",
						"numberOfBytes": "32"
					}
				}
			},
			"userdoc": {
				"kind": "user",
				"methods": {},
				"version": 1
			}
		}
	}
}