{
	"Contract/Voter.sol": {
		"Voter": {
			"abi": [
				{
					"anonymous": false,
					"inputs": [
						{
							"components": [
								{
									"components": [
										{
											"internalType": "address",
											"name": "_id",
											"type": "address"
										},
										{
											"internalType": "string",
											"name": "fullName",
											"type": "string"
										},
										{
											"internalType": "uint256",
											"name": "citizenshipNumber",
											"type": "uint256"
										},
										{
											"internalType": "uint256",
											"name": "age",
											"type": "uint256"
										},
										{
											"internalType": "string",
											"name": "gender",
											"type": "string"
										},
										{
											"internalType": "string",
											"name": "dob",
											"type": "string"
										},
										{
											"internalType": "string",
											"name": "email",
											"type": "string"
										},
										{
											"internalType": "string",
											"name": "profile",
											"type": "string"
										},
										{
											"internalType": "string",
											"name": "province",
											"type": "string"
										},
										{
											"internalType": "string",
											"name": "district",
											"type": "string"
										},
										{
											"internalType": "string",
											"name": "municipality",
											"type": "string"
										},
										{
											"internalType": "string",
											"name": "ward",
											"type": "string"
										}
									],
									"internalType": "struct Structure.User",
									"name": "user",
									"type": "tuple"
								},
								{
									"internalType": "string",
									"name": "partyName",
									"type": "string"
								},
								{
									"internalType": "string",
									"name": "agenda",
									"type": "string"
								},
								{
									"internalType": "uint256",
									"name": "voteCount",
									"type": "uint256"
								},
								{
									"internalType": "address[]",
									"name": "votedVoterLists",
									"type": "address[]"
								}
							],
							"indexed": false,
							"internalType": "struct Structure.Candidate",
							"name": "candidate",
							"type": "tuple"
						}
					],
					"name": "CandidateCreated",
					"type": "event"
				},
				{
					"anonymous": false,
					"inputs": [
						{
							"components": [
								{
									"components": [
										{
											"internalType": "address",
											"name": "_id",
											"type": "address"
										},
										{
											"internalType": "string",
											"name": "fullName",
											"type": "string"
										},
										{
											"internalType": "uint256",
											"name": "citizenshipNumber",
											"type": "uint256"
										},
										{
											"internalType": "uint256",
											"name": "age",
											"type": "uint256"
										},
										{
											"internalType": "string",
											"name": "gender",
											"type": "string"
										},
										{
											"internalType": "string",
											"name": "dob",
											"type": "string"
										},
										{
											"internalType": "string",
											"name": "email",
											"type": "string"
										},
										{
											"internalType": "string",
											"name": "profile",
											"type": "string"
										},
										{
											"internalType": "string",
											"name": "province",
											"type": "string"
										},
										{
											"internalType": "string",
											"name": "district",
											"type": "string"
										},
										{
											"internalType": "string",
											"name": "municipality",
											"type": "string"
										},
										{
											"internalType": "string",
											"name": "ward",
											"type": "string"
										}
									],
									"internalType": "struct Structure.User",
									"name": "user",
									"type": "tuple"
								},
								{
									"internalType": "string",
									"name": "partyName",
									"type": "string"
								},
								{
									"internalType": "string",
									"name": "agenda",
									"type": "string"
								},
								{
									"internalType": "uint256",
									"name": "voteCount",
									"type": "uint256"
								},
								{
									"internalType": "address[]",
									"name": "votedVoterLists",
									"type": "address[]"
								}
							],
							"indexed": false,
							"internalType": "struct Structure.Candidate",
							"name": "candidate",
							"type": "tuple"
						}
					],
					"name": "VoteCast",
					"type": "event"
				},
				{
					"anonymous": false,
					"inputs": [
						{
							"components": [
								{
									"components": [
										{
											"internalType": "address",
											"name": "_id",
											"type": "address"
										},
										{
											"internalType": "string",
											"name": "fullName",
											"type": "string"
										},
										{
											"internalType": "uint256",
											"name": "citizenshipNumber",
											"type": "uint256"
										},
										{
											"internalType": "uint256",
											"name": "age",
											"type": "uint256"
										},
										{
											"internalType": "string",
											"name": "gender",
											"type": "string"
										},
										{
											"internalType": "string",
											"name": "dob",
											"type": "string"
										},
										{
											"internalType": "string",
											"name": "email",
											"type": "string"
										},
										{
											"internalType": "string",
											"name": "profile",
											"type": "string"
										},
										{
											"internalType": "string",
											"name": "province",
											"type": "string"
										},
										{
											"internalType": "string",
											"name": "district",
											"type": "string"
										},
										{
											"internalType": "string",
											"name": "municipality",
											"type": "string"
										},
										{
											"internalType": "string",
											"name": "ward",
											"type": "string"
										}
									],
									"internalType": "struct Structure.User",
									"name": "user",
									"type": "tuple"
								},
								{
									"internalType": "address[]",
									"name": "votedCandidateList",
									"type": "address[]"
								},
								{
									"internalType": "uint256",
									"name": "voteLimitCount",
									"type": "uint256"
								}
							],
							"indexed": false,
							"internalType": "struct Structure.Voter",
							"name": "voter",
							"type": "tuple"
						}
					],
					"name": "VoterCreated",
					"type": "event"
				},
				{
					"inputs": [
						{
							"internalType": "string",
							"name": "_name",
							"type": "string"
						},
						{
							"internalType": "uint256",
							"name": "_citizenshipNo",
							"type": "uint256"
						},
						{
							"internalType": "uint256",
							"name": "_age",
							"type": "uint256"
						},
						{
							"internalType": "string",
							"name": "_agenda",
							"type": "string"
						},
						{
							"internalType": "string",
							"name": "_dob",
							"type": "string"
						},
						{
							"internalType": "string",
							"name": "_email",
							"type": "string"
						},
						{
							"internalType": "string",
							"name": "_profile",
							"type": "string"
						},
						{
							"internalType": "string",
							"name": "_partyName",
							"type": "string"
						},
						{
							"internalType": "string",
							"name": "_province",
							"type": "string"
						},
						{
							"internalType": "string",
							"name": "_district",
							"type": "string"
						},
						{
							"internalType": "string",
							"name": "_municipality",
							"type": "string"
						},
						{
							"internalType": "string",
							"name": "_ward",
							"type": "string"
						},
						{
							"internalType": "string",
							"name": "_gender",
							"type": "string"
						}
					],
					"name": "addCandidate",
					"outputs": [],
					"stateMutability": "payable",
					"type": "function"
				},
				{
					"inputs": [
						{
							"internalType": "string",
							"name": "_name",
							"type": "string"
						},
						{
							"internalType": "uint256",
							"name": "_citizenshipNo",
							"type": "uint256"
						},
						{
							"internalType": "uint256",
							"name": "_age",
							"type": "uint256"
						},
						{
							"internalType": "string",
							"name": "_dob",
							"type": "string"
						},
						{
							"internalType": "string",
							"name": "_email",
							"type": "string"
						},
						{
							"internalType": "string",
							"name": "_profile",
							"type": "string"
						},
						{
							"internalType": "string",
							"name": "_province",
							"type": "string"
						},
						{
							"internalType": "string",
							"name": "_district",
							"type": "string"
						},
						{
							"internalType": "string",
							"name": "_municipality",
							"type": "string"
						},
						{
							"internalType": "string",
							"name": "_ward",
							"type": "string"
						},
						{
							"internalType": "string",
							"name": "_gender",
							"type": "string"
						}
					],
					"name": "addVoter",
					"outputs": [],
					"stateMutability": "payable",
					"type": "function"
				},
				{
					"inputs": [],
					"name": "adminAddress",
					"outputs": [
						{
							"internalType": "address",
							"name": "",
							"type": "address"
						}
					],
					"stateMutability": "view",
					"type": "function"
				},
				{
					"inputs": [
						{
							"internalType": "uint256",
							"name": "",
							"type": "uint256"
						}
					],
					"name": "candidateList",
					"outputs": [
						{
							"components": [
								{
									"internalType": "address",
									"name": "_id",
									"type": "address"
								},
								{
									"internalType": "string",
									"name": "fullName",
									"type": "string"
								},
								{
									"internalType": "uint256",
									"name": "citizenshipNumber",
									"type": "uint256"
								},
								{
									"internalType": "uint256",
									"name": "age",
									"type": "uint256"
								},
								{
									"internalType": "string",
									"name": "gender",
									"type": "string"
								},
								{
									"internalType": "string",
									"name": "dob",
									"type": "string"
								},
								{
									"internalType": "string",
									"name": "email",
									"type": "string"
								},
								{
									"internalType": "string",
									"name": "profile",
									"type": "string"
								},
								{
									"internalType": "string",
									"name": "province",
									"type": "string"
								},
								{
									"internalType": "string",
									"name": "district",
									"type": "string"
								},
								{
									"internalType": "string",
									"name": "municipality",
									"type": "string"
								},
								{
									"internalType": "string",
									"name": "ward",
									"type": "string"
								}
							],
							"internalType": "struct Structure.User",
							"name": "user",
							"type": "tuple"
						},
						{
							"internalType": "string",
							"name": "partyName",
							"type": "string"
						},
						{
							"internalType": "string",
							"name": "agenda",
							"type": "string"
						},
						{
							"internalType": "uint256",
							"name": "voteCount",
							"type": "uint256"
						}
					],
					"stateMutability": "view",
					"type": "function"
				},
				{
					"inputs": [
						{
							"internalType": "uint256",
							"name": "",
							"type": "uint256"
						}
					],
					"name": "candidateNames",
					"outputs": [
						{
							"internalType": "string",
							"name": "",
							"type": "string"
						}
					],
					"stateMutability": "view",
					"type": "function"
				},
				{
					"inputs": [
						{
							"internalType": "address",
							"name": "",
							"type": "address"
						}
					],
					"name": "candidates",
					"outputs": [
						{
							"components": [
								{
									"internalType": "address",
									"name": "_id",
									"type": "address"
								},
								{
									"internalType": "string",
									"name": "fullName",
									"type": "string"
								},
								{
									"internalType": "uint256",
									"name": "citizenshipNumber",
									"type": "uint256"
								},
								{
									"internalType": "uint256",
									"name": "age",
									"type": "uint256"
								},
								{
									"internalType": "string",
									"name": "gender",
									"type": "string"
								},
								{
									"internalType": "string",
									"name": "dob",
									"type": "string"
								},
								{
									"internalType": "string",
									"name": "email",
									"type": "string"
								},
								{
									"internalType": "string",
									"name": "profile",
									"type": "string"
								},
								{
									"internalType": "string",
									"name": "province",
									"type": "string"
								},
								{
									"internalType": "string",
									"name": "district",
									"type": "string"
								},
								{
									"internalType": "string",
									"name": "municipality",
									"type": "string"
								},
								{
									"internalType": "string",
									"name": "ward",
									"type": "string"
								}
							],
							"internalType": "struct Structure.User",
							"name": "user",
							"type": "tuple"
						},
						{
							"internalType": "string",
							"name": "partyName",
							"type": "string"
						},
						{
							"internalType": "string",
							"name": "agenda",
							"type": "string"
						},
						{
							"internalType": "uint256",
							"name": "voteCount",
							"type": "uint256"
						}
					],
					"stateMutability": "view",
					"type": "function"
				},
				{
					"inputs": [
						{
							"internalType": "uint256",
							"name": "",
							"type": "uint256"
						}
					],
					"name": "gender_list",
					"outputs": [
						{
							"internalType": "string",
							"name": "",
							"type": "string"
						}
					],
					"stateMutability": "view",
					"type": "function"
				},
				{
					"inputs": [],
					"name": "getAllCandidates",
					"outputs": [
						{
							"components": [
								{
									"components": [
										{
											"internalType": "address",
											"name": "_id",
											"type": "address"
										},
										{
											"internalType": "string",
											"name": "fullName",
											"type": "string"
										},
										{
											"internalType": "uint256",
											"name": "citizenshipNumber",
											"type": "uint256"
										},
										{
											"internalType": "uint256",
											"name": "age",
											"type": "uint256"
										},
										{
											"internalType": "string",
											"name": "gender",
											"type": "string"
										},
										{
											"internalType": "string",
											"name": "dob",
											"type": "string"
										},
										{
											"internalType": "string",
											"name": "email",
											"type": "string"
										},
										{
											"internalType": "string",
											"name": "profile",
											"type": "string"
										},
										{
											"internalType": "string",
											"name": "province",
											"type": "string"
										},
										{
											"internalType": "string",
											"name": "district",
											"type": "string"
										},
										{
											"internalType": "string",
											"name": "municipality",
											"type": "string"
										},
										{
											"internalType": "string",
											"name": "ward",
											"type": "string"
										}
									],
									"internalType": "struct Structure.User",
									"name": "user",
									"type": "tuple"
								},
								{
									"internalType": "string",
									"name": "partyName",
									"type": "string"
								},
								{
									"internalType": "string",
									"name": "agenda",
									"type": "string"
								},
								{
									"internalType": "uint256",
									"name": "voteCount",
									"type": "uint256"
								},
								{
									"internalType": "address[]",
									"name": "votedVoterLists",
									"type": "address[]"
								}
							],
							"internalType": "struct Structure.Candidate[]",
							"name": "",
							"type": "tuple[]"
						}
					],
					"stateMutability": "view",
					"type": "function"
				},
				{
					"inputs": [],
					"name": "getAllVoters",
					"outputs": [
						{
							"components": [
								{
									"components": [
										{
											"internalType": "address",
											"name": "_id",
											"type": "address"
										},
										{
											"internalType": "string",
											"name": "fullName",
											"type": "string"
										},
										{
											"internalType": "uint256",
											"name": "citizenshipNumber",
											"type": "uint256"
										},
										{
											"internalType": "uint256",
											"name": "age",
											"type": "uint256"
										},
										{
											"internalType": "string",
											"name": "gender",
											"type": "string"
										},
										{
											"internalType": "string",
											"name": "dob",
											"type": "string"
										},
										{
											"internalType": "string",
											"name": "email",
											"type": "string"
										},
										{
											"internalType": "string",
											"name": "profile",
											"type": "string"
										},
										{
											"internalType": "string",
											"name": "province",
											"type": "string"
										},
										{
											"internalType": "string",
											"name": "district",
											"type": "string"
										},
										{
											"internalType": "string",
											"name": "municipality",
											"type": "string"
										},
										{
											"internalType": "string",
											"name": "ward",
											"type": "string"
										}
									],
									"internalType": "struct Structure.User",
									"name": "user",
									"type": "tuple"
								},
								{
									"internalType": "address[]",
									"name": "votedCandidateList",
									"type": "address[]"
								},
								{
									"internalType": "uint256",
									"name": "voteLimitCount",
									"type": "uint256"
								}
							],
							"internalType": "struct Structure.Voter[]",
							"name": "",
							"type": "tuple[]"
						}
					],
					"stateMutability": "view",
					"type": "function"
				},
				{
					"inputs": [
						{
							"internalType": "address",
							"name": "_id",
							"type": "address"
						}
					],
					"name": "getCandidateDetails",
					"outputs": [
						{
							"components": [
								{
									"components": [
										{
											"internalType": "address",
											"name": "_id",
											"type": "address"
										},
										{
											"internalType": "string",
											"name": "fullName",
											"type": "string"
										},
										{
											"internalType": "uint256",
											"name": "citizenshipNumber",
											"type": "uint256"
										},
										{
											"internalType": "uint256",
											"name": "age",
											"type": "uint256"
										},
										{
											"internalType": "string",
											"name": "gender",
											"type": "string"
										},
										{
											"internalType": "string",
											"name": "dob",
											"type": "string"
										},
										{
											"internalType": "string",
											"name": "email",
											"type": "string"
										},
										{
											"internalType": "string",
											"name": "profile",
											"type": "string"
										},
										{
											"internalType": "string",
											"name": "province",
											"type": "string"
										},
										{
											"internalType": "string",
											"name": "district",
											"type": "string"
										},
										{
											"internalType": "string",
											"name": "municipality",
											"type": "string"
										},
										{
											"internalType": "string",
											"name": "ward",
											"type": "string"
										}
									],
									"internalType": "struct Structure.User",
									"name": "user",
									"type": "tuple"
								},
								{
									"internalType": "string",
									"name": "partyName",
									"type": "string"
								},
								{
									"internalType": "string",
									"name": "agenda",
									"type": "string"
								},
								{
									"internalType": "uint256",
									"name": "voteCount",
									"type": "uint256"
								},
								{
									"internalType": "address[]",
									"name": "votedVoterLists",
									"type": "address[]"
								}
							],
							"internalType": "struct Structure.Candidate",
							"name": "",
							"type": "tuple"
						}
					],
					"stateMutability": "view",
					"type": "function"
				},
				{
					"inputs": [
						{
							"internalType": "address",
							"name": "_id",
							"type": "address"
						}
					],
					"name": "getVoterDetails",
					"outputs": [
						{
							"components": [
								{
									"components": [
										{
											"internalType": "address",
											"name": "_id",
											"type": "address"
										},
										{
											"internalType": "string",
											"name": "fullName",
											"type": "string"
										},
										{
											"internalType": "uint256",
											"name": "citizenshipNumber",
											"type": "uint256"
										},
										{
											"internalType": "uint256",
											"name": "age",
											"type": "uint256"
										},
										{
											"internalType": "string",
											"name": "gender",
											"type": "string"
										},
										{
											"internalType": "string",
											"name": "dob",
											"type": "string"
										},
										{
											"internalType": "string",
											"name": "email",
											"type": "string"
										},
										{
											"internalType": "string",
											"name": "profile",
											"type": "string"
										},
										{
											"internalType": "string",
											"name": "province",
											"type": "string"
										},
										{
											"internalType": "string",
											"name": "district",
											"type": "string"
										},
										{
											"internalType": "string",
											"name": "municipality",
											"type": "string"
										},
										{
											"internalType": "string",
											"name": "ward",
											"type": "string"
										}
									],
									"internalType": "struct Structure.User",
									"name": "user",
									"type": "tuple"
								},
								{
									"internalType": "address[]",
									"name": "votedCandidateList",
									"type": "address[]"
								},
								{
									"internalType": "uint256",
									"name": "voteLimitCount",
									"type": "uint256"
								}
							],
							"internalType": "struct Structure.Voter",
							"name": "",
							"type": "tuple"
						}
					],
					"stateMutability": "view",
					"type": "function"
				},
				{
					"inputs": [
						{
							"internalType": "address",
							"name": "_id",
							"type": "address"
						}
					],
					"name": "isAdmin",
					"outputs": [
						{
							"internalType": "bool",
							"name": "",
							"type": "bool"
						}
					],
					"stateMutability": "view",
					"type": "function"
				},
				{
					"inputs": [],
					"name": "totalCandidate",
					"outputs": [
						{
							"internalType": "uint256",
							"name": "",
							"type": "uint256"
						}
					],
					"stateMutability": "view",
					"type": "function"
				},
				{
					"inputs": [],
					"name": "totalFemaleVoters",
					"outputs": [
						{
							"internalType": "uint256",
							"name": "",
							"type": "uint256"
						}
					],
					"stateMutability": "view",
					"type": "function"
				},
				{
					"inputs": [],
					"name": "totalMaleVoters",
					"outputs": [
						{
							"internalType": "uint256",
							"name": "",
							"type": "uint256"
						}
					],
					"stateMutability": "view",
					"type": "function"
				},
				{
					"inputs": [],
					"name": "totalOtherVoters",
					"outputs": [
						{
							"internalType": "uint256",
							"name": "",
							"type": "uint256"
						}
					],
					"stateMutability": "view",
					"type": "function"
				},
				{
					"inputs": [],
					"name": "totalVoter",
					"outputs": [
						{
							"internalType": "uint256",
							"name": "",
							"type": "uint256"
						}
					],
					"stateMutability": "view",
					"type": "function"
				},
				{
					"inputs": [
						{
							"internalType": "string",
							"name": "_gender",
							"type": "string"
						}
					],
					"name": "updateCounter",
					"outputs": [],
					"stateMutability": "nonpayable",
					"type": "function"
				},
				{
					"inputs": [
						{
							"internalType": "address",
							"name": "_candidateId",
							"type": "address"
						}
					],
					"name": "vote",
					"outputs": [],
					"stateMutability": "payable",
					"type": "function"
				},
				{
					"inputs": [],
					"name": "voteCount",
					"outputs": [
						{
							"internalType": "uint256",
							"name": "",
							"type": "uint256"
						}
					],
					"stateMutability": "view",
					"type": "function"
				},
				{
					"inputs": [
						{
							"internalType": "uint256",
							"name": "",
							"type": "uint256"
						}
					],
					"name": "voterList",
					"outputs": [
						{
							"components": [
								{
									"internalType": "address",
									"name": "_id",
									"type": "address"
								},
								{
									"internalType": "string",
									"name": "fullName",
									"type": "string"
								},
								{
									"internalType": "uint256",
									"name": "citizenshipNumber",
									"type": "uint256"
								},
								{
									"internalType": "uint256",
									"name": "age",
									"type": "uint256"
								},
								{
									"internalType": "string",
									"name": "gender",
									"type": "string"
								},
								{
									"internalType": "string",
									"name": "dob",
									"type": "string"
								},
								{
									"internalType": "string",
									"name": "email",
									"type": "string"
								},
								{
									"internalType": "string",
									"name": "profile",
									"type": "string"
								},
								{
									"internalType": "string",
									"name": "province",
									"type": "string"
								},
								{
									"internalType": "string",
									"name": "district",
									"type": "string"
								},
								{
									"internalType": "string",
									"name": "municipality",
									"type": "string"
								},
								{
									"internalType": "string",
									"name": "ward",
									"type": "string"
								}
							],
							"internalType": "struct Structure.User",
							"name": "user",
							"type": "tuple"
						},
						{
							"internalType": "uint256",
							"name": "voteLimitCount",
							"type": "uint256"
						}
					],
					"stateMutability": "view",
					"type": "function"
				},
				{
					"inputs": [
						{
							"internalType": "uint256",
							"name": "",
							"type": "uint256"
						}
					],
					"name": "voterNames",
					"outputs": [
						{
							"internalType": "string",
							"name": "",
							"type": "string"
						}
					],
					"stateMutability": "view",
					"type": "function"
				},
				{
					"inputs": [
						{
							"internalType": "address",
							"name": "",
							"type": "address"
						}
					],
					"name": "voters",
					"outputs": [
						{
							"components": [
								{
									"internalType": "address",
									"name": "_id",
									"type": "address"
								},
								{
									"internalType": "string",
									"name": "fullName",
									"type": "string"
								},
								{
									"internalType": "uint256",
									"name": "citizenshipNumber",
									"type": "uint256"
								},
								{
									"internalType": "uint256",
									"name": "age",
									"type": "uint256"
								},
								{
									"internalType": "string",
									"name": "gender",
									"type": "string"
								},
								{
									"internalType": "string",
									"name": "dob",
									"type": "string"
								},
								{
									"internalType": "string",
									"name": "email",
									"type": "string"
								},
								{
									"internalType": "string",
									"name": "profile",
									"type": "string"
								},
								{
									"internalType": "string",
									"name": "province",
									"type": "string"
								},
								{
									"internalType": "string",
									"name": "district",
									"type": "string"
								},
								{
									"internalType": "string",
									"name": "municipality",
									"type": "string"
								},
								{
									"internalType": "string",
									"name": "ward",
									"type": "string"
								}
							],
							"internalType": "struct Structure.User",
							"name": "user",
							"type": "tuple"
						},
						{
							"internalType": "uint256",
							"name": "voteLimitCount",
							"type": "uint256"
						}
					],
					"stateMutability": "view",
					"type": "function"
				}
			],
			"devdoc": {
				"kind": "dev",
				"methods": {},
				"version": 1
			},
			"evm": {
				"assembly": "    /* \"Contract/Voter.sol\":83:2897  contract Voter is Candidate{... */\n  0x80\n  jumpi(tag_4, callvalue)\n  sub(shl(0x40, 0x01), 0x01)\n  0x60\n  dup3\n  add\n  dup2\n  dup2\n  gt\n  dup4\n  dup3\n  lt\n  or\n  tag_6\n  jumpi\n  0x40\n  mstore\n  tag_8\n  tag_1\n  jump\t// in\ntag_8:\n  0x04\n  swap1\n  dup2\n  dup2\n  mstore\n  0x20\n  swap1\n  shl(0xe0, 0x4d414c45)\n  dup3\n  dup3\n  add\n  mstore\n  dup5\n  mstore\n  tag_9\n  tag_1\n  jump\t// in\ntag_9:\n  0x06\n  dup2\n  mstore\n  shl(0xd0, 0x46454d414c45)\n  dup3\n  dup3\n  add\n  mstore\n    /* \"Contract/Constants.sol\":154:180  [\"MALE\",\"FEMALE\",\"OTHERS\"] */\n  dup2\n  dup6\n  add\n    /* \"Contract/Voter.sol\":83:2897  contract Voter is Candidate{... */\n  mstore\n  tag_10\n  tag_1\n  jump\t// in\ntag_10:\n  0x06\n  dup2\n  mstore\n  shl(0xd0, 0x4f5448455253)\n  dup3\n  dup3\n  add\n  mstore\n  0x40\n    /* \"Contract/Constants.sol\":154:180  [\"MALE\",\"FEMALE\",\"OTHERS\"] */\n  dup6\n  add\n    /* \"Contract/Voter.sol\":83:2897  contract Voter is Candidate{... */\n  mstore\n  0x00\n  swap3\n  dup4\n  sload\n    /* \"Contract/Constants.sol\":154:180  [\"MALE\",\"FEMALE\",\"OTHERS\"] */\n  swap5\n  0x03\n    /* \"Contract/Voter.sol\":83:2897  contract Voter is Candidate{... */\n  swap6\n  dup7\n  dup7\n  sstore\n  dup1\n  dup8\n  lt\n  tag_11\n  jumpi\ntag_12:\n  pop\n  dup5\n  dup1\n  mstore\n  dup3\n  dup6\n  keccak256\n  dup6\n  swap2\ntag_13:\n  dup8\n  dup4\n  lt\n  tag_14\n  jumpi\n  dup7\n  dup1\n  dup8\n  dup2\n  dup12\n  dup2\n    /* \"Contract/Utils.sol\":319:320  0 */\n  0x02\n    /* \"Contract/Voter.sol\":83:2897  contract Voter is Candidate{... */\n  sstore\n  sstore\n  sstore\n    /* \"Contract/Utils.sol\":446:456  msg.sender */\n  caller\n    /* \"Contract/Voter.sol\":83:2897  contract Voter is Candidate{... */\n  0x01\n  dup1\n  0xa0\n  shl\n  sub\n  not\n  sload(0x01)\n  and\n  or\n  0x01\n  sstore\n  dup1\n    /* \"Contract/Candidate.sol\":394:395  0 */\n  0x08\n    /* \"Contract/Voter.sol\":83:2897  contract Voter is Candidate{... */\n  sstore\n  dup1\n    /* \"Contract/Voter.sol\":337:338  0 */\n  0x0c\n    /* \"Contract/Voter.sol\":83:2897  contract Voter is Candidate{... */\n  sstore\n    /* \"Contract/Voter.sol\":368:369  0 */\n  0x0d\n    /* \"Contract/Voter.sol\":83:2897  contract Voter is Candidate{... */\n  sstore\n  mload(0x40)\n  dataSize(sub_0)\n  swap1\n  dup2\n  dataOffset(sub_0)\n  dup3\n  codecopy\n  return\ntag_14:\n  dup1\n  mload\n  dup1\n  mload\n  swap1\n  dup6\n  dup3\n  gt\n  tag_16\n  jumpi\n  swap1\n  dup7\n  swap2\n  tag_18\n  dup6\n  sload\n  tag_2\n  jump\t// in\ntag_18:\n  swap1\n  0x1f\n  swap2\n  dup3\n  dup2\n  gt\n  tag_19\n  jumpi\ntag_20:\n  pop\n  dup4\n  swap2\n  dup4\n  gt\n  0x01\n  eq\n  tag_21\n  jumpi\n  swap2\n  dup1\n  0x01\n  swap6\n  swap3\n  dup7\n  swap6\n  swap5\n  dup14\n  swap3\n  tag_23\n  jumpi\ntag_24:\n  pop\n  pop\n  not(0x00)\n  dup3\n  dup15\n  shl\n  shr\n  not\n  and\n  swap1\n  dup5\n  shl\n  or\n  dup6\n  sstore\ntag_25:\n  add\n  swap3\n  add\n  swap3\n  add\n  swap2\n  swap1\n  jump(tag_13)\ntag_23:\n  add\n  mload\n  swap1\n  pop\n  codesize\n  dup1\n  jump(tag_24)\ntag_21:\n  dup6\n  dup12\n  mstore\n  dup4\n  dup12\n  keccak256\n  swap2\n  swap1\n  not(0x1f)\n  dup5\n  and\n  dup13\ntag_26:\n  dup2\n  dup2\n  lt\n  tag_27\n  jumpi\n  pop\n  swap2\n  0x01\n  swap7\n  swap4\n  swap2\n  dup6\n  dup9\n  swap8\n  swap7\n  swap5\n  lt\n  tag_29\n  jumpi\ntag_30:\n  pop\n  pop\n  pop\n  dup4\n  shl\n  dup4\n  add\n  dup6\n  sstore\n  jump(tag_25)\ntag_29:\n  add\n  mload\n  not(0x00)\n  dup4\n  dup16\n  shl\n  0xf8\n  and\n  shr\n  not\n  and\n  swap1\n  sstore\n  codesize\n  dup1\n  dup1\n  jump(tag_30)\ntag_27:\n  dup3\n  dup5\n  add\n  mload\n  dup6\n  sstore\n  dup12\n  swap7\n  0x01\n  swap1\n  swap6\n  add\n  swap5\n  swap4\n  dup5\n  add\n  swap4\n  add\n  jump(tag_26)\ntag_19:\n  tag_31\n  swap1\n  dup8\n  dup14\n  mstore\n  dup6\n  dup14\n  keccak256\n  0x05\n  dup6\n  dup1\n  dup9\n  add\n  dup3\n  shr\n  dup4\n  add\n  swap4\n  dup10\n  dup10\n  lt\n  tag_32\n  jumpi\ntag_33:\n  add\n  swap1\n  shr\n  add\n  swap1\n  tag_3\n  jump\t// in\ntag_31:\n  codesize\n  jump(tag_20)\ntag_32:\n  swap4\n  pop\n  dup3\n  swap4\n  jump(tag_33)\ntag_16:\n  shl(0xe0, 0x4e487b71)\n  dup10\n  mstore\n  0x41\n  dup9\n  mstore\n  0x24\n  dup10\n  revert\ntag_11:\n  dup6\n  dup1\n  mstore\n  dup7\n  dup5\n  dup8\n  keccak256\n  swap2\n  dup3\n  add\n  swap2\n  add\ntag_34:\n  dup2\n  dup2\n  lt\n  tag_35\n  jumpi\n  pop\n  jump(tag_12)\ntag_35:\n  dup1\n  tag_37\n  0x01\n  swap3\n  sload\n  tag_2\n  jump\t// in\ntag_37:\n  dup1\n  tag_38\n  jumpi\ntag_39:\n  pop\n  add\n  jump(tag_34)\ntag_38:\n  0x1f\n  swap1\n  dup2\n  dup2\n  gt\n  dup5\n  eq\n  tag_40\n  jumpi\n  pop\n  pop\n  dup8\n  dup2\n  sstore\ntag_42:\n  codesize\n  jump(tag_39)\ntag_40:\n  dup4\n  tag_43\n  swap3\n  dup5\n  dup13\n  mstore\n  dup10\n  dup13\n  keccak256\n  swap3\n  add\n  0x05\n  shr\n  dup3\n  add\n  swap2\n  add\n  tag_3\n  jump\t// in\ntag_43:\n  dup8\n  dup7\n  dup2\n  keccak256\n  dup2\n  dup4\n  sstore\n  sstore\n  jump(tag_42)\ntag_6:\n  mstore(0x00, shl(0xe0, 0x4e487b71))\n  mstore(0x04, 0x41)\n  revert(0x00, 0x24)\ntag_4:\n  0x00\n  dup1\n  revert\ntag_1:\n  0x40\n  dup1\n  mload\n  swap2\n  swap1\n  dup3\n  add\n  sub(shl(0x40, 0x01), 0x01)\n  dup2\n  gt\n  dup4\n  dup3\n  lt\n  or\n  tag_6\n  jumpi\n  0x40\n  mstore\n  jump\t// out\ntag_2:\n  swap1\n  0x01\n  dup3\n  dup2\n  shr\n  swap3\n  and\n  dup1\n  iszero\n  tag_46\n  jumpi\ntag_47:\n  0x20\n  dup4\n  lt\n  eq\n  tag_48\n  jumpi\n  jump\t// out\ntag_48:\n  mstore(0x00, shl(0xe0, 0x4e487b71))\n  mstore(0x04, 0x22)\n  revert(0x00, 0x24)\ntag_46:\n  swap2\n  0x7f\n  and\n  swap2\n  jump(tag_47)\ntag_3:\n  dup2\n  dup2\n  lt\n  tag_51\n  jumpi\n  pop\n  pop\n  jump\t// out\ntag_51:\n  0x00\n  dup2\n  sstore\n  0x01\n  add\n  jump(tag_3)\nstop\n\nsub_0: assembly {\n        /* \"Contract/Voter.sol\":83:2897  contract Voter is Candidate{... */\n      0x80\n      0x40\n      dup2\n      dup2\n      mstore\n      0x04\n      swap2\n      dup3\n      calldatasize\n      lt\n      iszero\n      tag_30\n      jumpi\n      0x00\n      dup1\n      revert\n    tag_30:\n      0x00\n      swap3\n      dup4\n      calldataload\n      0xe0\n      shr\n      swap2\n      dup3\n      0x029c21bd\n      eq\n      tag_32\n      jumpi\n      pop\n      dup2\n      0x0983f185\n      eq\n      tag_34\n      jumpi\n      dup2\n      0x1812dab4\n      eq\n      tag_36\n      jumpi\n      dup2\n      0x24d7806c\n      eq\n      tag_38\n      jumpi\n      dup2\n      0x2d23c735\n      eq\n      tag_40\n      jumpi\n      dup2\n      0x2e6997fe\n      eq\n      tag_42\n      jumpi\n      dup2\n      0x35bbe70e\n      eq\n      tag_44\n      jumpi\n      dup2\n      0x50e2e8af\n      eq\n      tag_46\n      jumpi\n      dup2\n      0x53ac5dc3\n      eq\n      tag_48\n      jumpi\n      dup2\n      0x6332abc9\n      eq\n      tag_50\n      jumpi\n      dup2\n      0x6394a8fa\n      eq\n      tag_52\n      jumpi\n      dup2\n      0x6dd7d8ea\n      eq\n      tag_54\n      jumpi\n      dup2\n      0x7c054c54\n      eq\n      tag_56\n      jumpi\n      dup2\n      0x8287e42f\n      eq\n      tag_58\n      jumpi\n      dup2\n      0x8ab66a90\n      eq\n      tag_60\n      jumpi\n      dup2\n      0x9eda74cf\n      eq\n      tag_62\n      jumpi\n      dup2\n      0xa3ec138d\n      eq\n      tag_64\n      jumpi\n      dup2\n      0xa96278ae\n      eq\n      tag_66\n      jumpi\n      dup2\n      0xb0a4ec42\n      eq\n      tag_68\n      jumpi\n      dup2\n      0xb13c744b\n      eq\n      tag_70\n      jumpi\n      dup2\n      0xba71bef0\n      eq\n      tag_72\n      jumpi\n      pop\n      dup1\n      0xc6384071\n      eq\n      tag_74\n      jumpi\n      0xfc6f9468\n      eq\n      tag_76\n      jumpi\n      0x00\n      dup1\n      revert\n    tag_76:\n      jumpi(tag_80, callvalue)\n      dup2\n      add(calldatasize, not(0x03))\n      slt\n      tag_80\n      jumpi\n      sload(0x01)\n      swap1\n      mload\n      sub(shl(0xa0, 0x01), 0x01)\n      swap1\n      swap2\n      and\n      dup2\n      mstore\n      0x20\n      swap1\n      return\n    tag_80:\n      pop\n      dup1\n      revert\n    tag_74:\n      pop\n      jumpi(tag_80, callvalue)\n      dup2\n      add(calldatasize, not(0x03))\n      slt\n      tag_80\n      jumpi\n      0x20\n      swap1\n        /* \"Contract/Voter.sol\":344:369  uint public voteCount = 0 */\n      0x0d\n        /* \"Contract/Voter.sol\":83:2897  contract Voter is Candidate{... */\n      sload\n      swap1\n      mload\n      swap1\n      dup2\n      mstore\n      return\n    tag_72:\n      swap1\n      pop\n      jumpi(tag_90, callvalue)\n      jumpi(tag_90, slt(add(not(0x03), calldatasize), 0x20))\n      calldataload\n      sub(shl(0xa0, 0x01), 0x01)\n      dup2\n      and\n      swap1\n      dup2\n      swap1\n      sub\n      tag_90\n      jumpi\n      dup2\n      dup4\n      tag_92\n      swap3\n      tag_93\n      swap6\n      dup4\n      dup1\n      mload\n      tag_94\n      dup2\n      tag_3\n      jump\t// in\n    tag_94:\n      tag_95\n      tag_23\n      jump\t// in\n    tag_95:\n      dup2\n      mstore\n      0x60\n      0x20\n      dup3\n      add\n      mstore\n      add\n      mstore\n      dup2\n      mstore\n        /* \"Contract/Voter.sol\":2877:2883  voters */\n      0x09\n        /* \"Contract/Voter.sol\":83:2897  contract Voter is Candidate{... */\n      0x20\n      mstore\n      keccak256\n      tag_28\n      jump\t// in\n    tag_92:\n      swap1\n      mload\n      swap2\n      dup3\n      swap2\n      0x20\n      dup4\n      mstore\n      0x20\n      dup4\n      add\n      swap1\n      tag_10\n      jump\t// in\n    tag_93:\n      sub\n      swap1\n      return\n    tag_90:\n      dup3\n      dup1\n      revert\n    tag_70:\n      dup4\n      swap2\n      pop\n      jumpi(tag_80, callvalue)\n      jumpi(tag_80, slt(add(not(0x03), calldatasize), 0x20))\n      dup1\n      calldataload\n      swap2\n        /* \"Contract/Candidate.sol\":264:296  Candidate[] public candidateList */\n      0x06\n        /* \"Contract/Voter.sol\":83:2897  contract Voter is Candidate{... */\n      sload\n        /* \"Contract/Candidate.sol\":264:296  Candidate[] public candidateList */\n      dup4\n      lt\n      iszero\n      tag_100\n      jumpi\n      0x06\n        /* \"Contract/Voter.sol\":83:2897  contract Voter is Candidate{... */\n      swap1\n      mstore\n      shl\n      swap1\n      tag_93\n        /* \"Contract/Candidate.sol\":264:296  Candidate[] public candidateList */\n      tag_103\n        /* \"Contract/Voter.sol\":83:2897  contract Voter is Candidate{... */\n      dup4\n      0xf652222313e28459528d920b65115c16c04f3efc82aaedc97be59f3f377c0d3f\n      add\n        /* \"Contract/Candidate.sol\":264:296  Candidate[] public candidateList */\n      tag_14\n      jump\t// in\n    tag_103:\n        /* \"Contract/Voter.sol\":83:2897  contract Voter is Candidate{... */\n      swap2\n      dup1\n      mload\n        /* \"Contract/Candidate.sol\":264:296  Candidate[] public candidateList */\n      swap4\n        /* \"Contract/Voter.sol\":83:2897  contract Voter is Candidate{... */\n      tag_104\n        /* \"Contract/Candidate.sol\":264:296  Candidate[] public candidateList */\n      dup6\n        /* \"Contract/Voter.sol\":83:2897  contract Voter is Candidate{... */\n      tag_105\n        /* \"Contract/Candidate.sol\":264:296  Candidate[] public candidateList */\n      dup2\n      0xf652222313e28459528d920b65115c16c04f3efc82aaedc97be59f3f377c0d4b\n      dup6\n      add\n        /* \"Contract/Voter.sol\":83:2897  contract Voter is Candidate{... */\n      tag_13\n      jump\t// in\n    tag_105:\n      sub\n      dup7\n      tag_4\n      jump\t// in\n    tag_104:\n        /* \"Contract/Candidate.sol\":264:296  Candidate[] public candidateList */\n      0xf652222313e28459528d920b65115c16c04f3efc82aaedc97be59f3f377c0d4d\n        /* \"Contract/Voter.sol\":83:2897  contract Voter is Candidate{... */\n      dup3\n      mload\n        /* \"Contract/Candidate.sol\":264:296  Candidate[] public candidateList */\n      swap2\n        /* \"Contract/Voter.sol\":83:2897  contract Voter is Candidate{... */\n      tag_106\n        /* \"Contract/Candidate.sol\":264:296  Candidate[] public candidateList */\n      dup4\n        /* \"Contract/Voter.sol\":83:2897  contract Voter is Candidate{... */\n      tag_107\n        /* \"Contract/Candidate.sol\":264:296  Candidate[] public candidateList */\n      dup2\n      0xf652222313e28459528d920b65115c16c04f3efc82aaedc97be59f3f377c0d4c\n      dup6\n      add\n        /* \"Contract/Voter.sol\":83:2897  contract Voter is Candidate{... */\n      tag_13\n      jump\t// in\n    tag_107:\n      sub\n      dup5\n      tag_4\n      jump\t// in\n    tag_106:\n        /* \"Contract/Candidate.sol\":264:296  Candidate[] public candidateList */\n      add\n        /* \"Contract/Voter.sol\":83:2897  contract Voter is Candidate{... */\n      sload\n      swap2\n      mload\n      swap5\n      dup6\n      swap5\n      dup6\n      tag_15\n      jump\t// in\n        /* \"Contract/Candidate.sol\":264:296  Candidate[] public candidateList */\n    tag_100:\n      dup1\n      revert\n        /* \"Contract/Voter.sol\":83:2897  contract Voter is Candidate{... */\n    tag_68:\n      dup4\n      swap1\n      jumpi(tag_80, callvalue)\n      jumpi(tag_80, slt(add(not(0x03), calldatasize), 0x20))\n      dup1\n      calldataload\n      0xffffffffffffffff\n      dup2\n      gt\n      tag_90\n      jumpi\n      tag_114\n      swap2\n      tag_115\n      swap2\n      calldatasize\n      swap2\n      add\n      tag_5\n      jump\t// in\n    tag_115:\n      tag_24\n      jump\t// in\n    tag_114:\n      dup1\n      return\n    tag_66:\n      swap1\n      pop\n      jumpi(tag_90, callvalue)\n      jumpi(tag_90, slt(add(not(0x03), calldatasize), 0x20))\n      calldataload\n        /* \"Contract/Voter.sol\":253:279  string[] public voterNames */\n      0x0b\n        /* \"Contract/Voter.sol\":83:2897  contract Voter is Candidate{... */\n      sload\n        /* \"Contract/Voter.sol\":253:279  string[] public voterNames */\n      dup2\n      lt\n      iszero\n      tag_90\n      jumpi\n        /* \"Contract/Voter.sol\":83:2897  contract Voter is Candidate{... */\n      swap1\n      tag_122\n      tag_123\n      swap3\n        /* \"Contract/Voter.sol\":253:279  string[] public voterNames */\n      0x0b\n        /* \"Contract/Voter.sol\":83:2897  contract Voter is Candidate{... */\n      tag_93\n      swap6\n      mstore\n      dup3\n      mload\n      swap4\n      dup5\n      dup1\n      swap3\n      0x0175b7a638427703f0dbe7bb9bbf987a2551717b34e79f33b5b1008d1fa01db9\n      add\n      tag_13\n      jump\t// in\n    tag_123:\n      sub\n      dup4\n      tag_4\n      jump\t// in\n    tag_122:\n      mload\n      swap2\n      dup3\n      swap2\n      0x20\n      dup4\n      mstore\n      0x20\n      dup4\n      add\n      swap1\n      tag_6\n      jump\t// in\n    tag_64:\n      swap1\n      pop\n      jumpi(tag_90, callvalue)\n      jumpi(tag_90, slt(add(not(0x03), calldatasize), 0x20))\n      calldataload\n      sub(shl(0xa0, 0x01), 0x01)\n      dup2\n      and\n      swap1\n      dup2\n      swap1\n      sub\n      tag_90\n      jumpi\n      swap2\n      dup2\n      swap3\n      dup2\n      mstore\n        /* \"Contract/Voter.sol\":162:202  mapping (address => Voter) public voters */\n      0x09\n        /* \"Contract/Voter.sol\":83:2897  contract Voter is Candidate{... */\n      0x20\n      mstore\n      keccak256\n        /* \"Contract/Voter.sol\":162:202  mapping (address => Voter) public voters */\n      swap1\n      0x0d\n      tag_131\n      dup4\n      tag_14\n      jump\t// in\n    tag_131:\n      swap3\n      add\n        /* \"Contract/Voter.sol\":83:2897  contract Voter is Candidate{... */\n      sload\n      tag_132\n      dup3\n      mload\n      swap4\n      dup4\n      dup6\n      swap5\n      dup6\n      mstore\n      dup5\n      add\n      swap1\n      tag_7\n      jump\t// in\n    tag_132:\n      swap1\n      0x20\n      dup4\n      add\n      mstore\n      sub\n      swap1\n      return\n    tag_62:\n      dup3\n      dup5\n      0x0160\n      swap3\n      dup4\n      add(calldatasize, not(0x03))\n      slt\n      tag_80\n      jumpi\n      0xffffffffffffffff\n      swap4\n      dup2\n      calldataload\n      dup6\n      dup2\n      gt\n      tag_135\n      jumpi\n      tag_137\n      swap1\n      calldatasize\n      swap1\n      dup5\n      add\n      tag_5\n      jump\t// in\n    tag_137:\n      swap1\n      calldataload(0x64)\n      dup7\n      dup2\n      gt\n      tag_138\n      jumpi\n      tag_140\n      swap1\n      calldatasize\n      swap1\n      dup6\n      add\n      tag_5\n      jump\t// in\n    tag_140:\n      swap1\n      calldataload(0x84)\n      dup8\n      dup2\n      gt\n      tag_141\n      jumpi\n      tag_143\n      swap1\n      calldatasize\n      swap1\n      dup7\n      add\n      tag_5\n      jump\t// in\n    tag_143:\n      calldataload(0xa4)\n      dup9\n      dup2\n      gt\n      tag_144\n      jumpi\n      tag_146\n      swap1\n      calldatasize\n      swap1\n      dup8\n      add\n      tag_5\n      jump\t// in\n    tag_146:\n      calldataload(0xc4)\n      dup10\n      dup2\n      gt\n      tag_147\n      jumpi\n      tag_149\n      swap1\n      calldatasize\n      swap1\n      dup9\n      add\n      tag_5\n      jump\t// in\n    tag_149:\n      calldataload(0xe4)\n      dup11\n      dup2\n      gt\n      tag_150\n      jumpi\n      tag_152\n      swap1\n      calldatasize\n      swap1\n      dup10\n      add\n      tag_5\n      jump\t// in\n    tag_152:\n      swap2\n      calldataload(0x0104)\n      dup12\n      dup2\n      gt\n      tag_153\n      jumpi\n      tag_155\n      swap1\n      calldatasize\n      swap1\n      dup11\n      add\n      tag_5\n      jump\t// in\n    tag_155:\n      swap4\n      calldataload(0x0124)\n      dup13\n      dup2\n      gt\n      tag_159\n      jumpi\n      tag_158\n      swap1\n      calldatasize\n      swap1\n      dup12\n      add\n      tag_5\n      jump\t// in\n    tag_158:\n      swap7\n      calldataload(0x0144)\n      swap13\n      dup14\n      gt\n      tag_159\n      jumpi\n      dup11\n        /* \"Contract/Voter.sol\":2103:2137  voters[_id].user.citizenshipNumber */\n      0x02\n        /* \"Contract/Voter.sol\":83:2897  contract Voter is Candidate{... */\n      dup14\n      swap15\n      swap14\n      tag_161\n        /* \"Contract/Voter.sol\":2103:2109  voters */\n      0x09\n        /* \"Contract/Voter.sol\":83:2897  contract Voter is Candidate{... */\n      swap15\n      swap16\n      dup15\n      swap1\n      calldatasize\n      swap2\n      add\n      tag_5\n      jump\t// in\n    tag_161:\n        /* \"Contract/Voter.sol\":2038:2048  msg.sender */\n      swap3\n      caller\n        /* \"Contract/Voter.sol\":83:2897  contract Voter is Candidate{... */\n      dup2\n      mstore\n      0x20\n      swap15\n      dup16\n      mstore\n      keccak256\n        /* \"Contract/Voter.sol\":2103:2137  voters[_id].user.citizenshipNumber */\n      add\n        /* \"Contract/Voter.sol\":83:2897  contract Voter is Candidate{... */\n      sload\n        /* \"Contract/Voter.sol\":2100:2204  if(voters[_id].user.citizenshipNumber != 0){... */\n      tag_162\n      jumpi\n        /* \"Contract/Voter.sol\":2236:2243  _gender */\n      swap2\n      dup12\n      swap11\n      swap10\n      swap8\n      swap6\n      swap4\n      swap2\n      dup4\n      dup16\n      swap11\n      swap9\n      swap7\n      swap5\n      tag_164\n      swap1\n      tag_24\n      jump\t// in\n    tag_164:\n        /* \"Contract/Voter.sol\":83:2897  contract Voter is Candidate{... */\n      dup10\n      dup12\n      mload\n      swap15\n      dup16\n      tag_165\n      dup2\n      tag_1\n      jump\t// in\n    tag_165:\n        /* \"Contract/Voter.sol\":2038:2048  msg.sender */\n      caller\n        /* \"Contract/Voter.sol\":83:2897  contract Voter is Candidate{... */\n      dup2\n      mstore\n        /* \"Contract/Voter.sol\":2340:2455  User(_id, _name, _citizenshipNo, _age, _gender, _dob, _email, _profile, _province, _district, _municipality, _ward) */\n      add\n        /* \"Contract/Voter.sol\":83:2897  contract Voter is Candidate{... */\n      mstore\n      dup14\n      0x24\n      swap12\n      dup13\n      calldataload\n        /* \"Contract/Voter.sol\":2340:2455  User(_id, _name, _citizenshipNo, _age, _gender, _dob, _email, _profile, _province, _district, _municipality, _ward) */\n      swap2\n      add\n        /* \"Contract/Voter.sol\":83:2897  contract Voter is Candidate{... */\n      mstore\n      dup14\n      calldataload(0x44)\n      0x60\n        /* \"Contract/Voter.sol\":2340:2455  User(_id, _name, _citizenshipNo, _age, _gender, _dob, _email, _profile, _province, _district, _municipality, _ward) */\n      dup3\n      add\n        /* \"Contract/Voter.sol\":83:2897  contract Voter is Candidate{... */\n      mstore\n      0x80\n        /* \"Contract/Voter.sol\":2340:2455  User(_id, _name, _citizenshipNo, _age, _gender, _dob, _email, _profile, _province, _district, _municipality, _ward) */\n      add\n        /* \"Contract/Voter.sol\":83:2897  contract Voter is Candidate{... */\n      mstore\n      0xa0\n        /* \"Contract/Voter.sol\":2340:2455  User(_id, _name, _citizenshipNo, _age, _gender, _dob, _email, _profile, _province, _district, _municipality, _ward) */\n      dup14\n      add\n        /* \"Contract/Voter.sol\":83:2897  contract Voter is Candidate{... */\n      mstore\n      0xc0\n        /* \"Contract/Voter.sol\":2340:2455  User(_id, _name, _citizenshipNo, _age, _gender, _dob, _email, _profile, _province, _district, _municipality, _ward) */\n      dup13\n      add\n        /* \"Contract/Voter.sol\":83:2897  contract Voter is Candidate{... */\n      mstore\n      0xe0\n        /* \"Contract/Voter.sol\":2340:2455  User(_id, _name, _citizenshipNo, _age, _gender, _dob, _email, _profile, _province, _district, _municipality, _ward) */\n      dup12\n      add\n        /* \"Contract/Voter.sol\":83:2897  contract Voter is Candidate{... */\n      mstore\n      0x0100\n        /* \"Contract/Voter.sol\":2340:2455  User(_id, _name, _citizenshipNo, _age, _gender, _dob, _email, _profile, _province, _district, _municipality, _ward) */\n      dup11\n      add\n        /* \"Contract/Voter.sol\":83:2897  contract Voter is Candidate{... */\n      mstore\n      0x0120\n        /* \"Contract/Voter.sol\":2340:2455  User(_id, _name, _citizenshipNo, _age, _gender, _dob, _email, _profile, _province, _district, _municipality, _ward) */\n      dup10\n      add\n        /* \"Contract/Voter.sol\":83:2897  contract Voter is Candidate{... */\n      mstore\n      0x0140\n        /* \"Contract/Voter.sol\":2340:2455  User(_id, _name, _citizenshipNo, _age, _gender, _dob, _email, _profile, _province, _district, _municipality, _ward) */\n      dup9\n      add\n        /* \"Contract/Voter.sol\":83:2897  contract Voter is Candidate{... */\n      mstore\n        /* \"Contract/Voter.sol\":2340:2455  User(_id, _name, _citizenshipNo, _age, _gender, _dob, _email, _profile, _province, _district, _municipality, _ward) */\n      dup7\n      add\n        /* \"Contract/Voter.sol\":83:2897  contract Voter is Candidate{... */\n      mstore\n      dup7\n      mload\n      swap5\n      tag_166\n      dup7\n      tag_3\n      jump\t// in\n    tag_166:\n      dup6\n      mstore\n        /* \"Contract/Voter.sol\":2321:2501  Voter(... */\n      dup4\n      dup6\n      add\n        /* \"Contract/Voter.sol\":83:2897  contract Voter is Candidate{... */\n      0x60\n      swap1\n      mstore\n        /* \"Contract/Voter.sol\":2321:2501  Voter(... */\n      dup6\n      dup8\n      dup7\n      add\n        /* \"Contract/Voter.sol\":83:2897  contract Voter is Candidate{... */\n      mstore\n        /* \"Contract/Voter.sol\":2038:2048  msg.sender */\n      caller\n        /* \"Contract/Voter.sol\":83:2897  contract Voter is Candidate{... */\n      dup7\n      mstore\n        /* \"Contract/Voter.sol\":2103:2109  voters */\n      0x09\n        /* \"Contract/Voter.sol\":83:2897  contract Voter is Candidate{... */\n      dup5\n      mstore\n      dup5\n      dup8\n      dup8\n      keccak256\n      swap1\n      tag_167\n      swap2\n      tag_27\n      jump\t// in\n    tag_167:\n        /* \"Contract/Voter.sol\":2549:2559  voterNames */\n      0x0b\n        /* \"Contract/Voter.sol\":83:2897  contract Voter is Candidate{... */\n      sload\n      swap1\n      shl(0x40, 0x01)\n      swap2\n      dup3\n      dup2\n      lt\n      iszero\n      tag_168\n      jumpi\n      0x01\n      dup2\n      add\n      dup1\n        /* \"Contract/Voter.sol\":2549:2559  voterNames */\n      0x0b\n        /* \"Contract/Voter.sol\":83:2897  contract Voter is Candidate{... */\n      sstore\n      dup2\n      lt\n      iszero\n      tag_170\n      jumpi\n      swap1\n      tag_172\n      swap2\n        /* \"Contract/Voter.sol\":2549:2559  voterNames */\n      0x0b\n        /* \"Contract/Voter.sol\":83:2897  contract Voter is Candidate{... */\n      dup10\n      mstore\n      0x0175b7a638427703f0dbe7bb9bbf987a2551717b34e79f33b5b1008d1fa01db9\n      add\n      tag_18\n      jump\t// in\n    tag_172:\n        /* \"Contract/Voter.sol\":2581:2590  voterList */\n      0x0a\n        /* \"Contract/Voter.sol\":83:2897  contract Voter is Candidate{... */\n      sload\n      swap1\n      dup2\n      lt\n      iszero\n      tag_173\n      jumpi\n      dup1\n      0x01\n      tag_175\n      swap3\n      add\n        /* \"Contract/Voter.sol\":2581:2590  voterList */\n      0x0a\n        /* \"Contract/Voter.sol\":83:2897  contract Voter is Candidate{... */\n      sstore\n      tag_11\n      jump\t// in\n    tag_175:\n      tag_176\n      jumpi\n      dup5\n      tag_178\n      swap2\n      tag_27\n      jump\t// in\n    tag_178:\n        /* \"Contract/Voter.sol\":2625:2635  totalVoter */\n      0x0c\n        /* \"Contract/Voter.sol\":83:2897  contract Voter is Candidate{... */\n      sload\n      swap2\n      0x01\n      dup4\n      add\n      dup1\n      swap4\n      gt\n      tag_179\n      jumpi\n      pop\n      pop\n        /* \"Contract/Voter.sol\":2658:2677  VoterCreated(voter) */\n      0xf59a1b8573db02cf501c11c9d7d88b5365a59bdf0555cfd387db21cfcaccf4da\n        /* \"Contract/Voter.sol\":83:2897  contract Voter is Candidate{... */\n      swap4\n      swap5\n      tag_181\n      swap2\n        /* \"Contract/Voter.sol\":2625:2635  totalVoter */\n      0x0c\n        /* \"Contract/Voter.sol\":83:2897  contract Voter is Candidate{... */\n      sstore\n      mload\n      swap3\n      dup3\n      dup5\n      swap4\n      dup5\n      mstore\n      dup4\n      add\n      swap1\n      tag_10\n      jump\t// in\n    tag_181:\n        /* \"Contract/Voter.sol\":2658:2677  VoterCreated(voter) */\n      sub\n      swap1\n      log1\n        /* \"Contract/Voter.sol\":83:2897  contract Voter is Candidate{... */\n      dup1\n      return\n    tag_179:\n      shl(0xe0, 0x4e487b71)\n      dup7\n      mstore\n      0x11\n      swap1\n      mstore\n      dup5\n      revert\n    tag_176:\n      pop\n      shl(0xe0, 0x4e487b71)\n      dup6\n      mstore\n      dup5\n      dup3\n      mstore\n      dup5\n      revert\n    tag_173:\n      pop\n      shl(0xe0, 0x4e487b71)\n      dup6\n      mstore\n      0x41\n      dup3\n      mstore\n      dup5\n      revert\n    tag_170:\n      shl(0xe0, 0x4e487b71)\n      dup9\n      mstore\n      0x32\n      dup6\n      mstore\n      dup4\n      dup9\n      revert\n    tag_168:\n      shl(0xe0, 0x4e487b71)\n      dup9\n      mstore\n      0x41\n      dup6\n      mstore\n      dup4\n      dup9\n      revert\n        /* \"Contract/Voter.sol\":2100:2204  if(voters[_id].user.citizenshipNumber != 0){... */\n    tag_162:\n      pop\n        /* \"Contract/Voter.sol\":83:2897  contract Voter is Candidate{... */\n      dup13\n      mload\n      shl(0xe5, 0x461bcd)\n        /* \"Contract/Voter.sol\":2157:2193  revert(\"Voter already registered !\") */\n      dup2\n      mstore\n      dup1\n      dup12\n      add\n        /* \"Contract/Voter.sol\":83:2897  contract Voter is Candidate{... */\n      dup13\n      swap1\n      mstore\n      0x1a\n      0x24\n      dup3\n      add\n      mstore\n      0x566f74657220616c726561647920726567697374657265642021000000000000\n      0x44\n      dup3\n      add\n      mstore\n      0x64\n      swap1\n        /* \"Contract/Voter.sol\":2157:2193  revert(\"Voter already registered !\") */\n      revert\n        /* \"Contract/Voter.sol\":83:2897  contract Voter is Candidate{... */\n    tag_159:\n      dup11\n      dup1\n      revert\n    tag_153:\n      dup10\n      dup1\n      revert\n    tag_150:\n      dup9\n      dup1\n      revert\n    tag_147:\n      dup8\n      dup1\n      revert\n    tag_144:\n      dup7\n      dup1\n      revert\n    tag_141:\n      dup6\n      dup1\n      revert\n    tag_138:\n      dup5\n      dup1\n      revert\n    tag_135:\n      dup4\n      dup1\n      revert\n    tag_60:\n      swap1\n      pop\n      jumpi(tag_90, callvalue)\n      jumpi(tag_90, slt(add(not(0x03), calldatasize), 0x20))\n      calldataload\n      sub(shl(0xa0, 0x01), 0x01)\n      dup2\n      and\n      swap1\n      dup2\n      swap1\n      sub\n      tag_90\n      jumpi\n      swap2\n      dup2\n      swap3\n      dup2\n      mstore\n        /* \"Contract/Candidate.sol\":195:243  mapping (address => Candidate) public candidates */\n      0x05\n        /* \"Contract/Voter.sol\":83:2897  contract Voter is Candidate{... */\n      0x20\n      mstore\n      keccak256\n        /* \"Contract/Candidate.sol\":195:243  mapping (address => Candidate) public candidates */\n      swap1\n        /* \"Contract/Voter.sol\":83:2897  contract Voter is Candidate{... */\n      tag_93\n        /* \"Contract/Candidate.sol\":195:243  mapping (address => Candidate) public candidates */\n      tag_189\n      dup4\n      tag_14\n      jump\t// in\n    tag_189:\n        /* \"Contract/Voter.sol\":83:2897  contract Voter is Candidate{... */\n      swap2\n      dup1\n      mload\n        /* \"Contract/Candidate.sol\":195:243  mapping (address => Candidate) public candidates */\n      swap4\n        /* \"Contract/Voter.sol\":83:2897  contract Voter is Candidate{... */\n      tag_190\n        /* \"Contract/Candidate.sol\":195:243  mapping (address => Candidate) public candidates */\n      dup6\n        /* \"Contract/Voter.sol\":83:2897  contract Voter is Candidate{... */\n      tag_105\n        /* \"Contract/Candidate.sol\":195:243  mapping (address => Candidate) public candidates */\n      dup2\n      0x0c\n      dup6\n      add\n        /* \"Contract/Voter.sol\":83:2897  contract Voter is Candidate{... */\n      tag_13\n      jump\t// in\n    tag_190:\n        /* \"Contract/Candidate.sol\":195:243  mapping (address => Candidate) public candidates */\n      0x0e\n        /* \"Contract/Voter.sol\":83:2897  contract Voter is Candidate{... */\n      dup3\n      mload\n        /* \"Contract/Candidate.sol\":195:243  mapping (address => Candidate) public candidates */\n      swap2\n        /* \"Contract/Voter.sol\":83:2897  contract Voter is Candidate{... */\n      tag_106\n        /* \"Contract/Candidate.sol\":195:243  mapping (address => Candidate) public candidates */\n      dup4\n        /* \"Contract/Voter.sol\":83:2897  contract Voter is Candidate{... */\n      tag_107\n        /* \"Contract/Candidate.sol\":195:243  mapping (address => Candidate) public candidates */\n      dup2\n      0x0d\n      dup6\n      add\n        /* \"Contract/Voter.sol\":83:2897  contract Voter is Candidate{... */\n      tag_13\n      jump\t// in\n    tag_58:\n      swap1\n      pop\n      jumpi(tag_90, callvalue)\n      jumpi(tag_90, slt(add(not(0x03), calldatasize), 0x20))\n      calldataload\n        /* \"Contract/Candidate.sol\":302:332  string[] public candidateNames */\n      0x07\n        /* \"Contract/Voter.sol\":83:2897  contract Voter is Candidate{... */\n      sload\n        /* \"Contract/Candidate.sol\":302:332  string[] public candidateNames */\n      dup2\n      lt\n      iszero\n      tag_90\n      jumpi\n        /* \"Contract/Voter.sol\":83:2897  contract Voter is Candidate{... */\n      swap1\n      tag_122\n      tag_123\n      swap3\n        /* \"Contract/Candidate.sol\":302:332  string[] public candidateNames */\n      0x07\n        /* \"Contract/Voter.sol\":83:2897  contract Voter is Candidate{... */\n      tag_93\n      swap6\n      mstore\n      dup3\n      mload\n      swap4\n      dup5\n      dup1\n      swap3\n      0xa66cc928b5edb82af9bd49922954155ab7b0942694bea4ce44661d9a8736c688\n      add\n      tag_13\n      jump\t// in\n    tag_56:\n      pop\n      pop\n      jumpi(tag_80, callvalue)\n      dup2\n      add(calldatasize, not(0x03))\n      slt\n      tag_80\n      jumpi\n      0x20\n      swap1\n      sload(0x03)\n      swap1\n      mload\n      swap1\n      dup2\n      mstore\n      return\n    tag_54:\n      swap2\n      0x20\n      swap2\n      pop\n      add(not(0x03), calldatasize)\n      dup3\n      sgt\n      tag_135\n      jumpi\n      sub(shl(0xa0, 0x01), 0x01)\n      swap3\n      dup1\n      calldataload\n      swap1\n      dup5\n      dup3\n      and\n      dup1\n      dup4\n      sub\n      tag_144\n      jumpi\n      0x01\n      swap2\n      dup7\n      dup4\n      sload\n      and\n        /* \"Contract/Voter.sol\":582:592  msg.sender */\n      caller\n        /* \"Contract/Voter.sol\":649:673  _voterId == adminAddress */\n      eq\n        /* \"Contract/Voter.sol\":646:741  if(_voterId == adminAddress){... */\n      tag_211\n      jumpi\n        /* \"Contract/Voter.sol\":582:592  msg.sender */\n      caller\n        /* \"Contract/Voter.sol\":83:2897  contract Voter is Candidate{... */\n      dup9\n      mstore\n        /* \"Contract/Voter.sol\":789:795  voters */\n      0x09\n        /* \"Contract/Voter.sol\":83:2897  contract Voter is Candidate{... */\n      dup7\n      mstore\n        /* \"Contract/Voter.sol\":789:820  voters[_voterId].voteLimitCount */\n      0x0d\n        /* \"Contract/Voter.sol\":83:2897  contract Voter is Candidate{... */\n      swap2\n      0x03\n      dup4\n      dup8\n      dup12\n      keccak256\n        /* \"Contract/Voter.sol\":789:820  voters[_voterId].voteLimitCount */\n      add\n        /* \"Contract/Voter.sol\":83:2897  contract Voter is Candidate{... */\n      sload\n        /* \"Contract/Voter.sol\":789:824  voters[_voterId].voteLimitCount > 3 */\n      gt\n        /* \"Contract/Voter.sol\":786:897  if(voters[_voterId].voteLimitCount > 3){... */\n      tag_213\n      jumpi\n        /* \"Contract/Voter.sol\":83:2897  contract Voter is Candidate{... */\n      swap1\n      dup2\n      dup7\n      swap3\n      dup11\n      mstore\n        /* \"Contract/Voter.sol\":907:917  candidates */\n      0x05\n        /* \"Contract/Voter.sol\":83:2897  contract Voter is Candidate{... */\n      dup9\n      mstore\n        /* \"Contract/Voter.sol\":907:947  candidates[_candidateId].votedVoterLists */\n      0x0f\n        /* \"Contract/Voter.sol\":582:592  msg.sender */\n      swap6\n        /* \"Contract/Voter.sol\":907:962  candidates[_candidateId].votedVoterLists.push(_voterId) */\n      tag_215\n        /* \"Contract/Voter.sol\":582:592  msg.sender */\n      dup12\n      dup9\n      dup7\n      caller\n        /* \"Contract/Voter.sol\":83:2897  contract Voter is Candidate{... */\n      swap3\n      keccak256\n        /* \"Contract/Voter.sol\":907:947  candidates[_candidateId].votedVoterLists */\n      add\n        /* \"Contract/Voter.sol\":907:962  candidates[_candidateId].votedVoterLists.push(_voterId) */\n      tag_25\n      jump\t// in\n    tag_215:\n        /* \"Contract/Voter.sol\":582:592  msg.sender */\n      caller\n        /* \"Contract/Voter.sol\":83:2897  contract Voter is Candidate{... */\n      dup12\n      mstore\n        /* \"Contract/Voter.sol\":789:795  voters */\n      0x09\n        /* \"Contract/Voter.sol\":83:2897  contract Voter is Candidate{... */\n      dup10\n      mstore\n        /* \"Contract/Voter.sol\":972:1026  voters[_voterId].votedCandidateList.push(_candidateId) */\n      tag_216\n        /* \"Contract/Voter.sol\":972:1007  voters[_voterId].votedCandidateList */\n      dup2\n      dup13\n      0x0c\n        /* \"Contract/Voter.sol\":83:2897  contract Voter is Candidate{... */\n      swap7\n      dup8\n      swap2\n      keccak256\n        /* \"Contract/Voter.sol\":972:1007  voters[_voterId].votedCandidateList */\n      add\n        /* \"Contract/Voter.sol\":972:1026  voters[_voterId].votedCandidateList.push(_candidateId) */\n      tag_25\n      jump\t// in\n    tag_216:\n        /* \"Contract/Voter.sol\":83:2897  contract Voter is Candidate{... */\n      dup2\n      dup12\n      mstore\n        /* \"Contract/Voter.sol\":907:917  candidates */\n      0x05\n        /* \"Contract/Voter.sol\":83:2897  contract Voter is Candidate{... */\n      dup10\n      mstore\n        /* \"Contract/Voter.sol\":1073:1107  candidates[_candidateId].voteCount */\n      0x0e\n        /* \"Contract/Voter.sol\":83:2897  contract Voter is Candidate{... */\n      dup9\n      dup13\n      keccak256\n        /* \"Contract/Voter.sol\":1073:1107  candidates[_candidateId].voteCount */\n      add\n        /* \"Contract/Voter.sol\":83:2897  contract Voter is Candidate{... */\n      sload\n      dup7\n      dup2\n      add\n      dup1\n      swap2\n      gt\n      tag_217\n      jumpi\n      dup3\n      dup13\n      mstore\n        /* \"Contract/Voter.sol\":907:917  candidates */\n      0x05\n        /* \"Contract/Voter.sol\":83:2897  contract Voter is Candidate{... */\n      dup11\n      mstore\n        /* \"Contract/Voter.sol\":1073:1107  candidates[_candidateId].voteCount */\n      0x0e\n        /* \"Contract/Voter.sol\":83:2897  contract Voter is Candidate{... */\n      dup10\n      dup14\n      keccak256\n        /* \"Contract/Voter.sol\":1036:1070  candidates[_candidateId].voteCount */\n      add\n        /* \"Contract/Voter.sol\":83:2897  contract Voter is Candidate{... */\n      sstore\n        /* \"https://github.com/OpenZeppelin/openzeppelin-contracts/blob/master/contracts/utils/math/SafeMath.sol\":2839:2844  a + b */\n      tag_219\n        /* \"Contract/Voter.sol\":83:2897  contract Voter is Candidate{... */\n      dup6\n      sload\n        /* \"https://github.com/OpenZeppelin/openzeppelin-contracts/blob/master/contracts/utils/math/SafeMath.sol\":2839:2844  a + b */\n      tag_29\n      jump\t// in\n    tag_219:\n        /* \"Contract/Voter.sol\":83:2897  contract Voter is Candidate{... */\n      dup6\n      sstore\n        /* \"Contract/Voter.sol\":1168:1176  uint i=0 */\n      dup6\n      dup12\n      dup2\n        /* \"Contract/Voter.sol\":83:2897  contract Voter is Candidate{... */\n    tag_220:\n      tag_221\n      jumpi\n        /* \"Contract/Voter.sol\":1164:1353  for(uint i=0;i<candidateList.length;i++){... */\n    tag_222:\n      pop\n        /* \"Contract/Voter.sol\":1367:1375  uint i=0 */\n      swap1\n      dup12\n      dup3\n        /* \"Contract/Voter.sol\":83:2897  contract Voter is Candidate{... */\n    tag_223:\n      tag_224\n      jumpi\n        /* \"Contract/Voter.sol\":1363:1543  for(uint i=0;i<voterList.length;i++){... */\n    tag_225:\n        /* \"Contract/Voter.sol\":582:592  msg.sender */\n      pop\n      pop\n      pop\n      caller\n        /* \"Contract/Voter.sol\":83:2897  contract Voter is Candidate{... */\n      dup11\n      mstore\n        /* \"Contract/Voter.sol\":789:795  voters */\n      0x09\n        /* \"Contract/Voter.sol\":83:2897  contract Voter is Candidate{... */\n      dup9\n      mstore\n      dup4\n      dup8\n      dup12\n      keccak256\n        /* \"Contract/Voter.sol\":1587:1618  voters[_voterId].voteLimitCount */\n      add\n        /* \"Contract/Voter.sol\":83:2897  contract Voter is Candidate{... */\n      sload\n        /* \"https://github.com/OpenZeppelin/openzeppelin-contracts/blob/master/contracts/utils/math/SafeMath.sol\":2839:2844  a + b */\n      tag_226\n      swap1\n      tag_29\n      jump\t// in\n    tag_226:\n        /* \"Contract/Voter.sol\":582:592  msg.sender */\n      caller\n        /* \"Contract/Voter.sol\":83:2897  contract Voter is Candidate{... */\n      dup12\n      mstore\n        /* \"Contract/Voter.sol\":789:795  voters */\n      0x09\n        /* \"Contract/Voter.sol\":83:2897  contract Voter is Candidate{... */\n      dup10\n      mstore\n      dup5\n      dup9\n      dup13\n      keccak256\n        /* \"Contract/Voter.sol\":1553:1584  voters[_voterId].voteLimitCount */\n      add\n        /* \"Contract/Voter.sol\":83:2897  contract Voter is Candidate{... */\n      sstore\n      dup10\n      mstore\n        /* \"Contract/Voter.sol\":907:917  candidates */\n      0x05\n        /* \"Contract/Voter.sol\":83:2897  contract Voter is Candidate{... */\n      dup8\n      mstore\n      dup6\n      dup10\n      keccak256\n      swap4\n      dup7\n      mload\n      swap9\n      dup9\n      dup11\n      swap10\n      dup11\n      mstore\n      dup10\n      add\n      0xa0\n      swap1\n      mstore\n      dup6\n      sload\n      and\n      0xc0\n      dup10\n      add\n      mstore\n      0x0180\n      swap1\n      dup2\n      0xe0\n      dup11\n      add\n      mstore\n      0x0240\n      dup10\n      add\n      swap1\n      dup7\n      add\n      swap1\n      tag_227\n      swap2\n      tag_13\n      jump\t// in\n    tag_227:\n      0x02\n      dup7\n      add\n      sload\n      0x0100\n      dup11\n      add\n      mstore\n      0x03\n      dup7\n      add\n      sload\n      0x0120\n      dup11\n      add\n      mstore\n      not(0xbf)\n      swap3\n      dup4\n      dup11\n      dup4\n      sub\n      add\n      0x0140\n      dup12\n      add\n      mstore\n      dup7\n      add\n      swap1\n      tag_228\n      swap2\n      tag_13\n      jump\t// in\n    tag_228:\n      dup9\n      dup2\n      sub\n      dup4\n      add\n      0x0160\n      dup11\n      add\n      mstore\n      tag_229\n      swap1\n        /* \"Contract/Voter.sol\":907:917  candidates */\n      0x05\n        /* \"Contract/Voter.sol\":83:2897  contract Voter is Candidate{... */\n      dup8\n      add\n      tag_13\n      jump\t// in\n    tag_229:\n      swap1\n      dup3\n      dup10\n      dup4\n      sub\n      add\n      swap1\n      dup10\n      add\n      mstore\n        /* \"Contract/Voter.sol\":1179:1192  candidateList */\n      0x06\n        /* \"Contract/Voter.sol\":83:2897  contract Voter is Candidate{... */\n      dup6\n      add\n      swap1\n      tag_230\n      swap2\n      tag_13\n      jump\t// in\n    tag_230:\n      dup8\n      dup2\n      sub\n      dup3\n      add\n      0x01a0\n      dup10\n      add\n      mstore\n      tag_231\n      swap1\n      0x07\n      dup7\n      add\n      tag_13\n      jump\t// in\n    tag_231:\n      dup8\n      dup2\n      sub\n      dup3\n      add\n      0x01c0\n      dup10\n      add\n      mstore\n      tag_232\n      swap1\n      0x08\n      dup7\n      add\n      tag_13\n      jump\t// in\n    tag_232:\n      dup8\n      dup2\n      sub\n      dup3\n      add\n      0x01e0\n      dup10\n      add\n      mstore\n      tag_233\n      swap1\n        /* \"Contract/Voter.sol\":789:795  voters */\n      0x09\n        /* \"Contract/Voter.sol\":83:2897  contract Voter is Candidate{... */\n      dup7\n      add\n      tag_13\n      jump\t// in\n    tag_233:\n      dup8\n      dup2\n      sub\n      dup3\n      add\n      0x0200\n      dup10\n      add\n      mstore\n      tag_234\n      swap1\n        /* \"Contract/Voter.sol\":1378:1387  voterList */\n      0x0a\n        /* \"Contract/Voter.sol\":83:2897  contract Voter is Candidate{... */\n      dup7\n      add\n      tag_13\n      jump\t// in\n    tag_234:\n      swap1\n      dup8\n      dup3\n      sub\n      add\n      0x0220\n      dup9\n      add\n      mstore\n      0x0b\n      dup5\n      add\n      swap1\n      tag_235\n      swap2\n      tag_13\n      jump\t// in\n    tag_235:\n      swap1\n      not(0x1f)\n      swap6\n      dup7\n      dup9\n      dup5\n      sub\n      add\n      swap1\n      dup9\n      add\n      mstore\n      dup4\n      add\n      swap1\n      tag_236\n      swap2\n      tag_13\n      jump\t// in\n    tag_236:\n      dup6\n      dup2\n      sub\n      dup6\n      add\n      0x60\n      dup8\n      add\n      mstore\n      tag_237\n      swap2\n      dup4\n      add\n      tag_13\n      jump\t// in\n    tag_237:\n      swap3\n        /* \"Contract/Voter.sol\":1073:1107  candidates[_candidateId].voteCount */\n      0x0e\n        /* \"Contract/Voter.sol\":83:2897  contract Voter is Candidate{... */\n      dup3\n      add\n      sload\n      0x80\n      dup7\n      add\n      mstore\n      dup5\n      dup5\n      sub\n      add\n      0xa0\n      dup6\n      add\n      mstore\n      add\n      swap1\n      tag_238\n      swap2\n      tag_21\n      jump\t// in\n    tag_238:\n        /* \"Contract/Voter.sol\":1650:1684  VoteCast(candidates[_candidateId]) */\n      sub\n      0x34acf85a95a1dc89bfc38e95c6d8d0e8e5d4544c49e9103ed7882d205ed151f8\n      swap2\n      log1\n        /* \"Contract/Voter.sol\":83:2897  contract Voter is Candidate{... */\n      dup1\n      return\n        /* \"Contract/Voter.sol\":1395:1398  i++ */\n    tag_224:\n        /* \"Contract/Voter.sol\":1378:1387  voterList */\n      0x0a\n        /* \"Contract/Voter.sol\":83:2897  contract Voter is Candidate{... */\n      sload\n        /* \"Contract/Voter.sol\":1376:1394  i<voterList.length */\n      dup2\n      lt\n      iszero\n      tag_239\n      jumpi\n        /* \"Contract/Voter.sol\":1416:1428  voterList[i] */\n      dup1\n      tag_241\n        /* \"Contract/Voter.sol\":1395:1398  i++ */\n      tag_242\n        /* \"Contract/Voter.sol\":1416:1428  voterList[i] */\n      swap3\n      tag_11\n      jump\t// in\n    tag_241:\n      pop\n        /* \"Contract/Voter.sol\":83:2897  contract Voter is Candidate{... */\n      sload\n      dup14\n      and\n        /* \"Contract/Voter.sol\":582:592  msg.sender */\n      caller\n        /* \"Contract/Voter.sol\":1416:1449  voterList[i].user._id == _voterId */\n      eq\n        /* \"Contract/Voter.sol\":1413:1533  if(voterList[i].user._id == _voterId){... */\n      tag_243\n      jumpi\n        /* \"Contract/Voter.sol\":1395:1398  i++ */\n      tag_26\n      jump\t// in\n    tag_242:\n        /* \"Contract/Voter.sol\":1367:1375  uint i=0 */\n      dup3\n      jump(tag_223)\n        /* \"Contract/Voter.sol\":1413:1533  if(voterList[i].user._id == _voterId){... */\n    tag_243:\n        /* \"Contract/Voter.sol\":1468:1518  voterList[i].votedCandidateList.push(_candidateId) */\n      tag_245\n        /* \"Contract/Voter.sol\":1468:1480  voterList[i] */\n      dup4\n      dup9\n      tag_246\n      dup5\n      tag_11\n      jump\t// in\n    tag_246:\n        /* \"Contract/Voter.sol\":1468:1499  voterList[i].votedCandidateList */\n      pop\n      add\n        /* \"Contract/Voter.sol\":1468:1518  voterList[i].votedCandidateList.push(_candidateId) */\n      tag_25\n      jump\t// in\n    tag_245:\n        /* \"Contract/Voter.sol\":1395:1398  i++ */\n      tag_26\n      jump\t// in\n        /* \"Contract/Voter.sol\":1376:1394  i<voterList.length */\n    tag_239:\n      jump(tag_225)\n        /* \"Contract/Voter.sol\":1200:1203  i++ */\n    tag_221:\n        /* \"Contract/Voter.sol\":1179:1192  candidateList */\n      0x06\n        /* \"Contract/Voter.sol\":83:2897  contract Voter is Candidate{... */\n      sload\n        /* \"Contract/Voter.sol\":1177:1199  i<candidateList.length */\n      dup2\n      lt\n      iszero\n      tag_247\n      jumpi\n        /* \"Contract/Voter.sol\":1221:1237  candidateList[i] */\n      dup1\n      dup5\n      dup14\n      tag_249\n        /* \"Contract/Voter.sol\":1200:1203  i++ */\n      tag_250\n        /* \"Contract/Voter.sol\":1221:1237  candidateList[i] */\n      swap5\n      tag_16\n      jump\t// in\n    tag_249:\n        /* \"Contract/Voter.sol\":83:2897  contract Voter is Candidate{... */\n      pop\n      sload\n      and\n        /* \"Contract/Voter.sol\":1221:1262  candidateList[i].user._id == _candidateId */\n      eq\n        /* \"Contract/Voter.sol\":1218:1343  if(candidateList[i].user._id == _candidateId){... */\n      tag_251\n      jumpi\n        /* \"Contract/Voter.sol\":1200:1203  i++ */\n      tag_26\n      jump\t// in\n    tag_250:\n        /* \"Contract/Voter.sol\":1168:1176  uint i=0 */\n      dup2\n      jump(tag_220)\n        /* \"Contract/Voter.sol\":1218:1343  if(candidateList[i].user._id == _candidateId){... */\n    tag_251:\n        /* \"Contract/Voter.sol\":1281:1328  candidateList[i].votedVoterLists.push(_voterId) */\n      tag_245\n        /* \"Contract/Voter.sol\":1281:1297  candidateList[i] */\n      tag_254\n      dup3\n      tag_16\n      jump\t// in\n    tag_254:\n        /* \"Contract/Voter.sol\":582:592  msg.sender */\n      pop\n      dup12\n      caller\n        /* \"Contract/Voter.sol\":1281:1313  candidateList[i].votedVoterLists */\n      swap2\n      add\n        /* \"Contract/Voter.sol\":1281:1328  candidateList[i].votedVoterLists.push(_voterId) */\n      tag_25\n      jump\t// in\n        /* \"Contract/Voter.sol\":1177:1199  i<candidateList.length */\n    tag_247:\n      jump(tag_222)\n        /* \"Contract/Voter.sol\":83:2897  contract Voter is Candidate{... */\n    tag_217:\n      shl(0xe0, 0x4e487b71)\n      dup13\n      mstore\n      0x11\n      dup5\n      mstore\n      0x24\n      dup13\n      revert\n        /* \"Contract/Voter.sol\":786:897  if(voters[_voterId].voteLimitCount > 3){... */\n    tag_213:\n        /* \"Contract/Voter.sol\":83:2897  contract Voter is Candidate{... */\n      dup6\n      mload\n      shl(0xe5, 0x461bcd)\n        /* \"Contract/Voter.sol\":839:886  revert(\"You have exceed the vote caste limit.\") */\n      dup2\n      mstore\n      dup1\n      dup4\n      add\n        /* \"Contract/Voter.sol\":83:2897  contract Voter is Candidate{... */\n      dup9\n      swap1\n      mstore\n      0x25\n      0x24\n      dup3\n      add\n      mstore\n      0x596f752068617665206578636565642074686520766f7465206361737465206c\n      0x44\n      dup3\n      add\n      mstore\n      shl(0xd9, 0x34b6b4ba17)\n      0x64\n      dup3\n      add\n      mstore\n      0x84\n      swap1\n        /* \"Contract/Voter.sol\":839:886  revert(\"You have exceed the vote caste limit.\") */\n      revert\n        /* \"Contract/Voter.sol\":646:741  if(_voterId == adminAddress){... */\n    tag_211:\n        /* \"Contract/Voter.sol\":83:2897  contract Voter is Candidate{... */\n      0x64\n      swap1\n      dup7\n      dup1\n      dup8\n      mload\n        /* \"Contract/Candidate.sol\":991:1031  revert(\"Candidate already registered !\") */\n      swap3\n      shl(0xe5, 0x461bcd)\n        /* \"Contract/Voter.sol\":688:730  revert(\"Admin is restrict to caste vote.\") */\n      dup5\n      mstore\n      dup4\n      add\n        /* \"Contract/Voter.sol\":83:2897  contract Voter is Candidate{... */\n      mstore\n      0x24\n      dup3\n      add\n      mstore\n      0x41646d696e20697320726573747269637420746f20636173746520766f74652e\n      0x44\n      dup3\n      add\n      mstore\n        /* \"Contract/Voter.sol\":688:730  revert(\"Admin is restrict to caste vote.\") */\n      revert\n        /* \"Contract/Voter.sol\":83:2897  contract Voter is Candidate{... */\n    tag_52:\n      swap1\n      pop\n      jumpi(tag_90, callvalue)\n      jumpi(tag_90, slt(add(not(0x03), calldatasize), 0x20))\n      calldataload\n      dup3\n      sload\n        /* \"Contract/Constants.sol\":83:110  string[] public gender_list */\n      dup2\n      lt\n      iszero\n      tag_90\n      jumpi\n        /* \"Contract/Voter.sol\":83:2897  contract Voter is Candidate{... */\n      swap1\n      tag_122\n      tag_123\n      swap3\n      dup5\n      tag_93\n      swap6\n      mstore\n      dup3\n      mload\n      swap4\n      dup5\n      dup1\n      swap3\n      0x290decd9548b62a8d60345a988386fc84ba6bc95484008f6362f93160ef3e563\n      add\n      tag_13\n      jump\t// in\n    tag_50:\n      pop\n      pop\n      jumpi(tag_80, callvalue)\n      dup2\n      add(calldatasize, not(0x03))\n      slt\n      tag_80\n      jumpi\n      0x20\n      swap1\n        /* \"Contract/Voter.sol\":312:338  uint public totalVoter = 0 */\n      0x0c\n        /* \"Contract/Voter.sol\":83:2897  contract Voter is Candidate{... */\n      sload\n      swap1\n      mload\n      swap1\n      dup2\n      mstore\n      return\n    tag_48:\n      swap1\n      pop\n      jumpi(tag_90, callvalue)\n      jumpi(tag_90, slt(add(not(0x03), calldatasize), 0x20))\n      calldataload\n      sub(shl(0xa0, 0x01), 0x01)\n      dup2\n      and\n      swap1\n      dup2\n      swap1\n      sub\n      tag_90\n      jumpi\n      dup2\n      tag_93\n      swap4\n      tag_275\n      swap3\n      0x60\n      0x80\n      dup5\n      mload\n      tag_276\n      dup2\n      tag_2\n      jump\t// in\n    tag_276:\n      tag_277\n      tag_23\n      jump\t// in\n    tag_277:\n      dup2\n      mstore\n      dup3\n      0x20\n      dup3\n      add\n      mstore\n      dup3\n      dup7\n      dup3\n      add\n      mstore\n      dup5\n      dup4\n      dup3\n      add\n      mstore\n      add\n      mstore\n      dup2\n      mstore\n        /* \"Contract/Candidate.sol\":1740:1750  candidates */\n      0x05\n        /* \"Contract/Voter.sol\":83:2897  contract Voter is Candidate{... */\n      0x20\n      mstore\n      keccak256\n      tag_22\n      jump\t// in\n    tag_275:\n      swap1\n      mload\n      swap2\n      dup3\n      swap2\n      0x20\n      dup4\n      mstore\n      0x20\n      dup4\n      add\n      swap1\n      tag_9\n      jump\t// in\n    tag_46:\n      swap1\n      pop\n      jumpi(tag_90, callvalue)\n      jumpi(tag_90, slt(add(not(0x03), calldatasize), 0x20))\n      calldataload\n        /* \"Contract/Voter.sol\":223:247  Voter[] public voterList */\n      0x0a\n        /* \"Contract/Voter.sol\":83:2897  contract Voter is Candidate{... */\n      sload\n        /* \"Contract/Voter.sol\":223:247  Voter[] public voterList */\n      dup2\n      lt\n      iszero\n      tag_90\n      jumpi\n      0x0a\n        /* \"Contract/Voter.sol\":83:2897  contract Voter is Candidate{... */\n      0x0e\n      swap3\n      swap4\n      mstore\n      mul\n      swap1\n        /* \"Contract/Voter.sol\":223:247  Voter[] public voterList */\n      0xc65a7bb8d6351c1cf70c95a316cc6a92839c986682d98bc35f958f4883f9d2b5\n      tag_131\n        /* \"Contract/Voter.sol\":83:2897  contract Voter is Candidate{... */\n      dup4\n      0xc65a7bb8d6351c1cf70c95a316cc6a92839c986682d98bc35f958f4883f9d2a8\n      add\n        /* \"Contract/Voter.sol\":223:247  Voter[] public voterList */\n      tag_14\n      jump\t// in\n        /* \"Contract/Voter.sol\":83:2897  contract Voter is Candidate{... */\n    tag_44:\n      dup3\n      dup5\n      jumpi(tag_100, callvalue)\n      dup1\n      add(calldatasize, not(0x03))\n      slt\n      tag_100\n      jumpi\n        /* \"Contract/Voter.sol\":2767:2776  voterList */\n      0x0a\n        /* \"Contract/Voter.sol\":83:2897  contract Voter is Candidate{... */\n      sload\n      tag_290\n      dup2\n      tag_20\n      jump\t// in\n    tag_290:\n      swap2\n      tag_291\n      dup5\n      mload\n      swap4\n      dup5\n      tag_4\n      jump\t// in\n    tag_291:\n      dup2\n      dup4\n      mstore\n        /* \"Contract/Voter.sol\":2767:2776  voterList */\n      0x0a\n        /* \"Contract/Voter.sol\":83:2897  contract Voter is Candidate{... */\n      dup2\n      mstore\n      0x20\n      swap3\n      dup4\n      dup2\n      add\n      swap3\n      dup3\n      0xc65a7bb8d6351c1cf70c95a316cc6a92839c986682d98bc35f958f4883f9d2a8\n      dup6\n    tag_292:\n      dup4\n      dup4\n      lt\n      tag_293\n      jumpi\n      pop\n      pop\n      pop\n      pop\n      dup5\n      mload\n      swap4\n      dup1\n      dup6\n      add\n      swap2\n      dup2\n      dup7\n      mstore\n      mload\n      dup1\n      swap3\n      mstore\n      dup6\n      dup6\n      add\n      swap6\n      dup3\n      0x05\n      shl\n      dup7\n      add\n      add\n      swap4\n      swap3\n      swap6\n    tag_295:\n      dup3\n      dup8\n      lt\n      tag_296\n      jumpi\n      dup6\n      dup6\n      sub\n      dup7\n      return\n    tag_296:\n      swap1\n      swap2\n      swap3\n      swap4\n      dup3\n      dup1\n      tag_298\n      0x01\n      swap4\n      not(0x3f)\n      dup11\n      dup3\n      sub\n      add\n      dup7\n      mstore\n      dup9\n      mload\n      tag_10\n      jump\t// in\n    tag_298:\n      swap7\n      add\n      swap3\n      add\n      swap7\n      add\n      swap6\n      swap3\n      swap2\n      swap1\n      swap3\n      jump(tag_295)\n    tag_293:\n      0x0e\n      dup9\n      0x01\n      swap3\n      tag_299\n      dup6\n      swap12\n      swap9\n      swap10\n      swap12\n      tag_28\n      jump\t// in\n    tag_299:\n      dup2\n      mstore\n      add\n      swap3\n      add\n      swap3\n      add\n      swap2\n      swap1\n      swap7\n      swap5\n      swap4\n      swap7\n      jump(tag_292)\n    tag_42:\n      dup3\n      dup5\n      jumpi(tag_100, callvalue)\n      dup1\n      add(calldatasize, not(0x03))\n      slt\n      tag_100\n      jumpi\n        /* \"Contract/Candidate.sol\":1618:1631  candidateList */\n      0x06\n        /* \"Contract/Voter.sol\":83:2897  contract Voter is Candidate{... */\n      sload\n      tag_304\n      dup2\n      tag_20\n      jump\t// in\n    tag_304:\n      swap2\n      tag_305\n      dup5\n      mload\n      swap4\n      dup5\n      tag_4\n      jump\t// in\n    tag_305:\n      dup2\n      dup4\n      mstore\n        /* \"Contract/Candidate.sol\":1618:1631  candidateList */\n      0x06\n        /* \"Contract/Voter.sol\":83:2897  contract Voter is Candidate{... */\n      dup2\n      mstore\n      0x20\n      swap3\n      dup4\n      dup2\n      add\n      swap3\n      dup3\n      0xf652222313e28459528d920b65115c16c04f3efc82aaedc97be59f3f377c0d3f\n      dup6\n    tag_306:\n      dup4\n      dup4\n      lt\n      tag_307\n      jumpi\n      pop\n      pop\n      pop\n      pop\n      dup5\n      mload\n      swap4\n      dup1\n      dup6\n      add\n      swap2\n      dup2\n      dup7\n      mstore\n      mload\n      dup1\n      swap3\n      mstore\n      dup6\n      dup6\n      add\n      swap6\n      dup3\n      0x05\n      shl\n      dup7\n      add\n      add\n      swap4\n      swap3\n      swap6\n    tag_309:\n      dup3\n      dup8\n      lt\n      tag_310\n      jumpi\n      dup6\n      dup6\n      sub\n      dup7\n      return\n    tag_310:\n      swap1\n      swap2\n      swap3\n      swap4\n      dup3\n      dup1\n      tag_312\n      0x01\n      swap4\n      not(0x3f)\n      dup11\n      dup3\n      sub\n      add\n      dup7\n      mstore\n      dup9\n      mload\n      tag_9\n      jump\t// in\n    tag_312:\n      swap7\n      add\n      swap3\n      add\n      swap7\n      add\n      swap6\n      swap3\n      swap2\n      swap1\n      swap3\n      jump(tag_309)\n    tag_307:\n      0x10\n      dup9\n      0x01\n      swap3\n      tag_313\n      dup6\n      swap12\n      swap9\n      swap10\n      swap12\n      tag_22\n      jump\t// in\n    tag_313:\n      dup2\n      mstore\n      add\n      swap3\n      add\n      swap3\n      add\n      swap2\n      swap1\n      swap7\n      swap5\n      swap4\n      swap7\n      jump(tag_306)\n    tag_40:\n      swap1\n      pop\n      dup3\n      jumpi(tag_100, slt(add(not(0x03), calldatasize), 0x01a0))\n      0xffffffffffffffff\n      swap3\n      dup3\n      calldataload\n      dup5\n      dup2\n      gt\n      tag_90\n      jumpi\n      tag_318\n      swap1\n      calldatasize\n      swap1\n      dup6\n      add\n      tag_5\n      jump\t// in\n    tag_318:\n      swap3\n      calldataload(0x64)\n      dup6\n      dup2\n      gt\n      tag_135\n      jumpi\n      tag_321\n      swap1\n      calldatasize\n      swap1\n      dup4\n      add\n      tag_5\n      jump\t// in\n    tag_321:\n      swap4\n      calldataload(0x84)\n      dup7\n      dup2\n      gt\n      tag_138\n      jumpi\n      tag_324\n      swap1\n      calldatasize\n      swap1\n      dup5\n      add\n      tag_5\n      jump\t// in\n    tag_324:\n      swap5\n      calldataload(0xa4)\n      dup8\n      dup2\n      gt\n      tag_141\n      jumpi\n      tag_327\n      swap1\n      calldatasize\n      swap1\n      dup6\n      add\n      tag_5\n      jump\t// in\n    tag_327:\n      calldataload(0xc4)\n      dup9\n      dup2\n      gt\n      tag_144\n      jumpi\n      tag_330\n      swap1\n      calldatasize\n      swap1\n      dup7\n      add\n      tag_5\n      jump\t// in\n    tag_330:\n      swap1\n      calldataload(0xe4)\n      dup10\n      dup2\n      gt\n      tag_147\n      jumpi\n      tag_333\n      swap1\n      calldatasize\n      swap1\n      dup8\n      add\n      tag_5\n      jump\t// in\n    tag_333:\n      swap2\n      calldataload(0x0104)\n      dup11\n      dup2\n      gt\n      tag_150\n      jumpi\n      tag_336\n      swap1\n      calldatasize\n      swap1\n      dup9\n      add\n      tag_5\n      jump\t// in\n    tag_336:\n      calldataload(0x0124)\n      dup12\n      dup2\n      gt\n      tag_153\n      jumpi\n      tag_339\n      swap1\n      calldatasize\n      swap1\n      dup10\n      add\n      tag_5\n      jump\t// in\n    tag_339:\n      swap1\n      calldataload(0x0144)\n      dup13\n      dup2\n      gt\n      tag_159\n      jumpi\n      tag_342\n      swap1\n      calldatasize\n      swap1\n      dup11\n      add\n      tag_5\n      jump\t// in\n    tag_342:\n      swap3\n      calldataload(0x0164)\n      dup14\n      dup2\n      gt\n      tag_346\n      jumpi\n      tag_345\n      swap1\n      calldatasize\n      swap1\n      dup12\n      add\n      tag_5\n      jump\t// in\n    tag_345:\n      swap5\n      calldataload(0x0184)\n      swap14\n      dup15\n      gt\n      tag_346\n      jumpi\n        /* \"Contract/Candidate.sol\":933:971  candidates[_id].user.citizenshipNumber */\n      0x02\n        /* \"Contract/Voter.sol\":83:2897  contract Voter is Candidate{... */\n      dup12\n      dup14\n      swap15\n      swap16\n      dup13\n      tag_348\n      swap2\n      calldatasize\n      swap2\n      add\n      tag_5\n      jump\t// in\n    tag_348:\n        /* \"Contract/Candidate.sol\":868:878  msg.sender */\n      swap14\n      caller\n        /* \"Contract/Voter.sol\":83:2897  contract Voter is Candidate{... */\n      dup2\n      mstore\n        /* \"Contract/Candidate.sol\":933:943  candidates */\n      0x05\n        /* \"Contract/Voter.sol\":83:2897  contract Voter is Candidate{... */\n      0x20\n      mstore\n      keccak256\n        /* \"Contract/Candidate.sol\":933:971  candidates[_id].user.citizenshipNumber */\n      add\n        /* \"Contract/Voter.sol\":83:2897  contract Voter is Candidate{... */\n      sload\n        /* \"Contract/Candidate.sol\":930:1042  if(candidates[_id].user.citizenshipNumber != 0){... */\n      tag_349\n      jumpi\n        /* \"Contract/Candidate.sol\":1066:1073  _gender */\n      dup12\n      swap13\n      swap14\n      tag_351\n      dup13\n      swap14\n      swap13\n      swap12\n      swap13\n      tag_24\n      jump\t// in\n    tag_351:\n        /* \"Contract/Voter.sol\":83:2897  contract Voter is Candidate{... */\n      0xa0\n      dup12\n      mload\n      swap15\n      dup16\n      swap1\n      tag_352\n      dup3\n      tag_1\n      jump\t// in\n    tag_352:\n        /* \"Contract/Candidate.sol\":868:878  msg.sender */\n      caller\n        /* \"Contract/Voter.sol\":83:2897  contract Voter is Candidate{... */\n      dup3\n      mstore\n        /* \"Contract/Candidate.sol\":1137:1252  User(_id, _name, _citizenshipNo, _age, _gender, _dob, _email, _profile, _province, _district, _municipality, _ward) */\n      dup13\n        /* \"Contract/Voter.sol\":83:2897  contract Voter is Candidate{... */\n      0x20\n        /* \"Contract/Candidate.sol\":1137:1252  User(_id, _name, _citizenshipNo, _age, _gender, _dob, _email, _profile, _province, _district, _municipality, _ward) */\n      dup4\n      add\n        /* \"Contract/Voter.sol\":83:2897  contract Voter is Candidate{... */\n      mstore\n      0x24\n      swap14\n      dup15\n      calldataload\n        /* \"Contract/Candidate.sol\":1137:1252  User(_id, _name, _citizenshipNo, _age, _gender, _dob, _email, _profile, _province, _district, _municipality, _ward) */\n      swap1\n      dup4\n      add\n        /* \"Contract/Voter.sol\":83:2897  contract Voter is Candidate{... */\n      mstore\n      calldataload(0x44)\n      0x60\n        /* \"Contract/Candidate.sol\":1137:1252  User(_id, _name, _citizenshipNo, _age, _gender, _dob, _email, _profile, _province, _district, _municipality, _ward) */\n      dup4\n      add\n        /* \"Contract/Voter.sol\":83:2897  contract Voter is Candidate{... */\n      mstore\n      0x80\n        /* \"Contract/Candidate.sol\":1137:1252  User(_id, _name, _citizenshipNo, _age, _gender, _dob, _email, _profile, _province, _district, _municipality, _ward) */\n      dup3\n      add\n        /* \"Contract/Voter.sol\":83:2897  contract Voter is Candidate{... */\n      mstore\n        /* \"Contract/Candidate.sol\":1137:1252  User(_id, _name, _citizenshipNo, _age, _gender, _dob, _email, _profile, _province, _district, _municipality, _ward) */\n      add\n        /* \"Contract/Voter.sol\":83:2897  contract Voter is Candidate{... */\n      mstore\n      0xc0\n        /* \"Contract/Candidate.sol\":1137:1252  User(_id, _name, _citizenshipNo, _age, _gender, _dob, _email, _profile, _province, _district, _municipality, _ward) */\n      dup14\n      add\n        /* \"Contract/Voter.sol\":83:2897  contract Voter is Candidate{... */\n      mstore\n      0xe0\n        /* \"Contract/Candidate.sol\":1137:1252  User(_id, _name, _citizenshipNo, _age, _gender, _dob, _email, _profile, _province, _district, _municipality, _ward) */\n      dup13\n      add\n        /* \"Contract/Voter.sol\":83:2897  contract Voter is Candidate{... */\n      mstore\n      0x0100\n        /* \"Contract/Candidate.sol\":1137:1252  User(_id, _name, _citizenshipNo, _age, _gender, _dob, _email, _profile, _province, _district, _municipality, _ward) */\n      dup12\n      add\n        /* \"Contract/Voter.sol\":83:2897  contract Voter is Candidate{... */\n      mstore\n      0x0120\n        /* \"Contract/Candidate.sol\":1137:1252  User(_id, _name, _citizenshipNo, _age, _gender, _dob, _email, _profile, _province, _district, _municipality, _ward) */\n      dup11\n      add\n        /* \"Contract/Voter.sol\":83:2897  contract Voter is Candidate{... */\n      mstore\n      0x0140\n        /* \"Contract/Candidate.sol\":1137:1252  User(_id, _name, _citizenshipNo, _age, _gender, _dob, _email, _profile, _province, _district, _municipality, _ward) */\n      dup10\n      add\n        /* \"Contract/Voter.sol\":83:2897  contract Voter is Candidate{... */\n      mstore\n      0x0160\n        /* \"Contract/Candidate.sol\":1137:1252  User(_id, _name, _citizenshipNo, _age, _gender, _dob, _email, _profile, _province, _district, _municipality, _ward) */\n      dup9\n      add\n        /* \"Contract/Voter.sol\":83:2897  contract Voter is Candidate{... */\n      mstore\n      dup6\n      mload\n      swap7\n      tag_353\n      dup9\n      tag_2\n      jump\t// in\n    tag_353:\n      dup8\n      mstore\n      0x20\n        /* \"Contract/Candidate.sol\":1114:1316  Candidate(... */\n      dup8\n      add\n        /* \"Contract/Voter.sol\":83:2897  contract Voter is Candidate{... */\n      mstore\n        /* \"Contract/Candidate.sol\":1114:1316  Candidate(... */\n      dup5\n      dup7\n      add\n        /* \"Contract/Voter.sol\":83:2897  contract Voter is Candidate{... */\n      mstore\n        /* \"Contract/Candidate.sol\":1114:1316  Candidate(... */\n      dup6\n        /* \"Contract/Voter.sol\":83:2897  contract Voter is Candidate{... */\n      0x60\n        /* \"Contract/Candidate.sol\":1114:1316  Candidate(... */\n      dup7\n      add\n        /* \"Contract/Voter.sol\":83:2897  contract Voter is Candidate{... */\n      mstore\n      0x60\n      0x80\n        /* \"Contract/Candidate.sol\":1114:1316  Candidate(... */\n      dup7\n      add\n        /* \"Contract/Voter.sol\":83:2897  contract Voter is Candidate{... */\n      mstore\n        /* \"Contract/Candidate.sol\":868:878  msg.sender */\n      caller\n        /* \"Contract/Voter.sol\":83:2897  contract Voter is Candidate{... */\n      dup7\n      mstore\n        /* \"Contract/Candidate.sol\":933:943  candidates */\n      0x05\n        /* \"Contract/Voter.sol\":83:2897  contract Voter is Candidate{... */\n      0x20\n      mstore\n      tag_354\n      dup6\n      dup6\n      dup9\n      keccak256\n      tag_19\n      jump\t// in\n    tag_354:\n        /* \"Contract/Candidate.sol\":1364:1378  candidateNames */\n      0x07\n        /* \"Contract/Voter.sol\":83:2897  contract Voter is Candidate{... */\n      sload\n      swap1\n      shl(0x40, 0x01)\n      swap2\n      dup3\n      dup2\n      lt\n      iszero\n      tag_168\n      jumpi\n      0x01\n      dup2\n      add\n      dup1\n        /* \"Contract/Candidate.sol\":1364:1378  candidateNames */\n      0x07\n        /* \"Contract/Voter.sol\":83:2897  contract Voter is Candidate{... */\n      sstore\n      dup2\n      lt\n      iszero\n      tag_170\n      jumpi\n      swap1\n      tag_359\n      swap2\n        /* \"Contract/Candidate.sol\":1364:1378  candidateNames */\n      0x07\n        /* \"Contract/Voter.sol\":83:2897  contract Voter is Candidate{... */\n      dup10\n      mstore\n      0xa66cc928b5edb82af9bd49922954155ab7b0942694bea4ce44661d9a8736c688\n      add\n      tag_18\n      jump\t// in\n    tag_359:\n        /* \"Contract/Candidate.sol\":1400:1413  candidateList */\n      0x06\n        /* \"Contract/Voter.sol\":83:2897  contract Voter is Candidate{... */\n      sload\n      swap1\n      dup2\n      lt\n      iszero\n      tag_173\n      jumpi\n      dup1\n      0x01\n      tag_362\n      swap3\n      add\n        /* \"Contract/Candidate.sol\":1400:1413  candidateList */\n      0x06\n        /* \"Contract/Voter.sol\":83:2897  contract Voter is Candidate{... */\n      sstore\n      tag_16\n      jump\t// in\n    tag_362:\n      tag_176\n      jumpi\n      dup5\n      tag_365\n      swap2\n      tag_19\n      jump\t// in\n    tag_365:\n        /* \"Contract/Candidate.sol\":1456:1470  totalCandidate */\n      0x08\n        /* \"Contract/Voter.sol\":83:2897  contract Voter is Candidate{... */\n      sload\n      swap2\n      0x01\n      dup4\n      add\n      dup1\n      swap4\n      gt\n      tag_179\n      jumpi\n      dup6\n        /* \"Contract/Candidate.sol\":1493:1520  CandidateCreated(candidate) */\n      0xaa865f867abaa68b8cba3e6df5b4cc018184c6e7fff1d03843d27c69a973e3b0\n        /* \"Contract/Voter.sol\":83:2897  contract Voter is Candidate{... */\n      tag_181\n      dup8\n      dup8\n      dup8\n        /* \"Contract/Candidate.sol\":1456:1470  totalCandidate */\n      0x08\n        /* \"Contract/Voter.sol\":83:2897  contract Voter is Candidate{... */\n      sstore\n      mload\n      swap2\n      dup3\n      swap2\n      0x20\n      dup4\n      mstore\n      0x20\n      dup4\n      add\n      swap1\n      tag_9\n      jump\t// in\n        /* \"Contract/Candidate.sol\":930:1042  if(candidates[_id].user.citizenshipNumber != 0){... */\n    tag_349:\n        /* \"Contract/Voter.sol\":83:2897  contract Voter is Candidate{... */\n      dup11\n      mload\n      shl(0xe5, 0x461bcd)\n        /* \"Contract/Candidate.sol\":991:1031  revert(\"Candidate already registered !\") */\n      dup2\n      mstore\n        /* \"Contract/Voter.sol\":83:2897  contract Voter is Candidate{... */\n      0x20\n        /* \"Contract/Candidate.sol\":991:1031  revert(\"Candidate already registered !\") */\n      dup2\n      dup13\n      add\n        /* \"Contract/Voter.sol\":83:2897  contract Voter is Candidate{... */\n      mstore\n      0x1e\n      0x24\n      dup3\n      add\n      mstore\n      0x43616e64696461746520616c7265616479207265676973746572656420210000\n      0x44\n      dup3\n      add\n      mstore\n      0x64\n      swap1\n        /* \"Contract/Candidate.sol\":991:1031  revert(\"Candidate already registered !\") */\n      revert\n        /* \"Contract/Voter.sol\":83:2897  contract Voter is Candidate{... */\n    tag_346:\n      dup12\n      dup1\n      revert\n    tag_38:\n      swap1\n      pop\n      jumpi(tag_90, callvalue)\n      jumpi(tag_90, slt(add(not(0x03), calldatasize), 0x20))\n      calldataload\n      sub(shl(0xa0, 0x01), 0x01)\n      dup2\n      dup2\n      and\n      swap2\n      dup3\n      swap1\n      sub\n      tag_135\n      jumpi\n      0x20\n      swap4\n      pop\n      sload(0x01)\n      and\n        /* \"Contract/Utils.sol\":542:561  _id == adminAddress */\n      eq\n        /* \"Contract/Voter.sol\":83:2897  contract Voter is Candidate{... */\n      swap1\n      mload\n      swap1\n      dup2\n      mstore\n      return\n    tag_36:\n      pop\n      pop\n      jumpi(tag_80, callvalue)\n      dup2\n      add(calldatasize, not(0x03))\n      slt\n      tag_80\n      jumpi\n      0x20\n      swap1\n        /* \"Contract/Candidate.sol\":365:395  uint public totalCandidate = 0 */\n      0x08\n        /* \"Contract/Voter.sol\":83:2897  contract Voter is Candidate{... */\n      sload\n      swap1\n      mload\n      swap1\n      dup2\n      mstore\n      return\n    tag_34:\n      swap1\n      pop\n      jumpi(tag_90, callvalue)\n      dup3\n      add(calldatasize, not(0x03))\n      slt\n      tag_90\n      jumpi\n      0x20\n      swap3\n      pop\n      sload\n      swap1\n      mload\n      swap1\n      dup2\n      mstore\n      return\n    tag_32:\n      dup5\n      swap1\n      jumpi(tag_80, callvalue)\n      dup2\n      add(calldatasize, not(0x03))\n      slt\n      tag_80\n      jumpi\n      0x20\n      swap1\n        /* \"Contract/Utils.sol\":289:320  uint public totalMaleVoters = 0 */\n      0x02\n        /* \"Contract/Voter.sol\":83:2897  contract Voter is Candidate{... */\n      sload\n      dup2\n      mstore\n      return\n    tag_1:\n      0x0180\n      dup2\n      add\n      swap1\n      dup2\n      lt\n      0xffffffffffffffff\n      dup3\n      gt\n      or\n      tag_387\n      jumpi\n      0x40\n      mstore\n      jump\t// out\n    tag_387:\n      mstore(0x00, shl(0xe0, 0x4e487b71))\n      mstore(0x04, 0x41)\n      revert(0x00, 0x24)\n    tag_2:\n      0xa0\n      dup2\n      add\n      swap1\n      dup2\n      lt\n      0xffffffffffffffff\n      dup3\n      gt\n      or\n      tag_387\n      jumpi\n      0x40\n      mstore\n      jump\t// out\n    tag_3:\n      0x60\n      dup2\n      add\n      swap1\n      dup2\n      lt\n      0xffffffffffffffff\n      dup3\n      gt\n      or\n      tag_387\n      jumpi\n      0x40\n      mstore\n      jump\t// out\n    tag_4:\n      swap1\n      0x1f\n      dup1\n      not\n      swap2\n      add\n      and\n      dup2\n      add\n      swap1\n      dup2\n      lt\n      0xffffffffffffffff\n      dup3\n      gt\n      or\n      tag_387\n      jumpi\n      0x40\n      mstore\n      jump\t// out\n    tag_5:\n      dup2\n      0x1f\n      dup3\n      add\n      slt\n      iszero\n      tag_400\n      jumpi\n      dup1\n      calldataload\n      swap1\n      0xffffffffffffffff\n      dup3\n      gt\n      tag_387\n      jumpi\n      mload(0x40)\n      swap3\n      tag_399\n      0x1f\n      dup5\n      add\n      not(0x1f)\n      and\n      0x20\n      add\n      dup6\n      tag_4\n      jump\t// in\n    tag_399:\n      dup3\n      dup5\n      mstore\n      0x20\n      dup4\n      dup4\n      add\n      add\n      gt\n      tag_400\n      jumpi\n      dup2\n      0x00\n      swap3\n      0x20\n      dup1\n      swap4\n      add\n      dup4\n      dup7\n      add\n      calldatacopy\n      dup4\n      add\n      add\n      mstore\n      swap1\n      jump\t// out\n    tag_400:\n      0x00\n      dup1\n      revert\n    tag_6:\n      swap2\n      swap1\n      dup3\n      mload\n      swap3\n      dup4\n      dup3\n      mstore\n      0x00\n    tag_402:\n      dup5\n      dup2\n      lt\n      tag_403\n      jumpi\n      pop\n      pop\n      dup3\n      0x00\n      0x20\n      dup1\n      swap5\n      swap6\n      dup5\n      add\n      add\n      mstore\n      0x1f\n      dup1\n      not\n      swap2\n      add\n      and\n      add\n      add\n      swap1\n      jump\t// out\n    tag_403:\n      0x20\n      dup2\n      dup4\n      add\n      dup2\n      add\n      mload\n      dup5\n      dup4\n      add\n      dup3\n      add\n      mstore\n      add\n      jump(tag_402)\n    tag_7:\n      swap1\n      tag_405\n      swap2\n      0x01\n      dup1\n      0xa0\n      shl\n      sub\n      dup2\n      mload\n      and\n      dup3\n      mstore\n      tag_406\n      tag_407\n      tag_408\n      tag_409\n      tag_410\n      tag_411\n      tag_412\n      tag_413\n      0x20\n      dup10\n      add\n      mload\n      0x0180\n      dup1\n      0x20\n      dup14\n      add\n      mstore\n      dup12\n      add\n      swap1\n      tag_6\n      jump\t// in\n    tag_413:\n      0x40\n      dup10\n      add\n      mload\n      0x40\n      dup12\n      add\n      mstore\n      0x60\n      dup10\n      add\n      mload\n      0x60\n      dup12\n      add\n      mstore\n      0x80\n      dup10\n      add\n      mload\n      dup11\n      dup3\n      sub\n      0x80\n      dup13\n      add\n      mstore\n      tag_6\n      jump\t// in\n    tag_412:\n      0xa0\n      dup9\n      add\n      mload\n      dup10\n      dup3\n      sub\n      0xa0\n      dup12\n      add\n      mstore\n      tag_6\n      jump\t// in\n    tag_411:\n      0xc0\n      dup8\n      add\n      mload\n      dup9\n      dup3\n      sub\n      0xc0\n      dup11\n      add\n      mstore\n      tag_6\n      jump\t// in\n    tag_410:\n      0xe0\n      dup7\n      add\n      mload\n      dup8\n      dup3\n      sub\n      0xe0\n      dup10\n      add\n      mstore\n      tag_6\n      jump\t// in\n    tag_409:\n      0x0100\n      dup1\n      dup7\n      add\n      mload\n      swap1\n      dup8\n      dup4\n      sub\n      swap1\n      dup9\n      add\n      mstore\n      tag_6\n      jump\t// in\n    tag_408:\n      0x0120\n      dup1\n      dup6\n      add\n      mload\n      swap1\n      dup7\n      dup4\n      sub\n      swap1\n      dup8\n      add\n      mstore\n      tag_6\n      jump\t// in\n    tag_407:\n      0x0140\n      dup1\n      dup5\n      add\n      mload\n      swap1\n      dup6\n      dup4\n      sub\n      swap1\n      dup7\n      add\n      mstore\n      tag_6\n      jump\t// in\n    tag_406:\n      swap2\n      0x0160\n      dup1\n      swap3\n      add\n      mload\n      swap2\n      dup2\n      dup5\n      sub\n      swap2\n      add\n      mstore\n      tag_6\n      jump\t// in\n    tag_405:\n      swap1\n      jump\t// out\n    tag_8:\n      swap1\n      dup2\n      mload\n      dup1\n      dup3\n      mstore\n      0x20\n      dup1\n      dup1\n      swap4\n      add\n      swap4\n      add\n      swap2\n      0x00\n    tag_414:\n      dup3\n      dup2\n      lt\n      tag_415\n      jumpi\n      pop\n      pop\n      pop\n      pop\n      swap1\n      jump\t// out\n    tag_415:\n      dup4\n      mload\n      sub(shl(0xa0, 0x01), 0x01)\n      and\n      dup6\n      mstore\n      swap4\n      dup2\n      add\n      swap4\n      swap3\n      dup2\n      add\n      swap3\n      0x01\n      add\n      jump(tag_414)\n    tag_9:\n      tag_405\n      swap2\n      0x80\n      tag_418\n      tag_419\n      tag_420\n      dup6\n      mload\n      0xa0\n      dup7\n      mstore\n      0xa0\n      dup7\n      add\n      swap1\n      tag_7\n      jump\t// in\n    tag_420:\n      0x20\n      dup7\n      add\n      mload\n      dup6\n      dup3\n      sub\n      0x20\n      dup8\n      add\n      mstore\n      tag_6\n      jump\t// in\n    tag_419:\n      0x40\n      dup6\n      add\n      mload\n      dup5\n      dup3\n      sub\n      0x40\n      dup7\n      add\n      mstore\n      tag_6\n      jump\t// in\n    tag_418:\n      swap3\n      0x60\n      dup2\n      add\n      mload\n      0x60\n      dup5\n      add\n      mstore\n      add\n      mload\n      swap1\n      0x80\n      dup2\n      dup5\n      sub\n      swap2\n      add\n      mstore\n      tag_8\n      jump\t// in\n    tag_10:\n      swap1\n      0x40\n      dup1\n      tag_421\n      tag_422\n      dup6\n      mload\n      0x60\n      dup7\n      mstore\n      0x60\n      dup7\n      add\n      swap1\n      tag_7\n      jump\t// in\n    tag_422:\n      0x20\n      dup7\n      add\n      mload\n      dup6\n      dup3\n      sub\n      0x20\n      dup8\n      add\n      mstore\n      tag_8\n      jump\t// in\n    tag_421:\n      swap4\n      add\n      mload\n      swap2\n      add\n      mstore\n      swap1\n      jump\t// out\n    tag_11:\n        /* \"Contract/Voter.sol\":1378:1387  voterList */\n      0x0a\n        /* \"Contract/Voter.sol\":83:2897  contract Voter is Candidate{... */\n      sload\n      dup2\n      lt\n      iszero\n      tag_423\n      jumpi\n      0x0e\n      swap1\n        /* \"Contract/Voter.sol\":1378:1387  voterList */\n      0x0a\n      0x00\n        /* \"Contract/Voter.sol\":83:2897  contract Voter is Candidate{... */\n      mstore\n      mul\n      0xc65a7bb8d6351c1cf70c95a316cc6a92839c986682d98bc35f958f4883f9d2a8\n      add\n      swap1\n      0x00\n      swap1\n      jump\t// out\n    tag_423:\n      mstore(0x00, shl(0xe0, 0x4e487b71))\n      mstore(0x04, 0x32)\n      revert(0x00, 0x24)\n    tag_12:\n      swap1\n      0x01\n      dup3\n      dup2\n      shr\n      swap3\n      and\n      dup1\n      iszero\n      tag_425\n      jumpi\n    tag_426:\n      0x20\n      dup4\n      lt\n      eq\n      tag_427\n      jumpi\n      jump\t// out\n    tag_427:\n      mstore(0x00, shl(0xe0, 0x4e487b71))\n      mstore(0x04, 0x22)\n      revert(0x00, 0x24)\n    tag_425:\n      swap2\n      0x7f\n      and\n      swap2\n      jump(tag_426)\n    tag_13:\n      swap1\n      0x00\n      swap3\n      swap2\n      dup1\n      sload\n      swap2\n      tag_429\n      dup4\n      tag_12\n      jump\t// in\n    tag_429:\n      swap2\n      dup3\n      dup3\n      mstore\n      0x01\n      swap4\n      dup5\n      dup2\n      and\n      swap1\n      dup2\n      0x00\n      eq\n      tag_430\n      jumpi\n      pop\n      0x01\n      eq\n      tag_432\n      jumpi\n    tag_433:\n      pop\n      pop\n      pop\n      pop\n      jump\t// out\n    tag_432:\n      swap1\n      swap2\n      swap4\n      swap5\n      pop\n      0x00\n      mstore\n      0x20\n      swap3\n      dup4\n      0x00\n      keccak256\n      swap3\n      dup5\n      0x00\n      swap5\n    tag_434:\n      dup4\n      dup7\n      lt\n      tag_435\n      jumpi\n      pop\n      pop\n      pop\n      pop\n      add\n      add\n      swap1\n      codesize\n      dup1\n      dup1\n      dup1\n      jump(tag_433)\n    tag_435:\n      dup1\n      sload\n      dup6\n      dup8\n      add\n      dup4\n      add\n      mstore\n      swap5\n      add\n      swap4\n      dup6\n      swap1\n      dup3\n      add\n      jump(tag_434)\n    tag_430:\n      swap3\n      swap5\n      pop\n      pop\n      pop\n      0x20\n      swap4\n      swap5\n      pop\n      not(0xff)\n      and\n      dup4\n      dup4\n      add\n      mstore\n      iszero\n      iszero\n      0x05\n      shl\n      add\n      add\n      swap1\n      codesize\n      dup1\n      dup1\n      dup1\n      jump(tag_433)\n    tag_14:\n      swap1\n      0x0b\n      0x0160\n      0x40\n      swap4\n      tag_437\n      dup6\n      mload\n      swap2\n      tag_438\n      dup4\n      tag_1\n      jump\t// in\n    tag_438:\n      tag_107\n      dup4\n      swap8\n      0x01\n      dup1\n      0xa0\n      shl\n      sub\n      dup4\n      sload\n      and\n      dup6\n      mstore\n      dup1\n      mload\n      tag_440\n      dup2\n      tag_441\n      dup2\n      0x01\n      dup9\n      add\n      tag_13\n      jump\t// in\n    tag_441:\n      sub\n      dup3\n      tag_4\n      jump\t// in\n    tag_440:\n      0x20\n      dup7\n      add\n      mstore\n      0x02\n      dup4\n      add\n      sload\n      dup2\n      dup7\n      add\n      mstore\n      0x03\n      dup4\n      add\n      sload\n      0x60\n      dup7\n      add\n      mstore\n      dup1\n      mload\n      tag_442\n      dup2\n      tag_441\n      dup2\n      0x04\n      dup9\n      add\n      tag_13\n      jump\t// in\n    tag_442:\n      0x80\n      dup7\n      add\n      mstore\n      dup1\n      mload\n      tag_444\n      dup2\n      tag_441\n      dup2\n      0x05\n      dup9\n      add\n      tag_13\n      jump\t// in\n    tag_444:\n      0xa0\n      dup7\n      add\n      mstore\n      dup1\n      mload\n      tag_446\n      dup2\n      tag_441\n      dup2\n      0x06\n      dup9\n      add\n      tag_13\n      jump\t// in\n    tag_446:\n      0xc0\n      dup7\n      add\n      mstore\n      dup1\n      mload\n      tag_448\n      dup2\n      tag_441\n      dup2\n      0x07\n      dup9\n      add\n      tag_13\n      jump\t// in\n    tag_448:\n      0xe0\n      dup7\n      add\n      mstore\n      dup1\n      mload\n      tag_450\n      dup2\n      tag_441\n      dup2\n      0x08\n      dup9\n      add\n      tag_13\n      jump\t// in\n    tag_450:\n      0x0100\n      dup7\n      add\n      mstore\n      dup1\n      mload\n      tag_452\n      dup2\n      tag_441\n      dup2\n      0x09\n      dup9\n      add\n      tag_13\n      jump\t// in\n    tag_452:\n      0x0120\n      dup7\n      add\n      mstore\n      dup1\n      mload\n      tag_454\n      dup2\n      tag_441\n      dup2\n      0x0a\n      dup9\n      add\n      tag_13\n      jump\t// in\n    tag_454:\n      0x0140\n      dup7\n      add\n      mstore\n      mload\n      dup1\n      swap7\n      dup2\n      swap4\n      add\n      tag_13\n      jump\t// in\n    tag_437:\n      add\n      mstore\n      jump\t// out\n    tag_15:\n      swap5\n      swap4\n      swap3\n      tag_456\n      0x60\n      swap4\n      tag_457\n      tag_458\n      swap5\n      0x80\n      dup11\n      mstore\n      0x80\n      dup11\n      add\n      swap1\n      tag_7\n      jump\t// in\n    tag_457:\n      swap1\n      dup9\n      dup3\n      sub\n      0x20\n      dup11\n      add\n      mstore\n      tag_6\n      jump\t// in\n    tag_456:\n      swap1\n      dup7\n      dup3\n      sub\n      0x40\n      dup9\n      add\n      mstore\n      tag_6\n      jump\t// in\n    tag_458:\n      swap4\n      add\n      mstore\n      jump\t// out\n    tag_16:\n        /* \"Contract/Candidate.sol\":1400:1413  candidateList */\n      0x06\n        /* \"Contract/Voter.sol\":83:2897  contract Voter is Candidate{... */\n      sload\n      dup2\n      lt\n      iszero\n      tag_423\n      jumpi\n        /* \"Contract/Candidate.sol\":1400:1413  candidateList */\n      0x06\n      0x00\n        /* \"Contract/Voter.sol\":83:2897  contract Voter is Candidate{... */\n      mstore\n      0x04\n      shl\n      0xf652222313e28459528d920b65115c16c04f3efc82aaedc97be59f3f377c0d3f\n      add\n      swap1\n      0x00\n      swap1\n      jump\t// out\n    tag_17:\n      dup2\n      dup2\n      lt\n      tag_462\n      jumpi\n      pop\n      pop\n      jump\t// out\n    tag_462:\n      0x00\n      dup2\n      sstore\n      0x01\n      add\n      jump(tag_17)\n    tag_18:\n      swap2\n      swap1\n      swap2\n      dup3\n      mload\n      0xffffffffffffffff\n      dup2\n      gt\n      tag_387\n      jumpi\n      tag_466\n      dup3\n      sload\n      tag_12\n      jump\t// in\n    tag_466:\n      0x1f\n      dup2\n      gt\n      tag_467\n      jumpi\n    tag_468:\n      pop\n      0x20\n      dup1\n      0x1f\n      dup4\n      gt\n      0x01\n      eq\n      tag_469\n      jumpi\n      pop\n      dup2\n      swap3\n      swap4\n      swap5\n      0x00\n      swap3\n      tag_471\n      jumpi\n    tag_472:\n      pop\n      pop\n      dup2\n      0x01\n      shl\n      swap2\n      not(0x00)\n      swap1\n      0x03\n      shl\n      shr\n      not\n      and\n      or\n      swap1\n      sstore\n      jump\t// out\n    tag_471:\n      add\n      mload\n      swap1\n      pop\n      codesize\n      dup1\n      jump(tag_472)\n    tag_469:\n      swap1\n      not(0x1f)\n      dup4\n      and\n      swap6\n      dup5\n      0x00\n      mstore\n      dup3\n      0x00\n      keccak256\n      swap3\n      0x00\n      swap1\n    tag_474:\n      dup9\n      dup3\n      lt\n      tag_475\n      jumpi\n      pop\n      pop\n      dup4\n      0x01\n      swap6\n      swap7\n      swap8\n      lt\n      tag_477\n      jumpi\n    tag_478:\n      pop\n      pop\n      pop\n      dup2\n      shl\n      add\n      swap1\n      sstore\n      jump\t// out\n    tag_477:\n      add\n      mload\n      not(0x00)\n      0xf8\n      dup5\n      0x03\n      shl\n      and\n      shr\n      not\n      and\n      swap1\n      sstore\n      codesize\n      dup1\n      dup1\n      jump(tag_478)\n    tag_475:\n      dup1\n      0x01\n      dup6\n      swap7\n      dup3\n      swap5\n      swap7\n      dup7\n      add\n      mload\n      dup2\n      sstore\n      add\n      swap6\n      add\n      swap4\n      add\n      swap1\n      jump(tag_474)\n    tag_467:\n      tag_479\n      swap1\n      dup4\n      0x00\n      mstore\n      keccak256(0x00, 0x20)\n      0x1f\n      dup5\n      add\n      0x05\n      shr\n      dup2\n      add\n      swap2\n      0x20\n      dup6\n      lt\n      tag_480\n      jumpi\n    tag_481:\n      0x1f\n      add\n      0x05\n      shr\n      add\n      swap1\n      tag_17\n      jump\t// in\n    tag_479:\n      codesize\n      jump(tag_468)\n    tag_480:\n      swap1\n      swap2\n      pop\n      dup2\n      swap1\n      jump(tag_481)\n    tag_19:\n      dup2\n      mload\n      swap2\n      0x01\n      dup1\n      0xa0\n      shl\n      sub\n      dup1\n      dup5\n      mload\n      and\n      shl(0xa0, sub(shl(0x60, 0x01), 0x01))\n      dup5\n      sload\n      and\n      or\n      dup4\n      sstore\n      0x80\n      0x0f\n      0x20\n      swap5\n      tag_482\n      0x0160\n      dup8\n      dup10\n      add\n      mload\n      swap9\n      tag_483\n      0x01\n      swap11\n      dup12\n      dup7\n      add\n      tag_18\n      jump\t// in\n    tag_483:\n      0x40\n      dup2\n      add\n      mload\n      0x02\n      dup6\n      add\n      sstore\n      0x60\n      dup2\n      add\n      mload\n      0x03\n      dup6\n      add\n      sstore\n      tag_484\n      dup7\n      dup3\n      add\n      mload\n      0x04\n      dup7\n      add\n      tag_18\n      jump\t// in\n    tag_484:\n      tag_485\n      0xa0\n      dup3\n      add\n      mload\n      0x05\n      dup7\n      add\n      tag_18\n      jump\t// in\n    tag_485:\n      tag_486\n      0xc0\n      dup3\n      add\n      mload\n      0x06\n      dup7\n      add\n      tag_18\n      jump\t// in\n    tag_486:\n      tag_487\n      0xe0\n      dup3\n      add\n      mload\n      0x07\n      dup7\n      add\n      tag_18\n      jump\t// in\n    tag_487:\n      tag_488\n      0x0100\n      dup3\n      add\n      mload\n      0x08\n      dup7\n      add\n      tag_18\n      jump\t// in\n    tag_488:\n      tag_489\n      0x0120\n      dup3\n      add\n      mload\n      0x09\n      dup7\n      add\n      tag_18\n      jump\t// in\n    tag_489:\n      tag_490\n      0x0140\n      dup3\n      add\n      mload\n      0x0a\n      dup7\n      add\n      tag_18\n      jump\t// in\n    tag_490:\n      add\n      mload\n      0x0b\n      dup4\n      add\n      tag_18\n      jump\t// in\n    tag_482:\n      tag_491\n      dup7\n      dup7\n      add\n      mload\n      0x0c\n      dup4\n      add\n      tag_18\n      jump\t// in\n    tag_491:\n      tag_492\n      0x40\n      dup7\n      add\n      mload\n      0x0d\n      dup4\n      add\n      tag_18\n      jump\t// in\n    tag_492:\n      0x60\n      dup6\n      add\n      mload\n      0x0e\n      dup3\n      add\n      sstore\n      add\n      swap3\n      add\n      mload\n      swap3\n      dup4\n      mload\n      swap4\n      0xffffffffffffffff\n      dup6\n      gt\n      tag_387\n      jumpi\n      shl(0x40, 0x01)\n      dup6\n      gt\n      tag_387\n      jumpi\n      dup2\n      swap1\n      dup5\n      sload\n      dup7\n      dup7\n      sstore\n      dup1\n      dup8\n      lt\n      tag_497\n      jumpi\n    tag_498:\n      pop\n      add\n      swap3\n      0x00\n      mstore\n      dup1\n      0x00\n      keccak256\n      swap2\n      0x00\n    tag_499:\n      dup6\n      dup2\n      lt\n      tag_500\n      jumpi\n      pop\n      pop\n      pop\n      pop\n      pop\n      pop\n      pop\n      jump\t// out\n    tag_500:\n      dup5\n      mload\n      dup3\n      and\n      dup5\n      dup3\n      add\n      sstore\n      swap4\n      dup3\n      add\n      swap4\n      dup7\n      add\n      jump(tag_499)\n    tag_497:\n      tag_502\n      swap1\n      dup7\n      0x00\n      mstore\n      dup8\n      dup5\n      0x00\n      keccak256\n      swap2\n      dup3\n      add\n      swap2\n      add\n      tag_17\n      jump\t// in\n    tag_502:\n      codesize\n      jump(tag_498)\n    tag_20:\n      0xffffffffffffffff\n      dup2\n      gt\n      tag_387\n      jumpi\n      0x05\n      shl\n      0x20\n      add\n      swap1\n      jump\t// out\n    tag_21:\n      swap1\n      dup2\n      sload\n      dup1\n      dup3\n      mstore\n      0x20\n      dup1\n      swap3\n      add\n      swap3\n      0x00\n      mstore\n      dup2\n      0x00\n      keccak256\n      swap2\n      0x00\n      swap1\n    tag_505:\n      dup3\n      dup3\n      lt\n      tag_506\n      jumpi\n      pop\n      pop\n      pop\n      pop\n      swap1\n      jump\t// out\n    tag_506:\n      dup4\n      sload\n      sub(shl(0xa0, 0x01), 0x01)\n      and\n      dup6\n      mstore\n      swap4\n      dup5\n      add\n      swap4\n      0x01\n      swap4\n      dup5\n      add\n      swap4\n      swap1\n      swap2\n      add\n      swap1\n      jump(tag_505)\n    tag_22:\n      swap1\n      0x0f\n      0x80\n      mload(0x40)\n      tag_508\n      dup2\n      tag_2\n      jump\t// in\n    tag_508:\n      tag_437\n      dup2\n      swap6\n      tag_510\n      dup2\n      tag_14\n      jump\t// in\n    tag_510:\n      dup4\n      mstore\n      mload(0x40)\n      tag_511\n      dup2\n      tag_441\n      dup2\n      0x0c\n      dup7\n      add\n      tag_13\n      jump\t// in\n    tag_511:\n      0x20\n      dup5\n      add\n      mstore\n      mload(0x40)\n      tag_513\n      dup2\n      tag_441\n      dup2\n      0x0d\n      dup7\n      add\n      tag_13\n      jump\t// in\n    tag_513:\n      0x40\n      dup5\n      add\n      mstore\n      0x0e\n      dup2\n      add\n      sload\n      0x60\n      dup5\n      add\n      mstore\n      tag_107\n      mload(0x40)\n      dup1\n      swap7\n      dup2\n      swap4\n      add\n      tag_21\n      jump\t// in\n    tag_23:\n      mload(0x40)\n      swap1\n      tag_516\n      dup3\n      tag_1\n      jump\t// in\n    tag_516:\n      dup2\n      0x00\n      dup2\n      mstore\n      0x0160\n      0x60\n      swap2\n      dup3\n      0x20\n      dup3\n      add\n      mstore\n      0x00\n      0x40\n      dup3\n      add\n      mstore\n      0x00\n      dup4\n      dup3\n      add\n      mstore\n      dup3\n      0x80\n      dup3\n      add\n      mstore\n      dup3\n      0xa0\n      dup3\n      add\n      mstore\n      dup3\n      0xc0\n      dup3\n      add\n      mstore\n      dup3\n      0xe0\n      dup3\n      add\n      mstore\n      dup3\n      0x0100\n      dup3\n      add\n      mstore\n      dup3\n      0x0120\n      dup3\n      add\n      mstore\n      dup3\n      0x0140\n      dup3\n      add\n      mstore\n      add\n      mstore\n      jump\t// out\n        /* \"Contract/Utils.sol\":574:1049  function updateCounter(string memory _gender) public {... */\n    tag_24:\n        /* \"Contract/Voter.sol\":83:2897  contract Voter is Candidate{... */\n      dup1\n      mload\n      swap1\n      0x20\n      swap2\n      dup3\n      dup3\n      add\n        /* \"Contract/Utils.sol\":640:665  keccak256(bytes(_gender)) */\n      swap1\n      dup2\n      keccak256\n      swap1\n      0x00\n        /* \"Contract/Voter.sol\":83:2897  contract Voter is Candidate{... */\n      swap3\n      dup4\n      sload\n      swap3\n      dup4\n      iszero\n      tag_517\n      jumpi\n      swap1\n      dup6\n      swap3\n      swap2\n      dup6\n      dup1\n      mstore\n      mload(0x40)\n      dup7\n      swap1\n      0x290decd9548b62a8d60345a988386fc84ba6bc95484008f6362f93160ef3e563\n      dup2\n      dup2\n      sload\n      swap4\n      tag_519\n      dup6\n      tag_12\n      jump\t// in\n    tag_519:\n      swap3\n      dup4\n      dup4\n      mstore\n      dup10\n      dup4\n      add\n      swap6\n      0x01\n      swap14\n      dup15\n      dup3\n      and\n      swap2\n      dup3\n      0x00\n      eq\n      tag_520\n      jumpi\n      pop\n      pop\n      0x01\n      eq\n      tag_522\n      jumpi\n    tag_523:\n      pop\n      tag_524\n      swap3\n      pop\n      sub\n      dup3\n      tag_4\n      jump\t// in\n    tag_524:\n      mload\n        /* \"Contract/Utils.sol\":669:701  keccak256(bytes(gender_list[0])) */\n      swap1\n      keccak256\n        /* \"Contract/Utils.sol\":640:701  keccak256(bytes(_gender)) == keccak256(bytes(gender_list[0])) */\n      sub\n        /* \"Contract/Utils.sol\":669:701  keccak256(bytes(gender_list[0])) */\n      tag_525\n      jumpi\n        /* \"Contract/Voter.sol\":83:2897  contract Voter is Candidate{... */\n      pop\n      pop\n      pop\n      pop\n        /* \"Contract/Utils.sol\":734:749  totalMaleVoters */\n      0x02\n        /* \"Contract/Voter.sol\":83:2897  contract Voter is Candidate{... */\n      sload\n      swap2\n      dup3\n      add\n      dup1\n      swap3\n      gt\n      tag_527\n      jumpi\n      pop\n        /* \"Contract/Utils.sol\":734:749  totalMaleVoters */\n      0x02\n        /* \"Contract/Voter.sol\":83:2897  contract Voter is Candidate{... */\n      sstore\n        /* \"Contract/Utils.sol\":574:1049  function updateCounter(string memory _gender) public {... */\n      jump\t// out\n        /* \"Contract/Voter.sol\":83:2897  contract Voter is Candidate{... */\n    tag_527:\n      shl(0xe0, 0x4e487b71)\n      dup2\n      mstore\n      mstore(0x04, 0x11)\n      0x24\n      swap1\n      revert\n        /* \"Contract/Utils.sol\":637:1043  if(keccak256(bytes(_gender)) == keccak256(bytes(gender_list[0]))){... */\n    tag_525:\n        /* \"Contract/Voter.sol\":83:2897  contract Voter is Candidate{... */\n      dup1\n      mload\n        /* \"Contract/Utils.sol\":775:800  keccak256(bytes(_gender)) */\n      dup3\n      keccak256\n        /* \"Contract/Voter.sol\":83:2897  contract Voter is Candidate{... */\n      dup5\n      dup8\n      lt\n      iszero\n      tag_530\n      jumpi\n      dup6\n      dup1\n      mstore\n      dup7\n      mload(0x40)\n      dup8\n      dup2\n      0x290decd9548b62a8d60345a988386fc84ba6bc95484008f6362f93160ef3e564\n      swap2\n      dup3\n      sload\n      swap3\n      tag_532\n      dup5\n      tag_12\n      jump\t// in\n    tag_532:\n      swap4\n      dup5\n      dup5\n      mstore\n      dup11\n      dup1\n      dup6\n      add\n      swap8\n      dup3\n      and\n      swap2\n      dup3\n      0x00\n      eq\n      tag_533\n      jumpi\n      pop\n      pop\n      0x01\n      eq\n      tag_535\n      jumpi\n    tag_536:\n      pop\n      tag_537\n      swap3\n      pop\n      sub\n      dup3\n      tag_4\n      jump\t// in\n    tag_537:\n      mload\n        /* \"Contract/Utils.sol\":804:836  keccak256(bytes(gender_list[1])) */\n      swap1\n      keccak256\n        /* \"Contract/Utils.sol\":775:836  keccak256(bytes(_gender)) == keccak256(bytes(gender_list[1])) */\n      sub\n        /* \"Contract/Utils.sol\":804:836  keccak256(bytes(gender_list[1])) */\n      tag_538\n      jumpi\n        /* \"Contract/Voter.sol\":83:2897  contract Voter is Candidate{... */\n      pop\n      pop\n      pop\n      pop\n        /* \"Contract/Utils.sol\":871:888  totalFemaleVoters */\n      0x03\n        /* \"Contract/Voter.sol\":83:2897  contract Voter is Candidate{... */\n      sload\n      swap2\n      dup3\n      add\n      dup1\n      swap3\n      gt\n      tag_527\n      jumpi\n      pop\n        /* \"Contract/Utils.sol\":871:888  totalFemaleVoters */\n      0x03\n        /* \"Contract/Voter.sol\":83:2897  contract Voter is Candidate{... */\n      sstore\n        /* \"Contract/Utils.sol\":574:1049  function updateCounter(string memory _gender) public {... */\n      jump\t// out\n        /* \"Contract/Utils.sol\":772:1043  if(keccak256(bytes(_gender)) == keccak256(bytes(gender_list[1]))){... */\n    tag_538:\n        /* \"Contract/Voter.sol\":83:2897  contract Voter is Candidate{... */\n      mload\n        /* \"Contract/Utils.sol\":914:939  keccak256(bytes(_gender)) */\n      swap1\n      keccak256\n        /* \"Contract/Voter.sol\":83:2897  contract Voter is Candidate{... */\n      swap2\n        /* \"Contract/Utils.sol\":971:972  2 */\n      0x02\n        /* \"Contract/Voter.sol\":83:2897  contract Voter is Candidate{... */\n      lt\n      iszero\n      tag_543\n      jumpi\n      dup3\n      dup1\n      mstore\n      mload(0x40)\n      dup4\n      swap2\n      dup2\n      0x290decd9548b62a8d60345a988386fc84ba6bc95484008f6362f93160ef3e565\n      swap4\n      dup5\n      sload\n      swap5\n      tag_545\n      dup7\n      tag_12\n      jump\t// in\n    tag_545:\n      swap1\n      dup2\n      dup5\n      mstore\n      dup5\n      dup5\n      add\n      swap7\n      dup11\n      dup2\n      and\n      swap1\n      dup2\n      0x00\n      eq\n      tag_546\n      jumpi\n      pop\n      0x01\n      eq\n      tag_548\n      jumpi\n    tag_549:\n      pop\n      pop\n      tag_550\n      swap3\n      pop\n      sub\n      dup3\n      tag_4\n      jump\t// in\n    tag_550:\n      mload\n        /* \"Contract/Utils.sol\":943:975  keccak256(bytes(gender_list[2])) */\n      swap1\n      keccak256\n        /* \"Contract/Utils.sol\":914:975  keccak256(bytes(_gender)) == keccak256(bytes(gender_list[2])) */\n      eq\n        /* \"Contract/Utils.sol\":911:1043  if(keccak256(bytes(_gender)) == keccak256(bytes(gender_list[2]))){... */\n      tag_551\n      jumpi\n        /* \"Contract/Utils.sol\":772:1043  if(keccak256(bytes(_gender)) == keccak256(bytes(gender_list[1]))){... */\n      pop\n      pop\n        /* \"Contract/Utils.sol\":574:1049  function updateCounter(string memory _gender) public {... */\n      jump\t// out\n        /* \"Contract/Utils.sol\":911:1043  if(keccak256(bytes(_gender)) == keccak256(bytes(gender_list[2]))){... */\n    tag_551:\n        /* \"Contract/Utils.sol\":1009:1025  totalOtherVoters */\n      0x04\n        /* \"Contract/Voter.sol\":83:2897  contract Voter is Candidate{... */\n      sload\n      swap2\n      dup3\n      add\n      dup1\n      swap3\n      gt\n      tag_527\n      jumpi\n      pop\n        /* \"Contract/Utils.sol\":1009:1025  totalOtherVoters */\n      0x04\n        /* \"Contract/Voter.sol\":83:2897  contract Voter is Candidate{... */\n      sstore\n        /* \"Contract/Utils.sol\":574:1049  function updateCounter(string memory _gender) public {... */\n      jump\t// out\n        /* \"Contract/Voter.sol\":83:2897  contract Voter is Candidate{... */\n    tag_548:\n      dup9\n      mstore\n      dup8\n      swap2\n      pop\n      dup9\n      0x63d75db57ae45c3799740c3cd8dcee96a498324843d79ae390adc81d74b52f13\n    tag_555:\n      dup3\n      dup5\n      lt\n      tag_556\n      jumpi\n      pop\n      pop\n      pop\n      swap2\n      tag_550\n      swap3\n      dup3\n      add\n      add\n      codesize\n      dup1\n      jump(tag_549)\n    tag_556:\n      dup1\n      sload\n      dup8\n      dup6\n      add\n      dup8\n      add\n      mstore\n      dup7\n      swap5\n      pop\n      swap3\n      dup6\n      add\n      swap3\n      dup11\n      swap2\n      add\n      jump(tag_555)\n    tag_546:\n      swap2\n      pop\n      pop\n      tag_550\n      swap5\n      swap3\n      pop\n      not(0xff)\n      and\n      dup7\n      mstore\n      iszero\n      iszero\n      0x05\n      shl\n      dup3\n      add\n      add\n      codesize\n      dup1\n      jump(tag_549)\n    tag_543:\n      shl(0xe0, 0x4e487b71)\n      dup4\n      mstore\n      mstore(0x04, 0x32)\n      0x24\n      dup4\n      revert\n    tag_535:\n      dup12\n      mstore\n      pop\n      dup3\n      swap1\n      pop\n      dup8\n      dup11\n      dup13\n      0x6c13d8c1c5df666ea9ca2a428504a3776c8ca01021c3a1524ca7d765f600979a\n    tag_558:\n      dup6\n      dup4\n      lt\n      tag_559\n      jumpi\n      pop\n      pop\n      tag_537\n      swap4\n      pop\n      dup3\n      add\n      add\n      codesize\n      jump(tag_536)\n    tag_559:\n      dup1\n      swap2\n      swap3\n      swap5\n      pop\n      sload\n      dup4\n      dup6\n      dup9\n      add\n      add\n      mstore\n      add\n      swap2\n      add\n      dup9\n      swap1\n      dup13\n      dup6\n      swap4\n      jump(tag_558)\n    tag_533:\n      not(0xff)\n      and\n      dup9\n      mstore\n      tag_537\n      swap6\n      iszero\n      iszero\n      0x05\n      shl\n      dup6\n      add\n      add\n      swap3\n      pop\n      codesize\n      swap2\n      pop\n      tag_536\n      swap1\n      pop\n      jump\n    tag_530:\n      shl(0xe0, 0x4e487b71)\n      dup7\n      mstore\n      mstore(0x04, 0x32)\n      0x24\n      dup7\n      revert\n    tag_522:\n      dup12\n      mstore\n      pop\n      dup3\n      swap1\n      pop\n      dup8\n      dup11\n      dup13\n      0x510e4e770828ddbf7f7b00ab00a9f6adaf81c0dc9cc85f1f8249c256942d61d9\n    tag_561:\n      dup6\n      dup4\n      lt\n      tag_562\n      jumpi\n      pop\n      pop\n      tag_524\n      swap4\n      pop\n      dup3\n      add\n      add\n      codesize\n      jump(tag_523)\n    tag_562:\n      dup1\n      swap2\n      swap3\n      swap5\n      pop\n      sload\n      dup4\n      dup6\n      dup9\n      add\n      add\n      mstore\n      add\n      swap2\n      add\n      dup9\n      swap1\n      dup13\n      dup6\n      swap4\n      jump(tag_561)\n    tag_520:\n      not(0xff)\n      and\n      dup9\n      mstore\n      tag_524\n      swap6\n      iszero\n      iszero\n      0x05\n      shl\n      dup6\n      add\n      add\n      swap3\n      pop\n      codesize\n      swap2\n      pop\n      tag_523\n      swap1\n      pop\n      jump\n    tag_517:\n      shl(0xe0, 0x4e487b71)\n      dup6\n      mstore\n      mstore(0x04, 0x32)\n      0x24\n      dup6\n      revert\n    tag_25:\n      dup1\n      sload\n      swap1\n      shl(0x40, 0x01)\n      dup3\n      lt\n      iszero\n      tag_387\n      jumpi\n      0x01\n      dup3\n      add\n      dup1\n      dup3\n      sstore\n      dup3\n      lt\n      iszero\n      tag_423\n      jumpi\n      0x00\n      mstore\n      keccak256(0x00, 0x20)\n      add\n      swap1\n      0x01\n      dup1\n      0xa0\n      shl\n      sub\n      and\n      shl(0xa0, sub(shl(0x60, 0x01), 0x01))\n      dup3\n      sload\n      and\n      or\n      swap1\n      sstore\n      jump\t// out\n    tag_26:\n      not(0x00)\n      dup2\n      eq\n      tag_568\n      jumpi\n      0x01\n      add\n      swap1\n      jump\t// out\n    tag_568:\n      mstore(0x00, shl(0xe0, 0x4e487b71))\n      mstore(0x04, 0x11)\n      revert(0x00, 0x24)\n    tag_27:\n      swap1\n      dup1\n      mload\n      0x01\n      dup1\n      0xa0\n      shl\n      sub\n      dup1\n      dup3\n      mload\n      and\n      shl(0xa0, sub(shl(0x60, 0x01), 0x01))\n      dup6\n      sload\n      and\n      or\n      dup5\n      sstore\n      0x20\n      swap1\n      tag_570\n      0x0160\n      dup4\n      dup6\n      add\n      mload\n      swap5\n      tag_571\n      0x01\n      swap7\n      dup8\n      dup11\n      add\n      tag_18\n      jump\t// in\n    tag_571:\n      0x40\n      dup2\n      add\n      mload\n      0x02\n      dup10\n      add\n      sstore\n      0x60\n      dup2\n      add\n      mload\n      0x03\n      dup10\n      add\n      sstore\n      tag_572\n      0x80\n      dup3\n      add\n      mload\n      0x04\n      dup11\n      add\n      tag_18\n      jump\t// in\n    tag_572:\n      tag_573\n      0xa0\n      dup3\n      add\n      mload\n      0x05\n      dup11\n      add\n      tag_18\n      jump\t// in\n    tag_573:\n      tag_574\n      0xc0\n      dup3\n      add\n      mload\n      0x06\n      dup11\n      add\n      tag_18\n      jump\t// in\n    tag_574:\n      tag_575\n      0xe0\n      dup3\n      add\n      mload\n      0x07\n      dup11\n      add\n      tag_18\n      jump\t// in\n    tag_575:\n      tag_576\n      0x0100\n      dup3\n      add\n      mload\n      0x08\n      dup11\n      add\n      tag_18\n      jump\t// in\n    tag_576:\n      tag_577\n      0x0120\n      dup3\n      add\n      mload\n      0x09\n      dup11\n      add\n      tag_18\n      jump\t// in\n    tag_577:\n      tag_578\n      0x0140\n      dup3\n      add\n      mload\n      0x0a\n      dup11\n      add\n      tag_18\n      jump\t// in\n    tag_578:\n      add\n      mload\n      0x0b\n      dup8\n      add\n      tag_18\n      jump\t// in\n    tag_570:\n      0x0c\n      dup6\n      add\n      swap1\n      dup3\n      dup6\n      add\n      mload\n      swap3\n      dup4\n      mload\n      swap4\n      0xffffffffffffffff\n      dup6\n      gt\n      tag_387\n      jumpi\n      shl(0x40, 0x01)\n      dup6\n      gt\n      tag_387\n      jumpi\n      dup2\n      swap1\n      dup5\n      sload\n      dup7\n      dup7\n      sstore\n      dup1\n      dup8\n      lt\n      tag_583\n      jumpi\n    tag_584:\n      pop\n      add\n      swap3\n      0x00\n      mstore\n      dup1\n      0x00\n      keccak256\n      swap2\n      0x00\n    tag_585:\n      dup6\n      dup2\n      lt\n      tag_586\n      jumpi\n      pop\n      pop\n      pop\n      pop\n      pop\n      pop\n      pop\n      0x40\n      0x0d\n      swap2\n      add\n      mload\n      swap2\n      add\n      sstore\n      jump\t// out\n    tag_586:\n      dup5\n      mload\n      dup3\n      and\n      dup5\n      dup3\n      add\n      sstore\n      swap4\n      dup3\n      add\n      swap4\n      dup7\n      add\n      jump(tag_585)\n    tag_583:\n      tag_588\n      swap1\n      dup7\n      0x00\n      mstore\n      dup8\n      dup5\n      0x00\n      keccak256\n      swap2\n      dup3\n      add\n      swap2\n      add\n      tag_17\n      jump\t// in\n    tag_588:\n      codesize\n      jump(tag_584)\n    tag_28:\n      swap1\n      mload(0x40)\n      tag_589\n      dup2\n      tag_3\n      jump\t// in\n    tag_589:\n      0x40\n      0x0d\n      dup3\n      swap5\n      tag_590\n      dup2\n      tag_14\n      jump\t// in\n    tag_590:\n      dup5\n      mstore\n      dup3\n      mload\n      tag_591\n      dup2\n      tag_441\n      dup2\n      0x0c\n      dup7\n      add\n      tag_21\n      jump\t// in\n    tag_591:\n      0x20\n      dup6\n      add\n      mstore\n      add\n      sload\n      swap2\n      add\n      mstore\n      jump\t// out\n    tag_29:\n      swap1\n        /* \"Contract/Voter.sol\":661:673  adminAddress */\n      0x01\n        /* \"Contract/Voter.sol\":83:2897  contract Voter is Candidate{... */\n      dup3\n      add\n      dup1\n      swap3\n      gt\n      tag_568\n      jumpi\n      jump\t// out\n\n    auxdata: 0xa264697066735822122083eab3102991b4e99cf32212ba5a5c687351a068ac6f05a2fcfb448099f3848064736f6c63430008110033\n}\n",
				"bytecode": {
					"linkReferences": {},
					"object": "608034620002a0576001600160401b0360608201818111838210176200028a576040526200002c620002a5565b600490818152602090634d414c4560e01b8282015284526200004d620002a5565b600681526546454d414c4560d01b82820152818501526200006d620002a5565b60068152654f544845525360d01b8282015260408501526000928354946003958686558087106200020d575b5084805282852085915b878310620000e257868087818b8160025555553360018060a01b031960015416176001558060085580600c55600d5560405161214b90816200031c8239f35b8051805190858211620001fa57908691620000fe8554620002c5565b90601f91828111620001bf575b508391831160011462000154579180600195928695948d9262000148575b5050600019828e1b1c191690841b1785555b01920192019190620000a3565b01519050388062000129565b858b52838b209190601f1984168c5b818110620001a657509160019693918588979694106200018d575b505050831b830185556200013b565b0151600019838f1b60f8161c191690553880806200017e565b8284015185558b96600190950194938401930162000163565b620001e990878d52858d20600585808801821c830193898910620001f0575b01901c019062000302565b386200010b565b93508293620001de565b634e487b7160e01b895260418852602489fd5b8580528684872091820191015b81811062000229575062000099565b806200023860019254620002c5565b8062000247575b50016200021a565b601f908181118414620002615750508781555b386200023f565b836200027c92848c52898c20920160051c8201910162000302565b87868120818355556200025a565b634e487b7160e01b600052604160045260246000fd5b600080fd5b60408051919082016001600160401b038111838210176200028a57604052565b90600182811c92168015620002f7575b6020831014620002e157565b634e487b7160e01b600052602260045260246000fd5b91607f1691620002d5565b8181106200030e575050565b600081556001016200030256fe608060408181526004918236101561001657600080fd5b600092833560e01c918263029c21bd14611219575081630983f185146111fb5781631812dab4146111dc57816324d7806c146111a55781632d23c73514610ec45781632e6997fe14610de157816335bbe70e14610cfe57816350e2e8af14610c8b57816353ac5dc314610c115781636332abc914610bf25781636394a8fa14610b9a5781636dd7d8ea146107ef5781637c054c54146107d05781638287e42f146107765781638ab66a901461070d5781639eda74cf146103e9578163a3ec138d1461038c578163a96278ae14610319578163b0a4ec42146102dd578163b13c744b146101e2578163ba71bef01461016b57508063c63840711461014d5763fc6f94681461012257600080fd5b3461014957816003193601126101495760015490516001600160a01b039091168152602090f35b5080fd5b5034610149578160031936011261014957602090600d549051908152f35b9050346101de5760203660031901126101de57356001600160a01b038116908190036101de5781836101c7926101da958380516101a781611284565b6101af611b33565b815260606020820152015281526009602052206120ca565b90519182916020835260208301906114e7565b0390f35b8280fd5b83915034610149576020366003190112610149578035916006548310156102da57600690521b906101da610237837ff652222313e28459528d920b65115c16c04f3efc82aaedc97be59f3f377c0d3f0161163d565b918051936102728561026b817ff652222313e28459528d920b65115c16c04f3efc82aaedc97be59f3f377c0d4b85016115a7565b03866112a0565b7ff652222313e28459528d920b65115c16c04f3efc82aaedc97be59f3f377c0d4d8251916102cd836102c6817ff652222313e28459528d920b65115c16c04f3efc82aaedc97be59f3f377c0d4c85016115a7565b03846112a0565b0154915194859485611752565b80fd5b83903461014957602036600319011261014957803567ffffffffffffffff81116101de5761031691610311913691016112c2565b611b8f565b80f35b9050346101de5760203660031901126101de5735600b548110156101de579061037a61037392600b6101da95528251938480927f0175b7a638427703f0dbe7bb9bbf987a2551717b34e79f33b5b1008d1fa01db9016115a7565b03836112a0565b5191829160208352602083019061131e565b9050346101de5760203660031901126101de57356001600160a01b038116908190036101de57918192815260096020522090600d6103c98361163d565b9201546103df825193838594855284019061135e565b9060208301520390f35b828461016092836003193601126101495767ffffffffffffffff9381358581116107095761041a90369084016112c2565b906064358681116107055761043290369085016112c2565b906084358781116107015761044a90369086016112c2565b60a4358881116106fd5761046190369087016112c2565b60c4358981116106f95761047890369088016112c2565b60e4358a81116106f55761048f90369089016112c2565b91610104358b81116106f1576104a89036908a016112c2565b93610124358c81116106ed576104c19036908b016112c2565b96610144359c8d116106ed578a60028d9e9d6104e460099e9f8e903691016112c2565b9233815260209e8f522001546106a957918b9a9997959391838f9a98969461050b90611b8f565b898b519e8f61051981611235565b33815201528d60249b8c359101528d60443560608201526080015260a08d015260c08c015260e08b01526101008a015261012089015261014088015286015286519461056486611284565b855283850160609052858786015233865260098452848787209061058791611f68565b600b5490600160401b9182811015610697576001810180600b5581101561068557906105d891600b89527f0175b7a638427703f0dbe7bb9bbf987a2551717b34e79f33b5b1008d1fa01db9016117e2565b600a5490811015610673578060016105f39201600a5561151c565b610662578461060191611f68565b600c5491600183018093116106515750507ff59a1b8573db02cf501c11c9d7d88b5365a59bdf0555cfd387db21cfcaccf4da939461064b91600c55519282849384528301906114e7565b0390a180f35b634e487b7160e01b86526011905284fd5b50634e487b7160e01b855284825284fd5b50634e487b7160e01b85526041825284fd5b634e487b7160e01b8852603285528388fd5b634e487b7160e01b8852604185528388fd5b508c5162461bcd60e51b8152808b018c9052601a60248201527f566f74657220616c7265616479207265676973746572656420210000000000006044820152606490fd5b8a80fd5b8980fd5b8880fd5b8780fd5b8680fd5b8580fd5b8480fd5b8380fd5b9050346101de5760203660031901126101de57356001600160a01b038116908190036101de579181928152600560205220906101da61074b8361163d565b918051936107608561026b81600c85016115a7565b600e8251916102cd836102c681600d85016115a7565b9050346101de5760203660031901126101de57356007548110156101de579061037a6103739260076101da95528251938480927fa66cc928b5edb82af9bd49922954155ab7b0942694bea4ce44661d9a8736c688016115a7565b5050346101495781600319360112610149576020906003549051908152f35b916020915036600319018213610709576001600160a01b03928035908482168083036106fd57600191868354163314610b595733885260098652600d91600383878b20015411610b0857908186928a5260058852600f956108558b888633922001611f01565b338b526009895261086d818c600c9687912001611f01565b818b5260058952600e888c200154868101809111610af557828c5260058a52600e898d20015561089d8554612107565b8555858b815b610aae575b50908b825b610a63575b505050338a526009885283878b2001546108cb90612107565b338b526009895284888c20015589526005875285892093865198888a998a52890160a0905285541660c0890152610180908160e08a0152610240890190860190610914916115a7565b60028601546101008a015260038601546101208a015260bf1992838a8303016101408b0152860190610945916115a7565b88810383016101608a015261095d90600587016115a7565b908289830301908901526006850190610975916115a7565b87810382016101a089015261098d90600786016115a7565b87810382016101c08901526109a590600886016115a7565b87810382016101e08901526109bd90600986016115a7565b87810382016102008901526109d590600a86016115a7565b9087820301610220880152600b8401906109ee916115a7565b90601f1995868884030190880152830190610a08916115a7565b85810385016060870152610a1d9183016115a7565b92600e82015460808601528484030160a08501520190610a3c91611a80565b037f34acf85a95a1dc89bfc38e95c6d8d0e8e5d4544c49e9103ed7882d205ed151f891a180f35b600a54811015610aa95780610a7a610a899261151c565b50548d163314610a8f57611f43565b826108ad565b610aa48388610a9d8461151c565b5001611f01565b611f43565b6108b2565b600654811015610af05780848d610ac7610ad494611791565b50541614610ada57611f43565b816108a3565b610aa4610ae682611791565b508b339101611f01565b6108a8565b634e487b7160e01b8c526011845260248cfd5b855162461bcd60e51b8152808301889052602560248201527f596f752068617665206578636565642074686520766f7465206361737465206c60448201526434b6b4ba1760d91b6064820152608490fd5b606490868087519262461bcd60e51b845283015260248201527f41646d696e20697320726573747269637420746f20636173746520766f74652e6044820152fd5b9050346101de5760203660031901126101de573582548110156101de579061037a61037392846101da95528251938480927f290decd9548b62a8d60345a988386fc84ba6bc95484008f6362f93160ef3e563016115a7565b505034610149578160031936011261014957602090600c549051908152f35b9050346101de5760203660031901126101de57356001600160a01b038116908190036101de57816101da93610c7892606060808451610c4f81611268565b610c57611b33565b81528260208201528286820152848382015201528152600560205220611ac6565b9051918291602083526020830190611489565b9050346101de5760203660031901126101de5735600a548110156101de57600a600e92935202907fc65a7bb8d6351c1cf70c95a316cc6a92839c986682d98bc35f958f4883f9d2b56103c9837fc65a7bb8d6351c1cf70c95a316cc6a92839c986682d98bc35f958f4883f9d2a80161163d565b8284346102da57806003193601126102da57600a54610d1c81611a68565b91610d29845193846112a0565b818352600a815260209283810192827fc65a7bb8d6351c1cf70c95a316cc6a92839c986682d98bc35f958f4883f9d2a8855b838310610dbc57505050508451938085019181865251809252858501958260051b8601019392955b828710610d905785850386f35b909192938280610dac600193603f198a820301865288516114e7565b9601920196019592919092610d83565b600e88600192610dcf859b98999b6120ca565b81520192019201919096949396610d5b565b8284346102da57806003193601126102da57600654610dff81611a68565b91610e0c845193846112a0565b8183526006815260209283810192827ff652222313e28459528d920b65115c16c04f3efc82aaedc97be59f3f377c0d3f855b838310610e9f57505050508451938085019181865251809252858501958260051b8601019392955b828710610e735785850386f35b909192938280610e8f600193603f198a82030186528851611489565b9601920196019592919092610e66565b601088600192610eb2859b98999b611ac6565b81520192019201919096949396610e3e565b9050826101a03660031901126102da5767ffffffffffffffff9282358481116101de57610ef490369085016112c2565b9260643585811161070957610f0c90369083016112c2565b9360843586811161070557610f2490369084016112c2565b9460a43587811161070157610f3c90369085016112c2565b60c4358881116106fd57610f5390369086016112c2565b9060e4358981116106f957610f6b90369087016112c2565b91610104358a81116106f557610f8490369088016112c2565b610124358b81116106f157610f9c90369089016112c2565b90610144358c81116106ed57610fb59036908a016112c2565b92610164358d81116111a157610fce9036908b016112c2565b94610184359d8e116111a15760028b8d9e9f8c610fed913691016112c2565b9d338152600560205220015461115e578b9c9d61100d8c9d9c9b9c611b8f565b60a08b519e8f9061101d82611235565b3382528c602083015260249d8e359083015260443560608301526080820152015260c08d015260e08c01526101008b01526101208a015261014089015261016088015285519661106c88611268565b8752602087015284860152856060860152606060808601523386526005602052611098858588206118e7565b60075490600160401b918281101561069757600181018060075581101561068557906110e991600789527fa66cc928b5edb82af9bd49922954155ab7b0942694bea4ce44661d9a8736c688016117e2565b60065490811015610673578060016111049201600655611791565b6106625784611112916118e7565b600854916001830180931161065157857faa865f867abaa68b8cba3e6df5b4cc018184c6e7fff1d03843d27c69a973e3b061064b87878760085551918291602083526020830190611489565b8a5162461bcd60e51b81526020818c0152601e60248201527f43616e64696461746520616c72656164792072656769737465726564202100006044820152606490fd5b8b80fd5b9050346101de5760203660031901126101de57356001600160a01b0381811691829003610709576020935060015416149051908152f35b5050346101495781600319360112610149576020906008549051908152f35b9050346101de57826003193601126101de5760209250549051908152f35b8490346101495781600319360112610149576020906002548152f35b610180810190811067ffffffffffffffff82111761125257604052565b634e487b7160e01b600052604160045260246000fd5b60a0810190811067ffffffffffffffff82111761125257604052565b6060810190811067ffffffffffffffff82111761125257604052565b90601f8019910116810190811067ffffffffffffffff82111761125257604052565b81601f820112156113195780359067ffffffffffffffff821161125257604051926112f7601f8401601f1916602001856112a0565b8284526020838301011161131957816000926020809301838601378301015290565b600080fd5b919082519283825260005b84811061134a575050826000602080949584010152601f8019910116010190565b602081830181015184830182015201611329565b906114499160018060a01b03815116825261143561142161140d6113f96113e76113d56113c361139d60208901516101808060208d01528b019061131e565b604089015160408b0152606089015160608b015260808901518a820360808c015261131e565b60a088015189820360a08b015261131e565b60c087015188820360c08a015261131e565b60e086015187820360e089015261131e565b61010080860151908783039088015261131e565b61012080850151908683039087015261131e565b61014080840151908583039086015261131e565b91610160809201519181840391015261131e565b90565b90815180825260208080930193019160005b82811061146c575050505090565b83516001600160a01b03168552938101939281019260010161145e565b6114499160806114cc6114ba6114a8855160a0865260a086019061135e565b6020860151858203602087015261131e565b6040850151848203604086015261131e565b9260608101516060840152015190608081840391015261144c565b90604080611513611501855160608652606086019061135e565b6020860151858203602087015261144c565b93015191015290565b600a5481101561155757600e90600a600052027fc65a7bb8d6351c1cf70c95a316cc6a92839c986682d98bc35f958f4883f9d2a80190600090565b634e487b7160e01b600052603260045260246000fd5b90600182811c9216801561159d575b602083101461158757565b634e487b7160e01b600052602260045260246000fd5b91607f169161157c565b90600092918054916115b88361156d565b91828252600193848116908160001461161a57506001146115da575b50505050565b90919394506000526020928360002092846000945b8386106116065750505050010190388080806115d4565b8054858701830152940193859082016115ef565b9294505050602093945060ff191683830152151560051b010190388080806115d4565b90600b61016060409361174e85519161165583611235565b6102c6839760018060a01b03835416855280516116808161167981600188016115a7565b03826112a0565b60208601526002830154818601526003830154606086015280516116ab8161167981600488016115a7565b608086015280516116c38161167981600588016115a7565b60a086015280516116db8161167981600688016115a7565b60c086015280516116f38161167981600788016115a7565b60e0860152805161170b8161167981600888016115a7565b61010086015280516117248161167981600988016115a7565b610120860152805161173d8161167981600a88016115a7565b6101408601525180968193016115a7565b0152565b94939261177e60609361177061178c9460808a5260808a019061135e565b9088820360208a015261131e565b90868203604088015261131e565b930152565b60065481101561155757600660005260041b7ff652222313e28459528d920b65115c16c04f3efc82aaedc97be59f3f377c0d3f0190600090565b8181106117d6575050565b600081556001016117cb565b919091825167ffffffffffffffff811161125257611800825461156d565b601f81116118aa575b50602080601f831160011461184657508192939460009261183b575b50508160011b916000199060031b1c1916179055565b015190503880611825565b90601f198316958460005282600020926000905b88821061189257505083600195969710611879575b505050811b019055565b015160001960f88460031b161c1916905538808061186f565b8060018596829496860151815501950193019061185a565b6118d790836000526020600020601f840160051c810191602085106118dd575b601f0160051c01906117cb565b38611809565b90915081906118ca565b81519160018060a01b03808451166001600160601b0360a01b8454161783556080600f6020946119be610160878901519861192660019a8b86016117e2565b604081015160028501556060810151600385015561194a86820151600486016117e2565b61195b60a0820151600586016117e2565b61196c60c0820151600686016117e2565b61197d60e0820151600786016117e2565b61198f610100820151600886016117e2565b6119a1610120820151600986016117e2565b6119b3610140820151600a86016117e2565b0151600b83016117e2565b6119ce86860151600c83016117e2565b6119df6040860151600d83016117e2565b6060850151600e820155019201519283519367ffffffffffffffff851161125257600160401b85116112525781908454868655808710611a4b575b500192600052806000209160005b858110611a385750505050505050565b8451821684820155938201938601611a28565b611a629086600052878460002091820191016117cb565b38611a1a565b67ffffffffffffffff81116112525760051b60200190565b90815480825260208092019260005281600020916000905b828210611aa6575050505090565b83546001600160a01b031685529384019360019384019390910190611a98565b90600f6080604051611ad781611268565b61174e8195611ae58161163d565b8352604051611afb8161167981600c86016115a7565b6020840152604051611b148161167981600d86016115a7565b6040840152600e81015460608401526102c66040518096819301611a80565b60405190611b4082611235565b8160008152610160606091826020820152600060408201526000838201528260808201528260a08201528260c08201528260e08201528261010082015282610120820152826101408201520152565b805190602091828201908120906000928354928315611eed579085929185805260405186907f290decd9548b62a8d60345a988386fc84ba6bc95484008f6362f93160ef3e56381815493611be28561156d565b928383528983019560019d8e82169182600014611ecf575050600114611e74575b50611c10925003826112a0565b51902003611c435750505050600254918201809211611c2f5750600255565b634e487b7160e01b81526011600452602490fd5b8051822084871015611e60578580528660405187817f290decd9548b62a8d60345a988386fc84ba6bc95484008f6362f93160ef3e56491825492611c868461156d565b938484528a8085019782169182600014611e42575050600114611de7575b50611cb1925003826112a0565b51902003611cd05750505050600354918201809211611c2f5750600355565b5190209160021015611dd3578280526040518391817f290decd9548b62a8d60345a988386fc84ba6bc95484008f6362f93160ef3e56593845494611d138661156d565b90818452848401968a81169081600014611db55750600114611d5d575b5050611d3e925003826112a0565b51902014611d4a575050565b600454918201809211611c2f5750600455565b8852879150887f63d75db57ae45c3799740c3cd8dcee96a498324843d79ae390adc81d74b52f135b828410611d9e5750505091611d3e928201013880611d30565b8054878501870152869450928501928a9101611d85565b915050611d3e94925060ff19168652151560051b8201013880611d30565b634e487b7160e01b83526032600452602483fd5b8b5250829050878a8c7f6c13d8c1c5df666ea9ca2a428504a3776c8ca01021c3a1524ca7d765f600979a5b858310611e29575050611cb1935082010138611ca4565b80919294505483858801015201910188908c8593611e12565b60ff19168852611cb195151560051b8501019250389150611ca49050565b634e487b7160e01b86526032600452602486fd5b8b5250829050878a8c7f510e4e770828ddbf7f7b00ab00a9f6adaf81c0dc9cc85f1f8249c256942d61d95b858310611eb6575050611c10935082010138611c03565b80919294505483858801015201910188908c8593611e9f565b60ff19168852611c1095151560051b8501019250389150611c039050565b634e487b7160e01b85526032600452602485fd5b805490600160401b8210156112525760018201808255821015611557576000526020600020019060018060a01b03166001600160601b0360a01b825416179055565b6000198114611f525760010190565b634e487b7160e01b600052601160045260246000fd5b90805160018060a01b03808251166001600160601b0360a01b85541617845560209061203c6101608385015194611fa3600196878a016117e2565b6040810151600289015560608101516003890155611fc8608082015160048a016117e2565b611fd960a082015160058a016117e2565b611fea60c082015160068a016117e2565b611ffb60e082015160078a016117e2565b61200d61010082015160088a016117e2565b61201f61012082015160098a016117e2565b612031610140820151600a8a016117e2565b0151600b87016117e2565b600c850190828501519283519367ffffffffffffffff851161125257600160401b851161125257819084548686558087106120ad575b500192600052806000209160005b85811061209a57505050505050506040600d910151910155565b8451821684820155938201938601612080565b6120c49086600052878460002091820191016117cb565b38612072565b906040516120d781611284565b6040600d82946120e68161163d565b845282516120fb8161167981600c8601611a80565b60208501520154910152565b9060018201809211611f525756fea264697066735822122083eab3102991b4e99cf32212ba5a5c687351a068ac6f05a2fcfb448099f3848064736f6c63430008110033",
					"opcodes": "PUSH1 0x80 CALLVALUE PUSH3 0x2A0 JUMPI PUSH1 0x1 PUSH1 0x1 PUSH1 0x40 SHL SUB PUSH1 0x60 DUP3 ADD DUP2 DUP2 GT DUP4 DUP3 LT OR PUSH3 0x28A JUMPI PUSH1 0x40 MSTORE PUSH3 0x2C PUSH3 0x2A5 JUMP JUMPDEST PUSH1 0x4 SWAP1 DUP2 DUP2 MSTORE PUSH1 0x20 SWAP1 PUSH4 0x4D414C45 PUSH1 0xE0 SHL DUP3 DUP3 ADD MSTORE DUP5 MSTORE PUSH3 0x4D PUSH3 0x2A5 JUMP JUMPDEST PUSH1 0x6 DUP2 MSTORE PUSH6 0x46454D414C45 PUSH1 0xD0 SHL DUP3 DUP3 ADD MSTORE DUP2 DUP6 ADD MSTORE PUSH3 0x6D PUSH3 0x2A5 JUMP JUMPDEST PUSH1 0x6 DUP2 MSTORE PUSH6 0x4F5448455253 PUSH1 0xD0 SHL DUP3 DUP3 ADD MSTORE PUSH1 0x40 DUP6 ADD MSTORE PUSH1 0x0 SWAP3 DUP4 SLOAD SWAP5 PUSH1 0x3 SWAP6 DUP7 DUP7 SSTORE DUP1 DUP8 LT PUSH3 0x20D JUMPI JUMPDEST POP DUP5 DUP1 MSTORE DUP3 DUP6 KECCAK256 DUP6 SWAP2 JUMPDEST DUP8 DUP4 LT PUSH3 0xE2 JUMPI DUP7 DUP1 DUP8 DUP2 DUP12 DUP2 PUSH1 0x2 SSTORE SSTORE SSTORE CALLER PUSH1 0x1 DUP1 PUSH1 0xA0 SHL SUB NOT PUSH1 0x1 SLOAD AND OR PUSH1 0x1 SSTORE DUP1 PUSH1 0x8 SSTORE DUP1 PUSH1 0xC SSTORE PUSH1 0xD SSTORE PUSH1 0x40 MLOAD PUSH2 0x214B SWAP1 DUP2 PUSH3 0x31C DUP3 CODECOPY RETURN JUMPDEST DUP1 MLOAD DUP1 MLOAD SWAP1 DUP6 DUP3 GT PUSH3 0x1FA JUMPI SWAP1 DUP7 SWAP2 PUSH3 0xFE DUP6 SLOAD PUSH3 0x2C5 JUMP JUMPDEST SWAP1 PUSH1 0x1F SWAP2 DUP3 DUP2 GT PUSH3 0x1BF JUMPI JUMPDEST POP DUP4 SWAP2 DUP4 GT PUSH1 0x1 EQ PUSH3 0x154 JUMPI SWAP2 DUP1 PUSH1 0x1 SWAP6 SWAP3 DUP7 SWAP6 SWAP5 DUP14 SWAP3 PUSH3 0x148 JUMPI JUMPDEST POP POP PUSH1 0x0 NOT DUP3 DUP15 SHL SHR NOT AND SWAP1 DUP5 SHL OR DUP6 SSTORE JUMPDEST ADD SWAP3 ADD SWAP3 ADD SWAP2 SWAP1 PUSH3 0xA3 JUMP JUMPDEST ADD MLOAD SWAP1 POP CODESIZE DUP1 PUSH3 0x129 JUMP JUMPDEST DUP6 DUP12 MSTORE DUP4 DUP12 KECCAK256 SWAP2 SWAP1 PUSH1 0x1F NOT DUP5 AND DUP13 JUMPDEST DUP2 DUP2 LT PUSH3 0x1A6 JUMPI POP SWAP2 PUSH1 0x1 SWAP7 SWAP4 SWAP2 DUP6 DUP9 SWAP8 SWAP7 SWAP5 LT PUSH3 0x18D JUMPI JUMPDEST POP POP POP DUP4 SHL DUP4 ADD DUP6 SSTORE PUSH3 0x13B JUMP JUMPDEST ADD MLOAD PUSH1 0x0 NOT DUP4 DUP16 SHL PUSH1 0xF8 AND SHR NOT AND SWAP1 SSTORE CODESIZE DUP1 DUP1 PUSH3 0x17E JUMP JUMPDEST DUP3 DUP5 ADD MLOAD DUP6 SSTORE DUP12 SWAP7 PUSH1 0x1 SWAP1 SWAP6 ADD SWAP5 SWAP4 DUP5 ADD SWAP4 ADD PUSH3 0x163 JUMP JUMPDEST PUSH3 0x1E9 SWAP1 DUP8 DUP14 MSTORE DUP6 DUP14 KECCAK256 PUSH1 0x5 DUP6 DUP1 DUP9 ADD DUP3 SHR DUP4 ADD SWAP4 DUP10 DUP10 LT PUSH3 0x1F0 JUMPI JUMPDEST ADD SWAP1 SHR ADD SWAP1 PUSH3 0x302 JUMP JUMPDEST CODESIZE PUSH3 0x10B JUMP JUMPDEST SWAP4 POP DUP3 SWAP4 PUSH3 0x1DE JUMP JUMPDEST PUSH4 0x4E487B71 PUSH1 0xE0 SHL DUP10 MSTORE PUSH1 0x41 DUP9 MSTORE PUSH1 0x24 DUP10 REVERT JUMPDEST DUP6 DUP1 MSTORE DUP7 DUP5 DUP8 KECCAK256 SWAP2 DUP3 ADD SWAP2 ADD JUMPDEST DUP2 DUP2 LT PUSH3 0x229 JUMPI POP PUSH3 0x99 JUMP JUMPDEST DUP1 PUSH3 0x238 PUSH1 0x1 SWAP3 SLOAD PUSH3 0x2C5 JUMP JUMPDEST DUP1 PUSH3 0x247 JUMPI JUMPDEST POP ADD PUSH3 0x21A JUMP JUMPDEST PUSH1 0x1F SWAP1 DUP2 DUP2 GT DUP5 EQ PUSH3 0x261 JUMPI POP POP DUP8 DUP2 SSTORE JUMPDEST CODESIZE PUSH3 0x23F JUMP JUMPDEST DUP4 PUSH3 0x27C SWAP3 DUP5 DUP13 MSTORE DUP10 DUP13 KECCAK256 SWAP3 ADD PUSH1 0x5 SHR DUP3 ADD SWAP2 ADD PUSH3 0x302 JUMP JUMPDEST DUP8 DUP7 DUP2 KECCAK256 DUP2 DUP4 SSTORE SSTORE PUSH3 0x25A JUMP JUMPDEST PUSH4 0x4E487B71 PUSH1 0xE0 SHL PUSH1 0x0 MSTORE PUSH1 0x41 PUSH1 0x4 MSTORE PUSH1 0x24 PUSH1 0x0 REVERT JUMPDEST PUSH1 0x0 DUP1 REVERT JUMPDEST PUSH1 0x40 DUP1 MLOAD SWAP2 SWAP1 DUP3 ADD PUSH1 0x1 PUSH1 0x1 PUSH1 0x40 SHL SUB DUP2 GT DUP4 DUP3 LT OR PUSH3 0x28A JUMPI PUSH1 0x40 MSTORE JUMP JUMPDEST SWAP1 PUSH1 0x1 DUP3 DUP2 SHR SWAP3 AND DUP1 ISZERO PUSH3 0x2F7 JUMPI JUMPDEST PUSH1 0x20 DUP4 LT EQ PUSH3 0x2E1 JUMPI JUMP JUMPDEST PUSH4 0x4E487B71 PUSH1 0xE0 SHL PUSH1 0x0 MSTORE PUSH1 0x22 PUSH1 0x4 MSTORE PUSH1 0x24 PUSH1 0x0 REVERT JUMPDEST SWAP2 PUSH1 0x7F AND SWAP2 PUSH3 0x2D5 JUMP JUMPDEST DUP2 DUP2 LT PUSH3 0x30E JUMPI POP POP JUMP JUMPDEST PUSH1 0x0 DUP2 SSTORE PUSH1 0x1 ADD PUSH3 0x302 JUMP INVALID PUSH1 0x80 PUSH1 0x40 DUP2 DUP2 MSTORE PUSH1 0x4 SWAP2 DUP3 CALLDATASIZE LT ISZERO PUSH2 0x16 JUMPI PUSH1 0x0 DUP1 REVERT JUMPDEST PUSH1 0x0 SWAP3 DUP4 CALLDATALOAD PUSH1 0xE0 SHR SWAP2 DUP3 PUSH4 0x29C21BD EQ PUSH2 0x1219 JUMPI POP DUP2 PUSH4 0x983F185 EQ PUSH2 0x11FB JUMPI DUP2 PUSH4 0x1812DAB4 EQ PUSH2 0x11DC JUMPI DUP2 PUSH4 0x24D7806C EQ PUSH2 0x11A5 JUMPI DUP2 PUSH4 0x2D23C735 EQ PUSH2 0xEC4 JUMPI DUP2 PUSH4 0x2E6997FE EQ PUSH2 0xDE1 JUMPI DUP2 PUSH4 0x35BBE70E EQ PUSH2 0xCFE JUMPI DUP2 PUSH4 0x50E2E8AF EQ PUSH2 0xC8B JUMPI DUP2 PUSH4 0x53AC5DC3 EQ PUSH2 0xC11 JUMPI DUP2 PUSH4 0x6332ABC9 EQ PUSH2 0xBF2 JUMPI DUP2 PUSH4 0x6394A8FA EQ PUSH2 0xB9A JUMPI DUP2 PUSH4 0x6DD7D8EA EQ PUSH2 0x7EF JUMPI DUP2 PUSH4 0x7C054C54 EQ PUSH2 0x7D0 JUMPI DUP2 PUSH4 0x8287E42F EQ PUSH2 0x776 JUMPI DUP2 PUSH4 0x8AB66A90 EQ PUSH2 0x70D JUMPI DUP2 PUSH4 0x9EDA74CF EQ PUSH2 0x3E9 JUMPI DUP2 PUSH4 0xA3EC138D EQ PUSH2 0x38C JUMPI DUP2 PUSH4 0xA96278AE EQ PUSH2 0x319 JUMPI DUP2 PUSH4 0xB0A4EC42 EQ PUSH2 0x2DD JUMPI DUP2 PUSH4 0xB13C744B EQ PUSH2 0x1E2 JUMPI DUP2 PUSH4 0xBA71BEF0 EQ PUSH2 0x16B JUMPI POP DUP1 PUSH4 0xC6384071 EQ PUSH2 0x14D JUMPI PUSH4 0xFC6F9468 EQ PUSH2 0x122 JUMPI PUSH1 0x0 DUP1 REVERT JUMPDEST CALLVALUE PUSH2 0x149 JUMPI DUP2 PUSH1 0x3 NOT CALLDATASIZE ADD SLT PUSH2 0x149 JUMPI PUSH1 0x1 SLOAD SWAP1 MLOAD PUSH1 0x1 PUSH1 0x1 PUSH1 0xA0 SHL SUB SWAP1 SWAP2 AND DUP2 MSTORE PUSH1 0x20 SWAP1 RETURN JUMPDEST POP DUP1 REVERT JUMPDEST POP CALLVALUE PUSH2 0x149 JUMPI DUP2 PUSH1 0x3 NOT CALLDATASIZE ADD SLT PUSH2 0x149 JUMPI PUSH1 0x20 SWAP1 PUSH1 0xD SLOAD SWAP1 MLOAD SWAP1 DUP2 MSTORE RETURN JUMPDEST SWAP1 POP CALLVALUE PUSH2 0x1DE JUMPI PUSH1 0x20 CALLDATASIZE PUSH1 0x3 NOT ADD SLT PUSH2 0x1DE JUMPI CALLDATALOAD PUSH1 0x1 PUSH1 0x1 PUSH1 0xA0 SHL SUB DUP2 AND SWAP1 DUP2 SWAP1 SUB PUSH2 0x1DE JUMPI DUP2 DUP4 PUSH2 0x1C7 SWAP3 PUSH2 0x1DA SWAP6 DUP4 DUP1 MLOAD PUSH2 0x1A7 DUP2 PUSH2 0x1284 JUMP JUMPDEST PUSH2 0x1AF PUSH2 0x1B33 JUMP JUMPDEST DUP2 MSTORE PUSH1 0x60 PUSH1 0x20 DUP3 ADD MSTORE ADD MSTORE DUP2 MSTORE PUSH1 0x9 PUSH1 0x20 MSTORE KECCAK256 PUSH2 0x20CA JUMP JUMPDEST SWAP1 MLOAD SWAP2 DUP3 SWAP2 PUSH1 0x20 DUP4 MSTORE PUSH1 0x20 DUP4 ADD SWAP1 PUSH2 0x14E7 JUMP JUMPDEST SUB SWAP1 RETURN JUMPDEST DUP3 DUP1 REVERT JUMPDEST DUP4 SWAP2 POP CALLVALUE PUSH2 0x149 JUMPI PUSH1 0x20 CALLDATASIZE PUSH1 0x3 NOT ADD SLT PUSH2 0x149 JUMPI DUP1 CALLDATALOAD SWAP2 PUSH1 0x6 SLOAD DUP4 LT ISZERO PUSH2 0x2DA JUMPI PUSH1 0x6 SWAP1 MSTORE SHL SWAP1 PUSH2 0x1DA PUSH2 0x237 DUP4 PUSH32 0xF652222313E28459528D920B65115C16C04F3EFC82AAEDC97BE59F3F377C0D3F ADD PUSH2 0x163D JUMP JUMPDEST SWAP2 DUP1 MLOAD SWAP4 PUSH2 0x272 DUP6 PUSH2 0x26B DUP2 PUSH32 0xF652222313E28459528D920B65115C16C04F3EFC82AAEDC97BE59F3F377C0D4B DUP6 ADD PUSH2 0x15A7 JUMP JUMPDEST SUB DUP7 PUSH2 0x12A0 JUMP JUMPDEST PUSH32 0xF652222313E28459528D920B65115C16C04F3EFC82AAEDC97BE59F3F377C0D4D DUP3 MLOAD SWAP2 PUSH2 0x2CD DUP4 PUSH2 0x2C6 DUP2 PUSH32 0xF652222313E28459528D920B65115C16C04F3EFC82AAEDC97BE59F3F377C0D4C DUP6 ADD PUSH2 0x15A7 JUMP JUMPDEST SUB DUP5 PUSH2 0x12A0 JUMP JUMPDEST ADD SLOAD SWAP2 MLOAD SWAP5 DUP6 SWAP5 DUP6 PUSH2 0x1752 JUMP JUMPDEST DUP1 REVERT JUMPDEST DUP4 SWAP1 CALLVALUE PUSH2 0x149 JUMPI PUSH1 0x20 CALLDATASIZE PUSH1 0x3 NOT ADD SLT PUSH2 0x149 JUMPI DUP1 CALLDATALOAD PUSH8 0xFFFFFFFFFFFFFFFF DUP2 GT PUSH2 0x1DE JUMPI PUSH2 0x316 SWAP2 PUSH2 0x311 SWAP2 CALLDATASIZE SWAP2 ADD PUSH2 0x12C2 JUMP JUMPDEST PUSH2 0x1B8F JUMP JUMPDEST DUP1 RETURN JUMPDEST SWAP1 POP CALLVALUE PUSH2 0x1DE JUMPI PUSH1 0x20 CALLDATASIZE PUSH1 0x3 NOT ADD SLT PUSH2 0x1DE JUMPI CALLDATALOAD PUSH1 0xB SLOAD DUP2 LT ISZERO PUSH2 0x1DE JUMPI SWAP1 PUSH2 0x37A PUSH2 0x373 SWAP3 PUSH1 0xB PUSH2 0x1DA SWAP6 MSTORE DUP3 MLOAD SWAP4 DUP5 DUP1 SWAP3 PUSH32 0x175B7A638427703F0DBE7BB9BBF987A2551717B34E79F33B5B1008D1FA01DB9 ADD PUSH2 0x15A7 JUMP JUMPDEST SUB DUP4 PUSH2 0x12A0 JUMP JUMPDEST MLOAD SWAP2 DUP3 SWAP2 PUSH1 0x20 DUP4 MSTORE PUSH1 0x20 DUP4 ADD SWAP1 PUSH2 0x131E JUMP JUMPDEST SWAP1 POP CALLVALUE PUSH2 0x1DE JUMPI PUSH1 0x20 CALLDATASIZE PUSH1 0x3 NOT ADD SLT PUSH2 0x1DE JUMPI CALLDATALOAD PUSH1 0x1 PUSH1 0x1 PUSH1 0xA0 SHL SUB DUP2 AND SWAP1 DUP2 SWAP1 SUB PUSH2 0x1DE JUMPI SWAP2 DUP2 SWAP3 DUP2 MSTORE PUSH1 0x9 PUSH1 0x20 MSTORE KECCAK256 SWAP1 PUSH1 0xD PUSH2 0x3C9 DUP4 PUSH2 0x163D JUMP JUMPDEST SWAP3 ADD SLOAD PUSH2 0x3DF DUP3 MLOAD SWAP4 DUP4 DUP6 SWAP5 DUP6 MSTORE DUP5 ADD SWAP1 PUSH2 0x135E JUMP JUMPDEST SWAP1 PUSH1 0x20 DUP4 ADD MSTORE SUB SWAP1 RETURN JUMPDEST DUP3 DUP5 PUSH2 0x160 SWAP3 DUP4 PUSH1 0x3 NOT CALLDATASIZE ADD SLT PUSH2 0x149 JUMPI PUSH8 0xFFFFFFFFFFFFFFFF SWAP4 DUP2 CALLDATALOAD DUP6 DUP2 GT PUSH2 0x709 JUMPI PUSH2 0x41A SWAP1 CALLDATASIZE SWAP1 DUP5 ADD PUSH2 0x12C2 JUMP JUMPDEST SWAP1 PUSH1 0x64 CALLDATALOAD DUP7 DUP2 GT PUSH2 0x705 JUMPI PUSH2 0x432 SWAP1 CALLDATASIZE SWAP1 DUP6 ADD PUSH2 0x12C2 JUMP JUMPDEST SWAP1 PUSH1 0x84 CALLDATALOAD DUP8 DUP2 GT PUSH2 0x701 JUMPI PUSH2 0x44A SWAP1 CALLDATASIZE SWAP1 DUP7 ADD PUSH2 0x12C2 JUMP JUMPDEST PUSH1 0xA4 CALLDATALOAD DUP9 DUP2 GT PUSH2 0x6FD JUMPI PUSH2 0x461 SWAP1 CALLDATASIZE SWAP1 DUP8 ADD PUSH2 0x12C2 JUMP JUMPDEST PUSH1 0xC4 CALLDATALOAD DUP10 DUP2 GT PUSH2 0x6F9 JUMPI PUSH2 0x478 SWAP1 CALLDATASIZE SWAP1 DUP9 ADD PUSH2 0x12C2 JUMP JUMPDEST PUSH1 0xE4 CALLDATALOAD DUP11 DUP2 GT PUSH2 0x6F5 JUMPI PUSH2 0x48F SWAP1 CALLDATASIZE SWAP1 DUP10 ADD PUSH2 0x12C2 JUMP JUMPDEST SWAP2 PUSH2 0x104 CALLDATALOAD DUP12 DUP2 GT PUSH2 0x6F1 JUMPI PUSH2 0x4A8 SWAP1 CALLDATASIZE SWAP1 DUP11 ADD PUSH2 0x12C2 JUMP JUMPDEST SWAP4 PUSH2 0x124 CALLDATALOAD DUP13 DUP2 GT PUSH2 0x6ED JUMPI PUSH2 0x4C1 SWAP1 CALLDATASIZE SWAP1 DUP12 ADD PUSH2 0x12C2 JUMP JUMPDEST SWAP7 PUSH2 0x144 CALLDATALOAD SWAP13 DUP14 GT PUSH2 0x6ED JUMPI DUP11 PUSH1 0x2 DUP14 SWAP15 SWAP14 PUSH2 0x4E4 PUSH1 0x9 SWAP15 SWAP16 DUP15 SWAP1 CALLDATASIZE SWAP2 ADD PUSH2 0x12C2 JUMP JUMPDEST SWAP3 CALLER DUP2 MSTORE PUSH1 0x20 SWAP15 DUP16 MSTORE KECCAK256 ADD SLOAD PUSH2 0x6A9 JUMPI SWAP2 DUP12 SWAP11 SWAP10 SWAP8 SWAP6 SWAP4 SWAP2 DUP4 DUP16 SWAP11 SWAP9 SWAP7 SWAP5 PUSH2 0x50B SWAP1 PUSH2 0x1B8F JUMP JUMPDEST DUP10 DUP12 MLOAD SWAP15 DUP16 PUSH2 0x519 DUP2 PUSH2 0x1235 JUMP JUMPDEST CALLER DUP2 MSTORE ADD MSTORE DUP14 PUSH1 0x24 SWAP12 DUP13 CALLDATALOAD SWAP2 ADD MSTORE DUP14 PUSH1 0x44 CALLDATALOAD PUSH1 0x60 DUP3 ADD MSTORE PUSH1 0x80 ADD MSTORE PUSH1 0xA0 DUP14 ADD MSTORE PUSH1 0xC0 DUP13 ADD MSTORE PUSH1 0xE0 DUP12 ADD MSTORE PUSH2 0x100 DUP11 ADD MSTORE PUSH2 0x120 DUP10 ADD MSTORE PUSH2 0x140 DUP9 ADD MSTORE DUP7 ADD MSTORE DUP7 MLOAD SWAP5 PUSH2 0x564 DUP7 PUSH2 0x1284 JUMP JUMPDEST DUP6 MSTORE DUP4 DUP6 ADD PUSH1 0x60 SWAP1 MSTORE DUP6 DUP8 DUP7 ADD MSTORE CALLER DUP7 MSTORE PUSH1 0x9 DUP5 MSTORE DUP5 DUP8 DUP8 KECCAK256 SWAP1 PUSH2 0x587 SWAP2 PUSH2 0x1F68 JUMP JUMPDEST PUSH1 0xB SLOAD SWAP1 PUSH1 0x1 PUSH1 0x40 SHL SWAP2 DUP3 DUP2 LT ISZERO PUSH2 0x697 JUMPI PUSH1 0x1 DUP2 ADD DUP1 PUSH1 0xB SSTORE DUP2 LT ISZERO PUSH2 0x685 JUMPI SWAP1 PUSH2 0x5D8 SWAP2 PUSH1 0xB DUP10 MSTORE PUSH32 0x175B7A638427703F0DBE7BB9BBF987A2551717B34E79F33B5B1008D1FA01DB9 ADD PUSH2 0x17E2 JUMP JUMPDEST PUSH1 0xA SLOAD SWAP1 DUP2 LT ISZERO PUSH2 0x673 JUMPI DUP1 PUSH1 0x1 PUSH2 0x5F3 SWAP3 ADD PUSH1 0xA SSTORE PUSH2 0x151C JUMP JUMPDEST PUSH2 0x662 JUMPI DUP5 PUSH2 0x601 SWAP2 PUSH2 0x1F68 JUMP JUMPDEST PUSH1 0xC SLOAD SWAP2 PUSH1 0x1 DUP4 ADD DUP1 SWAP4 GT PUSH2 0x651 JUMPI POP POP PUSH32 0xF59A1B8573DB02CF501C11C9D7D88B5365A59BDF0555CFD387DB21CFCACCF4DA SWAP4 SWAP5 PUSH2 0x64B SWAP2 PUSH1 0xC SSTORE MLOAD SWAP3 DUP3 DUP5 SWAP4 DUP5 MSTORE DUP4 ADD SWAP1 PUSH2 0x14E7 JUMP JUMPDEST SUB SWAP1 LOG1 DUP1 RETURN JUMPDEST PUSH4 0x4E487B71 PUSH1 0xE0 SHL DUP7 MSTORE PUSH1 0x11 SWAP1 MSTORE DUP5 REVERT JUMPDEST POP PUSH4 0x4E487B71 PUSH1 0xE0 SHL DUP6 MSTORE DUP5 DUP3 MSTORE DUP5 REVERT JUMPDEST POP PUSH4 0x4E487B71 PUSH1 0xE0 SHL DUP6 MSTORE PUSH1 0x41 DUP3 MSTORE DUP5 REVERT JUMPDEST PUSH4 0x4E487B71 PUSH1 0xE0 SHL DUP9 MSTORE PUSH1 0x32 DUP6 MSTORE DUP4 DUP9 REVERT JUMPDEST PUSH4 0x4E487B71 PUSH1 0xE0 SHL DUP9 MSTORE PUSH1 0x41 DUP6 MSTORE DUP4 DUP9 REVERT JUMPDEST POP DUP13 MLOAD PUSH3 0x461BCD PUSH1 0xE5 SHL DUP2 MSTORE DUP1 DUP12 ADD DUP13 SWAP1 MSTORE PUSH1 0x1A PUSH1 0x24 DUP3 ADD MSTORE PUSH32 0x566F74657220616C726561647920726567697374657265642021000000000000 PUSH1 0x44 DUP3 ADD MSTORE PUSH1 0x64 SWAP1 REVERT JUMPDEST DUP11 DUP1 REVERT JUMPDEST DUP10 DUP1 REVERT JUMPDEST DUP9 DUP1 REVERT JUMPDEST DUP8 DUP1 REVERT JUMPDEST DUP7 DUP1 REVERT JUMPDEST DUP6 DUP1 REVERT JUMPDEST DUP5 DUP1 REVERT JUMPDEST DUP4 DUP1 REVERT JUMPDEST SWAP1 POP CALLVALUE PUSH2 0x1DE JUMPI PUSH1 0x20 CALLDATASIZE PUSH1 0x3 NOT ADD SLT PUSH2 0x1DE JUMPI CALLDATALOAD PUSH1 0x1 PUSH1 0x1 PUSH1 0xA0 SHL SUB DUP2 AND SWAP1 DUP2 SWAP1 SUB PUSH2 0x1DE JUMPI SWAP2 DUP2 SWAP3 DUP2 MSTORE PUSH1 0x5 PUSH1 0x20 MSTORE KECCAK256 SWAP1 PUSH2 0x1DA PUSH2 0x74B DUP4 PUSH2 0x163D JUMP JUMPDEST SWAP2 DUP1 MLOAD SWAP4 PUSH2 0x760 DUP6 PUSH2 0x26B DUP2 PUSH1 0xC DUP6 ADD PUSH2 0x15A7 JUMP JUMPDEST PUSH1 0xE DUP3 MLOAD SWAP2 PUSH2 0x2CD DUP4 PUSH2 0x2C6 DUP2 PUSH1 0xD DUP6 ADD PUSH2 0x15A7 JUMP JUMPDEST SWAP1 POP CALLVALUE PUSH2 0x1DE JUMPI PUSH1 0x20 CALLDATASIZE PUSH1 0x3 NOT ADD SLT PUSH2 0x1DE JUMPI CALLDATALOAD PUSH1 0x7 SLOAD DUP2 LT ISZERO PUSH2 0x1DE JUMPI SWAP1 PUSH2 0x37A PUSH2 0x373 SWAP3 PUSH1 0x7 PUSH2 0x1DA SWAP6 MSTORE DUP3 MLOAD SWAP4 DUP5 DUP1 SWAP3 PUSH32 0xA66CC928B5EDB82AF9BD49922954155AB7B0942694BEA4CE44661D9A8736C688 ADD PUSH2 0x15A7 JUMP JUMPDEST POP POP CALLVALUE PUSH2 0x149 JUMPI DUP2 PUSH1 0x3 NOT CALLDATASIZE ADD SLT PUSH2 0x149 JUMPI PUSH1 0x20 SWAP1 PUSH1 0x3 SLOAD SWAP1 MLOAD SWAP1 DUP2 MSTORE RETURN JUMPDEST SWAP2 PUSH1 0x20 SWAP2 POP CALLDATASIZE PUSH1 0x3 NOT ADD DUP3 SGT PUSH2 0x709 JUMPI PUSH1 0x1 PUSH1 0x1 PUSH1 0xA0 SHL SUB SWAP3 DUP1 CALLDATALOAD SWAP1 DUP5 DUP3 AND DUP1 DUP4 SUB PUSH2 0x6FD JUMPI PUSH1 0x1 SWAP2 DUP7 DUP4 SLOAD AND CALLER EQ PUSH2 0xB59 JUMPI CALLER DUP9 MSTORE PUSH1 0x9 DUP7 MSTORE PUSH1 0xD SWAP2 PUSH1 0x3 DUP4 DUP8 DUP12 KECCAK256 ADD SLOAD GT PUSH2 0xB08 JUMPI SWAP1 DUP2 DUP7 SWAP3 DUP11 MSTORE PUSH1 0x5 DUP9 MSTORE PUSH1 0xF SWAP6 PUSH2 0x855 DUP12 DUP9 DUP7 CALLER SWAP3 KECCAK256 ADD PUSH2 0x1F01 JUMP JUMPDEST CALLER DUP12 MSTORE PUSH1 0x9 DUP10 MSTORE PUSH2 0x86D DUP2 DUP13 PUSH1 0xC SWAP7 DUP8 SWAP2 KECCAK256 ADD PUSH2 0x1F01 JUMP JUMPDEST DUP2 DUP12 MSTORE PUSH1 0x5 DUP10 MSTORE PUSH1 0xE DUP9 DUP13 KECCAK256 ADD SLOAD DUP7 DUP2 ADD DUP1 SWAP2 GT PUSH2 0xAF5 JUMPI DUP3 DUP13 MSTORE PUSH1 0x5 DUP11 MSTORE PUSH1 0xE DUP10 DUP14 KECCAK256 ADD SSTORE PUSH2 0x89D DUP6 SLOAD PUSH2 0x2107 JUMP JUMPDEST DUP6 SSTORE DUP6 DUP12 DUP2 JUMPDEST PUSH2 0xAAE JUMPI JUMPDEST POP SWAP1 DUP12 DUP3 JUMPDEST PUSH2 0xA63 JUMPI JUMPDEST POP POP POP CALLER DUP11 MSTORE PUSH1 0x9 DUP9 MSTORE DUP4 DUP8 DUP12 KECCAK256 ADD SLOAD PUSH2 0x8CB SWAP1 PUSH2 0x2107 JUMP JUMPDEST CALLER DUP12 MSTORE PUSH1 0x9 DUP10 MSTORE DUP5 DUP9 DUP13 KECCAK256 ADD SSTORE DUP10 MSTORE PUSH1 0x5 DUP8 MSTORE DUP6 DUP10 KECCAK256 SWAP4 DUP7 MLOAD SWAP9 DUP9 DUP11 SWAP10 DUP11 MSTORE DUP10 ADD PUSH1 0xA0 SWAP1 MSTORE DUP6 SLOAD AND PUSH1 0xC0 DUP10 ADD MSTORE PUSH2 0x180 SWAP1 DUP2 PUSH1 0xE0 DUP11 ADD MSTORE PUSH2 0x240 DUP10 ADD SWAP1 DUP7 ADD SWAP1 PUSH2 0x914 SWAP2 PUSH2 0x15A7 JUMP JUMPDEST PUSH1 0x2 DUP7 ADD SLOAD PUSH2 0x100 DUP11 ADD MSTORE PUSH1 0x3 DUP7 ADD SLOAD PUSH2 0x120 DUP11 ADD MSTORE PUSH1 0xBF NOT SWAP3 DUP4 DUP11 DUP4 SUB ADD PUSH2 0x140 DUP12 ADD MSTORE DUP7 ADD SWAP1 PUSH2 0x945 SWAP2 PUSH2 0x15A7 JUMP JUMPDEST DUP9 DUP2 SUB DUP4 ADD PUSH2 0x160 DUP11 ADD MSTORE PUSH2 0x95D SWAP1 PUSH1 0x5 DUP8 ADD PUSH2 0x15A7 JUMP JUMPDEST SWAP1 DUP3 DUP10 DUP4 SUB ADD SWAP1 DUP10 ADD MSTORE PUSH1 0x6 DUP6 ADD SWAP1 PUSH2 0x975 SWAP2 PUSH2 0x15A7 JUMP JUMPDEST DUP8 DUP2 SUB DUP3 ADD PUSH2 0x1A0 DUP10 ADD MSTORE PUSH2 0x98D SWAP1 PUSH1 0x7 DUP7 ADD PUSH2 0x15A7 JUMP JUMPDEST DUP8 DUP2 SUB DUP3 ADD PUSH2 0x1C0 DUP10 ADD MSTORE PUSH2 0x9A5 SWAP1 PUSH1 0x8 DUP7 ADD PUSH2 0x15A7 JUMP JUMPDEST DUP8 DUP2 SUB DUP3 ADD PUSH2 0x1E0 DUP10 ADD MSTORE PUSH2 0x9BD SWAP1 PUSH1 0x9 DUP7 ADD PUSH2 0x15A7 JUMP JUMPDEST DUP8 DUP2 SUB DUP3 ADD PUSH2 0x200 DUP10 ADD MSTORE PUSH2 0x9D5 SWAP1 PUSH1 0xA DUP7 ADD PUSH2 0x15A7 JUMP JUMPDEST SWAP1 DUP8 DUP3 SUB ADD PUSH2 0x220 DUP9 ADD MSTORE PUSH1 0xB DUP5 ADD SWAP1 PUSH2 0x9EE SWAP2 PUSH2 0x15A7 JUMP JUMPDEST SWAP1 PUSH1 0x1F NOT SWAP6 DUP7 DUP9 DUP5 SUB ADD SWAP1 DUP9 ADD MSTORE DUP4 ADD SWAP1 PUSH2 0xA08 SWAP2 PUSH2 0x15A7 JUMP JUMPDEST DUP6 DUP2 SUB DUP6 ADD PUSH1 0x60 DUP8 ADD MSTORE PUSH2 0xA1D SWAP2 DUP4 ADD PUSH2 0x15A7 JUMP JUMPDEST SWAP3 PUSH1 0xE DUP3 ADD SLOAD PUSH1 0x80 DUP7 ADD MSTORE DUP5 DUP5 SUB ADD PUSH1 0xA0 DUP6 ADD MSTORE ADD SWAP1 PUSH2 0xA3C SWAP2 PUSH2 0x1A80 JUMP JUMPDEST SUB PUSH32 0x34ACF85A95A1DC89BFC38E95C6D8D0E8E5D4544C49E9103ED7882D205ED151F8 SWAP2 LOG1 DUP1 RETURN JUMPDEST PUSH1 0xA SLOAD DUP2 LT ISZERO PUSH2 0xAA9 JUMPI DUP1 PUSH2 0xA7A PUSH2 0xA89 SWAP3 PUSH2 0x151C JUMP JUMPDEST POP SLOAD DUP14 AND CALLER EQ PUSH2 0xA8F JUMPI PUSH2 0x1F43 JUMP JUMPDEST DUP3 PUSH2 0x8AD JUMP JUMPDEST PUSH2 0xAA4 DUP4 DUP9 PUSH2 0xA9D DUP5 PUSH2 0x151C JUMP JUMPDEST POP ADD PUSH2 0x1F01 JUMP JUMPDEST PUSH2 0x1F43 JUMP JUMPDEST PUSH2 0x8B2 JUMP JUMPDEST PUSH1 0x6 SLOAD DUP2 LT ISZERO PUSH2 0xAF0 JUMPI DUP1 DUP5 DUP14 PUSH2 0xAC7 PUSH2 0xAD4 SWAP5 PUSH2 0x1791 JUMP JUMPDEST POP SLOAD AND EQ PUSH2 0xADA JUMPI PUSH2 0x1F43 JUMP JUMPDEST DUP2 PUSH2 0x8A3 JUMP JUMPDEST PUSH2 0xAA4 PUSH2 0xAE6 DUP3 PUSH2 0x1791 JUMP JUMPDEST POP DUP12 CALLER SWAP2 ADD PUSH2 0x1F01 JUMP JUMPDEST PUSH2 0x8A8 JUMP JUMPDEST PUSH4 0x4E487B71 PUSH1 0xE0 SHL DUP13 MSTORE PUSH1 0x11 DUP5 MSTORE PUSH1 0x24 DUP13 REVERT JUMPDEST DUP6 MLOAD PUSH3 0x461BCD PUSH1 0xE5 SHL DUP2 MSTORE DUP1 DUP4 ADD DUP9 SWAP1 MSTORE PUSH1 0x25 PUSH1 0x24 DUP3 ADD MSTORE PUSH32 0x596F752068617665206578636565642074686520766F7465206361737465206C PUSH1 0x44 DUP3 ADD MSTORE PUSH5 0x34B6B4BA17 PUSH1 0xD9 SHL PUSH1 0x64 DUP3 ADD MSTORE PUSH1 0x84 SWAP1 REVERT JUMPDEST PUSH1 0x64 SWAP1 DUP7 DUP1 DUP8 MLOAD SWAP3 PUSH3 0x461BCD PUSH1 0xE5 SHL DUP5 MSTORE DUP4 ADD MSTORE PUSH1 0x24 DUP3 ADD MSTORE PUSH32 0x41646D696E20697320726573747269637420746F20636173746520766F74652E PUSH1 0x44 DUP3 ADD MSTORE REVERT JUMPDEST SWAP1 POP CALLVALUE PUSH2 0x1DE JUMPI PUSH1 0x20 CALLDATASIZE PUSH1 0x3 NOT ADD SLT PUSH2 0x1DE JUMPI CALLDATALOAD DUP3 SLOAD DUP2 LT ISZERO PUSH2 0x1DE JUMPI SWAP1 PUSH2 0x37A PUSH2 0x373 SWAP3 DUP5 PUSH2 0x1DA SWAP6 MSTORE DUP3 MLOAD SWAP4 DUP5 DUP1 SWAP3 PUSH32 0x290DECD9548B62A8D60345A988386FC84BA6BC95484008F6362F93160EF3E563 ADD PUSH2 0x15A7 JUMP JUMPDEST POP POP CALLVALUE PUSH2 0x149 JUMPI DUP2 PUSH1 0x3 NOT CALLDATASIZE ADD SLT PUSH2 0x149 JUMPI PUSH1 0x20 SWAP1 PUSH1 0xC SLOAD SWAP1 MLOAD SWAP1 DUP2 MSTORE RETURN JUMPDEST SWAP1 POP CALLVALUE PUSH2 0x1DE JUMPI PUSH1 0x20 CALLDATASIZE PUSH1 0x3 NOT ADD SLT PUSH2 0x1DE JUMPI CALLDATALOAD PUSH1 0x1 PUSH1 0x1 PUSH1 0xA0 SHL SUB DUP2 AND SWAP1 DUP2 SWAP1 SUB PUSH2 0x1DE JUMPI DUP2 PUSH2 0x1DA SWAP4 PUSH2 0xC78 SWAP3 PUSH1 0x60 PUSH1 0x80 DUP5 MLOAD PUSH2 0xC4F DUP2 PUSH2 0x1268 JUMP JUMPDEST PUSH2 0xC57 PUSH2 0x1B33 JUMP JUMPDEST DUP2 MSTORE DUP3 PUSH1 0x20 DUP3 ADD MSTORE DUP3 DUP7 DUP3 ADD MSTORE DUP5 DUP4 DUP3 ADD MSTORE ADD MSTORE DUP2 MSTORE PUSH1 0x5 PUSH1 0x20 MSTORE KECCAK256 PUSH2 0x1AC6 JUMP JUMPDEST SWAP1 MLOAD SWAP2 DUP3 SWAP2 PUSH1 0x20 DUP4 MSTORE PUSH1 0x20 DUP4 ADD SWAP1 PUSH2 0x1489 JUMP JUMPDEST SWAP1 POP CALLVALUE PUSH2 0x1DE JUMPI PUSH1 0x20 CALLDATASIZE PUSH1 0x3 NOT ADD SLT PUSH2 0x1DE JUMPI CALLDATALOAD PUSH1 0xA SLOAD DUP2 LT ISZERO PUSH2 0x1DE JUMPI PUSH1 0xA PUSH1 0xE SWAP3 SWAP4 MSTORE MUL SWAP1 PUSH32 0xC65A7BB8D6351C1CF70C95A316CC6A92839C986682D98BC35F958F4883F9D2B5 PUSH2 0x3C9 DUP4 PUSH32 0xC65A7BB8D6351C1CF70C95A316CC6A92839C986682D98BC35F958F4883F9D2A8 ADD PUSH2 0x163D JUMP JUMPDEST DUP3 DUP5 CALLVALUE PUSH2 0x2DA JUMPI DUP1 PUSH1 0x3 NOT CALLDATASIZE ADD SLT PUSH2 0x2DA JUMPI PUSH1 0xA SLOAD PUSH2 0xD1C DUP2 PUSH2 0x1A68 JUMP JUMPDEST SWAP2 PUSH2 0xD29 DUP5 MLOAD SWAP4 DUP5 PUSH2 0x12A0 JUMP JUMPDEST DUP2 DUP4 MSTORE PUSH1 0xA DUP2 MSTORE PUSH1 0x20 SWAP3 DUP4 DUP2 ADD SWAP3 DUP3 PUSH32 0xC65A7BB8D6351C1CF70C95A316CC6A92839C986682D98BC35F958F4883F9D2A8 DUP6 JUMPDEST DUP4 DUP4 LT PUSH2 0xDBC JUMPI POP POP POP POP DUP5 MLOAD SWAP4 DUP1 DUP6 ADD SWAP2 DUP2 DUP7 MSTORE MLOAD DUP1 SWAP3 MSTORE DUP6 DUP6 ADD SWAP6 DUP3 PUSH1 0x5 SHL DUP7 ADD ADD SWAP4 SWAP3 SWAP6 JUMPDEST DUP3 DUP8 LT PUSH2 0xD90 JUMPI DUP6 DUP6 SUB DUP7 RETURN JUMPDEST SWAP1 SWAP2 SWAP3 SWAP4 DUP3 DUP1 PUSH2 0xDAC PUSH1 0x1 SWAP4 PUSH1 0x3F NOT DUP11 DUP3 SUB ADD DUP7 MSTORE DUP9 MLOAD PUSH2 0x14E7 JUMP JUMPDEST SWAP7 ADD SWAP3 ADD SWAP7 ADD SWAP6 SWAP3 SWAP2 SWAP1 SWAP3 PUSH2 0xD83 JUMP JUMPDEST PUSH1 0xE DUP9 PUSH1 0x1 SWAP3 PUSH2 0xDCF DUP6 SWAP12 SWAP9 SWAP10 SWAP12 PUSH2 0x20CA JUMP JUMPDEST DUP2 MSTORE ADD SWAP3 ADD SWAP3 ADD SWAP2 SWAP1 SWAP7 SWAP5 SWAP4 SWAP7 PUSH2 0xD5B JUMP JUMPDEST DUP3 DUP5 CALLVALUE PUSH2 0x2DA JUMPI DUP1 PUSH1 0x3 NOT CALLDATASIZE ADD SLT PUSH2 0x2DA JUMPI PUSH1 0x6 SLOAD PUSH2 0xDFF DUP2 PUSH2 0x1A68 JUMP JUMPDEST SWAP2 PUSH2 0xE0C DUP5 MLOAD SWAP4 DUP5 PUSH2 0x12A0 JUMP JUMPDEST DUP2 DUP4 MSTORE PUSH1 0x6 DUP2 MSTORE PUSH1 0x20 SWAP3 DUP4 DUP2 ADD SWAP3 DUP3 PUSH32 0xF652222313E28459528D920B65115C16C04F3EFC82AAEDC97BE59F3F377C0D3F DUP6 JUMPDEST DUP4 DUP4 LT PUSH2 0xE9F JUMPI POP POP POP POP DUP5 MLOAD SWAP4 DUP1 DUP6 ADD SWAP2 DUP2 DUP7 MSTORE MLOAD DUP1 SWAP3 MSTORE DUP6 DUP6 ADD SWAP6 DUP3 PUSH1 0x5 SHL DUP7 ADD ADD SWAP4 SWAP3 SWAP6 JUMPDEST DUP3 DUP8 LT PUSH2 0xE73 JUMPI DUP6 DUP6 SUB DUP7 RETURN JUMPDEST SWAP1 SWAP2 SWAP3 SWAP4 DUP3 DUP1 PUSH2 0xE8F PUSH1 0x1 SWAP4 PUSH1 0x3F NOT DUP11 DUP3 SUB ADD DUP7 MSTORE DUP9 MLOAD PUSH2 0x1489 JUMP JUMPDEST SWAP7 ADD SWAP3 ADD SWAP7 ADD SWAP6 SWAP3 SWAP2 SWAP1 SWAP3 PUSH2 0xE66 JUMP JUMPDEST PUSH1 0x10 DUP9 PUSH1 0x1 SWAP3 PUSH2 0xEB2 DUP6 SWAP12 SWAP9 SWAP10 SWAP12 PUSH2 0x1AC6 JUMP JUMPDEST DUP2 MSTORE ADD SWAP3 ADD SWAP3 ADD SWAP2 SWAP1 SWAP7 SWAP5 SWAP4 SWAP7 PUSH2 0xE3E JUMP JUMPDEST SWAP1 POP DUP3 PUSH2 0x1A0 CALLDATASIZE PUSH1 0x3 NOT ADD SLT PUSH2 0x2DA JUMPI PUSH8 0xFFFFFFFFFFFFFFFF SWAP3 DUP3 CALLDATALOAD DUP5 DUP2 GT PUSH2 0x1DE JUMPI PUSH2 0xEF4 SWAP1 CALLDATASIZE SWAP1 DUP6 ADD PUSH2 0x12C2 JUMP JUMPDEST SWAP3 PUSH1 0x64 CALLDATALOAD DUP6 DUP2 GT PUSH2 0x709 JUMPI PUSH2 0xF0C SWAP1 CALLDATASIZE SWAP1 DUP4 ADD PUSH2 0x12C2 JUMP JUMPDEST SWAP4 PUSH1 0x84 CALLDATALOAD DUP7 DUP2 GT PUSH2 0x705 JUMPI PUSH2 0xF24 SWAP1 CALLDATASIZE SWAP1 DUP5 ADD PUSH2 0x12C2 JUMP JUMPDEST SWAP5 PUSH1 0xA4 CALLDATALOAD DUP8 DUP2 GT PUSH2 0x701 JUMPI PUSH2 0xF3C SWAP1 CALLDATASIZE SWAP1 DUP6 ADD PUSH2 0x12C2 JUMP JUMPDEST PUSH1 0xC4 CALLDATALOAD DUP9 DUP2 GT PUSH2 0x6FD JUMPI PUSH2 0xF53 SWAP1 CALLDATASIZE SWAP1 DUP7 ADD PUSH2 0x12C2 JUMP JUMPDEST SWAP1 PUSH1 0xE4 CALLDATALOAD DUP10 DUP2 GT PUSH2 0x6F9 JUMPI PUSH2 0xF6B SWAP1 CALLDATASIZE SWAP1 DUP8 ADD PUSH2 0x12C2 JUMP JUMPDEST SWAP2 PUSH2 0x104 CALLDATALOAD DUP11 DUP2 GT PUSH2 0x6F5 JUMPI PUSH2 0xF84 SWAP1 CALLDATASIZE SWAP1 DUP9 ADD PUSH2 0x12C2 JUMP JUMPDEST PUSH2 0x124 CALLDATALOAD DUP12 DUP2 GT PUSH2 0x6F1 JUMPI PUSH2 0xF9C SWAP1 CALLDATASIZE SWAP1 DUP10 ADD PUSH2 0x12C2 JUMP JUMPDEST SWAP1 PUSH2 0x144 CALLDATALOAD DUP13 DUP2 GT PUSH2 0x6ED JUMPI PUSH2 0xFB5 SWAP1 CALLDATASIZE SWAP1 DUP11 ADD PUSH2 0x12C2 JUMP JUMPDEST SWAP3 PUSH2 0x164 CALLDATALOAD DUP14 DUP2 GT PUSH2 0x11A1 JUMPI PUSH2 0xFCE SWAP1 CALLDATASIZE SWAP1 DUP12 ADD PUSH2 0x12C2 JUMP JUMPDEST SWAP5 PUSH2 0x184 CALLDATALOAD SWAP14 DUP15 GT PUSH2 0x11A1 JUMPI PUSH1 0x2 DUP12 DUP14 SWAP15 SWAP16 DUP13 PUSH2 0xFED SWAP2 CALLDATASIZE SWAP2 ADD PUSH2 0x12C2 JUMP JUMPDEST SWAP14 CALLER DUP2 MSTORE PUSH1 0x5 PUSH1 0x20 MSTORE KECCAK256 ADD SLOAD PUSH2 0x115E JUMPI DUP12 SWAP13 SWAP14 PUSH2 0x100D DUP13 SWAP14 SWAP13 SWAP12 SWAP13 PUSH2 0x1B8F JUMP JUMPDEST PUSH1 0xA0 DUP12 MLOAD SWAP15 DUP16 SWAP1 PUSH2 0x101D DUP3 PUSH2 0x1235 JUMP JUMPDEST CALLER DUP3 MSTORE DUP13 PUSH1 0x20 DUP4 ADD MSTORE PUSH1 0x24 SWAP14 DUP15 CALLDATALOAD SWAP1 DUP4 ADD MSTORE PUSH1 0x44 CALLDATALOAD PUSH1 0x60 DUP4 ADD MSTORE PUSH1 0x80 DUP3 ADD MSTORE ADD MSTORE PUSH1 0xC0 DUP14 ADD MSTORE PUSH1 0xE0 DUP13 ADD MSTORE PUSH2 0x100 DUP12 ADD MSTORE PUSH2 0x120 DUP11 ADD MSTORE PUSH2 0x140 DUP10 ADD MSTORE PUSH2 0x160 DUP9 ADD MSTORE DUP6 MLOAD SWAP7 PUSH2 0x106C DUP9 PUSH2 0x1268 JUMP JUMPDEST DUP8 MSTORE PUSH1 0x20 DUP8 ADD MSTORE DUP5 DUP7 ADD MSTORE DUP6 PUSH1 0x60 DUP7 ADD MSTORE PUSH1 0x60 PUSH1 0x80 DUP7 ADD MSTORE CALLER DUP7 MSTORE PUSH1 0x5 PUSH1 0x20 MSTORE PUSH2 0x1098 DUP6 DUP6 DUP9 KECCAK256 PUSH2 0x18E7 JUMP JUMPDEST PUSH1 0x7 SLOAD SWAP1 PUSH1 0x1 PUSH1 0x40 SHL SWAP2 DUP3 DUP2 LT ISZERO PUSH2 0x697 JUMPI PUSH1 0x1 DUP2 ADD DUP1 PUSH1 0x7 SSTORE DUP2 LT ISZERO PUSH2 0x685 JUMPI SWAP1 PUSH2 0x10E9 SWAP2 PUSH1 0x7 DUP10 MSTORE PUSH32 0xA66CC928B5EDB82AF9BD49922954155AB7B0942694BEA4CE44661D9A8736C688 ADD PUSH2 0x17E2 JUMP JUMPDEST PUSH1 0x6 SLOAD SWAP1 DUP2 LT ISZERO PUSH2 0x673 JUMPI DUP1 PUSH1 0x1 PUSH2 0x1104 SWAP3 ADD PUSH1 0x6 SSTORE PUSH2 0x1791 JUMP JUMPDEST PUSH2 0x662 JUMPI DUP5 PUSH2 0x1112 SWAP2 PUSH2 0x18E7 JUMP JUMPDEST PUSH1 0x8 SLOAD SWAP2 PUSH1 0x1 DUP4 ADD DUP1 SWAP4 GT PUSH2 0x651 JUMPI DUP6 PUSH32 0xAA865F867ABAA68B8CBA3E6DF5B4CC018184C6E7FFF1D03843D27C69A973E3B0 PUSH2 0x64B DUP8 DUP8 DUP8 PUSH1 0x8 SSTORE MLOAD SWAP2 DUP3 SWAP2 PUSH1 0x20 DUP4 MSTORE PUSH1 0x20 DUP4 ADD SWAP1 PUSH2 0x1489 JUMP JUMPDEST DUP11 MLOAD PUSH3 0x461BCD PUSH1 0xE5 SHL DUP2 MSTORE PUSH1 0x20 DUP2 DUP13 ADD MSTORE PUSH1 0x1E PUSH1 0x24 DUP3 ADD MSTORE PUSH32 0x43616E64696461746520616C7265616479207265676973746572656420210000 PUSH1 0x44 DUP3 ADD MSTORE PUSH1 0x64 SWAP1 REVERT JUMPDEST DUP12 DUP1 REVERT JUMPDEST SWAP1 POP CALLVALUE PUSH2 0x1DE JUMPI PUSH1 0x20 CALLDATASIZE PUSH1 0x3 NOT ADD SLT PUSH2 0x1DE JUMPI CALLDATALOAD PUSH1 0x1 PUSH1 0x1 PUSH1 0xA0 SHL SUB DUP2 DUP2 AND SWAP2 DUP3 SWAP1 SUB PUSH2 0x709 JUMPI PUSH1 0x20 SWAP4 POP PUSH1 0x1 SLOAD AND EQ SWAP1 MLOAD SWAP1 DUP2 MSTORE RETURN JUMPDEST POP POP CALLVALUE PUSH2 0x149 JUMPI DUP2 PUSH1 0x3 NOT CALLDATASIZE ADD SLT PUSH2 0x149 JUMPI PUSH1 0x20 SWAP1 PUSH1 0x8 SLOAD SWAP1 MLOAD SWAP1 DUP2 MSTORE RETURN JUMPDEST SWAP1 POP CALLVALUE PUSH2 0x1DE JUMPI DUP3 PUSH1 0x3 NOT CALLDATASIZE ADD SLT PUSH2 0x1DE JUMPI PUSH1 0x20 SWAP3 POP SLOAD SWAP1 MLOAD SWAP1 DUP2 MSTORE RETURN JUMPDEST DUP5 SWAP1 CALLVALUE PUSH2 0x149 JUMPI DUP2 PUSH1 0x3 NOT CALLDATASIZE ADD SLT PUSH2 0x149 JUMPI PUSH1 0x20 SWAP1 PUSH1 0x2 SLOAD DUP2 MSTORE RETURN JUMPDEST PUSH2 0x180 DUP2 ADD SWAP1 DUP2 LT PUSH8 0xFFFFFFFFFFFFFFFF DUP3 GT OR PUSH2 0x1252 JUMPI PUSH1 0x40 MSTORE JUMP JUMPDEST PUSH4 0x4E487B71 PUSH1 0xE0 SHL PUSH1 0x0 MSTORE PUSH1 0x41 PUSH1 0x4 MSTORE PUSH1 0x24 PUSH1 0x0 REVERT JUMPDEST PUSH1 0xA0 DUP2 ADD SWAP1 DUP2 LT PUSH8 0xFFFFFFFFFFFFFFFF DUP3 GT OR PUSH2 0x1252 JUMPI PUSH1 0x40 MSTORE JUMP JUMPDEST PUSH1 0x60 DUP2 ADD SWAP1 DUP2 LT PUSH8 0xFFFFFFFFFFFFFFFF DUP3 GT OR PUSH2 0x1252 JUMPI PUSH1 0x40 MSTORE JUMP JUMPDEST SWAP1 PUSH1 0x1F DUP1 NOT SWAP2 ADD AND DUP2 ADD SWAP1 DUP2 LT PUSH8 0xFFFFFFFFFFFFFFFF DUP3 GT OR PUSH2 0x1252 JUMPI PUSH1 0x40 MSTORE JUMP JUMPDEST DUP2 PUSH1 0x1F DUP3 ADD SLT ISZERO PUSH2 0x1319 JUMPI DUP1 CALLDATALOAD SWAP1 PUSH8 0xFFFFFFFFFFFFFFFF DUP3 GT PUSH2 0x1252 JUMPI PUSH1 0x40 MLOAD SWAP3 PUSH2 0x12F7 PUSH1 0x1F DUP5 ADD PUSH1 0x1F NOT AND PUSH1 0x20 ADD DUP6 PUSH2 0x12A0 JUMP JUMPDEST DUP3 DUP5 MSTORE PUSH1 0x20 DUP4 DUP4 ADD ADD GT PUSH2 0x1319 JUMPI DUP2 PUSH1 0x0 SWAP3 PUSH1 0x20 DUP1 SWAP4 ADD DUP4 DUP7 ADD CALLDATACOPY DUP4 ADD ADD MSTORE SWAP1 JUMP JUMPDEST PUSH1 0x0 DUP1 REVERT JUMPDEST SWAP2 SWAP1 DUP3 MLOAD SWAP3 DUP4 DUP3 MSTORE PUSH1 0x0 JUMPDEST DUP5 DUP2 LT PUSH2 0x134A JUMPI POP POP DUP3 PUSH1 0x0 PUSH1 0x20 DUP1 SWAP5 SWAP6 DUP5 ADD ADD MSTORE PUSH1 0x1F DUP1 NOT SWAP2 ADD AND ADD ADD SWAP1 JUMP JUMPDEST PUSH1 0x20 DUP2 DUP4 ADD DUP2 ADD MLOAD DUP5 DUP4 ADD DUP3 ADD MSTORE ADD PUSH2 0x1329 JUMP JUMPDEST SWAP1 PUSH2 0x1449 SWAP2 PUSH1 0x1 DUP1 PUSH1 0xA0 SHL SUB DUP2 MLOAD AND DUP3 MSTORE PUSH2 0x1435 PUSH2 0x1421 PUSH2 0x140D PUSH2 0x13F9 PUSH2 0x13E7 PUSH2 0x13D5 PUSH2 0x13C3 PUSH2 0x139D PUSH1 0x20 DUP10 ADD MLOAD PUSH2 0x180 DUP1 PUSH1 0x20 DUP14 ADD MSTORE DUP12 ADD SWAP1 PUSH2 0x131E JUMP JUMPDEST PUSH1 0x40 DUP10 ADD MLOAD PUSH1 0x40 DUP12 ADD MSTORE PUSH1 0x60 DUP10 ADD MLOAD PUSH1 0x60 DUP12 ADD MSTORE PUSH1 0x80 DUP10 ADD MLOAD DUP11 DUP3 SUB PUSH1 0x80 DUP13 ADD MSTORE PUSH2 0x131E JUMP JUMPDEST PUSH1 0xA0 DUP9 ADD MLOAD DUP10 DUP3 SUB PUSH1 0xA0 DUP12 ADD MSTORE PUSH2 0x131E JUMP JUMPDEST PUSH1 0xC0 DUP8 ADD MLOAD DUP9 DUP3 SUB PUSH1 0xC0 DUP11 ADD MSTORE PUSH2 0x131E JUMP JUMPDEST PUSH1 0xE0 DUP7 ADD MLOAD DUP8 DUP3 SUB PUSH1 0xE0 DUP10 ADD MSTORE PUSH2 0x131E JUMP JUMPDEST PUSH2 0x100 DUP1 DUP7 ADD MLOAD SWAP1 DUP8 DUP4 SUB SWAP1 DUP9 ADD MSTORE PUSH2 0x131E JUMP JUMPDEST PUSH2 0x120 DUP1 DUP6 ADD MLOAD SWAP1 DUP7 DUP4 SUB SWAP1 DUP8 ADD MSTORE PUSH2 0x131E JUMP JUMPDEST PUSH2 0x140 DUP1 DUP5 ADD MLOAD SWAP1 DUP6 DUP4 SUB SWAP1 DUP7 ADD MSTORE PUSH2 0x131E JUMP JUMPDEST SWAP2 PUSH2 0x160 DUP1 SWAP3 ADD MLOAD SWAP2 DUP2 DUP5 SUB SWAP2 ADD MSTORE PUSH2 0x131E JUMP JUMPDEST SWAP1 JUMP JUMPDEST SWAP1 DUP2 MLOAD DUP1 DUP3 MSTORE PUSH1 0x20 DUP1 DUP1 SWAP4 ADD SWAP4 ADD SWAP2 PUSH1 0x0 JUMPDEST DUP3 DUP2 LT PUSH2 0x146C JUMPI POP POP POP POP SWAP1 JUMP JUMPDEST DUP4 MLOAD PUSH1 0x1 PUSH1 0x1 PUSH1 0xA0 SHL SUB AND DUP6 MSTORE SWAP4 DUP2 ADD SWAP4 SWAP3 DUP2 ADD SWAP3 PUSH1 0x1 ADD PUSH2 0x145E JUMP JUMPDEST PUSH2 0x1449 SWAP2 PUSH1 0x80 PUSH2 0x14CC PUSH2 0x14BA PUSH2 0x14A8 DUP6 MLOAD PUSH1 0xA0 DUP7 MSTORE PUSH1 0xA0 DUP7 ADD SWAP1 PUSH2 0x135E JUMP JUMPDEST PUSH1 0x20 DUP7 ADD MLOAD DUP6 DUP3 SUB PUSH1 0x20 DUP8 ADD MSTORE PUSH2 0x131E JUMP JUMPDEST PUSH1 0x40 DUP6 ADD MLOAD DUP5 DUP3 SUB PUSH1 0x40 DUP7 ADD MSTORE PUSH2 0x131E JUMP JUMPDEST SWAP3 PUSH1 0x60 DUP2 ADD MLOAD PUSH1 0x60 DUP5 ADD MSTORE ADD MLOAD SWAP1 PUSH1 0x80 DUP2 DUP5 SUB SWAP2 ADD MSTORE PUSH2 0x144C JUMP JUMPDEST SWAP1 PUSH1 0x40 DUP1 PUSH2 0x1513 PUSH2 0x1501 DUP6 MLOAD PUSH1 0x60 DUP7 MSTORE PUSH1 0x60 DUP7 ADD SWAP1 PUSH2 0x135E JUMP JUMPDEST PUSH1 0x20 DUP7 ADD MLOAD DUP6 DUP3 SUB PUSH1 0x20 DUP8 ADD MSTORE PUSH2 0x144C JUMP JUMPDEST SWAP4 ADD MLOAD SWAP2 ADD MSTORE SWAP1 JUMP JUMPDEST PUSH1 0xA SLOAD DUP2 LT ISZERO PUSH2 0x1557 JUMPI PUSH1 0xE SWAP1 PUSH1 0xA PUSH1 0x0 MSTORE MUL PUSH32 0xC65A7BB8D6351C1CF70C95A316CC6A92839C986682D98BC35F958F4883F9D2A8 ADD SWAP1 PUSH1 0x0 SWAP1 JUMP JUMPDEST PUSH4 0x4E487B71 PUSH1 0xE0 SHL PUSH1 0x0 MSTORE PUSH1 0x32 PUSH1 0x4 MSTORE PUSH1 0x24 PUSH1 0x0 REVERT JUMPDEST SWAP1 PUSH1 0x1 DUP3 DUP2 SHR SWAP3 AND DUP1 ISZERO PUSH2 0x159D JUMPI JUMPDEST PUSH1 0x20 DUP4 LT EQ PUSH2 0x1587 JUMPI JUMP JUMPDEST PUSH4 0x4E487B71 PUSH1 0xE0 SHL PUSH1 0x0 MSTORE PUSH1 0x22 PUSH1 0x4 MSTORE PUSH1 0x24 PUSH1 0x0 REVERT JUMPDEST SWAP2 PUSH1 0x7F AND SWAP2 PUSH2 0x157C JUMP JUMPDEST SWAP1 PUSH1 0x0 SWAP3 SWAP2 DUP1 SLOAD SWAP2 PUSH2 0x15B8 DUP4 PUSH2 0x156D JUMP JUMPDEST SWAP2 DUP3 DUP3 MSTORE PUSH1 0x1 SWAP4 DUP5 DUP2 AND SWAP1 DUP2 PUSH1 0x0 EQ PUSH2 0x161A JUMPI POP PUSH1 0x1 EQ PUSH2 0x15DA JUMPI JUMPDEST POP POP POP POP JUMP JUMPDEST SWAP1 SWAP2 SWAP4 SWAP5 POP PUSH1 0x0 MSTORE PUSH1 0x20 SWAP3 DUP4 PUSH1 0x0 KECCAK256 SWAP3 DUP5 PUSH1 0x0 SWAP5 JUMPDEST DUP4 DUP7 LT PUSH2 0x1606 JUMPI POP POP POP POP ADD ADD SWAP1 CODESIZE DUP1 DUP1 DUP1 PUSH2 0x15D4 JUMP JUMPDEST DUP1 SLOAD DUP6 DUP8 ADD DUP4 ADD MSTORE SWAP5 ADD SWAP4 DUP6 SWAP1 DUP3 ADD PUSH2 0x15EF JUMP JUMPDEST SWAP3 SWAP5 POP POP POP PUSH1 0x20 SWAP4 SWAP5 POP PUSH1 0xFF NOT AND DUP4 DUP4 ADD MSTORE ISZERO ISZERO PUSH1 0x5 SHL ADD ADD SWAP1 CODESIZE DUP1 DUP1 DUP1 PUSH2 0x15D4 JUMP JUMPDEST SWAP1 PUSH1 0xB PUSH2 0x160 PUSH1 0x40 SWAP4 PUSH2 0x174E DUP6 MLOAD SWAP2 PUSH2 0x1655 DUP4 PUSH2 0x1235 JUMP JUMPDEST PUSH2 0x2C6 DUP4 SWAP8 PUSH1 0x1 DUP1 PUSH1 0xA0 SHL SUB DUP4 SLOAD AND DUP6 MSTORE DUP1 MLOAD PUSH2 0x1680 DUP2 PUSH2 0x1679 DUP2 PUSH1 0x1 DUP9 ADD PUSH2 0x15A7 JUMP JUMPDEST SUB DUP3 PUSH2 0x12A0 JUMP JUMPDEST PUSH1 0x20 DUP7 ADD MSTORE PUSH1 0x2 DUP4 ADD SLOAD DUP2 DUP7 ADD MSTORE PUSH1 0x3 DUP4 ADD SLOAD PUSH1 0x60 DUP7 ADD MSTORE DUP1 MLOAD PUSH2 0x16AB DUP2 PUSH2 0x1679 DUP2 PUSH1 0x4 DUP9 ADD PUSH2 0x15A7 JUMP JUMPDEST PUSH1 0x80 DUP7 ADD MSTORE DUP1 MLOAD PUSH2 0x16C3 DUP2 PUSH2 0x1679 DUP2 PUSH1 0x5 DUP9 ADD PUSH2 0x15A7 JUMP JUMPDEST PUSH1 0xA0 DUP7 ADD MSTORE DUP1 MLOAD PUSH2 0x16DB DUP2 PUSH2 0x1679 DUP2 PUSH1 0x6 DUP9 ADD PUSH2 0x15A7 JUMP JUMPDEST PUSH1 0xC0 DUP7 ADD MSTORE DUP1 MLOAD PUSH2 0x16F3 DUP2 PUSH2 0x1679 DUP2 PUSH1 0x7 DUP9 ADD PUSH2 0x15A7 JUMP JUMPDEST PUSH1 0xE0 DUP7 ADD MSTORE DUP1 MLOAD PUSH2 0x170B DUP2 PUSH2 0x1679 DUP2 PUSH1 0x8 DUP9 ADD PUSH2 0x15A7 JUMP JUMPDEST PUSH2 0x100 DUP7 ADD MSTORE DUP1 MLOAD PUSH2 0x1724 DUP2 PUSH2 0x1679 DUP2 PUSH1 0x9 DUP9 ADD PUSH2 0x15A7 JUMP JUMPDEST PUSH2 0x120 DUP7 ADD MSTORE DUP1 MLOAD PUSH2 0x173D DUP2 PUSH2 0x1679 DUP2 PUSH1 0xA DUP9 ADD PUSH2 0x15A7 JUMP JUMPDEST PUSH2 0x140 DUP7 ADD MSTORE MLOAD DUP1 SWAP7 DUP2 SWAP4 ADD PUSH2 0x15A7 JUMP JUMPDEST ADD MSTORE JUMP JUMPDEST SWAP5 SWAP4 SWAP3 PUSH2 0x177E PUSH1 0x60 SWAP4 PUSH2 0x1770 PUSH2 0x178C SWAP5 PUSH1 0x80 DUP11 MSTORE PUSH1 0x80 DUP11 ADD SWAP1 PUSH2 0x135E JUMP JUMPDEST SWAP1 DUP9 DUP3 SUB PUSH1 0x20 DUP11 ADD MSTORE PUSH2 0x131E JUMP JUMPDEST SWAP1 DUP7 DUP3 SUB PUSH1 0x40 DUP9 ADD MSTORE PUSH2 0x131E JUMP JUMPDEST SWAP4 ADD MSTORE JUMP JUMPDEST PUSH1 0x6 SLOAD DUP2 LT ISZERO PUSH2 0x1557 JUMPI PUSH1 0x6 PUSH1 0x0 MSTORE PUSH1 0x4 SHL PUSH32 0xF652222313E28459528D920B65115C16C04F3EFC82AAEDC97BE59F3F377C0D3F ADD SWAP1 PUSH1 0x0 SWAP1 JUMP JUMPDEST DUP2 DUP2 LT PUSH2 0x17D6 JUMPI POP POP JUMP JUMPDEST PUSH1 0x0 DUP2 SSTORE PUSH1 0x1 ADD PUSH2 0x17CB JUMP JUMPDEST SWAP2 SWAP1 SWAP2 DUP3 MLOAD PUSH8 0xFFFFFFFFFFFFFFFF DUP2 GT PUSH2 0x1252 JUMPI PUSH2 0x1800 DUP3 SLOAD PUSH2 0x156D JUMP JUMPDEST PUSH1 0x1F DUP2 GT PUSH2 0x18AA JUMPI JUMPDEST POP PUSH1 0x20 DUP1 PUSH1 0x1F DUP4 GT PUSH1 0x1 EQ PUSH2 0x1846 JUMPI POP DUP2 SWAP3 SWAP4 SWAP5 PUSH1 0x0 SWAP3 PUSH2 0x183B JUMPI JUMPDEST POP POP DUP2 PUSH1 0x1 SHL SWAP2 PUSH1 0x0 NOT SWAP1 PUSH1 0x3 SHL SHR NOT AND OR SWAP1 SSTORE JUMP JUMPDEST ADD MLOAD SWAP1 POP CODESIZE DUP1 PUSH2 0x1825 JUMP JUMPDEST SWAP1 PUSH1 0x1F NOT DUP4 AND SWAP6 DUP5 PUSH1 0x0 MSTORE DUP3 PUSH1 0x0 KECCAK256 SWAP3 PUSH1 0x0 SWAP1 JUMPDEST DUP9 DUP3 LT PUSH2 0x1892 JUMPI POP POP DUP4 PUSH1 0x1 SWAP6 SWAP7 SWAP8 LT PUSH2 0x1879 JUMPI JUMPDEST POP POP POP DUP2 SHL ADD SWAP1 SSTORE JUMP JUMPDEST ADD MLOAD PUSH1 0x0 NOT PUSH1 0xF8 DUP5 PUSH1 0x3 SHL AND SHR NOT AND SWAP1 SSTORE CODESIZE DUP1 DUP1 PUSH2 0x186F JUMP JUMPDEST DUP1 PUSH1 0x1 DUP6 SWAP7 DUP3 SWAP5 SWAP7 DUP7 ADD MLOAD DUP2 SSTORE ADD SWAP6 ADD SWAP4 ADD SWAP1 PUSH2 0x185A JUMP JUMPDEST PUSH2 0x18D7 SWAP1 DUP4 PUSH1 0x0 MSTORE PUSH1 0x20 PUSH1 0x0 KECCAK256 PUSH1 0x1F DUP5 ADD PUSH1 0x5 SHR DUP2 ADD SWAP2 PUSH1 0x20 DUP6 LT PUSH2 0x18DD JUMPI JUMPDEST PUSH1 0x1F ADD PUSH1 0x5 SHR ADD SWAP1 PUSH2 0x17CB JUMP JUMPDEST CODESIZE PUSH2 0x1809 JUMP JUMPDEST SWAP1 SWAP2 POP DUP2 SWAP1 PUSH2 0x18CA JUMP JUMPDEST DUP2 MLOAD SWAP2 PUSH1 0x1 DUP1 PUSH1 0xA0 SHL SUB DUP1 DUP5 MLOAD AND PUSH1 0x1 PUSH1 0x1 PUSH1 0x60 SHL SUB PUSH1 0xA0 SHL DUP5 SLOAD AND OR DUP4 SSTORE PUSH1 0x80 PUSH1 0xF PUSH1 0x20 SWAP5 PUSH2 0x19BE PUSH2 0x160 DUP8 DUP10 ADD MLOAD SWAP9 PUSH2 0x1926 PUSH1 0x1 SWAP11 DUP12 DUP7 ADD PUSH2 0x17E2 JUMP JUMPDEST PUSH1 0x40 DUP2 ADD MLOAD PUSH1 0x2 DUP6 ADD SSTORE PUSH1 0x60 DUP2 ADD MLOAD PUSH1 0x3 DUP6 ADD SSTORE PUSH2 0x194A DUP7 DUP3 ADD MLOAD PUSH1 0x4 DUP7 ADD PUSH2 0x17E2 JUMP JUMPDEST PUSH2 0x195B PUSH1 0xA0 DUP3 ADD MLOAD PUSH1 0x5 DUP7 ADD PUSH2 0x17E2 JUMP JUMPDEST PUSH2 0x196C PUSH1 0xC0 DUP3 ADD MLOAD PUSH1 0x6 DUP7 ADD PUSH2 0x17E2 JUMP JUMPDEST PUSH2 0x197D PUSH1 0xE0 DUP3 ADD MLOAD PUSH1 0x7 DUP7 ADD PUSH2 0x17E2 JUMP JUMPDEST PUSH2 0x198F PUSH2 0x100 DUP3 ADD MLOAD PUSH1 0x8 DUP7 ADD PUSH2 0x17E2 JUMP JUMPDEST PUSH2 0x19A1 PUSH2 0x120 DUP3 ADD MLOAD PUSH1 0x9 DUP7 ADD PUSH2 0x17E2 JUMP JUMPDEST PUSH2 0x19B3 PUSH2 0x140 DUP3 ADD MLOAD PUSH1 0xA DUP7 ADD PUSH2 0x17E2 JUMP JUMPDEST ADD MLOAD PUSH1 0xB DUP4 ADD PUSH2 0x17E2 JUMP JUMPDEST PUSH2 0x19CE DUP7 DUP7 ADD MLOAD PUSH1 0xC DUP4 ADD PUSH2 0x17E2 JUMP JUMPDEST PUSH2 0x19DF PUSH1 0x40 DUP7 ADD MLOAD PUSH1 0xD DUP4 ADD PUSH2 0x17E2 JUMP JUMPDEST PUSH1 0x60 DUP6 ADD MLOAD PUSH1 0xE DUP3 ADD SSTORE ADD SWAP3 ADD MLOAD SWAP3 DUP4 MLOAD SWAP4 PUSH8 0xFFFFFFFFFFFFFFFF DUP6 GT PUSH2 0x1252 JUMPI PUSH1 0x1 PUSH1 0x40 SHL DUP6 GT PUSH2 0x1252 JUMPI DUP2 SWAP1 DUP5 SLOAD DUP7 DUP7 SSTORE DUP1 DUP8 LT PUSH2 0x1A4B JUMPI JUMPDEST POP ADD SWAP3 PUSH1 0x0 MSTORE DUP1 PUSH1 0x0 KECCAK256 SWAP2 PUSH1 0x0 JUMPDEST DUP6 DUP2 LT PUSH2 0x1A38 JUMPI POP POP POP POP POP POP POP JUMP JUMPDEST DUP5 MLOAD DUP3 AND DUP5 DUP3 ADD SSTORE SWAP4 DUP3 ADD SWAP4 DUP7 ADD PUSH2 0x1A28 JUMP JUMPDEST PUSH2 0x1A62 SWAP1 DUP7 PUSH1 0x0 MSTORE DUP8 DUP5 PUSH1 0x0 KECCAK256 SWAP2 DUP3 ADD SWAP2 ADD PUSH2 0x17CB JUMP JUMPDEST CODESIZE PUSH2 0x1A1A JUMP JUMPDEST PUSH8 0xFFFFFFFFFFFFFFFF DUP2 GT PUSH2 0x1252 JUMPI PUSH1 0x5 SHL PUSH1 0x20 ADD SWAP1 JUMP JUMPDEST SWAP1 DUP2 SLOAD DUP1 DUP3 MSTORE PUSH1 0x20 DUP1 SWAP3 ADD SWAP3 PUSH1 0x0 MSTORE DUP2 PUSH1 0x0 KECCAK256 SWAP2 PUSH1 0x0 SWAP1 JUMPDEST DUP3 DUP3 LT PUSH2 0x1AA6 JUMPI POP POP POP POP SWAP1 JUMP JUMPDEST DUP4 SLOAD PUSH1 0x1 PUSH1 0x1 PUSH1 0xA0 SHL SUB AND DUP6 MSTORE SWAP4 DUP5 ADD SWAP4 PUSH1 0x1 SWAP4 DUP5 ADD SWAP4 SWAP1 SWAP2 ADD SWAP1 PUSH2 0x1A98 JUMP JUMPDEST SWAP1 PUSH1 0xF PUSH1 0x80 PUSH1 0x40 MLOAD PUSH2 0x1AD7 DUP2 PUSH2 0x1268 JUMP JUMPDEST PUSH2 0x174E DUP2 SWAP6 PUSH2 0x1AE5 DUP2 PUSH2 0x163D JUMP JUMPDEST DUP4 MSTORE PUSH1 0x40 MLOAD PUSH2 0x1AFB DUP2 PUSH2 0x1679 DUP2 PUSH1 0xC DUP7 ADD PUSH2 0x15A7 JUMP JUMPDEST PUSH1 0x20 DUP5 ADD MSTORE PUSH1 0x40 MLOAD PUSH2 0x1B14 DUP2 PUSH2 0x1679 DUP2 PUSH1 0xD DUP7 ADD PUSH2 0x15A7 JUMP JUMPDEST PUSH1 0x40 DUP5 ADD MSTORE PUSH1 0xE DUP2 ADD SLOAD PUSH1 0x60 DUP5 ADD MSTORE PUSH2 0x2C6 PUSH1 0x40 MLOAD DUP1 SWAP7 DUP2 SWAP4 ADD PUSH2 0x1A80 JUMP JUMPDEST PUSH1 0x40 MLOAD SWAP1 PUSH2 0x1B40 DUP3 PUSH2 0x1235 JUMP JUMPDEST DUP2 PUSH1 0x0 DUP2 MSTORE PUSH2 0x160 PUSH1 0x60 SWAP2 DUP3 PUSH1 0x20 DUP3 ADD MSTORE PUSH1 0x0 PUSH1 0x40 DUP3 ADD MSTORE PUSH1 0x0 DUP4 DUP3 ADD MSTORE DUP3 PUSH1 0x80 DUP3 ADD MSTORE DUP3 PUSH1 0xA0 DUP3 ADD MSTORE DUP3 PUSH1 0xC0 DUP3 ADD MSTORE DUP3 PUSH1 0xE0 DUP3 ADD MSTORE DUP3 PUSH2 0x100 DUP3 ADD MSTORE DUP3 PUSH2 0x120 DUP3 ADD MSTORE DUP3 PUSH2 0x140 DUP3 ADD MSTORE ADD MSTORE JUMP JUMPDEST DUP1 MLOAD SWAP1 PUSH1 0x20 SWAP2 DUP3 DUP3 ADD SWAP1 DUP2 KECCAK256 SWAP1 PUSH1 0x0 SWAP3 DUP4 SLOAD SWAP3 DUP4 ISZERO PUSH2 0x1EED JUMPI SWAP1 DUP6 SWAP3 SWAP2 DUP6 DUP1 MSTORE PUSH1 0x40 MLOAD DUP7 SWAP1 PUSH32 0x290DECD9548B62A8D60345A988386FC84BA6BC95484008F6362F93160EF3E563 DUP2 DUP2 SLOAD SWAP4 PUSH2 0x1BE2 DUP6 PUSH2 0x156D JUMP JUMPDEST SWAP3 DUP4 DUP4 MSTORE DUP10 DUP4 ADD SWAP6 PUSH1 0x1 SWAP14 DUP15 DUP3 AND SWAP2 DUP3 PUSH1 0x0 EQ PUSH2 0x1ECF JUMPI POP POP PUSH1 0x1 EQ PUSH2 0x1E74 JUMPI JUMPDEST POP PUSH2 0x1C10 SWAP3 POP SUB DUP3 PUSH2 0x12A0 JUMP JUMPDEST MLOAD SWAP1 KECCAK256 SUB PUSH2 0x1C43 JUMPI POP POP POP POP PUSH1 0x2 SLOAD SWAP2 DUP3 ADD DUP1 SWAP3 GT PUSH2 0x1C2F JUMPI POP PUSH1 0x2 SSTORE JUMP JUMPDEST PUSH4 0x4E487B71 PUSH1 0xE0 SHL DUP2 MSTORE PUSH1 0x11 PUSH1 0x4 MSTORE PUSH1 0x24 SWAP1 REVERT JUMPDEST DUP1 MLOAD DUP3 KECCAK256 DUP5 DUP8 LT ISZERO PUSH2 0x1E60 JUMPI DUP6 DUP1 MSTORE DUP7 PUSH1 0x40 MLOAD DUP8 DUP2 PUSH32 0x290DECD9548B62A8D60345A988386FC84BA6BC95484008F6362F93160EF3E564 SWAP2 DUP3 SLOAD SWAP3 PUSH2 0x1C86 DUP5 PUSH2 0x156D JUMP JUMPDEST SWAP4 DUP5 DUP5 MSTORE DUP11 DUP1 DUP6 ADD SWAP8 DUP3 AND SWAP2 DUP3 PUSH1 0x0 EQ PUSH2 0x1E42 JUMPI POP POP PUSH1 0x1 EQ PUSH2 0x1DE7 JUMPI JUMPDEST POP PUSH2 0x1CB1 SWAP3 POP SUB DUP3 PUSH2 0x12A0 JUMP JUMPDEST MLOAD SWAP1 KECCAK256 SUB PUSH2 0x1CD0 JUMPI POP POP POP POP PUSH1 0x3 SLOAD SWAP2 DUP3 ADD DUP1 SWAP3 GT PUSH2 0x1C2F JUMPI POP PUSH1 0x3 SSTORE JUMP JUMPDEST MLOAD SWAP1 KECCAK256 SWAP2 PUSH1 0x2 LT ISZERO PUSH2 0x1DD3 JUMPI DUP3 DUP1 MSTORE PUSH1 0x40 MLOAD DUP4 SWAP2 DUP2 PUSH32 0x290DECD9548B62A8D60345A988386FC84BA6BC95484008F6362F93160EF3E565 SWAP4 DUP5 SLOAD SWAP5 PUSH2 0x1D13 DUP7 PUSH2 0x156D JUMP JUMPDEST SWAP1 DUP2 DUP5 MSTORE DUP5 DUP5 ADD SWAP7 DUP11 DUP2 AND SWAP1 DUP2 PUSH1 0x0 EQ PUSH2 0x1DB5 JUMPI POP PUSH1 0x1 EQ PUSH2 0x1D5D JUMPI JUMPDEST POP POP PUSH2 0x1D3E SWAP3 POP SUB DUP3 PUSH2 0x12A0 JUMP JUMPDEST MLOAD SWAP1 KECCAK256 EQ PUSH2 0x1D4A JUMPI POP POP JUMP JUMPDEST PUSH1 0x4 SLOAD SWAP2 DUP3 ADD DUP1 SWAP3 GT PUSH2 0x1C2F JUMPI POP PUSH1 0x4 SSTORE JUMP JUMPDEST DUP9 MSTORE DUP8 SWAP2 POP DUP9 PUSH32 0x63D75DB57AE45C3799740C3CD8DCEE96A498324843D79AE390ADC81D74B52F13 JUMPDEST DUP3 DUP5 LT PUSH2 0x1D9E JUMPI POP POP POP SWAP2 PUSH2 0x1D3E SWAP3 DUP3 ADD ADD CODESIZE DUP1 PUSH2 0x1D30 JUMP JUMPDEST DUP1 SLOAD DUP8 DUP6 ADD DUP8 ADD MSTORE DUP7 SWAP5 POP SWAP3 DUP6 ADD SWAP3 DUP11 SWAP2 ADD PUSH2 0x1D85 JUMP JUMPDEST SWAP2 POP POP PUSH2 0x1D3E SWAP5 SWAP3 POP PUSH1 0xFF NOT AND DUP7 MSTORE ISZERO ISZERO PUSH1 0x5 SHL DUP3 ADD ADD CODESIZE DUP1 PUSH2 0x1D30 JUMP JUMPDEST PUSH4 0x4E487B71 PUSH1 0xE0 SHL DUP4 MSTORE PUSH1 0x32 PUSH1 0x4 MSTORE PUSH1 0x24 DUP4 REVERT JUMPDEST DUP12 MSTORE POP DUP3 SWAP1 POP DUP8 DUP11 DUP13 PUSH32 0x6C13D8C1C5DF666EA9CA2A428504A3776C8CA01021C3A1524CA7D765F600979A JUMPDEST DUP6 DUP4 LT PUSH2 0x1E29 JUMPI POP POP PUSH2 0x1CB1 SWAP4 POP DUP3 ADD ADD CODESIZE PUSH2 0x1CA4 JUMP JUMPDEST DUP1 SWAP2 SWAP3 SWAP5 POP SLOAD DUP4 DUP6 DUP9 ADD ADD MSTORE ADD SWAP2 ADD DUP9 SWAP1 DUP13 DUP6 SWAP4 PUSH2 0x1E12 JUMP JUMPDEST PUSH1 0xFF NOT AND DUP9 MSTORE PUSH2 0x1CB1 SWAP6 ISZERO ISZERO PUSH1 0x5 SHL DUP6 ADD ADD SWAP3 POP CODESIZE SWAP2 POP PUSH2 0x1CA4 SWAP1 POP JUMP JUMPDEST PUSH4 0x4E487B71 PUSH1 0xE0 SHL DUP7 MSTORE PUSH1 0x32 PUSH1 0x4 MSTORE PUSH1 0x24 DUP7 REVERT JUMPDEST DUP12 MSTORE POP DUP3 SWAP1 POP DUP8 DUP11 DUP13 PUSH32 0x510E4E770828DDBF7F7B00AB00A9F6ADAF81C0DC9CC85F1F8249C256942D61D9 JUMPDEST DUP6 DUP4 LT PUSH2 0x1EB6 JUMPI POP POP PUSH2 0x1C10 SWAP4 POP DUP3 ADD ADD CODESIZE PUSH2 0x1C03 JUMP JUMPDEST DUP1 SWAP2 SWAP3 SWAP5 POP SLOAD DUP4 DUP6 DUP9 ADD ADD MSTORE ADD SWAP2 ADD DUP9 SWAP1 DUP13 DUP6 SWAP4 PUSH2 0x1E9F JUMP JUMPDEST PUSH1 0xFF NOT AND DUP9 MSTORE PUSH2 0x1C10 SWAP6 ISZERO ISZERO PUSH1 0x5 SHL DUP6 ADD ADD SWAP3 POP CODESIZE SWAP2 POP PUSH2 0x1C03 SWAP1 POP JUMP JUMPDEST PUSH4 0x4E487B71 PUSH1 0xE0 SHL DUP6 MSTORE PUSH1 0x32 PUSH1 0x4 MSTORE PUSH1 0x24 DUP6 REVERT JUMPDEST DUP1 SLOAD SWAP1 PUSH1 0x1 PUSH1 0x40 SHL DUP3 LT ISZERO PUSH2 0x1252 JUMPI PUSH1 0x1 DUP3 ADD DUP1 DUP3 SSTORE DUP3 LT ISZERO PUSH2 0x1557 JUMPI PUSH1 0x0 MSTORE PUSH1 0x20 PUSH1 0x0 KECCAK256 ADD SWAP1 PUSH1 0x1 DUP1 PUSH1 0xA0 SHL SUB AND PUSH1 0x1 PUSH1 0x1 PUSH1 0x60 SHL SUB PUSH1 0xA0 SHL DUP3 SLOAD AND OR SWAP1 SSTORE JUMP JUMPDEST PUSH1 0x0 NOT DUP2 EQ PUSH2 0x1F52 JUMPI PUSH1 0x1 ADD SWAP1 JUMP JUMPDEST PUSH4 0x4E487B71 PUSH1 0xE0 SHL PUSH1 0x0 MSTORE PUSH1 0x11 PUSH1 0x4 MSTORE PUSH1 0x24 PUSH1 0x0 REVERT JUMPDEST SWAP1 DUP1 MLOAD PUSH1 0x1 DUP1 PUSH1 0xA0 SHL SUB DUP1 DUP3 MLOAD AND PUSH1 0x1 PUSH1 0x1 PUSH1 0x60 SHL SUB PUSH1 0xA0 SHL DUP6 SLOAD AND OR DUP5 SSTORE PUSH1 0x20 SWAP1 PUSH2 0x203C PUSH2 0x160 DUP4 DUP6 ADD MLOAD SWAP5 PUSH2 0x1FA3 PUSH1 0x1 SWAP7 DUP8 DUP11 ADD PUSH2 0x17E2 JUMP JUMPDEST PUSH1 0x40 DUP2 ADD MLOAD PUSH1 0x2 DUP10 ADD SSTORE PUSH1 0x60 DUP2 ADD MLOAD PUSH1 0x3 DUP10 ADD SSTORE PUSH2 0x1FC8 PUSH1 0x80 DUP3 ADD MLOAD PUSH1 0x4 DUP11 ADD PUSH2 0x17E2 JUMP JUMPDEST PUSH2 0x1FD9 PUSH1 0xA0 DUP3 ADD MLOAD PUSH1 0x5 DUP11 ADD PUSH2 0x17E2 JUMP JUMPDEST PUSH2 0x1FEA PUSH1 0xC0 DUP3 ADD MLOAD PUSH1 0x6 DUP11 ADD PUSH2 0x17E2 JUMP JUMPDEST PUSH2 0x1FFB PUSH1 0xE0 DUP3 ADD MLOAD PUSH1 0x7 DUP11 ADD PUSH2 0x17E2 JUMP JUMPDEST PUSH2 0x200D PUSH2 0x100 DUP3 ADD MLOAD PUSH1 0x8 DUP11 ADD PUSH2 0x17E2 JUMP JUMPDEST PUSH2 0x201F PUSH2 0x120 DUP3 ADD MLOAD PUSH1 0x9 DUP11 ADD PUSH2 0x17E2 JUMP JUMPDEST PUSH2 0x2031 PUSH2 0x140 DUP3 ADD MLOAD PUSH1 0xA DUP11 ADD PUSH2 0x17E2 JUMP JUMPDEST ADD MLOAD PUSH1 0xB DUP8 ADD PUSH2 0x17E2 JUMP JUMPDEST PUSH1 0xC DUP6 ADD SWAP1 DUP3 DUP6 ADD MLOAD SWAP3 DUP4 MLOAD SWAP4 PUSH8 0xFFFFFFFFFFFFFFFF DUP6 GT PUSH2 0x1252 JUMPI PUSH1 0x1 PUSH1 0x40 SHL DUP6 GT PUSH2 0x1252 JUMPI DUP2 SWAP1 DUP5 SLOAD DUP7 DUP7 SSTORE DUP1 DUP8 LT PUSH2 0x20AD JUMPI JUMPDEST POP ADD SWAP3 PUSH1 0x0 MSTORE DUP1 PUSH1 0x0 KECCAK256 SWAP2 PUSH1 0x0 JUMPDEST DUP6 DUP2 LT PUSH2 0x209A JUMPI POP POP POP POP POP POP POP PUSH1 0x40 PUSH1 0xD SWAP2 ADD MLOAD SWAP2 ADD SSTORE JUMP JUMPDEST DUP5 MLOAD DUP3 AND DUP5 DUP3 ADD SSTORE SWAP4 DUP3 ADD SWAP4 DUP7 ADD PUSH2 0x2080 JUMP JUMPDEST PUSH2 0x20C4 SWAP1 DUP7 PUSH1 0x0 MSTORE DUP8 DUP5 PUSH1 0x0 KECCAK256 SWAP2 DUP3 ADD SWAP2 ADD PUSH2 0x17CB JUMP JUMPDEST CODESIZE PUSH2 0x2072 JUMP JUMPDEST SWAP1 PUSH1 0x40 MLOAD PUSH2 0x20D7 DUP2 PUSH2 0x1284 JUMP JUMPDEST PUSH1 0x40 PUSH1 0xD DUP3 SWAP5 PUSH2 0x20E6 DUP2 PUSH2 0x163D JUMP JUMPDEST DUP5 MSTORE DUP3 MLOAD PUSH2 0x20FB DUP2 PUSH2 0x1679 DUP2 PUSH1 0xC DUP7 ADD PUSH2 0x1A80 JUMP JUMPDEST PUSH1 0x20 DUP6 ADD MSTORE ADD SLOAD SWAP2 ADD MSTORE JUMP JUMPDEST SWAP1 PUSH1 0x1 DUP3 ADD DUP1 SWAP3 GT PUSH2 0x1F52 JUMPI JUMP INVALID LOG2 PUSH5 0x6970667358 0x22 SLT KECCAK256 DUP4 0xEA 0xB3 LT 0x29 SWAP2 0xB4 0xE9 SWAP13 RETURN 0x22 SLT 0xBA GAS 0x5C PUSH9 0x7351A068AC6F05A2FC 0xFB DIFFICULTY DUP1 SWAP10 RETURN DUP5 DUP1 PUSH5 0x736F6C6343 STOP ADDMOD GT STOP CALLER "
				},
				"gasEstimates": {
					"creation": {
						"codeDepositCost": "1704600",
						"executionCost": "infinite",
						"totalCost": "infinite"
					},
					"external": {
						"addCandidate(string,uint256,uint256,string,string,string,string,string,string,string,string,string,string)": "infinite",
						"addVoter(string,uint256,uint256,string,string,string,string,string,string,string,string)": "infinite",
						"adminAddress()": "2780",
						"candidateList(uint256)": "infinite",
						"candidateNames(uint256)": "infinite",
						"candidates(address)": "infinite",
						"gender_list(uint256)": "infinite",
						"getAllCandidates()": "infinite",
						"getAllVoters()": "infinite",
						"getCandidateDetails(address)": "infinite",
						"getVoterDetails(address)": "infinite",
						"isAdmin(address)": "2407",
						"totalCandidate()": "2324",
						"totalFemaleVoters()": "2544",
						"totalMaleVoters()": "2271",
						"totalOtherVoters()": "2302",
						"totalVoter()": "2478",
						"updateCounter(string)": "infinite",
						"vote(address)": "infinite",
						"voteCount()": "2742",
						"voterList(uint256)": "infinite",
						"voterNames(uint256)": "infinite",
						"voters(address)": "infinite"
					}
				},
				"methodIdentifiers": {
					"addCandidate(string,uint256,uint256,string,string,string,string,string,string,string,string,string,string)": "2d23c735",
					"addVoter(string,uint256,uint256,string,string,string,string,string,string,string,string)": "9eda74cf",
					"adminAddress()": "fc6f9468",
					"candidateList(uint256)": "b13c744b",
					"candidateNames(uint256)": "8287e42f",
					"candidates(address)": "8ab66a90",
					"gender_list(uint256)": "6394a8fa",
					"getAllCandidates()": "2e6997fe",
					"getAllVoters()": "35bbe70e",
					"getCandidateDetails(address)": "53ac5dc3",
					"getVoterDetails(address)": "ba71bef0",
					"isAdmin(address)": "24d7806c",
					"totalCandidate()": "1812dab4",
					"totalFemaleVoters()": "7c054c54",
					"totalMaleVoters()": "029c21bd",
					"totalOtherVoters()": "0983f185",
					"totalVoter()": "6332abc9",
					"updateCounter(string)": "b0a4ec42",
					"vote(address)": "6dd7d8ea",
					"voteCount()": "c6384071",
					"voterList(uint256)": "50e2e8af",
					"voterNames(uint256)": "a96278ae",
					"voters(address)": "a3ec138d"
				}
			},
			"storageLayout": {
				"storage": [
					{
						"astId": 170,
						"contract": "Contract/Voter.sol:Voter",
						"label": "gender_list",
						"offset": 0,
						"slot": "0",
						"type": "t_array(t_string_storage)dyn_storage"
					},
					{
						"astId": 296,
						"contract": "Contract/Voter.sol:Voter",
						"label": "adminAddress",
						"offset": 0,
						"slot": "1",
						"type": "t_address"
					},
					{
						"astId": 299,
						"contract": "Contract/Voter.sol:Voter",
						"label": "totalMaleVoters",
						"offset": 0,
						"slot": "2",
						"type": "t_uint256"
					},
					{
						"astId": 302,
						"contract": "Contract/Voter.sol:Voter",
						"label": "totalFemaleVoters",
						"offset": 0,
						"slot": "3",
						"type": "t_uint256"
					},
					{
						"astId": 305,
						"contract": "Contract/Voter.sol:Voter",
						"label": "totalOtherVoters",
						"offset": 0,
						"slot": "4",
						"type": "t_uint256"
					},
					{
						"astId": 15,
						"contract": "Contract/Voter.sol:Voter",
						"label": "candidates",
						"offset": 0,
						"slot": "5",
						"type": "t_mapping(t_address,t_struct(Candidate)238_storage)"
					},
					{
						"astId": 19,
						"contract": "Contract/Voter.sol:Voter",
						"label": "candidateList",
						"offset": 0,
						"slot": "6",
						"type": "t_array(t_struct(Candidate)238_storage)dyn_storage"
					},
					{
						"astId": 22,
						"contract": "Contract/Voter.sol:Voter",
						"label": "candidateNames",
						"offset": 0,
						"slot": "7",
						"type": "t_array(t_string_storage)dyn_storage"
					},
					{
						"astId": 25,
						"contract": "Contract/Voter.sol:Voter",
						"label": "totalCandidate",
						"offset": 0,
						"slot": "8",
						"type": "t_uint256"
					},
					{
						"astId": 418,
						"contract": "Contract/Voter.sol:Voter",
						"label": "voters",
						"offset": 0,
						"slot": "9",
						"type": "t_mapping(t_address,t_struct(Voter)225_storage)"
					},
					{
						"astId": 422,
						"contract": "Contract/Voter.sol:Voter",
						"label": "voterList",
						"offset": 0,
						"slot": "10",
						"type": "t_array(t_struct(Voter)225_storage)dyn_storage"
					},
					{
						"astId": 425,
						"contract": "Contract/Voter.sol:Voter",
						"label": "voterNames",
						"offset": 0,
						"slot": "11",
						"type": "t_array(t_string_storage)dyn_storage"
					},
					{
						"astId": 428,
						"contract": "Contract/Voter.sol:Voter",
						"label": "totalVoter",
						"offset": 0,
						"slot": "12",
						"type": "t_uint256"
					},
					{
						"astId": 431,
						"contract": "Contract/Voter.sol:Voter",
						"label": "voteCount",
						"offset": 0,
						"slot": "13",
						"type": "t_uint256"
					}
				],
				"types": {
					"t_address": {
						"encoding": "inplace",
						"label": "address",
						"numberOfBytes": "20"
					},
					"t_array(t_address)dyn_storage": {
						"base": "t_address",
						"encoding": "dynamic_array",
						"label": "address[]",
						"numberOfBytes": "32"
					},
					"t_array(t_string_storage)dyn_storage": {
						"base": "t_string_storage",
						"encoding": "dynamic_array",
						"label": "string[]",
						"numberOfBytes": "32"
					},
					"t_array(t_struct(Candidate)238_storage)dyn_storage": {
						"base": "t_struct(Candidate)238_storage",
						"encoding": "dynamic_array",
						"label": "struct Structure.Candidate[]",
						"numberOfBytes": "32"
					},
					"t_array(t_struct(Voter)225_storage)dyn_storage": {
						"base": "t_struct(Voter)225_storage",
						"encoding": "dynamic_array",
						"label": "struct Structure.Voter[]",
						"numberOfBytes": "32"
					},
					"t_mapping(t_address,t_struct(Candidate)238_storage)": {
						"encoding": "mapping",
						"key": "t_address",
						"label": "mapping(address => struct Structure.Candidate)",
						"numberOfBytes": "32",
						"value": "t_struct(Candidate)238_storage"
					},
					"t_mapping(t_address,t_struct(Voter)225_storage)": {
						"encoding": "mapping",
						"key": "t_address",
						"label": "mapping(address => struct Structure.Voter)",
						"numberOfBytes": "32",
						"value": "t_struct(Voter)225_storage"
					},
					"t_string_storage": {
						"encoding": "bytes",
						"label": "string",
						"numberOfBytes": "32"
					},
					"t_struct(Candidate)238_storage": {
						"encoding": "inplace",
						"label": "struct Structure.Candidate",
						"members": [
							{
								"astId": 228,
								"contract": "Contract/Voter.sol:Voter",
								"label": "user",
								"offset": 0,
								"slot": "0",
								"type": "t_struct(User)209_storage"
							},
							{
								"astId": 230,
								"contract": "Contract/Voter.sol:Voter",
								"label": "partyName",
								"offset": 0,
								"slot": "12",
								"type": "t_string_storage"
							},
							{
								"astId": 232,
								"contract": "Contract/Voter.sol:Voter",
								"label": "agenda",
								"offset": 0,
								"slot": "13",
								"type": "t_string_storage"
							},
							{
								"astId": 234,
								"contract": "Contract/Voter.sol:Voter",
								"label": "voteCount",
								"offset": 0,
								"slot": "14",
								"type": "t_uint256"
							},
							{
								"astId": 237,
								"contract": "Contract/Voter.sol:Voter",
								"label": "votedVoterLists",
								"offset": 0,
								"slot": "15",
								"type": "t_array(t_address)dyn_storage"
							}
						],
						"numberOfBytes": "512"
					},
					"t_struct(User)209_storage": {
						"encoding": "inplace",
						"label": "struct Structure.User",
						"members": [
							{
								"astId": 186,
								"contract": "Contract/Voter.sol:Voter",
								"label": "_id",
								"offset": 0,
								"slot": "0",
								"type": "t_address"
							},
							{
								"astId": 188,
								"contract": "Contract/Voter.sol:Voter",
								"label": "fullName",
								"offset": 0,
								"slot": "1",
								"type": "t_string_storage"
							},
							{
								"astId": 190,
								"contract": "Contract/Voter.sol:Voter",
								"label": "citizenshipNumber",
								"offset": 0,
								"slot": "2",
								"type": "t_uint256"
							},
							{
								"astId": 192,
								"contract": "Contract/Voter.sol:Voter",
								"label": "age",
								"offset": 0,
								"slot": "3",
								"type": "t_uint256"
							},
							{
								"astId": 194,
								"contract": "Contract/Voter.sol:Voter",
								"label": "gender",
								"offset": 0,
								"slot": "4",
								"type": "t_string_storage"
							},
							{
								"astId": 196,
								"contract": "Contract/Voter.sol:Voter",
								"label": "dob",
								"offset": 0,
								"slot": "5",
								"type": "t_string_storage"
							},
							{
								"astId": 198,
								"contract": "Contract/Voter.sol:Voter",
								"label": "email",
								"offset": 0,
								"slot": "6",
								"type": "t_string_storage"
							},
							{
								"astId": 200,
								"contract": "Contract/Voter.sol:Voter",
								"label": "profile",
								"offset": 0,
								"slot": "7",
								"type": "t_string_storage"
							},
							{
								"astId": 202,
								"contract": "Contract/Voter.sol:Voter",
								"label": "province",
								"offset": 0,
								"slot": "8",
								"type": "t_string_storage"
							},
							{
								"astId": 204,
								"contract": "Contract/Voter.sol:Voter",
								"label": "district",
								"offset": 0,
								"slot": "9",
								"type": "t_string_storage"
							},
							{
								"astId": 206,
								"contract": "Contract/Voter.sol:Voter",
								"label": "municipality",
								"offset": 0,
								"slot": "10",
								"type": "t_string_storage"
							},
							{
								"astId": 208,
								"contract": "Contract/Voter.sol:Voter",
								"label": "ward",
								"offset": 0,
								"slot": "11",
								"type": "t_string_storage"
							}
						],
						"numberOfBytes": "384"
					},
					"t_struct(Voter)225_storage": {
						"encoding": "inplace",
						"label": "struct Structure.Voter",
						"members": [
							{
								"astId": 219,
								"contract": "Contract/Voter.sol:Voter",
								"label": "user",
								"offset": 0,
								"slot": "0",
								"type": "t_struct(User)209_storage"
							},
							{
								"astId": 222,
								"contract": "Contract/Voter.sol:Voter",
								"label": "votedCandidateList",
								"offset": 0,
								"slot": "12",
								"type": "t_array(t_address)dyn_storage"
							},
							{
								"astId": 224,
								"contract": "Contract/Voter.sol:Voter",
								"label": "voteLimitCount",
								"offset": 0,
								"slot": "13",
								"type": "t_uint256"
							}
						],
						"numberOfBytes": "448"
					},
					"t_uint256": {
						"encoding": "inplace",
						"label": "uint256",
						"numberOfBytes": "32"
					}
				}
			},
			"userdoc": {
				"kind": "user",
				"methods": {},
				"version": 1
			}
		}
	}
}