{
	"Contract/Utils.sol": {
		"Utils": {
			"abi": [
				{
					"inputs": [],
					"stateMutability": "nonpayable",
					"type": "constructor"
				},
				{
					"inputs": [],
					"name": "adminAddress",
					"outputs": [
						{
							"internalType": "address",
							"name": "",
							"type": "address"
						}
					],
					"stateMutability": "view",
					"type": "function"
				},
				{
					"inputs": [
						{
							"internalType": "uint256",
							"name": "",
							"type": "uint256"
						}
					],
					"name": "gender_list",
					"outputs": [
						{
							"internalType": "string",
							"name": "",
							"type": "string"
						}
					],
					"stateMutability": "view",
					"type": "function"
				},
				{
					"inputs": [
						{
							"internalType": "address",
							"name": "_id",
							"type": "address"
						}
					],
					"name": "isAdmin",
					"outputs": [
						{
							"internalType": "bool",
							"name": "",
							"type": "bool"
						}
					],
					"stateMutability": "view",
					"type": "function"
				},
				{
					"inputs": [],
					"name": "totalFemaleVoters",
					"outputs": [
						{
							"internalType": "uint256",
							"name": "",
							"type": "uint256"
						}
					],
					"stateMutability": "view",
					"type": "function"
				},
				{
					"inputs": [],
					"name": "totalMaleVoters",
					"outputs": [
						{
							"internalType": "uint256",
							"name": "",
							"type": "uint256"
						}
					],
					"stateMutability": "view",
					"type": "function"
				},
				{
					"inputs": [],
					"name": "totalOtherVoters",
					"outputs": [
						{
							"internalType": "uint256",
							"name": "",
							"type": "uint256"
						}
					],
					"stateMutability": "view",
					"type": "function"
				},
				{
					"inputs": [
						{
							"internalType": "string",
							"name": "_gender",
							"type": "string"
						}
					],
					"name": "updateCounter",
					"outputs": [],
					"stateMutability": "nonpayable",
					"type": "function"
				}
			],
			"devdoc": {
				"kind": "dev",
				"methods": {},
				"version": 1
			},
			"evm": {
				"assembly": "    /* \"Contract/Utils.sol\":194:1052  contract Utils is Constants{... */\n  0x80\n  jumpi(tag_4, callvalue)\n  sub(shl(0x40, 0x01), 0x01)\n  0x60\n  dup3\n  add\n  dup2\n  dup2\n  gt\n  dup4\n  dup3\n  lt\n  or\n  tag_6\n  jumpi\n  0x40\n  mstore\n  tag_8\n  tag_1\n  jump\t// in\ntag_8:\n  0x04\n  swap1\n  dup2\n  dup2\n  mstore\n  0x20\n  swap1\n  shl(0xe0, 0x4d414c45)\n  dup3\n  dup3\n  add\n  mstore\n  dup5\n  mstore\n  tag_9\n  tag_1\n  jump\t// in\ntag_9:\n  0x06\n  dup2\n  mstore\n  shl(0xd0, 0x46454d414c45)\n  dup3\n  dup3\n  add\n  mstore\n    /* \"Contract/Constants.sol\":154:180  [\"MALE\",\"FEMALE\",\"OTHERS\"] */\n  dup2\n  dup6\n  add\n    /* \"Contract/Utils.sol\":194:1052  contract Utils is Constants{... */\n  mstore\n  tag_10\n  tag_1\n  jump\t// in\ntag_10:\n  0x06\n  dup2\n  mstore\n  shl(0xd0, 0x4f5448455253)\n  dup3\n  dup3\n  add\n  mstore\n  0x40\n    /* \"Contract/Constants.sol\":154:180  [\"MALE\",\"FEMALE\",\"OTHERS\"] */\n  dup6\n  add\n    /* \"Contract/Utils.sol\":194:1052  contract Utils is Constants{... */\n  mstore\n  0x00\n  swap3\n  dup4\n  sload\n    /* \"Contract/Constants.sol\":154:180  [\"MALE\",\"FEMALE\",\"OTHERS\"] */\n  swap5\n  0x03\n    /* \"Contract/Utils.sol\":194:1052  contract Utils is Constants{... */\n  swap6\n  dup7\n  dup7\n  sstore\n  dup1\n  dup8\n  lt\n  tag_11\n  jumpi\ntag_12:\n  pop\n  dup5\n  dup1\n  mstore\n  dup3\n  dup6\n  keccak256\n  dup6\n  swap2\ntag_13:\n  dup8\n  dup4\n  lt\n  tag_14\n  jumpi\n    /* \"Contract/Utils.sol\":319:320  0 */\n  0x02\n    /* \"Contract/Utils.sol\":194:1052  contract Utils is Constants{... */\n  dup8\n  swap1\n  sstore\n  dup7\n  dup9\n  sstore\n  dup7\n  dup7\n  sstore\n  0x01\n  dup1\n  sload\n  not(sub(shl(0xa0, 0x01), 0x01))\n  and\n    /* \"Contract/Utils.sol\":446:456  msg.sender */\n  caller\n    /* \"Contract/Utils.sol\":194:1052  contract Utils is Constants{... */\n  or\n  swap1\n  sstore\n  mload(0x40)\n  dataSize(sub_0)\n  swap1\n  dup2\n  dataOffset(sub_0)\n  dup3\n  codecopy\n  return\ntag_14:\n  dup1\n  mload\n  dup1\n  mload\n  swap1\n  dup6\n  dup3\n  gt\n  tag_16\n  jumpi\n  swap1\n  dup7\n  swap2\n  tag_18\n  dup6\n  sload\n  tag_2\n  jump\t// in\ntag_18:\n  swap1\n  0x1f\n  swap2\n  dup3\n  dup2\n  gt\n  tag_19\n  jumpi\ntag_20:\n  pop\n  dup4\n  swap2\n  dup4\n  gt\n  0x01\n  eq\n  tag_21\n  jumpi\n  swap2\n  dup1\n  0x01\n  swap6\n  swap3\n  dup7\n  swap6\n  swap5\n  dup14\n  swap3\n  tag_23\n  jumpi\ntag_24:\n  pop\n  pop\n  not(0x00)\n  dup3\n  dup15\n  shl\n  shr\n  not\n  and\n  swap1\n  dup5\n  shl\n  or\n  dup6\n  sstore\ntag_25:\n  add\n  swap3\n  add\n  swap3\n  add\n  swap2\n  swap1\n  jump(tag_13)\ntag_23:\n  add\n  mload\n  swap1\n  pop\n  codesize\n  dup1\n  jump(tag_24)\ntag_21:\n  dup6\n  dup12\n  mstore\n  dup4\n  dup12\n  keccak256\n  swap2\n  swap1\n  not(0x1f)\n  dup5\n  and\n  dup13\ntag_26:\n  dup2\n  dup2\n  lt\n  tag_27\n  jumpi\n  pop\n  swap2\n  0x01\n  swap7\n  swap4\n  swap2\n  dup6\n  dup9\n  swap8\n  swap7\n  swap5\n  lt\n  tag_29\n  jumpi\ntag_30:\n  pop\n  pop\n  pop\n  dup4\n  shl\n  dup4\n  add\n  dup6\n  sstore\n  jump(tag_25)\ntag_29:\n  add\n  mload\n  not(0x00)\n  dup4\n  dup16\n  shl\n  0xf8\n  and\n  shr\n  not\n  and\n  swap1\n  sstore\n  codesize\n  dup1\n  dup1\n  jump(tag_30)\ntag_27:\n  dup3\n  dup5\n  add\n  mload\n  dup6\n  sstore\n  dup12\n  swap7\n  0x01\n  swap1\n  swap6\n  add\n  swap5\n  swap4\n  dup5\n  add\n  swap4\n  add\n  jump(tag_26)\ntag_19:\n  tag_31\n  swap1\n  dup8\n  dup14\n  mstore\n  dup6\n  dup14\n  keccak256\n  0x05\n  dup6\n  dup1\n  dup9\n  add\n  dup3\n  shr\n  dup4\n  add\n  swap4\n  dup10\n  dup10\n  lt\n  tag_32\n  jumpi\ntag_33:\n  add\n  swap1\n  shr\n  add\n  swap1\n  tag_3\n  jump\t// in\ntag_31:\n  codesize\n  jump(tag_20)\ntag_32:\n  swap4\n  pop\n  dup3\n  swap4\n  jump(tag_33)\ntag_16:\n  shl(0xe0, 0x4e487b71)\n  dup10\n  mstore\n  0x41\n  dup9\n  mstore\n  0x24\n  dup10\n  revert\ntag_11:\n  dup6\n  dup1\n  mstore\n  dup7\n  dup5\n  dup8\n  keccak256\n  swap2\n  dup3\n  add\n  swap2\n  add\ntag_34:\n  dup2\n  dup2\n  lt\n  tag_35\n  jumpi\n  pop\n  jump(tag_12)\ntag_35:\n  dup1\n  tag_37\n  0x01\n  swap3\n  sload\n  tag_2\n  jump\t// in\ntag_37:\n  dup1\n  tag_38\n  jumpi\ntag_39:\n  pop\n  add\n  jump(tag_34)\ntag_38:\n  0x1f\n  swap1\n  dup2\n  dup2\n  gt\n  dup5\n  eq\n  tag_40\n  jumpi\n  pop\n  pop\n  dup8\n  dup2\n  sstore\ntag_42:\n  codesize\n  jump(tag_39)\ntag_40:\n  dup4\n  tag_43\n  swap3\n  dup5\n  dup13\n  mstore\n  dup10\n  dup13\n  keccak256\n  swap3\n  add\n  0x05\n  shr\n  dup3\n  add\n  swap2\n  add\n  tag_3\n  jump\t// in\ntag_43:\n  dup8\n  dup7\n  dup2\n  keccak256\n  dup2\n  dup4\n  sstore\n  sstore\n  jump(tag_42)\ntag_6:\n  mstore(0x00, shl(0xe0, 0x4e487b71))\n  mstore(0x04, 0x41)\n  revert(0x00, 0x24)\ntag_4:\n  0x00\n  dup1\n  revert\ntag_1:\n  0x40\n  dup1\n  mload\n  swap2\n  swap1\n  dup3\n  add\n  sub(shl(0x40, 0x01), 0x01)\n  dup2\n  gt\n  dup4\n  dup3\n  lt\n  or\n  tag_6\n  jumpi\n  0x40\n  mstore\n  jump\t// out\ntag_2:\n  swap1\n  0x01\n  dup3\n  dup2\n  shr\n  swap3\n  and\n  dup1\n  iszero\n  tag_46\n  jumpi\ntag_47:\n  0x20\n  dup4\n  lt\n  eq\n  tag_48\n  jumpi\n  jump\t// out\ntag_48:\n  mstore(0x00, shl(0xe0, 0x4e487b71))\n  mstore(0x04, 0x22)\n  revert(0x00, 0x24)\ntag_46:\n  swap2\n  0x7f\n  and\n  swap2\n  jump(tag_47)\ntag_3:\n  dup2\n  dup2\n  lt\n  tag_51\n  jumpi\n  pop\n  pop\n  jump\t// out\ntag_51:\n  0x00\n  dup2\n  sstore\n  0x01\n  add\n  jump(tag_3)\nstop\n\nsub_0: assembly {\n        /* \"Contract/Utils.sol\":194:1052  contract Utils is Constants{... */\n      0x80\n      0x40\n      dup2\n      dup2\n      mstore\n      0x04\n      swap2\n      dup3\n      calldatasize\n      lt\n      iszero\n      tag_3\n      jumpi\n      0x00\n      dup1\n      revert\n    tag_3:\n      0x00\n      swap3\n      dup4\n      calldataload\n      0xe0\n      shr\n      swap2\n      dup3\n      0x029c21bd\n      eq\n      tag_5\n      jumpi\n      pop\n      dup2\n      0x0983f185\n      eq\n      tag_7\n      jumpi\n      dup2\n      0x24d7806c\n      eq\n      tag_9\n      jumpi\n      dup2\n      0x6394a8fa\n      eq\n      tag_11\n      jumpi\n      dup2\n      0x7c054c54\n      eq\n      tag_13\n      jumpi\n      dup2\n      0xb0a4ec42\n      eq\n      tag_15\n      jumpi\n      pop\n      0xfc6f9468\n      eq\n      tag_17\n      jumpi\n      0x00\n      dup1\n      revert\n    tag_17:\n      jumpi(tag_21, callvalue)\n      dup2\n      add(calldatasize, not(0x03))\n      slt\n      tag_21\n      jumpi\n      sload(0x01)\n      swap1\n      mload\n      sub(shl(0xa0, 0x01), 0x01)\n      swap1\n      swap2\n      and\n      dup2\n      mstore\n      0x20\n      swap1\n      return\n    tag_21:\n      pop\n      dup1\n      revert\n    tag_15:\n      swap1\n      pop\n      jumpi(tag_34, callvalue)\n      0x20\n      swap2\n      dup3\n      add(calldatasize, not(0x03))\n      slt\n      tag_25\n      jumpi\n      dup2\n      calldataload\n      0xffffffffffffffff\n      swap2\n      dup3\n      dup3\n      gt\n      tag_29\n      jumpi\n      calldatasize\n      0x23\n      dup4\n      add\n      slt\n      iszero\n      tag_29\n      jumpi\n      dup2\n      dup5\n      add\n      calldataload\n      swap3\n      dup4\n      gt\n      tag_31\n      jumpi\n      dup1\n      mload\n      swap2\n      tag_33\n      0x1f\n      dup6\n      add\n      not(0x1f)\n      and\n      dup8\n      add\n      dup5\n      tag_2\n      jump\t// in\n    tag_33:\n      dup4\n      dup4\n      mstore\n      dup7\n      dup7\n      dup5\n      add\n      swap2\n      0x24\n      swap6\n      calldatasize\n      dup8\n      dup3\n      dup5\n      add\n      add\n      gt\n      tag_34\n      jumpi\n      dup1\n      dup8\n      dup11\n      swap4\n      add\n      dup6\n      calldatacopy\n      dup6\n      add\n      add\n      mstore\n      dup3\n      mload\n        /* \"Contract/Utils.sol\":640:665  keccak256(bytes(_gender)) */\n      dup2\n      keccak256\n        /* \"Contract/Utils.sol\":194:1052  contract Utils is Constants{... */\n      swap3\n      dup8\n      sload\n      swap4\n      dup5\n      iszero\n      tag_36\n      jumpi\n      swap1\n      dup8\n      swap4\n      swap3\n      swap2\n      dup10\n      dup1\n      mstore\n      dup4\n      mload\n      dup11\n      dup2\n      0x290decd9548b62a8d60345a988386fc84ba6bc95484008f6362f93160ef3e563\n      swap2\n      dup3\n      sload\n      swap3\n      tag_38\n      dup5\n      tag_1\n      jump\t// in\n    tag_38:\n      swap4\n      dup5\n      dup5\n      mstore\n      0x01\n      swap15\n      dup16\n      dup3\n      and\n      swap2\n      dup3\n      0x00\n      eq\n      tag_39\n      jumpi\n      pop\n      pop\n      0x01\n      eq\n      tag_41\n      jumpi\n    tag_42:\n      pop\n      tag_43\n      swap3\n      pop\n      sub\n      dup3\n      tag_2\n      jump\t// in\n    tag_43:\n      dup1\n      mload\n      swap1\n      dup7\n      add\n        /* \"Contract/Utils.sol\":669:701  keccak256(bytes(gender_list[0])) */\n      keccak256\n        /* \"Contract/Utils.sol\":640:701  keccak256(bytes(_gender)) == keccak256(bytes(gender_list[0])) */\n      sub\n        /* \"Contract/Utils.sol\":669:701  keccak256(bytes(gender_list[0])) */\n      tag_44\n      jumpi\n        /* \"Contract/Utils.sol\":194:1052  contract Utils is Constants{... */\n      pop\n      pop\n      pop\n      pop\n      pop\n      swap1\n        /* \"Contract/Utils.sol\":734:749  totalMaleVoters */\n      0x02\n        /* \"Contract/Utils.sol\":194:1052  contract Utils is Constants{... */\n      sload\n      swap3\n      dup4\n      add\n      dup1\n      swap4\n      gt\n      tag_46\n      jumpi\n      pop\n      pop\n        /* \"Contract/Utils.sol\":734:749  totalMaleVoters */\n      0x02\n        /* \"Contract/Utils.sol\":194:1052  contract Utils is Constants{... */\n      sstore\n      dup1\n      return\n    tag_46:\n      shl(0xe0, 0x4e487b71)\n      dup5\n      mstore\n      0x11\n      swap1\n      mstore\n      dup3\n      revert\n        /* \"Contract/Utils.sol\":637:1043  if(keccak256(bytes(_gender)) == keccak256(bytes(gender_list[0]))){... */\n    tag_44:\n        /* \"Contract/Utils.sol\":194:1052  contract Utils is Constants{... */\n      dup1\n      mload\n        /* \"Contract/Utils.sol\":775:800  keccak256(bytes(_gender)) */\n      dup3\n      keccak256\n        /* \"Contract/Utils.sol\":194:1052  contract Utils is Constants{... */\n      dup6\n      dup10\n      lt\n      iszero\n      tag_49\n      jumpi\n      dup10\n      dup1\n      mstore\n      dup9\n      dup5\n      mload\n      dup12\n      dup2\n      0x290decd9548b62a8d60345a988386fc84ba6bc95484008f6362f93160ef3e564\n      swap2\n      dup3\n      sload\n      swap3\n      tag_51\n      dup5\n      tag_1\n      jump\t// in\n    tag_51:\n      swap4\n      dup5\n      dup5\n      mstore\n      dup12\n      dup1\n      dup6\n      add\n      swap8\n      dup3\n      and\n      swap2\n      dup3\n      0x00\n      eq\n      tag_52\n      jumpi\n      pop\n      pop\n      0x01\n      eq\n      tag_54\n      jumpi\n    tag_55:\n      pop\n      tag_56\n      swap3\n      pop\n      sub\n      dup3\n      tag_2\n      jump\t// in\n    tag_56:\n      mload\n        /* \"Contract/Utils.sol\":804:836  keccak256(bytes(gender_list[1])) */\n      swap1\n      keccak256\n        /* \"Contract/Utils.sol\":775:836  keccak256(bytes(_gender)) == keccak256(bytes(gender_list[1])) */\n      sub\n        /* \"Contract/Utils.sol\":804:836  keccak256(bytes(gender_list[1])) */\n      tag_57\n      jumpi\n        /* \"Contract/Utils.sol\":194:1052  contract Utils is Constants{... */\n      pop\n      pop\n      pop\n      pop\n      pop\n      swap1\n      sload(0x03)\n      swap3\n      dup4\n      add\n      dup1\n      swap4\n      gt\n      tag_46\n      jumpi\n      pop\n      pop\n      0x03\n      sstore\n      dup1\n      return\n        /* \"Contract/Utils.sol\":772:1043  if(keccak256(bytes(_gender)) == keccak256(bytes(gender_list[1]))){... */\n    tag_57:\n        /* \"Contract/Utils.sol\":194:1052  contract Utils is Constants{... */\n      mload\n        /* \"Contract/Utils.sol\":914:939  keccak256(bytes(_gender)) */\n      swap1\n      keccak256\n        /* \"Contract/Utils.sol\":194:1052  contract Utils is Constants{... */\n      swap3\n        /* \"Contract/Utils.sol\":971:972  2 */\n      0x02\n        /* \"Contract/Utils.sol\":194:1052  contract Utils is Constants{... */\n      lt\n      iszero\n      tag_62\n      jumpi\n      dup7\n      dup1\n      mstore\n      mload\n      dup7\n      swap2\n      dup2\n      0x290decd9548b62a8d60345a988386fc84ba6bc95484008f6362f93160ef3e565\n      swap4\n      dup5\n      sload\n      swap5\n      tag_64\n      dup7\n      tag_1\n      jump\t// in\n    tag_64:\n      swap1\n      dup2\n      dup5\n      mstore\n      dup5\n      dup5\n      add\n      swap7\n      dup12\n      dup2\n      and\n      swap1\n      dup2\n      0x00\n      eq\n      tag_65\n      jumpi\n      pop\n      0x01\n      eq\n      tag_67\n      jumpi\n    tag_68:\n      pop\n      pop\n      tag_69\n      swap3\n      pop\n      sub\n      dup3\n      tag_2\n      jump\t// in\n    tag_69:\n      mload\n        /* \"Contract/Utils.sol\":943:975  keccak256(bytes(gender_list[2])) */\n      swap1\n      keccak256\n        /* \"Contract/Utils.sol\":914:975  keccak256(bytes(_gender)) == keccak256(bytes(gender_list[2])) */\n      eq\n        /* \"Contract/Utils.sol\":911:1043  if(keccak256(bytes(_gender)) == keccak256(bytes(gender_list[2]))){... */\n      tag_70\n      jumpi\n        /* \"Contract/Utils.sol\":194:1052  contract Utils is Constants{... */\n    tag_71:\n        /* \"Contract/Utils.sol\":772:1043  if(keccak256(bytes(_gender)) == keccak256(bytes(gender_list[1]))){... */\n      pop\n      pop\n      pop\n        /* \"Contract/Utils.sol\":194:1052  contract Utils is Constants{... */\n      dup1\n      return\n        /* \"Contract/Utils.sol\":911:1043  if(keccak256(bytes(_gender)) == keccak256(bytes(gender_list[2]))){... */\n    tag_70:\n        /* \"Contract/Utils.sol\":194:1052  contract Utils is Constants{... */\n      dup2\n      sload\n      swap3\n      dup4\n      add\n      dup1\n      swap4\n      gt\n      tag_72\n      jumpi\n      pop\n      sstore\n        /* \"Contract/Utils.sol\":911:1043  if(keccak256(bytes(_gender)) == keccak256(bytes(gender_list[2]))){... */\n      codesize\n      dup1\n      dup1\n      jump(tag_71)\n        /* \"Contract/Utils.sol\":194:1052  contract Utils is Constants{... */\n    tag_72:\n      shl(0xe0, 0x4e487b71)\n      dup5\n      mstore\n      0x11\n      dup3\n      mstore\n      dup4\n      revert\n    tag_67:\n      dup12\n      mstore\n      dup11\n      swap2\n      pop\n      dup10\n      0x63d75db57ae45c3799740c3cd8dcee96a498324843d79ae390adc81d74b52f13\n    tag_74:\n      dup3\n      dup5\n      lt\n      tag_75\n      jumpi\n      pop\n      pop\n      pop\n      swap2\n      tag_69\n      swap3\n      dup3\n      add\n      add\n      codesize\n      dup1\n      jump(tag_68)\n    tag_75:\n      dup1\n      sload\n      dup8\n      dup6\n      add\n      dup8\n      add\n      mstore\n      dup7\n      swap5\n      pop\n      swap3\n      dup6\n      add\n      swap3\n      dup12\n      swap2\n      add\n      jump(tag_74)\n    tag_65:\n      swap2\n      pop\n      pop\n      tag_69\n      swap5\n      swap3\n      pop\n      not(0xff)\n      and\n      dup7\n      mstore\n      iszero\n      iszero\n      0x05\n      shl\n      dup3\n      add\n      add\n      codesize\n      dup1\n      jump(tag_68)\n    tag_62:\n      shl(0xe0, 0x4e487b71)\n      dup8\n      mstore\n      0x32\n      dup6\n      mstore\n      dup4\n      dup8\n      revert\n    tag_54:\n      dup16\n      mstore\n      pop\n      dup9\n      dup15\n      dup15\n      0x6c13d8c1c5df666ea9ca2a428504a3776c8ca01021c3a1524ca7d765f600979a\n    tag_77:\n      dup6\n      dup4\n      lt\n      tag_78\n      jumpi\n      pop\n      pop\n      tag_56\n      swap4\n      pop\n      dup3\n      add\n      add\n      codesize\n      jump(tag_55)\n    tag_78:\n      dup1\n      swap2\n      swap3\n      swap5\n      pop\n      sload\n      dup4\n      dup6\n      dup9\n      add\n      add\n      mstore\n      add\n      swap2\n      add\n      dup10\n      swap1\n      dup15\n      dup6\n      swap4\n      jump(tag_77)\n    tag_52:\n      not(0xff)\n      and\n      dup9\n      mstore\n      tag_56\n      swap6\n      iszero\n      iszero\n      0x05\n      shl\n      dup6\n      add\n      add\n      swap3\n      pop\n      codesize\n      swap2\n      pop\n      tag_55\n      swap1\n      pop\n      jump\n    tag_49:\n      shl(0xe0, 0x4e487b71)\n      dup11\n      mstore\n      0x32\n      dup9\n      mstore\n      dup7\n      dup11\n      revert\n    tag_41:\n      swap2\n      pop\n      pop\n      dup13\n      mstore\n      dup2\n      dup8\n      dup14\n      dup14\n      0x510e4e770828ddbf7f7b00ab00a9f6adaf81c0dc9cc85f1f8249c256942d61d9\n    tag_80:\n      dup6\n      dup4\n      lt\n      tag_81\n      jumpi\n      pop\n      pop\n      tag_43\n      swap4\n      pop\n      dup3\n      add\n      add\n      codesize\n      jump(tag_42)\n    tag_81:\n      dup1\n      swap2\n      swap3\n      swap5\n      pop\n      sload\n      dup4\n      dup6\n      dup9\n      add\n      add\n      mstore\n      add\n      swap2\n      add\n      dup9\n      swap1\n      dup14\n      dup6\n      swap4\n      jump(tag_80)\n    tag_39:\n      not(0xff)\n      and\n      dup6\n      dup3\n      add\n      mstore\n      tag_43\n      swap6\n      iszero\n      iszero\n      0x05\n      shl\n      dup6\n      add\n      add\n      swap3\n      pop\n      codesize\n      swap2\n      pop\n      tag_42\n      swap1\n      pop\n      jump\n    tag_36:\n      shl(0xe0, 0x4e487b71)\n      dup10\n      mstore\n      0x32\n      dup8\n      mstore\n      dup6\n      dup10\n      revert\n    tag_34:\n      dup3\n      dup1\n      revert\n    tag_31:\n      shl(0xe0, 0x4e487b71)\n      dup7\n      mstore\n      0x41\n      dup5\n      mstore\n      0x24\n      dup7\n      revert\n    tag_29:\n      dup6\n      dup1\n      revert\n    tag_25:\n      dup4\n      dup1\n      revert\n    tag_13:\n      pop\n      pop\n      jumpi(tag_21, callvalue)\n      dup2\n      add(calldatasize, not(0x03))\n      slt\n      tag_21\n      jumpi\n      0x20\n      swap1\n      sload(0x03)\n      swap1\n      mload\n      swap1\n      dup2\n      mstore\n      return\n    tag_11:\n      dup3\n      dup5\n      jumpi(tag_87, callvalue)\n      0x20\n      swap3\n      dup4\n      add(calldatasize, not(0x03))\n      slt\n      tag_21\n      jumpi\n      calldataload\n      dup2\n      sload\n        /* \"Contract/Constants.sol\":83:110  string[] public gender_list */\n      dup2\n      lt\n      iszero\n      tag_21\n      jumpi\n        /* \"Contract/Utils.sol\":194:1052  contract Utils is Constants{... */\n      dup2\n      dup1\n      mstore\n      0x290decd9548b62a8d60345a988386fc84ba6bc95484008f6362f93160ef3e563\n      add\n      swap1\n      dup4\n      dup4\n      mload\n      dup1\n      swap4\n      dup4\n      swap1\n      dup1\n      sload\n      tag_93\n      dup2\n      tag_1\n      jump\t// in\n    tag_93:\n      dup1\n      dup6\n      mstore\n      swap2\n      0x01\n      swap2\n      dup1\n      dup4\n      and\n      swap1\n      dup2\n      iszero\n      tag_94\n      jumpi\n      pop\n      0x01\n      eq\n      tag_96\n      jumpi\n    tag_97:\n      pop\n      pop\n      pop\n      tag_98\n      swap3\n      pop\n      swap6\n      swap4\n      swap3\n      swap6\n      sub\n      dup3\n      tag_2\n      jump\t// in\n    tag_98:\n      dup3\n      mload\n      swap4\n      dup3\n      dup6\n      swap4\n      dup5\n      mstore\n      dup3\n      mload\n      swap3\n      dup4\n      dup3\n      dup7\n      add\n      mstore\n      dup3\n    tag_99:\n      dup5\n      dup2\n      lt\n      tag_100\n      jumpi\n      pop\n      pop\n      pop\n      dup3\n      dup3\n      add\n      dup5\n      add\n      mstore\n      0x1f\n      add\n      not(0x1f)\n      and\n      dup2\n      add\n      sub\n      add\n      swap1\n      return\n    tag_100:\n      dup2\n      dup2\n      add\n      dup4\n      add\n      mload\n      dup9\n      dup3\n      add\n      dup9\n      add\n      mstore\n      dup8\n      swap6\n      pop\n      dup3\n      add\n      jump(tag_99)\n    tag_96:\n      dup7\n      mstore\n      dup5\n      dup7\n      keccak256\n      swap5\n      swap3\n      pop\n      dup6\n      swap2\n      swap1\n    tag_102:\n      dup2\n      dup4\n      lt\n      tag_103\n      jumpi\n      pop\n      dup9\n      swap5\n      pop\n      pop\n      dup3\n      add\n      add\n      tag_98\n      dup9\n      dup1\n      jump(tag_97)\n    tag_103:\n      dup6\n      sload\n      dup9\n      dup5\n      add\n      dup6\n      add\n      mstore\n      swap5\n      dup6\n      add\n      swap5\n      dup8\n      swap5\n      pop\n      swap2\n      dup4\n      add\n      swap2\n      jump(tag_102)\n    tag_94:\n      swap3\n      pop\n      pop\n      pop\n      tag_98\n      swap5\n      swap3\n      pop\n      not(0xff)\n      and\n      dup3\n      dup5\n      add\n      mstore\n      iszero\n      iszero\n      0x05\n      shl\n      dup3\n      add\n      add\n      dup7\n      swap3\n      dup9\n      dup1\n      jump(tag_97)\n    tag_87:\n      dup1\n      revert\n    tag_9:\n      swap1\n      pop\n      jumpi(tag_34, callvalue)\n      jumpi(tag_34, slt(add(not(0x03), calldatasize), 0x20))\n      calldataload\n      sub(shl(0xa0, 0x01), 0x01)\n      dup2\n      dup2\n      and\n      swap2\n      dup3\n      swap1\n      sub\n      tag_25\n      jumpi\n      0x20\n      swap4\n      pop\n      sload(0x01)\n      and\n        /* \"Contract/Utils.sol\":542:561  _id == adminAddress */\n      eq\n        /* \"Contract/Utils.sol\":194:1052  contract Utils is Constants{... */\n      swap1\n      mload\n      swap1\n      dup2\n      mstore\n      return\n    tag_7:\n      swap1\n      pop\n      jumpi(tag_34, callvalue)\n      dup3\n      add(calldatasize, not(0x03))\n      slt\n      tag_34\n      jumpi\n      0x20\n      swap3\n      pop\n      sload\n      swap1\n      mload\n      swap1\n      dup2\n      mstore\n      return\n    tag_5:\n      dup5\n      swap1\n      jumpi(tag_21, callvalue)\n      dup2\n      add(calldatasize, not(0x03))\n      slt\n      tag_21\n      jumpi\n      0x20\n      swap1\n        /* \"Contract/Utils.sol\":289:320  uint public totalMaleVoters = 0 */\n      0x02\n        /* \"Contract/Utils.sol\":194:1052  contract Utils is Constants{... */\n      sload\n      dup2\n      mstore\n      return\n    tag_1:\n      swap1\n      0x01\n      dup3\n      dup2\n      shr\n      swap3\n      and\n      dup1\n      iszero\n      tag_119\n      jumpi\n    tag_120:\n      0x20\n      dup4\n      lt\n      eq\n      tag_121\n      jumpi\n      jump\t// out\n    tag_121:\n      mstore(0x00, shl(0xe0, 0x4e487b71))\n      mstore(0x04, 0x22)\n      revert(0x00, 0x24)\n    tag_119:\n      swap2\n      0x7f\n      and\n      swap2\n      jump(tag_120)\n    tag_2:\n      swap1\n      0x1f\n      dup1\n      not\n      swap2\n      add\n      and\n      dup2\n      add\n      swap1\n      dup2\n      lt\n      0xffffffffffffffff\n      dup3\n      gt\n      or\n      tag_123\n      jumpi\n      0x40\n      mstore\n      jump\t// out\n    tag_123:\n      mstore(0x00, shl(0xe0, 0x4e487b71))\n      mstore(0x04, 0x41)\n      revert(0x00, 0x24)\n\n    auxdata: 0xa264697066735822122003a0e8ed2b4709f51748c66fd56e7246c854043681ee16e4b2efc583dfdd8c4364736f6c63430008110033\n}\n",
				"bytecode": {
					"linkReferences": {},
					"object": "60803462000296576001600160401b03606082018181118382101762000280576040526200002c6200029b565b600490818152602090634d414c4560e01b8282015284526200004d6200029b565b600681526546454d414c4560d01b82820152818501526200006d6200029b565b60068152654f544845525360d01b82820152604085015260009283549460039586865580871062000203575b5084805282852085915b878310620000d8576002879055868855868655600180546001600160a01b0319163317905560405161070e9081620003128239f35b8051805190858211620001f057908691620000f48554620002bb565b90601f91828111620001b5575b50839183116001146200014a579180600195928695948d926200013e575b5050600019828e1b1c191690841b1785555b01920192019190620000a3565b0151905038806200011f565b858b52838b209190601f1984168c5b8181106200019c575091600196939185889796941062000183575b505050831b8301855562000131565b0151600019838f1b60f8161c1916905538808062000174565b8284015185558b96600190950194938401930162000159565b620001df90878d52858d20600585808801821c830193898910620001e6575b01901c0190620002f8565b3862000101565b93508293620001d4565b634e487b7160e01b895260418852602489fd5b8580528684872091820191015b8181106200021f575062000099565b806200022e60019254620002bb565b806200023d575b500162000210565b601f908181118414620002575750508781555b3862000235565b836200027292848c52898c20920160051c82019101620002f8565b878681208183555562000250565b634e487b7160e01b600052604160045260246000fd5b600080fd5b60408051919082016001600160401b038111838210176200028057604052565b90600182811c92168015620002ed575b6020831014620002d757565b634e487b7160e01b600052602260045260246000fd5b91607f1691620002cb565b81811062000304575050565b60008155600101620002f856fe608060408181526004918236101561001657600080fd5b600092833560e01c918263029c21bd1461064a575081630983f1851461062c57816324d7806c146105f55781636394a8fa146104c85781637c054c54146104a9578163b0a4ec421461009d575063fc6f94681461007257600080fd5b3461009957816003193601126100995760015490516001600160a01b039091168152602090f35b5080fd5b90503461048a57602091826003193601126104a557813567ffffffffffffffff918282116104a157366023830112156104a1578184013592831161048e578051916100f1601f8501601f19168701846106a0565b83835286868401916024953687828401011161048a5780878a93018537850101528251812092875493841561047857908793929189805283518a817f290decd9548b62a8d60345a988386fc84ba6bc95484008f6362f93160ef3e5639182549261015a84610666565b9384845260019e8f821691826000146104585750506001146103fd575b50610184925003826106a0565b805190860120036101bb575050505050906002549283018093116101aa57505060025580f35b634e487b7160e01b84526011905282fd5b80518220858910156103eb578980528884518b817f290decd9548b62a8d60345a988386fc84ba6bc95484008f6362f93160ef3e564918254926101fd84610666565b938484528b80850197821691826000146103cd575050600114610375575b50610228925003826106a0565b5190200361024b575050505050906003549283018093116101aa57505060035580f35b519020926002101561036357868052518691817f290decd9548b62a8d60345a988386fc84ba6bc95484008f6362f93160ef3e5659384549461028c86610666565b90818452848401968b8116908160001461034557506001146102ed575b50506102b7925003826106a0565b519020146102c6575b50505080f35b81549283018093116102dc5750553880806102c0565b634e487b7160e01b84526011825283fd5b8b528a9150897f63d75db57ae45c3799740c3cd8dcee96a498324843d79ae390adc81d74b52f135b82841061032e57505050916102b79282010138806102a9565b8054878501870152869450928501928b9101610315565b9150506102b794925060ff19168652151560051b82010138806102a9565b634e487b7160e01b8752603285528387fd5b8f5250888e8e7f6c13d8c1c5df666ea9ca2a428504a3776c8ca01021c3a1524ca7d765f600979a5b8583106103b457505061022893508201013861021b565b80919294505483858801015201910189908e859361039d565b60ff1916885261022895151560051b850101925038915061021b9050565b634e487b7160e01b8a5260328852868afd5b9150508c5281878d8d7f510e4e770828ddbf7f7b00ab00a9f6adaf81c0dc9cc85f1f8249c256942d61d95b85831061043f575050610184935082010138610177565b80919294505483858801015201910188908d8593610428565b60ff19168582015261018495151560051b85010192503891506101779050565b634e487b7160e01b8952603287528589fd5b8280fd5b634e487b7160e01b865260418452602486fd5b8580fd5b8380fd5b5050346100995781600319360112610099576020906003549051908152f35b8284346105f2576020928360031936011261009957358154811015610099578180527f290decd9548b62a8d60345a988386fc84ba6bc95484008f6362f93160ef3e563019083835180938390805461051f81610666565b808552916001918083169081156105cf5750600114610592575b50505061054c92509593929503826106a0565b82519382859384528251928382860152825b84811061057c57505050828201840152601f01601f19168101030190f35b818101830151888201880152879550820161055e565b86528486209492508591905b8183106105b757508894505082010161054c8880610539565b8554888401850152948501948794509183019161059e565b9250505061054c94925060ff191682840152151560051b82010186928880610539565b80fd5b90503461048a57602036600319011261048a57356001600160a01b03818116918290036104a5576020935060015416149051908152f35b90503461048a578260031936011261048a5760209250549051908152f35b8490346100995781600319360112610099576020906002548152f35b90600182811c92168015610696575b602083101461068057565b634e487b7160e01b600052602260045260246000fd5b91607f1691610675565b90601f8019910116810190811067ffffffffffffffff8211176106c257604052565b634e487b7160e01b600052604160045260246000fdfea264697066735822122003a0e8ed2b4709f51748c66fd56e7246c854043681ee16e4b2efc583dfdd8c4364736f6c63430008110033",
					"opcodes": "PUSH1 0x80 CALLVALUE PUSH3 0x296 JUMPI PUSH1 0x1 PUSH1 0x1 PUSH1 0x40 SHL SUB PUSH1 0x60 DUP3 ADD DUP2 DUP2 GT DUP4 DUP3 LT OR PUSH3 0x280 JUMPI PUSH1 0x40 MSTORE PUSH3 0x2C PUSH3 0x29B JUMP JUMPDEST PUSH1 0x4 SWAP1 DUP2 DUP2 MSTORE PUSH1 0x20 SWAP1 PUSH4 0x4D414C45 PUSH1 0xE0 SHL DUP3 DUP3 ADD MSTORE DUP5 MSTORE PUSH3 0x4D PUSH3 0x29B JUMP JUMPDEST PUSH1 0x6 DUP2 MSTORE PUSH6 0x46454D414C45 PUSH1 0xD0 SHL DUP3 DUP3 ADD MSTORE DUP2 DUP6 ADD MSTORE PUSH3 0x6D PUSH3 0x29B JUMP JUMPDEST PUSH1 0x6 DUP2 MSTORE PUSH6 0x4F5448455253 PUSH1 0xD0 SHL DUP3 DUP3 ADD MSTORE PUSH1 0x40 DUP6 ADD MSTORE PUSH1 0x0 SWAP3 DUP4 SLOAD SWAP5 PUSH1 0x3 SWAP6 DUP7 DUP7 SSTORE DUP1 DUP8 LT PUSH3 0x203 JUMPI JUMPDEST POP DUP5 DUP1 MSTORE DUP3 DUP6 KECCAK256 DUP6 SWAP2 JUMPDEST DUP8 DUP4 LT PUSH3 0xD8 JUMPI PUSH1 0x2 DUP8 SWAP1 SSTORE DUP7 DUP9 SSTORE DUP7 DUP7 SSTORE PUSH1 0x1 DUP1 SLOAD PUSH1 0x1 PUSH1 0x1 PUSH1 0xA0 SHL SUB NOT AND CALLER OR SWAP1 SSTORE PUSH1 0x40 MLOAD PUSH2 0x70E SWAP1 DUP2 PUSH3 0x312 DUP3 CODECOPY RETURN JUMPDEST DUP1 MLOAD DUP1 MLOAD SWAP1 DUP6 DUP3 GT PUSH3 0x1F0 JUMPI SWAP1 DUP7 SWAP2 PUSH3 0xF4 DUP6 SLOAD PUSH3 0x2BB JUMP JUMPDEST SWAP1 PUSH1 0x1F SWAP2 DUP3 DUP2 GT PUSH3 0x1B5 JUMPI JUMPDEST POP DUP4 SWAP2 DUP4 GT PUSH1 0x1 EQ PUSH3 0x14A JUMPI SWAP2 DUP1 PUSH1 0x1 SWAP6 SWAP3 DUP7 SWAP6 SWAP5 DUP14 SWAP3 PUSH3 0x13E JUMPI JUMPDEST POP POP PUSH1 0x0 NOT DUP3 DUP15 SHL SHR NOT AND SWAP1 DUP5 SHL OR DUP6 SSTORE JUMPDEST ADD SWAP3 ADD SWAP3 ADD SWAP2 SWAP1 PUSH3 0xA3 JUMP JUMPDEST ADD MLOAD SWAP1 POP CODESIZE DUP1 PUSH3 0x11F JUMP JUMPDEST DUP6 DUP12 MSTORE DUP4 DUP12 KECCAK256 SWAP2 SWAP1 PUSH1 0x1F NOT DUP5 AND DUP13 JUMPDEST DUP2 DUP2 LT PUSH3 0x19C JUMPI POP SWAP2 PUSH1 0x1 SWAP7 SWAP4 SWAP2 DUP6 DUP9 SWAP8 SWAP7 SWAP5 LT PUSH3 0x183 JUMPI JUMPDEST POP POP POP DUP4 SHL DUP4 ADD DUP6 SSTORE PUSH3 0x131 JUMP JUMPDEST ADD MLOAD PUSH1 0x0 NOT DUP4 DUP16 SHL PUSH1 0xF8 AND SHR NOT AND SWAP1 SSTORE CODESIZE DUP1 DUP1 PUSH3 0x174 JUMP JUMPDEST DUP3 DUP5 ADD MLOAD DUP6 SSTORE DUP12 SWAP7 PUSH1 0x1 SWAP1 SWAP6 ADD SWAP5 SWAP4 DUP5 ADD SWAP4 ADD PUSH3 0x159 JUMP JUMPDEST PUSH3 0x1DF SWAP1 DUP8 DUP14 MSTORE DUP6 DUP14 KECCAK256 PUSH1 0x5 DUP6 DUP1 DUP9 ADD DUP3 SHR DUP4 ADD SWAP4 DUP10 DUP10 LT PUSH3 0x1E6 JUMPI JUMPDEST ADD SWAP1 SHR ADD SWAP1 PUSH3 0x2F8 JUMP JUMPDEST CODESIZE PUSH3 0x101 JUMP JUMPDEST SWAP4 POP DUP3 SWAP4 PUSH3 0x1D4 JUMP JUMPDEST PUSH4 0x4E487B71 PUSH1 0xE0 SHL DUP10 MSTORE PUSH1 0x41 DUP9 MSTORE PUSH1 0x24 DUP10 REVERT JUMPDEST DUP6 DUP1 MSTORE DUP7 DUP5 DUP8 KECCAK256 SWAP2 DUP3 ADD SWAP2 ADD JUMPDEST DUP2 DUP2 LT PUSH3 0x21F JUMPI POP PUSH3 0x99 JUMP JUMPDEST DUP1 PUSH3 0x22E PUSH1 0x1 SWAP3 SLOAD PUSH3 0x2BB JUMP JUMPDEST DUP1 PUSH3 0x23D JUMPI JUMPDEST POP ADD PUSH3 0x210 JUMP JUMPDEST PUSH1 0x1F SWAP1 DUP2 DUP2 GT DUP5 EQ PUSH3 0x257 JUMPI POP POP DUP8 DUP2 SSTORE JUMPDEST CODESIZE PUSH3 0x235 JUMP JUMPDEST DUP4 PUSH3 0x272 SWAP3 DUP5 DUP13 MSTORE DUP10 DUP13 KECCAK256 SWAP3 ADD PUSH1 0x5 SHR DUP3 ADD SWAP2 ADD PUSH3 0x2F8 JUMP JUMPDEST DUP8 DUP7 DUP2 KECCAK256 DUP2 DUP4 SSTORE SSTORE PUSH3 0x250 JUMP JUMPDEST PUSH4 0x4E487B71 PUSH1 0xE0 SHL PUSH1 0x0 MSTORE PUSH1 0x41 PUSH1 0x4 MSTORE PUSH1 0x24 PUSH1 0x0 REVERT JUMPDEST PUSH1 0x0 DUP1 REVERT JUMPDEST PUSH1 0x40 DUP1 MLOAD SWAP2 SWAP1 DUP3 ADD PUSH1 0x1 PUSH1 0x1 PUSH1 0x40 SHL SUB DUP2 GT DUP4 DUP3 LT OR PUSH3 0x280 JUMPI PUSH1 0x40 MSTORE JUMP JUMPDEST SWAP1 PUSH1 0x1 DUP3 DUP2 SHR SWAP3 AND DUP1 ISZERO PUSH3 0x2ED JUMPI JUMPDEST PUSH1 0x20 DUP4 LT EQ PUSH3 0x2D7 JUMPI JUMP JUMPDEST PUSH4 0x4E487B71 PUSH1 0xE0 SHL PUSH1 0x0 MSTORE PUSH1 0x22 PUSH1 0x4 MSTORE PUSH1 0x24 PUSH1 0x0 REVERT JUMPDEST SWAP2 PUSH1 0x7F AND SWAP2 PUSH3 0x2CB JUMP JUMPDEST DUP2 DUP2 LT PUSH3 0x304 JUMPI POP POP JUMP JUMPDEST PUSH1 0x0 DUP2 SSTORE PUSH1 0x1 ADD PUSH3 0x2F8 JUMP INVALID PUSH1 0x80 PUSH1 0x40 DUP2 DUP2 MSTORE PUSH1 0x4 SWAP2 DUP3 CALLDATASIZE LT ISZERO PUSH2 0x16 JUMPI PUSH1 0x0 DUP1 REVERT JUMPDEST PUSH1 0x0 SWAP3 DUP4 CALLDATALOAD PUSH1 0xE0 SHR SWAP2 DUP3 PUSH4 0x29C21BD EQ PUSH2 0x64A JUMPI POP DUP2 PUSH4 0x983F185 EQ PUSH2 0x62C JUMPI DUP2 PUSH4 0x24D7806C EQ PUSH2 0x5F5 JUMPI DUP2 PUSH4 0x6394A8FA EQ PUSH2 0x4C8 JUMPI DUP2 PUSH4 0x7C054C54 EQ PUSH2 0x4A9 JUMPI DUP2 PUSH4 0xB0A4EC42 EQ PUSH2 0x9D JUMPI POP PUSH4 0xFC6F9468 EQ PUSH2 0x72 JUMPI PUSH1 0x0 DUP1 REVERT JUMPDEST CALLVALUE PUSH2 0x99 JUMPI DUP2 PUSH1 0x3 NOT CALLDATASIZE ADD SLT PUSH2 0x99 JUMPI PUSH1 0x1 SLOAD SWAP1 MLOAD PUSH1 0x1 PUSH1 0x1 PUSH1 0xA0 SHL SUB SWAP1 SWAP2 AND DUP2 MSTORE PUSH1 0x20 SWAP1 RETURN JUMPDEST POP DUP1 REVERT JUMPDEST SWAP1 POP CALLVALUE PUSH2 0x48A JUMPI PUSH1 0x20 SWAP2 DUP3 PUSH1 0x3 NOT CALLDATASIZE ADD SLT PUSH2 0x4A5 JUMPI DUP2 CALLDATALOAD PUSH8 0xFFFFFFFFFFFFFFFF SWAP2 DUP3 DUP3 GT PUSH2 0x4A1 JUMPI CALLDATASIZE PUSH1 0x23 DUP4 ADD SLT ISZERO PUSH2 0x4A1 JUMPI DUP2 DUP5 ADD CALLDATALOAD SWAP3 DUP4 GT PUSH2 0x48E JUMPI DUP1 MLOAD SWAP2 PUSH2 0xF1 PUSH1 0x1F DUP6 ADD PUSH1 0x1F NOT AND DUP8 ADD DUP5 PUSH2 0x6A0 JUMP JUMPDEST DUP4 DUP4 MSTORE DUP7 DUP7 DUP5 ADD SWAP2 PUSH1 0x24 SWAP6 CALLDATASIZE DUP8 DUP3 DUP5 ADD ADD GT PUSH2 0x48A JUMPI DUP1 DUP8 DUP11 SWAP4 ADD DUP6 CALLDATACOPY DUP6 ADD ADD MSTORE DUP3 MLOAD DUP2 KECCAK256 SWAP3 DUP8 SLOAD SWAP4 DUP5 ISZERO PUSH2 0x478 JUMPI SWAP1 DUP8 SWAP4 SWAP3 SWAP2 DUP10 DUP1 MSTORE DUP4 MLOAD DUP11 DUP2 PUSH32 0x290DECD9548B62A8D60345A988386FC84BA6BC95484008F6362F93160EF3E563 SWAP2 DUP3 SLOAD SWAP3 PUSH2 0x15A DUP5 PUSH2 0x666 JUMP JUMPDEST SWAP4 DUP5 DUP5 MSTORE PUSH1 0x1 SWAP15 DUP16 DUP3 AND SWAP2 DUP3 PUSH1 0x0 EQ PUSH2 0x458 JUMPI POP POP PUSH1 0x1 EQ PUSH2 0x3FD JUMPI JUMPDEST POP PUSH2 0x184 SWAP3 POP SUB DUP3 PUSH2 0x6A0 JUMP JUMPDEST DUP1 MLOAD SWAP1 DUP7 ADD KECCAK256 SUB PUSH2 0x1BB JUMPI POP POP POP POP POP SWAP1 PUSH1 0x2 SLOAD SWAP3 DUP4 ADD DUP1 SWAP4 GT PUSH2 0x1AA JUMPI POP POP PUSH1 0x2 SSTORE DUP1 RETURN JUMPDEST PUSH4 0x4E487B71 PUSH1 0xE0 SHL DUP5 MSTORE PUSH1 0x11 SWAP1 MSTORE DUP3 REVERT JUMPDEST DUP1 MLOAD DUP3 KECCAK256 DUP6 DUP10 LT ISZERO PUSH2 0x3EB JUMPI DUP10 DUP1 MSTORE DUP9 DUP5 MLOAD DUP12 DUP2 PUSH32 0x290DECD9548B62A8D60345A988386FC84BA6BC95484008F6362F93160EF3E564 SWAP2 DUP3 SLOAD SWAP3 PUSH2 0x1FD DUP5 PUSH2 0x666 JUMP JUMPDEST SWAP4 DUP5 DUP5 MSTORE DUP12 DUP1 DUP6 ADD SWAP8 DUP3 AND SWAP2 DUP3 PUSH1 0x0 EQ PUSH2 0x3CD JUMPI POP POP PUSH1 0x1 EQ PUSH2 0x375 JUMPI JUMPDEST POP PUSH2 0x228 SWAP3 POP SUB DUP3 PUSH2 0x6A0 JUMP JUMPDEST MLOAD SWAP1 KECCAK256 SUB PUSH2 0x24B JUMPI POP POP POP POP POP SWAP1 PUSH1 0x3 SLOAD SWAP3 DUP4 ADD DUP1 SWAP4 GT PUSH2 0x1AA JUMPI POP POP PUSH1 0x3 SSTORE DUP1 RETURN JUMPDEST MLOAD SWAP1 KECCAK256 SWAP3 PUSH1 0x2 LT ISZERO PUSH2 0x363 JUMPI DUP7 DUP1 MSTORE MLOAD DUP7 SWAP2 DUP2 PUSH32 0x290DECD9548B62A8D60345A988386FC84BA6BC95484008F6362F93160EF3E565 SWAP4 DUP5 SLOAD SWAP5 PUSH2 0x28C DUP7 PUSH2 0x666 JUMP JUMPDEST SWAP1 DUP2 DUP5 MSTORE DUP5 DUP5 ADD SWAP7 DUP12 DUP2 AND SWAP1 DUP2 PUSH1 0x0 EQ PUSH2 0x345 JUMPI POP PUSH1 0x1 EQ PUSH2 0x2ED JUMPI JUMPDEST POP POP PUSH2 0x2B7 SWAP3 POP SUB DUP3 PUSH2 0x6A0 JUMP JUMPDEST MLOAD SWAP1 KECCAK256 EQ PUSH2 0x2C6 JUMPI JUMPDEST POP POP POP DUP1 RETURN JUMPDEST DUP2 SLOAD SWAP3 DUP4 ADD DUP1 SWAP4 GT PUSH2 0x2DC JUMPI POP SSTORE CODESIZE DUP1 DUP1 PUSH2 0x2C0 JUMP JUMPDEST PUSH4 0x4E487B71 PUSH1 0xE0 SHL DUP5 MSTORE PUSH1 0x11 DUP3 MSTORE DUP4 REVERT JUMPDEST DUP12 MSTORE DUP11 SWAP2 POP DUP10 PUSH32 0x63D75DB57AE45C3799740C3CD8DCEE96A498324843D79AE390ADC81D74B52F13 JUMPDEST DUP3 DUP5 LT PUSH2 0x32E JUMPI POP POP POP SWAP2 PUSH2 0x2B7 SWAP3 DUP3 ADD ADD CODESIZE DUP1 PUSH2 0x2A9 JUMP JUMPDEST DUP1 SLOAD DUP8 DUP6 ADD DUP8 ADD MSTORE DUP7 SWAP5 POP SWAP3 DUP6 ADD SWAP3 DUP12 SWAP2 ADD PUSH2 0x315 JUMP JUMPDEST SWAP2 POP POP PUSH2 0x2B7 SWAP5 SWAP3 POP PUSH1 0xFF NOT AND DUP7 MSTORE ISZERO ISZERO PUSH1 0x5 SHL DUP3 ADD ADD CODESIZE DUP1 PUSH2 0x2A9 JUMP JUMPDEST PUSH4 0x4E487B71 PUSH1 0xE0 SHL DUP8 MSTORE PUSH1 0x32 DUP6 MSTORE DUP4 DUP8 REVERT JUMPDEST DUP16 MSTORE POP DUP9 DUP15 DUP15 PUSH32 0x6C13D8C1C5DF666EA9CA2A428504A3776C8CA01021C3A1524CA7D765F600979A JUMPDEST DUP6 DUP4 LT PUSH2 0x3B4 JUMPI POP POP PUSH2 0x228 SWAP4 POP DUP3 ADD ADD CODESIZE PUSH2 0x21B JUMP JUMPDEST DUP1 SWAP2 SWAP3 SWAP5 POP SLOAD DUP4 DUP6 DUP9 ADD ADD MSTORE ADD SWAP2 ADD DUP10 SWAP1 DUP15 DUP6 SWAP4 PUSH2 0x39D JUMP JUMPDEST PUSH1 0xFF NOT AND DUP9 MSTORE PUSH2 0x228 SWAP6 ISZERO ISZERO PUSH1 0x5 SHL DUP6 ADD ADD SWAP3 POP CODESIZE SWAP2 POP PUSH2 0x21B SWAP1 POP JUMP JUMPDEST PUSH4 0x4E487B71 PUSH1 0xE0 SHL DUP11 MSTORE PUSH1 0x32 DUP9 MSTORE DUP7 DUP11 REVERT JUMPDEST SWAP2 POP POP DUP13 MSTORE DUP2 DUP8 DUP14 DUP14 PUSH32 0x510E4E770828DDBF7F7B00AB00A9F6ADAF81C0DC9CC85F1F8249C256942D61D9 JUMPDEST DUP6 DUP4 LT PUSH2 0x43F JUMPI POP POP PUSH2 0x184 SWAP4 POP DUP3 ADD ADD CODESIZE PUSH2 0x177 JUMP JUMPDEST DUP1 SWAP2 SWAP3 SWAP5 POP SLOAD DUP4 DUP6 DUP9 ADD ADD MSTORE ADD SWAP2 ADD DUP9 SWAP1 DUP14 DUP6 SWAP4 PUSH2 0x428 JUMP JUMPDEST PUSH1 0xFF NOT AND DUP6 DUP3 ADD MSTORE PUSH2 0x184 SWAP6 ISZERO ISZERO PUSH1 0x5 SHL DUP6 ADD ADD SWAP3 POP CODESIZE SWAP2 POP PUSH2 0x177 SWAP1 POP JUMP JUMPDEST PUSH4 0x4E487B71 PUSH1 0xE0 SHL DUP10 MSTORE PUSH1 0x32 DUP8 MSTORE DUP6 DUP10 REVERT JUMPDEST DUP3 DUP1 REVERT JUMPDEST PUSH4 0x4E487B71 PUSH1 0xE0 SHL DUP7 MSTORE PUSH1 0x41 DUP5 MSTORE PUSH1 0x24 DUP7 REVERT JUMPDEST DUP6 DUP1 REVERT JUMPDEST DUP4 DUP1 REVERT JUMPDEST POP POP CALLVALUE PUSH2 0x99 JUMPI DUP2 PUSH1 0x3 NOT CALLDATASIZE ADD SLT PUSH2 0x99 JUMPI PUSH1 0x20 SWAP1 PUSH1 0x3 SLOAD SWAP1 MLOAD SWAP1 DUP2 MSTORE RETURN JUMPDEST DUP3 DUP5 CALLVALUE PUSH2 0x5F2 JUMPI PUSH1 0x20 SWAP3 DUP4 PUSH1 0x3 NOT CALLDATASIZE ADD SLT PUSH2 0x99 JUMPI CALLDATALOAD DUP2 SLOAD DUP2 LT ISZERO PUSH2 0x99 JUMPI DUP2 DUP1 MSTORE PUSH32 0x290DECD9548B62A8D60345A988386FC84BA6BC95484008F6362F93160EF3E563 ADD SWAP1 DUP4 DUP4 MLOAD DUP1 SWAP4 DUP4 SWAP1 DUP1 SLOAD PUSH2 0x51F DUP2 PUSH2 0x666 JUMP JUMPDEST DUP1 DUP6 MSTORE SWAP2 PUSH1 0x1 SWAP2 DUP1 DUP4 AND SWAP1 DUP2 ISZERO PUSH2 0x5CF JUMPI POP PUSH1 0x1 EQ PUSH2 0x592 JUMPI JUMPDEST POP POP POP PUSH2 0x54C SWAP3 POP SWAP6 SWAP4 SWAP3 SWAP6 SUB DUP3 PUSH2 0x6A0 JUMP JUMPDEST DUP3 MLOAD SWAP4 DUP3 DUP6 SWAP4 DUP5 MSTORE DUP3 MLOAD SWAP3 DUP4 DUP3 DUP7 ADD MSTORE DUP3 JUMPDEST DUP5 DUP2 LT PUSH2 0x57C JUMPI POP POP POP DUP3 DUP3 ADD DUP5 ADD MSTORE PUSH1 0x1F ADD PUSH1 0x1F NOT AND DUP2 ADD SUB ADD SWAP1 RETURN JUMPDEST DUP2 DUP2 ADD DUP4 ADD MLOAD DUP9 DUP3 ADD DUP9 ADD MSTORE DUP8 SWAP6 POP DUP3 ADD PUSH2 0x55E JUMP JUMPDEST DUP7 MSTORE DUP5 DUP7 KECCAK256 SWAP5 SWAP3 POP DUP6 SWAP2 SWAP1 JUMPDEST DUP2 DUP4 LT PUSH2 0x5B7 JUMPI POP DUP9 SWAP5 POP POP DUP3 ADD ADD PUSH2 0x54C DUP9 DUP1 PUSH2 0x539 JUMP JUMPDEST DUP6 SLOAD DUP9 DUP5 ADD DUP6 ADD MSTORE SWAP5 DUP6 ADD SWAP5 DUP8 SWAP5 POP SWAP2 DUP4 ADD SWAP2 PUSH2 0x59E JUMP JUMPDEST SWAP3 POP POP POP PUSH2 0x54C SWAP5 SWAP3 POP PUSH1 0xFF NOT AND DUP3 DUP5 ADD MSTORE ISZERO ISZERO PUSH1 0x5 SHL DUP3 ADD ADD DUP7 SWAP3 DUP9 DUP1 PUSH2 0x539 JUMP JUMPDEST DUP1 REVERT JUMPDEST SWAP1 POP CALLVALUE PUSH2 0x48A JUMPI PUSH1 0x20 CALLDATASIZE PUSH1 0x3 NOT ADD SLT PUSH2 0x48A JUMPI CALLDATALOAD PUSH1 0x1 PUSH1 0x1 PUSH1 0xA0 SHL SUB DUP2 DUP2 AND SWAP2 DUP3 SWAP1 SUB PUSH2 0x4A5 JUMPI PUSH1 0x20 SWAP4 POP PUSH1 0x1 SLOAD AND EQ SWAP1 MLOAD SWAP1 DUP2 MSTORE RETURN JUMPDEST SWAP1 POP CALLVALUE PUSH2 0x48A JUMPI DUP3 PUSH1 0x3 NOT CALLDATASIZE ADD SLT PUSH2 0x48A JUMPI PUSH1 0x20 SWAP3 POP SLOAD SWAP1 MLOAD SWAP1 DUP2 MSTORE RETURN JUMPDEST DUP5 SWAP1 CALLVALUE PUSH2 0x99 JUMPI DUP2 PUSH1 0x3 NOT CALLDATASIZE ADD SLT PUSH2 0x99 JUMPI PUSH1 0x20 SWAP1 PUSH1 0x2 SLOAD DUP2 MSTORE RETURN JUMPDEST SWAP1 PUSH1 0x1 DUP3 DUP2 SHR SWAP3 AND DUP1 ISZERO PUSH2 0x696 JUMPI JUMPDEST PUSH1 0x20 DUP4 LT EQ PUSH2 0x680 JUMPI JUMP JUMPDEST PUSH4 0x4E487B71 PUSH1 0xE0 SHL PUSH1 0x0 MSTORE PUSH1 0x22 PUSH1 0x4 MSTORE PUSH1 0x24 PUSH1 0x0 REVERT JUMPDEST SWAP2 PUSH1 0x7F AND SWAP2 PUSH2 0x675 JUMP JUMPDEST SWAP1 PUSH1 0x1F DUP1 NOT SWAP2 ADD AND DUP2 ADD SWAP1 DUP2 LT PUSH8 0xFFFFFFFFFFFFFFFF DUP3 GT OR PUSH2 0x6C2 JUMPI PUSH1 0x40 MSTORE JUMP JUMPDEST PUSH4 0x4E487B71 PUSH1 0xE0 SHL PUSH1 0x0 MSTORE PUSH1 0x41 PUSH1 0x4 MSTORE PUSH1 0x24 PUSH1 0x0 REVERT INVALID LOG2 PUSH5 0x6970667358 0x22 SLT KECCAK256 SUB LOG0 0xE8 0xED 0x2B SELFBALANCE MULMOD CREATE2 OR BASEFEE 0xC6 PUSH16 0xD56E7246C854043681EE16E4B2EFC583 0xDF 0xDD DUP13 NUMBER PUSH5 0x736F6C6343 STOP ADDMOD GT STOP CALLER "
				},
				"gasEstimates": {
					"creation": {
						"codeDepositCost": "361200",
						"executionCost": "infinite",
						"totalCost": "infinite"
					},
					"external": {
						"adminAddress()": "2428",
						"gender_list(uint256)": "infinite",
						"isAdmin(address)": "2385",
						"totalFemaleVoters()": "2368",
						"totalMaleVoters()": "2271",
						"totalOtherVoters()": "2302",
						"updateCounter(string)": "infinite"
					}
				},
				"methodIdentifiers": {
					"adminAddress()": "fc6f9468",
					"gender_list(uint256)": "6394a8fa",
					"isAdmin(address)": "24d7806c",
					"totalFemaleVoters()": "7c054c54",
					"totalMaleVoters()": "029c21bd",
					"totalOtherVoters()": "0983f185",
					"updateCounter(string)": "b0a4ec42"
				}
			},
			"storageLayout": {
				"storage": [
					{
						"astId": 170,
						"contract": "Contract/Utils.sol:Utils",
						"label": "gender_list",
						"offset": 0,
						"slot": "0",
						"type": "t_array(t_string_storage)dyn_storage"
					},
					{
						"astId": 296,
						"contract": "Contract/Utils.sol:Utils",
						"label": "adminAddress",
						"offset": 0,
						"slot": "1",
						"type": "t_address"
					},
					{
						"astId": 299,
						"contract": "Contract/Utils.sol:Utils",
						"label": "totalMaleVoters",
						"offset": 0,
						"slot": "2",
						"type": "t_uint256"
					},
					{
						"astId": 302,
						"contract": "Contract/Utils.sol:Utils",
						"label": "totalFemaleVoters",
						"offset": 0,
						"slot": "3",
						"type": "t_uint256"
					},
					{
						"astId": 305,
						"contract": "Contract/Utils.sol:Utils",
						"label": "totalOtherVoters",
						"offset": 0,
						"slot": "4",
						"type": "t_uint256"
					}
				],
				"types": {
					"t_address": {
						"encoding": "inplace",
						"label": "address",
						"numberOfBytes": "20"
					},
					"t_array(t_string_storage)dyn_storage": {
						"base": "t_string_storage",
						"encoding": "dynamic_array",
						"label": "string[]",
						"numberOfBytes": "32"
					},
					"t_string_storage": {
						"encoding": "bytes",
						"label": "string",
						"numberOfBytes": "32"
					},
					"t_uint256": {
						"encoding": "inplace",
						"label": "uint256",
						"numberOfBytes": "32"
					}
				}
			},
			"userdoc": {
				"kind": "user",
				"methods": {},
				"version": 1
			}
		}
	}
}