{
	"Contract/Candidate.sol": {
		"Candidate": {
			"abi": [
				{
					"anonymous": false,
					"inputs": [
						{
							"components": [
								{
									"components": [
										{
											"internalType": "address",
											"name": "_id",
											"type": "address"
										},
										{
											"internalType": "string",
											"name": "fullName",
											"type": "string"
										},
										{
											"internalType": "uint256",
											"name": "citizenshipNumber",
											"type": "uint256"
										},
										{
											"internalType": "uint256",
											"name": "age",
											"type": "uint256"
										},
										{
											"internalType": "string",
											"name": "gender",
											"type": "string"
										},
										{
											"internalType": "string",
											"name": "dob",
											"type": "string"
										},
										{
											"internalType": "string",
											"name": "email",
											"type": "string"
										},
										{
											"internalType": "string",
											"name": "profile",
											"type": "string"
										},
										{
											"internalType": "string",
											"name": "province",
											"type": "string"
										},
										{
											"internalType": "string",
											"name": "district",
											"type": "string"
										},
										{
											"internalType": "string",
											"name": "municipality",
											"type": "string"
										},
										{
											"internalType": "string",
											"name": "ward",
											"type": "string"
										}
									],
									"internalType": "struct Structure.User",
									"name": "user",
									"type": "tuple"
								},
								{
									"internalType": "string",
									"name": "partyName",
									"type": "string"
								},
								{
									"internalType": "string",
									"name": "agenda",
									"type": "string"
								},
								{
									"internalType": "uint256",
									"name": "voteCount",
									"type": "uint256"
								},
								{
									"internalType": "address[]",
									"name": "votedVoterLists",
									"type": "address[]"
								}
							],
							"indexed": false,
							"internalType": "struct Structure.Candidate",
							"name": "candidate",
							"type": "tuple"
						}
					],
					"name": "CandidateCreated",
					"type": "event"
				},
				{
					"inputs": [
						{
							"internalType": "string",
							"name": "_name",
							"type": "string"
						},
						{
							"internalType": "uint256",
							"name": "_citizenshipNo",
							"type": "uint256"
						},
						{
							"internalType": "uint256",
							"name": "_age",
							"type": "uint256"
						},
						{
							"internalType": "string",
							"name": "_agenda",
							"type": "string"
						},
						{
							"internalType": "string",
							"name": "_dob",
							"type": "string"
						},
						{
							"internalType": "string",
							"name": "_email",
							"type": "string"
						},
						{
							"internalType": "string",
							"name": "_profile",
							"type": "string"
						},
						{
							"internalType": "string",
							"name": "_partyName",
							"type": "string"
						},
						{
							"internalType": "string",
							"name": "_province",
							"type": "string"
						},
						{
							"internalType": "string",
							"name": "_district",
							"type": "string"
						},
						{
							"internalType": "string",
							"name": "_municipality",
							"type": "string"
						},
						{
							"internalType": "string",
							"name": "_ward",
							"type": "string"
						},
						{
							"internalType": "string",
							"name": "_gender",
							"type": "string"
						}
					],
					"name": "addCandidate",
					"outputs": [],
					"stateMutability": "payable",
					"type": "function"
				},
				{
					"inputs": [],
					"name": "adminAddress",
					"outputs": [
						{
							"internalType": "address",
							"name": "",
							"type": "address"
						}
					],
					"stateMutability": "view",
					"type": "function"
				},
				{
					"inputs": [
						{
							"internalType": "uint256",
							"name": "",
							"type": "uint256"
						}
					],
					"name": "candidateList",
					"outputs": [
						{
							"components": [
								{
									"internalType": "address",
									"name": "_id",
									"type": "address"
								},
								{
									"internalType": "string",
									"name": "fullName",
									"type": "string"
								},
								{
									"internalType": "uint256",
									"name": "citizenshipNumber",
									"type": "uint256"
								},
								{
									"internalType": "uint256",
									"name": "age",
									"type": "uint256"
								},
								{
									"internalType": "string",
									"name": "gender",
									"type": "string"
								},
								{
									"internalType": "string",
									"name": "dob",
									"type": "string"
								},
								{
									"internalType": "string",
									"name": "email",
									"type": "string"
								},
								{
									"internalType": "string",
									"name": "profile",
									"type": "string"
								},
								{
									"internalType": "string",
									"name": "province",
									"type": "string"
								},
								{
									"internalType": "string",
									"name": "district",
									"type": "string"
								},
								{
									"internalType": "string",
									"name": "municipality",
									"type": "string"
								},
								{
									"internalType": "string",
									"name": "ward",
									"type": "string"
								}
							],
							"internalType": "struct Structure.User",
							"name": "user",
							"type": "tuple"
						},
						{
							"internalType": "string",
							"name": "partyName",
							"type": "string"
						},
						{
							"internalType": "string",
							"name": "agenda",
							"type": "string"
						},
						{
							"internalType": "uint256",
							"name": "voteCount",
							"type": "uint256"
						}
					],
					"stateMutability": "view",
					"type": "function"
				},
				{
					"inputs": [
						{
							"internalType": "uint256",
							"name": "",
							"type": "uint256"
						}
					],
					"name": "candidateNames",
					"outputs": [
						{
							"internalType": "string",
							"name": "",
							"type": "string"
						}
					],
					"stateMutability": "view",
					"type": "function"
				},
				{
					"inputs": [
						{
							"internalType": "address",
							"name": "",
							"type": "address"
						}
					],
					"name": "candidates",
					"outputs": [
						{
							"components": [
								{
									"internalType": "address",
									"name": "_id",
									"type": "address"
								},
								{
									"internalType": "string",
									"name": "fullName",
									"type": "string"
								},
								{
									"internalType": "uint256",
									"name": "citizenshipNumber",
									"type": "uint256"
								},
								{
									"internalType": "uint256",
									"name": "age",
									"type": "uint256"
								},
								{
									"internalType": "string",
									"name": "gender",
									"type": "string"
								},
								{
									"internalType": "string",
									"name": "dob",
									"type": "string"
								},
								{
									"internalType": "string",
									"name": "email",
									"type": "string"
								},
								{
									"internalType": "string",
									"name": "profile",
									"type": "string"
								},
								{
									"internalType": "string",
									"name": "province",
									"type": "string"
								},
								{
									"internalType": "string",
									"name": "district",
									"type": "string"
								},
								{
									"internalType": "string",
									"name": "municipality",
									"type": "string"
								},
								{
									"internalType": "string",
									"name": "ward",
									"type": "string"
								}
							],
							"internalType": "struct Structure.User",
							"name": "user",
							"type": "tuple"
						},
						{
							"internalType": "string",
							"name": "partyName",
							"type": "string"
						},
						{
							"internalType": "string",
							"name": "agenda",
							"type": "string"
						},
						{
							"internalType": "uint256",
							"name": "voteCount",
							"type": "uint256"
						}
					],
					"stateMutability": "view",
					"type": "function"
				},
				{
					"inputs": [
						{
							"internalType": "uint256",
							"name": "",
							"type": "uint256"
						}
					],
					"name": "gender_list",
					"outputs": [
						{
							"internalType": "string",
							"name": "",
							"type": "string"
						}
					],
					"stateMutability": "view",
					"type": "function"
				},
				{
					"inputs": [],
					"name": "getAllCandidates",
					"outputs": [
						{
							"components": [
								{
									"components": [
										{
											"internalType": "address",
											"name": "_id",
											"type": "address"
										},
										{
											"internalType": "string",
											"name": "fullName",
											"type": "string"
										},
										{
											"internalType": "uint256",
											"name": "citizenshipNumber",
											"type": "uint256"
										},
										{
											"internalType": "uint256",
											"name": "age",
											"type": "uint256"
										},
										{
											"internalType": "string",
											"name": "gender",
											"type": "string"
										},
										{
											"internalType": "string",
											"name": "dob",
											"type": "string"
										},
										{
											"internalType": "string",
											"name": "email",
											"type": "string"
										},
										{
											"internalType": "string",
											"name": "profile",
											"type": "string"
										},
										{
											"internalType": "string",
											"name": "province",
											"type": "string"
										},
										{
											"internalType": "string",
											"name": "district",
											"type": "string"
										},
										{
											"internalType": "string",
											"name": "municipality",
											"type": "string"
										},
										{
											"internalType": "string",
											"name": "ward",
											"type": "string"
										}
									],
									"internalType": "struct Structure.User",
									"name": "user",
									"type": "tuple"
								},
								{
									"internalType": "string",
									"name": "partyName",
									"type": "string"
								},
								{
									"internalType": "string",
									"name": "agenda",
									"type": "string"
								},
								{
									"internalType": "uint256",
									"name": "voteCount",
									"type": "uint256"
								},
								{
									"internalType": "address[]",
									"name": "votedVoterLists",
									"type": "address[]"
								}
							],
							"internalType": "struct Structure.Candidate[]",
							"name": "",
							"type": "tuple[]"
						}
					],
					"stateMutability": "view",
					"type": "function"
				},
				{
					"inputs": [
						{
							"internalType": "address",
							"name": "_id",
							"type": "address"
						}
					],
					"name": "getCandidateDetails",
					"outputs": [
						{
							"components": [
								{
									"components": [
										{
											"internalType": "address",
											"name": "_id",
											"type": "address"
										},
										{
											"internalType": "string",
											"name": "fullName",
											"type": "string"
										},
										{
											"internalType": "uint256",
											"name": "citizenshipNumber",
											"type": "uint256"
										},
										{
											"internalType": "uint256",
											"name": "age",
											"type": "uint256"
										},
										{
											"internalType": "string",
											"name": "gender",
											"type": "string"
										},
										{
											"internalType": "string",
											"name": "dob",
											"type": "string"
										},
										{
											"internalType": "string",
											"name": "email",
											"type": "string"
										},
										{
											"internalType": "string",
											"name": "profile",
											"type": "string"
										},
										{
											"internalType": "string",
											"name": "province",
											"type": "string"
										},
										{
											"internalType": "string",
											"name": "district",
											"type": "string"
										},
										{
											"internalType": "string",
											"name": "municipality",
											"type": "string"
										},
										{
											"internalType": "string",
											"name": "ward",
											"type": "string"
										}
									],
									"internalType": "struct Structure.User",
									"name": "user",
									"type": "tuple"
								},
								{
									"internalType": "string",
									"name": "partyName",
									"type": "string"
								},
								{
									"internalType": "string",
									"name": "agenda",
									"type": "string"
								},
								{
									"internalType": "uint256",
									"name": "voteCount",
									"type": "uint256"
								},
								{
									"internalType": "address[]",
									"name": "votedVoterLists",
									"type": "address[]"
								}
							],
							"internalType": "struct Structure.Candidate",
							"name": "",
							"type": "tuple"
						}
					],
					"stateMutability": "view",
					"type": "function"
				},
				{
					"inputs": [
						{
							"internalType": "address",
							"name": "_id",
							"type": "address"
						}
					],
					"name": "isAdmin",
					"outputs": [
						{
							"internalType": "bool",
							"name": "",
							"type": "bool"
						}
					],
					"stateMutability": "view",
					"type": "function"
				},
				{
					"inputs": [],
					"name": "totalCandidate",
					"outputs": [
						{
							"internalType": "uint256",
							"name": "",
							"type": "uint256"
						}
					],
					"stateMutability": "view",
					"type": "function"
				},
				{
					"inputs": [],
					"name": "totalFemaleVoters",
					"outputs": [
						{
							"internalType": "uint256",
							"name": "",
							"type": "uint256"
						}
					],
					"stateMutability": "view",
					"type": "function"
				},
				{
					"inputs": [],
					"name": "totalMaleVoters",
					"outputs": [
						{
							"internalType": "uint256",
							"name": "",
							"type": "uint256"
						}
					],
					"stateMutability": "view",
					"type": "function"
				},
				{
					"inputs": [],
					"name": "totalOtherVoters",
					"outputs": [
						{
							"internalType": "uint256",
							"name": "",
							"type": "uint256"
						}
					],
					"stateMutability": "view",
					"type": "function"
				},
				{
					"inputs": [
						{
							"internalType": "string",
							"name": "_gender",
							"type": "string"
						}
					],
					"name": "updateCounter",
					"outputs": [],
					"stateMutability": "nonpayable",
					"type": "function"
				}
			],
			"devdoc": {
				"kind": "dev",
				"methods": {},
				"version": 1
			},
			"evm": {
				"assembly": "    /* \"Contract/Candidate.sol\":105:1764  contract Candidate is Structure, Utils{... */\n  0x80\n  jumpi(tag_4, callvalue)\n  sub(shl(0x40, 0x01), 0x01)\n  0x60\n  dup3\n  add\n  dup2\n  dup2\n  gt\n  dup4\n  dup3\n  lt\n  or\n  tag_6\n  jumpi\n  0x40\n  mstore\n  tag_8\n  tag_1\n  jump\t// in\ntag_8:\n  0x04\n  swap1\n  dup2\n  dup2\n  mstore\n  0x20\n  swap1\n  shl(0xe0, 0x4d414c45)\n  dup3\n  dup3\n  add\n  mstore\n  dup5\n  mstore\n  tag_9\n  tag_1\n  jump\t// in\ntag_9:\n  0x06\n  dup2\n  mstore\n  shl(0xd0, 0x46454d414c45)\n  dup3\n  dup3\n  add\n  mstore\n    /* \"Contract/Constants.sol\":154:180  [\"MALE\",\"FEMALE\",\"OTHERS\"] */\n  dup2\n  dup6\n  add\n    /* \"Contract/Candidate.sol\":105:1764  contract Candidate is Structure, Utils{... */\n  mstore\n  tag_10\n  tag_1\n  jump\t// in\ntag_10:\n  0x06\n  dup2\n  mstore\n  shl(0xd0, 0x4f5448455253)\n  dup3\n  dup3\n  add\n  mstore\n  0x40\n    /* \"Contract/Constants.sol\":154:180  [\"MALE\",\"FEMALE\",\"OTHERS\"] */\n  dup6\n  add\n    /* \"Contract/Candidate.sol\":105:1764  contract Candidate is Structure, Utils{... */\n  mstore\n  0x00\n  swap3\n  dup4\n  sload\n    /* \"Contract/Constants.sol\":154:180  [\"MALE\",\"FEMALE\",\"OTHERS\"] */\n  swap5\n  0x03\n    /* \"Contract/Candidate.sol\":105:1764  contract Candidate is Structure, Utils{... */\n  swap6\n  dup7\n  dup7\n  sstore\n  dup1\n  dup8\n  lt\n  tag_11\n  jumpi\ntag_12:\n  pop\n  dup5\n  dup1\n  mstore\n  dup3\n  dup6\n  keccak256\n  dup6\n  swap2\ntag_13:\n  dup8\n  dup4\n  lt\n  tag_14\n  jumpi\n    /* \"Contract/Utils.sol\":319:320  0 */\n  0x02\n    /* \"Contract/Candidate.sol\":105:1764  contract Candidate is Structure, Utils{... */\n  dup8\n  swap1\n  sstore\n  dup7\n  dup9\n  sstore\n  dup7\n  dup7\n  sstore\n  0x01\n  dup1\n  sload\n  not(sub(shl(0xa0, 0x01), 0x01))\n  and\n    /* \"Contract/Utils.sol\":446:456  msg.sender */\n  caller\n    /* \"Contract/Candidate.sol\":105:1764  contract Candidate is Structure, Utils{... */\n  or\n  swap1\n  sstore\n    /* \"Contract/Candidate.sol\":394:395  0 */\n  0x08\n    /* \"Contract/Candidate.sol\":105:1764  contract Candidate is Structure, Utils{... */\n  dup8\n  swap1\n  sstore\n  mload(0x40)\n  dataSize(sub_0)\n  swap1\n  dup2\n  dataOffset(sub_0)\n  dup3\n  codecopy\n  return\ntag_14:\n  dup1\n  mload\n  dup1\n  mload\n  swap1\n  dup6\n  dup3\n  gt\n  tag_16\n  jumpi\n  swap1\n  dup7\n  swap2\n  tag_18\n  dup6\n  sload\n  tag_2\n  jump\t// in\ntag_18:\n  swap1\n  0x1f\n  swap2\n  dup3\n  dup2\n  gt\n  tag_19\n  jumpi\ntag_20:\n  pop\n  dup4\n  swap2\n  dup4\n  gt\n  0x01\n  eq\n  tag_21\n  jumpi\n  swap2\n  dup1\n  0x01\n  swap6\n  swap3\n  dup7\n  swap6\n  swap5\n  dup14\n  swap3\n  tag_23\n  jumpi\ntag_24:\n  pop\n  pop\n  not(0x00)\n  dup3\n  dup15\n  shl\n  shr\n  not\n  and\n  swap1\n  dup5\n  shl\n  or\n  dup6\n  sstore\ntag_25:\n  add\n  swap3\n  add\n  swap3\n  add\n  swap2\n  swap1\n  jump(tag_13)\ntag_23:\n  add\n  mload\n  swap1\n  pop\n  codesize\n  dup1\n  jump(tag_24)\ntag_21:\n  dup6\n  dup12\n  mstore\n  dup4\n  dup12\n  keccak256\n  swap2\n  swap1\n  not(0x1f)\n  dup5\n  and\n  dup13\ntag_26:\n  dup2\n  dup2\n  lt\n  tag_27\n  jumpi\n  pop\n  swap2\n  0x01\n  swap7\n  swap4\n  swap2\n  dup6\n  dup9\n  swap8\n  swap7\n  swap5\n  lt\n  tag_29\n  jumpi\ntag_30:\n  pop\n  pop\n  pop\n  dup4\n  shl\n  dup4\n  add\n  dup6\n  sstore\n  jump(tag_25)\ntag_29:\n  add\n  mload\n  not(0x00)\n  dup4\n  dup16\n  shl\n  0xf8\n  and\n  shr\n  not\n  and\n  swap1\n  sstore\n  codesize\n  dup1\n  dup1\n  jump(tag_30)\ntag_27:\n  dup3\n  dup5\n  add\n  mload\n  dup6\n  sstore\n  dup12\n  swap7\n  0x01\n  swap1\n  swap6\n  add\n  swap5\n  swap4\n  dup5\n  add\n  swap4\n  add\n  jump(tag_26)\ntag_19:\n  tag_31\n  swap1\n  dup8\n  dup14\n  mstore\n  dup6\n  dup14\n  keccak256\n  0x05\n  dup6\n  dup1\n  dup9\n  add\n  dup3\n  shr\n  dup4\n  add\n  swap4\n  dup10\n  dup10\n  lt\n  tag_32\n  jumpi\ntag_33:\n  add\n  swap1\n  shr\n  add\n  swap1\n  tag_3\n  jump\t// in\ntag_31:\n  codesize\n  jump(tag_20)\ntag_32:\n  swap4\n  pop\n  dup3\n  swap4\n  jump(tag_33)\ntag_16:\n  shl(0xe0, 0x4e487b71)\n  dup10\n  mstore\n  0x41\n  dup9\n  mstore\n  0x24\n  dup10\n  revert\ntag_11:\n  dup6\n  dup1\n  mstore\n  dup7\n  dup5\n  dup8\n  keccak256\n  swap2\n  dup3\n  add\n  swap2\n  add\ntag_34:\n  dup2\n  dup2\n  lt\n  tag_35\n  jumpi\n  pop\n  jump(tag_12)\ntag_35:\n  dup1\n  tag_37\n  0x01\n  swap3\n  sload\n  tag_2\n  jump\t// in\ntag_37:\n  dup1\n  tag_38\n  jumpi\ntag_39:\n  pop\n  add\n  jump(tag_34)\ntag_38:\n  0x1f\n  swap1\n  dup2\n  dup2\n  gt\n  dup5\n  eq\n  tag_40\n  jumpi\n  pop\n  pop\n  dup8\n  dup2\n  sstore\ntag_42:\n  codesize\n  jump(tag_39)\ntag_40:\n  dup4\n  tag_43\n  swap3\n  dup5\n  dup13\n  mstore\n  dup10\n  dup13\n  keccak256\n  swap3\n  add\n  0x05\n  shr\n  dup3\n  add\n  swap2\n  add\n  tag_3\n  jump\t// in\ntag_43:\n  dup8\n  dup7\n  dup2\n  keccak256\n  dup2\n  dup4\n  sstore\n  sstore\n  jump(tag_42)\ntag_6:\n  mstore(0x00, shl(0xe0, 0x4e487b71))\n  mstore(0x04, 0x41)\n  revert(0x00, 0x24)\ntag_4:\n  0x00\n  dup1\n  revert\ntag_1:\n  0x40\n  dup1\n  mload\n  swap2\n  swap1\n  dup3\n  add\n  sub(shl(0x40, 0x01), 0x01)\n  dup2\n  gt\n  dup4\n  dup3\n  lt\n  or\n  tag_6\n  jumpi\n  0x40\n  mstore\n  jump\t// out\ntag_2:\n  swap1\n  0x01\n  dup3\n  dup2\n  shr\n  swap3\n  and\n  dup1\n  iszero\n  tag_46\n  jumpi\ntag_47:\n  0x20\n  dup4\n  lt\n  eq\n  tag_48\n  jumpi\n  jump\t// out\ntag_48:\n  mstore(0x00, shl(0xe0, 0x4e487b71))\n  mstore(0x04, 0x22)\n  revert(0x00, 0x24)\ntag_46:\n  swap2\n  0x7f\n  and\n  swap2\n  jump(tag_47)\ntag_3:\n  dup2\n  dup2\n  lt\n  tag_51\n  jumpi\n  pop\n  pop\n  jump\t// out\ntag_51:\n  0x00\n  dup2\n  sstore\n  0x01\n  add\n  jump(tag_3)\nstop\n\nsub_0: assembly {\n        /* \"Contract/Candidate.sol\":105:1764  contract Candidate is Structure, Utils{... */\n      0x80\n      0x40\n      dup2\n      dup2\n      mstore\n      0x04\n      swap2\n      dup3\n      calldatasize\n      lt\n      iszero\n      tag_17\n      jumpi\n      0x00\n      dup1\n      revert\n    tag_17:\n      0x00\n      swap3\n      dup4\n      calldataload\n      0xe0\n      shr\n      swap2\n      dup3\n      0x029c21bd\n      eq\n      tag_19\n      jumpi\n      pop\n      dup2\n      0x0983f185\n      eq\n      tag_21\n      jumpi\n      dup2\n      0x1812dab4\n      eq\n      tag_23\n      jumpi\n      dup2\n      0x24d7806c\n      eq\n      tag_25\n      jumpi\n      dup2\n      0x2d23c735\n      eq\n      tag_27\n      jumpi\n      dup2\n      0x2e6997fe\n      eq\n      tag_29\n      jumpi\n      dup2\n      0x53ac5dc3\n      eq\n      tag_31\n      jumpi\n      dup2\n      0x6394a8fa\n      eq\n      tag_33\n      jumpi\n      dup2\n      0x7c054c54\n      eq\n      tag_35\n      jumpi\n      dup2\n      0x8287e42f\n      eq\n      tag_37\n      jumpi\n      dup2\n      0x8ab66a90\n      eq\n      tag_39\n      jumpi\n      dup2\n      0xb0a4ec42\n      eq\n      tag_41\n      jumpi\n      dup2\n      0xb13c744b\n      eq\n      tag_43\n      jumpi\n      pop\n      0xfc6f9468\n      eq\n      tag_45\n      jumpi\n      0x00\n      dup1\n      revert\n    tag_45:\n      jumpi(tag_49, callvalue)\n      dup2\n      add(calldatasize, not(0x03))\n      slt\n      tag_49\n      jumpi\n      sload(0x01)\n      swap1\n      mload\n      sub(shl(0xa0, 0x01), 0x01)\n      swap1\n      swap2\n      and\n      dup2\n      mstore\n      0x20\n      swap1\n      return\n    tag_49:\n      pop\n      dup1\n      revert\n    tag_43:\n      dup4\n      swap2\n      pop\n      jumpi(tag_49, callvalue)\n      jumpi(tag_49, slt(add(not(0x03), calldatasize), 0x20))\n      dup1\n      calldataload\n      swap2\n        /* \"Contract/Candidate.sol\":264:296  Candidate[] public candidateList */\n      0x06\n        /* \"Contract/Candidate.sol\":105:1764  contract Candidate is Structure, Utils{... */\n      sload\n        /* \"Contract/Candidate.sol\":264:296  Candidate[] public candidateList */\n      dup4\n      lt\n      iszero\n      tag_55\n      jumpi\n      0x06\n        /* \"Contract/Candidate.sol\":105:1764  contract Candidate is Structure, Utils{... */\n      swap1\n      mstore\n      shl\n      swap1\n      tag_57\n        /* \"Contract/Candidate.sol\":264:296  Candidate[] public candidateList */\n      tag_58\n        /* \"Contract/Candidate.sol\":105:1764  contract Candidate is Structure, Utils{... */\n      dup4\n      0xf652222313e28459528d920b65115c16c04f3efc82aaedc97be59f3f377c0d3f\n      add\n        /* \"Contract/Candidate.sol\":264:296  Candidate[] public candidateList */\n      tag_10\n      jump\t// in\n    tag_58:\n        /* \"Contract/Candidate.sol\":105:1764  contract Candidate is Structure, Utils{... */\n      swap2\n      dup1\n      mload\n        /* \"Contract/Candidate.sol\":264:296  Candidate[] public candidateList */\n      swap4\n        /* \"Contract/Candidate.sol\":105:1764  contract Candidate is Structure, Utils{... */\n      tag_59\n        /* \"Contract/Candidate.sol\":264:296  Candidate[] public candidateList */\n      dup6\n        /* \"Contract/Candidate.sol\":105:1764  contract Candidate is Structure, Utils{... */\n      tag_60\n        /* \"Contract/Candidate.sol\":264:296  Candidate[] public candidateList */\n      dup2\n      0xf652222313e28459528d920b65115c16c04f3efc82aaedc97be59f3f377c0d4b\n      dup6\n      add\n        /* \"Contract/Candidate.sol\":105:1764  contract Candidate is Structure, Utils{... */\n      tag_9\n      jump\t// in\n    tag_60:\n      sub\n      dup7\n      tag_3\n      jump\t// in\n    tag_59:\n        /* \"Contract/Candidate.sol\":264:296  Candidate[] public candidateList */\n      0xf652222313e28459528d920b65115c16c04f3efc82aaedc97be59f3f377c0d4d\n        /* \"Contract/Candidate.sol\":105:1764  contract Candidate is Structure, Utils{... */\n      dup3\n      mload\n        /* \"Contract/Candidate.sol\":264:296  Candidate[] public candidateList */\n      swap2\n        /* \"Contract/Candidate.sol\":105:1764  contract Candidate is Structure, Utils{... */\n      tag_61\n        /* \"Contract/Candidate.sol\":264:296  Candidate[] public candidateList */\n      dup4\n        /* \"Contract/Candidate.sol\":105:1764  contract Candidate is Structure, Utils{... */\n      tag_62\n        /* \"Contract/Candidate.sol\":264:296  Candidate[] public candidateList */\n      dup2\n      0xf652222313e28459528d920b65115c16c04f3efc82aaedc97be59f3f377c0d4c\n      dup6\n      add\n        /* \"Contract/Candidate.sol\":105:1764  contract Candidate is Structure, Utils{... */\n      tag_9\n      jump\t// in\n    tag_62:\n      sub\n      dup5\n      tag_3\n      jump\t// in\n    tag_61:\n        /* \"Contract/Candidate.sol\":264:296  Candidate[] public candidateList */\n      add\n        /* \"Contract/Candidate.sol\":105:1764  contract Candidate is Structure, Utils{... */\n      sload\n      swap2\n      mload\n      swap5\n      dup6\n      swap5\n      dup6\n      tag_11\n      jump\t// in\n    tag_57:\n      sub\n      swap1\n      return\n        /* \"Contract/Candidate.sol\":264:296  Candidate[] public candidateList */\n    tag_55:\n      dup1\n      revert\n        /* \"Contract/Candidate.sol\":105:1764  contract Candidate is Structure, Utils{... */\n    tag_41:\n      dup4\n      swap1\n      jumpi(tag_49, callvalue)\n      jumpi(tag_49, slt(add(not(0x03), calldatasize), 0x20))\n      dup1\n      calldataload\n      0xffffffffffffffff\n      dup2\n      gt\n      tag_67\n      jumpi\n      tag_69\n      swap2\n      tag_70\n      swap2\n      calldatasize\n      swap2\n      add\n      tag_4\n      jump\t// in\n    tag_70:\n      tag_16\n      jump\t// in\n    tag_69:\n      dup1\n      return\n    tag_67:\n      dup3\n      dup1\n      revert\n    tag_39:\n      swap1\n      pop\n      jumpi(tag_67, callvalue)\n      jumpi(tag_67, slt(add(not(0x03), calldatasize), 0x20))\n      calldataload\n      sub(shl(0xa0, 0x01), 0x01)\n      dup2\n      and\n      swap1\n      dup2\n      swap1\n      sub\n      tag_67\n      jumpi\n      swap2\n      dup2\n      swap3\n      dup2\n      mstore\n        /* \"Contract/Candidate.sol\":195:243  mapping (address => Candidate) public candidates */\n      0x05\n        /* \"Contract/Candidate.sol\":105:1764  contract Candidate is Structure, Utils{... */\n      0x20\n      mstore\n      keccak256\n        /* \"Contract/Candidate.sol\":195:243  mapping (address => Candidate) public candidates */\n      swap1\n        /* \"Contract/Candidate.sol\":105:1764  contract Candidate is Structure, Utils{... */\n      tag_57\n        /* \"Contract/Candidate.sol\":195:243  mapping (address => Candidate) public candidates */\n      tag_78\n      dup4\n      tag_10\n      jump\t// in\n    tag_78:\n        /* \"Contract/Candidate.sol\":105:1764  contract Candidate is Structure, Utils{... */\n      swap2\n      dup1\n      mload\n        /* \"Contract/Candidate.sol\":195:243  mapping (address => Candidate) public candidates */\n      swap4\n        /* \"Contract/Candidate.sol\":105:1764  contract Candidate is Structure, Utils{... */\n      tag_79\n        /* \"Contract/Candidate.sol\":195:243  mapping (address => Candidate) public candidates */\n      dup6\n        /* \"Contract/Candidate.sol\":105:1764  contract Candidate is Structure, Utils{... */\n      tag_60\n        /* \"Contract/Candidate.sol\":195:243  mapping (address => Candidate) public candidates */\n      dup2\n      0x0c\n      dup6\n      add\n        /* \"Contract/Candidate.sol\":105:1764  contract Candidate is Structure, Utils{... */\n      tag_9\n      jump\t// in\n    tag_79:\n        /* \"Contract/Candidate.sol\":195:243  mapping (address => Candidate) public candidates */\n      0x0e\n        /* \"Contract/Candidate.sol\":105:1764  contract Candidate is Structure, Utils{... */\n      dup3\n      mload\n        /* \"Contract/Candidate.sol\":195:243  mapping (address => Candidate) public candidates */\n      swap2\n        /* \"Contract/Candidate.sol\":105:1764  contract Candidate is Structure, Utils{... */\n      tag_61\n        /* \"Contract/Candidate.sol\":195:243  mapping (address => Candidate) public candidates */\n      dup4\n        /* \"Contract/Candidate.sol\":105:1764  contract Candidate is Structure, Utils{... */\n      tag_62\n        /* \"Contract/Candidate.sol\":195:243  mapping (address => Candidate) public candidates */\n      dup2\n      0x0d\n      dup6\n      add\n        /* \"Contract/Candidate.sol\":105:1764  contract Candidate is Structure, Utils{... */\n      tag_9\n      jump\t// in\n    tag_37:\n      swap1\n      pop\n      jumpi(tag_67, callvalue)\n      jumpi(tag_67, slt(add(not(0x03), calldatasize), 0x20))\n      calldataload\n        /* \"Contract/Candidate.sol\":302:332  string[] public candidateNames */\n      0x07\n        /* \"Contract/Candidate.sol\":105:1764  contract Candidate is Structure, Utils{... */\n      sload\n        /* \"Contract/Candidate.sol\":302:332  string[] public candidateNames */\n      dup2\n      lt\n      iszero\n      tag_67\n      jumpi\n        /* \"Contract/Candidate.sol\":105:1764  contract Candidate is Structure, Utils{... */\n      swap1\n      tag_89\n      tag_90\n      swap3\n        /* \"Contract/Candidate.sol\":302:332  string[] public candidateNames */\n      0x07\n        /* \"Contract/Candidate.sol\":105:1764  contract Candidate is Structure, Utils{... */\n      tag_57\n      swap6\n      mstore\n      dup3\n      mload\n      swap4\n      dup5\n      dup1\n      swap3\n      0xa66cc928b5edb82af9bd49922954155ab7b0942694bea4ce44661d9a8736c688\n      add\n      tag_9\n      jump\t// in\n    tag_90:\n      sub\n      dup4\n      tag_3\n      jump\t// in\n    tag_89:\n      mload\n      swap2\n      dup3\n      swap2\n      0x20\n      dup4\n      mstore\n      0x20\n      dup4\n      add\n      swap1\n      tag_5\n      jump\t// in\n    tag_35:\n      pop\n      pop\n      jumpi(tag_49, callvalue)\n      dup2\n      add(calldatasize, not(0x03))\n      slt\n      tag_49\n      jumpi\n      0x20\n      swap1\n      sload(0x03)\n      swap1\n      mload\n      swap1\n      dup2\n      mstore\n      return\n    tag_33:\n      swap1\n      pop\n      jumpi(tag_67, callvalue)\n      jumpi(tag_67, slt(add(not(0x03), calldatasize), 0x20))\n      calldataload\n      dup3\n      sload\n        /* \"Contract/Constants.sol\":83:110  string[] public gender_list */\n      dup2\n      lt\n      iszero\n      tag_67\n      jumpi\n        /* \"Contract/Candidate.sol\":105:1764  contract Candidate is Structure, Utils{... */\n      swap1\n      tag_89\n      tag_90\n      swap3\n      dup5\n      tag_57\n      swap6\n      mstore\n      dup3\n      mload\n      swap4\n      dup5\n      dup1\n      swap3\n      0x290decd9548b62a8d60345a988386fc84ba6bc95484008f6362f93160ef3e563\n      add\n      tag_9\n      jump\t// in\n    tag_31:\n      swap1\n      pop\n      dup3\n      jumpi(tag_55, callvalue)\n      0x20\n      swap2\n      dup3\n      add(calldatasize, not(0x03))\n      slt\n      tag_49\n      jumpi\n      calldataload\n      sub(shl(0xa0, 0x01), 0x01)\n      dup2\n      and\n      swap1\n      dup2\n      swap1\n      sub\n      tag_49\n      jumpi\n      dup4\n      tag_57\n      swap3\n      tag_112\n      swap3\n      dup3\n      mload\n      tag_113\n      dup2\n      tag_2\n      jump\t// in\n    tag_113:\n      0x80\n      dup5\n      mload\n      swap2\n      tag_114\n      dup4\n      tag_1\n      jump\t// in\n    tag_114:\n      dup5\n      dup4\n      mstore\n      0x60\n      swap3\n      dup4\n      dup11\n      dup3\n      add\n      mstore\n      dup6\n      dup8\n      dup3\n      add\n      mstore\n      dup6\n      dup5\n      dup3\n      add\n      mstore\n      dup4\n      dup4\n      dup3\n      add\n      mstore\n      dup4\n      0xa0\n      dup3\n      add\n      mstore\n      dup4\n      0xc0\n      dup3\n      add\n      mstore\n      dup4\n      0xe0\n      dup3\n      add\n      mstore\n      dup4\n      0x0100\n      dup3\n      add\n      mstore\n      dup4\n      0x0120\n      dup3\n      add\n      mstore\n      dup4\n      0x0140\n      dup3\n      add\n      mstore\n      dup4\n      0x0160\n      dup3\n      add\n      mstore\n      dup2\n      mstore\n      dup3\n      dup10\n      dup3\n      add\n      mstore\n      dup3\n      dup7\n      dup3\n      add\n      mstore\n      dup5\n      dup4\n      dup3\n      add\n      mstore\n      add\n      mstore\n      dup2\n      mstore\n        /* \"Contract/Candidate.sol\":1740:1750  candidates */\n      0x05\n        /* \"Contract/Candidate.sol\":105:1764  contract Candidate is Structure, Utils{... */\n      dup6\n      mstore\n      keccak256\n      tag_15\n      jump\t// in\n    tag_112:\n      swap3\n      mload\n      swap3\n      dup3\n      dup5\n      swap4\n      dup5\n      mstore\n      dup4\n      add\n      swap1\n      tag_7\n      jump\t// in\n    tag_29:\n      dup4\n      swap2\n      pop\n      jumpi(tag_49, callvalue)\n      dup2\n      add(calldatasize, not(0x03))\n      slt\n      tag_49\n      jumpi\n        /* \"Contract/Candidate.sol\":1618:1631  candidateList */\n      0x06\n        /* \"Contract/Candidate.sol\":105:1764  contract Candidate is Structure, Utils{... */\n      sload\n      swap1\n      0xffffffffffffffff\n      dup3\n      gt\n      tag_119\n      jumpi\n      pop\n      dup3\n      mload\n      swap2\n      0x20\n      swap3\n      tag_121\n      dup5\n      dup5\n      0x05\n      shl\n      add\n      dup3\n      tag_3\n      jump\t// in\n    tag_121:\n      dup3\n      dup2\n      mstore\n        /* \"Contract/Candidate.sol\":1618:1631  candidateList */\n      0x06\n        /* \"Contract/Candidate.sol\":105:1764  contract Candidate is Structure, Utils{... */\n      dup3\n      mstore\n      dup4\n      dup2\n      add\n      swap3\n      dup3\n      0xf652222313e28459528d920b65115c16c04f3efc82aaedc97be59f3f377c0d3f\n      dup6\n    tag_122:\n      dup4\n      dup4\n      lt\n      tag_123\n      jumpi\n      pop\n      pop\n      pop\n      pop\n      dup5\n      mload\n      swap4\n      dup1\n      dup6\n      add\n      swap2\n      dup2\n      dup7\n      mstore\n      mload\n      dup1\n      swap3\n      mstore\n      dup6\n      dup6\n      add\n      swap6\n      dup3\n      0x05\n      shl\n      dup7\n      add\n      add\n      swap4\n      swap3\n      swap6\n    tag_125:\n      dup3\n      dup8\n      lt\n      tag_126\n      jumpi\n      dup6\n      dup6\n      sub\n      dup7\n      return\n    tag_126:\n      swap1\n      swap2\n      swap3\n      swap4\n      dup3\n      dup1\n      tag_128\n      0x01\n      swap4\n      not(0x3f)\n      dup11\n      dup3\n      sub\n      add\n      dup7\n      mstore\n      dup9\n      mload\n      tag_7\n      jump\t// in\n    tag_128:\n      swap7\n      add\n      swap3\n      add\n      swap7\n      add\n      swap6\n      swap3\n      swap2\n      swap1\n      swap3\n      jump(tag_125)\n    tag_123:\n      0x10\n      dup9\n      0x01\n      swap3\n      tag_129\n      dup6\n      swap12\n      swap9\n      swap10\n      swap12\n      tag_15\n      jump\t// in\n    tag_129:\n      dup2\n      mstore\n      add\n      swap3\n      add\n      swap3\n      add\n      swap2\n      swap1\n      swap7\n      swap5\n      swap4\n      swap7\n      jump(tag_122)\n    tag_119:\n      shl(0xe0, 0x4e487b71)\n      dup4\n      mstore\n      0x41\n      swap1\n      mstore\n      0x24\n      dup3\n      revert\n    tag_27:\n      swap1\n      pop\n      dup3\n      jumpi(tag_55, slt(add(not(0x03), calldatasize), 0x01a0))\n      0xffffffffffffffff\n      swap3\n      dup3\n      calldataload\n      dup5\n      dup2\n      gt\n      tag_67\n      jumpi\n      tag_134\n      swap1\n      calldatasize\n      swap1\n      dup6\n      add\n      tag_4\n      jump\t// in\n    tag_134:\n      swap3\n      calldataload(0x64)\n      dup6\n      dup2\n      gt\n      tag_135\n      jumpi\n      tag_137\n      swap1\n      calldatasize\n      swap1\n      dup4\n      add\n      tag_4\n      jump\t// in\n    tag_137:\n      swap4\n      calldataload(0x84)\n      dup7\n      dup2\n      gt\n      tag_138\n      jumpi\n      tag_140\n      swap1\n      calldatasize\n      swap1\n      dup5\n      add\n      tag_4\n      jump\t// in\n    tag_140:\n      swap5\n      calldataload(0xa4)\n      dup8\n      dup2\n      gt\n      tag_141\n      jumpi\n      tag_143\n      swap1\n      calldatasize\n      swap1\n      dup6\n      add\n      tag_4\n      jump\t// in\n    tag_143:\n      calldataload(0xc4)\n      dup9\n      dup2\n      gt\n      tag_144\n      jumpi\n      tag_146\n      swap1\n      calldatasize\n      swap1\n      dup7\n      add\n      tag_4\n      jump\t// in\n    tag_146:\n      swap1\n      calldataload(0xe4)\n      dup10\n      dup2\n      gt\n      tag_147\n      jumpi\n      tag_149\n      swap1\n      calldatasize\n      swap1\n      dup8\n      add\n      tag_4\n      jump\t// in\n    tag_149:\n      swap2\n      calldataload(0x0104)\n      dup11\n      dup2\n      gt\n      tag_150\n      jumpi\n      tag_152\n      swap1\n      calldatasize\n      swap1\n      dup9\n      add\n      tag_4\n      jump\t// in\n    tag_152:\n      calldataload(0x0124)\n      dup12\n      dup2\n      gt\n      tag_153\n      jumpi\n      tag_155\n      swap1\n      calldatasize\n      swap1\n      dup10\n      add\n      tag_4\n      jump\t// in\n    tag_155:\n      swap1\n      calldataload(0x0144)\n      dup13\n      dup2\n      gt\n      tag_156\n      jumpi\n      tag_158\n      swap1\n      calldatasize\n      swap1\n      dup11\n      add\n      tag_4\n      jump\t// in\n    tag_158:\n      swap3\n      calldataload(0x0164)\n      dup14\n      dup2\n      gt\n      tag_162\n      jumpi\n      tag_161\n      swap1\n      calldatasize\n      swap1\n      dup12\n      add\n      tag_4\n      jump\t// in\n    tag_161:\n      swap5\n      calldataload(0x0184)\n      swap14\n      dup15\n      gt\n      tag_162\n      jumpi\n        /* \"Contract/Candidate.sol\":933:971  candidates[_id].user.citizenshipNumber */\n      0x02\n        /* \"Contract/Candidate.sol\":105:1764  contract Candidate is Structure, Utils{... */\n      dup12\n      dup14\n      swap15\n      swap16\n      dup13\n      tag_164\n      swap2\n      calldatasize\n      swap2\n      add\n      tag_4\n      jump\t// in\n    tag_164:\n        /* \"Contract/Candidate.sol\":868:878  msg.sender */\n      swap14\n      caller\n        /* \"Contract/Candidate.sol\":105:1764  contract Candidate is Structure, Utils{... */\n      dup2\n      mstore\n        /* \"Contract/Candidate.sol\":933:943  candidates */\n      0x05\n        /* \"Contract/Candidate.sol\":105:1764  contract Candidate is Structure, Utils{... */\n      0x20\n      mstore\n      keccak256\n        /* \"Contract/Candidate.sol\":933:971  candidates[_id].user.citizenshipNumber */\n      add\n        /* \"Contract/Candidate.sol\":105:1764  contract Candidate is Structure, Utils{... */\n      sload\n        /* \"Contract/Candidate.sol\":930:1042  if(candidates[_id].user.citizenshipNumber != 0){... */\n      tag_165\n      jumpi\n        /* \"Contract/Candidate.sol\":1066:1073  _gender */\n      dup12\n      swap13\n      swap14\n      tag_167\n      dup13\n      swap14\n      swap13\n      swap12\n      swap13\n      tag_16\n      jump\t// in\n    tag_167:\n        /* \"Contract/Candidate.sol\":105:1764  contract Candidate is Structure, Utils{... */\n      0xa0\n      dup12\n      mload\n      swap15\n      dup16\n      swap1\n      tag_168\n      dup3\n      tag_1\n      jump\t// in\n    tag_168:\n        /* \"Contract/Candidate.sol\":868:878  msg.sender */\n      caller\n        /* \"Contract/Candidate.sol\":105:1764  contract Candidate is Structure, Utils{... */\n      dup3\n      mstore\n        /* \"Contract/Candidate.sol\":1137:1252  User(_id, _name, _citizenshipNo, _age, _gender, _dob, _email, _profile, _province, _district, _municipality, _ward) */\n      dup13\n        /* \"Contract/Candidate.sol\":105:1764  contract Candidate is Structure, Utils{... */\n      0x20\n        /* \"Contract/Candidate.sol\":1137:1252  User(_id, _name, _citizenshipNo, _age, _gender, _dob, _email, _profile, _province, _district, _municipality, _ward) */\n      dup4\n      add\n        /* \"Contract/Candidate.sol\":105:1764  contract Candidate is Structure, Utils{... */\n      mstore\n      0x24\n      swap14\n      dup15\n      calldataload\n        /* \"Contract/Candidate.sol\":1137:1252  User(_id, _name, _citizenshipNo, _age, _gender, _dob, _email, _profile, _province, _district, _municipality, _ward) */\n      swap1\n      dup4\n      add\n        /* \"Contract/Candidate.sol\":105:1764  contract Candidate is Structure, Utils{... */\n      mstore\n      calldataload(0x44)\n      0x60\n        /* \"Contract/Candidate.sol\":1137:1252  User(_id, _name, _citizenshipNo, _age, _gender, _dob, _email, _profile, _province, _district, _municipality, _ward) */\n      dup4\n      add\n        /* \"Contract/Candidate.sol\":105:1764  contract Candidate is Structure, Utils{... */\n      mstore\n      0x80\n        /* \"Contract/Candidate.sol\":1137:1252  User(_id, _name, _citizenshipNo, _age, _gender, _dob, _email, _profile, _province, _district, _municipality, _ward) */\n      dup3\n      add\n        /* \"Contract/Candidate.sol\":105:1764  contract Candidate is Structure, Utils{... */\n      mstore\n        /* \"Contract/Candidate.sol\":1137:1252  User(_id, _name, _citizenshipNo, _age, _gender, _dob, _email, _profile, _province, _district, _municipality, _ward) */\n      add\n        /* \"Contract/Candidate.sol\":105:1764  contract Candidate is Structure, Utils{... */\n      mstore\n      0xc0\n        /* \"Contract/Candidate.sol\":1137:1252  User(_id, _name, _citizenshipNo, _age, _gender, _dob, _email, _profile, _province, _district, _municipality, _ward) */\n      dup14\n      add\n        /* \"Contract/Candidate.sol\":105:1764  contract Candidate is Structure, Utils{... */\n      mstore\n      0xe0\n        /* \"Contract/Candidate.sol\":1137:1252  User(_id, _name, _citizenshipNo, _age, _gender, _dob, _email, _profile, _province, _district, _municipality, _ward) */\n      dup13\n      add\n        /* \"Contract/Candidate.sol\":105:1764  contract Candidate is Structure, Utils{... */\n      mstore\n      0x0100\n        /* \"Contract/Candidate.sol\":1137:1252  User(_id, _name, _citizenshipNo, _age, _gender, _dob, _email, _profile, _province, _district, _municipality, _ward) */\n      dup12\n      add\n        /* \"Contract/Candidate.sol\":105:1764  contract Candidate is Structure, Utils{... */\n      mstore\n      0x0120\n        /* \"Contract/Candidate.sol\":1137:1252  User(_id, _name, _citizenshipNo, _age, _gender, _dob, _email, _profile, _province, _district, _municipality, _ward) */\n      dup11\n      add\n        /* \"Contract/Candidate.sol\":105:1764  contract Candidate is Structure, Utils{... */\n      mstore\n      0x0140\n        /* \"Contract/Candidate.sol\":1137:1252  User(_id, _name, _citizenshipNo, _age, _gender, _dob, _email, _profile, _province, _district, _municipality, _ward) */\n      dup10\n      add\n        /* \"Contract/Candidate.sol\":105:1764  contract Candidate is Structure, Utils{... */\n      mstore\n      0x0160\n        /* \"Contract/Candidate.sol\":1137:1252  User(_id, _name, _citizenshipNo, _age, _gender, _dob, _email, _profile, _province, _district, _municipality, _ward) */\n      dup9\n      add\n        /* \"Contract/Candidate.sol\":105:1764  contract Candidate is Structure, Utils{... */\n      mstore\n      dup6\n      mload\n      swap7\n      tag_169\n      dup9\n      tag_2\n      jump\t// in\n    tag_169:\n      dup8\n      mstore\n      0x20\n        /* \"Contract/Candidate.sol\":1114:1316  Candidate(... */\n      dup8\n      add\n        /* \"Contract/Candidate.sol\":105:1764  contract Candidate is Structure, Utils{... */\n      mstore\n        /* \"Contract/Candidate.sol\":1114:1316  Candidate(... */\n      dup5\n      dup7\n      add\n        /* \"Contract/Candidate.sol\":105:1764  contract Candidate is Structure, Utils{... */\n      mstore\n        /* \"Contract/Candidate.sol\":1114:1316  Candidate(... */\n      dup6\n        /* \"Contract/Candidate.sol\":105:1764  contract Candidate is Structure, Utils{... */\n      0x60\n        /* \"Contract/Candidate.sol\":1114:1316  Candidate(... */\n      dup7\n      add\n        /* \"Contract/Candidate.sol\":105:1764  contract Candidate is Structure, Utils{... */\n      mstore\n      0x60\n      0x80\n        /* \"Contract/Candidate.sol\":1114:1316  Candidate(... */\n      dup7\n      add\n        /* \"Contract/Candidate.sol\":105:1764  contract Candidate is Structure, Utils{... */\n      mstore\n        /* \"Contract/Candidate.sol\":868:878  msg.sender */\n      caller\n        /* \"Contract/Candidate.sol\":105:1764  contract Candidate is Structure, Utils{... */\n      dup7\n      mstore\n        /* \"Contract/Candidate.sol\":933:943  candidates */\n      0x05\n        /* \"Contract/Candidate.sol\":105:1764  contract Candidate is Structure, Utils{... */\n      0x20\n      mstore\n      tag_170\n      dup6\n      dup6\n      dup9\n      keccak256\n      tag_14\n      jump\t// in\n    tag_170:\n        /* \"Contract/Candidate.sol\":1364:1378  candidateNames */\n      0x07\n        /* \"Contract/Candidate.sol\":105:1764  contract Candidate is Structure, Utils{... */\n      sload\n      swap1\n      shl(0x40, 0x01)\n      swap2\n      dup3\n      dup2\n      lt\n      iszero\n      tag_171\n      jumpi\n      0x01\n      dup2\n      add\n      dup1\n        /* \"Contract/Candidate.sol\":1364:1378  candidateNames */\n      0x07\n        /* \"Contract/Candidate.sol\":105:1764  contract Candidate is Structure, Utils{... */\n      sstore\n      dup2\n      lt\n      iszero\n      tag_173\n      jumpi\n      swap1\n      tag_175\n      swap2\n        /* \"Contract/Candidate.sol\":1364:1378  candidateNames */\n      0x07\n        /* \"Contract/Candidate.sol\":105:1764  contract Candidate is Structure, Utils{... */\n      dup10\n      mstore\n      0xa66cc928b5edb82af9bd49922954155ab7b0942694bea4ce44661d9a8736c688\n      add\n      tag_13\n      jump\t// in\n    tag_175:\n        /* \"Contract/Candidate.sol\":1400:1413  candidateList */\n      0x06\n        /* \"Contract/Candidate.sol\":105:1764  contract Candidate is Structure, Utils{... */\n      sload\n      swap1\n      dup2\n      lt\n      iszero\n      tag_176\n      jumpi\n      0x01\n      dup2\n      add\n      dup1\n        /* \"Contract/Candidate.sol\":1400:1413  candidateList */\n      0x06\n        /* \"Contract/Candidate.sol\":105:1764  contract Candidate is Structure, Utils{... */\n      sstore\n      dup2\n      lt\n      iszero\n      tag_178\n      jumpi\n      dup5\n      tag_180\n      swap2\n        /* \"Contract/Candidate.sol\":1400:1413  candidateList */\n      0x06\n        /* \"Contract/Candidate.sol\":105:1764  contract Candidate is Structure, Utils{... */\n      dup9\n      mstore\n      dup5\n      shl\n      0xf652222313e28459528d920b65115c16c04f3efc82aaedc97be59f3f377c0d3f\n      add\n      tag_14\n      jump\t// in\n    tag_180:\n        /* \"Contract/Candidate.sol\":1456:1470  totalCandidate */\n      0x08\n        /* \"Contract/Candidate.sol\":105:1764  contract Candidate is Structure, Utils{... */\n      sload\n      swap2\n      0x01\n      dup4\n      add\n      dup1\n      swap4\n      gt\n      tag_181\n      jumpi\n      dup6\n        /* \"Contract/Candidate.sol\":1493:1520  CandidateCreated(candidate) */\n      0xaa865f867abaa68b8cba3e6df5b4cc018184c6e7fff1d03843d27c69a973e3b0\n        /* \"Contract/Candidate.sol\":105:1764  contract Candidate is Structure, Utils{... */\n      tag_183\n      dup8\n      dup8\n      dup8\n        /* \"Contract/Candidate.sol\":1456:1470  totalCandidate */\n      0x08\n        /* \"Contract/Candidate.sol\":105:1764  contract Candidate is Structure, Utils{... */\n      sstore\n      mload\n      swap2\n      dup3\n      swap2\n      0x20\n      dup4\n      mstore\n      0x20\n      dup4\n      add\n      swap1\n      tag_7\n      jump\t// in\n    tag_183:\n        /* \"Contract/Candidate.sol\":1493:1520  CandidateCreated(candidate) */\n      sub\n      swap1\n      log1\n        /* \"Contract/Candidate.sol\":105:1764  contract Candidate is Structure, Utils{... */\n      dup1\n      return\n    tag_181:\n      shl(0xe0, 0x4e487b71)\n      dup7\n      mstore\n      0x11\n      swap1\n      mstore\n      dup5\n      revert\n    tag_178:\n      pop\n      shl(0xe0, 0x4e487b71)\n      dup6\n      mstore\n      0x32\n      dup3\n      mstore\n      dup5\n      revert\n    tag_176:\n      pop\n      shl(0xe0, 0x4e487b71)\n      dup6\n      mstore\n      0x41\n      dup3\n      mstore\n      dup5\n      revert\n    tag_173:\n      shl(0xe0, 0x4e487b71)\n      dup9\n      mstore\n      0x32\n      dup6\n      mstore\n      dup4\n      dup9\n      revert\n    tag_171:\n      shl(0xe0, 0x4e487b71)\n      dup9\n      mstore\n      0x41\n      dup6\n      mstore\n      dup4\n      dup9\n      revert\n        /* \"Contract/Candidate.sol\":930:1042  if(candidates[_id].user.citizenshipNumber != 0){... */\n    tag_165:\n        /* \"Contract/Candidate.sol\":105:1764  contract Candidate is Structure, Utils{... */\n      dup11\n      mload\n      shl(0xe5, 0x461bcd)\n        /* \"Contract/Candidate.sol\":991:1031  revert(\"Candidate already registered !\") */\n      dup2\n      mstore\n        /* \"Contract/Candidate.sol\":105:1764  contract Candidate is Structure, Utils{... */\n      0x20\n        /* \"Contract/Candidate.sol\":991:1031  revert(\"Candidate already registered !\") */\n      dup2\n      dup13\n      add\n        /* \"Contract/Candidate.sol\":105:1764  contract Candidate is Structure, Utils{... */\n      mstore\n      0x1e\n      0x24\n      dup3\n      add\n      mstore\n      0x43616e64696461746520616c7265616479207265676973746572656420210000\n      0x44\n      dup3\n      add\n      mstore\n      0x64\n      swap1\n        /* \"Contract/Candidate.sol\":991:1031  revert(\"Candidate already registered !\") */\n      revert\n        /* \"Contract/Candidate.sol\":105:1764  contract Candidate is Structure, Utils{... */\n    tag_162:\n      dup12\n      dup1\n      revert\n    tag_156:\n      dup11\n      dup1\n      revert\n    tag_153:\n      dup10\n      dup1\n      revert\n    tag_150:\n      dup9\n      dup1\n      revert\n    tag_147:\n      dup8\n      dup1\n      revert\n    tag_144:\n      dup7\n      dup1\n      revert\n    tag_141:\n      dup6\n      dup1\n      revert\n    tag_138:\n      dup5\n      dup1\n      revert\n    tag_135:\n      dup4\n      dup1\n      revert\n    tag_25:\n      swap1\n      pop\n      jumpi(tag_67, callvalue)\n      jumpi(tag_67, slt(add(not(0x03), calldatasize), 0x20))\n      calldataload\n      sub(shl(0xa0, 0x01), 0x01)\n      dup2\n      dup2\n      and\n      swap2\n      dup3\n      swap1\n      sub\n      tag_135\n      jumpi\n      0x20\n      swap4\n      pop\n      sload(0x01)\n      and\n        /* \"Contract/Utils.sol\":542:561  _id == adminAddress */\n      eq\n        /* \"Contract/Candidate.sol\":105:1764  contract Candidate is Structure, Utils{... */\n      swap1\n      mload\n      swap1\n      dup2\n      mstore\n      return\n    tag_23:\n      pop\n      pop\n      jumpi(tag_49, callvalue)\n      dup2\n      add(calldatasize, not(0x03))\n      slt\n      tag_49\n      jumpi\n      0x20\n      swap1\n        /* \"Contract/Candidate.sol\":365:395  uint public totalCandidate = 0 */\n      0x08\n        /* \"Contract/Candidate.sol\":105:1764  contract Candidate is Structure, Utils{... */\n      sload\n      swap1\n      mload\n      swap1\n      dup2\n      mstore\n      return\n    tag_21:\n      swap1\n      pop\n      jumpi(tag_67, callvalue)\n      dup3\n      add(calldatasize, not(0x03))\n      slt\n      tag_67\n      jumpi\n      0x20\n      swap3\n      pop\n      sload\n      swap1\n      mload\n      swap1\n      dup2\n      mstore\n      return\n    tag_19:\n      dup5\n      swap1\n      jumpi(tag_49, callvalue)\n      dup2\n      add(calldatasize, not(0x03))\n      slt\n      tag_49\n      jumpi\n      0x20\n      swap1\n        /* \"Contract/Utils.sol\":289:320  uint public totalMaleVoters = 0 */\n      0x02\n        /* \"Contract/Candidate.sol\":105:1764  contract Candidate is Structure, Utils{... */\n      sload\n      dup2\n      mstore\n      return\n    tag_1:\n      0x0180\n      dup2\n      add\n      swap1\n      dup2\n      lt\n      0xffffffffffffffff\n      dup3\n      gt\n      or\n      tag_202\n      jumpi\n      0x40\n      mstore\n      jump\t// out\n    tag_202:\n      mstore(0x00, shl(0xe0, 0x4e487b71))\n      mstore(0x04, 0x41)\n      revert(0x00, 0x24)\n    tag_2:\n      0xa0\n      dup2\n      add\n      swap1\n      dup2\n      lt\n      0xffffffffffffffff\n      dup3\n      gt\n      or\n      tag_202\n      jumpi\n      0x40\n      mstore\n      jump\t// out\n    tag_3:\n      swap1\n      0x1f\n      dup1\n      not\n      swap2\n      add\n      and\n      dup2\n      add\n      swap1\n      dup2\n      lt\n      0xffffffffffffffff\n      dup3\n      gt\n      or\n      tag_202\n      jumpi\n      0x40\n      mstore\n      jump\t// out\n    tag_4:\n      dup2\n      0x1f\n      dup3\n      add\n      slt\n      iszero\n      tag_213\n      jumpi\n      dup1\n      calldataload\n      swap1\n      0xffffffffffffffff\n      dup3\n      gt\n      tag_202\n      jumpi\n      mload(0x40)\n      swap3\n      tag_212\n      0x1f\n      dup5\n      add\n      not(0x1f)\n      and\n      0x20\n      add\n      dup6\n      tag_3\n      jump\t// in\n    tag_212:\n      dup3\n      dup5\n      mstore\n      0x20\n      dup4\n      dup4\n      add\n      add\n      gt\n      tag_213\n      jumpi\n      dup2\n      0x00\n      swap3\n      0x20\n      dup1\n      swap4\n      add\n      dup4\n      dup7\n      add\n      calldatacopy\n      dup4\n      add\n      add\n      mstore\n      swap1\n      jump\t// out\n    tag_213:\n      0x00\n      dup1\n      revert\n    tag_5:\n      swap2\n      swap1\n      dup3\n      mload\n      swap3\n      dup4\n      dup3\n      mstore\n      0x00\n    tag_215:\n      dup5\n      dup2\n      lt\n      tag_216\n      jumpi\n      pop\n      pop\n      dup3\n      0x00\n      0x20\n      dup1\n      swap5\n      swap6\n      dup5\n      add\n      add\n      mstore\n      0x1f\n      dup1\n      not\n      swap2\n      add\n      and\n      add\n      add\n      swap1\n      jump\t// out\n    tag_216:\n      0x20\n      dup2\n      dup4\n      add\n      dup2\n      add\n      mload\n      dup5\n      dup4\n      add\n      dup3\n      add\n      mstore\n      add\n      jump(tag_215)\n    tag_6:\n      swap1\n      tag_218\n      swap2\n      0x01\n      dup1\n      0xa0\n      shl\n      sub\n      dup2\n      mload\n      and\n      dup3\n      mstore\n      tag_219\n      tag_220\n      tag_221\n      tag_222\n      tag_223\n      tag_224\n      tag_225\n      tag_226\n      0x20\n      dup10\n      add\n      mload\n      0x0180\n      dup1\n      0x20\n      dup14\n      add\n      mstore\n      dup12\n      add\n      swap1\n      tag_5\n      jump\t// in\n    tag_226:\n      0x40\n      dup10\n      add\n      mload\n      0x40\n      dup12\n      add\n      mstore\n      0x60\n      dup10\n      add\n      mload\n      0x60\n      dup12\n      add\n      mstore\n      0x80\n      dup10\n      add\n      mload\n      dup11\n      dup3\n      sub\n      0x80\n      dup13\n      add\n      mstore\n      tag_5\n      jump\t// in\n    tag_225:\n      0xa0\n      dup9\n      add\n      mload\n      dup10\n      dup3\n      sub\n      0xa0\n      dup12\n      add\n      mstore\n      tag_5\n      jump\t// in\n    tag_224:\n      0xc0\n      dup8\n      add\n      mload\n      dup9\n      dup3\n      sub\n      0xc0\n      dup11\n      add\n      mstore\n      tag_5\n      jump\t// in\n    tag_223:\n      0xe0\n      dup7\n      add\n      mload\n      dup8\n      dup3\n      sub\n      0xe0\n      dup10\n      add\n      mstore\n      tag_5\n      jump\t// in\n    tag_222:\n      0x0100\n      dup1\n      dup7\n      add\n      mload\n      swap1\n      dup8\n      dup4\n      sub\n      swap1\n      dup9\n      add\n      mstore\n      tag_5\n      jump\t// in\n    tag_221:\n      0x0120\n      dup1\n      dup6\n      add\n      mload\n      swap1\n      dup7\n      dup4\n      sub\n      swap1\n      dup8\n      add\n      mstore\n      tag_5\n      jump\t// in\n    tag_220:\n      0x0140\n      dup1\n      dup5\n      add\n      mload\n      swap1\n      dup6\n      dup4\n      sub\n      swap1\n      dup7\n      add\n      mstore\n      tag_5\n      jump\t// in\n    tag_219:\n      swap2\n      0x0160\n      dup1\n      swap3\n      add\n      mload\n      swap2\n      dup2\n      dup5\n      sub\n      swap2\n      add\n      mstore\n      tag_5\n      jump\t// in\n    tag_218:\n      swap1\n      jump\t// out\n    tag_7:\n      tag_227\n      dup2\n      mload\n      0xa0\n      dup5\n      mstore\n      0xa0\n      dup5\n      add\n      swap1\n      tag_6\n      jump\t// in\n    tag_227:\n      swap1\n      0x80\n      tag_228\n      tag_229\n      0x20\n      swap5\n      dup6\n      dup6\n      add\n      mload\n      dup8\n      dup3\n      sub\n      dup8\n      dup10\n      add\n      mstore\n      tag_5\n      jump\t// in\n    tag_229:\n      0x40\n      dup5\n      add\n      mload\n      dup7\n      dup3\n      sub\n      0x40\n      dup9\n      add\n      mstore\n      tag_5\n      jump\t// in\n    tag_228:\n      swap2\n      0x60\n      dup2\n      add\n      mload\n      0x60\n      dup7\n      add\n      mstore\n      add\n      mload\n      swap3\n      0x80\n      dup2\n      dup4\n      sub\n      swap2\n      add\n      mstore\n      dup2\n      dup1\n      dup5\n      mload\n      swap3\n      dup4\n      dup2\n      mstore\n      add\n      swap4\n      add\n      swap2\n      0x00\n    tag_230:\n      dup3\n      dup2\n      lt\n      tag_231\n      jumpi\n      pop\n      pop\n      pop\n      pop\n      swap1\n      jump\t// out\n    tag_231:\n      dup4\n      mload\n      sub(shl(0xa0, 0x01), 0x01)\n      and\n      dup6\n      mstore\n      swap4\n      dup2\n      add\n      swap4\n      swap3\n      dup2\n      add\n      swap3\n      0x01\n      add\n      jump(tag_230)\n    tag_8:\n      swap1\n      0x01\n      dup3\n      dup2\n      shr\n      swap3\n      and\n      dup1\n      iszero\n      tag_233\n      jumpi\n    tag_234:\n      0x20\n      dup4\n      lt\n      eq\n      tag_235\n      jumpi\n      jump\t// out\n    tag_235:\n      mstore(0x00, shl(0xe0, 0x4e487b71))\n      mstore(0x04, 0x22)\n      revert(0x00, 0x24)\n    tag_233:\n      swap2\n      0x7f\n      and\n      swap2\n      jump(tag_234)\n    tag_9:\n      swap1\n      0x00\n      swap3\n      swap2\n      dup1\n      sload\n      swap2\n      tag_237\n      dup4\n      tag_8\n      jump\t// in\n    tag_237:\n      swap2\n      dup3\n      dup3\n      mstore\n      0x01\n      swap4\n      dup5\n      dup2\n      and\n      swap1\n      dup2\n      0x00\n      eq\n      tag_238\n      jumpi\n      pop\n      0x01\n      eq\n      tag_240\n      jumpi\n    tag_241:\n      pop\n      pop\n      pop\n      pop\n      jump\t// out\n    tag_240:\n      swap1\n      swap2\n      swap4\n      swap5\n      pop\n      0x00\n      mstore\n      0x20\n      swap3\n      dup4\n      0x00\n      keccak256\n      swap3\n      dup5\n      0x00\n      swap5\n    tag_242:\n      dup4\n      dup7\n      lt\n      tag_243\n      jumpi\n      pop\n      pop\n      pop\n      pop\n      add\n      add\n      swap1\n      codesize\n      dup1\n      dup1\n      dup1\n      jump(tag_241)\n    tag_243:\n      dup1\n      sload\n      dup6\n      dup8\n      add\n      dup4\n      add\n      mstore\n      swap5\n      add\n      swap4\n      dup6\n      swap1\n      dup3\n      add\n      jump(tag_242)\n    tag_238:\n      swap3\n      swap5\n      pop\n      pop\n      pop\n      0x20\n      swap4\n      swap5\n      pop\n      not(0xff)\n      and\n      dup4\n      dup4\n      add\n      mstore\n      iszero\n      iszero\n      0x05\n      shl\n      add\n      add\n      swap1\n      codesize\n      dup1\n      dup1\n      dup1\n      jump(tag_241)\n    tag_10:\n      swap1\n      0x0b\n      0x0160\n      0x40\n      swap4\n      tag_245\n      dup6\n      mload\n      swap2\n      tag_246\n      dup4\n      tag_1\n      jump\t// in\n    tag_246:\n      tag_62\n      dup4\n      swap8\n      0x01\n      dup1\n      0xa0\n      shl\n      sub\n      dup4\n      sload\n      and\n      dup6\n      mstore\n      dup1\n      mload\n      tag_248\n      dup2\n      tag_249\n      dup2\n      0x01\n      dup9\n      add\n      tag_9\n      jump\t// in\n    tag_249:\n      sub\n      dup3\n      tag_3\n      jump\t// in\n    tag_248:\n      0x20\n      dup7\n      add\n      mstore\n      0x02\n      dup4\n      add\n      sload\n      dup2\n      dup7\n      add\n      mstore\n      0x03\n      dup4\n      add\n      sload\n      0x60\n      dup7\n      add\n      mstore\n      dup1\n      mload\n      tag_250\n      dup2\n      tag_249\n      dup2\n      0x04\n      dup9\n      add\n      tag_9\n      jump\t// in\n    tag_250:\n      0x80\n      dup7\n      add\n      mstore\n      dup1\n      mload\n      tag_252\n      dup2\n      tag_249\n      dup2\n      0x05\n      dup9\n      add\n      tag_9\n      jump\t// in\n    tag_252:\n      0xa0\n      dup7\n      add\n      mstore\n      dup1\n      mload\n      tag_254\n      dup2\n      tag_249\n      dup2\n      0x06\n      dup9\n      add\n      tag_9\n      jump\t// in\n    tag_254:\n      0xc0\n      dup7\n      add\n      mstore\n      dup1\n      mload\n      tag_256\n      dup2\n      tag_249\n      dup2\n      0x07\n      dup9\n      add\n      tag_9\n      jump\t// in\n    tag_256:\n      0xe0\n      dup7\n      add\n      mstore\n      dup1\n      mload\n      tag_258\n      dup2\n      tag_249\n      dup2\n      0x08\n      dup9\n      add\n      tag_9\n      jump\t// in\n    tag_258:\n      0x0100\n      dup7\n      add\n      mstore\n      dup1\n      mload\n      tag_260\n      dup2\n      tag_249\n      dup2\n      0x09\n      dup9\n      add\n      tag_9\n      jump\t// in\n    tag_260:\n      0x0120\n      dup7\n      add\n      mstore\n      dup1\n      mload\n      tag_262\n      dup2\n      tag_249\n      dup2\n      0x0a\n      dup9\n      add\n      tag_9\n      jump\t// in\n    tag_262:\n      0x0140\n      dup7\n      add\n      mstore\n      mload\n      dup1\n      swap7\n      dup2\n      swap4\n      add\n      tag_9\n      jump\t// in\n    tag_245:\n      add\n      mstore\n      jump\t// out\n    tag_11:\n      swap5\n      swap4\n      swap3\n      tag_264\n      0x60\n      swap4\n      tag_265\n      tag_266\n      swap5\n      0x80\n      dup11\n      mstore\n      0x80\n      dup11\n      add\n      swap1\n      tag_6\n      jump\t// in\n    tag_265:\n      swap1\n      dup9\n      dup3\n      sub\n      0x20\n      dup11\n      add\n      mstore\n      tag_5\n      jump\t// in\n    tag_264:\n      swap1\n      dup7\n      dup3\n      sub\n      0x40\n      dup9\n      add\n      mstore\n      tag_5\n      jump\t// in\n    tag_266:\n      swap4\n      add\n      mstore\n      jump\t// out\n    tag_12:\n      dup2\n      dup2\n      lt\n      tag_268\n      jumpi\n      pop\n      pop\n      jump\t// out\n    tag_268:\n      0x00\n      dup2\n      sstore\n      0x01\n      add\n      jump(tag_12)\n    tag_13:\n      swap2\n      swap1\n      swap2\n      dup3\n      mload\n      0xffffffffffffffff\n      dup2\n      gt\n      tag_202\n      jumpi\n      tag_272\n      dup3\n      sload\n      tag_8\n      jump\t// in\n    tag_272:\n      0x1f\n      dup2\n      gt\n      tag_273\n      jumpi\n    tag_274:\n      pop\n      0x20\n      dup1\n      0x1f\n      dup4\n      gt\n      0x01\n      eq\n      tag_275\n      jumpi\n      pop\n      dup2\n      swap3\n      swap4\n      swap5\n      0x00\n      swap3\n      tag_277\n      jumpi\n    tag_278:\n      pop\n      pop\n      dup2\n      0x01\n      shl\n      swap2\n      not(0x00)\n      swap1\n      0x03\n      shl\n      shr\n      not\n      and\n      or\n      swap1\n      sstore\n      jump\t// out\n    tag_277:\n      add\n      mload\n      swap1\n      pop\n      codesize\n      dup1\n      jump(tag_278)\n    tag_275:\n      swap1\n      not(0x1f)\n      dup4\n      and\n      swap6\n      dup5\n      0x00\n      mstore\n      dup3\n      0x00\n      keccak256\n      swap3\n      0x00\n      swap1\n    tag_280:\n      dup9\n      dup3\n      lt\n      tag_281\n      jumpi\n      pop\n      pop\n      dup4\n      0x01\n      swap6\n      swap7\n      swap8\n      lt\n      tag_283\n      jumpi\n    tag_284:\n      pop\n      pop\n      pop\n      dup2\n      shl\n      add\n      swap1\n      sstore\n      jump\t// out\n    tag_283:\n      add\n      mload\n      not(0x00)\n      0xf8\n      dup5\n      0x03\n      shl\n      and\n      shr\n      not\n      and\n      swap1\n      sstore\n      codesize\n      dup1\n      dup1\n      jump(tag_284)\n    tag_281:\n      dup1\n      0x01\n      dup6\n      swap7\n      dup3\n      swap5\n      swap7\n      dup7\n      add\n      mload\n      dup2\n      sstore\n      add\n      swap6\n      add\n      swap4\n      add\n      swap1\n      jump(tag_280)\n    tag_273:\n      tag_285\n      swap1\n      dup4\n      0x00\n      mstore\n      keccak256(0x00, 0x20)\n      0x1f\n      dup5\n      add\n      0x05\n      shr\n      dup2\n      add\n      swap2\n      0x20\n      dup6\n      lt\n      tag_286\n      jumpi\n    tag_287:\n      0x1f\n      add\n      0x05\n      shr\n      add\n      swap1\n      tag_12\n      jump\t// in\n    tag_285:\n      codesize\n      jump(tag_274)\n    tag_286:\n      swap1\n      swap2\n      pop\n      dup2\n      swap1\n      jump(tag_287)\n    tag_14:\n      dup2\n      mload\n      swap2\n      0x01\n      dup1\n      0xa0\n      shl\n      sub\n      dup1\n      dup5\n      mload\n      and\n      shl(0xa0, 0xffffffffffffffffffffffff)\n      dup5\n      sload\n      and\n      or\n      dup4\n      sstore\n      0x80\n      0x0f\n      0x20\n      swap5\n      tag_288\n      0x0160\n      dup8\n      dup10\n      add\n      mload\n      swap9\n      tag_289\n      0x01\n      swap11\n      dup12\n      dup7\n      add\n      tag_13\n      jump\t// in\n    tag_289:\n      0x40\n      dup2\n      add\n      mload\n      0x02\n      dup6\n      add\n      sstore\n      0x60\n      dup2\n      add\n      mload\n      0x03\n      dup6\n      add\n      sstore\n      tag_290\n      dup7\n      dup3\n      add\n      mload\n      0x04\n      dup7\n      add\n      tag_13\n      jump\t// in\n    tag_290:\n      tag_291\n      0xa0\n      dup3\n      add\n      mload\n      0x05\n      dup7\n      add\n      tag_13\n      jump\t// in\n    tag_291:\n      tag_292\n      0xc0\n      dup3\n      add\n      mload\n      0x06\n      dup7\n      add\n      tag_13\n      jump\t// in\n    tag_292:\n      tag_293\n      0xe0\n      dup3\n      add\n      mload\n      0x07\n      dup7\n      add\n      tag_13\n      jump\t// in\n    tag_293:\n      tag_294\n      0x0100\n      dup3\n      add\n      mload\n      0x08\n      dup7\n      add\n      tag_13\n      jump\t// in\n    tag_294:\n      tag_295\n      0x0120\n      dup3\n      add\n      mload\n      0x09\n      dup7\n      add\n      tag_13\n      jump\t// in\n    tag_295:\n      tag_296\n      0x0140\n      dup3\n      add\n      mload\n      0x0a\n      dup7\n      add\n      tag_13\n      jump\t// in\n    tag_296:\n      add\n      mload\n      0x0b\n      dup4\n      add\n      tag_13\n      jump\t// in\n    tag_288:\n      tag_297\n      dup7\n      dup7\n      add\n      mload\n      0x0c\n      dup4\n      add\n      tag_13\n      jump\t// in\n    tag_297:\n      tag_298\n      0x40\n      dup7\n      add\n      mload\n      0x0d\n      dup4\n      add\n      tag_13\n      jump\t// in\n    tag_298:\n      0x60\n      dup6\n      add\n      mload\n      0x0e\n      dup3\n      add\n      sstore\n      add\n      swap3\n      add\n      mload\n      swap3\n      dup4\n      mload\n      swap4\n      0xffffffffffffffff\n      dup6\n      gt\n      tag_202\n      jumpi\n      shl(0x40, 0x01)\n      dup6\n      gt\n      tag_202\n      jumpi\n      dup2\n      swap1\n      dup5\n      sload\n      dup7\n      dup7\n      sstore\n      dup1\n      dup8\n      lt\n      tag_303\n      jumpi\n    tag_304:\n      pop\n      add\n      swap3\n      0x00\n      mstore\n      dup1\n      0x00\n      keccak256\n      swap2\n      0x00\n    tag_305:\n      dup6\n      dup2\n      lt\n      tag_306\n      jumpi\n      pop\n      pop\n      pop\n      pop\n      pop\n      pop\n      pop\n      jump\t// out\n    tag_306:\n      dup5\n      mload\n      dup3\n      and\n      dup5\n      dup3\n      add\n      sstore\n      swap4\n      dup3\n      add\n      swap4\n      dup7\n      add\n      jump(tag_305)\n    tag_303:\n      tag_308\n      swap1\n      dup7\n      0x00\n      mstore\n      dup8\n      dup5\n      0x00\n      keccak256\n      swap2\n      dup3\n      add\n      swap2\n      add\n      tag_12\n      jump\t// in\n    tag_308:\n      codesize\n      jump(tag_304)\n    tag_15:\n      swap1\n      mload(0x40)\n      swap2\n      tag_309\n      dup4\n      tag_2\n      jump\t// in\n    tag_309:\n      dup3\n      tag_310\n      dup3\n      tag_10\n      jump\t// in\n    tag_310:\n      dup2\n      mstore\n      0x0f\n      mload(0x40)\n      swap3\n      tag_311\n      dup5\n      tag_312\n      dup2\n      0x0c\n      dup6\n      add\n      tag_9\n      jump\t// in\n    tag_312:\n      sub\n      dup6\n      tag_3\n      jump\t// in\n    tag_311:\n      0x20\n      swap4\n      dup5\n      dup5\n      add\n      mstore\n      mload(0x40)\n      tag_313\n      dup2\n      tag_249\n      dup2\n      0x0d\n      dup7\n      add\n      tag_9\n      jump\t// in\n    tag_313:\n      0x40\n      dup5\n      add\n      mstore\n      0x0e\n      dup2\n      add\n      sload\n      0x60\n      dup5\n      add\n      mstore\n      add\n      swap1\n      mload(0x40)\n      dup1\n      swap4\n      dup5\n      swap2\n      dup2\n      dup6\n      sload\n      swap2\n      dup3\n      dup2\n      mstore\n      add\n      swap5\n      0x00\n      mstore\n      dup2\n      0x00\n      keccak256\n      swap2\n      0x00\n      swap1\n    tag_315:\n      dup3\n      dup3\n      lt\n      tag_316\n      jumpi\n      pop\n      pop\n      pop\n      pop\n      tag_245\n      swap1\n      0x80\n      swap4\n      sub\n      dup5\n      tag_3\n      jump\t// in\n    tag_316:\n      dup4\n      sload\n      sub(shl(0xa0, 0x01), 0x01)\n      and\n      dup8\n      mstore\n      swap6\n      dup7\n      add\n      swap6\n      dup8\n      swap5\n      pop\n      0x01\n      swap4\n      dup5\n      add\n      swap4\n      swap1\n      swap2\n      add\n      swap1\n      jump(tag_315)\n        /* \"Contract/Utils.sol\":574:1049  function updateCounter(string memory _gender) public {... */\n    tag_16:\n        /* \"Contract/Candidate.sol\":105:1764  contract Candidate is Structure, Utils{... */\n      dup1\n      mload\n      swap1\n      0x20\n      swap2\n      dup3\n      dup3\n      add\n        /* \"Contract/Utils.sol\":640:665  keccak256(bytes(_gender)) */\n      swap1\n      dup2\n      keccak256\n      swap1\n      0x00\n        /* \"Contract/Candidate.sol\":105:1764  contract Candidate is Structure, Utils{... */\n      swap3\n      dup4\n      sload\n      swap3\n      dup4\n      iszero\n      tag_319\n      jumpi\n      swap1\n      dup6\n      swap3\n      swap2\n      dup6\n      dup1\n      mstore\n      mload(0x40)\n      dup7\n      swap1\n      0x290decd9548b62a8d60345a988386fc84ba6bc95484008f6362f93160ef3e563\n      dup2\n      dup2\n      sload\n      swap4\n      tag_321\n      dup6\n      tag_8\n      jump\t// in\n    tag_321:\n      swap3\n      dup4\n      dup4\n      mstore\n      dup10\n      dup4\n      add\n      swap6\n      0x01\n      swap14\n      dup15\n      dup3\n      and\n      swap2\n      dup3\n      0x00\n      eq\n      tag_322\n      jumpi\n      pop\n      pop\n      0x01\n      eq\n      tag_324\n      jumpi\n    tag_325:\n      pop\n      tag_326\n      swap3\n      pop\n      sub\n      dup3\n      tag_3\n      jump\t// in\n    tag_326:\n      mload\n        /* \"Contract/Utils.sol\":669:701  keccak256(bytes(gender_list[0])) */\n      swap1\n      keccak256\n        /* \"Contract/Utils.sol\":640:701  keccak256(bytes(_gender)) == keccak256(bytes(gender_list[0])) */\n      sub\n        /* \"Contract/Utils.sol\":669:701  keccak256(bytes(gender_list[0])) */\n      tag_327\n      jumpi\n        /* \"Contract/Candidate.sol\":105:1764  contract Candidate is Structure, Utils{... */\n      pop\n      pop\n      pop\n      pop\n        /* \"Contract/Utils.sol\":734:749  totalMaleVoters */\n      0x02\n        /* \"Contract/Candidate.sol\":105:1764  contract Candidate is Structure, Utils{... */\n      sload\n      swap2\n      dup3\n      add\n      dup1\n      swap3\n      gt\n      tag_329\n      jumpi\n      pop\n        /* \"Contract/Utils.sol\":734:749  totalMaleVoters */\n      0x02\n        /* \"Contract/Candidate.sol\":105:1764  contract Candidate is Structure, Utils{... */\n      sstore\n        /* \"Contract/Utils.sol\":574:1049  function updateCounter(string memory _gender) public {... */\n      jump\t// out\n        /* \"Contract/Candidate.sol\":105:1764  contract Candidate is Structure, Utils{... */\n    tag_329:\n      shl(0xe0, 0x4e487b71)\n      dup2\n      mstore\n      mstore(0x04, 0x11)\n      0x24\n      swap1\n      revert\n        /* \"Contract/Utils.sol\":637:1043  if(keccak256(bytes(_gender)) == keccak256(bytes(gender_list[0]))){... */\n    tag_327:\n        /* \"Contract/Candidate.sol\":105:1764  contract Candidate is Structure, Utils{... */\n      dup1\n      mload\n        /* \"Contract/Utils.sol\":775:800  keccak256(bytes(_gender)) */\n      dup3\n      keccak256\n        /* \"Contract/Candidate.sol\":105:1764  contract Candidate is Structure, Utils{... */\n      dup5\n      dup8\n      lt\n      iszero\n      tag_332\n      jumpi\n      dup6\n      dup1\n      mstore\n      dup7\n      mload(0x40)\n      dup8\n      dup2\n      0x290decd9548b62a8d60345a988386fc84ba6bc95484008f6362f93160ef3e564\n      swap2\n      dup3\n      sload\n      swap3\n      tag_334\n      dup5\n      tag_8\n      jump\t// in\n    tag_334:\n      swap4\n      dup5\n      dup5\n      mstore\n      dup11\n      dup1\n      dup6\n      add\n      swap8\n      dup3\n      and\n      swap2\n      dup3\n      0x00\n      eq\n      tag_335\n      jumpi\n      pop\n      pop\n      0x01\n      eq\n      tag_337\n      jumpi\n    tag_338:\n      pop\n      tag_339\n      swap3\n      pop\n      sub\n      dup3\n      tag_3\n      jump\t// in\n    tag_339:\n      mload\n        /* \"Contract/Utils.sol\":804:836  keccak256(bytes(gender_list[1])) */\n      swap1\n      keccak256\n        /* \"Contract/Utils.sol\":775:836  keccak256(bytes(_gender)) == keccak256(bytes(gender_list[1])) */\n      sub\n        /* \"Contract/Utils.sol\":804:836  keccak256(bytes(gender_list[1])) */\n      tag_340\n      jumpi\n        /* \"Contract/Candidate.sol\":105:1764  contract Candidate is Structure, Utils{... */\n      pop\n      pop\n      pop\n      pop\n        /* \"Contract/Utils.sol\":871:888  totalFemaleVoters */\n      0x03\n        /* \"Contract/Candidate.sol\":105:1764  contract Candidate is Structure, Utils{... */\n      sload\n      swap2\n      dup3\n      add\n      dup1\n      swap3\n      gt\n      tag_329\n      jumpi\n      pop\n        /* \"Contract/Utils.sol\":871:888  totalFemaleVoters */\n      0x03\n        /* \"Contract/Candidate.sol\":105:1764  contract Candidate is Structure, Utils{... */\n      sstore\n        /* \"Contract/Utils.sol\":574:1049  function updateCounter(string memory _gender) public {... */\n      jump\t// out\n        /* \"Contract/Utils.sol\":772:1043  if(keccak256(bytes(_gender)) == keccak256(bytes(gender_list[1]))){... */\n    tag_340:\n        /* \"Contract/Candidate.sol\":105:1764  contract Candidate is Structure, Utils{... */\n      mload\n        /* \"Contract/Utils.sol\":914:939  keccak256(bytes(_gender)) */\n      swap1\n      keccak256\n        /* \"Contract/Candidate.sol\":105:1764  contract Candidate is Structure, Utils{... */\n      swap2\n        /* \"Contract/Utils.sol\":971:972  2 */\n      0x02\n        /* \"Contract/Candidate.sol\":105:1764  contract Candidate is Structure, Utils{... */\n      lt\n      iszero\n      tag_345\n      jumpi\n      dup3\n      dup1\n      mstore\n      mload(0x40)\n      dup4\n      swap2\n      dup2\n      0x290decd9548b62a8d60345a988386fc84ba6bc95484008f6362f93160ef3e565\n      swap4\n      dup5\n      sload\n      swap5\n      tag_347\n      dup7\n      tag_8\n      jump\t// in\n    tag_347:\n      swap1\n      dup2\n      dup5\n      mstore\n      dup5\n      dup5\n      add\n      swap7\n      dup11\n      dup2\n      and\n      swap1\n      dup2\n      0x00\n      eq\n      tag_348\n      jumpi\n      pop\n      0x01\n      eq\n      tag_350\n      jumpi\n    tag_351:\n      pop\n      pop\n      tag_352\n      swap3\n      pop\n      sub\n      dup3\n      tag_3\n      jump\t// in\n    tag_352:\n      mload\n        /* \"Contract/Utils.sol\":943:975  keccak256(bytes(gender_list[2])) */\n      swap1\n      keccak256\n        /* \"Contract/Utils.sol\":914:975  keccak256(bytes(_gender)) == keccak256(bytes(gender_list[2])) */\n      eq\n        /* \"Contract/Utils.sol\":911:1043  if(keccak256(bytes(_gender)) == keccak256(bytes(gender_list[2]))){... */\n      tag_353\n      jumpi\n        /* \"Contract/Utils.sol\":772:1043  if(keccak256(bytes(_gender)) == keccak256(bytes(gender_list[1]))){... */\n      pop\n      pop\n        /* \"Contract/Utils.sol\":574:1049  function updateCounter(string memory _gender) public {... */\n      jump\t// out\n        /* \"Contract/Utils.sol\":911:1043  if(keccak256(bytes(_gender)) == keccak256(bytes(gender_list[2]))){... */\n    tag_353:\n        /* \"Contract/Utils.sol\":1009:1025  totalOtherVoters */\n      0x04\n        /* \"Contract/Candidate.sol\":105:1764  contract Candidate is Structure, Utils{... */\n      sload\n      swap2\n      dup3\n      add\n      dup1\n      swap3\n      gt\n      tag_329\n      jumpi\n      pop\n        /* \"Contract/Utils.sol\":1009:1025  totalOtherVoters */\n      0x04\n        /* \"Contract/Candidate.sol\":105:1764  contract Candidate is Structure, Utils{... */\n      sstore\n        /* \"Contract/Utils.sol\":574:1049  function updateCounter(string memory _gender) public {... */\n      jump\t// out\n        /* \"Contract/Candidate.sol\":105:1764  contract Candidate is Structure, Utils{... */\n    tag_350:\n      dup9\n      mstore\n      dup8\n      swap2\n      pop\n      dup9\n      0x63d75db57ae45c3799740c3cd8dcee96a498324843d79ae390adc81d74b52f13\n    tag_357:\n      dup3\n      dup5\n      lt\n      tag_358\n      jumpi\n      pop\n      pop\n      pop\n      swap2\n      tag_352\n      swap3\n      dup3\n      add\n      add\n      codesize\n      dup1\n      jump(tag_351)\n    tag_358:\n      dup1\n      sload\n      dup8\n      dup6\n      add\n      dup8\n      add\n      mstore\n      dup7\n      swap5\n      pop\n      swap3\n      dup6\n      add\n      swap3\n      dup11\n      swap2\n      add\n      jump(tag_357)\n    tag_348:\n      swap2\n      pop\n      pop\n      tag_352\n      swap5\n      swap3\n      pop\n      not(0xff)\n      and\n      dup7\n      mstore\n      iszero\n      iszero\n      0x05\n      shl\n      dup3\n      add\n      add\n      codesize\n      dup1\n      jump(tag_351)\n    tag_345:\n      shl(0xe0, 0x4e487b71)\n      dup4\n      mstore\n      mstore(0x04, 0x32)\n      0x24\n      dup4\n      revert\n    tag_337:\n      dup12\n      mstore\n      pop\n      dup3\n      swap1\n      pop\n      dup8\n      dup11\n      dup13\n      0x6c13d8c1c5df666ea9ca2a428504a3776c8ca01021c3a1524ca7d765f600979a\n    tag_360:\n      dup6\n      dup4\n      lt\n      tag_361\n      jumpi\n      pop\n      pop\n      tag_339\n      swap4\n      pop\n      dup3\n      add\n      add\n      codesize\n      jump(tag_338)\n    tag_361:\n      dup1\n      swap2\n      swap3\n      swap5\n      pop\n      sload\n      dup4\n      dup6\n      dup9\n      add\n      add\n      mstore\n      add\n      swap2\n      add\n      dup9\n      swap1\n      dup13\n      dup6\n      swap4\n      jump(tag_360)\n    tag_335:\n      not(0xff)\n      and\n      dup9\n      mstore\n      tag_339\n      swap6\n      iszero\n      iszero\n      0x05\n      shl\n      dup6\n      add\n      add\n      swap3\n      pop\n      codesize\n      swap2\n      pop\n      tag_338\n      swap1\n      pop\n      jump\n    tag_332:\n      shl(0xe0, 0x4e487b71)\n      dup7\n      mstore\n      mstore(0x04, 0x32)\n      0x24\n      dup7\n      revert\n    tag_324:\n      dup12\n      mstore\n      pop\n      dup3\n      swap1\n      pop\n      dup8\n      dup11\n      dup13\n      0x510e4e770828ddbf7f7b00ab00a9f6adaf81c0dc9cc85f1f8249c256942d61d9\n    tag_363:\n      dup6\n      dup4\n      lt\n      tag_364\n      jumpi\n      pop\n      pop\n      tag_326\n      swap4\n      pop\n      dup3\n      add\n      add\n      codesize\n      jump(tag_325)\n    tag_364:\n      dup1\n      swap2\n      swap3\n      swap5\n      pop\n      sload\n      dup4\n      dup6\n      dup9\n      add\n      add\n      mstore\n      add\n      swap2\n      add\n      dup9\n      swap1\n      dup13\n      dup6\n      swap4\n      jump(tag_363)\n    tag_322:\n      not(0xff)\n      and\n      dup9\n      mstore\n      tag_326\n      swap6\n      iszero\n      iszero\n      0x05\n      shl\n      dup6\n      add\n      add\n      swap3\n      pop\n      codesize\n      swap2\n      pop\n      tag_325\n      swap1\n      pop\n      jump\n    tag_319:\n      shl(0xe0, 0x4e487b71)\n      dup6\n      mstore\n      mstore(0x04, 0x32)\n      0x24\n      dup6\n      revert\n\n    auxdata: 0xa264697066735822122095efa163dea68bcf6e3c92e3a25724e14974558061750c0fc9cff44341318df864736f6c63430008110033\n}\n",
				"bytecode": {
					"linkReferences": {},
					"object": "6080346200029b576001600160401b03606082018181118382101762000285576040526200002c620002a0565b600490818152602090634d414c4560e01b8282015284526200004d620002a0565b600681526546454d414c4560d01b82820152818501526200006d620002a0565b60068152654f544845525360d01b82820152604085015260009283549460039586865580871062000208575b5084805282852085915b878310620000dd576002879055868855868655600180546001600160a01b03191633179055600887905560405161150b9081620003178239f35b8051805190858211620001f557908691620000f98554620002c0565b90601f91828111620001ba575b50839183116001146200014f579180600195928695948d9262000143575b5050600019828e1b1c191690841b1785555b01920192019190620000a3565b01519050388062000124565b858b52838b209190601f1984168c5b818110620001a1575091600196939185889796941062000188575b505050831b8301855562000136565b0151600019838f1b60f8161c1916905538808062000179565b8284015185558b9660019095019493840193016200015e565b620001e490878d52858d20600585808801821c830193898910620001eb575b01901c0190620002fd565b3862000106565b93508293620001d9565b634e487b7160e01b895260418852602489fd5b8580528684872091820191015b81811062000224575062000099565b806200023360019254620002c0565b8062000242575b500162000215565b601f9081811184146200025c5750508781555b386200023a565b836200027792848c52898c20920160051c82019101620002fd565b878681208183555562000255565b634e487b7160e01b600052604160045260246000fd5b600080fd5b60408051919082016001600160401b038111838210176200028557604052565b90600182811c92168015620002f2575b6020831014620002dc57565b634e487b7160e01b600052602260045260246000fd5b91607f1691620002d0565b81811062000309575050565b60008155600101620002fd56fe608060408181526004918236101561001657600080fd5b600092833560e01c918263029c21bd14610939575081630983f1851461091b5781631812dab4146108fc57816324d7806c146108c55781632d23c735146105425781632e6997fe1461043e57816353ac5dc31461037c5781636394a8fa146103245781637c054c54146103055781638287e42f146102925781638ab66a9014610229578163b0a4ec42146101e9578163b13c744b146100ea575063fc6f9468146100bf57600080fd5b346100e657816003193601126100e65760015490516001600160a01b039091168152602090f35b5080fd5b839150346100e65760203660031901126100e6578035916006548310156101e657600690521b906101e261013f837ff652222313e28459528d920b65115c16c04f3efc82aaedc97be59f3f377c0d3f01610cb1565b9180519361017a85610173817ff652222313e28459528d920b65115c16c04f3efc82aaedc97be59f3f377c0d4b8501610c1b565b03866109a4565b7ff652222313e28459528d920b65115c16c04f3efc82aaedc97be59f3f377c0d4d8251916101d5836101ce817ff652222313e28459528d920b65115c16c04f3efc82aaedc97be59f3f377c0d4c8501610c1b565b03846109a4565b0154915194859485610dc6565b0390f35b80fd5b8390346100e65760203660031901126100e657803567ffffffffffffffff8111610225576102229161021d913691016109c6565b611163565b80f35b8280fd5b90503461022557602036600319011261022557356001600160a01b03811690819003610225579181928152600560205220906101e261026783610cb1565b9180519361027c8561017381600c8501610c1b565b600e8251916101d5836101ce81600d8501610c1b565b905034610225576020366003190112610225573560075481101561022557906102f36102ec9260076101e295528251938480927fa66cc928b5edb82af9bd49922954155ab7b0942694bea4ce44661d9a8736c68801610c1b565b03836109a4565b51918291602083526020830190610a22565b5050346100e657816003193601126100e6576020906003549051908152f35b9050346102255760203660031901126102255735825481101561022557906102f36102ec92846101e295528251938480927f290decd9548b62a8d60345a988386fc84ba6bc95484008f6362f93160ef3e56301610c1b565b905082346101e657602091826003193601126100e657356001600160a01b038116908190036100e657836101e29261042e9282516103b981610988565b60808451916103c783610955565b848352606092838a8201528587820152858482015283838201528360a08201528360c08201528360e08201528361010082015283610120820152836101408201528361016082015281528289820152828682015284838201520152815260058552206110a7565b9251928284938452830190610b50565b839150346100e657816003193601126100e6576006549067ffffffffffffffff821161052f575082519160209261047a848460051b01826109a4565b8281526006825283810192827ff652222313e28459528d920b65115c16c04f3efc82aaedc97be59f3f377c0d3f855b83831061050a57505050508451938085019181865251809252858501958260051b8601019392955b8287106104de5785850386f35b9091929382806104fa600193603f198a82030186528851610b50565b96019201960195929190926104d1565b60108860019261051d859b98999b6110a7565b815201920192019190969493966104a9565b634e487b7160e01b835260419052602482fd5b9050826101a03660031901126101e65767ffffffffffffffff9282358481116102255761057290369085016109c6565b926064358581116108c15761058a90369083016109c6565b936084358681116108bd576105a290369084016109c6565b9460a4358781116108b9576105ba90369085016109c6565b60c4358881116108b5576105d190369086016109c6565b9060e4358981116108b1576105e990369087016109c6565b91610104358a81116108ad5761060290369088016109c6565b610124358b81116108a95761061a90369089016109c6565b90610144358c81116108a5576106339036908a016109c6565b92610164358d81116108a15761064c9036908b016109c6565b94610184359d8e116108a15760028b8d9e9f8c61066b913691016109c6565b9d338152600560205220015461085e578b9c9d61068b8c9d9c9b9c611163565b60a08b519e8f9061069b82610955565b3382528c602083015260249d8e359083015260443560608301526080820152015260c08d015260e08c01526101008b01526101208a01526101408901526101608801528551966106ea88610988565b875260208701528486015285606086015260606080860152338652600560205261071685858820610f21565b60075490600160401b918281101561084c57600181018060075581101561083a579061076791600789527fa66cc928b5edb82af9bd49922954155ab7b0942694bea4ce44661d9a8736c68801610e1c565b6006549081101561082857600181018060065581101561081657846107b39160068852841b7ff652222313e28459528d920b65115c16c04f3efc82aaedc97be59f3f377c0d3f01610f21565b600854916001830180931161080557857faa865f867abaa68b8cba3e6df5b4cc018184c6e7fff1d03843d27c69a973e3b06107ff87878760085551918291602083526020830190610b50565b0390a180f35b634e487b7160e01b86526011905284fd5b50634e487b7160e01b85526032825284fd5b50634e487b7160e01b85526041825284fd5b634e487b7160e01b8852603285528388fd5b634e487b7160e01b8852604185528388fd5b8a5162461bcd60e51b81526020818c0152601e60248201527f43616e64696461746520616c72656164792072656769737465726564202100006044820152606490fd5b8b80fd5b8a80fd5b8980fd5b8880fd5b8780fd5b8680fd5b8580fd5b8480fd5b8380fd5b90503461022557602036600319011261022557356001600160a01b03818116918290036108c1576020935060015416149051908152f35b5050346100e657816003193601126100e6576020906008549051908152f35b90503461022557826003193601126102255760209250549051908152f35b8490346100e657816003193601126100e6576020906002548152f35b610180810190811067ffffffffffffffff82111761097257604052565b634e487b7160e01b600052604160045260246000fd5b60a0810190811067ffffffffffffffff82111761097257604052565b90601f8019910116810190811067ffffffffffffffff82111761097257604052565b81601f82011215610a1d5780359067ffffffffffffffff821161097257604051926109fb601f8401601f1916602001856109a4565b82845260208383010111610a1d57816000926020809301838601378301015290565b600080fd5b919082519283825260005b848110610a4e575050826000602080949584010152601f8019910116010190565b602081830181015184830182015201610a2d565b90610b4d9160018060a01b038151168252610b39610b25610b11610afd610aeb610ad9610ac7610aa160208901516101808060208d01528b0190610a22565b604089015160408b0152606089015160608b015260808901518a820360808c0152610a22565b60a088015189820360a08b0152610a22565b60c087015188820360c08a0152610a22565b60e086015187820360e0890152610a22565b610100808601519087830390880152610a22565b610120808501519086830390870152610a22565b610140808401519085830390860152610a22565b916101608092015191818403910152610a22565b90565b610b63815160a0845260a0840190610a62565b906080610b91610b7f6020948585015187820387890152610a22565b60408401518682036040880152610a22565b9160608101516060860152015192608081830391015281808451928381520193019160005b828110610bc4575050505090565b83516001600160a01b031685529381019392810192600101610bb6565b90600182811c92168015610c11575b6020831014610bfb57565b634e487b7160e01b600052602260045260246000fd5b91607f1691610bf0565b9060009291805491610c2c83610be1565b918282526001938481169081600014610c8e5750600114610c4e575b50505050565b90919394506000526020928360002092846000945b838610610c7a575050505001019038808080610c48565b805485870183015294019385908201610c63565b9294505050602093945060ff191683830152151560051b01019038808080610c48565b90600b610160604093610dc2855191610cc983610955565b6101ce839760018060a01b0383541685528051610cf481610ced8160018801610c1b565b03826109a4565b6020860152600283015481860152600383015460608601528051610d1f81610ced8160048801610c1b565b60808601528051610d3781610ced8160058801610c1b565b60a08601528051610d4f81610ced8160068801610c1b565b60c08601528051610d6781610ced8160078801610c1b565b60e08601528051610d7f81610ced8160088801610c1b565b6101008601528051610d9881610ced8160098801610c1b565b6101208601528051610db181610ced81600a8801610c1b565b610140860152518096819301610c1b565b0152565b949392610df2606093610de4610e009460808a5260808a0190610a62565b9088820360208a0152610a22565b908682036040880152610a22565b930152565b818110610e10575050565b60008155600101610e05565b919091825167ffffffffffffffff811161097257610e3a8254610be1565b601f8111610ee4575b50602080601f8311600114610e80575081929394600092610e75575b50508160011b916000199060031b1c1916179055565b015190503880610e5f565b90601f198316958460005282600020926000905b888210610ecc57505083600195969710610eb3575b505050811b019055565b015160001960f88460031b161c19169055388080610ea9565b80600185968294968601518155019501930190610e94565b610f1190836000526020600020601f840160051c81019160208510610f17575b601f0160051c0190610e05565b38610e43565b9091508190610f04565b81519160018060a01b03808451166bffffffffffffffffffffffff60a01b8454161783556080600f602094610ffd6101608789015198610f6560019a8b8601610e1c565b6040810151600285015560608101516003850155610f898682015160048601610e1c565b610f9a60a082015160058601610e1c565b610fab60c082015160068601610e1c565b610fbc60e082015160078601610e1c565b610fce61010082015160088601610e1c565b610fe061012082015160098601610e1c565b610ff2610140820151600a8601610e1c565b0151600b8301610e1c565b61100d86860151600c8301610e1c565b61101e6040860151600d8301610e1c565b6060850151600e820155019201519283519367ffffffffffffffff851161097257600160401b8511610972578190845486865580871061108a575b500192600052806000209160005b8581106110775750505050505050565b8451821684820155938201938601611067565b6110a1908660005287846000209182019101610e05565b38611059565b90604051916110b583610988565b826110bf82610cb1565b8152600f604051926110df846110d881600c8501610c1b565b03856109a4565b602093848401526040516110fa81610ced81600d8601610c1b565b6040840152600e810154606084015201906040518093849181855491828152019460005281600020916000905b8282106111405750505050610dc29060809303846109a4565b83546001600160a01b031687529586019587945060019384019390910190611127565b8051906020918282019081209060009283549283156114c1579085929185805260405186907f290decd9548b62a8d60345a988386fc84ba6bc95484008f6362f93160ef3e563818154936111b685610be1565b928383528983019560019d8e821691826000146114a3575050600114611448575b506111e4925003826109a4565b5190200361121757505050506002549182018092116112035750600255565b634e487b7160e01b81526011600452602490fd5b8051822084871015611434578580528660405187817f290decd9548b62a8d60345a988386fc84ba6bc95484008f6362f93160ef3e5649182549261125a84610be1565b938484528a80850197821691826000146114165750506001146113bb575b50611285925003826109a4565b519020036112a457505050506003549182018092116112035750600355565b51902091600210156113a7578280526040518391817f290decd9548b62a8d60345a988386fc84ba6bc95484008f6362f93160ef3e565938454946112e786610be1565b90818452848401968a811690816000146113895750600114611331575b5050611312925003826109a4565b5190201461131e575050565b6004549182018092116112035750600455565b8852879150887f63d75db57ae45c3799740c3cd8dcee96a498324843d79ae390adc81d74b52f135b8284106113725750505091611312928201013880611304565b8054878501870152869450928501928a9101611359565b91505061131294925060ff19168652151560051b8201013880611304565b634e487b7160e01b83526032600452602483fd5b8b5250829050878a8c7f6c13d8c1c5df666ea9ca2a428504a3776c8ca01021c3a1524ca7d765f600979a5b8583106113fd575050611285935082010138611278565b80919294505483858801015201910188908c85936113e6565b60ff1916885261128595151560051b85010192503891506112789050565b634e487b7160e01b86526032600452602486fd5b8b5250829050878a8c7f510e4e770828ddbf7f7b00ab00a9f6adaf81c0dc9cc85f1f8249c256942d61d95b85831061148a5750506111e49350820101386111d7565b80919294505483858801015201910188908c8593611473565b60ff191688526111e495151560051b85010192503891506111d79050565b634e487b7160e01b85526032600452602485fdfea264697066735822122095efa163dea68bcf6e3c92e3a25724e14974558061750c0fc9cff44341318df864736f6c63430008110033",
					"opcodes": "PUSH1 0x80 CALLVALUE PUSH3 0x29B JUMPI PUSH1 0x1 PUSH1 0x1 PUSH1 0x40 SHL SUB PUSH1 0x60 DUP3 ADD DUP2 DUP2 GT DUP4 DUP3 LT OR PUSH3 0x285 JUMPI PUSH1 0x40 MSTORE PUSH3 0x2C PUSH3 0x2A0 JUMP JUMPDEST PUSH1 0x4 SWAP1 DUP2 DUP2 MSTORE PUSH1 0x20 SWAP1 PUSH4 0x4D414C45 PUSH1 0xE0 SHL DUP3 DUP3 ADD MSTORE DUP5 MSTORE PUSH3 0x4D PUSH3 0x2A0 JUMP JUMPDEST PUSH1 0x6 DUP2 MSTORE PUSH6 0x46454D414C45 PUSH1 0xD0 SHL DUP3 DUP3 ADD MSTORE DUP2 DUP6 ADD MSTORE PUSH3 0x6D PUSH3 0x2A0 JUMP JUMPDEST PUSH1 0x6 DUP2 MSTORE PUSH6 0x4F5448455253 PUSH1 0xD0 SHL DUP3 DUP3 ADD MSTORE PUSH1 0x40 DUP6 ADD MSTORE PUSH1 0x0 SWAP3 DUP4 SLOAD SWAP5 PUSH1 0x3 SWAP6 DUP7 DUP7 SSTORE DUP1 DUP8 LT PUSH3 0x208 JUMPI JUMPDEST POP DUP5 DUP1 MSTORE DUP3 DUP6 KECCAK256 DUP6 SWAP2 JUMPDEST DUP8 DUP4 LT PUSH3 0xDD JUMPI PUSH1 0x2 DUP8 SWAP1 SSTORE DUP7 DUP9 SSTORE DUP7 DUP7 SSTORE PUSH1 0x1 DUP1 SLOAD PUSH1 0x1 PUSH1 0x1 PUSH1 0xA0 SHL SUB NOT AND CALLER OR SWAP1 SSTORE PUSH1 0x8 DUP8 SWAP1 SSTORE PUSH1 0x40 MLOAD PUSH2 0x150B SWAP1 DUP2 PUSH3 0x317 DUP3 CODECOPY RETURN JUMPDEST DUP1 MLOAD DUP1 MLOAD SWAP1 DUP6 DUP3 GT PUSH3 0x1F5 JUMPI SWAP1 DUP7 SWAP2 PUSH3 0xF9 DUP6 SLOAD PUSH3 0x2C0 JUMP JUMPDEST SWAP1 PUSH1 0x1F SWAP2 DUP3 DUP2 GT PUSH3 0x1BA JUMPI JUMPDEST POP DUP4 SWAP2 DUP4 GT PUSH1 0x1 EQ PUSH3 0x14F JUMPI SWAP2 DUP1 PUSH1 0x1 SWAP6 SWAP3 DUP7 SWAP6 SWAP5 DUP14 SWAP3 PUSH3 0x143 JUMPI JUMPDEST POP POP PUSH1 0x0 NOT DUP3 DUP15 SHL SHR NOT AND SWAP1 DUP5 SHL OR DUP6 SSTORE JUMPDEST ADD SWAP3 ADD SWAP3 ADD SWAP2 SWAP1 PUSH3 0xA3 JUMP JUMPDEST ADD MLOAD SWAP1 POP CODESIZE DUP1 PUSH3 0x124 JUMP JUMPDEST DUP6 DUP12 MSTORE DUP4 DUP12 KECCAK256 SWAP2 SWAP1 PUSH1 0x1F NOT DUP5 AND DUP13 JUMPDEST DUP2 DUP2 LT PUSH3 0x1A1 JUMPI POP SWAP2 PUSH1 0x1 SWAP7 SWAP4 SWAP2 DUP6 DUP9 SWAP8 SWAP7 SWAP5 LT PUSH3 0x188 JUMPI JUMPDEST POP POP POP DUP4 SHL DUP4 ADD DUP6 SSTORE PUSH3 0x136 JUMP JUMPDEST ADD MLOAD PUSH1 0x0 NOT DUP4 DUP16 SHL PUSH1 0xF8 AND SHR NOT AND SWAP1 SSTORE CODESIZE DUP1 DUP1 PUSH3 0x179 JUMP JUMPDEST DUP3 DUP5 ADD MLOAD DUP6 SSTORE DUP12 SWAP7 PUSH1 0x1 SWAP1 SWAP6 ADD SWAP5 SWAP4 DUP5 ADD SWAP4 ADD PUSH3 0x15E JUMP JUMPDEST PUSH3 0x1E4 SWAP1 DUP8 DUP14 MSTORE DUP6 DUP14 KECCAK256 PUSH1 0x5 DUP6 DUP1 DUP9 ADD DUP3 SHR DUP4 ADD SWAP4 DUP10 DUP10 LT PUSH3 0x1EB JUMPI JUMPDEST ADD SWAP1 SHR ADD SWAP1 PUSH3 0x2FD JUMP JUMPDEST CODESIZE PUSH3 0x106 JUMP JUMPDEST SWAP4 POP DUP3 SWAP4 PUSH3 0x1D9 JUMP JUMPDEST PUSH4 0x4E487B71 PUSH1 0xE0 SHL DUP10 MSTORE PUSH1 0x41 DUP9 MSTORE PUSH1 0x24 DUP10 REVERT JUMPDEST DUP6 DUP1 MSTORE DUP7 DUP5 DUP8 KECCAK256 SWAP2 DUP3 ADD SWAP2 ADD JUMPDEST DUP2 DUP2 LT PUSH3 0x224 JUMPI POP PUSH3 0x99 JUMP JUMPDEST DUP1 PUSH3 0x233 PUSH1 0x1 SWAP3 SLOAD PUSH3 0x2C0 JUMP JUMPDEST DUP1 PUSH3 0x242 JUMPI JUMPDEST POP ADD PUSH3 0x215 JUMP JUMPDEST PUSH1 0x1F SWAP1 DUP2 DUP2 GT DUP5 EQ PUSH3 0x25C JUMPI POP POP DUP8 DUP2 SSTORE JUMPDEST CODESIZE PUSH3 0x23A JUMP JUMPDEST DUP4 PUSH3 0x277 SWAP3 DUP5 DUP13 MSTORE DUP10 DUP13 KECCAK256 SWAP3 ADD PUSH1 0x5 SHR DUP3 ADD SWAP2 ADD PUSH3 0x2FD JUMP JUMPDEST DUP8 DUP7 DUP2 KECCAK256 DUP2 DUP4 SSTORE SSTORE PUSH3 0x255 JUMP JUMPDEST PUSH4 0x4E487B71 PUSH1 0xE0 SHL PUSH1 0x0 MSTORE PUSH1 0x41 PUSH1 0x4 MSTORE PUSH1 0x24 PUSH1 0x0 REVERT JUMPDEST PUSH1 0x0 DUP1 REVERT JUMPDEST PUSH1 0x40 DUP1 MLOAD SWAP2 SWAP1 DUP3 ADD PUSH1 0x1 PUSH1 0x1 PUSH1 0x40 SHL SUB DUP2 GT DUP4 DUP3 LT OR PUSH3 0x285 JUMPI PUSH1 0x40 MSTORE JUMP JUMPDEST SWAP1 PUSH1 0x1 DUP3 DUP2 SHR SWAP3 AND DUP1 ISZERO PUSH3 0x2F2 JUMPI JUMPDEST PUSH1 0x20 DUP4 LT EQ PUSH3 0x2DC JUMPI JUMP JUMPDEST PUSH4 0x4E487B71 PUSH1 0xE0 SHL PUSH1 0x0 MSTORE PUSH1 0x22 PUSH1 0x4 MSTORE PUSH1 0x24 PUSH1 0x0 REVERT JUMPDEST SWAP2 PUSH1 0x7F AND SWAP2 PUSH3 0x2D0 JUMP JUMPDEST DUP2 DUP2 LT PUSH3 0x309 JUMPI POP POP JUMP JUMPDEST PUSH1 0x0 DUP2 SSTORE PUSH1 0x1 ADD PUSH3 0x2FD JUMP INVALID PUSH1 0x80 PUSH1 0x40 DUP2 DUP2 MSTORE PUSH1 0x4 SWAP2 DUP3 CALLDATASIZE LT ISZERO PUSH2 0x16 JUMPI PUSH1 0x0 DUP1 REVERT JUMPDEST PUSH1 0x0 SWAP3 DUP4 CALLDATALOAD PUSH1 0xE0 SHR SWAP2 DUP3 PUSH4 0x29C21BD EQ PUSH2 0x939 JUMPI POP DUP2 PUSH4 0x983F185 EQ PUSH2 0x91B JUMPI DUP2 PUSH4 0x1812DAB4 EQ PUSH2 0x8FC JUMPI DUP2 PUSH4 0x24D7806C EQ PUSH2 0x8C5 JUMPI DUP2 PUSH4 0x2D23C735 EQ PUSH2 0x542 JUMPI DUP2 PUSH4 0x2E6997FE EQ PUSH2 0x43E JUMPI DUP2 PUSH4 0x53AC5DC3 EQ PUSH2 0x37C JUMPI DUP2 PUSH4 0x6394A8FA EQ PUSH2 0x324 JUMPI DUP2 PUSH4 0x7C054C54 EQ PUSH2 0x305 JUMPI DUP2 PUSH4 0x8287E42F EQ PUSH2 0x292 JUMPI DUP2 PUSH4 0x8AB66A90 EQ PUSH2 0x229 JUMPI DUP2 PUSH4 0xB0A4EC42 EQ PUSH2 0x1E9 JUMPI DUP2 PUSH4 0xB13C744B EQ PUSH2 0xEA JUMPI POP PUSH4 0xFC6F9468 EQ PUSH2 0xBF JUMPI PUSH1 0x0 DUP1 REVERT JUMPDEST CALLVALUE PUSH2 0xE6 JUMPI DUP2 PUSH1 0x3 NOT CALLDATASIZE ADD SLT PUSH2 0xE6 JUMPI PUSH1 0x1 SLOAD SWAP1 MLOAD PUSH1 0x1 PUSH1 0x1 PUSH1 0xA0 SHL SUB SWAP1 SWAP2 AND DUP2 MSTORE PUSH1 0x20 SWAP1 RETURN JUMPDEST POP DUP1 REVERT JUMPDEST DUP4 SWAP2 POP CALLVALUE PUSH2 0xE6 JUMPI PUSH1 0x20 CALLDATASIZE PUSH1 0x3 NOT ADD SLT PUSH2 0xE6 JUMPI DUP1 CALLDATALOAD SWAP2 PUSH1 0x6 SLOAD DUP4 LT ISZERO PUSH2 0x1E6 JUMPI PUSH1 0x6 SWAP1 MSTORE SHL SWAP1 PUSH2 0x1E2 PUSH2 0x13F DUP4 PUSH32 0xF652222313E28459528D920B65115C16C04F3EFC82AAEDC97BE59F3F377C0D3F ADD PUSH2 0xCB1 JUMP JUMPDEST SWAP2 DUP1 MLOAD SWAP4 PUSH2 0x17A DUP6 PUSH2 0x173 DUP2 PUSH32 0xF652222313E28459528D920B65115C16C04F3EFC82AAEDC97BE59F3F377C0D4B DUP6 ADD PUSH2 0xC1B JUMP JUMPDEST SUB DUP7 PUSH2 0x9A4 JUMP JUMPDEST PUSH32 0xF652222313E28459528D920B65115C16C04F3EFC82AAEDC97BE59F3F377C0D4D DUP3 MLOAD SWAP2 PUSH2 0x1D5 DUP4 PUSH2 0x1CE DUP2 PUSH32 0xF652222313E28459528D920B65115C16C04F3EFC82AAEDC97BE59F3F377C0D4C DUP6 ADD PUSH2 0xC1B JUMP JUMPDEST SUB DUP5 PUSH2 0x9A4 JUMP JUMPDEST ADD SLOAD SWAP2 MLOAD SWAP5 DUP6 SWAP5 DUP6 PUSH2 0xDC6 JUMP JUMPDEST SUB SWAP1 RETURN JUMPDEST DUP1 REVERT JUMPDEST DUP4 SWAP1 CALLVALUE PUSH2 0xE6 JUMPI PUSH1 0x20 CALLDATASIZE PUSH1 0x3 NOT ADD SLT PUSH2 0xE6 JUMPI DUP1 CALLDATALOAD PUSH8 0xFFFFFFFFFFFFFFFF DUP2 GT PUSH2 0x225 JUMPI PUSH2 0x222 SWAP2 PUSH2 0x21D SWAP2 CALLDATASIZE SWAP2 ADD PUSH2 0x9C6 JUMP JUMPDEST PUSH2 0x1163 JUMP JUMPDEST DUP1 RETURN JUMPDEST DUP3 DUP1 REVERT JUMPDEST SWAP1 POP CALLVALUE PUSH2 0x225 JUMPI PUSH1 0x20 CALLDATASIZE PUSH1 0x3 NOT ADD SLT PUSH2 0x225 JUMPI CALLDATALOAD PUSH1 0x1 PUSH1 0x1 PUSH1 0xA0 SHL SUB DUP2 AND SWAP1 DUP2 SWAP1 SUB PUSH2 0x225 JUMPI SWAP2 DUP2 SWAP3 DUP2 MSTORE PUSH1 0x5 PUSH1 0x20 MSTORE KECCAK256 SWAP1 PUSH2 0x1E2 PUSH2 0x267 DUP4 PUSH2 0xCB1 JUMP JUMPDEST SWAP2 DUP1 MLOAD SWAP4 PUSH2 0x27C DUP6 PUSH2 0x173 DUP2 PUSH1 0xC DUP6 ADD PUSH2 0xC1B JUMP JUMPDEST PUSH1 0xE DUP3 MLOAD SWAP2 PUSH2 0x1D5 DUP4 PUSH2 0x1CE DUP2 PUSH1 0xD DUP6 ADD PUSH2 0xC1B JUMP JUMPDEST SWAP1 POP CALLVALUE PUSH2 0x225 JUMPI PUSH1 0x20 CALLDATASIZE PUSH1 0x3 NOT ADD SLT PUSH2 0x225 JUMPI CALLDATALOAD PUSH1 0x7 SLOAD DUP2 LT ISZERO PUSH2 0x225 JUMPI SWAP1 PUSH2 0x2F3 PUSH2 0x2EC SWAP3 PUSH1 0x7 PUSH2 0x1E2 SWAP6 MSTORE DUP3 MLOAD SWAP4 DUP5 DUP1 SWAP3 PUSH32 0xA66CC928B5EDB82AF9BD49922954155AB7B0942694BEA4CE44661D9A8736C688 ADD PUSH2 0xC1B JUMP JUMPDEST SUB DUP4 PUSH2 0x9A4 JUMP JUMPDEST MLOAD SWAP2 DUP3 SWAP2 PUSH1 0x20 DUP4 MSTORE PUSH1 0x20 DUP4 ADD SWAP1 PUSH2 0xA22 JUMP JUMPDEST POP POP CALLVALUE PUSH2 0xE6 JUMPI DUP2 PUSH1 0x3 NOT CALLDATASIZE ADD SLT PUSH2 0xE6 JUMPI PUSH1 0x20 SWAP1 PUSH1 0x3 SLOAD SWAP1 MLOAD SWAP1 DUP2 MSTORE RETURN JUMPDEST SWAP1 POP CALLVALUE PUSH2 0x225 JUMPI PUSH1 0x20 CALLDATASIZE PUSH1 0x3 NOT ADD SLT PUSH2 0x225 JUMPI CALLDATALOAD DUP3 SLOAD DUP2 LT ISZERO PUSH2 0x225 JUMPI SWAP1 PUSH2 0x2F3 PUSH2 0x2EC SWAP3 DUP5 PUSH2 0x1E2 SWAP6 MSTORE DUP3 MLOAD SWAP4 DUP5 DUP1 SWAP3 PUSH32 0x290DECD9548B62A8D60345A988386FC84BA6BC95484008F6362F93160EF3E563 ADD PUSH2 0xC1B JUMP JUMPDEST SWAP1 POP DUP3 CALLVALUE PUSH2 0x1E6 JUMPI PUSH1 0x20 SWAP2 DUP3 PUSH1 0x3 NOT CALLDATASIZE ADD SLT PUSH2 0xE6 JUMPI CALLDATALOAD PUSH1 0x1 PUSH1 0x1 PUSH1 0xA0 SHL SUB DUP2 AND SWAP1 DUP2 SWAP1 SUB PUSH2 0xE6 JUMPI DUP4 PUSH2 0x1E2 SWAP3 PUSH2 0x42E SWAP3 DUP3 MLOAD PUSH2 0x3B9 DUP2 PUSH2 0x988 JUMP JUMPDEST PUSH1 0x80 DUP5 MLOAD SWAP2 PUSH2 0x3C7 DUP4 PUSH2 0x955 JUMP JUMPDEST DUP5 DUP4 MSTORE PUSH1 0x60 SWAP3 DUP4 DUP11 DUP3 ADD MSTORE DUP6 DUP8 DUP3 ADD MSTORE DUP6 DUP5 DUP3 ADD MSTORE DUP4 DUP4 DUP3 ADD MSTORE DUP4 PUSH1 0xA0 DUP3 ADD MSTORE DUP4 PUSH1 0xC0 DUP3 ADD MSTORE DUP4 PUSH1 0xE0 DUP3 ADD MSTORE DUP4 PUSH2 0x100 DUP3 ADD MSTORE DUP4 PUSH2 0x120 DUP3 ADD MSTORE DUP4 PUSH2 0x140 DUP3 ADD MSTORE DUP4 PUSH2 0x160 DUP3 ADD MSTORE DUP2 MSTORE DUP3 DUP10 DUP3 ADD MSTORE DUP3 DUP7 DUP3 ADD MSTORE DUP5 DUP4 DUP3 ADD MSTORE ADD MSTORE DUP2 MSTORE PUSH1 0x5 DUP6 MSTORE KECCAK256 PUSH2 0x10A7 JUMP JUMPDEST SWAP3 MLOAD SWAP3 DUP3 DUP5 SWAP4 DUP5 MSTORE DUP4 ADD SWAP1 PUSH2 0xB50 JUMP JUMPDEST DUP4 SWAP2 POP CALLVALUE PUSH2 0xE6 JUMPI DUP2 PUSH1 0x3 NOT CALLDATASIZE ADD SLT PUSH2 0xE6 JUMPI PUSH1 0x6 SLOAD SWAP1 PUSH8 0xFFFFFFFFFFFFFFFF DUP3 GT PUSH2 0x52F JUMPI POP DUP3 MLOAD SWAP2 PUSH1 0x20 SWAP3 PUSH2 0x47A DUP5 DUP5 PUSH1 0x5 SHL ADD DUP3 PUSH2 0x9A4 JUMP JUMPDEST DUP3 DUP2 MSTORE PUSH1 0x6 DUP3 MSTORE DUP4 DUP2 ADD SWAP3 DUP3 PUSH32 0xF652222313E28459528D920B65115C16C04F3EFC82AAEDC97BE59F3F377C0D3F DUP6 JUMPDEST DUP4 DUP4 LT PUSH2 0x50A JUMPI POP POP POP POP DUP5 MLOAD SWAP4 DUP1 DUP6 ADD SWAP2 DUP2 DUP7 MSTORE MLOAD DUP1 SWAP3 MSTORE DUP6 DUP6 ADD SWAP6 DUP3 PUSH1 0x5 SHL DUP7 ADD ADD SWAP4 SWAP3 SWAP6 JUMPDEST DUP3 DUP8 LT PUSH2 0x4DE JUMPI DUP6 DUP6 SUB DUP7 RETURN JUMPDEST SWAP1 SWAP2 SWAP3 SWAP4 DUP3 DUP1 PUSH2 0x4FA PUSH1 0x1 SWAP4 PUSH1 0x3F NOT DUP11 DUP3 SUB ADD DUP7 MSTORE DUP9 MLOAD PUSH2 0xB50 JUMP JUMPDEST SWAP7 ADD SWAP3 ADD SWAP7 ADD SWAP6 SWAP3 SWAP2 SWAP1 SWAP3 PUSH2 0x4D1 JUMP JUMPDEST PUSH1 0x10 DUP9 PUSH1 0x1 SWAP3 PUSH2 0x51D DUP6 SWAP12 SWAP9 SWAP10 SWAP12 PUSH2 0x10A7 JUMP JUMPDEST DUP2 MSTORE ADD SWAP3 ADD SWAP3 ADD SWAP2 SWAP1 SWAP7 SWAP5 SWAP4 SWAP7 PUSH2 0x4A9 JUMP JUMPDEST PUSH4 0x4E487B71 PUSH1 0xE0 SHL DUP4 MSTORE PUSH1 0x41 SWAP1 MSTORE PUSH1 0x24 DUP3 REVERT JUMPDEST SWAP1 POP DUP3 PUSH2 0x1A0 CALLDATASIZE PUSH1 0x3 NOT ADD SLT PUSH2 0x1E6 JUMPI PUSH8 0xFFFFFFFFFFFFFFFF SWAP3 DUP3 CALLDATALOAD DUP5 DUP2 GT PUSH2 0x225 JUMPI PUSH2 0x572 SWAP1 CALLDATASIZE SWAP1 DUP6 ADD PUSH2 0x9C6 JUMP JUMPDEST SWAP3 PUSH1 0x64 CALLDATALOAD DUP6 DUP2 GT PUSH2 0x8C1 JUMPI PUSH2 0x58A SWAP1 CALLDATASIZE SWAP1 DUP4 ADD PUSH2 0x9C6 JUMP JUMPDEST SWAP4 PUSH1 0x84 CALLDATALOAD DUP7 DUP2 GT PUSH2 0x8BD JUMPI PUSH2 0x5A2 SWAP1 CALLDATASIZE SWAP1 DUP5 ADD PUSH2 0x9C6 JUMP JUMPDEST SWAP5 PUSH1 0xA4 CALLDATALOAD DUP8 DUP2 GT PUSH2 0x8B9 JUMPI PUSH2 0x5BA SWAP1 CALLDATASIZE SWAP1 DUP6 ADD PUSH2 0x9C6 JUMP JUMPDEST PUSH1 0xC4 CALLDATALOAD DUP9 DUP2 GT PUSH2 0x8B5 JUMPI PUSH2 0x5D1 SWAP1 CALLDATASIZE SWAP1 DUP7 ADD PUSH2 0x9C6 JUMP JUMPDEST SWAP1 PUSH1 0xE4 CALLDATALOAD DUP10 DUP2 GT PUSH2 0x8B1 JUMPI PUSH2 0x5E9 SWAP1 CALLDATASIZE SWAP1 DUP8 ADD PUSH2 0x9C6 JUMP JUMPDEST SWAP2 PUSH2 0x104 CALLDATALOAD DUP11 DUP2 GT PUSH2 0x8AD JUMPI PUSH2 0x602 SWAP1 CALLDATASIZE SWAP1 DUP9 ADD PUSH2 0x9C6 JUMP JUMPDEST PUSH2 0x124 CALLDATALOAD DUP12 DUP2 GT PUSH2 0x8A9 JUMPI PUSH2 0x61A SWAP1 CALLDATASIZE SWAP1 DUP10 ADD PUSH2 0x9C6 JUMP JUMPDEST SWAP1 PUSH2 0x144 CALLDATALOAD DUP13 DUP2 GT PUSH2 0x8A5 JUMPI PUSH2 0x633 SWAP1 CALLDATASIZE SWAP1 DUP11 ADD PUSH2 0x9C6 JUMP JUMPDEST SWAP3 PUSH2 0x164 CALLDATALOAD DUP14 DUP2 GT PUSH2 0x8A1 JUMPI PUSH2 0x64C SWAP1 CALLDATASIZE SWAP1 DUP12 ADD PUSH2 0x9C6 JUMP JUMPDEST SWAP5 PUSH2 0x184 CALLDATALOAD SWAP14 DUP15 GT PUSH2 0x8A1 JUMPI PUSH1 0x2 DUP12 DUP14 SWAP15 SWAP16 DUP13 PUSH2 0x66B SWAP2 CALLDATASIZE SWAP2 ADD PUSH2 0x9C6 JUMP JUMPDEST SWAP14 CALLER DUP2 MSTORE PUSH1 0x5 PUSH1 0x20 MSTORE KECCAK256 ADD SLOAD PUSH2 0x85E JUMPI DUP12 SWAP13 SWAP14 PUSH2 0x68B DUP13 SWAP14 SWAP13 SWAP12 SWAP13 PUSH2 0x1163 JUMP JUMPDEST PUSH1 0xA0 DUP12 MLOAD SWAP15 DUP16 SWAP1 PUSH2 0x69B DUP3 PUSH2 0x955 JUMP JUMPDEST CALLER DUP3 MSTORE DUP13 PUSH1 0x20 DUP4 ADD MSTORE PUSH1 0x24 SWAP14 DUP15 CALLDATALOAD SWAP1 DUP4 ADD MSTORE PUSH1 0x44 CALLDATALOAD PUSH1 0x60 DUP4 ADD MSTORE PUSH1 0x80 DUP3 ADD MSTORE ADD MSTORE PUSH1 0xC0 DUP14 ADD MSTORE PUSH1 0xE0 DUP13 ADD MSTORE PUSH2 0x100 DUP12 ADD MSTORE PUSH2 0x120 DUP11 ADD MSTORE PUSH2 0x140 DUP10 ADD MSTORE PUSH2 0x160 DUP9 ADD MSTORE DUP6 MLOAD SWAP7 PUSH2 0x6EA DUP9 PUSH2 0x988 JUMP JUMPDEST DUP8 MSTORE PUSH1 0x20 DUP8 ADD MSTORE DUP5 DUP7 ADD MSTORE DUP6 PUSH1 0x60 DUP7 ADD MSTORE PUSH1 0x60 PUSH1 0x80 DUP7 ADD MSTORE CALLER DUP7 MSTORE PUSH1 0x5 PUSH1 0x20 MSTORE PUSH2 0x716 DUP6 DUP6 DUP9 KECCAK256 PUSH2 0xF21 JUMP JUMPDEST PUSH1 0x7 SLOAD SWAP1 PUSH1 0x1 PUSH1 0x40 SHL SWAP2 DUP3 DUP2 LT ISZERO PUSH2 0x84C JUMPI PUSH1 0x1 DUP2 ADD DUP1 PUSH1 0x7 SSTORE DUP2 LT ISZERO PUSH2 0x83A JUMPI SWAP1 PUSH2 0x767 SWAP2 PUSH1 0x7 DUP10 MSTORE PUSH32 0xA66CC928B5EDB82AF9BD49922954155AB7B0942694BEA4CE44661D9A8736C688 ADD PUSH2 0xE1C JUMP JUMPDEST PUSH1 0x6 SLOAD SWAP1 DUP2 LT ISZERO PUSH2 0x828 JUMPI PUSH1 0x1 DUP2 ADD DUP1 PUSH1 0x6 SSTORE DUP2 LT ISZERO PUSH2 0x816 JUMPI DUP5 PUSH2 0x7B3 SWAP2 PUSH1 0x6 DUP9 MSTORE DUP5 SHL PUSH32 0xF652222313E28459528D920B65115C16C04F3EFC82AAEDC97BE59F3F377C0D3F ADD PUSH2 0xF21 JUMP JUMPDEST PUSH1 0x8 SLOAD SWAP2 PUSH1 0x1 DUP4 ADD DUP1 SWAP4 GT PUSH2 0x805 JUMPI DUP6 PUSH32 0xAA865F867ABAA68B8CBA3E6DF5B4CC018184C6E7FFF1D03843D27C69A973E3B0 PUSH2 0x7FF DUP8 DUP8 DUP8 PUSH1 0x8 SSTORE MLOAD SWAP2 DUP3 SWAP2 PUSH1 0x20 DUP4 MSTORE PUSH1 0x20 DUP4 ADD SWAP1 PUSH2 0xB50 JUMP JUMPDEST SUB SWAP1 LOG1 DUP1 RETURN JUMPDEST PUSH4 0x4E487B71 PUSH1 0xE0 SHL DUP7 MSTORE PUSH1 0x11 SWAP1 MSTORE DUP5 REVERT JUMPDEST POP PUSH4 0x4E487B71 PUSH1 0xE0 SHL DUP6 MSTORE PUSH1 0x32 DUP3 MSTORE DUP5 REVERT JUMPDEST POP PUSH4 0x4E487B71 PUSH1 0xE0 SHL DUP6 MSTORE PUSH1 0x41 DUP3 MSTORE DUP5 REVERT JUMPDEST PUSH4 0x4E487B71 PUSH1 0xE0 SHL DUP9 MSTORE PUSH1 0x32 DUP6 MSTORE DUP4 DUP9 REVERT JUMPDEST PUSH4 0x4E487B71 PUSH1 0xE0 SHL DUP9 MSTORE PUSH1 0x41 DUP6 MSTORE DUP4 DUP9 REVERT JUMPDEST DUP11 MLOAD PUSH3 0x461BCD PUSH1 0xE5 SHL DUP2 MSTORE PUSH1 0x20 DUP2 DUP13 ADD MSTORE PUSH1 0x1E PUSH1 0x24 DUP3 ADD MSTORE PUSH32 0x43616E64696461746520616C7265616479207265676973746572656420210000 PUSH1 0x44 DUP3 ADD MSTORE PUSH1 0x64 SWAP1 REVERT JUMPDEST DUP12 DUP1 REVERT JUMPDEST DUP11 DUP1 REVERT JUMPDEST DUP10 DUP1 REVERT JUMPDEST DUP9 DUP1 REVERT JUMPDEST DUP8 DUP1 REVERT JUMPDEST DUP7 DUP1 REVERT JUMPDEST DUP6 DUP1 REVERT JUMPDEST DUP5 DUP1 REVERT JUMPDEST DUP4 DUP1 REVERT JUMPDEST SWAP1 POP CALLVALUE PUSH2 0x225 JUMPI PUSH1 0x20 CALLDATASIZE PUSH1 0x3 NOT ADD SLT PUSH2 0x225 JUMPI CALLDATALOAD PUSH1 0x1 PUSH1 0x1 PUSH1 0xA0 SHL SUB DUP2 DUP2 AND SWAP2 DUP3 SWAP1 SUB PUSH2 0x8C1 JUMPI PUSH1 0x20 SWAP4 POP PUSH1 0x1 SLOAD AND EQ SWAP1 MLOAD SWAP1 DUP2 MSTORE RETURN JUMPDEST POP POP CALLVALUE PUSH2 0xE6 JUMPI DUP2 PUSH1 0x3 NOT CALLDATASIZE ADD SLT PUSH2 0xE6 JUMPI PUSH1 0x20 SWAP1 PUSH1 0x8 SLOAD SWAP1 MLOAD SWAP1 DUP2 MSTORE RETURN JUMPDEST SWAP1 POP CALLVALUE PUSH2 0x225 JUMPI DUP3 PUSH1 0x3 NOT CALLDATASIZE ADD SLT PUSH2 0x225 JUMPI PUSH1 0x20 SWAP3 POP SLOAD SWAP1 MLOAD SWAP1 DUP2 MSTORE RETURN JUMPDEST DUP5 SWAP1 CALLVALUE PUSH2 0xE6 JUMPI DUP2 PUSH1 0x3 NOT CALLDATASIZE ADD SLT PUSH2 0xE6 JUMPI PUSH1 0x20 SWAP1 PUSH1 0x2 SLOAD DUP2 MSTORE RETURN JUMPDEST PUSH2 0x180 DUP2 ADD SWAP1 DUP2 LT PUSH8 0xFFFFFFFFFFFFFFFF DUP3 GT OR PUSH2 0x972 JUMPI PUSH1 0x40 MSTORE JUMP JUMPDEST PUSH4 0x4E487B71 PUSH1 0xE0 SHL PUSH1 0x0 MSTORE PUSH1 0x41 PUSH1 0x4 MSTORE PUSH1 0x24 PUSH1 0x0 REVERT JUMPDEST PUSH1 0xA0 DUP2 ADD SWAP1 DUP2 LT PUSH8 0xFFFFFFFFFFFFFFFF DUP3 GT OR PUSH2 0x972 JUMPI PUSH1 0x40 MSTORE JUMP JUMPDEST SWAP1 PUSH1 0x1F DUP1 NOT SWAP2 ADD AND DUP2 ADD SWAP1 DUP2 LT PUSH8 0xFFFFFFFFFFFFFFFF DUP3 GT OR PUSH2 0x972 JUMPI PUSH1 0x40 MSTORE JUMP JUMPDEST DUP2 PUSH1 0x1F DUP3 ADD SLT ISZERO PUSH2 0xA1D JUMPI DUP1 CALLDATALOAD SWAP1 PUSH8 0xFFFFFFFFFFFFFFFF DUP3 GT PUSH2 0x972 JUMPI PUSH1 0x40 MLOAD SWAP3 PUSH2 0x9FB PUSH1 0x1F DUP5 ADD PUSH1 0x1F NOT AND PUSH1 0x20 ADD DUP6 PUSH2 0x9A4 JUMP JUMPDEST DUP3 DUP5 MSTORE PUSH1 0x20 DUP4 DUP4 ADD ADD GT PUSH2 0xA1D JUMPI DUP2 PUSH1 0x0 SWAP3 PUSH1 0x20 DUP1 SWAP4 ADD DUP4 DUP7 ADD CALLDATACOPY DUP4 ADD ADD MSTORE SWAP1 JUMP JUMPDEST PUSH1 0x0 DUP1 REVERT JUMPDEST SWAP2 SWAP1 DUP3 MLOAD SWAP3 DUP4 DUP3 MSTORE PUSH1 0x0 JUMPDEST DUP5 DUP2 LT PUSH2 0xA4E JUMPI POP POP DUP3 PUSH1 0x0 PUSH1 0x20 DUP1 SWAP5 SWAP6 DUP5 ADD ADD MSTORE PUSH1 0x1F DUP1 NOT SWAP2 ADD AND ADD ADD SWAP1 JUMP JUMPDEST PUSH1 0x20 DUP2 DUP4 ADD DUP2 ADD MLOAD DUP5 DUP4 ADD DUP3 ADD MSTORE ADD PUSH2 0xA2D JUMP JUMPDEST SWAP1 PUSH2 0xB4D SWAP2 PUSH1 0x1 DUP1 PUSH1 0xA0 SHL SUB DUP2 MLOAD AND DUP3 MSTORE PUSH2 0xB39 PUSH2 0xB25 PUSH2 0xB11 PUSH2 0xAFD PUSH2 0xAEB PUSH2 0xAD9 PUSH2 0xAC7 PUSH2 0xAA1 PUSH1 0x20 DUP10 ADD MLOAD PUSH2 0x180 DUP1 PUSH1 0x20 DUP14 ADD MSTORE DUP12 ADD SWAP1 PUSH2 0xA22 JUMP JUMPDEST PUSH1 0x40 DUP10 ADD MLOAD PUSH1 0x40 DUP12 ADD MSTORE PUSH1 0x60 DUP10 ADD MLOAD PUSH1 0x60 DUP12 ADD MSTORE PUSH1 0x80 DUP10 ADD MLOAD DUP11 DUP3 SUB PUSH1 0x80 DUP13 ADD MSTORE PUSH2 0xA22 JUMP JUMPDEST PUSH1 0xA0 DUP9 ADD MLOAD DUP10 DUP3 SUB PUSH1 0xA0 DUP12 ADD MSTORE PUSH2 0xA22 JUMP JUMPDEST PUSH1 0xC0 DUP8 ADD MLOAD DUP9 DUP3 SUB PUSH1 0xC0 DUP11 ADD MSTORE PUSH2 0xA22 JUMP JUMPDEST PUSH1 0xE0 DUP7 ADD MLOAD DUP8 DUP3 SUB PUSH1 0xE0 DUP10 ADD MSTORE PUSH2 0xA22 JUMP JUMPDEST PUSH2 0x100 DUP1 DUP7 ADD MLOAD SWAP1 DUP8 DUP4 SUB SWAP1 DUP9 ADD MSTORE PUSH2 0xA22 JUMP JUMPDEST PUSH2 0x120 DUP1 DUP6 ADD MLOAD SWAP1 DUP7 DUP4 SUB SWAP1 DUP8 ADD MSTORE PUSH2 0xA22 JUMP JUMPDEST PUSH2 0x140 DUP1 DUP5 ADD MLOAD SWAP1 DUP6 DUP4 SUB SWAP1 DUP7 ADD MSTORE PUSH2 0xA22 JUMP JUMPDEST SWAP2 PUSH2 0x160 DUP1 SWAP3 ADD MLOAD SWAP2 DUP2 DUP5 SUB SWAP2 ADD MSTORE PUSH2 0xA22 JUMP JUMPDEST SWAP1 JUMP JUMPDEST PUSH2 0xB63 DUP2 MLOAD PUSH1 0xA0 DUP5 MSTORE PUSH1 0xA0 DUP5 ADD SWAP1 PUSH2 0xA62 JUMP JUMPDEST SWAP1 PUSH1 0x80 PUSH2 0xB91 PUSH2 0xB7F PUSH1 0x20 SWAP5 DUP6 DUP6 ADD MLOAD DUP8 DUP3 SUB DUP8 DUP10 ADD MSTORE PUSH2 0xA22 JUMP JUMPDEST PUSH1 0x40 DUP5 ADD MLOAD DUP7 DUP3 SUB PUSH1 0x40 DUP9 ADD MSTORE PUSH2 0xA22 JUMP JUMPDEST SWAP2 PUSH1 0x60 DUP2 ADD MLOAD PUSH1 0x60 DUP7 ADD MSTORE ADD MLOAD SWAP3 PUSH1 0x80 DUP2 DUP4 SUB SWAP2 ADD MSTORE DUP2 DUP1 DUP5 MLOAD SWAP3 DUP4 DUP2 MSTORE ADD SWAP4 ADD SWAP2 PUSH1 0x0 JUMPDEST DUP3 DUP2 LT PUSH2 0xBC4 JUMPI POP POP POP POP SWAP1 JUMP JUMPDEST DUP4 MLOAD PUSH1 0x1 PUSH1 0x1 PUSH1 0xA0 SHL SUB AND DUP6 MSTORE SWAP4 DUP2 ADD SWAP4 SWAP3 DUP2 ADD SWAP3 PUSH1 0x1 ADD PUSH2 0xBB6 JUMP JUMPDEST SWAP1 PUSH1 0x1 DUP3 DUP2 SHR SWAP3 AND DUP1 ISZERO PUSH2 0xC11 JUMPI JUMPDEST PUSH1 0x20 DUP4 LT EQ PUSH2 0xBFB JUMPI JUMP JUMPDEST PUSH4 0x4E487B71 PUSH1 0xE0 SHL PUSH1 0x0 MSTORE PUSH1 0x22 PUSH1 0x4 MSTORE PUSH1 0x24 PUSH1 0x0 REVERT JUMPDEST SWAP2 PUSH1 0x7F AND SWAP2 PUSH2 0xBF0 JUMP JUMPDEST SWAP1 PUSH1 0x0 SWAP3 SWAP2 DUP1 SLOAD SWAP2 PUSH2 0xC2C DUP4 PUSH2 0xBE1 JUMP JUMPDEST SWAP2 DUP3 DUP3 MSTORE PUSH1 0x1 SWAP4 DUP5 DUP2 AND SWAP1 DUP2 PUSH1 0x0 EQ PUSH2 0xC8E JUMPI POP PUSH1 0x1 EQ PUSH2 0xC4E JUMPI JUMPDEST POP POP POP POP JUMP JUMPDEST SWAP1 SWAP2 SWAP4 SWAP5 POP PUSH1 0x0 MSTORE PUSH1 0x20 SWAP3 DUP4 PUSH1 0x0 KECCAK256 SWAP3 DUP5 PUSH1 0x0 SWAP5 JUMPDEST DUP4 DUP7 LT PUSH2 0xC7A JUMPI POP POP POP POP ADD ADD SWAP1 CODESIZE DUP1 DUP1 DUP1 PUSH2 0xC48 JUMP JUMPDEST DUP1 SLOAD DUP6 DUP8 ADD DUP4 ADD MSTORE SWAP5 ADD SWAP4 DUP6 SWAP1 DUP3 ADD PUSH2 0xC63 JUMP JUMPDEST SWAP3 SWAP5 POP POP POP PUSH1 0x20 SWAP4 SWAP5 POP PUSH1 0xFF NOT AND DUP4 DUP4 ADD MSTORE ISZERO ISZERO PUSH1 0x5 SHL ADD ADD SWAP1 CODESIZE DUP1 DUP1 DUP1 PUSH2 0xC48 JUMP JUMPDEST SWAP1 PUSH1 0xB PUSH2 0x160 PUSH1 0x40 SWAP4 PUSH2 0xDC2 DUP6 MLOAD SWAP2 PUSH2 0xCC9 DUP4 PUSH2 0x955 JUMP JUMPDEST PUSH2 0x1CE DUP4 SWAP8 PUSH1 0x1 DUP1 PUSH1 0xA0 SHL SUB DUP4 SLOAD AND DUP6 MSTORE DUP1 MLOAD PUSH2 0xCF4 DUP2 PUSH2 0xCED DUP2 PUSH1 0x1 DUP9 ADD PUSH2 0xC1B JUMP JUMPDEST SUB DUP3 PUSH2 0x9A4 JUMP JUMPDEST PUSH1 0x20 DUP7 ADD MSTORE PUSH1 0x2 DUP4 ADD SLOAD DUP2 DUP7 ADD MSTORE PUSH1 0x3 DUP4 ADD SLOAD PUSH1 0x60 DUP7 ADD MSTORE DUP1 MLOAD PUSH2 0xD1F DUP2 PUSH2 0xCED DUP2 PUSH1 0x4 DUP9 ADD PUSH2 0xC1B JUMP JUMPDEST PUSH1 0x80 DUP7 ADD MSTORE DUP1 MLOAD PUSH2 0xD37 DUP2 PUSH2 0xCED DUP2 PUSH1 0x5 DUP9 ADD PUSH2 0xC1B JUMP JUMPDEST PUSH1 0xA0 DUP7 ADD MSTORE DUP1 MLOAD PUSH2 0xD4F DUP2 PUSH2 0xCED DUP2 PUSH1 0x6 DUP9 ADD PUSH2 0xC1B JUMP JUMPDEST PUSH1 0xC0 DUP7 ADD MSTORE DUP1 MLOAD PUSH2 0xD67 DUP2 PUSH2 0xCED DUP2 PUSH1 0x7 DUP9 ADD PUSH2 0xC1B JUMP JUMPDEST PUSH1 0xE0 DUP7 ADD MSTORE DUP1 MLOAD PUSH2 0xD7F DUP2 PUSH2 0xCED DUP2 PUSH1 0x8 DUP9 ADD PUSH2 0xC1B JUMP JUMPDEST PUSH2 0x100 DUP7 ADD MSTORE DUP1 MLOAD PUSH2 0xD98 DUP2 PUSH2 0xCED DUP2 PUSH1 0x9 DUP9 ADD PUSH2 0xC1B JUMP JUMPDEST PUSH2 0x120 DUP7 ADD MSTORE DUP1 MLOAD PUSH2 0xDB1 DUP2 PUSH2 0xCED DUP2 PUSH1 0xA DUP9 ADD PUSH2 0xC1B JUMP JUMPDEST PUSH2 0x140 DUP7 ADD MSTORE MLOAD DUP1 SWAP7 DUP2 SWAP4 ADD PUSH2 0xC1B JUMP JUMPDEST ADD MSTORE JUMP JUMPDEST SWAP5 SWAP4 SWAP3 PUSH2 0xDF2 PUSH1 0x60 SWAP4 PUSH2 0xDE4 PUSH2 0xE00 SWAP5 PUSH1 0x80 DUP11 MSTORE PUSH1 0x80 DUP11 ADD SWAP1 PUSH2 0xA62 JUMP JUMPDEST SWAP1 DUP9 DUP3 SUB PUSH1 0x20 DUP11 ADD MSTORE PUSH2 0xA22 JUMP JUMPDEST SWAP1 DUP7 DUP3 SUB PUSH1 0x40 DUP9 ADD MSTORE PUSH2 0xA22 JUMP JUMPDEST SWAP4 ADD MSTORE JUMP JUMPDEST DUP2 DUP2 LT PUSH2 0xE10 JUMPI POP POP JUMP JUMPDEST PUSH1 0x0 DUP2 SSTORE PUSH1 0x1 ADD PUSH2 0xE05 JUMP JUMPDEST SWAP2 SWAP1 SWAP2 DUP3 MLOAD PUSH8 0xFFFFFFFFFFFFFFFF DUP2 GT PUSH2 0x972 JUMPI PUSH2 0xE3A DUP3 SLOAD PUSH2 0xBE1 JUMP JUMPDEST PUSH1 0x1F DUP2 GT PUSH2 0xEE4 JUMPI JUMPDEST POP PUSH1 0x20 DUP1 PUSH1 0x1F DUP4 GT PUSH1 0x1 EQ PUSH2 0xE80 JUMPI POP DUP2 SWAP3 SWAP4 SWAP5 PUSH1 0x0 SWAP3 PUSH2 0xE75 JUMPI JUMPDEST POP POP DUP2 PUSH1 0x1 SHL SWAP2 PUSH1 0x0 NOT SWAP1 PUSH1 0x3 SHL SHR NOT AND OR SWAP1 SSTORE JUMP JUMPDEST ADD MLOAD SWAP1 POP CODESIZE DUP1 PUSH2 0xE5F JUMP JUMPDEST SWAP1 PUSH1 0x1F NOT DUP4 AND SWAP6 DUP5 PUSH1 0x0 MSTORE DUP3 PUSH1 0x0 KECCAK256 SWAP3 PUSH1 0x0 SWAP1 JUMPDEST DUP9 DUP3 LT PUSH2 0xECC JUMPI POP POP DUP4 PUSH1 0x1 SWAP6 SWAP7 SWAP8 LT PUSH2 0xEB3 JUMPI JUMPDEST POP POP POP DUP2 SHL ADD SWAP1 SSTORE JUMP JUMPDEST ADD MLOAD PUSH1 0x0 NOT PUSH1 0xF8 DUP5 PUSH1 0x3 SHL AND SHR NOT AND SWAP1 SSTORE CODESIZE DUP1 DUP1 PUSH2 0xEA9 JUMP JUMPDEST DUP1 PUSH1 0x1 DUP6 SWAP7 DUP3 SWAP5 SWAP7 DUP7 ADD MLOAD DUP2 SSTORE ADD SWAP6 ADD SWAP4 ADD SWAP1 PUSH2 0xE94 JUMP JUMPDEST PUSH2 0xF11 SWAP1 DUP4 PUSH1 0x0 MSTORE PUSH1 0x20 PUSH1 0x0 KECCAK256 PUSH1 0x1F DUP5 ADD PUSH1 0x5 SHR DUP2 ADD SWAP2 PUSH1 0x20 DUP6 LT PUSH2 0xF17 JUMPI JUMPDEST PUSH1 0x1F ADD PUSH1 0x5 SHR ADD SWAP1 PUSH2 0xE05 JUMP JUMPDEST CODESIZE PUSH2 0xE43 JUMP JUMPDEST SWAP1 SWAP2 POP DUP2 SWAP1 PUSH2 0xF04 JUMP JUMPDEST DUP2 MLOAD SWAP2 PUSH1 0x1 DUP1 PUSH1 0xA0 SHL SUB DUP1 DUP5 MLOAD AND PUSH12 0xFFFFFFFFFFFFFFFFFFFFFFFF PUSH1 0xA0 SHL DUP5 SLOAD AND OR DUP4 SSTORE PUSH1 0x80 PUSH1 0xF PUSH1 0x20 SWAP5 PUSH2 0xFFD PUSH2 0x160 DUP8 DUP10 ADD MLOAD SWAP9 PUSH2 0xF65 PUSH1 0x1 SWAP11 DUP12 DUP7 ADD PUSH2 0xE1C JUMP JUMPDEST PUSH1 0x40 DUP2 ADD MLOAD PUSH1 0x2 DUP6 ADD SSTORE PUSH1 0x60 DUP2 ADD MLOAD PUSH1 0x3 DUP6 ADD SSTORE PUSH2 0xF89 DUP7 DUP3 ADD MLOAD PUSH1 0x4 DUP7 ADD PUSH2 0xE1C JUMP JUMPDEST PUSH2 0xF9A PUSH1 0xA0 DUP3 ADD MLOAD PUSH1 0x5 DUP7 ADD PUSH2 0xE1C JUMP JUMPDEST PUSH2 0xFAB PUSH1 0xC0 DUP3 ADD MLOAD PUSH1 0x6 DUP7 ADD PUSH2 0xE1C JUMP JUMPDEST PUSH2 0xFBC PUSH1 0xE0 DUP3 ADD MLOAD PUSH1 0x7 DUP7 ADD PUSH2 0xE1C JUMP JUMPDEST PUSH2 0xFCE PUSH2 0x100 DUP3 ADD MLOAD PUSH1 0x8 DUP7 ADD PUSH2 0xE1C JUMP JUMPDEST PUSH2 0xFE0 PUSH2 0x120 DUP3 ADD MLOAD PUSH1 0x9 DUP7 ADD PUSH2 0xE1C JUMP JUMPDEST PUSH2 0xFF2 PUSH2 0x140 DUP3 ADD MLOAD PUSH1 0xA DUP7 ADD PUSH2 0xE1C JUMP JUMPDEST ADD MLOAD PUSH1 0xB DUP4 ADD PUSH2 0xE1C JUMP JUMPDEST PUSH2 0x100D DUP7 DUP7 ADD MLOAD PUSH1 0xC DUP4 ADD PUSH2 0xE1C JUMP JUMPDEST PUSH2 0x101E PUSH1 0x40 DUP7 ADD MLOAD PUSH1 0xD DUP4 ADD PUSH2 0xE1C JUMP JUMPDEST PUSH1 0x60 DUP6 ADD MLOAD PUSH1 0xE DUP3 ADD SSTORE ADD SWAP3 ADD MLOAD SWAP3 DUP4 MLOAD SWAP4 PUSH8 0xFFFFFFFFFFFFFFFF DUP6 GT PUSH2 0x972 JUMPI PUSH1 0x1 PUSH1 0x40 SHL DUP6 GT PUSH2 0x972 JUMPI DUP2 SWAP1 DUP5 SLOAD DUP7 DUP7 SSTORE DUP1 DUP8 LT PUSH2 0x108A JUMPI JUMPDEST POP ADD SWAP3 PUSH1 0x0 MSTORE DUP1 PUSH1 0x0 KECCAK256 SWAP2 PUSH1 0x0 JUMPDEST DUP6 DUP2 LT PUSH2 0x1077 JUMPI POP POP POP POP POP POP POP JUMP JUMPDEST DUP5 MLOAD DUP3 AND DUP5 DUP3 ADD SSTORE SWAP4 DUP3 ADD SWAP4 DUP7 ADD PUSH2 0x1067 JUMP JUMPDEST PUSH2 0x10A1 SWAP1 DUP7 PUSH1 0x0 MSTORE DUP8 DUP5 PUSH1 0x0 KECCAK256 SWAP2 DUP3 ADD SWAP2 ADD PUSH2 0xE05 JUMP JUMPDEST CODESIZE PUSH2 0x1059 JUMP JUMPDEST SWAP1 PUSH1 0x40 MLOAD SWAP2 PUSH2 0x10B5 DUP4 PUSH2 0x988 JUMP JUMPDEST DUP3 PUSH2 0x10BF DUP3 PUSH2 0xCB1 JUMP JUMPDEST DUP2 MSTORE PUSH1 0xF PUSH1 0x40 MLOAD SWAP3 PUSH2 0x10DF DUP5 PUSH2 0x10D8 DUP2 PUSH1 0xC DUP6 ADD PUSH2 0xC1B JUMP JUMPDEST SUB DUP6 PUSH2 0x9A4 JUMP JUMPDEST PUSH1 0x20 SWAP4 DUP5 DUP5 ADD MSTORE PUSH1 0x40 MLOAD PUSH2 0x10FA DUP2 PUSH2 0xCED DUP2 PUSH1 0xD DUP7 ADD PUSH2 0xC1B JUMP JUMPDEST PUSH1 0x40 DUP5 ADD MSTORE PUSH1 0xE DUP2 ADD SLOAD PUSH1 0x60 DUP5 ADD MSTORE ADD SWAP1 PUSH1 0x40 MLOAD DUP1 SWAP4 DUP5 SWAP2 DUP2 DUP6 SLOAD SWAP2 DUP3 DUP2 MSTORE ADD SWAP5 PUSH1 0x0 MSTORE DUP2 PUSH1 0x0 KECCAK256 SWAP2 PUSH1 0x0 SWAP1 JUMPDEST DUP3 DUP3 LT PUSH2 0x1140 JUMPI POP POP POP POP PUSH2 0xDC2 SWAP1 PUSH1 0x80 SWAP4 SUB DUP5 PUSH2 0x9A4 JUMP JUMPDEST DUP4 SLOAD PUSH1 0x1 PUSH1 0x1 PUSH1 0xA0 SHL SUB AND DUP8 MSTORE SWAP6 DUP7 ADD SWAP6 DUP8 SWAP5 POP PUSH1 0x1 SWAP4 DUP5 ADD SWAP4 SWAP1 SWAP2 ADD SWAP1 PUSH2 0x1127 JUMP JUMPDEST DUP1 MLOAD SWAP1 PUSH1 0x20 SWAP2 DUP3 DUP3 ADD SWAP1 DUP2 KECCAK256 SWAP1 PUSH1 0x0 SWAP3 DUP4 SLOAD SWAP3 DUP4 ISZERO PUSH2 0x14C1 JUMPI SWAP1 DUP6 SWAP3 SWAP2 DUP6 DUP1 MSTORE PUSH1 0x40 MLOAD DUP7 SWAP1 PUSH32 0x290DECD9548B62A8D60345A988386FC84BA6BC95484008F6362F93160EF3E563 DUP2 DUP2 SLOAD SWAP4 PUSH2 0x11B6 DUP6 PUSH2 0xBE1 JUMP JUMPDEST SWAP3 DUP4 DUP4 MSTORE DUP10 DUP4 ADD SWAP6 PUSH1 0x1 SWAP14 DUP15 DUP3 AND SWAP2 DUP3 PUSH1 0x0 EQ PUSH2 0x14A3 JUMPI POP POP PUSH1 0x1 EQ PUSH2 0x1448 JUMPI JUMPDEST POP PUSH2 0x11E4 SWAP3 POP SUB DUP3 PUSH2 0x9A4 JUMP JUMPDEST MLOAD SWAP1 KECCAK256 SUB PUSH2 0x1217 JUMPI POP POP POP POP PUSH1 0x2 SLOAD SWAP2 DUP3 ADD DUP1 SWAP3 GT PUSH2 0x1203 JUMPI POP PUSH1 0x2 SSTORE JUMP JUMPDEST PUSH4 0x4E487B71 PUSH1 0xE0 SHL DUP2 MSTORE PUSH1 0x11 PUSH1 0x4 MSTORE PUSH1 0x24 SWAP1 REVERT JUMPDEST DUP1 MLOAD DUP3 KECCAK256 DUP5 DUP8 LT ISZERO PUSH2 0x1434 JUMPI DUP6 DUP1 MSTORE DUP7 PUSH1 0x40 MLOAD DUP8 DUP2 PUSH32 0x290DECD9548B62A8D60345A988386FC84BA6BC95484008F6362F93160EF3E564 SWAP2 DUP3 SLOAD SWAP3 PUSH2 0x125A DUP5 PUSH2 0xBE1 JUMP JUMPDEST SWAP4 DUP5 DUP5 MSTORE DUP11 DUP1 DUP6 ADD SWAP8 DUP3 AND SWAP2 DUP3 PUSH1 0x0 EQ PUSH2 0x1416 JUMPI POP POP PUSH1 0x1 EQ PUSH2 0x13BB JUMPI JUMPDEST POP PUSH2 0x1285 SWAP3 POP SUB DUP3 PUSH2 0x9A4 JUMP JUMPDEST MLOAD SWAP1 KECCAK256 SUB PUSH2 0x12A4 JUMPI POP POP POP POP PUSH1 0x3 SLOAD SWAP2 DUP3 ADD DUP1 SWAP3 GT PUSH2 0x1203 JUMPI POP PUSH1 0x3 SSTORE JUMP JUMPDEST MLOAD SWAP1 KECCAK256 SWAP2 PUSH1 0x2 LT ISZERO PUSH2 0x13A7 JUMPI DUP3 DUP1 MSTORE PUSH1 0x40 MLOAD DUP4 SWAP2 DUP2 PUSH32 0x290DECD9548B62A8D60345A988386FC84BA6BC95484008F6362F93160EF3E565 SWAP4 DUP5 SLOAD SWAP5 PUSH2 0x12E7 DUP7 PUSH2 0xBE1 JUMP JUMPDEST SWAP1 DUP2 DUP5 MSTORE DUP5 DUP5 ADD SWAP7 DUP11 DUP2 AND SWAP1 DUP2 PUSH1 0x0 EQ PUSH2 0x1389 JUMPI POP PUSH1 0x1 EQ PUSH2 0x1331 JUMPI JUMPDEST POP POP PUSH2 0x1312 SWAP3 POP SUB DUP3 PUSH2 0x9A4 JUMP JUMPDEST MLOAD SWAP1 KECCAK256 EQ PUSH2 0x131E JUMPI POP POP JUMP JUMPDEST PUSH1 0x4 SLOAD SWAP2 DUP3 ADD DUP1 SWAP3 GT PUSH2 0x1203 JUMPI POP PUSH1 0x4 SSTORE JUMP JUMPDEST DUP9 MSTORE DUP8 SWAP2 POP DUP9 PUSH32 0x63D75DB57AE45C3799740C3CD8DCEE96A498324843D79AE390ADC81D74B52F13 JUMPDEST DUP3 DUP5 LT PUSH2 0x1372 JUMPI POP POP POP SWAP2 PUSH2 0x1312 SWAP3 DUP3 ADD ADD CODESIZE DUP1 PUSH2 0x1304 JUMP JUMPDEST DUP1 SLOAD DUP8 DUP6 ADD DUP8 ADD MSTORE DUP7 SWAP5 POP SWAP3 DUP6 ADD SWAP3 DUP11 SWAP2 ADD PUSH2 0x1359 JUMP JUMPDEST SWAP2 POP POP PUSH2 0x1312 SWAP5 SWAP3 POP PUSH1 0xFF NOT AND DUP7 MSTORE ISZERO ISZERO PUSH1 0x5 SHL DUP3 ADD ADD CODESIZE DUP1 PUSH2 0x1304 JUMP JUMPDEST PUSH4 0x4E487B71 PUSH1 0xE0 SHL DUP4 MSTORE PUSH1 0x32 PUSH1 0x4 MSTORE PUSH1 0x24 DUP4 REVERT JUMPDEST DUP12 MSTORE POP DUP3 SWAP1 POP DUP8 DUP11 DUP13 PUSH32 0x6C13D8C1C5DF666EA9CA2A428504A3776C8CA01021C3A1524CA7D765F600979A JUMPDEST DUP6 DUP4 LT PUSH2 0x13FD JUMPI POP POP PUSH2 0x1285 SWAP4 POP DUP3 ADD ADD CODESIZE PUSH2 0x1278 JUMP JUMPDEST DUP1 SWAP2 SWAP3 SWAP5 POP SLOAD DUP4 DUP6 DUP9 ADD ADD MSTORE ADD SWAP2 ADD DUP9 SWAP1 DUP13 DUP6 SWAP4 PUSH2 0x13E6 JUMP JUMPDEST PUSH1 0xFF NOT AND DUP9 MSTORE PUSH2 0x1285 SWAP6 ISZERO ISZERO PUSH1 0x5 SHL DUP6 ADD ADD SWAP3 POP CODESIZE SWAP2 POP PUSH2 0x1278 SWAP1 POP JUMP JUMPDEST PUSH4 0x4E487B71 PUSH1 0xE0 SHL DUP7 MSTORE PUSH1 0x32 PUSH1 0x4 MSTORE PUSH1 0x24 DUP7 REVERT JUMPDEST DUP12 MSTORE POP DUP3 SWAP1 POP DUP8 DUP11 DUP13 PUSH32 0x510E4E770828DDBF7F7B00AB00A9F6ADAF81C0DC9CC85F1F8249C256942D61D9 JUMPDEST DUP6 DUP4 LT PUSH2 0x148A JUMPI POP POP PUSH2 0x11E4 SWAP4 POP DUP3 ADD ADD CODESIZE PUSH2 0x11D7 JUMP JUMPDEST DUP1 SWAP2 SWAP3 SWAP5 POP SLOAD DUP4 DUP6 DUP9 ADD ADD MSTORE ADD SWAP2 ADD DUP9 SWAP1 DUP13 DUP6 SWAP4 PUSH2 0x1473 JUMP JUMPDEST PUSH1 0xFF NOT AND DUP9 MSTORE PUSH2 0x11E4 SWAP6 ISZERO ISZERO PUSH1 0x5 SHL DUP6 ADD ADD SWAP3 POP CODESIZE SWAP2 POP PUSH2 0x11D7 SWAP1 POP JUMP JUMPDEST PUSH4 0x4E487B71 PUSH1 0xE0 SHL DUP6 MSTORE PUSH1 0x32 PUSH1 0x4 MSTORE PUSH1 0x24 DUP6 REVERT INVALID LOG2 PUSH5 0x6970667358 0x22 SLT KECCAK256 SWAP6 0xEF LOG1 PUSH4 0xDEA68BCF PUSH15 0x3C92E3A25724E14974558061750C0F 0xC9 0xCF DELEGATECALL NUMBER COINBASE BALANCE DUP14 0xF8 PUSH5 0x736F6C6343 STOP ADDMOD GT STOP CALLER "
				},
				"gasEstimates": {
					"creation": {
						"codeDepositCost": "1077400",
						"executionCost": "infinite",
						"totalCost": "infinite"
					},
					"external": {
						"addCandidate(string,uint256,uint256,string,string,string,string,string,string,string,string,string,string)": "infinite",
						"adminAddress()": "2582",
						"candidateList(uint256)": "infinite",
						"candidateNames(uint256)": "infinite",
						"candidates(address)": "infinite",
						"gender_list(uint256)": "infinite",
						"getAllCandidates()": "infinite",
						"getCandidateDetails(address)": "infinite",
						"isAdmin(address)": "2407",
						"totalCandidate()": "2324",
						"totalFemaleVoters()": "2456",
						"totalMaleVoters()": "2271",
						"totalOtherVoters()": "2302",
						"updateCounter(string)": "infinite"
					}
				},
				"methodIdentifiers": {
					"addCandidate(string,uint256,uint256,string,string,string,string,string,string,string,string,string,string)": "2d23c735",
					"adminAddress()": "fc6f9468",
					"candidateList(uint256)": "b13c744b",
					"candidateNames(uint256)": "8287e42f",
					"candidates(address)": "8ab66a90",
					"gender_list(uint256)": "6394a8fa",
					"getAllCandidates()": "2e6997fe",
					"getCandidateDetails(address)": "53ac5dc3",
					"isAdmin(address)": "24d7806c",
					"totalCandidate()": "1812dab4",
					"totalFemaleVoters()": "7c054c54",
					"totalMaleVoters()": "029c21bd",
					"totalOtherVoters()": "0983f185",
					"updateCounter(string)": "b0a4ec42"
				}
			},
			"storageLayout": {
				"storage": [
					{
						"astId": 170,
						"contract": "Contract/Candidate.sol:Candidate",
						"label": "gender_list",
						"offset": 0,
						"slot": "0",
						"type": "t_array(t_string_storage)dyn_storage"
					},
					{
						"astId": 296,
						"contract": "Contract/Candidate.sol:Candidate",
						"label": "adminAddress",
						"offset": 0,
						"slot": "1",
						"type": "t_address"
					},
					{
						"astId": 299,
						"contract": "Contract/Candidate.sol:Candidate",
						"label": "totalMaleVoters",
						"offset": 0,
						"slot": "2",
						"type": "t_uint256"
					},
					{
						"astId": 302,
						"contract": "Contract/Candidate.sol:Candidate",
						"label": "totalFemaleVoters",
						"offset": 0,
						"slot": "3",
						"type": "t_uint256"
					},
					{
						"astId": 305,
						"contract": "Contract/Candidate.sol:Candidate",
						"label": "totalOtherVoters",
						"offset": 0,
						"slot": "4",
						"type": "t_uint256"
					},
					{
						"astId": 15,
						"contract": "Contract/Candidate.sol:Candidate",
						"label": "candidates",
						"offset": 0,
						"slot": "5",
						"type": "t_mapping(t_address,t_struct(Candidate)238_storage)"
					},
					{
						"astId": 19,
						"contract": "Contract/Candidate.sol:Candidate",
						"label": "candidateList",
						"offset": 0,
						"slot": "6",
						"type": "t_array(t_struct(Candidate)238_storage)dyn_storage"
					},
					{
						"astId": 22,
						"contract": "Contract/Candidate.sol:Candidate",
						"label": "candidateNames",
						"offset": 0,
						"slot": "7",
						"type": "t_array(t_string_storage)dyn_storage"
					},
					{
						"astId": 25,
						"contract": "Contract/Candidate.sol:Candidate",
						"label": "totalCandidate",
						"offset": 0,
						"slot": "8",
						"type": "t_uint256"
					}
				],
				"types": {
					"t_address": {
						"encoding": "inplace",
						"label": "address",
						"numberOfBytes": "20"
					},
					"t_array(t_address)dyn_storage": {
						"base": "t_address",
						"encoding": "dynamic_array",
						"label": "address[]",
						"numberOfBytes": "32"
					},
					"t_array(t_string_storage)dyn_storage": {
						"base": "t_string_storage",
						"encoding": "dynamic_array",
						"label": "string[]",
						"numberOfBytes": "32"
					},
					"t_array(t_struct(Candidate)238_storage)dyn_storage": {
						"base": "t_struct(Candidate)238_storage",
						"encoding": "dynamic_array",
						"label": "struct Structure.Candidate[]",
						"numberOfBytes": "32"
					},
					"t_mapping(t_address,t_struct(Candidate)238_storage)": {
						"encoding": "mapping",
						"key": "t_address",
						"label": "mapping(address => struct Structure.Candidate)",
						"numberOfBytes": "32",
						"value": "t_struct(Candidate)238_storage"
					},
					"t_string_storage": {
						"encoding": "bytes",
						"label": "string",
						"numberOfBytes": "32"
					},
					"t_struct(Candidate)238_storage": {
						"encoding": "inplace",
						"label": "struct Structure.Candidate",
						"members": [
							{
								"astId": 228,
								"contract": "Contract/Candidate.sol:Candidate",
								"label": "user",
								"offset": 0,
								"slot": "0",
								"type": "t_struct(User)209_storage"
							},
							{
								"astId": 230,
								"contract": "Contract/Candidate.sol:Candidate",
								"label": "partyName",
								"offset": 0,
								"slot": "12",
								"type": "t_string_storage"
							},
							{
								"astId": 232,
								"contract": "Contract/Candidate.sol:Candidate",
								"label": "agenda",
								"offset": 0,
								"slot": "13",
								"type": "t_string_storage"
							},
							{
								"astId": 234,
								"contract": "Contract/Candidate.sol:Candidate",
								"label": "voteCount",
								"offset": 0,
								"slot": "14",
								"type": "t_uint256"
							},
							{
								"astId": 237,
								"contract": "Contract/Candidate.sol:Candidate",
								"label": "votedVoterLists",
								"offset": 0,
								"slot": "15",
								"type": "t_array(t_address)dyn_storage"
							}
						],
						"numberOfBytes": "512"
					},
					"t_struct(User)209_storage": {
						"encoding": "inplace",
						"label": "struct Structure.User",
						"members": [
							{
								"astId": 186,
								"contract": "Contract/Candidate.sol:Candidate",
								"label": "_id",
								"offset": 0,
								"slot": "0",
								"type": "t_address"
							},
							{
								"astId": 188,
								"contract": "Contract/Candidate.sol:Candidate",
								"label": "fullName",
								"offset": 0,
								"slot": "1",
								"type": "t_string_storage"
							},
							{
								"astId": 190,
								"contract": "Contract/Candidate.sol:Candidate",
								"label": "citizenshipNumber",
								"offset": 0,
								"slot": "2",
								"type": "t_uint256"
							},
							{
								"astId": 192,
								"contract": "Contract/Candidate.sol:Candidate",
								"label": "age",
								"offset": 0,
								"slot": "3",
								"type": "t_uint256"
							},
							{
								"astId": 194,
								"contract": "Contract/Candidate.sol:Candidate",
								"label": "gender",
								"offset": 0,
								"slot": "4",
								"type": "t_string_storage"
							},
							{
								"astId": 196,
								"contract": "Contract/Candidate.sol:Candidate",
								"label": "dob",
								"offset": 0,
								"slot": "5",
								"type": "t_string_storage"
							},
							{
								"astId": 198,
								"contract": "Contract/Candidate.sol:Candidate",
								"label": "email",
								"offset": 0,
								"slot": "6",
								"type": "t_string_storage"
							},
							{
								"astId": 200,
								"contract": "Contract/Candidate.sol:Candidate",
								"label": "profile",
								"offset": 0,
								"slot": "7",
								"type": "t_string_storage"
							},
							{
								"astId": 202,
								"contract": "Contract/Candidate.sol:Candidate",
								"label": "province",
								"offset": 0,
								"slot": "8",
								"type": "t_string_storage"
							},
							{
								"astId": 204,
								"contract": "Contract/Candidate.sol:Candidate",
								"label": "district",
								"offset": 0,
								"slot": "9",
								"type": "t_string_storage"
							},
							{
								"astId": 206,
								"contract": "Contract/Candidate.sol:Candidate",
								"label": "municipality",
								"offset": 0,
								"slot": "10",
								"type": "t_string_storage"
							},
							{
								"astId": 208,
								"contract": "Contract/Candidate.sol:Candidate",
								"label": "ward",
								"offset": 0,
								"slot": "11",
								"type": "t_string_storage"
							}
						],
						"numberOfBytes": "384"
					},
					"t_uint256": {
						"encoding": "inplace",
						"label": "uint256",
						"numberOfBytes": "32"
					}
				}
			},
			"userdoc": {
				"kind": "user",
				"methods": {},
				"version": 1
			}
		}
	}
}