{
	"Contract/Constants.sol": {
		"Constants": {
			"abi": [
				{
					"inputs": [],
					"stateMutability": "nonpayable",
					"type": "constructor"
				},
				{
					"inputs": [
						{
							"internalType": "uint256",
							"name": "",
							"type": "uint256"
						}
					],
					"name": "gender_list",
					"outputs": [
						{
							"internalType": "string",
							"name": "",
							"type": "string"
						}
					],
					"stateMutability": "view",
					"type": "function"
				}
			],
			"devdoc": {
				"kind": "dev",
				"methods": {},
				"version": 1
			},
			"evm": {
				"assembly": "    /* \"Contract/Constants.sol\":58:189  contract Constants {... */\n  0x80\n  jumpi(tag_4, callvalue)\n  sub(shl(0x40, 0x01), 0x01)\n  swap1\n  0x60\n  dup2\n  add\n  dup3\n  dup2\n  gt\n  dup3\n  dup3\n  lt\n  or\n  tag_6\n  jumpi\n  0x40\n  mstore\n  tag_8\n  tag_1\n  jump\t// in\ntag_8:\n  swap2\n  0x04\n  swap2\n  dup3\n  dup5\n  mstore\n  0x20\n  swap4\n  shl(0xe0, 0x4d414c45)\n  dup6\n  dup3\n  add\n  mstore\n  dup2\n  mstore\n  tag_9\n  tag_1\n  jump\t// in\ntag_9:\n  0x06\n  dup2\n  mstore\n  shl(0xd0, 0x46454d414c45)\n  dup6\n  dup3\n  add\n  mstore\n    /* \"Contract/Constants.sol\":154:180  [\"MALE\",\"FEMALE\",\"OTHERS\"] */\n  dup5\n  dup3\n  add\n    /* \"Contract/Constants.sol\":58:189  contract Constants {... */\n  mstore\n  tag_10\n  tag_1\n  jump\t// in\ntag_10:\n  0x06\n  dup2\n  mstore\n  shl(0xd0, 0x4f5448455253)\n  dup6\n  dup3\n  add\n  mstore\n  0x40\n    /* \"Contract/Constants.sol\":154:180  [\"MALE\",\"FEMALE\",\"OTHERS\"] */\n  dup3\n  add\n    /* \"Contract/Constants.sol\":58:189  contract Constants {... */\n  mstore\n  0x00\n  swap2\n  dup3\n  sload\n    /* \"Contract/Constants.sol\":154:180  [\"MALE\",\"FEMALE\",\"OTHERS\"] */\n  swap2\n  0x03\n    /* \"Contract/Constants.sol\":58:189  contract Constants {... */\n  swap3\n  dup4\n  dup6\n  sstore\n  dup1\n  dup5\n  lt\n  tag_11\n  jumpi\ntag_12:\n  pop\n  dup4\n  dup1\n  mstore\n  dup6\n  dup5\n  keccak256\n  swap3\n  swap1\n  dup5\n  swap1\ntag_13:\n  dup3\n  dup7\n  lt\n  tag_14\n  jumpi\n  mload(0x40)\n  dataSize(sub_0)\n  swap1\n  dup2\n  dataOffset(sub_0)\n  dup3\n  codecopy\n  return\ntag_14:\n  dup1\n  mload\n  dup1\n  mload\n  swap1\n  dup6\n  dup3\n  gt\n  tag_16\n  jumpi\n  swap1\n  dup10\n  swap3\n  swap2\n  tag_18\n  dup9\n  sload\n  tag_2\n  jump\t// in\ntag_18:\n  swap1\n  0x1f\n  swap2\n  dup3\n  dup2\n  gt\n  tag_19\n  jumpi\ntag_20:\n  pop\n  dup5\n  swap2\n  dup4\n  gt\n  0x01\n  eq\n  tag_21\n  jumpi\n  swap2\n  dup1\n  0x01\n  swap6\n  swap4\n  swap3\n  dup7\n  swap6\n  swap4\n  dup9\n  swap3\n  tag_23\n  jumpi\ntag_24:\n  pop\n  pop\n  not(0x00)\n  dup3\n  dup10\n  shl\n  shr\n  not\n  and\n  swap1\n  dup5\n  shl\n  or\n  dup9\n  sstore\ntag_25:\n  add\n  swap6\n  add\n  swap6\n  add\n  swap5\n  swap4\n  jump(tag_13)\ntag_23:\n  add\n  mload\n  swap1\n  pop\n  codesize\n  dup1\n  jump(tag_24)\ntag_21:\n  dup9\n  dup7\n  mstore\n  dup5\n  dup7\n  keccak256\n  swap2\n  swap1\n  not(0x1f)\n  dup5\n  and\n  dup8\ntag_26:\n  dup2\n  dup2\n  lt\n  tag_27\n  jumpi\n  pop\n  swap2\n  0x01\n  swap7\n  swap5\n  swap3\n  swap2\n  dup4\n  dup9\n  swap8\n  swap6\n  swap4\n  lt\n  tag_29\n  jumpi\ntag_30:\n  pop\n  pop\n  pop\n  dup4\n  shl\n  dup4\n  add\n  dup9\n  sstore\n  jump(tag_25)\ntag_29:\n  add\n  mload\n  not(0x00)\n  dup4\n  dup11\n  shl\n  0xf8\n  and\n  shr\n  not\n  and\n  swap1\n  sstore\n  codesize\n  dup1\n  dup1\n  jump(tag_30)\ntag_27:\n  swap3\n  swap4\n  dup8\n  0x01\n  dup2\n  swap3\n  dup8\n  dup7\n  add\n  mload\n  dup2\n  sstore\n  add\n  swap6\n  add\n  swap4\n  add\n  jump(tag_26)\ntag_19:\n  tag_31\n  swap1\n  dup11\n  dup9\n  mstore\n  dup7\n  dup9\n  keccak256\n  0x05\n  dup6\n  dup1\n  dup9\n  add\n  dup3\n  shr\n  dup4\n  add\n  swap4\n  dup11\n  dup10\n  lt\n  tag_32\n  jumpi\ntag_33:\n  add\n  swap1\n  shr\n  add\n  swap1\n  tag_3\n  jump\t// in\ntag_31:\n  codesize\n  jump(tag_20)\ntag_32:\n  swap4\n  pop\n  dup3\n  swap4\n  jump(tag_33)\ntag_16:\n  shl(0xe0, 0x4e487b71)\n  dup5\n  mstore\n  0x41\n  dup10\n  mstore\n  0x24\n  dup5\n  revert\ntag_11:\n  dup5\n  dup1\n  mstore\n  dup4\n  dup8\n  dup7\n  keccak256\n  swap2\n  dup3\n  add\n  swap2\n  add\ntag_34:\n  dup2\n  dup2\n  lt\n  tag_35\n  jumpi\n  pop\n  jump(tag_12)\ntag_35:\n  dup1\n  tag_37\n  0x01\n  swap3\n  sload\n  tag_2\n  jump\t// in\ntag_37:\n  dup1\n  tag_38\n  jumpi\ntag_39:\n  pop\n  add\n  jump(tag_34)\ntag_38:\n  0x1f\n  swap1\n  dup2\n  dup2\n  gt\n  dup5\n  eq\n  tag_40\n  jumpi\n  pop\n  pop\n  dup7\n  dup2\n  sstore\ntag_42:\n  codesize\n  jump(tag_39)\ntag_40:\n  dup4\n  tag_43\n  swap3\n  dup5\n  dup12\n  mstore\n  dup13\n  dup12\n  keccak256\n  swap3\n  add\n  0x05\n  shr\n  dup3\n  add\n  swap2\n  add\n  tag_3\n  jump\t// in\ntag_43:\n  dup7\n  dup10\n  dup2\n  keccak256\n  dup2\n  dup4\n  sstore\n  sstore\n  jump(tag_42)\ntag_6:\n  mstore(0x00, shl(0xe0, 0x4e487b71))\n  mstore(0x04, 0x41)\n  revert(0x00, 0x24)\ntag_4:\n  0x00\n  dup1\n  revert\ntag_1:\n  0x40\n  dup1\n  mload\n  swap2\n  swap1\n  dup3\n  add\n  sub(shl(0x40, 0x01), 0x01)\n  dup2\n  gt\n  dup4\n  dup3\n  lt\n  or\n  tag_6\n  jumpi\n  0x40\n  mstore\n  jump\t// out\ntag_2:\n  swap1\n  0x01\n  dup3\n  dup2\n  shr\n  swap3\n  and\n  dup1\n  iszero\n  tag_46\n  jumpi\ntag_47:\n  0x20\n  dup4\n  lt\n  eq\n  tag_48\n  jumpi\n  jump\t// out\ntag_48:\n  mstore(0x00, shl(0xe0, 0x4e487b71))\n  mstore(0x04, 0x22)\n  revert(0x00, 0x24)\ntag_46:\n  swap2\n  0x7f\n  and\n  swap2\n  jump(tag_47)\ntag_3:\n  dup2\n  dup2\n  lt\n  tag_51\n  jumpi\n  pop\n  pop\n  jump\t// out\ntag_51:\n  0x00\n  dup2\n  sstore\n  0x01\n  add\n  jump(tag_3)\nstop\n\nsub_0: assembly {\n        /* \"Contract/Constants.sol\":58:189  contract Constants {... */\n      0x80\n      jumpi(tag_1, iszero(lt(calldatasize, 0x04)))\n      0x00\n      dup1\n      revert\n    tag_1:\n      0x00\n      dup1\n      calldataload\n      0xe0\n      shr\n      0x6394a8fa\n      eq\n      tag_3\n      jumpi\n      0x00\n      dup1\n      revert\n    tag_3:\n      jumpi(tag_5, callvalue)\n      0x20\n      dup1\n      add(calldatasize, not(0x03))\n      slt\n      tag_7\n      jumpi\n      calldataload(0x04)\n      dup3\n      sload\n        /* \"Contract/Constants.sol\":83:110  string[] public gender_list */\n      dup2\n      lt\n      iszero\n      tag_9\n      jumpi\n        /* \"Contract/Constants.sol\":58:189  contract Constants {... */\n      dup3\n      dup1\n      mstore\n      0x290decd9548b62a8d60345a988386fc84ba6bc95484008f6362f93160ef3e563\n      add\n      swap3\n      dup3\n      dup5\n      sload\n      swap5\n      0x01\n      dup7\n      dup2\n      shr\n      swap2\n      dup2\n      dup9\n      and\n      swap8\n      dup9\n      iszero\n      tag_11\n      jumpi\n    tag_12:\n      dup7\n      dup5\n      lt\n      dup10\n      eq\n      tag_13\n      jumpi\n      dup7\n      dup7\n      swap8\n      swap9\n      swap10\n      dup6\n      dup9\n      mstore\n      swap2\n      dup3\n      0x00\n      eq\n      tag_15\n      jumpi\n      pop\n      pop\n      0x01\n      eq\n      tag_17\n      jumpi\n    tag_18:\n      pop\n      pop\n      pop\n      0x1f\n      dup1\n      not\n      swap4\n      dup5\n      swap3\n      sub\n      add\n      and\n      dup2\n      add\n      swap4\n      dup2\n      dup6\n      lt\n      0xffffffffffffffff\n      dup7\n      gt\n      or\n      tag_19\n      jumpi\n      swap3\n      swap2\n      dup5\n      swap2\n      swap3\n      0x40\n      swap5\n      dup4\n      dup7\n      mstore\n      dup2\n      dup5\n      mstore\n      dup5\n      mload\n      swap2\n      dup3\n      dup2\n      dup7\n      add\n      mstore\n      dup2\n      swap6\n    tag_21:\n      dup4\n      dup8\n      lt\n      tag_22\n      jumpi\n      pop\n      pop\n      dup4\n      swap5\n      pop\n      dup6\n      dup3\n      0x1f\n      swap5\n      swap6\n      add\n      add\n      mstore\n      add\n      and\n      dup2\n      add\n      sub\n      add\n      swap1\n      return\n    tag_22:\n      dup7\n      dup2\n      add\n      dup3\n      add\n      mload\n      dup10\n      dup9\n      add\n      dup10\n      add\n      mstore\n      swap6\n      dup2\n      add\n      swap6\n      dup9\n      swap6\n      pop\n      jump(tag_21)\n    tag_19:\n      shl(0xe0, 0x4e487b71)\n      dup2\n      mstore\n      mstore(0x04, 0x41)\n      0x24\n      swap1\n      revert\n    tag_17:\n      dup8\n      mstore\n      dup6\n      dup8\n      keccak256\n      dup7\n      swap4\n      pop\n      dup8\n      swap3\n      swap2\n      swap1\n    tag_24:\n      dup3\n      dup5\n      lt\n      tag_25\n      jumpi\n      pop\n      pop\n      pop\n      dup3\n      add\n      add\n      codesize\n      dup1\n      dup1\n      jump(tag_18)\n    tag_25:\n      dup1\n      sload\n      dup5\n      dup9\n      add\n      dup7\n      add\n      mstore\n      dup7\n      swap6\n      pop\n      dup8\n      swap5\n      swap1\n      swap4\n      add\n      swap3\n      dup2\n      add\n      jump(tag_24)\n    tag_15:\n      swap4\n      pop\n      swap5\n      pop\n      pop\n      pop\n      not(0xff)\n      and\n      dup3\n      dup5\n      add\n      mstore\n      iszero\n      iszero\n      0x05\n      shl\n      dup3\n      add\n      add\n      codesize\n      dup1\n      dup1\n      jump(tag_18)\n    tag_13:\n      shl(0xe0, 0x4e487b71)\n      dup9\n      mstore\n      mstore(0x04, 0x22)\n      0x24\n      dup9\n      revert\n    tag_11:\n      swap3\n      0x7f\n      and\n      swap3\n      jump(tag_12)\n        /* \"Contract/Constants.sol\":83:110  string[] public gender_list */\n    tag_9:\n      dup3\n      dup1\n      revert\n        /* \"Contract/Constants.sol\":58:189  contract Constants {... */\n    tag_7:\n      pop\n      dup1\n      revert\n    tag_5:\n      dup1\n      revert\n\n    auxdata: 0xa2646970667358221220612f2a5a978c9aa32183dca2d4fd621257955f2e286ef6c87e064f9bd21ffab264736f6c63430008110033\n}\n",
				"bytecode": {
					"linkReferences": {},
					"object": "608034610257576001600160401b039060608101828111828210176102415760405261002961025c565b91600491828452602093634d414c4560e01b85820152815261004961025c565b600681526546454d414c4560d01b858201528482015261006761025c565b60068152654f544845525360d01b8582015260408201526000918254916003928385558084106101cf575b50838052858420929084905b8286106100b4576040516101df90816102cd8239f35b80518051908582116101bc57908992916100ce885461027b565b90601f91828111610186575b508491831160011461012057918060019593928695938892610115575b505060001982891b1c191690841b1788555b0195019501949361009e565b0151905038806100f7565b8886528486209190601f198416875b81811061016f575091600196949291838897959310610157575b505050831b83018855610109565b0151600019838a1b60f8161c19169055388080610149565b92938760018192878601518155019501930161012f565b6101ad908a8852868820600585808801821c8301938a89106101b3575b01901c01906102b5565b386100da565b935082936101a3565b634e487b7160e01b845260418952602484fd5b8480528387862091820191015b8181106101e95750610092565b806101f66001925461027b565b80610203575b50016101dc565b601f90818111841461021b5750508681555b386101fc565b8361023492848b528c8b20920160051c820191016102b5565b8689812081835555610215565b634e487b7160e01b600052604160045260246000fd5b600080fd5b60408051919082016001600160401b0381118382101761024157604052565b90600182811c921680156102ab575b602083101461029557565b634e487b7160e01b600052602260045260246000fd5b91607f169161028a565b8181106102c0575050565b600081556001016102b556fe6080600436101561000f57600080fd5b6000803560e01c636394a8fa1461002557600080fd5b346101a6576020806003193601126101a257600435825481101561019e578280527f290decd9548b62a8d60345a988386fc84ba6bc95484008f6362f93160ef3e563019282845494600186811c91818816978815610194575b86841089146101805786869798998588529182600014610162575050600114610128575b505050601f801993849203011681019381851067ffffffffffffffff861117610114579291849192604094838652818452845191828186015281955b8387106100fc5750508394508582601f949501015201168101030190f35b868101820151898801890152958101958895506100de565b634e487b7160e01b81526041600452602490fd5b8752858720869350879291905b82841061014a575050508201013880806100a2565b80548488018601528695508794909301928101610135565b93509450505060ff191682840152151560051b8201013880806100a2565b634e487b7160e01b88526022600452602488fd5b92607f169261007e565b8280fd5b5080fd5b80fdfea2646970667358221220612f2a5a978c9aa32183dca2d4fd621257955f2e286ef6c87e064f9bd21ffab264736f6c63430008110033",
					"opcodes": "PUSH1 0x80 CALLVALUE PUSH2 0x257 JUMPI PUSH1 0x1 PUSH1 0x1 PUSH1 0x40 SHL SUB SWAP1 PUSH1 0x60 DUP2 ADD DUP3 DUP2 GT DUP3 DUP3 LT OR PUSH2 0x241 JUMPI PUSH1 0x40 MSTORE PUSH2 0x29 PUSH2 0x25C JUMP JUMPDEST SWAP2 PUSH1 0x4 SWAP2 DUP3 DUP5 MSTORE PUSH1 0x20 SWAP4 PUSH4 0x4D414C45 PUSH1 0xE0 SHL DUP6 DUP3 ADD MSTORE DUP2 MSTORE PUSH2 0x49 PUSH2 0x25C JUMP JUMPDEST PUSH1 0x6 DUP2 MSTORE PUSH6 0x46454D414C45 PUSH1 0xD0 SHL DUP6 DUP3 ADD MSTORE DUP5 DUP3 ADD MSTORE PUSH2 0x67 PUSH2 0x25C JUMP JUMPDEST PUSH1 0x6 DUP2 MSTORE PUSH6 0x4F5448455253 PUSH1 0xD0 SHL DUP6 DUP3 ADD MSTORE PUSH1 0x40 DUP3 ADD MSTORE PUSH1 0x0 SWAP2 DUP3 SLOAD SWAP2 PUSH1 0x3 SWAP3 DUP4 DUP6 SSTORE DUP1 DUP5 LT PUSH2 0x1CF JUMPI JUMPDEST POP DUP4 DUP1 MSTORE DUP6 DUP5 KECCAK256 SWAP3 SWAP1 DUP5 SWAP1 JUMPDEST DUP3 DUP7 LT PUSH2 0xB4 JUMPI PUSH1 0x40 MLOAD PUSH2 0x1DF SWAP1 DUP2 PUSH2 0x2CD DUP3 CODECOPY RETURN JUMPDEST DUP1 MLOAD DUP1 MLOAD SWAP1 DUP6 DUP3 GT PUSH2 0x1BC JUMPI SWAP1 DUP10 SWAP3 SWAP2 PUSH2 0xCE DUP9 SLOAD PUSH2 0x27B JUMP JUMPDEST SWAP1 PUSH1 0x1F SWAP2 DUP3 DUP2 GT PUSH2 0x186 JUMPI JUMPDEST POP DUP5 SWAP2 DUP4 GT PUSH1 0x1 EQ PUSH2 0x120 JUMPI SWAP2 DUP1 PUSH1 0x1 SWAP6 SWAP4 SWAP3 DUP7 SWAP6 SWAP4 DUP9 SWAP3 PUSH2 0x115 JUMPI JUMPDEST POP POP PUSH1 0x0 NOT DUP3 DUP10 SHL SHR NOT AND SWAP1 DUP5 SHL OR DUP9 SSTORE JUMPDEST ADD SWAP6 ADD SWAP6 ADD SWAP5 SWAP4 PUSH2 0x9E JUMP JUMPDEST ADD MLOAD SWAP1 POP CODESIZE DUP1 PUSH2 0xF7 JUMP JUMPDEST DUP9 DUP7 MSTORE DUP5 DUP7 KECCAK256 SWAP2 SWAP1 PUSH1 0x1F NOT DUP5 AND DUP8 JUMPDEST DUP2 DUP2 LT PUSH2 0x16F JUMPI POP SWAP2 PUSH1 0x1 SWAP7 SWAP5 SWAP3 SWAP2 DUP4 DUP9 SWAP8 SWAP6 SWAP4 LT PUSH2 0x157 JUMPI JUMPDEST POP POP POP DUP4 SHL DUP4 ADD DUP9 SSTORE PUSH2 0x109 JUMP JUMPDEST ADD MLOAD PUSH1 0x0 NOT DUP4 DUP11 SHL PUSH1 0xF8 AND SHR NOT AND SWAP1 SSTORE CODESIZE DUP1 DUP1 PUSH2 0x149 JUMP JUMPDEST SWAP3 SWAP4 DUP8 PUSH1 0x1 DUP2 SWAP3 DUP8 DUP7 ADD MLOAD DUP2 SSTORE ADD SWAP6 ADD SWAP4 ADD PUSH2 0x12F JUMP JUMPDEST PUSH2 0x1AD SWAP1 DUP11 DUP9 MSTORE DUP7 DUP9 KECCAK256 PUSH1 0x5 DUP6 DUP1 DUP9 ADD DUP3 SHR DUP4 ADD SWAP4 DUP11 DUP10 LT PUSH2 0x1B3 JUMPI JUMPDEST ADD SWAP1 SHR ADD SWAP1 PUSH2 0x2B5 JUMP JUMPDEST CODESIZE PUSH2 0xDA JUMP JUMPDEST SWAP4 POP DUP3 SWAP4 PUSH2 0x1A3 JUMP JUMPDEST PUSH4 0x4E487B71 PUSH1 0xE0 SHL DUP5 MSTORE PUSH1 0x41 DUP10 MSTORE PUSH1 0x24 DUP5 REVERT JUMPDEST DUP5 DUP1 MSTORE DUP4 DUP8 DUP7 KECCAK256 SWAP2 DUP3 ADD SWAP2 ADD JUMPDEST DUP2 DUP2 LT PUSH2 0x1E9 JUMPI POP PUSH2 0x92 JUMP JUMPDEST DUP1 PUSH2 0x1F6 PUSH1 0x1 SWAP3 SLOAD PUSH2 0x27B JUMP JUMPDEST DUP1 PUSH2 0x203 JUMPI JUMPDEST POP ADD PUSH2 0x1DC JUMP JUMPDEST PUSH1 0x1F SWAP1 DUP2 DUP2 GT DUP5 EQ PUSH2 0x21B JUMPI POP POP DUP7 DUP2 SSTORE JUMPDEST CODESIZE PUSH2 0x1FC JUMP JUMPDEST DUP4 PUSH2 0x234 SWAP3 DUP5 DUP12 MSTORE DUP13 DUP12 KECCAK256 SWAP3 ADD PUSH1 0x5 SHR DUP3 ADD SWAP2 ADD PUSH2 0x2B5 JUMP JUMPDEST DUP7 DUP10 DUP2 KECCAK256 DUP2 DUP4 SSTORE SSTORE PUSH2 0x215 JUMP JUMPDEST PUSH4 0x4E487B71 PUSH1 0xE0 SHL PUSH1 0x0 MSTORE PUSH1 0x41 PUSH1 0x4 MSTORE PUSH1 0x24 PUSH1 0x0 REVERT JUMPDEST PUSH1 0x0 DUP1 REVERT JUMPDEST PUSH1 0x40 DUP1 MLOAD SWAP2 SWAP1 DUP3 ADD PUSH1 0x1 PUSH1 0x1 PUSH1 0x40 SHL SUB DUP2 GT DUP4 DUP3 LT OR PUSH2 0x241 JUMPI PUSH1 0x40 MSTORE JUMP JUMPDEST SWAP1 PUSH1 0x1 DUP3 DUP2 SHR SWAP3 AND DUP1 ISZERO PUSH2 0x2AB JUMPI JUMPDEST PUSH1 0x20 DUP4 LT EQ PUSH2 0x295 JUMPI JUMP JUMPDEST PUSH4 0x4E487B71 PUSH1 0xE0 SHL PUSH1 0x0 MSTORE PUSH1 0x22 PUSH1 0x4 MSTORE PUSH1 0x24 PUSH1 0x0 REVERT JUMPDEST SWAP2 PUSH1 0x7F AND SWAP2 PUSH2 0x28A JUMP JUMPDEST DUP2 DUP2 LT PUSH2 0x2C0 JUMPI POP POP JUMP JUMPDEST PUSH1 0x0 DUP2 SSTORE PUSH1 0x1 ADD PUSH2 0x2B5 JUMP INVALID PUSH1 0x80 PUSH1 0x4 CALLDATASIZE LT ISZERO PUSH2 0xF JUMPI PUSH1 0x0 DUP1 REVERT JUMPDEST PUSH1 0x0 DUP1 CALLDATALOAD PUSH1 0xE0 SHR PUSH4 0x6394A8FA EQ PUSH2 0x25 JUMPI PUSH1 0x0 DUP1 REVERT JUMPDEST CALLVALUE PUSH2 0x1A6 JUMPI PUSH1 0x20 DUP1 PUSH1 0x3 NOT CALLDATASIZE ADD SLT PUSH2 0x1A2 JUMPI PUSH1 0x4 CALLDATALOAD DUP3 SLOAD DUP2 LT ISZERO PUSH2 0x19E JUMPI DUP3 DUP1 MSTORE PUSH32 0x290DECD9548B62A8D60345A988386FC84BA6BC95484008F6362F93160EF3E563 ADD SWAP3 DUP3 DUP5 SLOAD SWAP5 PUSH1 0x1 DUP7 DUP2 SHR SWAP2 DUP2 DUP9 AND SWAP8 DUP9 ISZERO PUSH2 0x194 JUMPI JUMPDEST DUP7 DUP5 LT DUP10 EQ PUSH2 0x180 JUMPI DUP7 DUP7 SWAP8 SWAP9 SWAP10 DUP6 DUP9 MSTORE SWAP2 DUP3 PUSH1 0x0 EQ PUSH2 0x162 JUMPI POP POP PUSH1 0x1 EQ PUSH2 0x128 JUMPI JUMPDEST POP POP POP PUSH1 0x1F DUP1 NOT SWAP4 DUP5 SWAP3 SUB ADD AND DUP2 ADD SWAP4 DUP2 DUP6 LT PUSH8 0xFFFFFFFFFFFFFFFF DUP7 GT OR PUSH2 0x114 JUMPI SWAP3 SWAP2 DUP5 SWAP2 SWAP3 PUSH1 0x40 SWAP5 DUP4 DUP7 MSTORE DUP2 DUP5 MSTORE DUP5 MLOAD SWAP2 DUP3 DUP2 DUP7 ADD MSTORE DUP2 SWAP6 JUMPDEST DUP4 DUP8 LT PUSH2 0xFC JUMPI POP POP DUP4 SWAP5 POP DUP6 DUP3 PUSH1 0x1F SWAP5 SWAP6 ADD ADD MSTORE ADD AND DUP2 ADD SUB ADD SWAP1 RETURN JUMPDEST DUP7 DUP2 ADD DUP3 ADD MLOAD DUP10 DUP9 ADD DUP10 ADD MSTORE SWAP6 DUP2 ADD SWAP6 DUP9 SWAP6 POP PUSH2 0xDE JUMP JUMPDEST PUSH4 0x4E487B71 PUSH1 0xE0 SHL DUP2 MSTORE PUSH1 0x41 PUSH1 0x4 MSTORE PUSH1 0x24 SWAP1 REVERT JUMPDEST DUP8 MSTORE DUP6 DUP8 KECCAK256 DUP7 SWAP4 POP DUP8 SWAP3 SWAP2 SWAP1 JUMPDEST DUP3 DUP5 LT PUSH2 0x14A JUMPI POP POP POP DUP3 ADD ADD CODESIZE DUP1 DUP1 PUSH2 0xA2 JUMP JUMPDEST DUP1 SLOAD DUP5 DUP9 ADD DUP7 ADD MSTORE DUP7 SWAP6 POP DUP8 SWAP5 SWAP1 SWAP4 ADD SWAP3 DUP2 ADD PUSH2 0x135 JUMP JUMPDEST SWAP4 POP SWAP5 POP POP POP PUSH1 0xFF NOT AND DUP3 DUP5 ADD MSTORE ISZERO ISZERO PUSH1 0x5 SHL DUP3 ADD ADD CODESIZE DUP1 DUP1 PUSH2 0xA2 JUMP JUMPDEST PUSH4 0x4E487B71 PUSH1 0xE0 SHL DUP9 MSTORE PUSH1 0x22 PUSH1 0x4 MSTORE PUSH1 0x24 DUP9 REVERT JUMPDEST SWAP3 PUSH1 0x7F AND SWAP3 PUSH2 0x7E JUMP JUMPDEST DUP3 DUP1 REVERT JUMPDEST POP DUP1 REVERT JUMPDEST DUP1 REVERT INVALID LOG2 PUSH5 0x6970667358 0x22 SLT KECCAK256 PUSH2 0x2F2A GAS SWAP8 DUP13 SWAP11 LOG3 0x21 DUP4 0xDC LOG2 0xD4 REVERT PUSH3 0x125795 0x5F 0x2E 0x28 PUSH15 0xF6C87E064F9BD21FFAB264736F6C63 NUMBER STOP ADDMOD GT STOP CALLER "
				},
				"gasEstimates": {
					"creation": {
						"codeDepositCost": "95800",
						"executionCost": "infinite",
						"totalCost": "infinite"
					},
					"external": {
						"gender_list(uint256)": "infinite"
					}
				},
				"methodIdentifiers": {
					"gender_list(uint256)": "6394a8fa"
				}
			},
			"storageLayout": {
				"storage": [
					{
						"astId": 4,
						"contract": "Contract/Constants.sol:Constants",
						"label": "gender_list",
						"offset": 0,
						"slot": "0",
						"type": "t_array(t_string_storage)dyn_storage"
					}
				],
				"types": {
					"t_array(t_string_storage)dyn_storage": {
						"base": "t_string_storage",
						"encoding": "dynamic_array",
						"label": "string[]",
						"numberOfBytes": "32"
					},
					"t_string_storage": {
						"encoding": "bytes",
						"label": "string",
						"numberOfBytes": "32"
					}
				}
			},
			"userdoc": {
				"kind": "user",
				"methods": {},
				"version": 1
			}
		}
	}
}