{
	"Contract/Auth,sol.sol": {
		"Auth": {
			"abi": [
				{
					"inputs": [],
					"stateMutability": "nonpayable",
					"type": "constructor"
				},
				{
					"inputs": [],
					"name": "adminAddress",
					"outputs": [
						{
							"internalType": "address",
							"name": "",
							"type": "address"
						}
					],
					"stateMutability": "view",
					"type": "function"
				},
				{
					"inputs": [
						{
							"internalType": "address",
							"name": "_id",
							"type": "address"
						}
					],
					"name": "isAdmin",
					"outputs": [
						{
							"internalType": "bool",
							"name": "",
							"type": "bool"
						}
					],
					"stateMutability": "view",
					"type": "function"
				}
			],
			"devdoc": {
				"kind": "dev",
				"methods": {},
				"version": 1
			},
			"evm": {
				"assembly": "    /* \"Contract/Auth,sol.sol\":56:277  contract Auth {... */\n  mstore(0x40, 0x80)\n    /* \"Contract/Auth,sol.sol\":114:169  constructor(){... */\n  callvalue\n  dup1\n  iszero\n  tag_1\n  jumpi\n  0x00\n  dup1\n  revert\ntag_1:\n  pop\n    /* \"Contract/Auth,sol.sol\":137:149  adminAddress */\n  0x00\n    /* \"Contract/Auth,sol.sol\":137:162  adminAddress = msg.sender */\n  dup1\n  sload\n  not(sub(shl(0xa0, 0x01), 0x01))\n  and\n    /* \"Contract/Auth,sol.sol\":152:162  msg.sender */\n  caller\n    /* \"Contract/Auth,sol.sol\":137:162  adminAddress = msg.sender */\n  or\n  swap1\n  sstore\n    /* \"Contract/Auth,sol.sol\":56:277  contract Auth {... */\n  dataSize(sub_0)\n  dup1\n  dataOffset(sub_0)\n  0x00\n  codecopy\n  0x00\n  return\nstop\n\nsub_0: assembly {\n        /* \"Contract/Auth,sol.sol\":56:277  contract Auth {... */\n      mstore(0x40, 0x80)\n      callvalue\n      dup1\n      iszero\n      tag_1\n      jumpi\n      0x00\n      dup1\n      revert\n    tag_1:\n      pop\n      jumpi(tag_2, lt(calldatasize, 0x04))\n      shr(0xe0, calldataload(0x00))\n      dup1\n      0x24d7806c\n      eq\n      tag_3\n      jumpi\n      dup1\n      0xfc6f9468\n      eq\n      tag_4\n      jumpi\n    tag_2:\n      0x00\n      dup1\n      revert\n        /* \"Contract/Auth,sol.sol\":175:274  function isAdmin(address _id) public view returns (bool){... */\n    tag_3:\n      tag_5\n      tag_6\n      calldatasize\n      0x04\n      tag_7\n      jump\t// in\n    tag_6:\n        /* \"Contract/Auth,sol.sol\":226:230  bool */\n      0x00\n        /* \"Contract/Auth,sol.sol\":255:267  adminAddress */\n      sload\n      sub(shl(0xa0, 0x01), 0x01)\n        /* \"Contract/Auth,sol.sol\":248:267  _id == adminAddress */\n      swap2\n      dup3\n      and\n        /* \"Contract/Auth,sol.sol\":255:267  adminAddress */\n      swap2\n      and\n        /* \"Contract/Auth,sol.sol\":248:267  _id == adminAddress */\n      eq\n      swap1\n        /* \"Contract/Auth,sol.sol\":175:274  function isAdmin(address _id) public view returns (bool){... */\n      jump\n    tag_5:\n      mload(0x40)\n        /* \"#utility.yul\":470:484   */\n      swap1\n      iszero\n        /* \"#utility.yul\":463:485   */\n      iszero\n        /* \"#utility.yul\":445:486   */\n      dup2\n      mstore\n        /* \"#utility.yul\":433:435   */\n      0x20\n        /* \"#utility.yul\":418:436   */\n      add\n        /* \"Contract/Auth,sol.sol\":175:274  function isAdmin(address _id) public view returns (bool){... */\n    tag_9:\n      mload(0x40)\n      dup1\n      swap2\n      sub\n      swap1\n      return\n        /* \"Contract/Auth,sol.sol\":76:103  address public adminAddress */\n    tag_4:\n      sload(0x00)\n      tag_11\n      swap1\n      sub(shl(0xa0, 0x01), 0x01)\n      and\n      dup2\n      jump\n    tag_11:\n      mload(0x40)\n      sub(shl(0xa0, 0x01), 0x01)\n        /* \"#utility.yul\":661:693   */\n      swap1\n      swap2\n      and\n        /* \"#utility.yul\":643:694   */\n      dup2\n      mstore\n        /* \"#utility.yul\":631:633   */\n      0x20\n        /* \"#utility.yul\":616:634   */\n      add\n        /* \"Contract/Auth,sol.sol\":76:103  address public adminAddress */\n      tag_9\n        /* \"#utility.yul\":497:700   */\n      jump\n        /* \"#utility.yul\":14:300   */\n    tag_7:\n        /* \"#utility.yul\":73:79   */\n      0x00\n        /* \"#utility.yul\":126:128   */\n      0x20\n        /* \"#utility.yul\":114:123   */\n      dup3\n        /* \"#utility.yul\":105:112   */\n      dup5\n        /* \"#utility.yul\":101:124   */\n      sub\n        /* \"#utility.yul\":97:129   */\n      slt\n        /* \"#utility.yul\":94:146   */\n      iszero\n      tag_18\n      jumpi\n        /* \"#utility.yul\":142:143   */\n      0x00\n        /* \"#utility.yul\":139:140   */\n      dup1\n        /* \"#utility.yul\":132:144   */\n      revert\n        /* \"#utility.yul\":94:146   */\n    tag_18:\n        /* \"#utility.yul\":168:191   */\n      dup2\n      calldataload\n      sub(shl(0xa0, 0x01), 0x01)\n        /* \"#utility.yul\":220:251   */\n      dup2\n      and\n        /* \"#utility.yul\":210:252   */\n      dup2\n      eq\n        /* \"#utility.yul\":200:270   */\n      tag_19\n      jumpi\n        /* \"#utility.yul\":266:267   */\n      0x00\n        /* \"#utility.yul\":263:264   */\n      dup1\n        /* \"#utility.yul\":256:268   */\n      revert\n        /* \"#utility.yul\":200:270   */\n    tag_19:\n        /* \"#utility.yul\":289:294   */\n      swap4\n        /* \"#utility.yul\":14:300   */\n      swap3\n      pop\n      pop\n      pop\n      jump\t// out\n\n    auxdata: 0xa26469706673582212206a40293ed99fc9d9747c668665ac4e572a03fe3464583c35bb5f80876deab00864736f6c63430008110033\n}\n",
				"bytecode": {
					"linkReferences": {},
					"object": "608060405234801561001057600080fd5b50600080546001600160a01b0319163317905560f8806100316000396000f3fe6080604052348015600f57600080fd5b506004361060325760003560e01c806324d7806c146037578063fc6f946814606b575b600080fd5b605660423660046094565b6000546001600160a01b0391821691161490565b60405190151581526020015b60405180910390f35b600054607d906001600160a01b031681565b6040516001600160a01b0390911681526020016062565b60006020828403121560a557600080fd5b81356001600160a01b038116811460bb57600080fd5b939250505056fea26469706673582212206a40293ed99fc9d9747c668665ac4e572a03fe3464583c35bb5f80876deab00864736f6c63430008110033",
					"opcodes": "PUSH1 0x80 PUSH1 0x40 MSTORE CALLVALUE DUP1 ISZERO PUSH2 0x10 JUMPI PUSH1 0x0 DUP1 REVERT JUMPDEST POP PUSH1 0x0 DUP1 SLOAD PUSH1 0x1 PUSH1 0x1 PUSH1 0xA0 SHL SUB NOT AND CALLER OR SWAP1 SSTORE PUSH1 0xF8 DUP1 PUSH2 0x31 PUSH1 0x0 CODECOPY PUSH1 0x0 RETURN INVALID PUSH1 0x80 PUSH1 0x40 MSTORE CALLVALUE DUP1 ISZERO PUSH1 0xF JUMPI PUSH1 0x0 DUP1 REVERT JUMPDEST POP PUSH1 0x4 CALLDATASIZE LT PUSH1 0x32 JUMPI PUSH1 0x0 CALLDATALOAD PUSH1 0xE0 SHR DUP1 PUSH4 0x24D7806C EQ PUSH1 0x37 JUMPI DUP1 PUSH4 0xFC6F9468 EQ PUSH1 0x6B JUMPI JUMPDEST PUSH1 0x0 DUP1 REVERT JUMPDEST PUSH1 0x56 PUSH1 0x42 CALLDATASIZE PUSH1 0x4 PUSH1 0x94 JUMP JUMPDEST PUSH1 0x0 SLOAD PUSH1 0x1 PUSH1 0x1 PUSH1 0xA0 SHL SUB SWAP2 DUP3 AND SWAP2 AND EQ SWAP1 JUMP JUMPDEST PUSH1 0x40 MLOAD SWAP1 ISZERO ISZERO DUP2 MSTORE PUSH1 0x20 ADD JUMPDEST PUSH1 0x40 MLOAD DUP1 SWAP2 SUB SWAP1 RETURN JUMPDEST PUSH1 0x0 SLOAD PUSH1 0x7D SWAP1 PUSH1 0x1 PUSH1 0x1 PUSH1 0xA0 SHL SUB AND DUP2 JUMP JUMPDEST PUSH1 0x40 MLOAD PUSH1 0x1 PUSH1 0x1 PUSH1 0xA0 SHL SUB SWAP1 SWAP2 AND DUP2 MSTORE PUSH1 0x20 ADD PUSH1 0x62 JUMP JUMPDEST PUSH1 0x0 PUSH1 0x20 DUP3 DUP5 SUB SLT ISZERO PUSH1 0xA5 JUMPI PUSH1 0x0 DUP1 REVERT JUMPDEST DUP2 CALLDATALOAD PUSH1 0x1 PUSH1 0x1 PUSH1 0xA0 SHL SUB DUP2 AND DUP2 EQ PUSH1 0xBB JUMPI PUSH1 0x0 DUP1 REVERT JUMPDEST SWAP4 SWAP3 POP POP POP JUMP INVALID LOG2 PUSH5 0x6970667358 0x22 SLT KECCAK256 PUSH11 0x40293ED99FC9D9747C6686 PUSH6 0xAC4E572A03FE CALLVALUE PUSH5 0x583C35BB5F DUP1 DUP8 PUSH14 0xEAB00864736F6C63430008110033 "
				},
				"gasEstimates": {
					"creation": {
						"codeDepositCost": "49600",
						"executionCost": "24334",
						"totalCost": "73934"
					},
					"external": {
						"adminAddress()": "2337",
						"isAdmin(address)": "2424"
					}
				},
				"methodIdentifiers": {
					"adminAddress()": "fc6f9468",
					"isAdmin(address)": "24d7806c"
				}
			},
			"storageLayout": {
				"storage": [
					{
						"astId": 3,
						"contract": "Contract/Auth,sol.sol:Auth",
						"label": "adminAddress",
						"offset": 0,
						"slot": "0",
						"type": "t_address"
					}
				],
				"types": {
					"t_address": {
						"encoding": "inplace",
						"label": "address",
						"numberOfBytes": "20"
					}
				}
			},
			"userdoc": {
				"kind": "user",
				"methods": {},
				"version": 1
			}
		}
	}
}