{
	"Contract/Party.sol": {
		"Party": {
			"abi": [
				{
					"inputs": [],
					"name": "getAllParties",
					"outputs": [
						{
							"components": [
								{
									"internalType": "address",
									"name": "owner",
									"type": "address"
								},
								{
									"internalType": "string",
									"name": "name",
									"type": "string"
								},
								{
									"internalType": "uint256",
									"name": "totalMember",
									"type": "uint256"
								},
								{
									"internalType": "string",
									"name": "agenda",
									"type": "string"
								},
								{
									"internalType": "string",
									"name": "logoUrl",
									"type": "string"
								},
								{
									"internalType": "address[]",
									"name": "members",
									"type": "address[]"
								}
							],
							"internalType": "struct Structure.Party[]",
							"name": "",
							"type": "tuple[]"
						}
					],
					"stateMutability": "view",
					"type": "function"
				},
				{
					"inputs": [
						{
							"internalType": "address",
							"name": "owner",
							"type": "address"
						}
					],
					"name": "getPartyDetails",
					"outputs": [
						{
							"components": [
								{
									"internalType": "address",
									"name": "owner",
									"type": "address"
								},
								{
									"internalType": "string",
									"name": "name",
									"type": "string"
								},
								{
									"internalType": "uint256",
									"name": "totalMember",
									"type": "uint256"
								},
								{
									"internalType": "string",
									"name": "agenda",
									"type": "string"
								},
								{
									"internalType": "string",
									"name": "logoUrl",
									"type": "string"
								},
								{
									"internalType": "address[]",
									"name": "members",
									"type": "address[]"
								}
							],
							"internalType": "struct Structure.Party",
							"name": "",
							"type": "tuple"
						}
					],
					"stateMutability": "view",
					"type": "function"
				},
				{
					"inputs": [
						{
							"internalType": "address",
							"name": "",
							"type": "address"
						}
					],
					"name": "parties",
					"outputs": [
						{
							"internalType": "address",
							"name": "owner",
							"type": "address"
						},
						{
							"internalType": "string",
							"name": "name",
							"type": "string"
						},
						{
							"internalType": "uint256",
							"name": "totalMember",
							"type": "uint256"
						},
						{
							"internalType": "string",
							"name": "agenda",
							"type": "string"
						},
						{
							"internalType": "string",
							"name": "logoUrl",
							"type": "string"
						}
					],
					"stateMutability": "view",
					"type": "function"
				},
				{
					"inputs": [
						{
							"internalType": "uint256",
							"name": "",
							"type": "uint256"
						}
					],
					"name": "partyList",
					"outputs": [
						{
							"internalType": "address",
							"name": "owner",
							"type": "address"
						},
						{
							"internalType": "string",
							"name": "name",
							"type": "string"
						},
						{
							"internalType": "uint256",
							"name": "totalMember",
							"type": "uint256"
						},
						{
							"internalType": "string",
							"name": "agenda",
							"type": "string"
						},
						{
							"internalType": "string",
							"name": "logoUrl",
							"type": "string"
						}
					],
					"stateMutability": "view",
					"type": "function"
				},
				{
					"inputs": [
						{
							"internalType": "uint256",
							"name": "",
							"type": "uint256"
						}
					],
					"name": "partyNames",
					"outputs": [
						{
							"internalType": "string",
							"name": "",
							"type": "string"
						}
					],
					"stateMutability": "view",
					"type": "function"
				}
			],
			"devdoc": {
				"kind": "dev",
				"methods": {},
				"version": 1
			},
			"evm": {
				"assembly": "    /* \"Contract/Party.sol\":194:639  contract Party is Structure{... */\n  0x80\n  dup1\n  0x40\n  mstore\n  jumpi(tag_1, callvalue)\n  dataSize(sub_0)\n  swap1\n  dup2\n  dataOffset(sub_0)\n  dup3\n  codecopy\n  return\ntag_1:\n  0x00\n  dup1\n  revert\nstop\n\nsub_0: assembly {\n        /* \"Contract/Party.sol\":194:639  contract Party is Structure{... */\n      0x80\n      0x40\n      dup2\n      dup2\n      mstore\n      0x04\n      dup1\n      calldatasize\n      lt\n      iszero\n      tag_8\n      jumpi\n      0x00\n      dup1\n      revert\n    tag_8:\n      0x00\n      swap3\n      dup4\n      calldataload\n      0xe0\n      shr\n      swap1\n      dup2\n      0xda7228\n      eq\n      tag_10\n      jumpi\n      pop\n      dup1\n      0x4f235207\n      eq\n      tag_12\n      jumpi\n      dup1\n      0x640e79b7\n      eq\n      tag_14\n      jumpi\n      dup1\n      0xb867bfcc\n      eq\n      tag_16\n      jumpi\n      0xf3845166\n      eq\n      tag_18\n      jumpi\n      0x00\n      dup1\n      revert\n    tag_18:\n      jumpi(tag_24, callvalue)\n      jumpi(tag_24, slt(add(not(0x03), calldatasize), 0x20))\n      calldataload\n        /* \"Contract/Party.sol\":369:395  string[] public partyNames */\n      0x02\n        /* \"Contract/Party.sol\":194:639  contract Party is Structure{... */\n      sload\n        /* \"Contract/Party.sol\":369:395  string[] public partyNames */\n      dup2\n      lt\n      iszero\n      tag_24\n      jumpi\n        /* \"Contract/Party.sol\":194:639  contract Party is Structure{... */\n      tag_26\n      swap1\n        /* \"Contract/Party.sol\":369:395  string[] public partyNames */\n      0x02\n        /* \"Contract/Party.sol\":194:639  contract Party is Structure{... */\n      tag_27\n      swap5\n      mstore\n      0x405787fa12a823e0f2b7631cc41b3ba8828b3321ca811111fa75cd3aa3bb5ace\n      add\n      tag_5\n      jump\t// in\n    tag_26:\n      swap1\n      mload\n      swap2\n      dup3\n      swap2\n      0x20\n      dup4\n      mstore\n      0x20\n      dup4\n      add\n      swap1\n      tag_1\n      jump\t// in\n    tag_27:\n      sub\n      swap1\n      return\n        /* \"Contract/Party.sol\":369:395  string[] public partyNames */\n    tag_24:\n      dup3\n      dup1\n      revert\n        /* \"Contract/Party.sol\":194:639  contract Party is Structure{... */\n    tag_16:\n      pop\n      dup3\n      swap1\n      jumpi(tag_30, callvalue)\n      dup2\n      add(calldatasize, not(0x03))\n      slt\n      tag_30\n      jumpi\n        /* \"Contract/Party.sol\":504:513  partyList */\n      0x01\n        /* \"Contract/Party.sol\":194:639  contract Party is Structure{... */\n      swap3\n      dup4\n      sload\n      swap2\n      0xffffffffffffffff\n      dup4\n      gt\n      tag_32\n      jumpi\n      pop\n      dup4\n      dup4\n      dup3\n      mload\n      0x20\n      tag_34\n      dup2\n      dup8\n      0x05\n      shl\n      add\n      dup4\n      tag_4\n      jump\t// in\n    tag_34:\n      dup6\n      dup3\n      mstore\n      dup4\n      dup4\n      mstore\n      dup1\n      dup3\n      add\n      swap6\n      dup4\n      0xb10e2d527612073b26eecdfd717e6a320cf44b4afac2b0732d9fcbe2b7fa0cf6\n      dup9\n    tag_35:\n      dup4\n      dup4\n      lt\n      tag_36\n      jumpi\n      pop\n      pop\n      pop\n      pop\n      dup5\n      mload\n      swap5\n      dup2\n      dup7\n      add\n      swap3\n      dup3\n      dup8\n      mstore\n      mload\n      dup1\n      swap4\n      mstore\n      dup1\n      dup7\n      add\n      swap1\n      dup4\n      0x05\n      shl\n      dup8\n      add\n      add\n      swap7\n      swap4\n      swap1\n    tag_38:\n      dup4\n      dup3\n      lt\n      tag_39\n      jumpi\n      dup7\n      dup9\n      sub\n      dup8\n      return\n    tag_39:\n      swap1\n      swap2\n      swap3\n      swap4\n      swap5\n      dup4\n      dup1\n      tag_41\n      dup4\n      swap11\n      not(0x3f)\n      dup12\n      dup3\n      sub\n      add\n      dup7\n      mstore\n      dup10\n      mload\n      tag_2\n      jump\t// in\n    tag_41:\n      swap10\n      swap8\n      add\n      swap6\n      swap5\n      swap4\n      swap2\n      swap1\n      swap2\n      add\n      swap2\n      add\n      jump(tag_38)\n    tag_36:\n      swap7\n      0x06\n      dup6\n      dup3\n      swap12\n      swap10\n      tag_42\n      dup6\n      swap13\n      swap9\n      swap10\n      swap11\n      swap13\n      tag_7\n      jump\t// in\n    tag_42:\n      dup2\n      mstore\n      add\n      swap3\n      add\n      swap3\n      add\n      swap2\n      swap1\n      swap9\n      swap7\n      swap9\n      swap8\n      swap6\n      swap5\n      swap4\n      swap8\n      jump(tag_35)\n    tag_32:\n      shl(0xe0, 0x4e487b71)\n      dup5\n      mstore\n      0x41\n      swap1\n      mstore\n      0x24\n      dup4\n      revert\n    tag_30:\n      pop\n      dup1\n      revert\n    tag_14:\n      pop\n      jumpi(tag_24, callvalue)\n      jumpi(tag_24, slt(add(not(0x03), calldatasize), 0x20))\n      calldataload\n      sload(0x01)\n        /* \"Contract/Party.sol\":339:363  Party[] public partyList */\n      dup2\n      lt\n      iszero\n      tag_24\n      jumpi\n        /* \"Contract/Party.sol\":194:639  contract Party is Structure{... */\n      0x01\n      0x06\n      swap3\n      swap4\n      mstore\n      mul\n      swap1\n      tag_27\n      0x01\n      dup1\n      0xa0\n      shl\n      sub\n      dup4\n      0xb10e2d527612073b26eecdfd717e6a320cf44b4afac2b0732d9fcbe2b7fa0cf6\n      add\n      sload\n      and\n        /* \"Contract/Party.sol\":339:363  Party[] public partyList */\n      swap2\n      tag_50\n      0xb10e2d527612073b26eecdfd717e6a320cf44b4afac2b0732d9fcbe2b7fa0cf7\n      dup6\n      add\n      tag_5\n      jump\t// in\n    tag_50:\n      swap4\n      0xb10e2d527612073b26eecdfd717e6a320cf44b4afac2b0732d9fcbe2b7fa0cf8\n      dup2\n      add\n        /* \"Contract/Party.sol\":194:639  contract Party is Structure{... */\n      sload\n        /* \"Contract/Party.sol\":339:363  Party[] public partyList */\n      tag_51\n      0xb10e2d527612073b26eecdfd717e6a320cf44b4afac2b0732d9fcbe2b7fa0cfa\n      tag_52\n      0xb10e2d527612073b26eecdfd717e6a320cf44b4afac2b0732d9fcbe2b7fa0cf9\n      dup6\n      add\n      tag_5\n      jump\t// in\n    tag_52:\n      swap4\n      add\n      tag_5\n      jump\t// in\n    tag_51:\n        /* \"Contract/Party.sol\":194:639  contract Party is Structure{... */\n      swap3\n      mload\n      swap6\n      dup7\n      swap6\n      dup7\n      tag_6\n      jump\t// in\n    tag_12:\n      pop\n      swap2\n      swap1\n      jumpi(tag_30, callvalue)\n      jumpi(tag_30, slt(add(not(0x03), calldatasize), 0x20))\n      sub(shl(0xa0, 0x01), 0x01)\n      swap2\n      dup4\n      calldataload\n      dup4\n      dup2\n      and\n      swap1\n      dup2\n      swap1\n      sub\n      tag_30\n      jumpi\n      swap2\n      dup2\n      tag_27\n      swap4\n      dup3\n      swap4\n      mstore\n      dup1\n      0x20\n      mstore\n      keccak256\n      swap3\n      dup4\n      sload\n      and\n        /* \"Contract/Party.sol\":277:318  mapping (address => Party) public parties */\n      swap3\n      tag_60\n        /* \"Contract/Party.sol\":194:639  contract Party is Structure{... */\n      0x01\n        /* \"Contract/Party.sol\":277:318  mapping (address => Party) public parties */\n      dup3\n      add\n      tag_5\n      jump\t// in\n    tag_60:\n      swap5\n      tag_51\n      0x02\n      dup4\n      add\n        /* \"Contract/Party.sol\":194:639  contract Party is Structure{... */\n      sload\n        /* \"Contract/Party.sol\":277:318  mapping (address => Party) public parties */\n      swap2\n      tag_52\n        /* \"Contract/Party.sol\":194:639  contract Party is Structure{... */\n      0x03\n        /* \"Contract/Party.sol\":277:318  mapping (address => Party) public parties */\n      dup6\n      add\n      tag_5\n      jump\t// in\n        /* \"Contract/Party.sol\":194:639  contract Party is Structure{... */\n    tag_10:\n      swap2\n      swap1\n      pop\n      jumpi(tag_67, callvalue)\n      jumpi(tag_67, slt(add(not(0x03), calldatasize), 0x20))\n      calldataload\n      sub(shl(0xa0, 0x01), 0x01)\n      dup2\n      and\n      swap2\n      swap1\n      dup3\n      swap1\n      sub\n      tag_67\n      jumpi\n      tag_27\n      swap4\n      tag_70\n      swap3\n      0x60\n      0xa0\n      dup5\n      tag_71\n      dup9\n      swap7\n      tag_3\n      jump\t// in\n    tag_71:\n      dup5\n      dup2\n      mstore\n      dup3\n      0x20\n      dup3\n      add\n      mstore\n      dup5\n      dup7\n      dup3\n      add\n      mstore\n      dup3\n      dup1\n      dup3\n      add\n      mstore\n      dup3\n      0x80\n      dup3\n      add\n      mstore\n      add\n      mstore\n      dup2\n      mstore\n      dup1\n      0x20\n      mstore\n      keccak256\n      tag_7\n      jump\t// in\n    tag_70:\n      swap1\n      mload\n      swap2\n      dup3\n      swap2\n      0x20\n      dup4\n      mstore\n      0x20\n      dup4\n      add\n      swap1\n      tag_2\n      jump\t// in\n    tag_67:\n      dup4\n      dup1\n      revert\n    tag_1:\n      swap2\n      swap1\n      dup3\n      mload\n      swap3\n      dup4\n      dup3\n      mstore\n      0x00\n    tag_72:\n      dup5\n      dup2\n      lt\n      tag_73\n      jumpi\n      pop\n      pop\n      dup3\n      0x00\n      0x20\n      dup1\n      swap5\n      swap6\n      dup5\n      add\n      add\n      mstore\n      0x1f\n      dup1\n      not\n      swap2\n      add\n      and\n      add\n      add\n      swap1\n      jump\t// out\n    tag_73:\n      0x20\n      dup2\n      dup4\n      add\n      dup2\n      add\n      mload\n      dup5\n      dup4\n      add\n      dup3\n      add\n      mstore\n      add\n      jump(tag_72)\n    tag_2:\n      0x01\n      dup1\n      0xa0\n      shl\n      sub\n      swap1\n      dup2\n      dup2\n      mload\n      and\n      dup4\n      mstore\n      0x20\n      swap1\n      0xa0\n      tag_75\n      tag_76\n      tag_77\n      dup6\n      dup6\n      add\n      mload\n      0xc0\n      dup8\n      dup11\n      add\n      mstore\n      0xc0\n      dup10\n      add\n      swap1\n      tag_1\n      jump\t// in\n    tag_77:\n      0x40\n      dup6\n      add\n      mload\n      0x40\n      dup10\n      add\n      mstore\n      0x60\n      dup6\n      add\n      mload\n      dup9\n      dup3\n      sub\n      0x60\n      dup11\n      add\n      mstore\n      tag_1\n      jump\t// in\n    tag_76:\n      0x80\n      dup5\n      add\n      mload\n      dup8\n      dup3\n      sub\n      0x80\n      dup10\n      add\n      mstore\n      tag_1\n      jump\t// in\n    tag_75:\n      swap2\n      add\n      mload\n      swap4\n      0xa0\n      dup2\n      dup4\n      sub\n      swap2\n      add\n      mstore\n      dup2\n      dup1\n      dup6\n      mload\n      swap3\n      dup4\n      dup2\n      mstore\n      add\n      swap5\n      add\n      swap2\n      0x00\n    tag_78:\n      dup3\n      dup2\n      lt\n      tag_79\n      jumpi\n      pop\n      pop\n      pop\n      pop\n      pop\n      swap1\n      jump\t// out\n    tag_79:\n      dup4\n      mload\n      dup6\n      and\n      dup7\n      mstore\n      swap5\n      dup2\n      add\n      swap5\n      swap3\n      dup2\n      add\n      swap3\n      0x01\n      add\n      jump(tag_78)\n    tag_3:\n      0xc0\n      dup2\n      add\n      swap1\n      dup2\n      lt\n      0xffffffffffffffff\n      dup3\n      gt\n      or\n      tag_81\n      jumpi\n      0x40\n      mstore\n      jump\t// out\n    tag_81:\n      mstore(0x00, shl(0xe0, 0x4e487b71))\n      mstore(0x04, 0x41)\n      revert(0x00, 0x24)\n    tag_4:\n      swap1\n      0x1f\n      dup1\n      not\n      swap2\n      add\n      and\n      dup2\n      add\n      swap1\n      dup2\n      lt\n      0xffffffffffffffff\n      dup3\n      gt\n      or\n      tag_81\n      jumpi\n      0x40\n      mstore\n      jump\t// out\n    tag_5:\n      swap1\n      mload(0x40)\n      swap1\n      0x00\n      dup4\n      sload\n      swap1\n      0x01\n      dup3\n      dup2\n      shr\n      swap1\n      dup1\n      dup5\n      and\n      swap7\n      dup8\n      iszero\n      tag_85\n      jumpi\n    tag_86:\n      0x20\n      swap5\n      dup6\n      dup5\n      lt\n      dup10\n      eq\n      tag_87\n      jumpi\n      dup8\n      swap9\n      dup5\n      dup10\n      swap8\n      swap9\n      swap10\n      mstore\n      swap1\n      dup2\n      0x00\n      eq\n      tag_89\n      jumpi\n      pop\n      0x01\n      eq\n      tag_91\n      jumpi\n    tag_92:\n      pop\n      pop\n      pop\n      tag_93\n      swap3\n      pop\n      sub\n      dup4\n      tag_4\n      jump\t// in\n    tag_93:\n      jump\t// out\n    tag_91:\n      0x00\n      swap1\n      dup2\n      mstore\n      dup6\n      dup2\n      keccak256\n      swap6\n      swap4\n      pop\n      swap2\n      swap1\n    tag_94:\n      dup2\n      dup4\n      lt\n      tag_95\n      jumpi\n      pop\n      pop\n      tag_93\n      swap4\n      pop\n      dup3\n      add\n      add\n      codesize\n      dup1\n      dup1\n      jump(tag_92)\n    tag_95:\n      dup6\n      sload\n      dup9\n      dup5\n      add\n      dup6\n      add\n      mstore\n      swap5\n      dup6\n      add\n      swap5\n      dup8\n      swap5\n      pop\n      swap2\n      dup4\n      add\n      swap2\n      jump(tag_94)\n    tag_89:\n      swap3\n      pop\n      pop\n      pop\n      tag_93\n      swap5\n      swap3\n      pop\n      not(0xff)\n      and\n      dup3\n      dup5\n      add\n      mstore\n      iszero\n      iszero\n      0x05\n      shl\n      dup3\n      add\n      add\n      codesize\n      dup1\n      dup1\n      jump(tag_92)\n    tag_87:\n      shl(0xe0, 0x4e487b71)\n      dup6\n      mstore\n      mstore(0x04, 0x22)\n      0x24\n      dup6\n      revert\n    tag_85:\n      swap2\n      0x7f\n      and\n      swap2\n      jump(tag_86)\n    tag_6:\n      swap4\n      tag_97\n      tag_98\n      swap4\n      tag_99\n      swap8\n      swap6\n      swap4\n      0x01\n      dup1\n      0xa0\n      shl\n      sub\n      and\n      dup8\n      mstore\n      0xa0\n      0x20\n      dup9\n      add\n      mstore\n      0xa0\n      dup8\n      add\n      swap1\n      tag_1\n      jump\t// in\n    tag_97:\n      swap2\n      0x40\n      dup7\n      add\n      mstore\n      dup5\n      dup3\n      sub\n      0x60\n      dup7\n      add\n      mstore\n      tag_1\n      jump\t// in\n    tag_98:\n      swap2\n      0x80\n      dup2\n      dup5\n      sub\n      swap2\n      add\n      mstore\n      tag_1\n      jump\t// in\n    tag_99:\n      swap1\n      jump\t// out\n    tag_7:\n      swap1\n      mload(0x40)\n      swap2\n      tag_100\n      dup4\n      tag_3\n      jump\t// in\n    tag_100:\n      dup1\n      sload\n      sub(shl(0xa0, 0x01), 0x01)\n      swap1\n      dup2\n      and\n      dup5\n      mstore\n      0x01\n      swap2\n      dup5\n      swap2\n      swap1\n      0x05\n      tag_101\n      dup3\n      dup7\n      add\n      tag_5\n      jump\t// in\n    tag_101:\n      swap2\n      0x20\n      swap3\n      dup4\n      dup7\n      add\n      mstore\n      0x02\n      dup2\n      add\n      sload\n      0x40\n      dup7\n      add\n      mstore\n      tag_102\n      0x03\n      dup3\n      add\n      tag_5\n      jump\t// in\n    tag_102:\n      0x60\n      dup7\n      add\n      mstore\n      tag_103\n      0x04\n      dup3\n      add\n      tag_5\n      jump\t// in\n    tag_103:\n      0x80\n      dup7\n      add\n      mstore\n      add\n      swap1\n      mload(0x40)\n      swap5\n      dup6\n      dup7\n      swap5\n      dup4\n      dup6\n      sload\n      swap3\n      dup4\n      dup2\n      mstore\n      add\n      swap5\n      0x00\n      mstore\n      dup4\n      0x00\n      keccak256\n      swap4\n      0x00\n      swap2\n    tag_104:\n      dup4\n      dup4\n      lt\n      tag_105\n      jumpi\n      pop\n      pop\n      pop\n      pop\n      pop\n      pop\n      0xa0\n      swap3\n      swap2\n      tag_107\n      swap2\n      sub\n      dup5\n      tag_4\n      jump\t// in\n    tag_107:\n      add\n      mstore\n      jump\t// out\n    tag_105:\n      dup6\n      sload\n      dup2\n      and\n      dup8\n      mstore\n      dup10\n      swap8\n      pop\n      swap6\n      dup2\n      add\n      swap6\n      swap5\n      dup5\n      add\n      swap5\n      swap2\n      dup5\n      add\n      swap2\n      jump(tag_104)\n\n    auxdata: 0xa2646970667358221220e803ebe28566e09f218316e837a8d86817f4ec548f97c60605b79f720e4acafe64736f6c63430008110033\n}\n",
				"bytecode": {
					"linkReferences": {},
					"object": "60808060405234610016576106f7908161001c8239f35b600080fdfe6080604081815260048036101561001557600080fd5b600092833560e01c908162da722814610338575080634f235207146102d9578063640e79b7146101d2578063b867bfcc146100c25763f38451661461005957600080fd5b346100be5760203660031901126100be57356002548110156100be576100a79060026100ba94527f405787fa12a823e0f2b7631cc41b3ba8828b3321ca811111fa75cd3aa3bb5ace016104e7565b90519182916020835260208301906103b5565b0390f35b8280fd5b508290346101ce57816003193601126101ce5760019283549167ffffffffffffffff83116101bb5750838382516020610100818760051b01836104c5565b85825283835280820195837fb10e2d527612073b26eecdfd717e6a320cf44b4afac2b0732d9fcbe2b7fa0cf6885b83831061019057505050508451948186019282875251809352808601908360051b8701019693905b8382106101635786880387f35b9091929394838061017f839a603f198b820301865289516103f5565b999701959493919091019101610156565b96600685829b996101a5859c98999a9c610605565b815201920192019190989698979594939761012e565b634e487b7160e01b845260419052602483fd5b5080fd5b50346100be5760203660031901126100be57356001548110156100be576001600692935202906100ba60018060a01b03837fb10e2d527612073b26eecdfd717e6a320cf44b4afac2b0732d9fcbe2b7fa0cf6015416916102537fb10e2d527612073b26eecdfd717e6a320cf44b4afac2b0732d9fcbe2b7fa0cf785016104e7565b937fb10e2d527612073b26eecdfd717e6a320cf44b4afac2b0732d9fcbe2b7fa0cf88101546102ce7fb10e2d527612073b26eecdfd717e6a320cf44b4afac2b0732d9fcbe2b7fa0cfa6102c77fb10e2d527612073b26eecdfd717e6a320cf44b4afac2b0732d9fcbe2b7fa0cf985016104e7565b93016104e7565b9251958695866105b8565b509190346101ce5760203660031901126101ce576001600160a01b03918335838116908190036101ce5791816100ba9382935280602052209283541692610322600182016104e7565b946102ce6002830154916102c7600385016104e7565b919050346103b15760203660031901126103b157356001600160a01b03811691908290036103b1576100ba9361039e92606060a0846103778896610493565b84815282602082015284868201528280820152826080820152015281528060205220610605565b90519182916020835260208301906103f5565b8380fd5b919082519283825260005b8481106103e1575050826000602080949584010152601f8019910116010190565b6020818301810151848301820152016103c0565b60018060a01b039081815116835260209060a06104536104416104258585015160c0878a015260c08901906103b5565b60408501516040890152606085015188820360608a01526103b5565b608084015187820360808901526103b5565b9101519360a081830391015281808551928381520194019160005b82811061047d57505050505090565b835185168652948101949281019260010161046e565b60c0810190811067ffffffffffffffff8211176104af57604052565b634e487b7160e01b600052604160045260246000fd5b90601f8019910116810190811067ffffffffffffffff8211176104af57604052565b90604051906000835490600182811c908084169687156105ae575b602094858410891461059a57879884899798995290816000146105785750600114610539575b505050610537925003836104c5565b565b600090815285812095935091905b8183106105605750506105379350820101388080610528565b85548884018501529485019487945091830191610547565b9250505061053794925060ff191682840152151560051b820101388080610528565b634e487b7160e01b85526022600452602485fd5b91607f1691610502565b936105e16105f49361060297959360018060a01b0316875260a0602088015260a08701906103b5565b91604086015284820360608601526103b5565b9160808184039101526103b5565b90565b906040519161061383610493565b80546001600160a01b03908116845260019184919060056106358286016104e7565b916020928386015260028101546040860152610653600382016104e7565b6060860152610664600482016104e7565b608086015201906040519485869483855492838152019460005283600020936000915b8383106106a75750505050505060a092916106a39103846104c5565b0152565b85548116875289975095810195948401949184019161068756fea2646970667358221220e803ebe28566e09f218316e837a8d86817f4ec548f97c60605b79f720e4acafe64736f6c63430008110033",
					"opcodes": "PUSH1 0x80 DUP1 PUSH1 0x40 MSTORE CALLVALUE PUSH2 0x16 JUMPI PUSH2 0x6F7 SWAP1 DUP2 PUSH2 0x1C DUP3 CODECOPY RETURN JUMPDEST PUSH1 0x0 DUP1 REVERT INVALID PUSH1 0x80 PUSH1 0x40 DUP2 DUP2 MSTORE PUSH1 0x4 DUP1 CALLDATASIZE LT ISZERO PUSH2 0x15 JUMPI PUSH1 0x0 DUP1 REVERT JUMPDEST PUSH1 0x0 SWAP3 DUP4 CALLDATALOAD PUSH1 0xE0 SHR SWAP1 DUP2 PUSH3 0xDA7228 EQ PUSH2 0x338 JUMPI POP DUP1 PUSH4 0x4F235207 EQ PUSH2 0x2D9 JUMPI DUP1 PUSH4 0x640E79B7 EQ PUSH2 0x1D2 JUMPI DUP1 PUSH4 0xB867BFCC EQ PUSH2 0xC2 JUMPI PUSH4 0xF3845166 EQ PUSH2 0x59 JUMPI PUSH1 0x0 DUP1 REVERT JUMPDEST CALLVALUE PUSH2 0xBE JUMPI PUSH1 0x20 CALLDATASIZE PUSH1 0x3 NOT ADD SLT PUSH2 0xBE JUMPI CALLDATALOAD PUSH1 0x2 SLOAD DUP2 LT ISZERO PUSH2 0xBE JUMPI PUSH2 0xA7 SWAP1 PUSH1 0x2 PUSH2 0xBA SWAP5 MSTORE PUSH32 0x405787FA12A823E0F2B7631CC41B3BA8828B3321CA811111FA75CD3AA3BB5ACE ADD PUSH2 0x4E7 JUMP JUMPDEST SWAP1 MLOAD SWAP2 DUP3 SWAP2 PUSH1 0x20 DUP4 MSTORE PUSH1 0x20 DUP4 ADD SWAP1 PUSH2 0x3B5 JUMP JUMPDEST SUB SWAP1 RETURN JUMPDEST DUP3 DUP1 REVERT JUMPDEST POP DUP3 SWAP1 CALLVALUE PUSH2 0x1CE JUMPI DUP2 PUSH1 0x3 NOT CALLDATASIZE ADD SLT PUSH2 0x1CE JUMPI PUSH1 0x1 SWAP3 DUP4 SLOAD SWAP2 PUSH8 0xFFFFFFFFFFFFFFFF DUP4 GT PUSH2 0x1BB JUMPI POP DUP4 DUP4 DUP3 MLOAD PUSH1 0x20 PUSH2 0x100 DUP2 DUP8 PUSH1 0x5 SHL ADD DUP4 PUSH2 0x4C5 JUMP JUMPDEST DUP6 DUP3 MSTORE DUP4 DUP4 MSTORE DUP1 DUP3 ADD SWAP6 DUP4 PUSH32 0xB10E2D527612073B26EECDFD717E6A320CF44B4AFAC2B0732D9FCBE2B7FA0CF6 DUP9 JUMPDEST DUP4 DUP4 LT PUSH2 0x190 JUMPI POP POP POP POP DUP5 MLOAD SWAP5 DUP2 DUP7 ADD SWAP3 DUP3 DUP8 MSTORE MLOAD DUP1 SWAP4 MSTORE DUP1 DUP7 ADD SWAP1 DUP4 PUSH1 0x5 SHL DUP8 ADD ADD SWAP7 SWAP4 SWAP1 JUMPDEST DUP4 DUP3 LT PUSH2 0x163 JUMPI DUP7 DUP9 SUB DUP8 RETURN JUMPDEST SWAP1 SWAP2 SWAP3 SWAP4 SWAP5 DUP4 DUP1 PUSH2 0x17F DUP4 SWAP11 PUSH1 0x3F NOT DUP12 DUP3 SUB ADD DUP7 MSTORE DUP10 MLOAD PUSH2 0x3F5 JUMP JUMPDEST SWAP10 SWAP8 ADD SWAP6 SWAP5 SWAP4 SWAP2 SWAP1 SWAP2 ADD SWAP2 ADD PUSH2 0x156 JUMP JUMPDEST SWAP7 PUSH1 0x6 DUP6 DUP3 SWAP12 SWAP10 PUSH2 0x1A5 DUP6 SWAP13 SWAP9 SWAP10 SWAP11 SWAP13 PUSH2 0x605 JUMP JUMPDEST DUP2 MSTORE ADD SWAP3 ADD SWAP3 ADD SWAP2 SWAP1 SWAP9 SWAP7 SWAP9 SWAP8 SWAP6 SWAP5 SWAP4 SWAP8 PUSH2 0x12E JUMP JUMPDEST PUSH4 0x4E487B71 PUSH1 0xE0 SHL DUP5 MSTORE PUSH1 0x41 SWAP1 MSTORE PUSH1 0x24 DUP4 REVERT JUMPDEST POP DUP1 REVERT JUMPDEST POP CALLVALUE PUSH2 0xBE JUMPI PUSH1 0x20 CALLDATASIZE PUSH1 0x3 NOT ADD SLT PUSH2 0xBE JUMPI CALLDATALOAD PUSH1 0x1 SLOAD DUP2 LT ISZERO PUSH2 0xBE JUMPI PUSH1 0x1 PUSH1 0x6 SWAP3 SWAP4 MSTORE MUL SWAP1 PUSH2 0xBA PUSH1 0x1 DUP1 PUSH1 0xA0 SHL SUB DUP4 PUSH32 0xB10E2D527612073B26EECDFD717E6A320CF44B4AFAC2B0732D9FCBE2B7FA0CF6 ADD SLOAD AND SWAP2 PUSH2 0x253 PUSH32 0xB10E2D527612073B26EECDFD717E6A320CF44B4AFAC2B0732D9FCBE2B7FA0CF7 DUP6 ADD PUSH2 0x4E7 JUMP JUMPDEST SWAP4 PUSH32 0xB10E2D527612073B26EECDFD717E6A320CF44B4AFAC2B0732D9FCBE2B7FA0CF8 DUP2 ADD SLOAD PUSH2 0x2CE PUSH32 0xB10E2D527612073B26EECDFD717E6A320CF44B4AFAC2B0732D9FCBE2B7FA0CFA PUSH2 0x2C7 PUSH32 0xB10E2D527612073B26EECDFD717E6A320CF44B4AFAC2B0732D9FCBE2B7FA0CF9 DUP6 ADD PUSH2 0x4E7 JUMP JUMPDEST SWAP4 ADD PUSH2 0x4E7 JUMP JUMPDEST SWAP3 MLOAD SWAP6 DUP7 SWAP6 DUP7 PUSH2 0x5B8 JUMP JUMPDEST POP SWAP2 SWAP1 CALLVALUE PUSH2 0x1CE JUMPI PUSH1 0x20 CALLDATASIZE PUSH1 0x3 NOT ADD SLT PUSH2 0x1CE JUMPI PUSH1 0x1 PUSH1 0x1 PUSH1 0xA0 SHL SUB SWAP2 DUP4 CALLDATALOAD DUP4 DUP2 AND SWAP1 DUP2 SWAP1 SUB PUSH2 0x1CE JUMPI SWAP2 DUP2 PUSH2 0xBA SWAP4 DUP3 SWAP4 MSTORE DUP1 PUSH1 0x20 MSTORE KECCAK256 SWAP3 DUP4 SLOAD AND SWAP3 PUSH2 0x322 PUSH1 0x1 DUP3 ADD PUSH2 0x4E7 JUMP JUMPDEST SWAP5 PUSH2 0x2CE PUSH1 0x2 DUP4 ADD SLOAD SWAP2 PUSH2 0x2C7 PUSH1 0x3 DUP6 ADD PUSH2 0x4E7 JUMP JUMPDEST SWAP2 SWAP1 POP CALLVALUE PUSH2 0x3B1 JUMPI PUSH1 0x20 CALLDATASIZE PUSH1 0x3 NOT ADD SLT PUSH2 0x3B1 JUMPI CALLDATALOAD PUSH1 0x1 PUSH1 0x1 PUSH1 0xA0 SHL SUB DUP2 AND SWAP2 SWAP1 DUP3 SWAP1 SUB PUSH2 0x3B1 JUMPI PUSH2 0xBA SWAP4 PUSH2 0x39E SWAP3 PUSH1 0x60 PUSH1 0xA0 DUP5 PUSH2 0x377 DUP9 SWAP7 PUSH2 0x493 JUMP JUMPDEST DUP5 DUP2 MSTORE DUP3 PUSH1 0x20 DUP3 ADD MSTORE DUP5 DUP7 DUP3 ADD MSTORE DUP3 DUP1 DUP3 ADD MSTORE DUP3 PUSH1 0x80 DUP3 ADD MSTORE ADD MSTORE DUP2 MSTORE DUP1 PUSH1 0x20 MSTORE KECCAK256 PUSH2 0x605 JUMP JUMPDEST SWAP1 MLOAD SWAP2 DUP3 SWAP2 PUSH1 0x20 DUP4 MSTORE PUSH1 0x20 DUP4 ADD SWAP1 PUSH2 0x3F5 JUMP JUMPDEST DUP4 DUP1 REVERT JUMPDEST SWAP2 SWAP1 DUP3 MLOAD SWAP3 DUP4 DUP3 MSTORE PUSH1 0x0 JUMPDEST DUP5 DUP2 LT PUSH2 0x3E1 JUMPI POP POP DUP3 PUSH1 0x0 PUSH1 0x20 DUP1 SWAP5 SWAP6 DUP5 ADD ADD MSTORE PUSH1 0x1F DUP1 NOT SWAP2 ADD AND ADD ADD SWAP1 JUMP JUMPDEST PUSH1 0x20 DUP2 DUP4 ADD DUP2 ADD MLOAD DUP5 DUP4 ADD DUP3 ADD MSTORE ADD PUSH2 0x3C0 JUMP JUMPDEST PUSH1 0x1 DUP1 PUSH1 0xA0 SHL SUB SWAP1 DUP2 DUP2 MLOAD AND DUP4 MSTORE PUSH1 0x20 SWAP1 PUSH1 0xA0 PUSH2 0x453 PUSH2 0x441 PUSH2 0x425 DUP6 DUP6 ADD MLOAD PUSH1 0xC0 DUP8 DUP11 ADD MSTORE PUSH1 0xC0 DUP10 ADD SWAP1 PUSH2 0x3B5 JUMP JUMPDEST PUSH1 0x40 DUP6 ADD MLOAD PUSH1 0x40 DUP10 ADD MSTORE PUSH1 0x60 DUP6 ADD MLOAD DUP9 DUP3 SUB PUSH1 0x60 DUP11 ADD MSTORE PUSH2 0x3B5 JUMP JUMPDEST PUSH1 0x80 DUP5 ADD MLOAD DUP8 DUP3 SUB PUSH1 0x80 DUP10 ADD MSTORE PUSH2 0x3B5 JUMP JUMPDEST SWAP2 ADD MLOAD SWAP4 PUSH1 0xA0 DUP2 DUP4 SUB SWAP2 ADD MSTORE DUP2 DUP1 DUP6 MLOAD SWAP3 DUP4 DUP2 MSTORE ADD SWAP5 ADD SWAP2 PUSH1 0x0 JUMPDEST DUP3 DUP2 LT PUSH2 0x47D JUMPI POP POP POP POP POP SWAP1 JUMP JUMPDEST DUP4 MLOAD DUP6 AND DUP7 MSTORE SWAP5 DUP2 ADD SWAP5 SWAP3 DUP2 ADD SWAP3 PUSH1 0x1 ADD PUSH2 0x46E JUMP JUMPDEST PUSH1 0xC0 DUP2 ADD SWAP1 DUP2 LT PUSH8 0xFFFFFFFFFFFFFFFF DUP3 GT OR PUSH2 0x4AF JUMPI PUSH1 0x40 MSTORE JUMP JUMPDEST PUSH4 0x4E487B71 PUSH1 0xE0 SHL PUSH1 0x0 MSTORE PUSH1 0x41 PUSH1 0x4 MSTORE PUSH1 0x24 PUSH1 0x0 REVERT JUMPDEST SWAP1 PUSH1 0x1F DUP1 NOT SWAP2 ADD AND DUP2 ADD SWAP1 DUP2 LT PUSH8 0xFFFFFFFFFFFFFFFF DUP3 GT OR PUSH2 0x4AF JUMPI PUSH1 0x40 MSTORE JUMP JUMPDEST SWAP1 PUSH1 0x40 MLOAD SWAP1 PUSH1 0x0 DUP4 SLOAD SWAP1 PUSH1 0x1 DUP3 DUP2 SHR SWAP1 DUP1 DUP5 AND SWAP7 DUP8 ISZERO PUSH2 0x5AE JUMPI JUMPDEST PUSH1 0x20 SWAP5 DUP6 DUP5 LT DUP10 EQ PUSH2 0x59A JUMPI DUP8 SWAP9 DUP5 DUP10 SWAP8 SWAP9 SWAP10 MSTORE SWAP1 DUP2 PUSH1 0x0 EQ PUSH2 0x578 JUMPI POP PUSH1 0x1 EQ PUSH2 0x539 JUMPI JUMPDEST POP POP POP PUSH2 0x537 SWAP3 POP SUB DUP4 PUSH2 0x4C5 JUMP JUMPDEST JUMP JUMPDEST PUSH1 0x0 SWAP1 DUP2 MSTORE DUP6 DUP2 KECCAK256 SWAP6 SWAP4 POP SWAP2 SWAP1 JUMPDEST DUP2 DUP4 LT PUSH2 0x560 JUMPI POP POP PUSH2 0x537 SWAP4 POP DUP3 ADD ADD CODESIZE DUP1 DUP1 PUSH2 0x528 JUMP JUMPDEST DUP6 SLOAD DUP9 DUP5 ADD DUP6 ADD MSTORE SWAP5 DUP6 ADD SWAP5 DUP8 SWAP5 POP SWAP2 DUP4 ADD SWAP2 PUSH2 0x547 JUMP JUMPDEST SWAP3 POP POP POP PUSH2 0x537 SWAP5 SWAP3 POP PUSH1 0xFF NOT AND DUP3 DUP5 ADD MSTORE ISZERO ISZERO PUSH1 0x5 SHL DUP3 ADD ADD CODESIZE DUP1 DUP1 PUSH2 0x528 JUMP JUMPDEST PUSH4 0x4E487B71 PUSH1 0xE0 SHL DUP6 MSTORE PUSH1 0x22 PUSH1 0x4 MSTORE PUSH1 0x24 DUP6 REVERT JUMPDEST SWAP2 PUSH1 0x7F AND SWAP2 PUSH2 0x502 JUMP JUMPDEST SWAP4 PUSH2 0x5E1 PUSH2 0x5F4 SWAP4 PUSH2 0x602 SWAP8 SWAP6 SWAP4 PUSH1 0x1 DUP1 PUSH1 0xA0 SHL SUB AND DUP8 MSTORE PUSH1 0xA0 PUSH1 0x20 DUP9 ADD MSTORE PUSH1 0xA0 DUP8 ADD SWAP1 PUSH2 0x3B5 JUMP JUMPDEST SWAP2 PUSH1 0x40 DUP7 ADD MSTORE DUP5 DUP3 SUB PUSH1 0x60 DUP7 ADD MSTORE PUSH2 0x3B5 JUMP JUMPDEST SWAP2 PUSH1 0x80 DUP2 DUP5 SUB SWAP2 ADD MSTORE PUSH2 0x3B5 JUMP JUMPDEST SWAP1 JUMP JUMPDEST SWAP1 PUSH1 0x40 MLOAD SWAP2 PUSH2 0x613 DUP4 PUSH2 0x493 JUMP JUMPDEST DUP1 SLOAD PUSH1 0x1 PUSH1 0x1 PUSH1 0xA0 SHL SUB SWAP1 DUP2 AND DUP5 MSTORE PUSH1 0x1 SWAP2 DUP5 SWAP2 SWAP1 PUSH1 0x5 PUSH2 0x635 DUP3 DUP7 ADD PUSH2 0x4E7 JUMP JUMPDEST SWAP2 PUSH1 0x20 SWAP3 DUP4 DUP7 ADD MSTORE PUSH1 0x2 DUP2 ADD SLOAD PUSH1 0x40 DUP7 ADD MSTORE PUSH2 0x653 PUSH1 0x3 DUP3 ADD PUSH2 0x4E7 JUMP JUMPDEST PUSH1 0x60 DUP7 ADD MSTORE PUSH2 0x664 PUSH1 0x4 DUP3 ADD PUSH2 0x4E7 JUMP JUMPDEST PUSH1 0x80 DUP7 ADD MSTORE ADD SWAP1 PUSH1 0x40 MLOAD SWAP5 DUP6 DUP7 SWAP5 DUP4 DUP6 SLOAD SWAP3 DUP4 DUP2 MSTORE ADD SWAP5 PUSH1 0x0 MSTORE DUP4 PUSH1 0x0 KECCAK256 SWAP4 PUSH1 0x0 SWAP2 JUMPDEST DUP4 DUP4 LT PUSH2 0x6A7 JUMPI POP POP POP POP POP POP PUSH1 0xA0 SWAP3 SWAP2 PUSH2 0x6A3 SWAP2 SUB DUP5 PUSH2 0x4C5 JUMP JUMPDEST ADD MSTORE JUMP JUMPDEST DUP6 SLOAD DUP2 AND DUP8 MSTORE DUP10 SWAP8 POP SWAP6 DUP2 ADD SWAP6 SWAP5 DUP5 ADD SWAP5 SWAP2 DUP5 ADD SWAP2 PUSH2 0x687 JUMP INVALID LOG2 PUSH5 0x6970667358 0x22 SLT KECCAK256 0xE8 SUB 0xEB 0xE2 DUP6 PUSH7 0xE09F218316E837 0xA8 0xD8 PUSH9 0x17F4EC548F97C60605 0xB7 SWAP16 PUSH19 0xE4ACAFE64736F6C6343000811003300000000 "
				},
				"gasEstimates": {
					"creation": {
						"codeDepositCost": "356600",
						"executionCost": "400",
						"totalCost": "357000"
					},
					"external": {
						"getAllParties()": "infinite",
						"getPartyDetails(address)": "infinite",
						"parties(address)": "infinite",
						"partyList(uint256)": "infinite",
						"partyNames(uint256)": "infinite"
					}
				},
				"methodIdentifiers": {
					"getAllParties()": "b867bfcc",
					"getPartyDetails(address)": "00da7228",
					"parties(address)": "4f235207",
					"partyList(uint256)": "640e79b7",
					"partyNames(uint256)": "f3845166"
				}
			},
			"storageLayout": {
				"storage": [
					{
						"astId": 13,
						"contract": "Contract/Party.sol:Party",
						"label": "parties",
						"offset": 0,
						"slot": "0",
						"type": "t_mapping(t_address,t_struct(Party)114_storage)"
					},
					{
						"astId": 17,
						"contract": "Contract/Party.sol:Party",
						"label": "partyList",
						"offset": 0,
						"slot": "1",
						"type": "t_array(t_struct(Party)114_storage)dyn_storage"
					},
					{
						"astId": 20,
						"contract": "Contract/Party.sol:Party",
						"label": "partyNames",
						"offset": 0,
						"slot": "2",
						"type": "t_array(t_string_storage)dyn_storage"
					}
				],
				"types": {
					"t_address": {
						"encoding": "inplace",
						"label": "address",
						"numberOfBytes": "20"
					},
					"t_array(t_address)dyn_storage": {
						"base": "t_address",
						"encoding": "dynamic_array",
						"label": "address[]",
						"numberOfBytes": "32"
					},
					"t_array(t_string_storage)dyn_storage": {
						"base": "t_string_storage",
						"encoding": "dynamic_array",
						"label": "string[]",
						"numberOfBytes": "32"
					},
					"t_array(t_struct(Party)114_storage)dyn_storage": {
						"base": "t_struct(Party)114_storage",
						"encoding": "dynamic_array",
						"label": "struct Structure.Party[]",
						"numberOfBytes": "32"
					},
					"t_mapping(t_address,t_struct(Party)114_storage)": {
						"encoding": "mapping",
						"key": "t_address",
						"label": "mapping(address => struct Structure.Party)",
						"numberOfBytes": "32",
						"value": "t_struct(Party)114_storage"
					},
					"t_string_storage": {
						"encoding": "bytes",
						"label": "string",
						"numberOfBytes": "32"
					},
					"t_struct(Party)114_storage": {
						"encoding": "inplace",
						"label": "struct Structure.Party",
						"members": [
							{
								"astId": 102,
								"contract": "Contract/Party.sol:Party",
								"label": "owner",
								"offset": 0,
								"slot": "0",
								"type": "t_address"
							},
							{
								"astId": 104,
								"contract": "Contract/Party.sol:Party",
								"label": "name",
								"offset": 0,
								"slot": "1",
								"type": "t_string_storage"
							},
							{
								"astId": 106,
								"contract": "Contract/Party.sol:Party",
								"label": "totalMember",
								"offset": 0,
								"slot": "2",
								"type": "t_uint256"
							},
							{
								"astId": 108,
								"contract": "Contract/Party.sol:Party",
								"label": "agenda",
								"offset": 0,
								"slot": "3",
								"type": "t_string_storage"
							},
							{
								"astId": 110,
								"contract": "Contract/Party.sol:Party",
								"label": "logoUrl",
								"offset": 0,
								"slot": "4",
								"type": "t_string_storage"
							},
							{
								"astId": 113,
								"contract": "Contract/Party.sol:Party",
								"label": "members",
								"offset": 0,
								"slot": "5",
								"type": "t_array(t_address)dyn_storage"
							}
						],
						"numberOfBytes": "192"
					},
					"t_uint256": {
						"encoding": "inplace",
						"label": "uint256",
						"numberOfBytes": "32"
					}
				}
			},
			"userdoc": {
				"kind": "user",
				"methods": {},
				"version": 1
			}
		}
	}
}